:020000041004E6
:1000000000600020E9320410A9310410AB31041063
:10001000AA5555AA45554C420000000000000000BA
:10002000000000000000000000000000AD310410DE
:1000300000000000000000004F0F0410AF3104105A
:10004000A70F0410BF0F0410000000000000000004
:100050000F1004105F110410231504107B210410ED
:100060000000000000000000000000000000000090
:1000700000000000D32E0410C5310410CD3104104F
:1000800000000000271504101B1A0410B71E0410EE
:10009000371F0410731F04103F2F0410BD310410CC
:1000A0000000000000000000000000000000000050
:1000B0000000000000000000000000000000000040
:1000C000FDB5B4B03C98049102A93B2288540020AD
:1000D0000D9028A8401C27900DE00498349A904772
:1000E0000490002801D100F042FE0D98401C0D90B4
:1000F0003598401C359035980178002910D0252975
:10010000EBD100200790089009900A900B900C907A
:10011000002102240120129008200190359D05E065
:100120000D9800F026FE0800129901436D1C2878F6
:100130002028F8D023280BD02B2804D02D2804D039
:10014000302808D00AE02143F0E708000421ECE75A
:1001500008000821E9E708001021E6E72A280FD166
:10016000369802681068121D369B1A600F9000289E
:1001700004D542420F920800042101436D1C12E095
:1001800000200F90624A09E00F9B934205DA9E001F
:10019000F3185B00181830380F906D1C2878030096
:1001A000303B0A2BF0D328782E2803D00020C04300
:1001B0000E9027E06D1C28782A2808D13698006810
:1001C0000268001D369B18600E926D1C1AE02D28E7
:1001D00002D12D226D1C00E0002200200E900CE0C8
:1001E000002A09D10E9B4A4EB34205DA9E00F3184D
:1001F0005B00181830380E906D1C28780300303BD7
:100200000A2BEDD302A801872E7831003E487844AE
:10021000FF30093800F092FE002801D06D1C00E08C
:10022000002602A83A214654405C682804D1287868
:1002300068280BD1622005E06C2807D128786C284B
:1002400004D1712002A93A2288546D1C16A8069088
:10025000287869460870681C359068460278100056
:1002600025382DD02038022800D800E2133801D1DB
:1002700000F0A1FC0B3801D100F03AFD401E01D185
:1002800000F0E7FC401E022800D8F0E1001F01D179
:1002900000F0DFFC401F00D148E1401E01D100F01A
:1002A0008AFC401E00D1EBE0C01E10D0801E01D1A0
:1002B00000F081FCC01E01D100F07DFC00F023FDA8
:1002C000252016A908701298079000F027FD36988F
:1002D00000680468001D369908600594002C00D061
:1002E000BAE002A83B21405C002800D1ADE0002428
:1002F000E44306487844143000F02AFE201A01D066
:1003000000F035FD00F00AFDCC2B0000002C0000B1
:10031000CBCCCC0C641E01D000F01FFD3495079DA2
:1003200016AC002D0FD0349E227802A9300000F0C8
:10033000D9FD002802D4641C6D1EF5D13496002826
:1003400001D000F014FD3020694608700A9C002C92
:100350000DDD349D01236A4602A9280000F0D3FD7B
:10036000002801D000F003FD641EF3D13495059CF4
:10037000089D002D0FD0349E227802A9300000F095
:10038000B1FD002802D4641C6D1EF5D134960028FE
:1003900001D000F0ECFC302769460F700B9C002C5C
:1003A0000DDD349D01236A4602A9280000F0ABFD53
:1003B000002801D000F0DBFC641EF3D134950598D1
:1003C00008994418099D002D0FD0349E227802A967
:1003D000300000F087FD002802D4641C6D1EF5D1AA
:1003E0003496002801D000F0C2FC684607700C9CCF
:1003F000002C0DDD349D01236A4602A9280000F07F
:1004000082FD002801D000F0B2FC641EF3D13495C7
:1004100002A83821405C400700D46CE620206946E1
:1004200008700198002800DC65E6019C349D0123DA
:100430006A4602A9280000F066FD002801D000F0FD
:1004400096FC641EF3D1349555E63E487844FF305F
:100450000B38059000F062FC0E9D002D03D52000A6
:1004600000F09AFD09E02A000021200000F09CFD28
:10047000002801D0001B00E02800089000F04EFC8E
:10048000369800680268001D369908600020C04355
:100490000021104002AA03C216A80590069A3C2328
:1004A00002A803C8002904D1002802D10E9C002C08
:1004B00013D05B1E05072D0F3035EEB23A2E00DB50
:1004C0002735D55400090C072043090901D100281C
:1004D00003D0059CD518AC42EBD33C20C01A089041
:1004E000D11805910E99884208DA081A0A9002A8D4
:1004F000018FBD4A0A40028700F010FC002901D498
:1005000000F00CFC02A93822895C14220A40102A4F
:1005100001D000F003FC0F99079A891A0A9A891AE8
:10052000081A002801DC00F0F9FB42E302A83B2195
:10053000415C002908D00024E44349487844FF3056
:100540002130D9E6E42900003A21405C622868D0D5
:10055000682819D06A2844D06C2806D071284ED05B
:10056000742830D07A2820D06CE036980068016872
:10057000001D369A1060002976D10024E4433948E2
:100580007844FF301F38B7E6369800680168001DD0
:10059000369A1060002905D10024E443314878449C
:1005A000C230A9E60D980880B8E336980068016863
:1005B000001D369A1060002956D10024E4432948D2
:1005C0007844A03098E6369800680168001D369A95
:1005D0001060002948D10024E44322487844843044
:1005E0008AE6369800680268001D36990860002A7D
:1005F00013D10024E4431B48784468307CE63698E5
:1006000000680268001D36990860002A05D10024A0
:10061000E443144878444C306EE60D98C11703C289
:100620007CE3369800680168001D369A1060002946
:1006300005D10024E4430B48784428305CE60D984B
:1006400008706BE3369800680168001D369A1060E8
:10065000002909D10024E44302487844801D4BE678
:100660007C280000902800000D98086056E336981A
:100670000368DB1D072083433698036003CB369D58
:100680002B6002AB03C3C80F02D007982D210AE0EC
:1006900002A8008F204202D007982B2103E0C00758
:1006A00005D50798202116AB1954401C079016A8B1
:1006B00007994318059328AC02A803C814AD03C5D5
:1006C0000E98002801D5062007E007D1684600787B
:1006D00020210143672901D112980E9002A803C876
:1006E000080041004915491C10D100030ED0032019
:1006F0000890613A1A2A04D23C497944FF311139F1
:1007000015E03B497944FF31173910E002A803C8CE
:10071000080041004915491C0ED100030CD10320EB
:100720000890613A1A2A16D332497944C631032215
:10073000180000F05FFCF1E202A8C0C885A003C861
:100740003940002280235B03994208D2002079407F
:1007500032AB03C313E0284979449C31E7E7774B78
:100760003B40774F1F4332AAC0C2080D75A20CCA86
:10077000101876494843764900F04AFC020032A836
:1007800003C802AB03C302A803C872A6C0CE0640CA
:100790000F4003D1002E01D10025B8E014A830C8C5
:1007A0006D006D0825920720801A05DD02002000EB
:1007B000290000F070FB0AE042420020674900F087
:1007C0006AFB02000B002000290000F050FC2022F0
:1007D0006B461B781A436B465A706A465278662AF3
:1007E0000CD1259A0A320AE0EFFF000040270000F2
:1007F00040270000442700003C27000006220E9BF3
:100800009A18142A00DD142228AB30241C705C1CBA
:1008100002E014A803C8139A002A3CDD14AB03C3FA
:10082000139214A803C800F083FC269006460834EF
:10083000042530000A2100F0FFFB0F0030000A21E0
:1008400000F0FAFB06003037601E077030000A2106
:1008500000F0F2FB0F0030000A2100F0EDFB060073
:10086000A41E303727706D1EE3D108341398083862
:1008700013900028CDDD269800F072FC02000B00DA
:1008800014A803C800F0D9FC0022354B00F04CFD41
:1008900014AA03C2C5E72798201A28A94C1C259D35
:1008A00002E0401E6D1E641C21783029F9D0694693
:1008B0004978662901D1691C06E0694649786529AD
:1008C00001D1129900E000210E9A5618B04200DAC8
:1008D000461E002E1BD4864204DAA05D342801DDBA
:1008E000392000E030203100621E521801E0761EEF
:1008F000521E491E13788342F9D0392802D1605C18
:10090000401C6054002902D5641E761C6D1C68468C
:100910000078694648700E9F30B2002803DC129EB2
:10092000054C7C44123468464178202008436628F0
:1009300018D16D1C2EE000BF04260000FFFF0F80C1
:100940000000E03F02FCFFFFFFFFFFFF9775000084
:10095000A0860100FFFFFFFFFFFFFF7F0000F03FC9
:1009600084D7974167285CD128B20321C9438842C4
:1009700041DBB8423FDA6D1C02A8008F0199C0B27A
:10098000084203D130B2B84200DA070028B23F1A59
:1009900000D5002728B2002800DDA8E00898411CF7
:1009A00008913021059A1154002F05DC02A8008F10
:1009B0000199C0B2084205D00898411C08912E2127
:1009C000059A115428B241428F4200DA7D422DB27D
:1009D00068420B907D1930B2854200DA2E0036B2A3
:1009E0000996320021000598089BC01800F002FB10
:1009F000A81B0C90C7E030B2B84206DA02A9098FF2
:100A0000019AC9B2114200D107007F1E00D500270C
:100A100068464078672801D1652000E04520694696
:100A200048700898411C08912178059A1154611C5E
:100A3000002F05DC02A8008F019AC0B2104218D026
:100A40000898421C08922E22059B1A54002F10DD94
:100A5000741E20B2874200DA3C0022B20598089B3F
:100A6000C01800F0C7FA24B2089800190890381B83
:100A70000B9005980899401869464978017029B289
:100A8000002903D42B214170861C03E02D224270E3
:100A9000861C4D42002412A928000D0005E00A2101
:100AA00000F0B6FA2970641C6D1C00B20028F6DC58
:100AB000012C08DC6846407820210143652902D1D9
:100AC00030203070761C002C09D130203070761C1C
:100AD00007E0641E12A8005D30303070761C002CD8
:100AE000F7DC059808994018301A09904BE030B2AD
:100AF00029B288421DDA32B221000598089BC0183D
:100B000000F078FA36B20898801908902DB2A91B27
:100B10000B91002F05DC02A9098F019AC9B211427D
:100B200005D02E21059A11540998401C09900C9764
:100B300029E02AB221000598089BC01800F05AFA53
:100B400028B2089909180891751B002F05DC02AA24
:100B5000128F019BD2B21A4204D04A1C08922E2254
:100B6000059B5A5429B28F4200DA3D002AB221185F
:100B70000598089BC01800F03DFA2DB2089840195E
:100B80000890781B0B9002A83821405C142101408A
:100B9000102900D0C2E00798089940180B99401816
:100BA000099940180C9940180F99884200DBB5E06C
:100BB000081A0A90B2E002AA3A20105C622808D013
:100BC00068280ED06A2814D06C281DD0712810D047
:100BD0001AE0369801680868091D369B1960C0B292
:100BE00018E0369801680868091D369B196080B2C4
:100BF00010E036980368DB1D0720834336980360B6
:100C000003CB369C236006E0369801680868091D0E
:100C1000369B1960002102AB03C3108F0199C0B24B
:100C200008425BD002A803C8002901D1002855D092
:100C3000684600782021014378294FD1079816A9EA
:100C400030220A54401C421C07926A4612780A5409
:100C500044E002AA3A20105C622808D068280ED02E
:100C60006A2814D06C281DD0712810D01AE036984C
:100C700001680868091D369B196040B218E0369873
:100C800001680868091D369B196000B210E03698AB
:100C90000368DB1D072083433698036003CB369D32
:100CA0002B6006E0369801680868091D369B1960BC
:100CB000C11702AB03C3002902DA07982D2109E00E
:100CC000108F204202D007982B2103E0C00705D5E2
:100CD0000798202116AA1154401C079016A80799BE
:100CE000401805906846017802A800F044F815E025
:100CF00012980790369800680168001D369A1060B7
:100D000016A801700AE0252016A90870129807900D
:100D100068460078002801D04A7007940F98079918
:100D2000401A0A99401A0899401A0B99401A0999D1
:100D3000401A0C99401A019002A83821405C4007E3
:100D400001D5FFF7ECFA20206946087001980028C9
:100D500001DCFFF7E4FA019C349D01236A4602A9F5
:100D6000280000F0D0F8002801D1FFF7D3FA0020C6
:100D7000C04337B0F0BDF2B586B0040025696F29D5
:100D800001D1082707E0084620210143782901D036
:100D90000A2700E010273C2603CC083C04AA03C223
:100DA0006A46127E642A03D06A46127E692A09D1F5
:100DB000002907DA04A803C800220023121A8B4175
:100DC00004A80CC004A803C800290DD100280BD129
:100DD000206B002808D1082F3BD13820205C000769
:100DE00037D53B26302033E00294009504A830C864
:100DF000761E0196200029003A00FB1700F056FBF2
:100E00003032D0B23A2803DB6846007E51381218DF
:100E100000988255200029003A00FB1700F046FB9D
:100E200004000D0001D1002C05D00298C068009983
:100E300089198842DCD3029C009D082F09D13820F3
:100E4000205C000705D5A85D302802D0761E302032
:100E5000A8553C20801BA061A919E160216B884244
:100E600006DA081A2062208F1C490140218710E011
:100E700000290ED53821615C14220A40102A08D1BD
:100E8000616B6269891A226A891A081A002800DDD2
:100E9000206207B0F0BDF8B50026114F04000D0028
:100EA000009214E0C00707D532003B002000290063
:100EB00000F03AFA04000D00009840100090300055
:100EC000390032003B0000F02FFA06000F000098B6
:100ED0000028E7D120002900F4BD0000EFFF00004A
:100EE0000000244010B503000C001100A0689847D2
:100EF000A060002804D0E06A401CE062002010BD21
:100F00000020C04310BDF8B50024002B11D007000D
:100F10000E0014001D002178B068B847B0600028AA
:100F200009D0F06A401CF0620020641C6D1EF2D1F2
:100F300004002000F2BD0020C043F9E7C9B20278E6
:100F40008A4203D0401C002AF9D100207047704724
:100F500080B5002801D100BF07A006490B68002B0F
:100F600003D022220021984701E000F0D4FA222089
:100F700002BD000084000020636F6E7374726169AB
:100F80006E742068616E646C65723A2062616420E0
:100F90006D65737361676500431C0178401C0942ED
:100FA000FBD1C01A70477047C9B2521E05D30378EF
:100FB000401C8B42F9D1401E70470020704770479B
:100FC00070B4103A03D378C9103A78C0FBD25307F3
:100FD00001D318C918C001D508C908C0D20704D365
:100FE0000B880380891C801C002A01D50B780370B4
:100FF00070BC70478B0701D18307E1D0124205D046
:101000000B78491C0370401C521EF9D17047704781
:10101000CA0F00D0494203105A400DD004B500D386
:10102000404200F009F8009AD20701D34942124227
:1010300000D5404204BD0000094214D088420FD3BD
:101040000122030C01D100041204002300185B41AB
:101050008B4200D35B1A5241F8D31900100070473D
:1010600001000020704708B500F05AFA08BDF0B43E
:101070000E005E400125ED072E40B446AE0ADF1893
:101080004C18F4423BD2F74241D2640D43D07F0D5D
:1010900038D0E41BC902DB0229432B43CF0ADB0A09
:1010A0000600B61A9F4104D2641EB6197F41B618D5
:1010B0005F416812800D24180018844222DAE80C7F
:1010C0000021B6197F41B61A9F4102D2B6185F417E
:1010D0003F1C40414941F4D3241C21DD2405B619AD
:1010E0007F41B61A9F4105D33743C60737430026D1
:1010F000012F7041614166463143F0BC7047FCD11D
:10110000F74205D20020C14349054908F3E704D05E
:101110000020C143F1E77F0DFAD000206146ECE7E3
:101120002442FAD1401C61410F03F6D30020E2E7CC
:101130004A1812D2400DC90208430121C9070843C9
:10114000520D40210901521A521C06D452421F323C
:1011500001D4D0407047C0177047002070477047D7
:10116000010042221201D21E004207D002D4521EB8
:101170000018FCD5C10A4005120589187047000007
:101180008B4200D1824205D98446100062468C46CB
:1011900019006346DF184C18640D7F0D3AD0661CA9
:1011A000760537D0E61B352E34DCDB022B43DB0A19
:1011B0000C0DC9022943C912202E0DDB1700203E59
:1011C00006D01F00F741F3405F400026012A774117
:1011D000C01871410DD217E01700F741F240574097
:1011E000F3415A40B340F3405A4000268018594119
:1011F0000AD3A21C52050FD0C207012F724117005B
:101200004008CB0718434908641C24054208AF4135
:1012100070416141F0BC7047641C21050020F9E772
:101220006B4010E06B40ABE7F742F3D1E943F1E7E5
:101230002442EFD100200021ECE7F0B40125ED07B6
:101240000F005F40EED40C00871A9C4105D2C01BF2
:10125000A141D219634169406B40AE0ADF184C18B6
:10126000F442E1D2640D7F0DE2D0E61B362ED1DCD4
:10127000DB022B43DB0AA4460C0DC9022943C90A31
:10128000012E28DC04D1D6075208DF073A435B0859
:10129000EF0A76429041994114D039423BD1B619B8
:1012A00040414941761C394204D1761C001849411D
:1012B0003942FAD0B9436746B74208D9A41B24057E
:1012C0002143A7E70042EAD13642E8D1A2E7E40A87
:1012D000E10700209EE7202E0BDD203E1F00F3409B
:1012E000F7415F40012A002257417E4298419141D7
:1012F0000BE01700F741F2405740F3415A40B3402A
:10130000F3405A407E42904199410A0303D2641E41
:10131000B619404149410027641E24054208AE41E8
:1013200078416141F0BC7047F0B50E005E40012588
:10133000ED072E40B446AE0ADF184C18F44208D22E
:10134000F7420ED2640D01D07F0D12D1002061460C
:10135000F0BD05D1F74201D87F0D05D10020C14372
:10136000F0BDFBD1640DF9D00020C1434905490807
:101370008FE0E419C902DB0229432B43DB0A460D47
:10138000C00231438E4630B487B295B27D432E0CF5
:10139000ADB2140C7C43A419260C240425439CB242
:1013A0007C43A419190C7943270CC919A4B20F0462
:1013B0003C43090C000C97B247432E0CBE19354331
:1013C000ADB2170C4743360CBF19A6B2BF193E0485
:1013D0003543240C3E0C36199FB24743BF19BCB2AB
:1013E0003E0C89191F0C47437F183E043443390CC7
:1013F000704680B297B247432E0CBE193543ADB24A
:10140000170C4743360CBF19A6B2BF193E0435432B
:10141000240C3E0C36199FB24743BF19BCB23E0C98
:1014200089191F0C47437F183E043443390C774613
:101430003F0C90B278432E0C80190604ADB22E43B7
:10144000050CA0B22D18120C7A435019020C80B270
:10145000240CA4189AB27A43121914042043120CD3
:1014600089181B0C7B43C91830BCEF0A394203D1E1
:10147000B61940414941641E6F12BF0DE41B0BDBDE
:10148000FF19BC4211DA240500274208AE41784119
:10149000614166463143F0BD641C05D1401C614189
:1014A000CF0201D34908F4E750E75DE7124224D0A8
:1014B000994228D970B500251B4202D00C000021AA
:1014C00009E00024012649186441944200D3A41A7B
:1014D0007641F8D33100012601E0764109D20018A7
:1014E00064416D41A41A9D41F7D2A4185D41B6191B
:1014F000F5D3300022002B0070BD1B42D8D108B5B7
:1015000000F010F808BD01D19042D3D202000B00C8
:1015100000210020704780B5012000F005F801BDD2
:10152000704770477047704780B500BF00BF024AE0
:1015300011001820ABBEFBE726000200F8B504003E
:101540000D007C4E7948844206D07948844203D00D
:101550007C21300000F060FA2868774F002801D025
:10156000B84203D37D21300000F056FA28790128D3
:1015700007D0002805D0022803D07E21300000F0DB
:101580004BFA6879002809D0012807D0022805D035
:10159000032803D07F21300000F03EFAE888802144
:1015A000C900884203DB8021300000F035FA287A38
:1015B000002805D0012803D08121300000F02CFA4A
:1015C000206801218843206020687A4901406879B9
:1015D0004003C022D20102400A43226029687E48AB
:1015E0007E4A6B795B00D25A4A43801A3026F64312
:1015F0008F4A914209D24900FFF71EFD21680E4033
:101600002660616889B2C0220DE0B9420ED24A005C
:101610005118FFF711FD21680E4010213143216060
:10162000616889B2802292020A4362606168890A15
:101630008902EA8811436160208520680621884379
:101640002979490006220A4002432260287A0128AB
:10165000206803D108210143216002E0082188436A
:1016600020602068012101432160F1BD71490160C2
:10167000002101714171C18001727047F8B5040009
:101680000D002C4E2948844206D02948844203D0BC
:10169000F221300000F0C0F92888002805D0012888
:1016A00003D0F321300000F0B7F9A88880273F016C
:1016B000002805D0B84203D0F421300000F0ACF986
:1016C000E888002809D07900884206D0490088427D
:1016D00003D0F521300000F09FF96888790888422E
:1016E00003DBF621300000F097F92889002806D0A6
:1016F000F900884203D0F721300000F08DF96889A5
:10170000B84203DBF821300000F086F929886888A8
:1017100040000843A9880843E98808432989084309
:101720006989C9030143E160F1BD00000000B040D8
:101730000000A04028300410811A0600F8B504000B
:101740000D0016003E4F3C48844207D03B4884427F
:1017500004D0FF213631380000F05EF9300006D0A9
:10176000012E04D09B214900380000F055F935487E
:10177000284001D1002D04D1FF213831380000F07C
:101780004BF9002EE06A02D00543E562F1BDA843A3
:10179000E062F1BD38B504000D002748844207D04F
:1017A0002648844204D0A6214900254800F034F997
:1017B000257431BDFF9FFFFF10B504001E48844211
:1017C00007D01E48844204D0FF215A311C4800F043
:1017D00023F9207E10BD00000024F400CC0200207C
:1017E00010B504001448844207D01448844204D041
:1017F000FF216831124800F00FF920688021014371
:10180000216010BD10B504000B48844207D00B487E
:10181000844204D0FF217631094800F0FDF82068A9
:101820000106C90F01D0012010BD022010BD00002B
:10183000A1860100881300000000B0400000A04015
:1018400028300410807F608C70B504000D001C4EA1
:101850001A48844206D01B48844203D01A493000FB
:1018600000F0DAF81948284001D1002D03D11849B9
:10187000300000F0D1F8206BFFE70540280000D0D1
:101880000120C0B270BD70B504000D000C4E0B48B5
:10189000844207D00B48844204D09F218900300045
:1018A00000F0BAF80948284001D1002D03D10949B8
:1018B000300000F0B1F8A56370BD00000000B0403A
:1018C000283004100000A04026020000807F608CB9
:1018D000270200007D020000F8B586B000F0F0F9A4
:1018E00000F06AFAE120400200F07BFA002000F0EC
:1018F00003FB04A810210170042101710822C270A9
:1019000001224271427081703C4C216888473C48FA
:101910003C4941603C490A681202120AC0231B0676
:1019200013430B60002181600721016026E05A42C9
:1019300018E05642039800F0FFFA050000F02AFB79
:101940000100039800F069FB0100304800F0BDFB86
:1019500000F0F2FA030003988021090400F00EFC65
:10196000E5D81A0000963B002900294800F01AFC2F
:10197000002000F0DAFAC82000F02AF8012327221C
:101980005C2101A800F00AFD684600798007800FFD
:101990000328F0D103A8616A884702A8A16A884792
:1019A000029800F0C9FA070000F0F4FA010002986A
:1019B00000F033FB154900F088FB00F0BDFA02008F
:1019C00002988021090400F0D9FBB2D81600B1E7D3
:1019D00001B410480168CA43009B9A420BD20168C7
:1019E0000023DB439942FAD10099891A02688A429E
:1019F000FCD101B07047009A5118F7E7D4020020DB
:101A000010E000E07E3E000020ED00E000007A449F
:101A10007C31041024000020FEE7704710B5C2009E
:101A200018231340FF249C40E2438907090E994084
:101A3000030004D55A481B071B0F083B00E09948D8
:101A40009B089B00C01803681A401143016010BD39
:101A5000FEB5002653480660032400F054FD694695
:101A6000088068460088002801D1641EF5D16846C8
:101A70000088202837DB68460088012401254005BE
:101A800025D4684600F0A4FD6846417809018078B5
:101A90000843122800DA002583480068000705D4AF
:101AA000002D14D0012000F062F810E07F4FF8689C
:101AB0007F4E3168081A283800020012002806DD1F
:101AC000002D02D0012000F052F8306838607948CB
:101AD000047000F0D4FDBFF34F8F7748A44908602D
:101AE000BFF34F8FFEE70120FEBD10B5002200219D
:101AF000A04804E00B00415C5918491CC9B2435C82
:101B0000002BF7D1CB1C202B12DA022343542123C4
:101B1000441863700823A3704318DA70964A802330
:101B20005B02401880B21843106010681840FCD166
:101B300010BD70B5002100238E4A04E01C00D35C68
:101B4000E3185B1CDBB2D45C002CF7D102253524F2
:101B5000DE1C202E05DAD554D6187470B070D21859
:101B6000D170864A157054709070D17070BD70B588
:101B700080214902814B9CB20C437F4A002804D04B
:101B80001460106808400AD0FBE798789D78FB261F
:101B90002E409E70146014680C40FCD1987070BD8B
:101BA0001CED00E014000020F8B58AB005000C0020
:101BB00003A800BF79A11C22FFF702FA684600F0D3
:101BC00007FD6D4E002D54D003A8402181734C2198
:101BD000C17220210172B22141745B2101756849F3
:101BE0008B6B684A1D0C954209D1C57D8F272F400C
:101BF000C775C57D1B0170271F402F43C7754B6BF1
:101C00001D0C954209D14579CF272F404771457961
:101C10001B0130271F402F43477109680B0C93426B
:101C200008D1C27DFC231340C375C27D8907890F8B
:101C30001143C175C17AFB220A40C27269464A78D3
:101C400012018D781543112D06DDC17D04220A4352
:101C5000C275C07DFFF76DFF8020400203A989B2E5
:101C60000143316031680140FCD1112D01DDFFF7E6
:101C70003CFF124881890029FBD001218181172175
:101C8000018000214160002C07D07068102172682B
:101C90000A40102303409A42F9D03B483B49086070
:101CA0000BB0F0BD00E400E0C000002004000048DC
:101CB000180000200C0000200400FA050C00104859
:101CC00080B508203249088003210120C043FFF776
:101CD000A5FE03210020C043FFF7A0FE0321002042
:101CE000FFF79CFE03210120FFF798FE032104204B
:101CF000FFF794FE03210520FFF790FE0021062048
:101D0000FFF78CFE03210720FFF788FE03210D203B
:101D1000FFF784FE03210E20FFF780FE03210F2032
:101D2000FFF77CFE03211120FFF778FE032112202C
:101D3000FFF774FE03211320FFF770FE0321142028
:101D4000FFF76CFE03211520FFF768FE0321162024
:101D5000FFF764FE03211720FFF760FE0121012039
:101D6000FFF722FF0B480C49086062B601BD000076
:101D70000CED00E05C0000200C0000481C0000207E
:101D8000B007001055AA0000CCBCECFC14000020E9
:101D90000400104066000E0020009040023F000248
:101DA0003E30023C20023B4C023A400239B202343F
:101DB0005B02350B000000000120034908707047EA
:101DC00001480078704700008800002010B504002A
:101DD000202000F08BFD0128FAD0200000F071FDDA
:101DE00010BD78B585B004000121092000F06EFB1C
:101DF000FFF7E6FF1E4980000818001F00680090EA
:101E0000FFF7DEFF6D461B4980000818001F0068C1
:101E100028710026AE716E71684600F0D1FDFFF7A3
:101E2000CFFF154980000818001F00680090FFF7D9
:101E3000C7FF124980000818001F00682871684613
:101E400000F0BEFD0294032002A908714871CE8003
:101E50004E7208720120887202A800F049FC00202E
:101E600000F07AFD012000F02FFC06B070BD0000EC
:101E7000F4320410F8320410FC3204100033041061
:101E800070B50024012804D0022802D00020C043ED
:101E900070BD002901D1002070BD0D00160004E0C6
:101EA0002878FFF793FF6D1C641C3000461E002845
:101EB000F6D1200070BD704738B50E4D2C000C3C9B
:101EC000002811D0022807D00ED2FFF779FF0C218D
:101ED00048432818083805E0FFF772FF0C214843F3
:101EE0002818001F006832BDFFF76AFF0C21484325
:101EF000205832BDDC3204101CB504000121012041
:101F000000F0E4FA2000FFF7D7FF009068460621B2
:101F1000017101218171417100F052FD2000FFF734
:101F2000CBFF002100F0D4FD13BD80B5FFF7C4FF47
:101F300000F0E8FD01BD70470122D2070118090E2B
:101F40007F3910D449421F310FD4001805D2C00187
:101F50001043C84000D5D0437047C0011043C8406B
:101F600005D440427047002070470042F3D510006E
:101F7000704770479D2102000AD002D4491E921872
:101F8000FCD5C905100A1206524100D3012A484166
:101F9000704700009D210200EED55242F446FFF743
:101FA000EBFF0122D207104360470122D207030052
:101FB0004B402ED4431A01D2C01AC91830B44B1862
:101FC0000418240E1B0E22D0FF2C20D0E31A182B4D
:101FD0001DDC09021143C40D641E00021043944627
:101FE0001925ED1A0A00AA40D940451801D36D08F9
:101FF000A41CE405D209280A2D062A436546AA41F5
:10200000604103181B0EFF2B01D3C00DC00530BC6F
:102010007047514006E05140CCE70122D20703004F
:102020004B40F8D4431A03D2C01AC918504051404B
:1020300030B44B18090211430418240E1B0E40D073
:10204000FF2C3AD025009D410BD31ED8C50D400270
:10205000401A0BD3ED050100400AC90591416841C2
:10206000D5E7C50D40024918401AD0D001214008DB
:10207000491C0018FCD58C4204D36D1A000AED05EA
:102080004019C4E7E8051040C1E7182DBFDCAC1CBF
:102090000D00E140E5414D40012D4941C40D0002D4
:1020A0001043451A01D46D199543641EE405280AAE
:1020B0002D069541604130BC7047FF2BA7D1D84316
:1020C000A5E72442A3D10020A1E730B405004D408C
:1020D0000122D20715404B180418240E2ED01B0ED7
:1020E00032D0FF2C34D0FF2B3AD0E4180002090282
:1020F00010431143000A090A9446C2B24A43000A37
:10210000C3B24B43000A4843110A5B181A43D2B2C8
:10211000190A091801D44918641E080A7F3C23DBF8
:10212000FE2C08DAE4050906114363469941604133
:10213000284330BC7047FF20C005F9E728001B0E7C
:10214000FF2BF6D1D043F4E72800FF2CF1D1F9E7BB
:102150004002F7D1FF2B01D14902F3D1E005E7E7B7
:10216000D8054902E4D0EDE743020020641CDFD12A
:102170005B129B1CDCD9D805DAE770470CB401224E
:1021800012060318DA4207D84B18DA4204D80200C4
:102190000A43921802D281420CBC7047FCD088429C
:1021A0000CBC70470EB4C0B5020003A8019000201B
:1021B000009001AB0121044878440C30FDF780FF0A
:1021C000029906B0084700BFFD100000F8B5FFF700
:1021D000F7FDB04E184F01240125ED438000305823
:1021E00000F0A8FC00280ED0FFF7EAFD8000305870
:1021F00000F0B2FCFFF7E4FD1049800008580168C8
:10220000294001603C73FFF7DBFDA34E800030588E
:1022100000F090FC00280ED0FFF7D2FD800030586F
:1022200000F09AFCFFF7CCFD5B498000085801687C
:102230000D4005603C73F1BD140300200C03002029
:1022400070B586B00600FFF7BBFD2E4C800020580D
:102250009249884202D10121914801E0012191482F
:1022600000F034F9FFF7ACFD8F4980000858019069
:10227000FFF7A6FD01AD8D498000085828710020A8
:10228000A871687101A800F09BFBFFF799FD8849D0
:10229000800008580190FFF793FD86498000085898
:1022A000287101A800F08CFB03A8FFF7DFF90125D6
:1022B00003A90D710396FFF783FD03A98000205841
:1022C000FFF73CF9FFF77CFD012211078000205841
:1022D000FFF734FAFFF774FD6946774A1018401E7D
:1022E00000780870022048708D70684600F044FC49
:1022F000FFF766FD714980002058FFF7C4FA0020FF
:1023000006B070BD04030020FCB583B006001700C2
:102310000025684605804180858080214901C18073
:10232000890001816946097C491C4181FFF748FD0C
:10233000634C80002058FFF753FAFFF741FD8000FF
:102340002058FFF75FFA0128F7D05E490D73FFF7B9
:1023500037FD694680002058FFF790F9FFF730FD00
:10236000390080002058FFF715FA37006846067CD0
:1023700008E0FFF725FDE9B2795C80002058FFF7FF
:1023800009FA6D1CE8B2B042F3D34E48007B002836
:10239000FBD0002005B0F0BD08030020FFB585B0DC
:1023A000002401AD2C806846007E6880AC808027C8
:1023B0007F01EF802C8101266E81FFF701FD4049EE
:1023C00080000858FFF70CFAFFF7FAFC3C49800040
:1023D0000858FFF717FA0128F6D03A490C73FFF7AF
:1023E000EFFC3749009101A9009A80001058FFF7CF
:1023F00045F9FFF7E5FC6946097F009A800010580F
:10240000FFF7C8F92F48007B0028FBD02E806846D4
:10241000007E6880AC80EF80B003288108A8007837
:102420006881284D2C73FFF7CBFC01A9009A80002E
:102430001058FFF723F9059C287B0028FCD008A83A
:102440000078411E08AA1170002809D0FFF7B8FCD7
:10245000009980000858FFF7AFF92070641CEEE780
:1024600009B0F0BD10B5FFF7ABFC154C8021490554
:1024700080002058FFF7E8F9002809D0FFF7A0FCFA
:10248000114980002058FFF7FEF901200D4908731B
:1024900010BD000010330410143304100000A040DD
:1024A0000104000001020000083304100C33041082
:1024B00000330410043304109A3204107F809F7399
:1024C00004030020140300200000081070B504006D
:1024D0000D003A4E3A48204003D187213000FFF7E3
:1024E0009BFA2800344D010005D0012807D088212F
:1024F0003000FFF791FA2868A043286070BD286873
:1025000004432C6070BD2F4802782F4801880020BA
:10251000002A44D109220A40092A00D12020112290
:102520000A40112A02D102004020104321220A4011
:10253000212A02D102008020104341220A40412A70
:1025400003D1020080204000104381220A40812AEA
:1025500003D10200802080001043FF22921C130050
:102560000B40934203D102008020C0001043174A61
:1025700013000B40934203D102008020000110435E
:1025800005220A40052A02D10200102010438907C3
:10259000890F03290ED10100082008437047022A41
:1025A00001D101207047042A01D102207047082A76
:1025B00000D104207047000020009040402F0410FC
:1025C0009F3F0F00080090400800104801040000E1
:1025D0000F21114A13681B090B40437013681940FF
:1025E0008170D268426001210C4B9A4208D10C4A9A
:1025F00012680C4B9A4201D1042202E0022200E050
:10260000012202704278002A00D1417006490988EF
:10261000491C8900816070471C00904041A0000265
:102620001C00001044A000F214001040EFF31482CC
:10263000EFF30981002080F31488BFF36F8FF0B5AA
:1026400043464C4655465E466746F8B4164CEFF393
:102650000883236006B4154C2068154C2060154C87
:102660002068154C2060154C2068154C2060154CD6
:10267000276800202060BFF34F8F30BF27600A4CCF
:10268000246884F3088882B003BCF8BC9846A1464D
:10269000AA46B346BC46F0BC04BC80F3098881F36B
:1026A0001488BFF36F8F10470800002004ED00E08E
:1026B0002800002024ED00E07C00002000E200E083
:1026C000800000200800204010B5854C01000AD091
:1026D000012803D05F218348FFF79EF9206801217C
:1026E0000143216010BD206801218843206010BD96
:1026F000F8B5040020687B4D002802D07A49884252
:1027000003D393212800FFF787F92079002809D007
:10271000012807D0022805D0032803D094212800DF
:10272000FFF77AF96079002809D0012807D002283C
:1027300005D0032803D095212800FFF76DF9A07973
:10274000002805D0012803D096212800FFF764F95E
:10275000E079002807D0012805D0022803D097216E
:102760002800FFF759F9207A042803DB9821280074
:10277000FFF752F9607A042803DB99212800FFF75C
:102780004BF9A07A002805D0012803D09A2128000F
:10279000FFF742F921680125674E68487269D2083F
:1027A0002A4001D1090100E0C900FEF745FCC1093A
:1027B00031810904490A401A401C400881B23F296E
:1027C00002DD3F388006800E307360209F21327C0E
:1027D0000A4023795B01034013433374327811407C
:1027E00062795201104008433070F7200821327C92
:1027F0000240A379DB0008271F4017433774327863
:102800001040A279D200114001433170E1790029D2
:1028100007D1FD20317C014031743178084030709F
:102820001CE002200229317C0BD101433174FB21D1
:10283000327C0A4032743278104330703078014074
:102840000BE0014331740421327C042313433374BD
:1028500032781043307030780143317070693B49F1
:102860000140207A2840400208437061706938496D
:102870000140207A400828400002084370617069D6
:1028800034490140607A28408003084370617069D0
:102890003F490140607A40080540E8030843706101
:1028A0001020EF21327C0A40A37A1B01034013431E
:1028B000337432781140A27A12011040084330700C
:1028C000F1BD10B5040080218900884203DBEF3997
:1028D0000448FFF7A1F8E005C00D2E49088010BD9F
:1028E000300030407430041041420F0010B5040035
:1028F000012C1AD0082C18D0102C16D0202C14D053
:10290000402C12D0802C10D0234884420DD0234874
:1029100084420AD02248844207D02248844204D00C
:10292000FF2156312048FFF777F82348002C01D5C6
:10293000006800E0808A03E01C0030400000127A4A
:102940000440200000D00120C0B210BDFFFDFFFFF9
:10295000FFFEFFFFFFBFFFFF10B5040010D00128EE
:102960000ED002280CD003280AD0042808D005284D
:1029700006D0062804D0FF21DA310B48FFF74CF8C7
:102980000E480178C7220A40E10038230EE000001B
:10299000FF7FFFFF00003040080000800100008042
:1029A0000200008004000080743004100B401343C8
:1029B000037010BD000000000400304034003040BF
:1029C000F8B50400584D2068800103D17A21280011
:1029D000FFF722F8207900280BD0062809D001281B
:1029E00007D0042805D0052803D07B212800FFF755
:1029F00013F8A079002805D0012803D07C212800F5
:102A0000FFF70AF86079002805D0012803D07D215E
:102A10002800FFF701F82068C00406D520790628B1
:102A200003D180212800FEF7F7FF2068800406D537
:102A30002079062803D181212800FEF7EDFF2379B4
:102A40001900384A0020002B04D113682568AB43D5
:102A5000136006E0062B04D10021136825681D438E
:102A600015602568C540ED071AD5082809DA8500E4
:102A7000966A0F27AF40BE430F00AF4037439762BF
:102A80000EE00500083D082D0AD20500083DAD0006
:102A9000D66A0F27AF40BE430F00AF403743D7621F
:102AA000401C1A28DDDB206861790129916802D178
:102AB0000843906001E0814391602068A179012979
:102AC000516802D108435060F1BD81435160F1BDAE
:102AD00070B504000D00144EA00104D1B7214900C7
:102AE0003000FEF799FF2800104D010006D00128A4
:102AF00006D0FF2170313000FEF78EFF6C6070BD94
:102B00002C6070BD10B50400A00104D1C2214900A1
:102B10000748FEF781FF8020C00501684C40046033
:102B200010BD000004000040DC2F04103C000040F9
:102B3000DC2F041010B5040004D1FF21AC310C4887
:102B4000FEF76AFFA020000600680440200000D0C5
:102B50000120C0B210BD000010B5040004D1F52161
:102B600049000348FEF758FF0248046010BD00000A
:102B7000902F0410040000A0F8B50400A0781F4DA9
:102B8000002805D0012803D05A212800FEF744FF71
:102B90006078042803DB5B212800FEF73DFF2178E5
:102BA0001F220123A078002821D0607849B2CD00EF
:102BB00018262E40FF27B740FD438007000EB04087
:102BC0000E0004D50E493607360F083E00E00D49C9
:102BD000B608B60089190E68354028430860207889
:102BE000024093400849400980000B50F1BD0A4063
:102BF00093400648490989004350F1BDC030041094
:102C00001CED00E000E400E000E100E080E100E015
:102C100038B504000020694608707F48FFF710FBB4
:102C200000286BD17D4D01232022297800A8401C6B
:102C3000FFF7B4FB002861D168464078802101434A
:102C400068464170012320222978401CFFF75CFB75
:102C5000002853D10123202229786846FFF79EFBE4
:102C600000284BD1684600788F21014068460170EA
:102C7000084621780143F7200840694608706846F5
:102C80000078E1780143FB200840694608706846F7
:102C9000007821790143FE200840694608706846A3
:102CA0000078617901436846017001232022297868
:102CB000FFF72AFB002821D101231022297868463A
:102CC000FFF76CFB002819D168460078FC21014011
:102CD00068460170084661780143F3200840694660
:102CE000087068460078A1780143684601700123A6
:102CF00010222978FFF708FB002800D0012032BD00
:102D000080B5002801D1012002BD01230F224349D3
:102D10000978FFF743FB02BD1CB5404C012321227B
:102D200021786846FFF73AFB00280CD16846007806
:102D30008021014368460170012321222178FFF799
:102D4000E3FA002800D0012016BD38B505000024A4
:102D50000323A822314801786846FFF71FFB0028AB
:102D600001D0012032BD6946095DE2009140014376
:102D70000800641C032CF6DB010203D50100FF20D0
:102D800000060843FFF706F9E6218905FFF79DF9DC
:102D90002860002032BD1CB504000223AB221F486E
:102DA00001786846FFF7FAFA002801D0012016BD25
:102DB0006846417809020078081800B2FFF7EAF87F
:102DC000174900F031F81749FFF7EFF820600020AD
:102DD00016BD1CB5114C0123202221786846FFF74F
:102DE000DDFA00280DD1684600784006400E69469D
:102DF00008700123202221786846FFF785FA002811
:102E000000D0012016BD002801D15C2000E05B202D
:102E100002490870704700001027000030030020AE
:102E20000000F04300002A4230B405004D4001226A
:102E3000D20715404B180418240E28D01B0E2FD093
:102E4000FF2C34D0FF2B37D0E41A000209021043C4
:102E5000114343084808D10D1B1A02D2641EDB1827
:102E60001B18DB18834200D31B1A4941F9D37F3466
:102E700026DDFE2C08DAE4054808C907194391410C
:102E80006041284330BC7047FF20C005F9E72800A7
:102E90001B0E03D0FF2BF5D14902F3D0D043F1E74D
:102EA000FF2C01D14002F9D1FF20C005E9E7400223
:102EB000F4D1FF2BF8D1F1E728004902E2D0EDE789
:102EC0000B0200202442DCD15B129B1CD9D9D8050F
:102ED000D7E77047686A6C747A4C00007072696E4C
:102EE00074665F733A20256E20646973616C6C6F41
:102EF000776564007072696E74663A20626164205E
:102F0000256E20617267756D656E74007072696EF2
:102F100074665F733A206261642025732061726772
:102F2000756D656E74000000000000006E616E003B
:102F30004E414E00696E6600494E460030007047B3
:102F4000433A5C4749545F766F62735C626C7565A7
:102F50006E7267312D73646B5C4C69627261727959
:102F60005C426C75654E5247315F5065726970689E
:102F70005F4472697665725C7372635C426C7565FE
:102F80004E5247315F7379734374726C2E63000045
:102F9000433A5C4749545F766F62735C626C756557
:102FA0006E7267312D73646B5C4C69627261727909
:102FB0005C426C75654E5247315F5065726970684E
:102FC0005F4472697665725C7372635C426C7565AE
:102FD0004E5247315F646D612E630000433A5C4797
:102FE00049545F766F62735C626C75656E726731AF
:102FF0002D73646B5C4C6962726172795C426C75B2
:10300000654E5247315F5065726970685F447269FE
:103010007665725C7372635C426C75654E524731C3
:103020005F6770696F2E6300433A5C4749545F766F
:103030006F62735C626C75656E7267312D73646B61
:103040005C4C6962726172795C426C75654E524784
:10305000315F5065726970685F4472697665725C51
:103060007372635C426C75654E5247315F693263BF
:103070002E630000433A5C4749545F766F62735C8D
:10308000626C75656E7267312D73646B5C4C69623E
:10309000726172795C426C75654E5247315F506562
:1030A000726970685F4472697665725C7372635CA2
:1030B000426C75654E5247315F756172742E6300C4
:1030C000433A5C4749545F766F62735C626C756526
:1030D0006E7267312D73646B5C4C696272617279D8
:1030E0005C426C75654E5247315F5065726970681D
:1030F0005F4472697665725C7372635C6D69736359
:103100002E63000070B40123002413E00168001D49
:10311000194202D04D466D1E49190C60091D121F3F
:10312000042AFAD20D00960701D50C80AD1C1A4076
:1031300000D02C700268001D002AE7D170BC7047D7
:1031400030B501684118446862088A188368E4074A
:1031500004D54C461B1901E0641C06D191420BD0EA
:103160000C7864B2491C0D78491C1D705B1C002C46
:10317000F2D4641EF7D5F1E70C3030BD5052455300
:10318000535552453A2025642E25303264206D6215
:1031900061722054454D503A2025642E253032640A
:1031A0002027430D0A0000007047FEE770470248E1
:1031B0000168491C016070472400002080B5FFF7BA
:1031C00005F801BD80B5FFF74DF901BD80B5FFF7EA
:1031D00049F901BD10B5074979441831064C7C44C2
:1031E000163404E0081D0A68891888470100A142C6
:1031F000F8D110BD080000007C00000009FFFFFFAF
:103200000400000008000020040000000C00002062
:10321000040000001400002004000000180000203A
:10322000080000001C000020040000003000002006
:103230000800000024000020300000005C00002096
:1032400000000000FDFEFFFF11010000140000005F
:10325000C0000020EDFEFFFF0B0100000A0000008F
:1032600010000020DDFEFFFFB40000007A00000027
:10327000CC020020FEF7ECFB002801D0FFF7AAFFEC
:1032800000BF00BF002000BF00BFFEF725FB00F01D
:1032900000F880B500F002F801BD0E000746384680
:1032A000FEF742F9FBE780B569460870012201206C
:1032B000FEF7E6FD012802D16846007802BD002035
:1032C000C04302BD38B505000C002000FFF7EBFF3E
:1032D000A04200D00025280032BD000040000000C0
:1032E000800000000040000000BF00BF00BF00BF22
:1032F000FFF7C0FF0001000001000000000800000F
:103300000100000020000000040000001000000088
:10331000040000000000000200000020170100036C
:103320000004000600112C0410D32D0410012D04FC
:1033300010192D0410EC000B4B2D0410972D0410C8
:10334000072E0410FA0009A040940000A08000009D
:10335000A0F4000001F100005C8100810081008187
:0833600000F00003000004105E
:04000005100432E9C8
:00000001FF
