:020000041004E6
:1000000000600020AD0D0410C90C0410CB0C0410CE
:10001000AA5555AA45554C420000000000000000BA
:10002000000000000000000000000000CD0C0410E3
:10003000000000000000000013070410CF0C0410A3
:10004000A7070410550D0410000000000000000078
:100050007F0D04108B0D0410B90D0410C30D041096
:100060000000000000000000000000000000000090
:1000700000000000C50D0410C70D0410C90D0410C8
:1000800000000000BB0D0410BD0D0410BF0D0410D6
:10009000C10D0410D10C0410CD0D0410CB0D0410B3
:1000A0000000000000000000000000000000000050
:1000B0000000000000000000000000000000000040
:1000C00010B5C20018231340FF249C40E243890767
:1000D000090E9940030004D55A481B071B0F083B23
:1000E00000E099489B089B00C01803681A40114320
:1000F000016010BDFEB5002653480660032400F0E1
:10010000CAF96946088068460088002801D1641E43
:10011000F5D168460088202837DB6846008801242E
:100120000125400525D4684600F01AFA6846417852
:10013000090180780843122800DA00258348006806
:10014000000705D4002D14D0012000F062F810E063
:100150007F4FF8687F4E3168081A28380002001275
:10016000002806DD002D02D0012000F052F8306892
:1001700038607948047000F04AFABFF34F8F77482F
:10018000A4490860BFF34F8FFEE70120FEBD10B504
:1001900000220021A04804E00B00415C5918491CD2
:1001A000C9B2435C002BF7D1CB1C202B12DA0223FF
:1001B00043542123441863700823A3704318DA7052
:1001C000964A80235B02401880B218431060106882
:1001D0001840FCD110BD70B5002100238E4A04E008
:1001E0001C00D35CE3185B1CDBB2D45C002CF7D1A1
:1001F00002253524DE1C202E05DAD554D61874705D
:10020000B070D218D170864A157054709070D17049
:1002100070BD70B580214902814B9CB20C437F4A6E
:10022000002804D01460106808400AD0FBE79878D2
:100230009D78FB262E409E70146014680C40FCD103
:10024000987070BD1CED00E014000020F8B58AB075
:1002500005000C0003A800BF79A11C2200F0FCF9E6
:10026000684600F07DF96D4E002D54D003A8402162
:1002700081734C21C17220210172B22141745B2132
:10028000017568498B6B684A1D0C954209D1C57D83
:100290008F272F40C775C57D1B0170271F402F4337
:1002A000C7754B6B1D0C954209D14579CF272F405F
:1002B000477145791B0130271F402F43477109685B
:1002C0000B0C934208D1C27DFC231340C375C27D41
:1002D0008907890F1143C175C17AFB220A40C27296
:1002E00069464A7812018D781543112D06DDC17DCE
:1002F00004220A43C275C07DFFF76DFF80204002D3
:1003000003A989B20143316031680140FCD1112D4C
:1003100001DDFFF73CFF124881890029FBD0012154
:1003200081811721018000214160002C07D0706875
:10033000102172680A40102303409A42F9D03B48CA
:100340003B4908600BB0F0BD00E400E0C0000020B5
:1003500004000048180000200C0000200400FA05EA
:100360000C00104880B50820324908800321012084
:10037000C043FFF7A5FE03210020C043FFF7A0FE06
:1003800003210020FFF79CFE03210120FFF798FEC8
:1003900003210420FFF794FE03210520FFF790FEC0
:1003A00000210620FFF78CFE03210720FFF788FEBF
:1003B00003210D20FFF784FE03210E20FFF780FEAE
:1003C00003210F20FFF77CFE03211120FFF778FEA9
:1003D00003211220FFF774FE03211320FFF770FEA4
:1003E00003211420FFF76CFE03211520FFF768FEA0
:1003F00003211620FFF764FE03211720FFF760FE9C
:1004000001210120FFF722FF0B480C49086062B66A
:1004100001BD00000CED00E05C0000200C00004875
:100420001C000020B007001055AA0000CCBCECFC5A
:10043000140000200400104066000E0020009040D0
:10044000023F00023E30023C20023B4C023A400296
:1004500039B202345B02350B0000000070B50400B5
:100460000D003A4E3A48204003D18721300000F079
:100470004FF92800344D010005D0012807D088210C
:10048000300000F045F92868A043286070BD286856
:1004900004432C6070BD2F4802782F48018800204B
:1004A000002A44D109220A40092A00D12020112221
:1004B0000A40112A02D102004020104321220A40A2
:1004C000212A02D102008020104341220A40412A01
:1004D00003D1020080204000104381220A40812A7B
:1004E00003D10200802080001043FF22921C1300E1
:1004F0000B40934203D102008020C0001043174AF2
:1005000013000B40934203D10200802000011043EE
:1005100005220A40052A02D1020010201043890753
:10052000890F03290ED10100082008437047022AD1
:1005300001D101207047042A01D102207047082A06
:1005400000D104207047000020009040FC0A0410F5
:100550009F3F0F0008009040080010480104000071
:100560000F21114A13681B090B404370136819408F
:100570008170D268426001210C4B9A4208D10C4A2A
:1005800012680C4B9A4201D1042202E0022200E0E0
:10059000012202704278002A00D141700649098880
:1005A000491C8900816070471C00904041A00002F6
:1005B0001C00001044A000F214001040EFF314825D
:1005C000EFF30981002080F31488BFF36F8FF0B53B
:1005D00043464C4655465E466746F8B4164CEFF324
:1005E0000883236006B4154C2068154C2060154C18
:1005F0002068154C2060154C2068154C2060154C67
:10060000276800202060BFF34F8F30BF27600A4C5F
:10061000246884F3088882B003BCF8BC9846A146DD
:10062000AA46B346BC46F0BC04BC80F3098881F3FB
:100630001488BFF36F8F10470800002004ED00E01E
:100640002400002024ED00E02800002000E200E06B
:100650007C0000200800204070B4103A03D378C911
:10066000103A78C0FBD2530701D318C918C001D57E
:1006700008C908C0D20704D30B880380891C801CDA
:10068000002A01D50B78037070BC704780B5FFF766
:1006900069FE00F03FF8002000F066F800F002F874
:1006A000FEE7000010B58AB001214803FFF7D6FE2F
:1006B000002469460C72059414480390049406942F
:1006C00007940894099402A800F06EF80121022012
:1006D00000F0BCF8022000F0EEF8009496218900AA
:1006E00003E000BF0098401C009000988842F8D3B7
:1006F00001A815210170032141700121817000F0D2
:10070000F7F8012000F08FF80AB010BDFF7F00005D
:10071000FEE77047012003490870704701480078E0
:10072000704700008000002038B50E4D2C000C3CB6
:10073000002811D0022807D00ED2FFF7EFFF0C21BE
:1007400048432818083805E0FFF7E8FF0C21484324
:100750002818001F006832BDFFF7E0FF0C21484356
:10076000205832BDA00D04101CB504000121012049
:10077000FFF774FE2000FFF7D7FF009068460621C0
:10078000017101218171417100F0FEF82000FFF735
:10079000CBFF002100F080F913BD80B5FFF7C4FF47
:1007A00000F094F901BD704738B504002078484D39
:1007B000002805D0012803D058212800FFF7A8FF02
:1007C000E068802803D359212800FFF7A1FF4148A2
:1007D0000188414A0A402178CB07DB0F134303808D
:1007E000002100919622920003E000BF0099491C6D
:1007F000009100999142F8D30188384A0A40E16893
:100800000901FE23DB000B40134303806168416054
:10081000A16881602169C16061690161A16941616B
:10082000E169816131BD10B52A4C010009D0012870
:1008300003D08E212648FFF76BFF20880221014359
:1008400002E0208826490140218010BD70B50500D6
:100850000C001F4E05D0012C03D0A5213000FFF75E
:1008600057FF28001F4D01280ED0022803D0A621D3
:100870003000FFF74DFF2878FD2101406000022283
:1008800010400843287070BD2878FE210140E00721
:10089000C00FF6E710B50400012805D0022803D0E8
:1008A000BD210B48FFF734FF0F48007804402000BB
:1008B00000D0012010BD10B50400012805D0022889
:1008C00003D0D4210248FFF723FF0848047010BD6D
:1008D000980B04103000F040FEFF00000FF80000FD
:1008E000FDFF00001C00F0402000F0402800F04018
:1008F000F8B50400A0781F4D002805D0012803D0CA
:100900005A212800FFF704FF6078042803DB5B21ED
:100910002800FFF7FDFE21781F220123A078002880
:1009200021D0607849B2CD0018262E40FF27B7406D
:10093000FD438007000EB0400E0004D50E49360777
:10094000360F083E00E00D49B608B60089190E685A
:100950003540284308602078024093400849400908
:1009600080000B50F1BD0A409340064849098900B8
:100970004350F1BDE40B04101CED00E000E400E086
:1009800000E100E080E100E0F8B50400584D206887
:10099000800103D17A212800FFF7BAFE20790028D0
:1009A0000BD0062809D0012807D0042805D0052837
:1009B00003D07B212800FFF7ABFEA079002805D0EB
:1009C000012803D07C212800FFF7A2FE60790028CF
:1009D00005D0012803D07D212800FFF799FE20686B
:1009E000C00406D52079062803D180212800FFF70E
:1009F0008FFE2068800406D52079062803D1812146
:100A00002800FFF785FE23791900384A0020002BC3
:100A100004D113682568AB43136006E0062B04D1AC
:100A20000021136825681D4315602568C540ED0742
:100A30001AD5082809DA8500966A0F27AF40BE4309
:100A40000F00AF40374397620EE00500083D082DC8
:100A50000AD20500083DAD00D66A0F27AF40BE435D
:100A60000F00AF403743D762401C1A28DDDB2068F7
:100A700061790129916802D10843906001E08143C6
:100A800091602068A1790129516802D10843506022
:100A9000F1BD81435160F1BD70B504000D00144EED
:100AA000A00104D1B72149003000FFF731FE280032
:100AB000104D010006D0012806D0FF217031300012
:100AC000FFF726FE6C6070BD2C6070BD10B5040091
:100AD000A00104D1C22149000748FFF719FE802078
:100AE000C00501684C40046010BD000004000040D7
:100AF0004C0B04103C0000404C0B0410433A5C4784
:100B000049545F766F62735C626C75656E726731B3
:100B10002D73646B5C4C6962726172795C426C75B6
:100B2000654E5247315F5065726970685F44726903
:100B30007665725C7372635C426C75654E524731C8
:100B40005F7379734374726C2E630000433A5C47A1
:100B500049545F766F62735C626C75656E72673163
:100B60002D73646B5C4C6962726172795C426C7566
:100B7000654E5247315F5065726970685F447269B3
:100B80007665725C7372635C426C75654E52473178
:100B90005F6770696F2E6300433A5C4749545F7624
:100BA0006F62735C626C75656E7267312D73646B16
:100BB0005C4C6962726172795C426C75654E524739
:100BC000315F5065726970685F4472697665725C06
:100BD0007372635C426C75654E5247315F72746329
:100BE0002E630000433A5C4749545F766F62735C42
:100BF000626C75656E7267312D73646B5C4C6962F3
:100C0000726172795C426C75654E5247315F506516
:100C1000726970685F4472697665725C7372635C56
:100C20006D6973632E63000070B40123002413E028
:100C30000168001D194202D04D466D1E49190C6015
:100C4000091D121F042AFAD20D00960701D50C8047
:100C5000AD1C1A4000D02C700268001D002AE7D19C
:100C600070BC704730B501684118446862088A1842
:100C70008368E40704D54C461B1901E0641C06D1C7
:100C800091420BD00C7864B2491C0D78491C1D7040
:100C90005B1C002CF2D4641EF7D5F1E70C3030BD9C
:100CA00010B5074979441831064C7C44163404E0E9
:100CB000081D0A68891888470100A142F8D110BDB3
:100CC0002C000000900000007047FEE7704770475E
:100CD00080B50220FFF7DEFD012805D10220FFF7D5
:100CE000EAFD0020FFF759FD01BD00003DFFFFFFB9
:100CF0000400000008000020040000000C00002098
:100D0000040000001400002004000000180000206F
:100D1000080000001C00002004000000300000203B
:100D20000800000024000020280000005C000020D3
:100D30000000000031FFFFFF9600000014000000DB
:100D4000C000002021FFFFFF900000000A0000000B
:100D50001000002070470000FFF7CCF9002801D0F8
:100D6000FFF79EFF00BF00BF002000BF00BFFFF7DE
:100D70008DFC00F000F880B500F002F801BD70476E
:100D80000746384600F002F8FBE7704780B500BF21
:100D900000BF024A11001820ABBEFBE7260002008C
:100DA00040000000800000000040000000BF00BFC5
:100DB00000BF00BFFFF7D0FF704770477047704714
:100DC00070477047704770477047704770478100A1
:0D0DD000810081008100F00003000004108C
:0400000510040DAD29
:00000001FF
