:020000041004E6
:1000000000600020A36605104563051047630510D6
:10001000AA5555AA45554C420000000000000000BA
:10002000000000000000000000000000496305100F
:100030000000000000000000031C04104B630510CA
:10004000536305101F1D0410000000000000000095
:1000500055630510DF2104105D630510AF450410E2
:100060000000000000000000000000000000000090
:1000700000000000F74504100F4604100B48041060
:10008000000000005729041033350410C338041051
:10009000BF3A04100F450410675A0410B749041002
:1000A0000000000000000000000000000000000050
:1000B0000000000000000000000000000000000040
:1000C000F0B5FF4885B00168FE480C18FE4EB168D7
:1000D000C8017DD5204680300090806B827AEE2367
:1000E0001A40827230464A030125C068002A42DB6A
:1000F0004A0105D500200921C9064860357036E05F
:100100004A0012D5C178491E0906090EC17003D1F3
:100110000922D2065160357041790A0627D5490671
:10012000490E41718169416121E0E84A11420AD0DA
:10013000224620329570490202D50321917000E0D9
:1001400095708169416101792246C170403291798F
:10015000002908D00921C9068968A1640021022369
:10016000E1649377A16541794906490E4171002008
:100170004621085543E031698A890121490752180F
:100180005288436B5218934213D19378142B03D0A7
:100190009278042A08D00CE0034640331A7FDF2708
:1001A0003A402A431A7704E0012302699B021A436A
:1001B0000261806A408840187D210078095D08430B
:1001C000C00606D4002009213570C906486010E039
:1001D0007CE2606D00F068FB01460920C006026900
:1001E000236DD21A1202120A914202D235700021F6
:1001F0004160F06801220169D20391430161B16855
:10020000480213D53069808901225207801840883E
:1002100080187061F268536B834207D180780D2893
:1002200004D1412310699B0298431061002948DAE8
:100230000098806B418801204007A34F0818F8619F
:100240000920C0064069C00DC00707D00020092161
:100250007D70C90648603D709D48F3E0F868412113
:100260000069490108420AD000F02EFB012829D07C
:100270001C22F86941780A4201D0091F4170F869CF
:100280007D2201781155C94389071DD0F86800699E
:10029000C00370D500F018FB01286DD01F20F9694C
:1002A0004978084267D0002009217D70C90648605E
:1002B0003D708748B861F8680121026909048A43E2
:1002C0000261C0E0FC22D4E7867841781A2E76D20B
:1002D000804A925DFF2A72D08A4270D1022E15D0D8
:1002E000F9684A79D2065BD4062E16D00A69D30380
:1002F00028D5002209237D70DB065A603D70744AC0
:10030000BA6101200A69000482435CE0F868406B2E
:100310000560F9682320487195E00122B8699203CD
:100320001043B8616C4A086910401522520210430C
:1003300008612046C030C17BBA78914230D1082193
:10034000C17380E0002E18D0012E2AD0032E2DD0AC
:100350000A2E35D00B2E38D0082E39D0092E3AD09F
:100360000C2E3BD002465D4B3146012000F0AEFA28
:10037000002868D14BE05DE05AE00A463E4621463F
:1003800000F0A6FAF0698179C07900020843544967
:10039000400240185349896A814200D80846606586
:1003A00051E00A46214600F0B7FA4CE0BB698026CE
:1003B0003343412000040243BB610A6143E028E06B
:1003C0008920C00105E00A613DE047480240FAE7A4
:1003D00010200243F7E70121090327E03B46970776
:1003E0000426002F08DA9F6937439F6102239A434E
:1003F0000823CF26335502E0D30700D132432A43E6
:100400000A610522C01C2C3100F09DFA1BE0072E6A
:1004100006D0F8680822016911430161C67112E033
:10042000F969C9780E290ED101218906B9610AE05E
:10043000FF2034E72146FB683A69F86900F08CFA3E
:10044000B9690843B861204BD8681969066A0F8AF0
:1004500001225207BF1801977F88BA1800275A61F6
:1004600002979B681127BF043B421ED15F011CD439
:10047000476B974201D0012700E000270397904285
:1004800001D0012700E00027BC46002E0DD0039FBD
:10049000002F0AD06746002F07D0F77CFF0904D051
:1004A0003768002F01D0012702975B0202D4029B1C
:1004B000002B78D043799F0701D5002E20D015E07E
:1004C000600300205808000018030020000040804E
:1004D00008001000EE170410DFFBFEFF30030020C1
:1004E0009AFDFFFF5C000020BFFFFEFF5B085B0082
:1004F000476B974243D143719378042B05D016E0A4
:100500002B431F462F434771F2E72346C033DF7B5F
:10051000082F05D1DC4FBF78DF737D277F029F81D5
:10052000D94B01279B69FF063B43D74FBB614379FA
:10053000DB060CD5D44B09275D700023FF067B60DA
:10054000D14BD24F1D709B693B43CF4FBB6192781B
:10055000152A32D1074640373A7FFD231A40BC4660
:100560003A77130729D5C84B01279B697F063B4380
:10057000C54FBB61F7231A4063461A771DE08242DC
:100580001BD0338AB77C0022DB1933827369B361D5
:10059000B274338AF788BB4202D2F77CFF0903D0DA
:1005A0003668202205E068E0DB0602D1B3691B68EB
:1005B000B361B54B9F693A439A6142790027D207EC
:1005C00017D0B14A436B53619A78052A3BD102692F
:1005D00020231A4302610020087048714870887116
:1005E0008870C871C870087208714872802048729B
:1005F00029E0002E0AD000F0F9F9002806D1A2481F
:100600003322C16852010969114209D09E49012271
:10061000C868486105800169D2031143016112E095
:100620009B4A317C126809231B02C906D218C90EE5
:10063000526F0127891C89184161019A5180314606
:10064000C06800F0E3F9904E2121F068890100694B
:1006500008420AD000F038F9012809D01F22716938
:100660004878024201D0001D4870002F02D004E0FB
:10067000FF22F4E70199B08A4880834EF26810693E
:100680004106890F13D080063178C00F012902D0AE
:10069000B16849031CD5002804D03069C17D082306
:1006A000194303E03069C17DF7231940C175214624
:1006B0003369F06900F0ECF9307801280BD000992B
:1006C0007448896B0322091D00F06AFA05B0F0BD79
:1006D0000028E7D1E1E76C480121C268006953793D
:1006E000C67A01962026365C002787722046203085
:1006F0000290807803281CD197796348002F18D185
:100700009F06BF0F15D1624F3F682037FF7C002F37
:100710000FD1176A002F0CD1CF273F5D8078874219
:1007200007D09089411C7043019E89B2801980B224
:1007300001904020805A1689400048437118118169
:1007400002998978002902D15169091A51610099E9
:10075000896B8E7A11273E438E7226464A49C036EF
:10076000F77B89788F420AD1B189091AB1810FD5F7
:100770004549494F4D708E693E438E6108E0566988
:100780004149002E04DC4D70444F8E693E438E611A
:10079000990605D53C49424E4D708B6933438B61B8
:1007A00011792746D1704037BD71E16C80B20818CD
:1007B000E0649079FB210840334E9071C00717D058
:1007C000B88E1189401A012180B2C903884205D32D
:1007D00075703449B0690843B06109E0002807D159
:1007E00001230021204600F0E3F9B1690843B0611C
:1007F000F06881798A0723D53A8F0389D21A521C6F
:10080000012392B2DB039A4205D375702549B06982
:100810000843B06114E0002A12D1FD221140817119
:10082000306900992130496801700A0A42700A0C47
:100830008270090EC17060343069E17E20304171F0
:10084000019800F005FA3169C87202980027877094
:100850007078002802D0B07800F008FA0C4C5821CB
:1008600020680D54492149014018407E002802D0DB
:10087000012000F0CFFA012000F0D0FB20684030CA
:10088000077605B0F0BD0000180300200800010045
:1008900060030020FA0030000880400008000400D7
:1008A00008000200080008000649C20B096840045D
:1008B000096A400CCB0958435143000A08182030FC
:1008C00080097047600300200020704700207047B7
:1008D00070B50C460546C178602001551646281DA6
:1008E00000F0DAFE4034A084A81D00F0D5FE20857B
:1008F0002846083000F0D0FEA08528460A3000F0D7
:10090000CBFE208628460C3000F0C6FEA086B079CB
:1009100001210843B07170BD70B5054616460C46FE
:10092000C01C00F0BEFE84210851E9797B200155EE
:100930002846083000F0B0FE40342087B07902210C
:100940000843B07170BD04E003780B70401C491C73
:10095000521E002AF8D17047F8B51D4614460646C7
:100960000027FFF7B1FF01280CD01F207178084045
:10097000060036D00020E86100F09EFE002803D07B
:10098000E86907E0FF20F1E769893246012000F0BD
:10099000A3FEE861002801D0102722E0E07D80213D
:1009A0004840E0751049286908421AD06079401E15
:1009B00060716079FF2814D1A079401EA071A079E0
:1009C000FF280ED1E079401EE071E079FF2808D1C0
:1009D000207A401E2072207AFF2802D1607A401EC1
:1009E00060723846F8BD0000202800000648016803
:1009F0004B20400108184178C078814201D901207C
:100A0000704700207047000060030020F8B50C46D6
:100A1000CA88098A4030521A8089102695B2A842A5
:100A200005D20546E07C4006400EE07403E02068F5
:100A3000002800D10026002904D1207B800701D5A1
:100A4000022000E00120CF060643FF0EE81982B223
:100A50000E48A1690368092000021818406F001DA4
:100A600000F05CFE60610948A5740168092000027D
:100A70000818416FB81C0E54044801680920000290
:100A80000818406FFF1CC555F8BD0000600300202A
:100A9000FFB515691E46A8032E3689B01C461746B9
:100AA000002833DA102269463046FFF74CFF09244C
:100AB000E4060398A0610298E06101982062009822
:100AC0006062354801681320C0010818816AA1627C
:100AD000406AE0620A988030016C2163C06B6063F9
:100AE00000F040FEA06B0390E06B02902B48016881
:100AF000019140680090102231466846FFF723FFBD
:100B00000120400485433D610DB0F0BDE8053CD5B2
:100B100005A80146009010223046FFF714FFFF2081
:100B2000013085434120800205433D610998082238
:100B300001A9C01CFFF707FF0998214604222A31AA
:100B40000B30FFF700FF154805A9283800F01CFE00
:100B50000924E4060298A0620198E062786B0822FA
:100B600003A90D30FFF7EFFE04982063039860633C
:100B700000F0F8FD094905A8083900F005FE10222B
:100B800031460098FFF7DFFEBEE7A07A0006BBD42F
:100B90000A9800F002FEB7E760030020400000481A
:100BA00003E00870000A491C521E002AF9D1704760
:100BB000FFB582B000230193059B012B30D04B8CF5
:100BC000224D1C010B8C9C46CB7E6B438D8BAE461D
:100BD000CD8B1646403697690096A74206D1968976
:100BE000664503D1009E3688AE4201D0402601966C
:100BF00096790427760876003E4396719461546195
:100C000064469481009A1580059A012A17D00B61D9
:100C100070464A68400010184860019806B0F0BD60
:100C2000034640331D461B8E084E1C01AB8D9C466F
:100C300060231B5C7343AE8C2D8DB646C9E783657C
:100C40007146C26C49005118C164E6E7E204000035
:100C5000054925224143090C5143401A80B22528F9
:100C600000D32538C0B27047EB060000F1B56749E4
:100C7000674A086882B082180092FD22D200861866
:100C8000AC22155C04460346029AC03436339542C2
:100C90007ED909210902401817466021806E4F4312
:100CA0000025B91C4554029800F082FD00280CD1A3
:100CB0005648BF1D0168092000020818806EC05DFB
:100CC000002802D00098C030057272B64F48029DCD
:100CD0000768012039462031CA7DA8408243CA7581
:100CE000317D81433175197808077AD44A07029813
:100CF000520F82427CD030462030827E5507029AC5
:100D00006D0F954276D181760F201870404AA06809
:100D10007063BD18A86D2169A9652061686D61695E
:100D2000696560612146284618315C3000F05AFD43
:100D30003748A37E5E3039180A780B70A276A86C0B
:100D40002168A9642060E86C6168E96460603048EB
:100D5000E37E603039180A780B7021462846E27627
:100D60001C31643000F03EFD214628461E316830BB
:100D700000F038FD2146284620316C3000F032FD6D
:100D8000214628462231703000F02CFD214600E03B
:100D90003AE028462431743000F024FD21462846EC
:100DA0002631783000F01EFD194880357B30391827
:100DB000204628300A7803780B7002701448E26AE3
:100DC0008430381801680260E1620721E068090593
:100DD0000843A96B0322091DFFF7E2FE0AE000E0C9
:100DE00006E03A20805D41070298490F814201D117
:100DF0000F2018702036B07E41070298490F8142BB
:100E000001D10F20B07662B6FEBD00006003002065
:100E100058080000F0B57E4C05467E49206891B028
:100E20004018089000200D9072B600F0EDFC0028EC
:100E300001D1002D07D076480025016849204001E6
:100E40000818467EDFE062B60D9811B0F0BDF007DD
:100E50007ED07149A80140180E906D4801680920A4
:100E600000020818816E602068430C18A178206A7F
:100E70004907490F02294BD1A179490748D40028D5
:100E800046D04020005B400009900002FFF70CFDB7
:100E9000039000200F905E4836210068095C0A0725
:100EA0000AD44907490FA94206D1012180300F9188
:100EB000416C0191806C06E00899C96C0191012197
:100EC000C9024018C0690090FF205F30FFF7ECFCBA
:100ED00051490C39497AC90041180098411A0398C0
:100EE000081A07900E980B21415620300591007882
:100EF0000A9000200290208906900920C00601690E
:100F00000798401A070201203F0AC00587422AD3EA
:100F10006CE001200D9007990398081A0790029938
:100F200003980818029009990198401A0190616984
:100F300009980818606105990A98081A40B2059046
:100F40000698401E80B206900598002804DA00E05A
:100F500056E0253040B205900920C0060169079887
:100F6000401A07023F0A6420FFF79EFC2A490C3909
:100F7000497AC900411826480068806A0818B842B2
:100F800007D20120C005874203D2099901988842FF
:100F9000BFD802990098401A01020D98090A00284A
:100FA0000CD01B4811220068D2018018806A081AF0
:100FB00000020012002801DD00200D900F9800288B
:100FC00006D01348019A006880304264816408E0CA
:100FD000089A0198D0640E4802680120C0021018D7
:100FE000C1610E990598C8720698208108480122AF
:100FF0000168492040010818417EAA40914341768A
:101000006D1CEDB27608002E00D020E71BE7000033
:101010006003002058080000CC000020F1B5FD4F0F
:10102000FD223868D2000146851896B068301290CB
:10103000092000020818806E0F90F7480E1809204A
:10104000C00600690990002014900824F348FFF7B7
:101050002BFC02900020139072B63868F7214030C4
:10106000C2790A40C2711298012101711298016877
:101070004A07520F4271C9081298C900016062B64E
:101080001698002801D009980EE06420FFF70CFCA8
:10109000014609980918E248427ADE480068806AE9
:1010A000101808180002000A00F0DAFB686B0590BF
:1010B0003A20405D0D90082841D2012014900D98EF
:1010C000602148430F9940180390D648876AD44856
:1010D000407AC00000F02CFD0146039840300288A1
:1010E00052028918CD4A524289188F4200D239469D
:1010F0007165B82189590B794A79897912021A43A5
:101100008907890B1143028B408BFF311018C331C3
:10111000401800F015FD07465F200001FFF7C4FBF3
:10112000B84204D95F200001FFF7BEFB00E038465B
:1011300005990918BA48407AC00008181390706DD4
:10114000FFF7B2FB05994018019000200746039075
:10115000287D002809D10D98082806D3B049002021
:1011600008800921C906486060E168680790686CDA
:10117000049029680998401A00020412A8480088BF
:101180004007400F00F014FB002801D0002007E0CA
:10119000002CFBDB204600F0CBFC0499884200DAEF
:1011A0000490012080070824099000200B90297DDD
:1011B0003AE00D9A904234D0964A12682032927DDD
:1011C0001207120F82422CD0EB6A420010930C924D
:1011D0009F5A00976B6A9A5A079B92017B43D318D8
:1011E000049A9C46934212DACA0710D02A6B0C9BD1
:1011F000079FD25A521C93B21A467A43009F9444D6
:10120000FA1892B213460092109F0C9ABB52099A98
:101210006346944505D2CA0703D0009A0993044651
:101220000B924908401CC0B20029C2D10998FFF7AF
:101230003BFB29684718A86A6100405A8001FFF704
:1012400033FBC01903907648407A5822C100714898
:101250000068125C002A744A126939D0BB1A029ADB
:1012600052009B1A38E0002001E0806A4018181AEA
:101270000002000A01460A900120C005814209D3FC
:10128000082C7DD0204600F05FFC64490998401886
:101290000490686401210A98C905884281D2082C0B
:1012A0006ED00B98002835D0079948430490FFF77B
:1012B000FBFA296840180002000A2860696C04984B
:1012C000081A686409990498081A002109901BE01B
:1012D000029BBA1A5B08D31A169A002AC5D0C2E735
:1012E000EA6A480007909446105A0B9A801A04E064
:1012F0002B6B079A401C9A5A10180028F8DB079BA2
:101300006246491CD052C9B242480068A030007BF6
:101310008842E5D80D9808286CD20598C01B0102B8
:101320000120090AC005814223D30298391A139873
:10133000081A02020120120AC005824201D3139842
:101340000FE0019A891A0902090A814201D2019823
:1013500008E001204002FFF7A7FA02994900791A34
:10136000081A01900599401A0002000A00F0E0FBFB
:101370007065029901984018C01B0102090A00E03B
:1013800054E00120C005814254D202994A000399D9
:1013900052180599511A0902090A81422AD20D9858
:1013A000602148430F994218602060434018C17B78
:1013B000D37B994201D3102100E00021C90615D446
:1013C0008179CA0704D07221895B0289891A05E0F4
:1013D000890707D576218A5B0189511A491E0904BC
:1013E000090C07D04079000604D423E050799021FD
:1013F00008421FD1082C21D0084909984018686478
:1014000060200F996043401880784007400F012802
:101410004BD013E060030020580800006602000073
:10142000C00000205C000020000000481498002844
:1014300004D003D0059F0D9C0198039003983902B6
:101440000002000A0390090A012000918002FFF7C0
:101450002BFA029001204002FFF726FA0746009976
:101460000398401A00020012002809DD0299000AC0
:10147000884200D901460291B84200D83846074652
:10148000082C7DD0804800884007400FA0424FD0F4
:1014900060200F9960434018079080784007400F04
:1014A000052812D0022810D042E0314680310320B6
:1014B0008A6840028242C1D0C9688142BED000F031
:1014C00083FB4005400DC719B8E70798A101006AE2
:1014D00004906D480818818B079880B2814227D00C
:1014E0000498002824D004990798FFF78FFA6749D9
:1014F00004980A68007C09210902C0065118C00E30
:10150000496F801C401804900798016921208001D0
:1015100001420DD0FFF7D8F901283BD01F200499D4
:101520004978084204D0049840780499001D487016
:10153000564855490068203084744820204308806C
:1015400030468030436B997ACA06D20E61010A4355
:101550009A72826B907AC006C00E0843907200980F
:10156000306500F051F9012816D048484649006816
:10157000497A2030007D401A316DC000081800E023
:101580003AE000020121000A490641180920C0067C
:1015900041600EE0FF20C2E70121306D09064118CD
:1015A0000920C0064160394800682030017D364876
:1015B0004172082C24D2602044430F98241872B63C
:1015C0001298A17800684907C008C000490F084375
:1015D0002F4908400099C90008431299086062B673
:1015E000A0784007400F03280FD0FFF76DF90128BE
:1015F0000FD00398C01B19E000200921C9064860DC
:1016000021490020088017B0F0BD02990398401AC4
:101610000CE04034208B618B4018FF30C33000F069
:101620008FFA874200D938460399081A0002000A47
:10163000E863A88B8001FFF737F929680026441872
:101640001448FFF731F9201A0002000A28640F4CF1
:101650002E8420684030407E002807D000F0D2FA67
:1016600020684030417E490849004176206840307A
:10167000407E0028C7D000F0EFFA20684030417E5D
:10168000FD2211404176BEE7C0000020600300202B
:10169000070000F835020000017840780002084396
:1016A00070470178427813028278C07812040006ED
:1016B0001043184308437047064801684B20400117
:1016C000081801788078814201D9012070470020F4
:1016D0007047000060030020F8B50D460E4909234D
:1016E00009681B02C9184E6E1F21521E0A431D3283
:1016F00097B20024394600F0D3FA00280AD13946BF
:10170000B06800F0F5FA044608340068A0600020D4
:10171000E074A5802046F8BD6003002070B50C463B
:101720001F21521E0A430546521C002011044E0D73
:1017300017D0214608316A1A2846002A01DD082AF6
:1017400003DB202200F0ECFA04E0082208C9521E54
:1017500008C0FBD120352046761E24683604360C9E
:10176000E7D170BD08B56420694608700921C90633
:101770006A461078401E10704869C00402D4107880
:101780000028F5D1107808BDCA6802608A684260F6
:101790004A6882600968C160704710B504468034A9
:1017A000606C002803D000F0CBFA0020606410BD0C
:1017B0000B49FD220968D2008A182032927E363108
:1017C0001207120F824206D009780A0705D449078A
:1017D000490F814201D1012070470020704700006D
:1017E0006003002002880B8803800A8070470C0881
:1017F00002170D01010209090101060209FFFFFF9D
:10180000FFFF0909FFFFFFFF30B4134809220368F7
:101810001120C0011818D206806A11690F4C411AB4
:1018200009022588090A2D0702D430BC012070471F
:10183000647A9B6AE400E3188B4209D20123DB053A
:10184000994205D259000843506030BC01207047CE
:1018500030BC00207047000060030020C000002062
:10186000F1B5B04AFD211068C90090B0411804914B
:10187000AD4904464518C034014636310D9100216A
:101880000291AA49497AC9000C91816A0B91049985
:1018900020310E91897E079108297DD20921090204
:1018A0004018816E17460798602250430818089028
:1018B000079881019D480C3008180A90C07A2E467E
:1018C00040360990B08B00F075FA39684031098EC6
:1018D000401880B20390E96C039800F079FAE96C43
:1018E00009020F1AB07F00F078FA3818FEF7DCFF13
:1018F000A96C41180C98081A0002000A019010996E
:10190000411A0B98081A00020121000AC9058842F1
:101910007ED20498019941630998FFF799F90A99D1
:10192000C8720D980078C143090706D0410707988F
:10193000490F4007400F81422BD10E980821807E2D
:1019400008430D990870A86C2060E86C60600198ED
:10195000A0600298E060A86D2061686D6061B08B46
:101960002083B07FA076284660300178E176B18C84
:10197000A183318DE183B18D2184318E6184B18E5B
:10198000A184318FE184C17E2820015584204059F3
:10199000E0620D98007800E07CE007994207490773
:1019A000520F490F8A4261D0F72108400D995D4FCF
:1019B00008704007400F0790092039680002081896
:1019C000816E07986022504308180490079881019F
:1019D00056480C3008180A90C07A0990208B00F005
:1019E000E9F939684031098E401880B20390616886
:1019F000039800F0EDF9616809020F1AA07E00F06B
:101A0000ECF93818FEF750FF216841180C9800E0F7
:101A100042E0081A070210983F0A391A0B98081A70
:101A200000020121000AC905884258D2A76009981E
:101A3000FFF70EF90A99C87201980899C01B0002B5
:101A40004979000A9022114210D10121C90588422A
:101A50000AD30498C17B0898C07B401C814203D8FC
:101A600004984079C00601D500F0BEF9E96C0398EE
:101A700000F058FA0446B07F00F05CFAA96D201817
:101A800040180721090508438035A96B0322091D69
:101A9000FFF786F811B0F0BD08984030008841008B
:101AA0000A98203002780998101880B20990089896
:101AB000089A0089401C108108984069421A0898C9
:101AC00042610898C07BFF2802D2089A401CD0735C
:101AD000E86C4018E864079800F034FAFBE60498D4
:101AE0004030008841000A98203002780998101888
:101AF00080B209900498049A0089401C10810498CF
:101B00004069421A049842610498C07BFF2802D2BF
:101B1000049A401CD073606840186060079800F019
:101B200011FA64E76003002058080000C00000209C
:101B300008B500216A461180694600F065FA08BDC3
:101B40004101401880097047F8B501461B48092239
:101B5000006812028218936E60224A439E18184A47
:101B600000248518174A88018718B0784007400F6D
:101B7000052802D0012805D010E0084600F0ADFA93
:101B800004460BE02A468032108A002802D0401E0C
:101B9000108203E001240846FFF768F8F07BFF2875
:101BA00001D2401CF073002C06D023463246294651
:101BB0000020009700F014FBF8BD00006003002037
:101BC00058080000CC00002000210B20000702680C
:101BD00052070DD5026804239A4302600268082365
:101BE0001A43026004E0491C052901DD002070470A
:101BF00042689207F7D54168C907FCD0806880B277
:101C000070477047FEB51148114900680622461812
:101C100010494118684600F013FE0122694630461B
:101C200000F022FEB56BF46B736B366C00206A46D5
:101C3000811C175C5F54175C6F54175C6754175C0A
:101C4000401C77540628F3DB0020FEBD6003002013
:101C500058080000330700007CB50E4C0E49206880
:101C6000062245180D494118684600F0E9FD296A29
:101C700006226846891CFEF766FE13212068C9010A
:101C80004018816806226846891CFEF75CFE002029
:101C90007CBD0000600300203C0900003307000009
:101CA00070B5124A092312681B02D2180123526E22
:101CB00083435B00491E41249B184909491CC9B252
:101CC00072B615798D420ED31E785B78AD19EDB2E0
:101CD0005B18AB4207D84000135C00245B18135418
:101CE0001079401A107162B6204670BD6003002062
:101CF000491EC904090E72B602788A420CD9511ADB
:101D0000C9B24A1ED3B203704268880010589900C5
:101D100052580021116000E0002062B67047704701
:101D2000814202D25318984203D300B500F0C6FD99
:101D300000BD521E03D38B5C8354521EFBD27047EE
:101D400018B40168184ACB6813608C68012354608A
:101D50004C6894600968D1604168144ACC6814608A
:101D60008C6854604C6894600968D16064216A464C
:101D700011700922D2066C462178491E21705169E2
:101D8000C90402D421780029F5D122782270084AAA
:101D90008168D4680C6094684C6054688C601268E8
:101DA000CA60037318BC7047180000482800004838
:101DB000380000481FB5054C40071ECC03946C4604
:101DC0000EC4000F6946085A04B010BD2066051005
:101DD00089084143880A401C7047032802D06320C9
:101DE000C043704766207047F8B54C4D4C49286891
:101DF000441826464036B08BFFF7DCFF2968403197
:101E0000098E401880B2E16C00F08CF80746B07F74
:101E100000F090F8A16D3818411807200005014323
:101E200000913F4A2968363A8818363100F053FD50
:101E3000412128684901421891784B070146203119
:101E40008E7D5B0F37093F013B4393707207520F42
:101E50008A75334AA8313C3A801800F041FD286861
:101E6000A16CC0300268A26401602868E16CC430D3
:101E70000268E264016028680099CC221150D030D9
:101E8000A16D0268A26501602868616DD4300268A6
:101E900062650160296820465C30D83100F025FD7C
:101EA000296820465E30DA3100F015FD29682046A9
:101EB0006030DB3100F00FFD296820466430DC31F2
:101EC00000F013FD296820466830DE3100F00DFD7A
:101ED000296820466C30E03100F007FD2968204673
:101EE0007030E23100F001FD296820467430E431A1
:101EF00000F0FBFC296820467830E63100F0F5FC64
:101F0000296820467B30E83100F0E5FC296820464E
:101F10008430EC3100F0E4FCF8BD000060030020E8
:101F2000580800004143080A292109014843C00A12
:101F3000401C7047012801D00148704700207047BD
:101F40007A030000FEB503462C48412702680920A9
:101F500000021018816E602058430C182848114662
:101F60001018284E7F019D01D219AE199278C03108
:101F700000259A420CD1024640321746928E3F8F7E
:101F8000009784273F58012301977B273F5C07E098
:101F90008A8CCF8C0097CF6A0023019728277F5C1B
:101FA0000297A779FF0708D02789D21B1204120CC9
:101FB00003D12246FEF7FCFD0546A079810710D526
:101FC00022890099891A491C0904090C09D1FD21AB
:101FD000084001ABA0713146052221311846FEF7B9
:101FE000B2FC002D09D005480096016804482B4634
:101FF00009182246002000F0F3F8FEBD600300201F
:1020000058080000CC00002010B50A4A830B126863
:102010008004526A800C140A60435A4380091018E5
:1020200000228A5E821A10464030C009C3019A1A03
:102030000A8010BD6003002080B500F05BFC01BD8C
:1020400080B500F089FC02BD80B500F08FFF02BDB5
:102050001FB56C46A48C0394089C02946C46A48B18
:1020600001946C46248B009401F00CF81FBD1FB541
:1020700008AC247802946C46247F0194069C00945A
:1020800001F004F904B010BD80B501F0BFF902BD44
:1020900080B501F0DDF902BD0120704718B587B0A9
:1020A00010AC248806946C46A48F05946C46248F4B
:1020B00004946C46A48E03946C46248E02946C4661
:1020C000A48D01940AAC2478009401F005FA08B0BC
:1020D00010BD80B501F02EFA01BD80B501F04EFAB9
:1020E00002BD80B501F0C4FA01BD80B501F0BEFBB0
:1020F00001BD80B501F0DEFB02BD80B501F0E2FB61
:1021000001BD80B501F000FC01BD80B501F008FC07
:1021100002BD80B501F048FC01BD80B501F06BFC4B
:1021200002BD80B501F09BFC01BD80B501F0A0FCB3
:1021300002BD80B501F0ACFC01BD80B501F0B4FC7E
:1021400002BD80B501F0BCFC01BD80B501F06AFDA7
:1021500001BD80B501F082FD02BD80B501F09AFDA0
:1021600001BD80B501F0AEFD01BD0120704780B515
:1021700001F0E2FD01BD80B501F0FCFD01BD80B5BF
:1021800001F032FE02BD80B501F048FE01BD80B510
:1021900001F05AFE01BD80B501F06EFE01BD80B5B3
:1021A00001F082FE02BD80B501F0A0FE01BD80B548
:1021B00001F0D0FE01BD80B501F0E6FE01BD80B5A5
:1021C00001F030FF02BD80B501F058FF01BD80B5C0
:1021D00001F080FF02BD80B501F0A4FF02BD704791
:1021E000FFB506468DB050890690F9480921006870
:1021F00009020A904018806E14460C9052792046CD
:10220000403051061D460B90002901DBE8076FD0D6
:10221000002008900B9800880190A089A16984464D
:10222000A0784007400F05282FD003282DD001208B
:102230000990BF20024062710E9FEA073846403085
:102240001037002A09D03C21089100210E9F0691E9
:10225000019181838C468180083739220A9B520183
:102260009B185A79920612D5DA7992070FD5808891
:10227000019B624601920390009302913946069BAE
:10228000089A0998FFF7E4FE32E00020D0E70079D1
:102290000903090C6246019B029303920491059085
:1022A000786801970002000E00900A98A03000792B
:1022B000C00701D0002000E010208030099B069A62
:1022C000089901F073FFE8070899C00F08430FD180
:1022D00078680622C003C10FBE4800688163394692
:1022E000393000F0ADFABB4800683830FFF71DFF09
:1022F0000E9F28070122C037002872DA2069844621
:10230000E80301D5162017E0A80301D5132013E038
:10231000280301D528200FE0E80201D53D200BE07D
:10232000680201D5222007E0680334D560790006F1
:1023300001D4082000E03E200290B87B6021484391
:102340000C994018A04201D10820B873F87B602195
:1023500048430C994018A04201D10820F8739E48C8
:10236000008843079A485B0F0068014640314F7B65
:102370009A4097434F73052261469202114220D042
:1023800029041ED5218A49040ED5A0300079C00742
:1023900003D0002002E01F20CEE710208030069AF4
:1023A000029901F047FF0CE0A0300079C00701D08E
:1023B000002000E0102000238030069A029901F0EE
:1023C00065FF206A002801D001F08EFF0020206206
:1023D00060627F48A4210068095CC90702D000251B
:1023E00001E039E010250299069F0223803507910C
:1023F000E90603D50222BF210D4006E007210902AC
:102400004118897FC90614D500222907890E0918A9
:102410000120C0020818C06C294601F087FF0100A6
:1024200007D000220A71CF80079A0A72284601F06D
:10243000DBFF20463830FFF77CFE00272761E0698C
:102440003D46002807D0828806998A4203D101219F
:1024500001F0DEFFE76187E1680621D5A07840073B
:10246000400F052801D1A1696161002105280CD028
:10247000208BA2890004000D019000920B98069A0F
:102480000388802001F0E2FF6EE1606B43890289DE
:1024900001930092C3888020069A01F0D7FF6AE07A
:1024A000680723D580200490494807210068090265
:1024B0004118C97F0223069F0907CCD5990240180D
:1024C0000C22C06C049901F031FF0100C3D08F8051
:1024D000F2788A713379727912021A430A81B379D8
:1024E000F27912021A434A8104983BE12805800FD1
:1024F00006D00E98694631C16846FFF7F2FD33E118
:10250000364805423DD0E80401D5002000E01A20FD
:10251000079006980290F01C8021089005912C48A5
:1025200039210068490141184A79032392061AD5D6
:102530008979090717D50121C90240180E22C06CFC
:10254000059901F0F3FE019000280CD00799017164
:102550000299C18008220830089900F071F90199A8
:10256000059801F041FFA0784007400F052802D0F0
:10257000022803D0F8E00820B873F5E00820F873CB
:10258000F2E068042CD5208A4004114800680CD57C
:10259000A0300079C00701D0002000E01020002109
:1025A0008030069A01F046FE0CE0A0300079C007AA
:1025B00001D0002000E01020012300218030069A85
:1025C00001F064FEA0784007400F0528D3D0CBE08F
:1025D0006003002024030020C0000020001000043D
:1025E00028021ED5208A00051AD59348F178006884
:1025F000A0300079C00701D0002000E010200023A7
:102600008030069A01F042FEA0784007400F05286E
:1026100001D10820B87343212069890288432061D1
:10262000A2E00E992A06803184480191002A26DA18
:1026300002A9334607910D337F4900930968169F1D
:1026400009180822F01C2637FEF77DF9F17A307B55
:102650000822000208430199C88307990098FEF7F1
:1026600072F9009B0422184639460830FEF76BF9D0
:1026700001980299C16301980399016474E02901EA
:102680003CD56D49A4220968525CD20701D00027CD
:1026900000E010270818039001980323C08B8037AF
:1026A0000590F80603D50622BF20074009E039202F
:1026B000400108184279920656D58079C00653D554
:1026C00004223807800E41180120C0020818C06C8F
:1026D000394601F02BFE0190002845D0001D0290E4
:1026E0000699018002980822801C039900F0A8F83E
:1026F0000298059941813846019933E0A80200D536
:1027000039E7A80130D5802001900B98069F4089B9
:1027100002900B983921008B07900B984901C089D2
:1027200006900B980323408B04904348006841189F
:102730004A79920618D58979490615D50121C90229
:1027400040180622C06C019901F0F0FD01000BD089
:102750008F80029ACA80079A0A81069A4A81049A4F
:102760008A81019801F040FEA8060AD5206A016816
:10277000216200210160226A002A00D1616201F019
:10278000B3FDE8061AD5FEF79FF8012852D01F279F
:102790007078B11C0740E0693A46806801F08CFE11
:1027A000E069C780E069002707603078E169800749
:1027B000800F0873E06901F0ABFEE761E80137D5EF
:1027C0001698C1890120400709184988081801781E
:1027D0004906CD0F06A901F0B9FEA1200090A67B05
:1027E0000698089007980990134839210068490114
:1027F0004118497E0223C9071AD09902001D4018CA
:102800000F22C06C009901F091FD040010D02671D8
:10281000271D6571042208A9A01D00F011F80422EB
:1028200009A9B81D00F00CF82146009801F0DCFD64
:1028300011B0F0BDFF27ABE7600300209C0900004A
:1028400010B5040000F03AF8200010BD10B50400E7
:10285000080011000200200001F082FE200010BDDF
:1028600080B501F0A5FE02BD70B5054616460C46C2
:10287000084601F0ACFE2860217960790002084327
:1028800031044018686070BD70B4103A03D378C941
:10289000103A78C0FBD2530701D318C918C001D52C
:1028A00008C908C0D20704D30B880380891C801C88
:1028B000002A01D50B78037070BC70478B0701D1DB
:1028C0008307E1D0124205D00B78491C0370401CED
:1028D000521EF9D1704702780B7803700A70704766
:1028E00002680B6803600A60704702880B880380E7
:1028F0000A807047F3B589B00D4601F073FE80027F
:10290000800A01218905084300226B4610241146E4
:1029100001E0032A04D2D7000646FE401E7000E004
:102920001970521C5B1C641E2406240EF1D1002376
:1029300004AA6946099800F08BFD03226946281D08
:10294000FFF77EFF032204A9681CFFF779FF01202F
:1029500028700BB0F0BD7047F0B5A3B001780E91B0
:10296000456881681091C76801691E9141690591A8
:1029700080690024189417940090FF2616941D94E3
:102980000894A81C01F038FE297800024906C90FF6
:1029900008433860681D01F02FFE0002000A7860CD
:1029A0002846083001F028FE29780002C9090843AA
:1029B000029028460B3001F01FFE0002000A03902F
:1029C0007A681002810F012902D13978012900D0DB
:1029D00000211391039909028B0F012B03D1029B54
:1029E000DBB2012B00D000231593800F02D1387881
:1029F000012800D000201B90880F03D10298C0B29C
:102A0000012826D0002128780507FB482D0F0368F0
:102A10001846FF301B302190F848181814900020F9
:102A20000F9012900C9001201A901C900098426018
:102A300000983A680260F04800681990E030027C23
:102A40000B92002A00D0012211920B9A012A02D087
:102A500005E00121D7E7407C002800D101240E9831
:102A6000002811D001284ED0032D02D0052D00D012
:102A700001240598007E03287ED002287DD00128FD
:102A80007CD004287AD09CE0032D06D0052D04D0FC
:102A9000042D04D0012D05D009E0012407E0012018
:102AA0000F9004E01198002801D101201290109895
:102AB0001690801C189010980830179005982030B8
:102AC0000079032810D001280ED000220C92059224
:102AD00000280BD0012809D000201A900B9801285B
:102AE00006D0012D09D0A0E00122EFE70120F4E794
:102AF000012D6FD1002900D001241598002801D1A3
:102B000001201290C1E0002D02D0012D00D001243F
:102B100005982030007901280ED000220C921B9AD3
:102B2000002A01D0002809D001220592159A002A16
:102B300006D0012D09D019E00122EFE70022F4E7C9
:102B4000012D13D10B9A012A06D00B9A002A0BD023
:102B5000159A002A08D009E02323199A5B01D2189C
:102B60001279012A00D1012401221292139A002A1B
:102B700006D00B9A002A02E01CE019E01CE006D106
:102B8000002801D101220F92139A002A07D00B9A34
:102B9000012A45D1002805D101201D9002E00B98A3
:102BA00001283DD1012D78D100296ED001246CE09F
:102BB000052D06D1012404E01399002908D0002A2C
:102BC00006D000210F91032D05D0052D09D00FE06F
:102BD0000121F7E729E005992031497BC90705D193
:102BE00006E005992031497B890701D501210C9127
:102BF0000C990591012112911099891C1891109935
:102C00000831179110991691012A07D1012801D096
:102C1000042803D11B99002900D00124052D29D0B7
:102C2000012D32D00E98012837D0189801F0E4FC1D
:102C30001699000209784906C90F084309901898A7
:102C4000C01C01F0D9FC0002000A0A900E9801286D
:102C500023D0179801F0D0FC169900020978C90911
:102C600008430D901798C01C01F0C6FC0002000A32
:102C7000109020E013990029D7D0012801D0042812
:102C8000D3D101200890D0E707E0012119988902EB
:102C90004018C16D0991006ED7E71E9800691E9912
:102CA00049690202CB03DB0F09041A43090A000E2B
:102CB00001430D921091002C73D11398002866D017
:102CC0000B9800281CD01198002860D078683968CB
:102CD0000202012001F09CFC474B01469D2218682E
:102CE000D2008218FF290CD0FE293ED0C8008018DF
:102CF000C6791498F100091807220098FFF7A0FD83
:102D000083E0052D02D10E99022904D0F221095C3D
:102D1000FF2913D029E00121384601F0C9FC410800
:102D20007F2903D0C10014980818E1E70899059895
:102D3000084301D0012468E0002466E011218901E4
:102D40004118497EFF2910D1FF3007223946013052
:102D5000FFF776FD284800210068F2221154014651
:102D60004031CA79EF231A40CA710E99012904D063
:102D7000059C4AE001200F9047E0232149014018BB
:102D8000C0790228D6D20C980028F3D0D2E71B983D
:102D9000002802D00B98012804D0119800280CD1EB
:102DA00004E039E00020059C1C902EE023211998B6
:102DB00049014018007A002827D078683968020253
:102DC000002001F025FCFF281FD0C100149808182E
:102DD000C6793720219970434018017D002900D021
:102DE000012120302091807D002809D000201F90F3
:102DF000002907D009E00000600300206C040000F7
:102E00000120F4E71F98002894D157480168112049
:102E10008001081806754675119800284BD0FF2EC2
:102E20000BD00898002808D04F4801681120800175
:102E30000818807DB04200D001241D9800280BD0D6
:102E4000FF2E09D048480168112080010818807EB3
:102E5000B04201D0012447E0002C45D1159800284C
:102E60002BD0012D29D14048029A0068C11DF931AB
:102E70000B699A4205D1039A4969120209028A42F2
:102E80001BD0112189014118497E1A9CFF2912D1BA
:102E9000FF30072202A90930FFF7D2FC3248EF23A6
:102EA000016808464030C2791A40C27111220020E0
:102EB000920189184876002C16D11C98002813D04E
:102EC0000C98FF2E07D000280ED037202199704390
:102ED0004018807806E0002806D07868010238683B
:102EE00001F07EFC0028B5D00F9800282AD00D985C
:102EF0003968884203D110987968884222D01198A5
:102F0000002807D118480168232040010818007ADA
:102F1000002800D00120FF2E02D02099002907D0E0
:102F200000221F99002905D00021052D17D103E0AB
:102F30000122F6E70121F8E7002810D0002A0ED080
:102F400000290CD0002C0AD1129800280AD002992E
:102F50000998884203D103990A98884202D0012037
:102F600023B0F0BD0020FBE760030020F8B501F0BE
:102F700043FC434C074621680A468031886FCB6F7B
:102F8000381A1818C8674B6F000B984236D30020C8
:102F9000E032C8675074107C00282BD0002523260F
:102FA00076010BE03721694308180146FF31FF30F5
:102FB00040313030FFF79EFC6D1CEDB22068811966
:102FC000097AA942EED800250BE037216943081899
:102FD0000146FF31FF3047311F30FFF78BFC6D1C7E
:102FE000EDB220688119097AA942EED82168012042
:102FF0008919887121680120E03148742068F8211E
:103000000F5072B601464031CA7910231A43CA7173
:1030100062B60146E0310A7C002A24D0897CFF2573
:10302000002906D1FF30013001F042FB2068E0307A
:10303000857411262168B6018819407EFF2813D0B7
:10304000372250434018FF30FF3100223030093121
:1030500001F0DCFB002808D0216800208919C87520
:103060002068801945760020F8BD2068012182196A
:10307000FF30D175013081680161C1684161EFE7BE
:1030800060030020FFB595B000257C4802950395AC
:1030900000880E4679494007C00D0C314018C1899F
:1030A0000120400709184988FF230C18744837216C
:1030B0000268112080011018407D1B33414389189C
:1030C0005B5C0793E3799B09012B04D123785B06B2
:1030D00001D5012700E0002723235B01D218527994
:1030E000012A17D9FF2815D01598002804D0607B35
:1030F0008009012805D00DE00622FF3102A84131E8
:1031000006E02078000605D521460622083102A8EF
:10311000FFF796FB002F35D017983C2800D105AE5D
:10312000574F1120396880010818407DFF2824D0AE
:103130000622A11C6846FFF783FB07985149C5008A
:1031400038680622281841183046FFF779FB38689E
:1031500023212A1849015118097B3722891CB17192
:10316000112189014118497D51430818FF30062279
:10317000A11C4830FFF764FB06E00622A11C304684
:10318000FFF75EFB009501953D48A4210068095CAE
:10319000C90701D0002700E0102717990C91189952
:1031A0000B9115990991716808230902090E0A917A
:1031B00002A90791694606911E9913911F991291D0
:1031C000209980370903090C11912199C9B20F91F7
:1031D000F90603D50B22BF210F4009E0392149012F
:1031E00041184A79920635D5C979890732D509221D
:1031F0003907890E08180121C9024018C06C3946E8
:1032000001F094F8040025D00C9921710B99E1800C
:10321000099921720A99251D617206223146A81D5D
:10322000FFF70EFB284606220C300799FFF708FB34
:103230002846062212300699FFF702FB13992983CC
:10324000129969831199A9830F99A9772146384664
:1032500001F0CAF8179800280ED170680A4CC00314
:10326000C10F20680622816331463930FFF7E8FA42
:1032700020683830FEF759FF19B0F0BDC0000020BB
:10328000600300206D04000024030020FFB55C49AA
:10329000964609685B4A8DB08D18392252018A180A
:1032A000944652791127169B04920C46BF010020C8
:1032B000179E9206A034CF190833002A0FDA62460F
:1032C000D27952070BD50D9A012A08D97246012AE4
:1032D00005D10E9A002A02D0FA7D002A0BD0F022E6
:1032E000525C012A23D13F7DFF2F20D02079C007D7
:1032F00032D0002431E03A7D0120FF2A19D06F46F8
:1033000049C7372042435018FF300130807EC0004B
:1033100041183D480B182079C00701D0002000E07B
:103320001020A12108437146109A10E0012011B02D
:10333000F0BD694649C12079C00701D0002000E0F6
:103340001020A121169B0843012271469B1C01F00D
:1033500077FA002850D1E9E71024A12004437046F1
:10336000079010980990372047437818FF300130B4
:10337000807E0593C000421823480B9610180890D1
:1033800018980290032213301043401C8308E00673
:1033900003D50722BF20044007E004988006C5D566
:1033A000604680798007C1D505222007800E40182D
:1033B0000121C9024018C06C214600F0B7FF060089
:1033C0001AD007983071099870713546371D183535
:1033D0000622B01D0899FFF733FA02983872FD6093
:1033E0002846029A0599FFF72BFA0B983874314654
:1033F000204600F0F9FF99E7296A0020087095E758
:10340000600300203C0900006D0400007CB5044608
:10341000E1200D46800001F059FA0BA103C900908C
:103420000191684601F064FA012001F081FA002858
:1034300001D047207CBD207820210843207009203E
:10344000287000207CBD00001F020000000000006A
:1034500030B50D461C49144609681C4A91B08918BC
:103460000922D206096D1269891A194A09021288BD
:10347000090A12070AD5002B08D1164AFF399142D2
:1034800004D32246294601F057FA1AE001461022D9
:1034900004A8FFF7D5F91022294608A8FFF7D0F9AC
:1034A00004A8009008A801900CA80290002069468A
:1034B00008736846FEF744FC10220CA92046FFF76B
:1034C000BFF9002011B030BD600300205808000093
:1034D000C000002002FF7F00FFB58DB0144618AA7F
:1034E000ECCA04976F466CC70A46014605A8179BAD
:1034F00001F062FA00280AD108A84471012C08D012
:10350000002C06D0022C04D0032C02D0422011B093
:10351000F0BD09A8062202301099FFF791F908A919
:1035200016980873C0B20328F0D805A801F076FAFF
:10353000EDE7704738B51048002104680846AE34FE
:1035400001F09EFA694648702079C10704D0012134
:103550006A46117088432071C0B2810705D50221E7
:103560006A461170FD210840207102216A46084612
:1035700001F0BCFB38BD000060030020FEB53949F6
:103580000922096812028A18936E602242439C182D
:10359000354A80018D183549228946184020005B44
:1035A0002021895D521C228140006269002700B2FF
:1035B000101A6061F07A4018C0B2252800D325386F
:1035C000F072A079C0072ED0284640300090408E7F
:1035D0002189401A0004000C25D124480C380088A9
:1035E0004007400F01F0BCFB8446A0794008400032
:1035F000A0712846C030017A49084900017200993B
:10360000A3894A8DC98D0905090C934205D1A36987
:103610008B4202D16346002B01D0402701E00823F2
:103620008373A281A161A079800719D57620405BC0
:103630002189401A0004000C12D1802149596035BB
:103640000091A97E0191A179FD221140A17131461D
:10365000684605222131FDF776F901204005074330
:103660003846FEBD6003002058080000CC00002052
:10367000F0B58FB0076841680A917949794A0968BD
:10368000008989180B9101210991002108914005B9
:1036900014D50B988469C6692078617B05072D0FC6
:1036A0008909012903D1C00901D0012000E00020CF
:1036B0000890022D0CD9062D08D109E00B983C6B1F
:1036C000066A207805072D0F042D01D000200990EF
:1036D000E0798009012804D12078400601D5012134
:1036E00000E0002160480170E020C05D00283DD06E
:1036F00001208646002084463078132100901DE08A
:1037000000200D9042182318B25C9B789A4201D099
:1037100001220D92401CC0B20628F3D37046002847
:1037200004D00D98002801D0012000E0002086463A
:10373000891F6046401CC0B2C9B2844600988445C7
:10374000DED3704600287AD00098401CC0B204280E
:1037500000D9042030701222711CF01DFDF7F3F81F
:10376000314606221331A01CFDF7EDF8062D02D0DC
:10377000022D02D002E0022500E003252078400659
:10378000C00F0490012D0AD06078801FC606F60E87
:103790003348F0210068095C012914D02FE000268D
:1037A0006946204601F002FB2D480068E030007CAD
:1037B0000028EDD10098396888424FD10198796886
:1037C00088424BD11BE01121890141180A7DFF2A53
:1037D00015D025490B78012B01D102234B703723DB
:1037E0005A431218FF320132927E4978D2001018E3
:1037F000232252018018007B4018C0B2049009981F
:1038000000282BD00A982037807B029600940190E4
:1038100038792A46049B0899FEF729FC00281DD117
:103820000A982146807B029008310D48009601914C
:103830000068A0300079C00702D0002001E00DE050
:103840001020A1210843A31C2946049A01F0B8FACC
:10385000002803D00B980021006A01700FB0F0BD62
:10386000600300203C0900006803002070B50F4D84
:103870000F49286841184030407B002814D0C031DF
:10388000897B082910D1002402E04008641CE4B2BE
:10389000C107FAD0204601F0DDFA28680122403045
:1038A000417BA2409143417370BD00006003002042
:1038B0005808000002780907090F0A430270002027
:1038C0007047704730B50E4885B005682C46AE3558
:1038D0002879BA34400711D5E87A01280ED115218C
:1038E0004902684641800121017060886B46054AA3
:1038F00001F000FB002801D10220E87205B030BDC4
:1039000060030020FFFF000003480249C160034933
:1039100041617047A18F041040030020CD9804102E
:103920007FB5AC218172817B05468A072A35044622
:10393000002A09DA102200216846FEF787FF69464F
:103940002B460A46AD250FE0C80701D1480719D517
:1039500021464A312246E07A5232000701D52B46F1
:1039600001E023463A33AE2520890005000D01F021
:1039700001FB00280BD03A2801D00C2800D10020F0
:1039800004B070BDC808C000A0734620F8E7A17B52
:10399000CA0703D010221143A173F125C9B2C90887
:1039A000C900A173A572EBE710B57421095CC907C2
:1039B0000BD1817AA42909D0AC2916D0AF2904D122
:1039C000417F002914D0D021817210BD04461021FE
:1039D000543001F03DFBE07A0007204602D5FEF7A7
:1039E000D2FB10BD01F044FB10BDFEF78EFB10BDF5
:1039F00001F078FB10BD10B5036841689A68FD209E
:103A0000127B0B2A07D0022A0ED0032A13D0042AD5
:103A10001ED0FC2010BD8A7A002A01D0F12AF9D1EB
:103A2000184601F07BFB10BD8A7AA12AFBD118460B
:103A300001F0BEFB10BD8A7AA52A05D0A22A01D0CA
:103A4000A42AF7D1FF2010BD184601F0E7FB10BDF6
:103A50008A7AA62AFBD1184601F020FC10BD10B5C9
:103A60000146807AA92802D1002001F0D7FB10BDC1
:103A700010B504460146042001F082FCFF2801D065
:103A8000012010BD2146042001F0CAFC002010BD19
:103A900010B50146042001F073FC0146FF2802D056
:103AA000042001F0CBFD10BD00B50146042001F05B
:103AB00067FCFF2801D0012000BD002000BD704739
:103AC000F0B5574D0720296800020818007F91B013
:103AD00080076FD501F074FE01286CD1002401F03D
:103AE00013FF064601F072FE012800D103243000C6
:103AF0007ED0392702267F01012802D002287CD1FE
:103B00003BE06946022001F0BFFE032008A901F056
:103B1000BBFE002C06D1F9212868C90041180120FC
:103B200001F0B2FE2868A421095CC90701D0002178
:103B300000E010210E43694611231091F10603D5D0
:103B40000922BF210E4007E0C1194A79920654D5D7
:103B50008979090651D507223107890E09180120F4
:103B6000C0020818C06C314600F0E0FB070044D0EA
:103B7000381D3C714022109936E06946022001F060
:103B800083FE002C04D02022FF216846FEF75EFE53
:103B90002868A421095CC90701D0002100E0102198
:103BA0000E43694609230891F10605D50A22BF2173
:103BB0000E4009E029E030E0C1194A7992061CD58F
:103BC000C979C90719D008223107890E09180120BF
:103BD000C0020818C06C314600F0A8FB07000CD0EA
:103BE0003C71381D08992022401CFEF729FE00E098
:103BF00003E03946304600F0F7FB07202968000251
:103C00000818017FFD221140017772B628688022D2
:103C10004030C1791143C17162B611B0F0BD0000EE
:103C20006003002010B5012813D10A4C0822206837
:103C3000817E11438176202207493C30FEF700FE49
:103C400005492068202220315C30FEF7F9FD01F0A3
:103C500065FE10BD64030020B055051030B5044664
:103C6000C07A0025000710D5208901F067FE0028E2
:103C700001D0082509E0E07A01210843E0720448F8
:103C800004220068817E11438176284630BD000001
:103C90006403002010B50A4C2068807E41060DD5D3
:103CA000902108420AD101F069FE002806D121685E
:103CB000BF22887E104080221043887610BD00000D
:103CC0006403002070B504680579E07A00072FD5F9
:103CD000208901F033FEE17A49084900E172154C70
:103CE000002804D12168FB238A7E1A408A76216845
:103CF000002D05D0CA7E1032CA76002804D007E015
:103D0000C87E401CC87603E0887ECF2210408876AB
:103D100020680321C07E05090007000F01F04CFE5A
:103D20004019032804D301F09FFE21680020C876C3
:103D300070BD00006403002070B50D4D0178441C77
:103D40002868827E5206520E8276002902D001F047
:103D50008BFE70BD01F094FE002802D001F0DEFD64
:103D600070BD2868402221463C30FEF769FD70BDD9
:103D70006403002070B51A4C02782368411C987EB9
:103D8000C00626D5002A05D0164800210068A030BC
:103D9000027B21E018462022D030FEF751FD20683A
:103DA0002022817E114313E07C20DD6F48432818D8
:103DB00010D00589002D0DD0C57A2D060AD5012316
:103DC00000220B2101F064FE2068CF22817E114089
:103DD000817670BD491CC9B28A42E5D870BD000029
:103DE000640300206003002010B50B4A01681268CC
:103DF0008968927D4068C97B022A03D10A0701D4F1
:103E0000032010BD1823C27ADB4319430A40C27253
:103E1000FEF79FF910BD00006403002010B5C17FBC
:103E2000012908D0042906D0022907D0032901D18D
:103E300001F044FE10BDA521817210BDC17B491C5B
:103E4000C17301F015F910BD10B5C17F012908D06B
:103E5000042906D0022909D0032901D101F02EFE40
:103E600010BD0146002001F06FFE10BDC17B491C52
:103E7000C173B521817210BD38B514C8D07F022836
:103E80000FD10848D17B0068491E03690094CB40DC
:103E9000DB070146DB0F90313C305432803301F0B8
:103EA00090FE38BD6403002038B514C8D17F0023CC
:103EB000032904D00C480229006804D00AE0AA2093
:103EC0009072EB2038BDD17B0369491ECB40DB07E4
:103ED000DB0F803301463C3190306432009401F0B6
:103EE00070FE002038BD0000640300201CB50446AD
:103EF000C07F042806D0AA21022820D0012800D1A2
:103F0000A1721CBD01A800901048234600682246FB
:103F100001466433543290313C3001F07AFEB920CE
:103F2000A07201A801F0A1FE094901F045FD208918
:103F30000A460105090D022001F0A2FE1CBDE07B2E
:103F40001428DDD2A420A0721CBD00006403002050
:103F500040420F0038B514C80A48D17F00230068DA
:103F6000022906D1D17B0369491ECB40DB07DB0F59
:103F70008033014690313C306432009401F021FEE0
:103F800038BD000064030020FEB50468416802915A
:103F90008668C568BA20287000203060E17F1F481D
:103FA00004291ED002291BD10068E77B01697A1E13
:103FB000D140CB07029900910146DB0F22465432D3
:103FC0003C319030803301F0FCFD214610222A3133
:103FD0000298FEF745FC3060142F01D2B4202870FF
:103FE000FEBD01A9009100682346014622466433C4
:103FF00054323C31903001F00CFEB920287001A8F9
:1040000001F033FE064901F0D7FC20890A4601057C
:10401000090D022001F034FEFEBD00006403002003
:1040200040420F0070B50446134800250268402145
:1040300028463C3201F050FE002804D001F014FD67
:10404000FFF728FE0DE0E07A4106890F03290AD028
:104050007421095DC90708D0400602D5204601F049
:104060004BFE284670BD0125FBE78106F9D49B2154
:104070000840E072F2E700006403002010B5044637
:10408000807AAA280BD0BA2809D0B92810D0742079
:10409000005DC00702D12046FEF743F810BD204660
:1040A00001F060FE0028F9D0012300220B210DE071
:1040B000E07F0428F2D1E07E410602D5BA20A0724A
:1040C00010BD0006FCD5012300220C21204601F082
:1040D000DFFC10BD10B5026841689368FF201B7BB0
:1040E0000C2B03D00D2B14D0FC2010BD8B7AA22BEF
:1040F00001D0B22BF9D174235B5CDB07CB7A05D0FE
:104100005B06F2D4104601F07FFE10BD9B06F9D489
:1041100010BD8B7AAB2B01D0BB2BF9D1104601F02F
:10412000B5FE10BDF8B5026841689268FD20137BAA
:104130000E2B13D1CB7ADB0610D5CB7F022B0DD102
:104140004B7E022B0AD174235B5CDB078B7A06D093
:10415000B22B0AD0B42B08D0B52B06D0F8BDA22BB9
:1041600003D0A42B01D0A52BF8D10889392105054E
:104170000D484901006802264118C97B2D0D547B6A
:10418000012349060ED502218F020830C0191C22D6
:10419000C06C00F0CBF8010004D08D808C713046EB
:1041A00000F022F90020F8BD60030020FFB51F4693
:1041B00005230646C1061E4881B0006803D50522C6
:1041C000BF210E4009E03921490141184A79920680
:1041D00029D58979C90726D003223107890E081805
:1041E0000121C9024018C06C314600F09FF804005C
:1041F0001CD0029820710398E08027720A986072A0
:104200002046251D06220A300B99FEF719FB0C9853
:10421000A8810D98E8810E9828820F98A8742146ED
:10422000304600F0E1F8002005B0F0BD0720FBE7C4
:104230006003002070B50E4601230446C1061248F3
:104240001546006803D50422BF210C4008E039213F
:1042500049014118C978090601D4002070BD022225
:104260002107890E08180121C9024018C06C214697
:1042700000F05CF8010005D00E71CD80204600F002
:10428000B3F8EAE7072070BD60030020F8B51D46CB
:104290000F4602230446C10612481646006803D59D
:1042A0000322BF210C4008E0072109024118897F41
:1042B000090601D40020F8BD01222107890E081843
:1042C0000121C9024018C06C214600F02FF80100FE
:1042D00006D00F71CE800D72204600F085F8E9E718
:1042E0000720F8BD6003002070B5C17C0E4D490663
:1042F000490EC174044601232868D902401890264B
:104300000022C06C314600F011F8010003D03046A5
:104310004C6000F069F84B20296840010918487882
:10432000401C487070BD000060030020FFB50446CB
:1043300000262C4F83B09C460D46080616D572B653
:1043400001AB6A466146204601F0D9FD00280BD03A
:104350006846818800988278920892008270018075
:104360006180012662B615E062B621E001AB6A46C3
:104370006146204601F0C3FD002819D0680609D423
:104380006846818800988278920892008270018045
:10439000618001260098AA00817840238907890F4F
:1043A0001A40114381700599C170002E0ED115E09D
:1043B0000020009072B6A8060FD401203968C00210
:1043C0000818816B08221143816362B672B638689F
:1043D000F7224030C1791140C17162B6009807B030
:1043E000F0BD0000600300200A46400608D5D078E2
:1043F0003A280AD2111D054B80001B581046184759
:10440000907880088000801C88707047683A05109A
:10441000F8B50E460C4909220968120289180838B5
:1044200007464C6E01F0A1FD05463946A06801F033
:10443000A6FD72B67100605C401B60542079401983
:10444000207162B6F8BD000060030020F8B51D467B
:104450000F4603230446C10616481646006803D5D6
:104460001022BF210C400BE03921490141184A7943
:10447000920602D58979490701D40020F8BD0D22A2
:104480002107890E08180121C9024018C06C214675
:10449000FFF74CFF01000AD00F71CE800D81069A04
:1044A0004A81079A8A812046FFF79EFFE5E70720A9
:1044B000F8BD000060030020F8B504460D46501E0C
:1044C0001F210843401C00041646470D1ED02046FD
:1044D00008302946421A002A01DD082A03DB20227F
:1044E000FDF71EFC04E0082208C9521E08C0FBD1DB
:1044F0002035202E01D2304600E02020A080301A46
:104500007F1E24683F0486B23F0CE0D1F8BD70479F
:1045100070B50D4D044601232868D9024018902635
:104520001A46C06C3146FFF701FF010003D0304648
:104530004C60FFF759FF4B202968400109180878A3
:10454000401C087070BD00006003002010B50B46D1
:1045500001784906CA0F811C184601F02BFD10BDD9
:104560001206130A1A43130C1A4300BF094205D05E
:10457000830705D00270401C491EF9D17047000026
:104580001300103906D330B41400150010393CC0A4
:10459000FCD230BC490700D30CC000D504C0890050
:1045A00002D30280801C002900D50270704770473A
:1045B000A446521E08D303780C78401C491CA34221
:1045C000F7D0181B64467047002064467047017896
:1045D000427813028278C078120400061043184310
:1045E0000843704710B5FDF7EFFA0446FDF7ECFA03
:1045F0000004201810BD7047C37882784178007895
:104600001B021A4309021204084310437047704703
:10461000F0B4234B00281B6808D001280BD00228D7
:104620000CD0042833D02F24640108E01D481B1847
:104630009C4604230CE09D24E40000E01A4C1B1966
:104640009C46032825D0042826D00423042825D0FE
:104650000F2701209840C3B200205B08C418E4B2C1
:10466000BC420FD2E50065442E686D682D02AA4257
:1046700003D8AA4206D1B14204D32046B14201D1A7
:10468000AA4202D0002BE8D1FF20F0BC7047074CB3
:10469000D5E705231F27DCE70323D7E70827D8E75B
:1046A000600300206C04000064050000DC060000CC
:1046B000F3B505468DB0FF20454C03904549206871
:1046C00047189D21C900401804902946022000F097
:1046D00057FEFF284AD10020059023202168400181
:1046E0000918097A002931D9F87937214843216816
:1046F0002A79461838490E9B0A706A7930464A7002
:10470000FF30AA791F308A7006AA061FFEF7A0FEA6
:104710000322691C06A8FEF7A3F8002829D0307DE3
:10472000012806D1072239462846FEF799F80028C5
:104730001FD005980837401CC0B20590232021687F
:1047400040010818017A05988142CDD821680020DF
:10475000E03148742946022000F062FE22680121FF
:10476000E0325174FF2801D0FE20039003980FB06F
:10477000F0BD0598039021680020E03148747178FD
:10478000012000F05BFF15492068411809780F29C6
:104790000CD19D23DB007822FF21C018FEF756F8CC
:1047A000272221680020520189180871294601201A
:1047B00000F036FE7070C2000498F9791018C171CB
:1047C00021680120E03148740398FF28BED0CDE76E
:1047D000600300206C0400008C030020E40400004F
:1047E0000A4610B501460320FFF712FFFF2801D04B
:1047F000012010BD002010BD10B50920C0060069C1
:104800000002000A01F0E6FB10BD704710B50C462F
:104810000B790A4984B00B7063794B70A3798B7064
:1048200013466A46FEF714FE0322611C6846FEF733
:1048300017F8002800D0012004B010BD8C03002020
:10484000FFB504230546C1061F4881B00C9E0068D1
:1048500003D50C22BF210D400CE03921490141183C
:104860004A79920602D5C979490702D4002005B0D9
:10487000F0BD0A222907890E08180121C902401833
:10488000C06C2946FFF752FD040019D00298207130
:1048900003986071271D0622A01D0499FDF7D0FF23
:1048A0000A9838723846062209300B99FDF7C8FF7E
:1048B000FE7321462846FFF797FD002005B0F0BDA6
:1048C000072005B0F0BD00006003002010B5642192
:1048D000064C4843216880314867FFF78DFF216807
:1048E000803188670020C86710BD00006003002089
:1048F00070B50546002440782646022801D00428D9
:1049000003D1FDF7C9FB00280DD008483921006804
:10491000490103192A5D5B18641CE4B29A71082CE2
:10492000F7D3304670BD1126FBE70000600300207E
:1049300010B501F061FB10BDF0B50F46B5B01546DE
:10494000002130AA0F23445C5E1A491C945510299B
:10495000F9DB1022694630A801F05EFB0026B400A6
:10496000E019401CFFF748FE395D000208430321AF
:10497000891B89002CAC761C6050042EEFDB21468D
:1049800010236A46084601F063FB00200326311A13
:104990008900635C8200AB54635A52191B0A53703E
:1049A0006358401C1B0C93706158090ED170042889
:1049B000EDDB35B0F0BD7047F0B5069E079D059C58
:1049C0000180144F091FB9421FD24280121FBA4200
:1049D0001BD211499A1F83808A4216D2A21FC4801B
:1049E0008A4212D29C4210D3FF21F43106818E42BA
:1049F0000BD809494581091F0A3D8D4205D2089906
:104A00008181099AC2818A4201D21220F0BD002020
:104A1000F0BD0000FD3F00007B0C0000F8B505462E
:104A2000002768460770154846260468AE3420798A
:104A30008006800F03D00021084600F021F8A078FE
:104A4000400718D520794C21084214D10023287E34
:104A50006A46194601F02EFC00280DD16846007800
:104A600028762F74284601F015FD060003D1207921
:104A70004021084320713046F8BD0000600300204B
:104A8000F3B5054693488DB0016893480F189248D6
:104A9000E4300C18FD20C000081804900920000222
:104AA0000818806E069001F043FE0646E0210E983D
:104AB000C8553046082E0AD2002D7DD172B6FCF7BB
:104AC000D5F862B6304601F057FE0026FFE0002D13
:104AD00072D038468030C1680291866842200A90C0
:104AE00009907E48089000200C9001F083FE054656
:104AF00005AB3246029901F097FE012106464904B2
:104B000005E0800805900C98401CC0B20C900598F8
:104B10008842F6D80C980599800440180B210905A5
:104B20004018059078684021800A08406949C01CF7
:104B30000A681321C90151188968087065480C2159
:104B400002681320C00110188068417061483968FC
:104B500002681320C00110188068801C01F0AEFEAE
:104B60005C4801681320C00108188168B888887102
:104B7000000AC871574801681320C001081841682D
:104B80009031A16141686031396341683031E16140
:104B900040682062E16900200870216A0870A069FD
:104BA0006168E2685080E0680180388EE168626880
:104BB00050806068018000E088E04648016813206A
:104BC000C00108180089216822685080206801808F
:104BD0000021099B2768C81D02463B540A98E368D8
:104BE000985463689854059AE368081D1A54089A03
:104BF00063681A54059A23681A540A98491C000AD3
:104C00000A900998C9B2000A09900598000A05900F
:104C10000898000A08900329DBD32E480168492030
:104C200040010B18987E002815D0E1686801C01C6F
:104C3000887221686801887261688872E16803205F
:104C4000C87221680122CA726168C872082D39D2FF
:104C5000002E04D03BE0E16868011330E8E720490A
:104C6000A8014018002181729B7E002B28D0DF070D
:104C700001D0252302E09B0722D52623C372236897
:104C80000382E3684382174BC361174B8361202380
:104C90001A54C1756020069B6843C018417172B6F2
:104CA000049BAA401B7D03241A438470241F448163
:104CB000C1730498027562B6184601F007FE06E05B
:104CC0002723DBE7002E02D1412600E00C263046E8
:104CD0000FB0F0BD60030020580800002C01B000A8
:104CE000CC00002055555500D6BE898EF8B5891EDA
:104CF000CDB20646A81C03210843401C8308174870
:104D000017460068F10603D51C22BF210E4008E0BB
:104D1000392149014118897B090601D40020F8BDD9
:104D200019223107890E08180121C9024018C06CE8
:104D30003146FFF7FBFA04000ED0397821717978FB
:104D40006171A5712A46B91CE01DFDF779FD214668
:104D50003046FFF749FBE1E70720F8BD600300207C
:104D600010B51149FD220968D20089184C688B687A
:104D700042009C4204D1086B4C8A805AA04201D068
:104D8000012000E000204B608B688B614C6A8B89AE
:104D9000A3528C6ACB89A3520C6B4B8AA3520B8A09
:104DA000C96A8B5210BD00006003002010B50B468D
:104DB0000178CA0901460831184601F0FBF810BD18
:104DC000FFB581B006460A98032113300843401C02
:104DD00083081F48F106006803D50722BF210E4053
:104DE0000CE03921490141184A79920602D58979A6
:104DF000890702D4002005B0F0BD05223107890ED5
:104E000008180121C9024018C06C3146FFF78EFA1C
:104E100005001AD002982871039868712C462F1D3E
:104E200018340622A81D0499FDF70AFD0A98387265
:104E3000FC6020460A9A0B99FDF702FD0C98387425
:104E400029463046FFF7D0FAD4E70720D3E7000021
:104E5000600300207CB502462348244900684518B9
:104E60000921090241188B6E602151435C18002111
:104E70000091019172B6A1784907490F052901D027
:104E800062B67CBD2946C0318A737D2252024A81B6
:104E900062B6052269464830FBF755FD802000992F
:104EA00041517A2101984855A08906222189504311
:104EB0000930081886B2616B0D480860606B0522E6
:104EC0008660616B6846C91CFBF73DFD6079012176
:104ED000084360714035EE86A0790221C006C00EFD
:104EE0000843A0717CBD000060030020580800004A
:104EF00003080100FFB589B0074646251E78102239
:104F0000991C05A8FDF7DAFC012E04D0022E02D070
:104F100042200DB0F0BD384601F040FD040024D021
:104F2000202239460020FCF7D7FB07001CD005AD36
:104F300004960FCD6D460FC5394620460B9B0A9A45
:104F400001F038FD050004D000213846FFF760FA73
:104F50000BE0012120694903084320610448A06156
:104F6000384601F063FD00E064252846D1E70000E3
:104F7000C5660510FFB533480E460068324987B054
:104F800045181F461446304601F066FD0190301D5D
:104F900001F062FD00902078617802AE0C020443BB
:104FA0000221079801F064FD00213A783270491C13
:104FB000C9B2761C7F1C1029F7D3082802D302201F
:104FC0000BB0F0BDC035A97B082901D20C20F7E752
:104FD0001C4909220968120289188A6E602141431E
:104FE000511872B64A79920702D062B63A20E7E7C2
:104FF0007D2252026A81A8734A6B144810600869C6
:10500000020504D5487901221043487103E00122CA
:105010001203104308614A6B019850604A6B009874
:1050200090604A6B0298D0604A6B039810614A6B9B
:10503000049850614A6B05989061486BC46162B6F0
:105040000020BDE7600300205808000003010A00AB
:10505000F0B50E460746002407E03D19FCF7B4FD05
:105060002870000A6870A41CE4B2B442F5D3F0BD05
:1050700030B50446008989B00105090D20220020C1
:10508000FCF72AFB050009D0E07A000709D568463D
:105090000590049404A8FDF77EF808E0642009B0A8
:1050A00030BD21466A465431204601F025FD1120CD
:1050B000E880A868032101736B4610220521284669
:1050C00001F0BAFD2146284601F0C0FD050007D1D8
:1050D0002046102269466430FDF7B2FBA520A0727D
:1050E0002846DCE7C17A0A07817F03D4CA0701D0CA
:1050F000D12102E08A0702D5D32181727047490786
:1051000001D5D521F9E77421095CC90704D0417F95
:10511000490701D0D021F0E7F021EEE7F8B50C46C1
:10512000897A0026A039502901D80020F8BD80686E
:105130001D4F457B3868807D022803D1280701D4A4
:10514000032024E0A07B80210843A073208901F084
:1051500099FD02460021154B084601F0B5FDA07AE5
:10516000F12806D1680704D520894004800F00D1BA
:1051700001263868E906C90E8030017320890022B3
:105180000005000D314601F0BFFD0028CED0A17B07
:105190004906490EA1736428C8D0014601230022A4
:1051A000204600F075FCF8BD640300203075000057
:1051B0007CB50C460646A42501F054FE00281BD100
:1051C000E07A000707D5684600960194FCF7D7FF00
:1051D000002811D1A225A07EFB2140084000A07626
:1051E000E07E0840E0762146304601F055FE20463C
:1051F00001F096FE002808D0642805D0014601235E
:105200000022204600F044FC7CBDE17F022903D14E
:10521000E17EC90600D4A225A5727CBDF8B507467B
:1052200008890C460105090D20220020FCF754FADC
:1052300005000DD026462A36002F05D03346102211
:105240000521384601F0A8FEE07F022802D009E0DF
:105250006420F8BD2046102231466430FDF700FB83
:10526000002814D01120E880A86804210173234687
:10527000543310220521284601F0DEFC2146284641
:1052800001F0E4FC0028E4D1A621A172F8BD0123BD
:105290002A460821204600F0FBFBF8BDF0B50B467E
:1052A00093B00C466433002510220521099301F0C8
:1052B00073FEE07A00070BD504A80F900E940EA899
:1052C000FCF76DFF0546EB2807D1002013B0F0BDB9
:1052D00004AA2046099901F00FFC21462A31102228
:1052E0000F4604A8FDF7BCFA002806D000231A4692
:1052F0000421204600F0CCFB3CE0204E217F3068AA
:10530000C07B814200D92077E07A000703D5204690
:10531000FCF749FF2FE0102200216846FDF796FABE
:10532000E07F022802D0032806D00BE03068016934
:10533000684601F03AFE05E03168102268461C31EB
:10534000FDF77EFA22460AAB54326846099901F00D
:1053500034FE102200213846FDF778FA227F0AA990
:105360003846FDF76DFAA07B02210843A073204662
:10537000FCF7CBFE05462846A8E7000064030020A2
:10538000F0B5234A0028126808D001280BD0022863
:105390000CD004282FD02F235B0108E01D481218E1
:1053A000964604220CE09D23DB0000E01A4BD21845
:1053B0009646032821D0042822D00422042821D094
:1053C0000F20844601209040C3B200265B08F018ED
:1053D000C0B260450BD2C200744614190722521E97
:1053E0008D5CA75CED1B0FD0002D00DD0646002B69
:1053F000ECD1FF20F0BD094BD9E705221F20E0E7E3
:105400000322DBE70820DCE7002AE8D1F0BD00003A
:10541000600300206C04000064050000DC0600004E
:10542000F3B505007F4883B0006808D0012D0DD08A
:10543000022D0ED0042D1BD02F2149010AE07A49FC
:105440008D22411801910F21D20020E09D21C90039
:1054500000E0764941180191032D0BD0042D0CD0AA
:105460000F21012D0BD0022D0CD0042D03D10CE007
:105470006F49EFE71F216F4A09E00821F1E76E4A03
:10548000801805E02B22520101E0DB22D2008018B7
:10549000009004788C4207D1002D15D0032D13D035
:1054A000042D11D0012D0FD08C4201D1022D0DD031
:1054B000002628460499FFF763FF0290FF2807D0D3
:1054C000FE26002D7ED0AAE0FF26A8E0FC26F0E70D
:1054D000FE2E78D0022D10D1FC2E0ED15148019A0B
:1054E0000068FF300130417ECB009A18D2794276B5
:1054F000022000F0A3F8641EE4B2002C3DD0019815
:10550000E1000F183E46083E04990720401E0B5C40
:10551000325C9A1A0BD0002A0BDD0198E1000818C2
:1055200007220499FDF78CF9261E26D02BE00028CF
:10553000ECD1384607223146FDF782F9F079F8714F
:10554000002D03D0032D01D0012D12D1F079C143DC
:1055500049060ED037214843324909684018FF30C8
:105560001B30002D02D0012D17D0C01C0178491C22
:105570000170641E2406240EC1D1072204990198EB
:10558000FDF75EF900260098022D08D000780099FA
:10559000401C0870002D3DD041E0401CE6E701783A
:1055A000002921D00198CA001018C01D0278521C91
:1055B000D2B2A24200D902700838491EF6D1009832
:1055C000007801E028E022E000280DD015480068AE
:1055D000FF300130417EA14201D3491C4176017E5A
:1055E000A14201D3491C01760E480168FF31013107
:1055F000097ECA0001995118CC710068FF30013052
:105600000476009800990078401C087007E0002D8F
:1056100002D004E0FE2E02D1029E802006433046D6
:1056200005B0F0BD600300206C04000064050000BC
:10563000DC060000DC050000E4040000F0B5040016
:105640004E4883B000680F4608D0012C0AD0022CC7
:105650000BD0042C2BD02F21490107E048494018DA
:10566000009009E09D21C90000E0464940180090E3
:10567000032C1ED0042C1ED00F20FF2F5ED0401E06
:10568000C0B23E46019087422ED20098F1000D181C
:105690002946083128460722FDF7D2F8E87BE87151
:1056A000002C0AD0032C08D0012C06D017E0364974
:1056B000DCE71F20E1E70820DFE7C14349060ED001
:1056C000372148432D4909684018FF301B30002C12
:1056D00002D0012C1ED0C01C0178491E0170761C1E
:1056E0000198F6B28642D0D3C100009807220D1867
:1056F0002846FF21FDF7AAF8FF20E871002C0BD007
:10570000012C0FD0022C11D01C48042C006832D080
:105710001E490FE0401CDFE718488D210068C900D2
:10572000401808E015481A49006803E013482B2187
:105730000068490140180178491E0170022C18D1F7
:105740000E480068FF300130417EB94201D9491E40
:105750004176017EB94201D9491E017600980F2198
:10576000C01D0278BA4201D9521E02700830491E8B
:10577000F7D103B0F0BDDB21C900DBE760030020F7
:105780006C04000064050000DC060000DC0500007D
:10579000E4040000C0200006016880220A43026081
:1057A00001688022914301607047C02000060168B3
:1057B00001220A430260016801229143016070479F
:1057C000C020000600688107C80F7047394800787C
:1057D000002801D00120704737480068002800D019
:1057E0000120C0B2704710B50B00521E815C9C5C5A
:1057F000091B01D1002AF8D1080010BD00000000EB
:1058000070B50E002B4D2C7801281AD1202200BF34
:1058100035A13000FFF7E7FF002801D404201BE08A
:10582000FB20204028702548002100229300F458D6
:10583000C3181C60521C082AF8DB203001600020CD
:1058400070BD00BF20A102280FD120223000FFF739
:10585000CAFF002804D4012020432870012070BD15
:10586000FE20204028701648DEE70328F6D12022CB
:105870003000FFF7B8FF002801D40220ECE7FD203C
:10588000204028700F48CFE7012808D10B4800229C
:10589000835C8B54521C202AFADB002070470228BC
:1058A00001D10748F3E7032801D10648EFE70120BB
:1058B00070470000AC030020000400C06C0400C06E
:1058C000900400C0B40400C0FFFFFFFFFFFFFFFF14
:1058D000FFFFFFFF000000000000000000000000CC
:1058E00001000000FFFFFFFF512563FCC2CAB9F3AE
:1058F000849E17A7ADFAE6BCFFFFFFFFFFFFFFFF87
:1059000000000000FFFFFFFF034900280A7801D0D4
:1059100000200870104670476A03002010B5064842
:10592000F9230068DB0020220249C018FCF788FF39
:1059300010BD0000F05505106003002070B50D4A41
:10594000054613680C4A002012680146A032147BF9
:105950000DE07C22DE6F4A43B218D67AF60704D0F7
:105960001289AA4201D0012070BD491CC9B28C42E3
:10597000EFD870BD640300206003002010B50D480F
:1059800007210068090241180A7F002493070DD4FB
:1059900002231A430A7772B64030C1794906490E8C
:1059A000C17162B601F01CFB002800D03A242046E9
:1059B00010BD0000600300200022030A8B420BD2BE
:1059C00003098B4219D243088B422ED2411A00D2CE
:1059D0000146524110467047FF2209023FD012068D
:1059E0008B4205D3121209028B4201D31212090213
:1059F00003098B4219D300E0090AC3098B4201D382
:105A0000CB01C01A524183098B4201D38B01C01ACA
:105A1000524143098B4201D34B01C01A5241030941
:105A20008B4201D30B01C01A5241C3088B4201D3F0
:105A3000CB00C01A524183088B4201D38B00C01A9D
:105A4000524143088B4201D34B00C01A5241884255
:105A500000D3401A5241CFD201461046704708B5D4
:105A600001F0F4FA08BD704704480068817E0A0618
:105A700002D4402211438176704700006403002065
:105A800002480068807E0007C00F70476403002052
:105A9000F8B51D4614460E460B460746052221461C
:105AA00001F0D5FA0446642801D1012D03D1314615
:105AB000384601F0E7FA2046F8BD704770B588B067
:105AC0000446002501F010FB1E4E012823D105AB32
:105AD00001220021204601F025FB06AB0222002115
