:020000041005E5
:10B0000000600020D9E905100DE805100FE80510D3
:10B01000AA5555AA45554C4200000000000000000A
:10B0200000000000000000000000000011E8051012
:10B03000000000000000000073EA051013E805108E
:10B040001BE8051075EA0510000000000000000074
:10B0500061E8051077EA051063E8051083EA05103A
:10B0600000000000000000000000000000000000E0
:10B070000000000085EA051087EA051089EA05103E
:10B080000000000079EA05107BEA05107DEA051052
:10B090007FEA051081EA05108DEA05108BEA05109C
:10B0A00000000000000000000000000000000000A0
:10B0B0000000000000000000000000000000000090
:10B0C00078B589B00400002568460570B94800F0DD
:10B0D0001DFF00283CD101220F21684600F07BFFB4
:10B0E000002835D1684600786928F4D105206946E2
:10B0F000087001221221684600F0ACFF002827D119
:10B1000001221221684600F066FF002820D168461F
:10B1100000780428F4D16846457001221221401CB1
:10B1200000F059FF002813D16846407804210143FC
:10B130006846417001221221401C00F08BFF00285C
:10B1400006D101220A2100A8401C00F044FF00287B
:10B1500000D0E1E1684640788021084069464870A7
:10B1600001220A2100A8401C00F074FF00286FD1C2
:10B170000194207800F0E8FF69464D7080210904B1
:10B1800000F0FEFF01D200242AE0A54900F0F8FFFC
:10B1900001D2102424E0A34900F0F2FF01D22024C0
:10B1A0001EE0A14900F0ECFF01D2302418E09F49D5
:10B1B00000F0E6FF01D2402412E09D4900F0E0FFDC
:10B1C00001D250240CE09B4900F0DAFF01D2602448
:10B1D00006E0994900F0D4FF01D2702400E08024F9
:10B1E0000122112100A8401C00F0F5FE00282FD1FB
:10B1F000684640780007000F044368464470012207
:10B200001121401C00F026FF002821D10198407830
:10B2100000F09AFF02900024684645700298874922
:10B2200000F0AEFF15D20122112100A8401C00F051
:10B23000D2FE00280CD168464078022101436846BE
:10B24000417001221121401C00F004FF00283DD074
:10B2500062E10122112100A8401C00F0BCFE002880
:10B26000F6D168464078FD210140684641700122D0
:10B270001121401C00F0EEFE0028E9D10298C149DE
:10B2800000F07EFF0CD3C04900F07AFF01D2042405
:10B2900006E0BE4900F074FF01D2082400E00C244F
:10B2A0000122112100A8401C00F095FE0028CFD1FA
:10B2B00068464078F32101400C43684644700122FF
:10B2C0001121401C00F0C6FE0028C1D10198007970
:10B2D0000199C9786A46557000245580019A927880
:10B2E000002A00D00824002902D010216A46D1701B
:10B2F000002802D02020694688700122192100A868
:10B30000401C00F068FE0028A2D168464078F72172
:10B3100001400C43EF2020406946C9780143DF20FB
:10B320000840694689780143684641700122192125
:10B33000401C00F08FFE00288AD10198407900F06F
:10B3400003FF69464D708021090400F019FF01D206
:10B35000002438E0324900F013FF01D2102432E01B
:10B36000304900F00DFF01D220242CE02E4900F0DE
:10B3700007FF01D2302426E02C4900F001FF01D262
:10B38000402420E02A4900F0FBFE01D250241AE0BC
:10B39000284900F0F5FE01D2602414E0264900F0AF
:10B3A000EFFE01D270240EE0794900F0E9FE03D2ED
:10B3B000802408E000127A00764900F0E1FE01D214
:10B3C000902400E0A0240122102100A8401C00F0DD
:10B3D00002FE00283CD1684640780007000F044375
:10B3E0006846447001221021401C00F033FE002802
:10B3F0002ED10198807900F0A7FE002469464D7097
:10B40000BA4900F0BDFE1CD3B94900F0B9FE01D223
:10B41000082416E0B74900F0B3FE11D20C2410E066
:10B42000010050410100D041010050420100D042D2
:10B43000010050430100D043014050440100FA4252
:10B4400004240122102100A8401C00F0C4FD0028A3
:10B4500062D168464078F32101400C43684644704D
:10B4600001221021401C00F0F5FD002854D1019864
:10B47000407A0199097A6A46557000260024019A9B
:10B48000D279002A00D00826002900D010240028F4
:10B4900000D020250122182100A8401C00F09BFDAF
:10B4A000002839D168464078F72101400E43EF204B
:10B4B00030400443DF2020400543684645700122A8
:10B4C0001821401C00F0C6FD002825D101220D21C5
:10B4D000684600F080FD00281ED1684600780321F0
:10B4E00001436846017001220D2100F0B3FD0028E0
:10B4F00012D101221A21684600F06DFD00280BD1FF
:10B5000068460078802101436846017001221A21B3
:10B5100000F0A0FD002801D0012031E00121012030
:10B5200000F042FE1CA003C804AA03C200F0AAFE59
:10B53000C84C80002058049004A800F0A9FE00BF69
:10B5400017A00068039003A800F048FF06A80C218C
:10B5500000F08AFF00F096FE80002058069006A8B2
:10B5600000F0F9FE00F08EFE8000205800F01EFF73
:10B5700000F088FE01218000205800F00DFF00201F
:10B580000AB070BD010075430100FA4301007A441E
:10B590000180CF4401205045000000000000000061
:10B5A0000003010080B5002801D1012002BD012265
:10B5B0000F2100F010FD02BD38B505000222002168
:10B5C000684600F059FF02222821684600F003FD7A
:10B5D000002818D16C466078000221784018288035
:10B5E00002222A21684600F0F6FC00280BD1607880
:10B5F000000221784018688002222C21684600F061
:10B60000EAFC002801D0012032BD9EE0FEB5050015
:10B6100000240222002100A8801C00F02DFF02223D
:10B62000282100A8801C00F0D6FC002824D100AE00
:10B63000B61C707800023178471802222A2100A82F
:10B64000801C00F0C8FC002816D170780002317808
:10B6500040186946888002222C2100A8801C00F036
:10B66000BAFC002808D169460870012210216846FA
:10B6700000F0B1FC002801D00120FEBD6846007832
:10B680000C2101400CD0042904D0082906D00C2933
:10B6900002D006E0904C04E0904C02E0904C00E0B8
:10B6A000904C38B200F060FD0100200000F0EEFE8A
:10B6B00000F044FF2860019800B200F055FD010041
:10B6C000200000F0E3FE00F039FF686070780002AF
:10B6D0003178401800B200F047FD0100200000F072
:10B6E000D5FE00F02BFFA8600020FEBD0100004049
:10B6F000010080400100004138B505000222002110
:10B70000684600F0B9FE02222221684600F063FC80
:10B71000002818D16C4660780002217840182880F3
:10B7200002222421684600F056FC00280BD16078E4
:10B73000000221784018688002222621684600F025
:10B740004AFC002801D0012032BD60780002217837
:10B750004018A880002032BDF8B50600002402225F
:10B760000021684600F088FE02222221684600F08F
:10B7700032FC00286BD16D466878000229784718A2
:10B7800002222421684600F026FC00285FD1687858
:10B79000000229784018694648800222262168461E
:10B7A00000F019FC002852D1687800022978451869
:10B7B00069460C7001221121684600F00CFC00283B
:10B7C00045D16846007802210840694608706846FD
:10B7D0000078022801D1814C18E00122112168462D
:10B7E00000F0F9FB002832D1684600780C210140B6
:10B7F0000BD0042907D0082903D00C2906D1784C96
:10B8000004E0784C02E0784C00E0A04C38B200F044
:10B81000ABFC0100200000F039FE00F08FFE30602C
:10B820000098001400F0A0FC0100200000F02EFEA3
:10B8300000F084FE706028B200F096FC0100200049
:10B8400000F024FE00F07AFEB0600020F2BD01207E
:10B85000F2BD00001CEA05101CB50400002069467A
:10B86000087001221021684600F0B5FB002801D0C5
:10B87000012016BD68460078F021014014D010293F
:10B8800014D0202914D0302914D0402914D05029A4
:10B8900014D0602914D0702914D0802914D0902994
:10B8A00014D0A02914D015E0002012E0784810E050
:10B8B00078480EE078480CE078480AE0944808E0C0
:10B8C000944806E0944804E0944802E0944800E07C
:10B8D00094482060002016BD23DBF93E23DB793E2F
:10B8E00023DBF93D23DB793D1CB5002469460C7050
:10B8F0008021090400F044FC36D38B4900F040FC61
:10B9000001D2102430E0894900F03AFC01D2202411
:10B910002AE0874900F034FC01D2302424E0854934
:10B9200000F02EFC01D240241EE0834900F028FCE8
:10B9300001D2502418E0814900F022FC01D2602499
:10B9400012E07F4900F01CFC01D270240CE07D491C
:10B9500000F016FC01D2802406E0A04900F010FCA3
:10B9600001D2902400E0A02401221021684600F0BA
:10B9700032FB00280CD1684600780007000F044312
:10B98000684604700122102100F064FB002800D0FA
:10B99000012016BD1CB50400002069460870012274
:10B9A0001021684600F017FB002801D0012016BDC9
:10B9B000684600780C21014006D004290AD00829E5
:10B9C00004D00C2904D007E0854804E0854802E053
:10B9D000854800E0A1482060002016BD00008C4092
:10B9E00000008C4200000C4200008C411CB5040099
:10B9F00000206946087001221021684600F0EBFA29
:10BA0000002801D0012016BD684600780C210140B5
:10BA100006D004290AD0082904D00C2904D008E053
:10BA2000802004E0812002E0822000E08320C00525
:10BA30002060002016BD1CB5002469460C708849A2
:10BA400000F09EFB0CD3874900F09AFB01D208243A
:10BA500006E0A14900F094FB01D20C2400E004248C
:10BA600001221021684600F0B6FA00280CD1684681
:10BA70000078F32101400C43684604700122102134
:10BA800000F0E8FA002800D0012016BD00000C41AB
:10BA9000000050410000D041000050420000D04260
:10BAA0001CB5040000206946087001221121684677
:10BAB00000F091FA002801D0012016BD68460078F8
:10BAC000F021014010D0102910D0202910D03029A9
:10BAD00010D0402910D0502910D0602910D07029E2
:10BAE00010D0802910D011E000200EE07B480CE03F
:10BAF0007B480AE07B4808E07B4806E0044804E015
:10BB0000044802E0044800E004482060002016BD1C
:10BB1000000050430000D043004050440080CF4418
:10BB2000002050450020D045010050410100D04187
:10BB3000010050420100D042010050430100D043B7
:10BB4000014050440180CF441CB5002469460C706C
:10BB50008021090400F014FB2AD3914900F010FB66
:10BB600001D2102424E08F4900F00AFB01D22024E6
:10BB70001EE08D4900F004FB01D2302418E08B490F
:10BB800000F0FEFA01D2402412E0894900F0F8FAF0
:10BB900001D250240CE0874900F0F2FA01D260246F
:10BBA00006E0854900F0ECFA01D2702400E0802420
:10BBB00001221121684600F00EFA00280CD16846D7
:10BBC00000780007000F0443684604700122112129
:10BBD00000F040FA002800D0012016BD0120504599
:10BBE00023DB793D23DBF93D23DB793E1CB50400E3
:10BBF00000206946087001221121684600F0EBF927
:10BC0000002812D168460078022108406946087071
:10BC100068460078022801D168481BE00122112102
:10BC2000684600F0D8F9002801D0012016BD68460A
:10BC300000780C21014006D0042906D0082906D03E
:10BC40000C2906D007E05E4804E05E4802E05E484A
:10BC500000E05E482060002016BD000023DBF93EB6
:10BC600001000040010080401CB50400002069462E
:10BC7000087001221121684600F0ADF9002812D1A8
:10BC800068460078022108406946087068460078D6
:10BC9000022801D14E481BE001221121684600F024
:10BCA0009AF9002801D0012016BD684600780C21C1
:10BCB000014006D0042906D0082906D00C2906D058
:10BCC00007E0444804E0444802E0444800E04448B7
:10BCD0002060002016BD000001000041000050411E
:10BCE0000000D041000050420000D04238B50500AD
:10BCF00000246846047028003A4900F041FA14D242
:10BD000001221121684600F066F9002846D16846F4
:10BD1000007802210143684601700122112100F0E0
:10BD200099F900283AD1002032BD0122112168463C
:10BD300000F051F9002831D168460078FD2101401A
:10BD4000684601700122112100F084F9002825D1F4
:10BD50002800254900F014FA0CD3244900F010FA09
:10BD600001D2042406E0224900F00AFA01D2082494
:10BD700000E00C2401221121684600F02CF9002873
:10BD80000CD168460078F32101400C4368460470EA
:10BD90000122112100F05EF90028C4D0012032BD3B
:10BDA000010050410100D041010050420100D04249
:10BDB000010050430100D0430140504400008C403A
:10BDC00000000C4100008C4100000C4200008C423D
:10BDD0000000FA42000075430000FA4300007A4474
:10BDE0000000FA440100FA42010075430100FA43E1
:10BDF00001007A441CB50024684604700122102119
:10BE000000F0E9F8002841D168460078632101403C
:10BE1000602008436946087001221021684600F03E
:10BE200019F9002832D101225C21684600F0D3F8CC
:10BE300000282BD16846047001225C2100F00AF929
:10BE4000002823D101225D21684600F0C4F80028B3
:10BE50001CD133206946087001225D21684600F03C
:10BE6000F9F8002812D101225E21684600F0B3F8EB
:10BE700000280BD168460078102101436846017004
:10BE800001225E2100F0E6F8002800D0012016BD56
:10BE90001CB500246846047001225E2100F09BF866
:10BEA00000281AD168460078EF21014068460170E9
:10BEB00001225E2100F0CEF800280ED101225D2182
:10BEC000684600F088F8002807D16846047001220F
:10BED0005D2100F0BFF8002800D0012016BD1CB580
:10BEE000040000206946087001221B21684600F00A
:10BEF00072F8002801D0012016BD68460078202184
:10BF0000084000D001202070002016BDF8B584B094
:10BF100007000121112000F047F9684600F002FAFD
:10BF200000F0B0F95C4980000858009000F0AAF9D0
:10BF30006C465A498000085820710120A0710025E4
:10BF40006571684600F0A4F900F09CF9544980003E
:10BF50000858009000F096F9524980000858207166
:10BF6000684600F095F900F08DF94F4980000858B7
:10BF7000009000F087F94D4980000858207168460C
:10BF800000F086F900F07EF9494E800030580090AC
:10BF900006202071684600F07BF900F073F98000FC
:10BFA000305800F0C5F902A800F02AFB02A805707D
:10BFB000072141704580039700F0FBFAFF2000F055
:10BFC00068FB00F04EFB00F044FB012000F022FB78
:10BFD000002005B0F0BDF8B504000E0017000020E9
:10BFE00000F04FFB00F04EF9314D8000285800F072
:10BFF000A2F9012000F024FB0028FAD08020304371
:10C0000000F014FB042000F01BFB0028FAD000F025
:10C0100010FB002611E0012000F012FB0028FAD0EE
:10C02000FF2000F003FB042000F00AFB0028FAD0F8
:10C0300000F0FFFAF1B26054761CF0B2B842EAD3D5
:10C04000102000F0FDFA0128FAD000F01BF9800062
:10C05000285835E0F8B507000D001600012000F063
:10C0600010FB00F00FF9134C8000205800F063F92A
:10C07000280000F0DBFA3500002603E0385C00F011
:10C08000D5FA761CF0B2A842F8D3102000F0D8FA06
:10C090000128FAD010E0000004EA051008EA0510B3
:10C0A0000CEA051010EA051014EA051018EA05104C
:10C0B00000EA051000EA051000F0E4F880002058BE
:10C0C00000F036F90020F2BD0000F1B4016842181A
:10C0D00041684808131800988068C9071ED549466A
:10C0E00040181BE01778521C0770401C761EF9D1CF
:10C0F000002C13D01678521C89080D40032D01D155
:10C100001578521C290271184D424119A41C05D002
:10C110000D78491C0570401C641EF9D19A420FD05D
:10C120001178521C032503260E4002D11678F61C06
:10C13000521C0C090F2CD9D114780F34521CD5E79E
:10C1400000980C30F2BC70479D2102000AD002D446
:10C15000491E9218FCD5C905100A1206524100D397
:10C16000012A4841704700009D210200EED552424D
:10C17000F446FFF7EBFF0122D207104360477047F8
:10C180000CB4012212060318DA4207D84B18DA421F
:10C1900004D802000A43921802D288420CBC7047AD
:10C1A000FCD08142FAE77047304A0129116802D178
:10C1B0000843106070478143116070472C48027833
:10C1C0002C4801880020002A44D109220A40092A6B
:10C1D00000D1202011220A40112A02D10200402061
:10C1E000104321220A40212A02D10200802010435C
:10C1F00041220A40412A03D102008020400010431E
:10C2000081220A40812A03D102008020800010434D
:10C21000FF22921C13000B40934203D102008020A6
:10C22000C0001043144A13000B40934203D1020094
:10C2300080200001104305220A40052A02D1020095
:10C24000102010438907890F03290ED1010008200F
:10C2500008437047022A01D101207047042A01D106
:10C2600002207047082A00D1042070472000904027
:10C270000800904008001048010400000120034914
:10C2800008707047014800787047000008060020D9
:10C29000F0B5047922000021494B002C04D11C6820
:10C2A0000568AC431C6006E0062C04D100221C6823
:10C2B000056825431D600568CD40ED071AD508299E
:10C2C00009DA8D009E6A0F27AF40BE431700AF40CA
:10C2D00037439F620EE00D00083D082D0AD20D0085
:10C2E000083DAD00DE6A0F27AF40BE431700AF40E8
:10C2F0003743DF62491C1A29DDDB01684279012AD4
:10C300009A6802D11143996001E08A439A600168FA
:10C3100080790128586802D101435960F0BD8843F3
:10C320005860F0BD00210160017181714171704759
:10C33000244908607047244908607047214A012950
:10C3400001D110607047506070478021C9050A68AC
:10C3500050400860704702681C494368012B0B6815
:10C3600002D11A430A6001E093430B6082680368BC
:10C37000012A03D18A6813438B6004E0002A07D1A5
:10C380008A689A438A604A68006882434A607047B4
:10C39000486803434B6070470D4A0029116802D07A
:10C3A0000843106070478143116070470949086075
:10C3B000704709490968084000D00120C0B27047A1
:10C3C000040000403C0000404000004010000040DD
:10C3D0001C0000402800004024000040F0B5027816
:10C3E0001F2301248178002921D0417852B2D50041
:10C3F00018262E40FF27B740FD438907090EB1409C
:10C40000160004D5134A3607360F083E00E0124ADC
:10C41000B608B600921916683540294311600078B5
:10C4200003409C400D49400980000C50F0BD134072
:10C430009C400B48510989004450F0BD094900282F
:10C44000086803D0042202430A6070470422904324
:10C45000086070471CED00E000E400E000E100E04F
:10C4600080E100E010ED00E0002200BF094202D0B0
:10C47000491E4254FCD1704710B504000800110059
:10C4800002002000FFF7F2FF200010BD30B40500CD
:10C490004D400122D20715404B180418240E2ED00F
:10C4A0001B0E32D0FF2C34D0FF2B3AD0E418000200
:10C4B000090210431143000A090A9446C2B24A43D2
:10C4C000000AC3B24B43000A4843110A5B181A43DF
:10C4D000D2B2190A091801D44918641E080A7F3C0F
:10C4E00023DBFE2C08DAE405090611436346994173
:10C4F0006041284330BC7047FF20C005F9E72800A1
:10C500001B0EFF2BF6D1D043F4E72800FF2CF1D10E
:10C51000F9E74002F7D1FF2B01D14902F3D1E00541
:10C52000E7E7D8054902E4D0EDE743020020641CA8
:10C53000DFD15B129B1CDCD9D805DAE70122D207D8
:10C540000118090E7F3910D449421F310FD4001849
:10C5500005D2C0011043C84000D5D0437047C00188
:10C560001043C84005D44042704700207047004245
:10C57000F3D510007047704730B501000125022443
:10C580004548490000F09EF8002808D043498842F9
:10C5900005D201E064004008FF28FBD8451E404852
:10C5A000047401683F4A0A402D06290C11430160BA
:10C5B00030BD10B504006068FFF7DEFF2178384811
:10C5C000426804239A438900194011434160A178CD
:10C5D000026840239A438901194011430160E178C0
:10C5E000026880239A43C9011940114301606178B0
:10C5F00002681F239A43C906C90E1143016010BD8A
:10C60000012101700721417000218170C17026490C
:10C610004160704725490028086803D00222024380
:10C620000A60704702229043086070472049086002
:10C6300070471F480068704702401A430A607047FD
:10C6400001001C48FFE700780140080000D00120ED
:10C650007047174800E0016801798908C907FAD4D2
:10C6600070471548017802220A43027000E0C16851
:10C6700010490978C907FAD50178FD220A400270ED
:10C68000704707490A680D4B1340C005C022520489
:10C69000D2E70B49086070470024F40001FE000057
:10C6A00000004040FF00FFFF40420F0004004040F8
:10C6B000080040400C00404080004040FFFF7FFEEB
:10C6C0002C004040094214D088420FD30122030CB1
:10C6D00001D100041204002300185B418B4200D3F7
:10C6E0005B1A5241F8D31900100070470100002076
:10C6F000704708B500F002F808BD704770477047F2
:10C70000F1B5FFB091B00C001500EFF31080189058
:10C7100072B60020A8490870FAF7ECFA060090A853
:10C72000007800F009FC6946087090A8007800F0D5
:10C7300045FC90A90978884200D908006946097823
:10C74000814200D901008E4200D90E006846067071
:10C750009A486946097889004018816E491C8166AB
:10C760006846007800280AD068460078012807D17A
:10C770009348007A0021924A117230BF1072A9E3E7
:10C7800068464470E148057068464078DF490871A2
:10C7900001A800F02DFCDD48007A1D908948008832
:10C7A00067908948006866900025002088AB874F15
:10C7B00081007A585A50401C0828F9DB8448C06927
:10C7C00065908448806964908020C005006863900B
:10C7D0008020C005406862908020C005806861901C
:10C7E0008020C005C06860908020C00500695F900F
:10C7F0008020C00540695E908020C00580695D9002
:10C800008020C005C0691C908020C005C06A5C9073
:10C810008020C005006B5B908020C005406C5A9062
:10C820006D48006859906C48007C58906A48008BAD
:10C8300057906948007F569068480078559067483F
:10C84000406854906548007A5390644880895290BB
:10C850006248007F519062480078509060480079AB
:10C860004F905F48007A4E905D48007B4D905C4849
:10C87000007C4C90C44800684B90C34840684A9084
:10C88000C148007C4990C048007D4890BF4800786E
:10C890004790BE4880884690BC4880684590BB4819
:10C8A000808944900022BA4C1005011990000B6851
:10C8B00016AE33504B6814AE33508B8B12AE3350E0
:10C8C0000B8C10AE33508B8C0EAE33500B8D0CAEE8
:10C8D0003350CB6A0AAE33504C23CB5A08AE335098
:10C8E0004C314B6806AE3350C96804AB1950521C2A
:10C8F000012AD9DDB020000600684390A5480068F1
:10C900004290A44840684190A24880894090A14844
:10C91000008A3F909F4840693E909E48007E3D902F
:10C920009C48808D3C909B48006B3B909948406BA5
:10C930003A909848806B39909648C06B38909548EB
:10C94000006C37909348406C36909348008835903F
:10C950009148808834909048007B33908E48007CCA
:10C9600032908D48808A31908B48007E30908B4881
:10C9700000882F90894880882E908848007B2D90D1
:10C980008648007C2C908548808A2B908348007EC6
:10C990002A90834800682990814840682890084878
:10C9A000006827900648007A26907E480068002894
:10C9B00018D17D481B9016E00C00002010050020C7
:10C9C000000070400400104000E100E000E400E0DE
:10C9D00004ED00E0080090400C0030402C00304096
:10C9E000500030401B95002270481A90142050438C
:10C9F0001A9940189100436878AE7350036880AE6E
:10CA00007350836870AE7350C06868AB5850521C46
:10CA1000082AE9DB8120C005406825908120C005F7
:10CA2000007B24908120C005408B23908120C0058D
:10CA3000008B22908120C005406A21908120C00592
:10CA4000806A20908120C00500881F9058480068A7
:10CA50001E9068460078032806D156480068C02119
:10CA60008905014353480160002153480068643838
:10CA70001990CB4A50661046426E13688E0083515F
:10CA8000491C121D42661929F6DB204800791F490E
:10CA900009788026F6053268520A514088436AD1E7
:10CAA00001A84078000101A989780143112904DD1A
:10CAB00042480560002000F03CFB3E4800684049C9
:10CAC00008600120FFF7BAFC00F04AFC0020FFF7E5
:10CAD000B5FC3C480078002800D081E03A48006866
:10CAE000400632D439480268374B19685140C6486D
:10CAF000374C2468056AAC421CD11B689A4203D0AB
:10CB0000C24A12680A4015D1324901E000002040B3
:10CB10000968B20813000B4004682240934209D10F
:10CB2000320911400068024091420ED01C48006852
:10CB300080070AD51F49C8680209D01CB30A984269
:10CB40001AD2CA6812098242FBD301A841780901AE
:10CB500080780843112805DD012000F0EAFA1E481C
:10CB60001649086068460078032804D11148016816
:10CB70001A4A0A400260ADE1C8680009D94BD318CF
:10CB80009842F9D1E1E700BF000040402400404056
:10CB90000000A0400400F0400400D0400400E04049
:10CBA00010E000E0000C704051E5CC1A080000A035
:10CBB000080000C00400004800B005101400002068
:10CBC000180000200C00002000E200E00406002015
:10CBD00000060020FC050020CCBCECFCFFFFFFCFD2
:10CBE0000120C14908828D808D6000226C4919980E
:10CBF0004866486E9300CB580360521C001D48667F
:10CC0000192AF6DB6798B949088066987F49086059
:10CC10000020810088AA52587A50401C0828F8DB6E
:10CC200065987949C8616498B149886163983060B2
:10CC3000629870606198B0606098F0605D98B061D3
:10CC40005E9870615F9830611C98B0621C98F061CA
:10CC50005C98F0625B9830635A987064A548599963
:10CC600001605899017457990183569901772030D2
:10CC7000559901705499416053990172529981817B
:10CC8000519901772430509901704F9901714E9953
:10CC900001724D9901734C99017497484B99016049
:10CCA0004A9941604999017448990175243047991E
:10CCB0000170469981804599816044998181002263
:10CCC00010050119900016AB1B580B6014AB1B58D4
:10CCD0004B6012AB1B588B8310AB1B580B840EABF5
:10CCE0001B588B840CAB1B580B850AAB1B58CB62B3
:10CCF0004C3108AB1B580B8006AB1B584B6004AB88
:10CD00001858C860521C012ADADD4398B021090680
:10CD100008607A48289941608560299901607848BF
:10CD20004299016041994160409981813F99018216
:10CD30003E9941613D9901763B9901633A9941637E
:10CD4000399981633899C16337990164369941648F
:10CD50003C9981856B48359901803499818033995C
:10CD60000173329901746849319A0A408282309A7B
:10CD7000027666482F9A02802E9A82802D9A02733C
:10CD80002C9A02742B9A114081822A99017660486C
:10CD900027990160269901721B985E4902E000BF45
:10CDA000100500200860142068431A994018A90053
:10CDB00078AA5258426080AA5258026070AA52580B
:10CDC000826068AA5158C1606D1C082DEBDB812080
:10CDD000C0052599416024990173239941832299C3
:10CDE000018321994162209981621F9901801E98D7
:10CDF000494908603E480078002834D168464078A8
:10CE0000002830D0384803E004ED00E000E100E005
:10CE1000018809220A40092A02D1F16989051FD433
:10CE2000018811220A40112A02D1F169490517D45B
:10CE3000018821220A40212A02D1F16909050FD473
:10CE4000018841220A40412A02D1F169C90407D46C
:10CE5000008881210140812905D1F069800402D533
:10CE600001202E4908602E4D68460078032803D122
:10CE700028682C49014029601D982B490872684692
:10CE80000078032801D1012100E00021002000F0FA
:10CE900069F91D98C0071DD5FFF790F9694608800C
:10CEA00068460088400512D42048008800070ED547
:10CEB000E8681F490968081A0002001200D54042BC
:10CEC000212804DAE8682D30EA689042FCD2152067
:10CED00018490870189880F3108800207FB012B0AD
:10CEE000F0BD00BF0400F0FF08001048040010402F
:10CEF000080090400C0030400000404010E000E08E
:10CF00000400F0400400D040BFFF00000400E040F7
:10CF100000007040000C7040080000C000E200E01B
:10CF200004000048FFFFFFCF00002040C0000020A9
:10CF3000180000200000C0400320704780B500F0BA
:10CF400093F9FFF79BF9E120400200F057FA2448DB
:10CF500000F0B4FA002800D0FEE700F0C1FB022088
:10CF600000F0BEFB002000F0D4FB022000F0D8FB54
:10CF700000F01CFC002803D0022000F0CAFBFEE7F2
:10CF8000FAF78CFC00F09AFC002200210320FFF746
:10CF9000B7FBF5E7BFF34F8F124813490860BFF3A3
:10CFA0004F8FFEE7042800DB704780B5132113780C
:10CFB000507800021843FDF76CFC01BD80B50B48AA
:10CFC0000078002807D100F05FFA002803D100F0B4
:10CFD00060FA002801D0002002BD032002BD00003D
:10CFE000B8E805100400FA050CED00E0FE0400208E
:10CFF0000F21114A13681B090B4043701368194035
:10D000008170D268426001210C4B9A4208D10C4ACF
:10D0100012680C4B9A4201D1042202E0022200E085
:10D02000012202704278002A00D141700649098825
:10D03000491C8900816070471C00904041A000029B
:10D040001C00001044A000F21400104010B5C200F3
:10D0500018231340FF249C40E2438907090E99409E
:10D06000030004D57E481B071B0F083B00E07D48EA
:10D070009B089B00C01803681A401143016010BD53
:10D080001CB50020A44908600324FFF797F86946FF
:10D09000088068460088002801D1641EF5D16846E2
:10D0A0000088202801DB002016BD012016BD10B528
:10D0B000002200219A4804E00B00415C5918491CE9
:10D0C000C9B2435C002BF7D1CB1C202B12DA022310
:10D0D00043542123441863700823A3704318DA7063
:10D0E000904A80235B02401880B218431060106899
:10D0F0001840FCD110BD70B500210023884A04E01F
:10D100001C00D35CE3185B1CDBB2D45C002CF7D1B1
:10D1100002253524DE1C202E05DAD554D61874706D
:10D12000B070D218D170804A157054709070D17060
:10D1300070BD70B5802149027B4B9CB20C43794A8B
:10D14000002804D01460106808400AD0FBE79878E3
:10D150009D78FB262E409E70146014680C40FCD114
:10D16000987070BDF8B58AB005000C0003A800BF28
:10D1700074A11C2200F002FC6846FFF739FF694EDB
:10D18000002D54D003A8402181734C21C17220216D
:10D190000172B22141745B21017564498B6B644A51
:10D1A0001D0C954209D1C57D8F272F40C775C57DC0
:10D1B0001B0170271F402F43C7754B6B1D0C9542F9
:10D1C00009D14579CF272F40477145791B01302779
:10D1D0001F402F43477109680B0C934208D1C27D51
:10D1E000FC231340C375C27D8907890F1143C175A4
:10D1F000C17AFB220A40C27269464A7812018D78D0
:10D200001543112D06DDC17D04220A43C275C07D80
:10D21000FFF771FF8020400203A989B2014331600A
:10D2200031680140FCD1112D01DDFFF740FF3B4883
:10D2300081890029FBD001218181172101800021F2
:10D240004160002C07D07068102172680A401023DA
:10D2500003409A42F9D037482F4908600BB0F0BD1F
:10D260001CED00E000E400E080B5082032490880B1
:10D2700003210120C043FFF7E9FE03210020C04342
:10D28000FFF7E4FE03210020FFF7E0FE0321012069
:10D29000FFF7DCFE03210420FFF7D8FE0321052061
:10D2A000FFF7D4FE00210620FFF7D0FE0321072060
:10D2B000FFF7CCFE03210D20FFF7C8FE03210E204F
:10D2C000FFF7C4FE03210F20FFF7C0FE032111204A
:10D2D000FFF7BCFE03211220FFF7B8FE0321132045
:10D2E000FFF7B4FE03211420FFF7B0FE0321152041
:10D2F000FFF7ACFE03211620FFF7A8FE032117203D
:10D30000FFF7A4FE01210120FFF72CFF0B480C4979
:10D31000086062B601BD0000140000200C00104837
:10D32000C40500200C0000481C000020B0070010BD
:10D3300055AA0000CCBCECFC0400104066000E00B6
:10D3400020009040023F00023E30023C20023B4C55
:10D35000023A400239B202345B02350B0000000091
:10D36000EFF31482EFF30981002080F31488BFF3F8
:10D370006F8FF0B543464C4655465E466746F8B457
:10D38000164CEFF30883236006B4154C2068154C47
:10D390002060154C2068154C2060154C2068154CF9
:10D3A0002060154C276800202060BFF34F8F30BFEE
:10D3B00027600A4C246884F3088882B003BCF8BC58
:10D3C0009846A146AA46B346BC46F0BC04BC80F3CE
:10D3D000098881F31488BFF36F8F1047080000207D
:10D3E00004ED00E0FC05002024ED00E00006002034
:10D3F00000E200E0040600200800204078B585B077
:10D40000040001210920FEF7CFFEFEF73BFF25496E
:10D4100080000818001F00680090FEF733FF6D467B
:10D42000214980000818001F006828710026AE718D
:10D430006E716846FEF72CFFFEF724FF1B49800043
:10D440000818001F00680090FEF71CFF18498000B4
:10D450000818001F006828716846FEF719FF02943B
:10D46000032002A908714871CE804E720872012013
:10D47000887202A800F0B6FA002000F05AFB0120E2
:10D4800000F0A4FA06B070BD80B5802000F043FB28
:10D4900010E080B5082000F03EFB012800D00020FD
:10D4A00002BD0000E4E90510E8E90510ECE905100B
:10D4B000F0E90510401E8041C00F02BD80B53D4916
:10D4C0003D4A0A603D4A4A603D4A8A603D4ACA6018
:10D4D0003D4A0A613D4A4A613D4A8A613D4ACA6104
:10D4E0003D4A0A623D4A4A623D4A8A623D4ACA62F0
:10D4F0003D4A0A633D4A4A633D4A8A633D4ACA63DC
:10D500003D4A0A643D4A4A643D4A8A643D4ACA64C7
:10D510003D4A0A653D4A4A653D4A8A653D4ACA65B3
:10D520003D4A0A663D4A4A663D4A8A663D4ACA669F
:10D530003D4A0A673D4A4A673D4A8A673D4ACA678B
:10D540003D4A8023CA5084313C4A0A603C4A4A60C2
:10D550003C4A8A603C4ACA603C4A0A613C4A4A6189
:10D560003C4A8A613C4ACA613C4A0A623C4A4A6275
:10D570003C4A8A623C4ACA623C4A0A633C4A4A6361
:10D580003C4A8A633C4ACA633C4A0A643C4A4A644D
:10D590003C4A8A643C4ACA643C4A0A653C4A4A6539
:10D5A0003C4A8A653C4ACA653C4A0A66FBF746FC27
:10D5B00002BD00BFCC0200201FD905107FC105109D
:10D5C000A7C1051095CF051077C50510FBC605103E
:10D5D000FFC6051063D905103BD70510A5CF051070
:10D5E000CBD905100BE805106BE80510ABE9051069
:10D5F000B7E9051025EA051027EA051029EA051004
:10D600002BEA05102DEA05102FEA051031EA051066
:10D6100033EA051035EA051061D9051037EA05101F
:10D6200039EA05103BEA05103DEA05103FEA05100E
:10D6300041EA051043EA051045EA051047EA0510DE
:10D6400049EA05104BEA05104DEA05104FEA0510AE
:10D6500051EA051053EA051055EA051057EA05107E
:10D6600035D9051059EA05105BEA05105DEA051089
:10D670005FEA051015D9051061EA051063EA051087
:10D6800065EA051067EA051069EA05106BEA0510FE
:10D690006DEA05106FEA051071EA05103FD9051013
:10D6A00038B50E4D2C000C3C002811D0022807D0B4
:10D6B0000ED2FEF7E7FD0C2148432818083805E094
:10D6C000FEF7E0FD0C2148432818001F006832BD1A
:10D6D000FEF7D8FD0C214843205832BDCCE9051097
:10D6E0001CB5040001210120FEF75EFD2000FFF7BC
:10D6F000D7FF0090684606210171012181714171B7
:10D70000FEF7C6FD2000FFF7CBFF0021FEF716FE57
:10D7100013BD80B5FFF7C4FF0121FEF70FFE01BD69
:10D7200080B5FFF7BDFF0021FEF708FE01BD80B503
:10D73000FFF7B6FFFEF709FE01BD70471FB50022D7
:10D7400068460270804C814921608148606001A870
:10D750007D2343700D230370428002710222827187
:10D7600043710122C2710272427209688847012224
:10D770000D216846FEF76EFC20000830216889689C
:10D7800088476068006880471FBDE0B56846102183
:10D790000170042101710822C2700122427142709D
:10D7A00081706C4909680968884707BD00B58BB06E
:10D7B00009A800BF6BA10CC90CC007A86BA10CC9BC
:10D7C0000CC009AA06210020FDF7C7F801004ED1C0
:10D7D00004210120FDF7BDF8FDF783F8010046D1D3
:10D7E00006A8019005A8009005AB9B1C072200210C
:10D7F0000120FBF721FF010039D107A80390072082
:10D800000290002001900720009000236846828A41
:10D81000C18A0020FCF78EFB010028D10020049073
:10D820004D480390002002901020019007200090A6
:10D830000023012201210120F9F7B8FE010016D1D1
:10D84000FFF77CFFFFF7A1FF00F0A3F901000ED165
:10D8500000F08AFA01000AD1C8210120FCF748FD36
:10D86000010601D0C0B202E000203C4948700BB074
:10D8700000BD000000B589B007A800BF3DA10CC9DC
:10D880000CC000210020FCF704FE0020069005904B
:10D890000490039007A802900820019000200090B7
:10D8A0000123F022D200C821C900FBF79BFB00280E
:10D8B00002D00220FFF72DFF09B000BD3EB50024C5
:10D8C000264D2878002802D0FFF7D4FF2C70687806
:10D8D000002818D06C70C8210120FCF709FD002831
:10D8E00001D001206870A86800280CD00020FFF744
:10D8F0001EFF684600F03AF9002802D1684600F0A1
:10D9000001FA00F039F9A878012802D1AC7000F0D2
:10D91000E7F937BD1148012282608180704780B5E8
:10D920000E48002181600122027081800020FFF7F3
:10D93000F0FE01BD80B5080000F03FFB01BD0128ED
:10D9400001D1064948707047E4050020AC0400206E
:10D95000EC0400200805002040E20100FC04002047
:10D9600070477047123400E180020000426C756518
:10D970004E52470009426C75654E524770B4103ADA
:10D9800003D378C9103A78C0FBD2530701D318C922
:10D9900018C001D508C908C0D20704D30B8803807A
:10D9A000891C801C002A01D50B78037070BC70475D
:10D9B0008B0701D18307E1D0124205D00B78491CB7
:10D9C0000370401C521EF9D1704770475E49002811
:10D9D000086803D0012202430A6070470122904385
:10D9E00008607047F0B5040021680125574E58487B
:10D9F0007269D2082A4001D1090100E0C900FEF78E
:10DA000061FEC10931810904490A401A401C4008DD
:10DA100081B23F2902DD3F388006800E30736020DE
:10DA20009F21327C0A4023795B0103401343337406
:10DA30003278114062795201104008433070082159
:10DA4000F720327C0240A379DB0008271F401743F0
:10DA5000377432781040A279D200114001433170FE
:10DA6000E179002907D1FD20317C01403174317802
:10DA7000084030701CE002200229317C0BD10143A8
:10DA80003174FB21327C0A4032743278104330709A
:10DA9000307801400BE0014331740421327C0423CF
:10DAA000134333743278104330703078014331704F
:10DAB000706928490140207A28404002084370617B
:10DAC000706925490140207A400828400002084337
:10DAD0007061706921490140607A284080030843E1
:10DAE000706170691E490140607A40080540E80392
:10DAF000084370611020EF21327C0A40A37A1B0199
:10DB000003401343337432781140A27A120110405B
:10DB100008433070F0BD01001248002901D50068AB
:10DB200000E0808AFFE70140080000D00120C0B279
:10DB300070470D490A78C7231340C0003822FFE719
:10DB400002401A430A707047300030401C003040D9
:10DB50000000127AFFFDFFFFFFFEFFFFFFBFFFFF88
:10DB6000FF7FFFFF040030403400304080B57A4929
:10DB700009688968884702BD80B5684677490968A1
:10DB80008968884768460078012801D1744908707F
:10DB900001BDF8B58AB01B2706AC2770C5206070A0
:10DBA000D520A070A520E0700226267100206071AB
:10DBB000B420A0719A20E071E120207211206072DF
:10DBC0003A20A072CF20E072802020736E20607314
:10DBD0003620A073E673634D102206A928000C308E
:10DBE00000F03CFA0095E1480378012229000C314D
:10DBF0000220FBF70DFC00286FD12770C520607054
:10DC0000D520A070A520E070267100206071FC2056
:10DC1000A0718F20E071E1202072112060724A20F3
:10DC2000A072CF20E072A0202073782060733E2085
:10DC3000A073E220E073102206A928001C3000F037
:10DC40000DFAA81C059000200490102003900020DD
:10DC5000029001901020009001232A001C32022122
:10DC60002888FBF7BCFA002837D12770C5206070E0
:10DC7000D520A070A520E0702671002060713620AC
:10DC8000A071AC20E071E1202072112060724B2065
:10DC9000A072CF20E0728020207367730A20A073E7
:10DCA0003420E073102206A928001C3000F0D6F9B9
:10DCB000281D05900020049010200390042002905D
:10DCC000002001901220009006232A001C3202211D
:10DCD0002888FBF784FA002800D047200BB0F0BD5D
:10DCE00000B585B0012069460874D54804A90391A0
:10DCF000012102910021019101210091012342881B
:10DD0000018851E180B586B004A9426853420B7086
:10DD1000426853421A124A7002688A7002681212EC
:10DD2000CA70826853420B71806842421012487177
:10DD30000C480391062102910021019106210091D6
:10DD4000012382880188BF480088FCF7F3F8002887
:10DD500000D0472007B000BDE4050020E805002002
:10DD6000FE04002088050020F8B590B00CAC1B2004
:10DD70002070C5206070D520A070A520E070022022
:10DD8000207100276771D020A0718220E071E2210C
:10DD90002172112161727726A672E421E17240217D
:10DDA00021731A216173A0734220E073A44D1022E5
:10DDB0000CA928000C3000F051F9A81D00906B4808
:10DDC0004378012229000C310220FBF721FB0028B7
:10DDD00062D11B202070C5206070D520A070A520C6
:10DDE000E070022020716771E320A071A920E0712A
:10DDF000E220207211206072A672E420E0722020DE
:10DE00002073552060732E20A073A320E07310228E
:10DE10000CA928001C3000F021F9280008300590DA
:10DE20000497102003900420029001970220009094
:10DE300002232A001C320221E888FBF7D0F90028CF
:10DE40002AD10AAE0E2030700020C04370707E4888
:10DE5000708037717771B7717C4869468884022277
:10DE600009A928002C3000F0F9F809A8801C0890B6
:10DE700007971020069005970120049003970AA8A1
:10DE800002900720019000902B002C330122298959
:10DE9000E888FAF703FF002864D11B202070C52012
:10DEA0006070D520A070A520E070022020716771FD
:10DEB0000B20A0718420E071E2202072112060729A
:10DEC0008B20A072E420E07280202073C420607355
:10DED0002020A073CD20E07310220CA928001C3054
:10DEE00000F0BCF828000A30059004971020039039
:10DEF0000420029001970220009003232A001C3284
:10DF00000221E888FBF76BF900282BD10F20307035
:10DF10000420C04370709E2080017080377177713B
:10DF2000B7714A4869468884022209A928002C3022
:10DF300000F094F809A8801C08900797102006901C
:10DF400005970120049003970AA8029007200190EA
:10DF500000902B002C3301226989E888FAF79EFE95
:10DF6000002800D0472011B0F0BD00000C050020B3
:10DF700001B584B0324804A9039102210291002125
:10DF8000019102210091012302890CE001B584B0C6
:10DF90002B4804A90391032102910021019103213F
:10DFA000009101234289C18826480088FBF7C2FFFF
:10DFB000002800D0472005B000BDF8B520498A8868
:10DFC000521C904208D101A8FFF7D0FD002829D1AA
:10DFD00001A8FFF797FE25E01D4A12680B895B1C1C
:10DFE00098420ED16846916A884700281AD1009954
:10DFF0001848FEF74BFAFEF7A1FA00B2FFF7B8FF98
:10E0000010E04989491C88420CD16846516A88470A
:10E01000002807D100991048FEF738FAFEF78EFA6B
:10E02000FFF7B4FF07480088002806D0FCF789FBFB
:10E03000002802D00220FFF76CFB05B000BD0000F5
:10E0400088050020000500202F270000042900007B
:10E0500008050020000020410000C84210B504005F
:10E06000FFF7A6FC200010BD78B585B00500FEF7CF
:10E0700009F9904C800020588F49884202D1012133
:10E080008E4801E001218E48FEF78EF8FEF7FAF87F
:10E090008C49800008580090FEF7F4F86E468A49D3
:10E0A0008000085830710020B07170716846FEF72A
:10E0B000EFF8FEF7E7F88549800008580090FEF772
:10E0C000E1F883498000085830716846FEF7E0F8AF
:10E0D00002A800F067F9012002A908710295FEF775
:10E0E000D1F802A98000205800F002F9F4E0FCB554
:10E0F00083B00600170000256846058041808580B2
:10E1000080214901C180890001816946097C491C3F
:10E110004181FEF7B7F8674C8000205800F05DF9A8
:10E12000FEF7B0F88000205800F05CF90128F7D025
:10E13000FEF7A8F869468000205800F03BF9FEF78A
:10E14000A1F839008000205800F043F937006846F4
:10E15000067C08E0FEF796F8E9B2795C800020586A
:10E1600000F037F96D1CE8B2B042F3D3FEF78AF83D
:10E170008000205800F048F9032812D0FEF782F8FA
:10E18000802109038000205800F034F90028EDD0E8
:10E19000FEF778F84F498000205800F033F900204E
:10E1A00000E0012005B0F0BDFFB583B000266C464D
:10E1B00026806846007C6080A68080204001E08048
:10E1C000268101276781FEF75DF83A4D80002858C7
:10E1D00000F003F9FEF756F88000285800F002F925
:10E1E0000128F7D0FEF74EF869468000285800F065
:10E1F000E1F8FEF747F86946097D8000285800F0ED
:10E20000E8F8FEF73FF88000285800F0FDF80328F2
:10E210003ED0FEF737F839078000285800F0EAF8BA
:10E220000028EED0FEF72EF839078000285800F0BD
:10E23000E9F827806846007C6080A6803803E0808B
:10E24000800020816846007E6081FEF71BF86946E9
:10E250008000285800F0AEF8039E6846047EFEF762
:10E2600011F88000285800F0CFF8032810D0FEF7EE
:10E2700009F8F9048000285800F0BCF80028EED016
:10E28000FEF700F813498000285800F0BBF809E0B9
:10E2900001200CE0FDF7F6FF8000285800F09BF805
:10E2A0003070761C2000441EC0B20028F2D107B0A6
:10E2B000F0BD0000F40400200000A04001040000B4
:10E2C00001020000F8E90510FCE90510F0E905106D
:10E2D000F4E9051000000810FDF7D4FF03498000A1
:10E2E000205800F08FF8002006B070BD7F809F732B
:10E2F00070B504000D00206801218843206020686B
:10E300004349014068794003C022D20102400A43D8
:10E31000226029683F48404A6B795B00D25A4A43E1
:10E32000801A3026F6433D4A914209D24900FEF751
:10E33000C9F921680E402660616889B2C0220EE0EA
:10E34000374A91420ED24A005118FEF7BBF92168B4
:10E350000E40102131432160616889B2802292020F
:10E360000A4362606168890A8902EA881143616030
:10E3700020852068062188432979490006220A4021
:10E3800002432260287A0128206803D10821014332
:10E39000216002E0082188432060206801210143B8
:10E3A000216070BD1F490160002101714171C18070
:10E3B000017270470B884A8852001A438B881A43AF
:10E3C000CB881A430B891A434989C9031143C16099
:10E3D000704701747047007E7047016880220A43CD
:10E3E0000260704700680106C90F01D00120704724
:10E3F00002207047006BFFE70140080000D00120B9
:10E40000C0B270478163704740690007800F704752
:10E41000FF9FFFFF0024F40070040020A18601008C
:10E42000811A06008813000038B5040000206946F0
:10E4300008707F48FFF718FE00286BD17D4D01233F
:10E440002022297800A8401CFFF7AEFE002861D1E9
:10E4500068464078802101436846417001232022AC
:10E460002978401CFFF743FE002853D101232022C6
:10E4700029786846FFF798FE00284BD16846007857
:10E480008F21014068460170084621780143F7203A
:10E4900008406946087068460078E1780143FB202F
:10E4A0000840694608706846007821790143FE20DB
:10E4B00008406946087068460078617901436846FB
:10E4C0000170012320222978FFF711FE002821D1B5
:10E4D0000123102229786846FFF766FE002819D12B
:10E4E00068460078FC210140684601700846617862
:10E4F0000143F32008406946087068460078A17817
:10E50000014368460170012310222978FFF7EFFDCF
:10E51000002800D0012032BD80B5002801D10120A3
:10E5200002BD01230F2243490978FFF73DFE02BDDA
:10E530001CB5404C0123212221786846FFF734FEA8
:10E5400000280CD16846007880210143684601709C
:10E55000012321222178FFF7CAFD002800D00120E5
:10E5600016BD38B5050000240323A82231480178E0
:10E570006846FFF719FE002801D0012032BD694628
:10E58000095DE200914001430800641C032CF6DBA6
:10E59000010203D50100FF2000060843FDF7E4FD5A
:10E5A000E6218905FDF772FF2860002032BD1CB509
:10E5B00004000223AB221F4801786846FFF7F4FDF0
:10E5C000002801D0012016BD684641780902007874
:10E5D000081800B2FDF7C8FD174900F031F81749D7
:10E5E00000F083F82060002016BD1CB5114C0123FB
:10E5F000202221786846FFF7D7FD00280DD1684614
:10E6000000784006400E69460870012320222178D8
:10E610006846FFF76CFD002800D0012016BD0028D9
:10E6200001D15C2000E05B200249087070470000C7
:10E63000102700000E0500200000F04300002A42D1
:10E6400030B405004D400122D20715404B18041884
:10E65000240E28D01B0E2FD0FF2C34D0FF2B37D008
:10E66000E41A000209021043114343084808D10D7F
:10E670001B1A02D2641EDB181B18DB18834200D35E
:10E680001B1A4941F9D37F3426DDFE2C08DAE40554
:10E690004808C907194391416041284330BC70477D
:10E6A000FF20C005F9E728001B0E03D0FF2BF5D192
:10E6B0004902F3D0D043F1E7FF2C01D14002F9D158
:10E6C000FF20C005E9E74002F4D1FF2BF8D1F1E7C4
:10E6D00028004902E2D0EDE70B0200202442DCD101
:10E6E0005B129B1CD9D9D805D7E70122D2070300BA
:10E6F0004B402ED4431A01D2C01AC91830B44B185B
:10E700000418240E1B0E22D0FF2C20D0E31A182B45
:10E710001DDC09021143C40D641E0002104394461F
:10E720001925ED1A0A00AA40D940451801D36D08F1
:10E73000A41CE405D209280A2D062A436546AA41ED
:10E74000604103181B0EFF2B01D3C00DC00530BC68
:10E750007047514006E05140CCE70122D207030048
:10E760004B40F8D4431A03D2C01AC9185040514044
:10E7700030B44B18090211430418240E1B0E40D06C
:10E78000FF2C3AD025009D410BD31ED8C50D400269
:10E79000401A0BD3ED050100400AC90591416841BB
:10E7A000D5E7C50D40024918401AD0D001214008D4
:10E7B000491C0018FCD58C4204D36D1A000AED05E3
:10E7C0004019C4E7E8051040C1E7182DBFDCAC1CB8
:10E7D0000D00E140E5414D40012D4941C40D0002CD
:10E7E0001043451A01D46D199543641EE405280AA7
:10E7F0002D069541604130BC7047FF2BA7D1D8430F
:10E80000A5E72442A3D10020A1E770477047FEE7A7
:10E81000704780B500F02AF801BD1CB5FDF732FD48
:10E820000C4C80002058FDF7C4FD012810D1FDF7E5
:10E8300029FD80002058FDF7B9FD684606490968A2
:10E840008968884768460078012801D10349087023
:10E8500013BD00001CEA0510E8050020FE0400209E
:10E86000704780B5F0F77CFE01BD70470248016833
:10E87000491C016070470000F805002070B40123B6
:10E88000002413E00168001D194202D04D466D1EA0
:10E8900049190C60091D121F042AFAD20D009607AF
:10E8A00001D50C80AD1C1A4000D02C700268001DF0
:10E8B000002AE7D170BC7047007006100004000009
:10E8C00000040000007806100C0600206022000002
:10E8D0001800040095000100020E1700C405002076
:10E8E000FFFFFFFF640003004801000010B5074967
:10E8F00079441831064C7C44163404E0081D0A683B
:10E90000891888470100A142F8D110BD0800000015
:10E910007400000069FFFFFF0400000008000020F1
:10E92000040000000C00002004000000140000207F
:10E930000400000018000020080000001C00002057
:10E940000400000030000020FC0000001005002042
:10E950000000000077D7FFFFB40100000E000000A8
:10E96000C000002067D7FFFFAB0100000C000000D3
:10E970001000002057D7FFFF16010000FC00000028
:10E9800070040020FEF77CFB002801D0FFF7AEFFEB
:10E9900000BF00BF002000BF00BFFEF7CFFA00F0AD
:10E9A00000F880B500F002F801BD70470746384610
:10E9B00000F002F8FBE7704780B500BF00BF024AD5
:10E9C00011001820ABBEFBE726000200400000004B
:10E9D000800000000040000000BF00BF00BF00BF7B
:10E9E000FFF7D0FF00010000010000000008000058
:10E9F00001000000200000000400000010000000E2
:10EA000004000000020000000400000004000000F8
:10EA100008000000040000000100000004000000E5
:10EA2000001000007047704770477047704770478C
:10EA3000704770477047704770477047704770471E
:10EA4000704770477047704770477047704770470E
:10EA500070477047704770477047704770477047FE
:10EA600070477047704770477047704770477047EE
:10EA700070477047704770477047704770477047DE
:10EA80007047704770477047704770477047100F66
:10EA9000010003000400060029E40510EBE5051061
:10EAA0001904123104F202000112631812AF044378
:10EAB0001FE620100BC1B00510A5B505100DB60559
:10EAC00010B908100359B70510F90C100359B8050F
:10EAD00010E904100395B90510ED04100337BA05C9
:10EAE00010A1041349BB1011041369BC08110410D0
:10EAF00007F5BD051091BE0510DF0490030000A0CE
:10EB0000400175000578040020070A5CF2FF00014F
:09EB1000F1EA01000200B0051059
:040000051005E9D920
:00000001FF
