:020000041004E6
:100000000060002051120410CD0E0410CF0E041019
:10001000AA5555AA45554C420000000000000000BA
:10002000000000000000000000000000D10E0410DD
:1000300000000000000000004B070410D30E041065
:100040003F0F04109708041000000000000000009B
:10005000231204102F12041065120410D50E041080
:100060000000000000000000000000000000000090
:10007000000000006F1204107112041073120410BB
:1000800000000000EB0E0410671204106912041047
:100090006B1204106D120410771204107512041004
:1000A0000000000000000000000000000000000050
:1000B0000000000000000000000000000000000040
:1000C00010B5C20018231340FF249C40E243890767
:1000D000090E9940030004D55A481B071B0F083B23
:1000E00000E099489B089B00C01803681A40114320
:1000F000016010BDFEB5002653480660032400F0E1
:10010000CAF96946088068460088002801D1641E43
:10011000F5D168460088202837DB6846008801242E
:100120000125400525D4684600F01AFA6846417852
:10013000090180780843122800DA00258348006806
:10014000000705D4002D14D0012000F062F810E063
:100150007F4FF8687F4E3168081A28380002001275
:10016000002806DD002D02D0012000F052F8306892
:1001700038607948047000F04AFABFF34F8F77482F
:10018000A4490860BFF34F8FFEE70120FEBD10B504
:1001900000220021A04804E00B00415C5918491CD2
:1001A000C9B2435C002BF7D1CB1C202B12DA0223FF
:1001B00043542123441863700823A3704318DA7052
:1001C000964A80235B02401880B218431060106882
:1001D0001840FCD110BD70B5002100238E4A04E008
:1001E0001C00D35CE3185B1CDBB2D45C002CF7D1A1
:1001F00002253524DE1C202E05DAD554D61874705D
:10020000B070D218D170864A157054709070D17049
:1002100070BD70B580214902814B9CB20C437F4A6E
:10022000002804D01460106808400AD0FBE79878D2
:100230009D78FB262E409E70146014680C40FCD103
:10024000987070BD1CED00E014000020F8B58AB075
:1002500005000C0003A800BF79A11C2200F0FCF9E6
:10026000684600F07DF96D4E002D54D003A8402162
:1002700081734C21C17220210172B22141745B2132
:10028000017568498B6B684A1D0C954209D1C57D83
:100290008F272F40C775C57D1B0170271F402F4337
:1002A000C7754B6B1D0C954209D14579CF272F405F
:1002B000477145791B0130271F402F43477109685B
:1002C0000B0C934208D1C27DFC231340C375C27D41
:1002D0008907890F1143C175C17AFB220A40C27296
:1002E00069464A7812018D781543112D06DDC17DCE
:1002F00004220A43C275C07DFFF76DFF80204002D3
:1003000003A989B20143316031680140FCD1112D4C
:1003100001DDFFF73CFF124881890029FBD0012154
:1003200081811721018000214160002C07D0706875
:10033000102172680A40102303409A42F9D03B48CA
:100340003B4908600BB0F0BD00E400E0C0000020B5
:1003500004000048180000200C0000200400FA05EA
:100360000C00104880B50820324908800321012084
:10037000C043FFF7A5FE03210020C043FFF7A0FE06
:1003800003210020FFF79CFE03210120FFF798FEC8
:1003900003210420FFF794FE03210520FFF790FEC0
:1003A00000210620FFF78CFE03210720FFF788FEBF
:1003B00003210D20FFF784FE03210E20FFF780FEAE
:1003C00003210F20FFF77CFE03211120FFF778FEA9
:1003D00003211220FFF774FE03211320FFF770FEA4
:1003E00003211420FFF76CFE03211520FFF768FEA0
:1003F00003211620FFF764FE03211720FFF760FE9C
:1004000001210120FFF722FF0B480C49086062B66A
:1004100001BD00000CED00E05C0000200C00004875
:100420001C000020B007001055AA0000CCBCECFC5A
:10043000140000200400104066000E0020009040D0
:10044000023F00023E30023C20023B4C023A400296
:1004500039B202345B02350B0000000070B50400B5
:100460000D003A4E3A48204003D18721300000F079
:100470006BF92800344D010005D0012807D08821F0
:10048000300000F061F92868A043286070BD28683A
:1004900004432C6070BD2F4802782F48018800204B
:1004A000002A44D109220A40092A00D12020112221
:1004B0000A40112A02D102004020104321220A40A2
:1004C000212A02D102008020104341220A40412A01
:1004D00003D1020080204000104381220A40812A7B
:1004E00003D10200802080001043FF22921C1300E1
:1004F0000B40934203D102008020C0001043174AF2
:1005000013000B40934203D10200802000011043EE
:1005100005220A40052A02D1020010201043890753
:10052000890F03290ED10100082008437047022AD1
:1005300001D101207047042A01D102207047082A06
:1005400000D1042070470000200090407C0F041070
:100550009F3F0F0008009040080010480104000071
:100560000F21114A13681B090B404370136819408F
:100570008170D268426001210C4B9A4208D10C4A2A
:1005800012680C4B9A4201D1042202E0022200E0E0
:10059000012202704278002A00D141700649098880
:1005A000491C8900816070471C00904041A00002F6
:1005B0001C00001044A000F214001040EFF314825D
:1005C000EFF30981002080F31488BFF36F8FF0B53B
:1005D00043464C4655465E466746F8B4164CEFF324
:1005E0000883236006B4154C2068154C2060154C18
:1005F0002068154C2060154C2068154C2060154C67
:10060000276800202060BFF34F8F30BF27600A4C5F
:10061000246884F3088882B003BCF8BC9846A146DD
:10062000AA46B346BC46F0BC04BC80F3098881F3FB
:100630001488BFF36F8F10470800002004ED00E01E
:100640002400002024ED00E02800002000E200E06B
:100650007C0000200800204070B4103A03D378C911
:10066000103A78C0FBD2530701D318C918C001D57E
:1006700008C908C0D20704D30B880380891C801CDA
:10068000002A01D50B78037070BC704780B5FFF766
:1006900069FE00F05BF8002000F082F8012000F015
:1006A0007FF8022000F07CF8002000F0B5F801216E
:1006B000002000F0C3F800F01BF800F007F800F08D
:1006C000F5F801211D4800F088F9FEE780B5012109
:1006D0008020FFF7C3FE1A4800F0DEF868460721C5
:1006E0000170032141700121817000F01DFA01BDEC
:1006F0003EB50121C802FFF7B1FE01A800F065F97F
:10070000002001A908709F22CA7001254D708870D1
:100710000C488880C880094C200000F0D7F8684653
:100720001121017003214170857000F0FDF9012253
:100730000121200000F080F937BD00000000D0400A
:10074000FD7F07004FC30000FEE77047012003490B
:100750000870704701480078704700008100002051
:1007600038B50E4D2C000C3C002811D0022807D0C3
:100770000ED2FFF7EFFF0C2148432818083805E098
:10078000FFF7E8FF0C2148432818001F006832BD1E
:10079000FFF7E0FF0C214843205832BD44120410FB
:1007A0001CB5040001210120FFF758FE2000FFF7CF
:1007B000D7FF0090684606210171012181714171C6
:1007C00000F0FEF92000FFF7CBFF002100F080FAD7
:1007D00013BD80B5FFF7C4FF002100F079FA01BD19
:1007E00080B5FFF7BDFF00F08DFA01BD38B5094DAA
:1007F0002C00083C002808D0012806D1FFF7AAFFEA
:10080000C0002818001F006832BDFFF7A3FFC0001A
:10081000205832BD5C1204101CB5040001210120D7
:10082000FFF71CFE2000FFF7E1FF00900020694663
:1008300088808871684600F0C3F913BD7FB5050054
:100840000C0000266846067003214170012181706A
:1008500000F06AF92800FFF7C9FF0190029603949F
:1008600001A800F063FA2800FFF7C0FF00F0BEFA0D
:100870002800FFF7BBFF012100F09AFA7FBD80B589
:10088000FFF7B4FF00F0BEFA02BD80B5FFF7AEFF80
:1008900000F0ACFA01BD704710B5040003D182210D
:1008A0000748FFF751FF0748046010BD064801786C
:1008B00001220A430270017802220A430270704743
:1008C00064100410000070400800704070B504000F
:1008D0000D00514E5148844206D05148844203D005
:1008E0006A213000FFF730FF287800280BD08028DD
:1008F00009D0012807D0022805D0032803D06B2196
:100900003000FFF721FF687800280BD0012809D0BC
:10091000022807D0032805D0042803D06C2130001A
:10092000FFF712FFA87800280BD0012809D0022871
:1009300007D0032805D0042803D06D213000FFF72D
:1009400003FF208B374901402183208B364901402A
:100950002183F820217D01402175C721227D0A4095
:1009600022752B78314A802B07D1238B1A402283A2
:10097000228B80235B00134308E0268B32409B07C9
:100980009B0F13432383228B294B13402383EA7845
:100990002274228B802313432383AA88A280EA88AF
:1009A0002281228B234B13402383227D10406A78BF
:1009B0005207520F02432275207D0140A878C000E3
:1009C000382202400A43227570BD002141708170B7
:1009D0008180C1800170C170704770B504000D0046
:1009E0000D4E0E48844206D00D48844203D0A32108
:1009F0003000FFF7A9FE280005D0012D08D0A42162
:100A00003000FFF7A1FE208B0A490140218370BD11
:100A1000208B80210143F9E7181004100000D0401A
:100A20000000E040EFFF0000DFFF0000FCFF0000DF
:100A3000FFFE00007FFF0000F8B504000D00170066
:100A4000234E2448844207D02348844204D0FF2107
:100A50008A313000FFF778FEF020284001D12800CD
:100A600004D1C52149003000FFF76EFE2D0138008A
:100A700006D0012F08D0FF218C313000FFF764FE33
:100A8000207FA8432077F1BD207F05432577F1BD66
:100A900070B504000D000E4E0E48844207D00E487B
:100AA000844204D0D12149003000FFF74DFEF020F0
:100AB000284001D1280004D1FF21A4313000FFF7E4
:100AC00043FE2020205C05432020255470BD0000FB
:100AD000181004100000D0400000E04070B5040081
:100AE0000D000E4E0E48844207D00E48844204D0BA
:100AF000DB2149003000FFF727FEF020284001D11C
:100B0000280004D1FF21B8313000FFF71DFE207FFF
:100B10000540280000D0012070BD0000181004100E
:100B20000000D0400000E040F8B50400A0781F4D60
:100B3000002805D0012803D05A212800FFF704FE21
:100B40006078042803DB5B212800FFF7FDFD217896
:100B50001F220123A078002821D0607849B2CD005F
:100B600018262E40FF27B740FD438007000EB040F7
:100B70000E0004D50E493607360F083E00E00D4939
:100B8000B608B60089190E683540284308602078F9
:100B9000024093400849400980000B50F1BD0A40D3
:100BA00093400648490989004350F1BDB010041034
:100BB0001CED00E000E400E000E100E080E100E086
:100BC000F8B50400584D2068800103D17A2128002F
:100BD000FFF7BAFD207900280BD0062809D001289C
:100BE00007D0042805D0052803D07B212800FFF773
:100BF000ABFDA079002805D0012803D07C21280076
:100C0000FFF7A2FD6079002805D0012803D07D21DF
:100C10002800FFF799FD2068C00406D52079062832
:100C200003D180212800FFF78FFD2068800406D5BE
:100C30002079062803D181212800FFF785FD23793B
:100C40001900384A0020002B04D113682568AB43F3
:100C5000136006E0062B04D10021136825681D43AC
:100C600015602568C540ED071AD5082809DA850002
:100C7000966A0F27AF40BE430F00AF4037439762DD
:100C80000EE00500083D082D0AD20500083DAD0024
:100C9000D66A0F27AF40BE430F00AF403743D7623D
:100CA000401C1A28DDDB206861790129916802D196
:100CB0000843906001E0814391602068A179012997
:100CC000516802D108435060F1BD81435160F1BDCC
:100CD00070B504000D00144EA00104D1B7214900E5
:100CE0003000FFF731FD2800724D010006D00128C9
:100CF00006D0FF2170313000FFF726FD6C6070BD1B
:100D00002C6070BD10B50400A00104D1C2214900BF
:100D10006948FFF719FD8020C00501684C40046058
:100D200010BD000004000040CC0F041038B50400D2
:100D3000614D2068800104D1D02149002800FFF7CF
:100D400003FD6068002806D0012804D0FF21A231ED
:100D50002800FFF7F9FCA068002808D0012806D079
:100D6000022804D0D12149002800FFF7EDFC2168BA
:100D700052486268012A026802D11143016001E011
:100D80008A430260A1682268012903D181680A436D
:100D9000826004E0002907D1816891438160416845
:100DA00022689143416031BD41680A43426031BDD0
:100DB00070B504000D00404EA00104D1FF21CE31DA
:100DC0003000FFF7C1FC28003D4D01000AD001288A
:100DD00004D0E72149003000FFF7B6FC286804433F
:100DE0002C6070BD2868A043286070BD10B5040059
:100DF000A00104D1FF21E4312F48FFF7A5FC3148C1
:100E0000046010BD10B50400012C49D0022C47D05D
:100E1000042C45D0082C43D0102C41D0202C3FD09E
:100E2000402C3DD0802C3BD080204000844237D0E5
:100E30004000844234D04000844231D0400084429B
:100E40002ED0400084422BD04000844228D0400065
:100E5000844225D04000844222D0400084421FD0EA
:100E6000400084421CD04000844219D0400084429B
:100E700016D04000844213D04000844210D040007D
:100E800084420DD0400084420AD04000844207D002
:100E90004000844204D0FA2149000748FFF754FC7F
:100EA000094800680440200000D00120C0B210BDF5
:100EB000000000003C000040CC0F04101000004077
:100EC0001C00004028000040240000407047FEE75E
:100ED0007047704780B50020FFF77BFC0120FFF7CB
:100EE00078FC0220FFF775FC01BD10B51C4C0121F8
:100EF0002000FFF7F3FD002820D01A480178491C94
:100F00000170C9B2052901DA174808E00B2901DA96
:100F1000164804E0152901DA154800E01548A080BC
:100F200020810020FFF75CFC0120FFF759FC022024
:100F3000FFF756FC01212000FFF7AAFD10BD80B588
:100F40000020FFF79CFC012808D10020054908700B
:100F50000948FFF7A1FC0020FFF797FC01BD000046
:100F60000000D040800000204FC30000A7610000B7
:100F70000F27000087130000FD7F0700433A5C47FE
:100F800049545F766F62735C626C75656E7267312F
:100F90002D73646B5C4C6962726172795C426C7532
:100FA000654E5247315F5065726970685F4472697F
:100FB0007665725C7372635C426C75654E52473144
:100FC0005F7379734374726C2E630000433A5C471D
:100FD00049545F766F62735C626C75656E726731DF
:100FE0002D73646B5C4C6962726172795C426C75E2
:100FF000654E5247315F5065726970685F4472692F
:101000007665725C7372635C426C75654E524731F3
:101010005F6770696F2E6300433A5C4749545F769F
:101020006F62735C626C75656E7267312D73646B91
:101030005C4C6962726172795C426C75654E5247B4
:10104000315F5065726970685F4472697665725C81
:101050007372635C426C75654E5247315F6D6674A6
:101060002E630000433A5C4749545F766F62735CBD
:10107000626C75656E7267312D73646B5C4C69626E
:10108000726172795C426C75654E5247315F506592
:10109000726970685F4472697665725C7372635CD2
:1010A000426C75654E5247315F7764672E6300006E
:1010B000433A5C4749545F766F62735C626C756556
:1010C0006E7267312D73646B5C4C69627261727908
:1010D0005C426C75654E5247315F5065726970684D
:1010E0005F4472697665725C7372635C6D69736389
:1010F0002E63000070B40123002413E00168001D7A
:10110000194202D04D466D1E49190C60091D121F6F
:10111000042AFAD20D00960701D50C80AD1C1A40A6
:1011200000D02C700268001D002AE7D170BC704707
:1011300030B501684118446862088A188368E4077A
:1011400004D54C461B1901E0641C06D191420BD01A
:101150000C7864B2491C0D78491C1D705B1C002C76
:10116000F2D4641EF7D5F1E70C3030BD10B5074955
:1011700079441831064C7C44163404E0081D0A6892
:10118000891888470100A142F8D110BD080000006D
:101190006C00000061FFFFFF040000000800002059
:1011A000040000000C0000200400000014000020D7
:1011B0000400000018000020080000001C000020AF
:1011C000040000003000002008000000240000207F
:1011D000280000005C0000200000000055FFFFFF19
:1011E0009800000014000000C000002045FFFFFF31
:1011F000920000000A00000010000020FEF77AFFB5
:10120000002801D0FFF7B2FF00BF00BF002000BFE1
:1012100000BFFFF73BFA00F000F880B500F002F8DD
:1012200001BD70470746384600F002F8FBE77047FB
:1012300080B500BF00BF024A11001820ABBEFBE71B
:101240002600020040000000800000000040000076
:1012500000BF00BF00BF00BFFFF7D0FF00200000AD
:101260002000000070477047704770477047704714
:10127000704770477047704781008100810081008E
:07128000F000030000041060
:040000051004125180
:00000001FF
