:020000041004E6
:100000000060002065900510C78E0510C98E051090
:10001000AA5555AA45554C420000000000000000BA
:10002000000000000000000000000000CB8E051062
:100030000000000000000000FB1D0410CD8E051024
:10004000D58E05104B2704100000000000000000B2
:10005000D78E0510A7330410D98E05104F48041011
:100060000000000000000000000000000000000090
:1000700000000000A34804106B490410474B041013
:100080000000000037370410333904105F400410BB
:10009000B7400410FB400410D74F04105F4B04100E
:1000A0000000000000000000000000000000000050
:1000B0000000000000000000000000000000000040
:1000C00018B58BB004A800BF15A10CC90CC000BFA7
:1000D00015A1122200F0B2FC7B4800210170020041
:1000E000703211805173E322815466328154774912
:1000F0004180062204A9684600F086FC6846122169
:10010000817106A902910421017300F0B1FC040081
:1001100003D0210009A000F03FFF20000CB010BD6B
:10012000FC1200E18002000053656E736F7244653B
:100130006D6F2043656E7472616C00004D61737465
:1001400065725F496E6974282920737461747573D0
:100150003A203078253032780D0A00001CB5684608
:10016000022101703021418081800021817100F0E5
:10017000C4FC0400C448210002D000F00DFF02E0DE
:100180002C3000F009FF200016BD18B589B06C4670
:1001900003202070BD4801903020208160818020A4
:1001A0004001A081BA48E0814748017921740622C4
:1001B000411D2000113000F041FC0020E075282195
:1001C000218338216183A0831420E08305202084CB
:1001D0006084684600F0E0FC040003D02100AD48D4
:1001E00000F0DAFE20000AB010BD0000F8B586B0BD
:1001F000A94800F0D1FE344CE17AD54800F0CCFE9D
:100200000026002021007031019154E0142505E002
:10021000C1B26118097B0129F8D106256946401C45
:100220000870F1B2491C00BF29A000F0B5FE2F1FD5
:100230003A00684600782118103102A800F0FEFB51
:100240003A00AA204000211802A800F0B9FE0028B8
:1002500003D100BF20A000F09FFE3A00AB20400079
:10026000211802A800F0ACFE002807D121A000F060
:1002700093FE0120019A5070019908703A00AC2059
:100280004000211802A800F09BFE002803D100BF07
:100290001FA000F081FE3A00B4204000211802A8FF
:1002A00000F08EFE002802D11FA000F075FE684607
:1002B00000784019761CE27AF1B29142A8D3A548A1
:1002C00000F06AFE07B0F0BDCC020020FFFF000086
:1002D00025642D2D2000000047656E65726963203E
:1002E0004163636573732050726F66696C650D0AB4
:1002F0000000000047656E65726963204174747286
:1003000069627574652050726F66696C650D0A00CC
:10031000416363656C65726174696F6E20536572C9
:10032000766963650D0A0000456E7669726F6E6DC1
:10033000656E74616C20536572766963650D0A00A1
:10034000F8B588B0002200250027B94C019203922D
:1003500069460A7080E0142606E020000C30F9B2ED
:10036000405C0128F7D106267F1CFFB2321FE1193D
:10037000103104A800F062FB321FAB2040002118AE
:1003800004A800F01DFE002819D17120205C00286F
:1003900015D0E0190C3002A9891C02780A70427845
:1003A0004A70E0190E3002A902780A7042784A7049
:1003B0002000723001902000733003900A25321F14
:1003C000AC204000211804A800F0FAFD00281AD142
:1003D00020007130007B002815D0E0190C3002A9F4
:1003E000891C02780A7042784A70E0190E3002A91E
:1003F00002780A7042784A7020007E300190200016
:100400007F3003906425321FB4204000211804A8D7
:1004100000F0D6FD002819D1E320205C002815D07B
:10042000E0190C3002A9891C02780A7042784A70DF
:10043000E0190E3002A902780A7042784A70200052
:10044000E43001902000E53003906425BF19684630
:100450000078401C6946087068460078E17A884256
:1004600000D27AE7019B01950398009068460289C3
:100470004189608800F0F0FB010002D0A84800F03C
:100480008BFD09B0F0BD0000C47F05103075000081
:10049000F22B0000148505102C7B0510F8B5644F75
:1004A0007D20385C00282FD0002428E016206043EF
:1004B000381805008035060085361022C42040001B
:1004C0003918300000F07CFD002806D1A62040003D
:1004D000381829780170697841701022BC204000DA
:1004E0003918300000F06CFD002806D1A52040002E
:1004F00038182978017069784170641CE4B23800BA
:100500007D3040788442D1DB3E00E33630780028ED
:100510001CD0002417E0162060433D181022CC2088
:10052000400039182800EB3000F04AFD002808D1BF
:100530002800E630A7214900791802780A7042782D
:100540004A70641CE4B270788442E4DBF1BD0000C0
:100550006C7B0510907B0510F1B582B017001E0072
:10056000007801284BD10091097800BF31A000F03C
:1005700013FD00BF34A000F00FFD00250024E0B201
:10058000395C00BF33A000F007FD641CE0B2062810
:10059000F5DBB7A000F000FD317800BF2FA000F020
:1005A000FBFC089C04E0215C32A000F0F5FC6D1C13
:1005B0003178E8B28842F6D3099DADA000F0ECFC9A
:1005C000002029562DA000F0E7FC06222FA1601D77
:1005D00000F0F6FC002812D12EA000F0DDFC14483B
:1005E00000990978017106223900401D00F026FAB1
:1005F000FFF7CBFD002802D09E4800F0CDFC02980A
:100600000078022802D19C4800F0C6FC02980078CD
:1006100003280CD1974C20006C3000F0BDFCFFF794
:100620009DFD002803D02000943000F0B5FCF7BDFC
:10063000CC020020414444522054797065203D2072
:1006400025640D0A0000000041444452203D203042
:10065000780000002530327800000000414420443A
:1006600041544120284C656E6774683D2564293AE1
:100670000D0A000025303278200000005253534903
:10068000203D203078253032780D0A00426C7565A7
:100690004E524700426C75654E524720646576693C
:1006A000636520666F756E640D0A0000F8B5734DC2
:1006B000734C0078012807D031D3032820D01DD3F4
:1006C000052828D024D3F1BD16000F003188200062
:1006D00000F062FC3878002821D1308868806423DB
:1006E0002A000C3229000B3100F08AFA002816D0BB
:1006F00001002000303000F04FFCF1BD09A00CE0FB
:1007000010A000F049FCFFF729FDB7486880F1BD53
:100710002000783001E02000A03000F03DFCF1BD69
:100720004C8505102A2A2A2A434F4E4E45435449E8
:100730004F4E204641494C4544204556454E540DA8
:100740000A0000002A2A2A2A444953434F4E4E45A4
:100750004354494F4E204556454E540D0A00000063
:10076000F8B50078012802D0022806D0F1BD08783B
:10077000002825D1FFF73AFDF1BD087800281FD1E8
:100780009A4F3C007034012500266078002802D082
:100790006670657307E0607B002806D0FFF77EFE79
:1007A0006673E3203D542570F1BDE320385C0028DA
:1007B00006D0FFF773FEE3203E54657066303D546B
:1007C000F1BD38B58A4D894C7120205C002814D0C9
:1007D00020007730694602780A7042784A70012317
:1007E000002268460188891C89B2608800F070FA8E
:1007F000010002D0280000F0CFFB20007130017B07
:1008000000291AD0417B491E4173A52040002018C1
:10081000090601D0008800E04088801C69460880F5
:100820000023012268460188608800F051FA002800
:1008300003D00100280000F0AFFB31BD80B50F48A8
:1008400002210091A92149004318891E4218891EDE
:10085000415A491C89B2408800F08EFA010065486F
:1008600002D000F099FB01BD4C3000F095FB01BDBA
:100870000D0A0000687A0510987A0510CC02002055
:1008800014760510FEB55949A52252008F185A4D0D
:100890005A4C46260078052806D0062876D0092826
:1008A00022D00A286CD0F7BD501E0D1808007130F8
:1008B000012600227123C95C002904D0027006734E
:1008C0002E7020005FE0017B00290CD0417B0029C5
:1008D00003D1027320002C3002E006732000543054
:1008E00000F05AFB2E70F7BD00933888401C198821
:1008F000884207D158680078002803D0200078305B
:1009000000F04AFB7888401C0099098888426AD127
:100910003BA000F041FB3BA7380000F03DFB761EFA
:10092000FAD100988178062903D02000C03000F069
:1009300033FB00984068A91C02780A7042784A701C
:10094000811C2A1D0B7813704B785370001DA91D54
:1009500002780A7042784A7000202E5E30000A2128
:1009600000F053FB019130000A2100F04EFB009093
:1009700006202B5E04202A5E0220295E84202EE0C1
:100980009C204000201800F007FBF7BD1CA000F0E1
:1009900003FB1CA00090009800F0FEFA761EFAD12E
:1009A000F988022904D0B2204000201800F0F4FA9F
:1009B000787A0602387A06432E8036B230000A2151
:1009C00000F023FB019130000A2100F01EFB009093
:1009D00006202B5E04202A5E0220295ED2204000E1
:1009E000201800F0D9FAF7BDFFFF0000CC0200206C
:1009F0001C840510DC7C051088090020BC690510EA
:100A00000D0000002000000070B4103A03D378C934
:100A1000103A78C0FBD2530701D318C918C001D5CA
:100A200008C908C0D20704D30B880380891C801C26
:100A3000002A01D50B78037070BC70478B0701D179
:100A40008307E1D0124205D00B78491C0370401C8B
:100A5000521EF9D170470C0802170D010102090955
:100A60000101060209FFFFFFFFFF0909FFFFFFFF6A
:100A700010B586B0040022000621002000F01FFB04
:100A8000010038D100F01FFB010034D105A801900E
:100A900004A8009004AB9B1CA2790021042000F064
:100AA00016FB010027D1A079002811D0082801DD0C
:100AB0000820A071A079A168039102900021019102
:100AC000009000236846028A418A002000F017FB4C
:100AD000217B012000F024FB01000CD100F04FF835
:100AE0007948802149020160491C41600168002069
:100AF00000F01AFB002006B010BDF8B573490C6871
:100B0000714F39688026B6027208914206D0920071
:100B1000914203D0B14201D00C2520E000904088E2
:100B200000998988009A9279009B1B78012B02D149
:100B300000F0EBFD02E0012300F0EBFD05000ED11B
:100B40000120E06000206072207000980078207220
:100B50003E60701C78603146400800F0E5FA2800DD
:100B6000F2BD10B559480468207A012800D002204F
:100B700000F0C7FD010001D10221617210BD1FB557
:100B8000514C0ECC0C3C684600F0D6FC68460EC8B2
:100B90000EC4184604B010BDF1B582B000276946F6
:100BA0000F704A4804682422029920000C30FFF795
:100BB0002BFF3421675401206E4D434E31684204AF
:100BC00091420DD02070681E30607560014650085B
:100BD00000F0AAFA0298007803280ED127630CE0EF
:100BE00027702063FFF7BDFF69460870691E3160FA
:100BF00075608020800200F097FA68460078FEBD9C
:100C0000F7B500226C462270304C24682E4D2E68B9
:100C10008027FF02BE420AD0C027FF02BE4206D094
:100C20007F08BE4203D00C206946087011E0029E86
:100C3000012727702082A160E660A380A06802706F
:100C4000A020C0022860401C68602968B80400F039
:100C50006BFA68460078FEBDF5B583B000206A46A1
:100C600010701A4A1268184C2668A025ED02AE4290
:100C700007D08027FF02BE4203D00C2069460870CF
:100C80001CE00B9E0A9F01936B4659806946898937
:100C900002231370118201999160D7609680694692
:100CA000498851826946098A918291680870256055
:100CB000681C60602946580400F036FAFFE7684671
:100CC000007805B0F0BD000024000020C004002022
:100CD000F2B582B000A9891C00240C704C708B49BD
:100CE0000C68894E31688027FF02B94209D0C025BF
:100CF000ED02A94205D0A025ED02A94201D00C25A4
:100D000035E069460B704A7088806846007840007C
:100D1000497801436846817000AB9B1C022201891F
:100D2000808800F099FD050021D100202622A054E2
:100D3000052121706946898821852721605402A8F0
:100D400021000D3102780A7042784A706846407876
:100D5000E073684600782074022020730120E0626E
:100D60003760781C70603946380000F0DDF92800E3
:100D7000FEBD000001000300F7B51F0063490C68C9
:100D8000824E31688022D202914209D0C022D20222
:100D9000914205D0A022D202914201D00C2527E039
:100DA0006946088068468188008800F059FD050082
:100DB0001ED10898029900222623E25406232370AC
:100DC0006B461B8823856160A760A08401A8210071
:100DD0000D3103780B7043784B702720225401208B
:100DE000E06280043060411C7160014600F09CF9B3
:100DF0002800FEBDFBB5170044490C68634909682B
:100E00008022D202914209D0C022D202914205D062
:100E1000A022D202914201D00C252BE0089E694607
:100E20000880320068468188008800F01DFD0500BA
:100E300020D10998029900222623E2540823237026
:100E40006B461B8823856760A160A08401A82100F0
:100E50000D3103780B7043784B70E67327202254D2
:100E60000120E062800449490860421C4A60014652
:100E700000F05AF92800FEBDF2B582B023490C6893
:100E8000424E31688027FF02B94209D0C025ED02E9
:100E9000A94205D0A025ED02A94201D00C2530E0E1
:100EA000019369460A704880019B6846027801896F
:100EB000408800F0DDFC050023D10020262160548D
:100EC000072121706946498821852721605402A89D
:100ED00021000D3102780A7042784A706846007825
:100EE000207368460278019920000F30FFF7A6FDB5
:100EF0000120E0623760781C70603946380000F0ED
:100F000013F92800FEBD000024000020C0040020CA
:100F1000F8B51F4A14681D4D2E688022D2029642F1
:100F200009D0A022D202964205D0C0229202964257
:100F300001D00C2728E06A4610806846008800F03F
:100F4000ECFB070020D10120E06200202070262168
:100F500060546946098861852721605428216054BE
:100F6000302160540B4A49038020C002864202D1DE
:100F700029606A6006E0A020C002864229606A609B
:100F800000D0480800F0D0F83800F2BD240000205E
:100F9000C0040020010006000EB4C0B5020003A882
:100FA00001900020009001AB0121044878440C30EE
:100FB00000F062FC029906B0084700BFB77F01004D
:100FC000A446521E08D303780C78401C491CA34247
:100FD000F7D0181B64467047002064467047F446FB
:100FE000002804D4494200F013F8404260474042D0
:100FF000002905D45FD000F00BF840424942604719
:10100000494200F005F84942604703460B43E6D4E5
:101010000022030A8B420BD203098B4219D24308E8
:101020008B422ED2411A00D20146524110467047DF
:10103000FF2209023FD012068B4205D31212090289
:101040008B4201D31212090203098B4219D300E02B
:10105000090AC3098B4201D3CB01C01A524183094B
:101060008B4201D38B01C01A524143098B4201D3F9
:101070004B01C01A524103098B4201D30B01C01A24
:101080005241C3088B4201D3CB00C01A524183089E
:101090008B4201D38B00C01A524143088B4201D3CB
:1010A0004B00C01A5241884200D3401A5241CFD25D
:1010B00001461046704708B500F09EFE08BD10B509
:1010C00000F09CFE10BD10B500F03CFF10BD7CB5DB
:1010D000069D079C002805D0860705D1460703D446
:1010E000060701D442207CBD002903D0012901D08C
:1010F0000229F7D10095019400F0EEFF7CBDF0B518
:1011000085B084460AA8F0C868468581C68103A8D0
:10111000019002970094604601F0DCF805B0F0BD44
:1011200010B501F09FFA10BD7047F0B589B0050009
:101130001400002902D02E896F8901E0AE89EF8961
:101140002A7C2878032814D1688C0690288C059076
:10115000E88B0490A88B0390688B0290288B0190F9
:10116000E87D00902B0011333900300000F0AEFA1A
:101170001BE007A80270062229001131401CFFF76E
:101180005DFC07A8069001200590688C0490288CCF
:101190000390E88B0290A88B0190688B00902B8BBA
:1011A000EA7D3900300000F077FA050004D1002014
:1011B000607001F079FAA060280009B0F0BD894A9A
:1011C000531EC11A08D0491E07D18748006800780D
:1011D000002801D0501C704710007047F0B585B052
:1011E000814A1468814A012700260225531EC11A2C
:1011F00008D0491E08D0491E1FD0491E4AD0491E9A
:1012000063D06BE0A67002E02078002801D11000C6
:1012100064E02200012120000C30FFF786FF6946C0
:10122000487068464078002847D134202654206909
:1012300080000321014321632AE001F035FAA1680F
:1012400001F03BFA2169814203D33420205C00285D
:101250001BD0207B032801D1402000E008206946F4
:1012600008706846007800F04CFA69464870684695
:101270004078002802D12763AA482FE00420087094
:1012800001AB221D491C68461CE0A078002822D131
:10129000A54823E06078002801D1901C1EE02200C0
:1012A00020000C30FFF741FF6946487068464078DF
:1012B000002802D127639D4810E06846057001AB05
:1012C000221D491CFFF7F2F905E0A078002802D1A1
:1012D0006078002801D0964800E0D01C05B0F0BD31
:1012E0003EB5414A1468934A951C531EC11A15D045
:1012F000491E02D0491E13D03EBD2620205C002886
:101300000CD0220028322100273120002A3001F0A1
:10131000DAF92078002863D0681E3EBD10003EBD7B
:101320000020694608722078052806D04DD307288A
:1013300025D012D3082833D047E020000D3002A971
:10134000891C02780A7042784A70237CE27B6846E6
:101350004189608DFFF7BCFC35E020000D3002A90B
:10136000891C02780A7042784A70A08C0090A368A9
:10137000626868464189608DFFF7FEFC23E020002B
:101380000D3002A9891C02780A7042784A70230045
:101390000F33227B68464189608DFFF76DFD12E0B7
:1013A00020000D3002A9891C02780A7042784A7028
:1013B000A08C0190E07B0090A36862686846418938
:1013C000608DFFF717FD694608726846007A0028AD
:1013D00006D0002322002A3202A92000FFF752FA89
:1013E00028003EBD02000200C004002002000300ED
:1013F000F8B5874A1468874F874E0125BA1E811AAF
:1014000010D0491E21D0491E2AD0891E2DD0491E38
:1014100038D0491E3BD0491E46D0491E49D0491EEE
:101420005AD0F2BD6170E1802178012901D1501CB0
:10143000F2BD022901D17948F2BD032901D1B81CBE
:10144000F2BD042954D1B01EF2BD208A01F03CF94E
:101450006946087068460078002835D1A56102E029
:10146000607800283BD13800F2BDA28A618A208AC8
:1014700001F02EF96946087068460078002823D1EB
:10148000A56102E06078002829D1F81CF2BDA28A8B
:10149000618A208A01F020F9694608706846007860
:1014A000002811D1A56102E06078002817D1F01E54
:1014B000F2BDA28A618A208A01F012F96946087099
:1014C00068460078002805D0220010322000FFF77F
:1014D00047F90AE0A5610AE06078002807D02200F9
:1014E0001032A11C2000FFF73BF93000F2BD701E46
:1014F000F2BD30B5464A1468494A531E951E411B39
:1015000002D0491E05D030BD2078401F032804D8E2
:1015100005E02620205C002801D0100030BD180016
:1015200030BD0000040003000300030005000300B9
:101530000600030002000600FEB584B00400684601
:1015400004A92CC92CC0324F3868364D6E1E049940
:10155000002911D06A08914210D0C0229202914213
:101560001AD0B14235D0A022D202914225D0C02259
:10157000D20291423AD045E0002042E005000598B1
:10158000FFF71DFE01902849884203D1B008009062
:10159000401C0190E86834E003900598FFF71EFEB8
:1015A00001902249884205D10398808839680885CE
:1015B000009601950398006B23E007000598FFF75C
:1015C00017FF01901449884201D100960195B8692E
:1015D00017E005000598FFF78CFF0190F11C884289
:1015E00002D10120E8620096E86A0AE00700059847
:1015F000FFF776FE01900E49884201D100960195D1
:10160000F86A029068460EC80EC407B0F0BD00002C
:10161000C0040020030005000B00050007000500C2
:1016200003000400010004000300020006000300A0
:101630000400060080B501F057F801BD80B501F047
:1016400085F802BD80B501F08BFB02BD1FB56C466D
:10165000A48C0394089C02946C46A48B01946C4661
:10166000248B009401F008FC1FBD1FB508AC247842
:1016700002946C46247F0194069C009401F000FDC6
:1016800004B010BD80B501F0BBFD02BD80B501F016
:10169000D9FD02BD0120704718B587B0109C069493
:1016A0000FAC247805946C46248F04946C46A48E69
:1016B00003946C46248E02946C46A48D01946C466F
:1016C000248D009401F002FE08B010BD18B587B05B
:1016D00010AC248806946C46A48F05946C46248F25
:1016E00004946C46A48E03946C46248E02946C463B
:1016F000A48D01940AAC2478009401F001FE08B096
:1017000010BD80B501F029FE02BD80B501F029FEB3
:1017100002BD80B501F029FE02BD80B501F029FEB1
:1017200002BD18B585B00CAC247804940BAC2478B9
:1017300003946C46248D02946C46A48C01946C46F0
:10174000248C009401F01AFE06B010BD80B501F0A3
:101750002BFE01BD80B501F04BFE02BD80B501F04E
:10176000C1FE01BD80B501F0BBFF01BD80B501F038
:10177000DBFF02BD80B501F0DFFF01BD80B501F0E8
:10178000FDFF01BD80B502F005F802BD80B502F095
:1017900045F801BD80B502F068F802BD80B502F0E1
:1017A00098F801BD80B502F09DF802BD80B502F049
:1017B000A9F801BD80B502F0B1F802BD80B502F014
:1017C000B9F801BD80B502F067F901BD80B502F03E
:1017D0007FF902BD80B502F097F901BD80B502F036
:1017E000ABF901BD0120704780B502F0DFF901BD02
:1017F00080B502F0F9F901BD80B502F02FFA02BD03
:1018000080B502F045FA01BD80B502F057FA01BD7E
:1018100080B502F06BFA01BD80B502F07FFA02BD1F
:1018200080B502F09DFA01BD80B502F0CDFA01BD90
:1018300080B502F0E3FA01BD80B502F02DFB02BDD8
:1018400080B502F055FB01BD80B502F07DFB02BD05
:1018500080B502F0A1FB02BD10B502F0E1FB10BDA6
:1018600010B502F0E4FB10BD10B502F0E4FB10BDB2
:1018700010B502F0E4FB10BDF8B596B005001700F6
:101880001E001C98049103A92B22885400200A9062
:1018900002950E9700960EE0252912D00498029A20
:1018A00090470490002800D1D2E00A98401C0A908A
:1018B0000E98401C0E900E9801780029ECD10A98E1
:1018C000C8E00020079008900990022608210191A5
:1018D000012404210E9D00E020436D1C2A78202A5B
:1018E000FAD0232A0AD02B2A04D02D2A04D0302A59
:1018F00008D00AE03043F0E70843EEE70200082092
:101900001043EAE702001020FAE72A2A0ED1009AD3
:1019100017683A683F1D009B1F600C92002A03D590
:1019200053420C93014308006D1C14E000210C91FC
:10193000004A0BE0CBCCCC0C0C9B934205DA9F0009
:10194000FB185B00591830390C916D1C29780B007D
:10195000303B0A2BF0D329782E2903D00021C9432C
:101960000B9127E06D1C29782A2908D10099096874
:101970000A68091D009B19600B926D1C1AE02D2945
:1019800002D12D236D1C00E0002300210B910CE0FF
:10199000002B09D10B9ABC4FBA4205DA9700BA184E
:1019A0005200511830390B916D1C29780A00303AD9
:1019B0000A2AEDD303A908852F783900B3A002F0D5
:1019C00045FB002801D038006D1C03AF2A21785454
:1019D000785C682805D12878682802D1622078547C
:1019E0006D1C10A806902A78681C0E90252A15D028
:1019F000582A52D0632A00D1BCE0642A00D17FE08B
:101A0000692A00D17CE06F2A47D0702A3AD0732A25
:101A100008D0752A41D0782A3FD0B5E0079410A9A4
:101A20000A70BAE0009800680468001D0099086018
:101A30000594002C13D12B20385C00280CD00024F6
:101A4000E44300BF93A002F00BFB201A00D1A4E0F6
:101A50000020C04317B0F0BD95A005909DE00B9D00
:101A6000002D03D5200002F01FFB09E02A00002111
:101A7000200002F021FB002801D0001B00E028001C
:101A800008908AE0009800680168001D009A1060C4
:101A9000039110A80590782168E0785C622803D053
:101AA000682809D06C280FE0009801680868091DB3
:101AB000009B1960C0B20DE0009801680868091D1C
:101AC000009B196080B205E0009801680868091D54
:101AD000009B19600390388D0199C0B2084240D034
:101AE000039800283DD020201043782839D107984A
:101AF00010A930230B54401C431C07930A5430E0B8
:101B0000785C622803D0682809D06C280FE0009820
:101B100001680868091D009B196040B20DE000983B
:101B200001680868091D009B196000B205E0009873
:101B300001680868091D009B19600390002802D500
:101B400007982D2109E0388D304202D007982B21CB
:101B500003E0C00705D50798202110AB1954401C9D
:101B6000079010A8079940180590110003A800F0ED
:101B7000A0F812E00794009800680168001D009A20
:101B8000106010A8017008E00794252010A90870C3
:101B9000100002D0079610A842700C980799401ABE
:101BA0000999401A0899401A0F902820385C40077C
:101BB00013D42020694608710F9800280DDD0F9C72
:101BC000029D012301AA03A9280000F0FAF80028C9
:101BD00000D03DE7641EF4D10295079D10AC002DA6
:101BE0000ED0029E227803A9300000F0D9F8002818
:101BF00002D4641C6D1EF5D10296002800D027E7A0
:101C0000302069460871099C002C0CDD029D0123DF
:101C100001AA03A9280000F0D4F8002800D017E793
:101C2000641EF4D10295059C089D002D0ED0029EE5
:101C3000227803A9300000F0B3F8002802D4641C15
:101C40006D1EF5D10296002800D001E72820385CEF
:101C5000400700D42FE62020694608710F9800281D
:101C600000DC28E60F9C029D0E9F009E012301AA26
:101C700003A9280000F0A5F8002800D0E8E6641EBB
:101C800000D105E6F2E70000CBCCCC0C686C747A8E
:101C90004C0000007072696E74665F733A20626176
:101CA0006420257320617267756D656E7400000095
:101CB0000000F0B583B00A00C4686F2901D108257F
:101CC00006E020211143782901D00A2500E01025E3
:101CD000182701680E00642A01D0692A03D100295F
:101CE00001D571420E00002E0CD1016A002909D1E4
:101CF000082D31D12821415C09072DD51727302126
:101D0000E17529E00290684602707F1E019730005D
:101D10002900FFF77DF93031C8B23A2803DB684665
:101D2000007851380918E15530002900FFF770F9A3
:101D3000060004D002988068E1198842E5D3029831
:101D4000082D09D12821415C090705D5E15D30291D
:101D500002D07F1E3021E1551821C91B4161E219D3
:101D60008260026A914206DA511A8161018D0B4A42
:101D70000A40028510E0002A0ED52822825C142336
:101D80001340102B08D1426A0369D21A8369D21A10
:101D9000511A012900DB816103B0F0BDEFFF0000A3
:101DA00010B503000C0011006068984760600028BF
:101DB00004D0E069401CE061002010BD0020C04359
:101DC00010BDF8B50024002B11D007000E00140040
:101DD0001D0021787068B8477060002809D0F0694C
:101DE000401CF0610020641C6D1EF2D10400200034
:101DF000F2BD0020C043F9E770477047F0B54F4F80
:101E00000446386885B078300D461646002C10D050
:101E1000062C14D0082C0FD0182C0DD0282C0ED046
:101E20002A2C0CD02C2C0DD02E2C0ED0D02C47D000
:101E300048E0062D0FD045E0102D0CD042E0022DD9
:101E400009D03FE0012D06D03CE0062D3AD1717952
:101E5000890903296FD100192A46314602F037F962
:101E60002C2C26D13078002823D002F044F9012808
:101E700022D01B201F304009401C41004118012086
:101E800002F03CF902F037F9012817D01B201F306F
:101E90004009410041182A484078401AC01EC1B28A
:101EA000002002F02BF93868F92240300178114007
:101EB0000170002005B0F0BDFB20DBE7FB20E6E76A
:101EC000012D04D002F017F9012804D005E01078A4
:101ED00002F020F9EEE7D12C02D02F2C1ED02AE000
:101EE000082D28D102223146684602F0F0F802227D
:101EF000B11C01A802F0EBF80222311D02A802F089
:101F0000E6F80222B11D03A802F0E1F868468389D1
:101F100002898188008802F00EF9CBE7012D0AD1F1
:101F20003078002807D0082805D2492239685201A4
:101F300089188876BDE71220BCE70000BC040020A9
:101F400064090020F0B55FA099B000685E49159063
:101F50005E4A08688418092212028218D26E254649
:101F6000403514922A7AD20702D0622019B0F0BD0F
:101F7000AA8B01235B029A4201D9AB8303E0172AA3
:101F800001D21722AA83149AA0301392067B0DE087
:101F9000761EF6B2139871010F18B8680F90384684
:101FA0002022002102F099F80F98B860002EEFD19E
:101FB00020460830E0606460A06024600830139020
:101FC00060612061FF220021083002F0B6F820464F
:101FD000FF220021243002F0B0F82046AA7F002121
:101FE000303002F0AAF82046FF2200213C3002F0F7
:101FF000A4F800222A7210461721334B05E0149EE4
:102000004701BE19401C7180C0B21E68A036367BE5
:102010008642F4D8002028832F8C688C00261490E8
:1020200008E02820E16C70430918204602F08DF882
:10203000761CB6B2BE42F4D3002608E03020216DF3
:1020400070430918139802F080F8761CB6B2149801
:102050008642F3D3012002F07FF801246846047021
:102060001B4941802346042269460CA802F080F8EF
:10207000002822D16846018E8182164901830426F8
:1020800006858475202108A881720024C472047317
:1020900007214173847305A90DA802F019F90028DE
:1020A0000BD1684604874687818E15AB0EAA008E39
:1020B00002F0ACFA002800D158E70020287247202F
:1020C00054E700000000FFFFBC040020640700008C
:1020D00001180000052A0000FFB50C4678A103C9CD
:1020E00095B001910090002108A801730321C90255
:1020F00068464186012108A8734E01743568174669
:10210000AE3502F0B7FA002808D17049306840189F
:1021100002F044FBA878002802D0462019B0F0BD98
:102120000BA81599FFF722FB0028F7D1072010A96B
:102130000871012C05D0022C0AD0002C0ED04220B0
:10214000ECE708A8017B1020014308A8017305E013
:1021500011A90BA8FFF796FA0028DFD110A8027981
:1021600001230CA9284602F003F800287ED10222A0
:102170002946189801F0ABFF29886846818115210E
:10218000490201820784012686734E2108A88170C6
:102190000024C470067107214171867103A902A849
:1021A00002F096F8002861D1022202A91E9801F0DF
:1021B0008EFF082F02D26846478502E00820694654
:1021C000488569460C850B4628880AAA098902F0C9
:1021D0001DFA00286DD13E49684601820227078416
:1021E00008A8847103A902A802F072F8002860D13F
:1021F000022202A91F9801F06AFF6846047069462E
:1022000044704F850B4628880AAA098902F0FEF916
:1022100000284ED108A8007BC00723D02C4968466F
:10222000C91C01820821018408A88770047103A9D0
:1022300002A802F04DF800283BD1FF216846C17189
:102240008171C1708170417001704471047169467F
:10225000082048850B4628880AAA098902F0D6F981
:10226000002826D108A8007B800600E021E022D5C6
:102270002988684681811649A531018206848673C2
:1022800008A88770C470047107214171847103A983
:1022900002A802F01DF800280BD169460E700C85CB
:1022A0004E850B4628880AAA098902F0AFF9002852
:1022B00001D0472032E708A8007BA87000202DE756
:1022C000626C75656E726721BC04002033070000E4
:1022D000012A0000FFB5002099B0239A0B901290BC
:1022E00005461490064615901C46DB480B460068D0
:1022F000DA49229F411803910021089109915188E0
:10230000069111880A913D2149014018007BC007C0
:1023100006D00FA9184602F04BFA00280AD102E0B5
:1023200047201DB0F0BD10AA0F991B9802F058FA73
:10233000002801D06020F4E71998002803D0600736
:1023400001D5012000E000201390A007800F1C9011
:10235000109817902030C078012840D11798C04BB2
:1023600001899942F9D11798069904680A98228C34
:102370004118914233D820462030169080780128A9
:1023800016D0E08B04901798806900788006800F43
:102390007ED0039840301890007A800778D51C983A
:1023A0000028F5D0AE4F0F99FF372031206814E098
:1023B000BA4214D3B942DDD80497E4E70389A84AA6
:1023C000934203D12322125C012A08D0BB4203D1DD
:1023D0002322125C012A03D000688842EED134E146
:1023E00005900028FBD09C48092102680902511879
:1023F000C96E0027009162E0780100990390085AA5
:1024000001055AD01999002901D0884255D1059962
:102410007A008B69511C595C9A5C0902891889B24F
:102420000D91890749D00222059902F0E8F90028A8
:1024300004D01998002840D0652072E7002008A930
:10244000C8551C98C00718D0179880690078C00636
:1024500013D50D98C00710D00120C8550543009A28
:10246000039880184088159A904206D91590009AD2
:102470000398105A0005000D14901C9880071CD575
:10248000179880690078800617D50D98800700E0BE
:1024900083E012D50220CA5D05430243CA55009964
:1024A0000398401840881599884206D915900099DC
:1024B0000398085A0005000D14907F1CFFB266486F
:1024C0000068A030037BBB4296D8002D65D01898D9
:1024D000007A00065FD460480168092000020818ED
:1024E000C16E00201BE042018E5A360515D0AE07A2
:1024F0000BD556183669B7070DD408AF3F5CBF0738
:1025000003D5360701D546200BE7EE0705D0521854
:10251000127CD20701D0432003E7401CC0B28342A3
:10252000E1D81598C01E86B20498864200D90646A6
:10253000A8070FD520220020149902F089F91290E3
:1025400000287DD0F01C82B20021129802F0A2F97E
:10255000002811D1E80720D020220020149902F091
:1025600077F90B90002807D0F01C82B200210B985D
:1025700002F090F9002810D0802001F0EDFD1298B3
:10258000002802D0002102F08DF90B98002802D01B
:10259000002102F087F96420C3E6A1690A98069A2F
:1025A0000818249901F093FD16988078012801D12C
:1025B0000498E083002D46D0274B092019680002BB
:1025C0000818C16E002008AA0CE04301CF5A3F054D
:1025D00006D05F18BC463B69175C3B4367463B61CE
:1025E000401CC0B21C4B1B68A0331B7B8342ECD841
:1025F000A8070DD512980090F01C82B221461C311C
:102600000220A36902F06CF90220129902F087F906
:10261000E80718D00B980090F61C2146B2B21C3186
:102620000120A36902F05CF91398002805D00B98EB
:102630008021C07C08430B99C87401200B9900E0ED
:1026400005E002F06CF900206BE6422069E680208C
:1026500001F082FD9FE70000BC0400206407000039
:102660000328000010B5012818D8072916D80C4AED
:10267000126813462033187759778007C906000E71
:10268000090E01430020074BA03204E08401E41846
:10269000A172401CC0B2147B8442F7D8002010BD48
:1026A000BC0400200001002010B50920C00600690C
:1026B0000002000A02F05AF910BD401AC010810051
:1026C000401800127047704710B502F061F910BD54
:1026D00010B502F093F910BD10B502F0C5F910BDA8
:1026E00010B502F0F7F910BDF3B589B00D4602F050
:1026F00021FA8002800A01218905084300226B46E5
:102700001024114601E0032A04D2D7000646FE40F9
:102710001E7000E01970521C5B1C641E2406240EFF
:10272000F1D1002304AA6946099800F08BFD032229
:102730006946281D01F0CBFC032204A9681C01F0A6
:10274000C6FC012028700BB0F0BD7047F0B5A3B0F7
:1027500001780E91456881681091C76801691E91E2
:102760004169059180690024189417940090FF2610
:1027700016941D940894A81C02F0E6F9297800022A
:102780004906C90F08433860681D02F0DDF90002F0
:10279000000A78602846083002F0D6F9297800024D
:1027A000C9090843029028460B3002F0CDF9000217
:1027B000000A03907A681002810F012902D139784A
:1027C000012900D000211391039909028B0F012BDD
:1027D00003D1029BDBB2012B00D000231593800FA5
:1027E00002D13878012800D000201B90880F03D137
:1027F0000298C0B2012826D0002128780507FB489E
:102800002D0F03681846FF301B302190F848181828
:10281000149000200F9012900C9001201A901C90A0
:102820000098426000983A680260F0480068199089
:10283000E030027C0B92002A00D0012211920B9A08
:10284000012A02D005E00121D7E7407C002800D111
:1028500001240E98002811D001284ED0032D02D05B
:10286000052D00D001240598007E03287ED0022883
:102870007DD001287CD004287AD09CE0032D06D09E
:10288000052D04D0042D04D0012D05D009E001242C
:1028900007E001200F9004E01198002801D10120E9
:1028A000129010981690801C18901098083017906D
:1028B000059820300079032810D001280ED000227E
:1028C0000C92059200280BD0012809D000201A9004
:1028D0000B98012806D0012D09D0A0E00122EFE7D6
:1028E0000120F4E7012D6FD1002900D001241598B3
:1028F000002801D101201290C1E0002D02D0012D4D
:1029000000D0012405982030007901280ED0002243
:102910000C921B9A002A01D0002809D001220592AE
:10292000159A002A06D0012D09D019E00122EFE7FF
:102930000022F4E7012D13D10B9A012A06D00B9A3D
:10294000002A0BD0159A002A08D009E02323199AEF
:102950005B01D2181279012A00D1012401221292BE
:10296000139A002A06D00B9A002A02E01CE019E014
:102970001CE006D1002801D101220F92139A002AEF
:1029800007D00B9A012A45D1002805D101201D90BE
:1029900002E00B9801283DD1012D78D100296ED09D
:1029A00001246CE0052D06D1012404E013990029CF
:1029B00008D0002A06D000210F91032D05D0052D47
:1029C00009D00FE00121F7E729E005992031497B83
:1029D000C90705D106E005992031497B890701D552
:1029E00001210C910C990591012112911099891CDA
:1029F000189110990831179110991691012A07D151
:102A0000012801D0042803D11B99002900D00124FA
:102A1000052D29D0012D32D00E98012837D01898D5
:102A200002F092F81699000209784906C90F084386
:102A300009901898C01C02F087F80002000A0A905A
:102A40000E98012823D0179802F07EF816990002FC
:102A50000978C90908430D901798C01C02F074F852
:102A60000002000A109020E013990029D7D0012815
:102A700001D00428D3D101200890D0E707E001213C
:102A8000199889024018C16D0991006ED7E71E9808
:102A900000691E9949690202CB03DB0F09041A433E
:102AA000090A000E01430D921091002C73D1139866
:102AB000002866D00B9800281CD01198002860D000
:102AC000786839680202012002F04AF8474B014653
:102AD0009D221868D2008218FF290CD0FE293ED012
:102AE000C8008018C6791498F100091807220098C8
:102AF00001F0EDFA83E0052D02D10E99022904D0F0
:102B0000F221095CFF2913D029E00121384602F0A7
:102B100077F841087F2903D0C10014980818E1E72D
:102B200008990598084301D0012468E0002466E074
:102B3000112189014118497EFF2910D1FF30072258
:102B40003946013001F0C3FA284800210068F2221A
:102B5000115401464031CA79EF231A40CA710E99C7
:102B6000012904D0059C4AE001200F9047E0232171
:102B700049014018C0790228D6D20C980028F3D019
:102B8000D2E71B98002802D00B98012804D0119896
:102B900000280CD104E039E00020059C1C902EE0B8
:102BA0002321199849014018007A002827D0786815
:102BB00039680202002001F0D3FFFF281FD0C100B6
:102BC00014980818C6793720219970434018017D60
:102BD000002900D0012120302091807D002809D0DB
:102BE00000201F90002907D009E00000BC0400204D
:102BF0006C0400000120F4E71F98002894D1574886
:102C00000168112080010818067546751198002882
:102C10004BD0FF2E0BD00898002808D04F480168F1
:102C2000112080010818807DB04200D001241D9839
:102C300000280BD0FF2E09D04848016811208001E0
:102C40000818807EB04201D0012447E0002C45D115
:102C5000159800282BD0012D29D14048029A0068F0
:102C6000C11DF9310B699A4205D1039A49691202D3
:102C700009028A421BD0112189014118497E1A9C00
:102C8000FF2912D1FF30072202A9093001F01FFAF3
:102C90003248EF23016808464030C2791A40C271B9
:102CA00011220020920189184876002C16D11C9818
:102CB000002813D00C98FF2E07D000280ED0372004
:102CC000219970434018807806E0002806D0786883
:102CD0000102386802F02CF80028B5D00F980028BF
:102CE0002AD00D983968884203D1109879688842B3
:102CF00022D01198002807D11848016823204001EC
:102D00000818007A002800D00120FF2E02D0209958
:102D1000002907D000221F99002905D00021052D88
:102D200017D103E00122F6E70121F8E7002810D0CF
:102D3000002A0ED000290CD0002C0AD112980028AD
:102D40000AD002990998884203D103990A988842C7
:102D500002D0012023B0F0BD0020FBE7BC0400201E
:102D6000F8B5FFF7A1FC434C074621680A468031BD
:102D7000886FCB6F381A1818C8674B6F000B9842D2
:102D800036D30020E032C8675074107C00282BD066
:102D90000025232676010BE03721694308180146F8
:102DA000FF31FF3040313030FFF79EFC6D1CEDB23B
:102DB00020688119097AA942EED800250BE0372155
:102DC000694308180146FF31FF3047311F30FFF7D4
:102DD0008BFC6D1CEDB220688119097AA942EED8EE
:102DE000216801208919887121680120E031487427
:102DF0002068F8210F5072B601464031CA7910237D
:102E00001A43CA7162B60146E0310A7C002A24D016
:102E1000897CFF25002906D1FF30013001F0F0FE4A
:102E20002068E030857411262168B6018819407E3B
:102E3000FF2813D0372250434018FF30FF310022C3
:102E40003030093101F080FF002808D021680020CF
:102E50008919C8752068801945760020F8BD20685A
:102E600001218219FF30D175013081680161C1688B
:102E70004161EFE7BC040020FFB595B000257C4818
:102E80000295039500880E4679494007C00D0C3124
:102E90004018C1890120400709184988FF230C18F0
:102EA000744837210268112080011018407D1B33BF
:102EB000414389185B5C0793E3799B09012B04D19B
:102EC00023785B0601D5012700E0002723235B015F
:102ED000D2185279012A17D9FF2815D01598002841
:102EE00004D0607B8009012805D00DE00622FF3167
:102EF00002A8413106E02078000605D521460622C9
:102F0000083102A801F0E3F8002F35D017983C28CB
:102F100000D105AE574F1120396880010818407D57
:102F2000FF2824D00622A11C684601F0D0F807989B
:102F30005149C5003868062228184118304601F06A
:102F4000C6F8386823212A1849015118097B37220D
:102F5000891CB171112189014118497D514308181B
:102F6000FF300622A11C483001F0B1F806E006222D
:102F7000A11C304601F0ABF8009501953D48A42115
:102F80000068095CC90701D0002700E010271799E5
:102F90000C9118990B9115990991716808230902F0
:102FA000090E0A9102A90791694606911E9913918B
:102FB0001F991291209980370903090C11912199C9
:102FC000C9B20F91F90603D50B22BF210F4009E0CA
:102FD0003921490141184A79920635D5C9798907BD
:102FE00032D509223907890E08180121C902401873
:102FF000C06C394601F0C2FE040025D00C99217145
:103000000B99E180099921720A99251D61720622A6
:103010003146A81D01F05BF8284606220C300799BE
:1030200001F055F8284606221230069901F04FF8B3
:1030300013992983129969831199A9830F99A97703
:103040002146384601F0F8FE179800280ED1706826
:103050000A4CC003C10F2068062281633146393013
:1030600001F035F820683830FEF79CFB19B0F0BD50
:10307000C0000020BC0400206D040000800400207B
:10308000FFB55C49964609685B4A8DB08D183922B8
:1030900052018A18944652791127169B04920C46C5
:1030A000BF010020179E9206A034CF190833002AD2
:1030B0000FDA6246D27952070BD50D9A012A08D948
:1030C0007246012A05D10E9A002A02D0FA7D002A02
:1030D0000BD0F022525C012A23D13F7DFF2F20D05C
:1030E0002079C00732D0002431E03A7D0120FF2A48
:1030F00019D06F4649C7372042435018FF3001307E
:10310000807EC00041183D480B182079C00701D0CF
:10311000002000E01020A12108437146109A10E021
:10312000012011B0F0BD694649C12079C00701D026
:10313000002000E01020A121169B084301227146C7
:103140009B1C01F08DFE002850D1E9E71024A1203E
:103150000443704607901098099037204743781829
:10316000FF300130807E0593C000421823480B9643
:103170001018089018980290032213301043401C36
:103180008308E00603D50722BF20044007E0049827
:103190008006C5D5604680798007C1D50522200705
:1031A000800E40180121C9024018C06C214601F070
:1031B000E5FD06001AD00798307109987071354600
:1031C000371D18350622B01D089900F080FF0298BF
:1031D0003872FD602846029A059900F078FF0B9836
:1031E00038743146204601F027FE99E7296A00200D
:1031F000087095E7BC0400203C0900006D04000045
:103200007CB50446E1200D46800001F06FFE0BA165
:1032100003C900900191684601F07AFE012001F097
:1032200097FE002801D047207CBD2078202108434C
:1032300020700920287000207CBD00001F020000C3
:103240000000000030B50D461C49144609681C4AB0
:1032500091B089180922D206096D1269891A194A92
:1032600009021288090A12070AD5002B08D1164A4A
:10327000FF39914204D32246294601F06DFE1AE03F
:103280000146102204A800F022FF1022294608A8B7
:1032900000F01DFF04A8009008A801900CA802905F
:1032A000002069460873684601F096FE10220CA9BA
:1032B000204600F00CFF002011B030BDBC040020FF
:1032C00058080000C000002002FF7F00F0B58DB05C
:1032D0009C4613ABF0CB08AB1A7301AAF0C2129A4A
:1032E00000920A460146634605A801F0AFFE002899
:1032F00004D105AA1899179801F0DAFE0DB0F0BDB7
:10330000FFB58DB0144618AAECCA04976F466CC777
:103310000A46014605A8179B01F098FE00280AD12D
:1033200008A84471012C08D0002C06D0022C04D02F
:10333000032C02D0422011B0F0BD09A806220230B1
:10334000109900F0C4FE08A916980873C0B20328AB
:10335000F0D805A801F0D8FEEDE710B501F006FFA2
:1033600010BD10B501F048FF10BD10B501F068FFA9
:1033700010BD10B5012201F087FF10BDF0B585B07A
:103380006C460A9F0B9E0E9D20806180A280E38088
:10339000278166810C98A0812A4668460D9902F023
:1033A00021F805B0F0BD704738B510480021046819
:1033B0000846AE3402F066F8694648702079C107C5
:1033C00004D001216A46117088432071C0B2810780
:1033D00005D502216A461170FD21084020710221A5
:1033E0006A46084602F084F938BD0000BC0400209B
:1033F000FEB539490922096812028A18936E6022C3
:1034000042439C18354A80018D1835492289461857
:103410004020005B2021895D521C228140006269AE
:10342000002700B2101A6061F07A4018C0B2252857
:1034300000D32538F072A079C0072ED0284640303E
:103440000090408E2189401A0004000C25D12448A8
:103450000C3800884007400F02F084F98446A079B8
:1034600040084000A0712846C030017A4908490050
:1034700001720099A3894A8DC98D0905090C9342EF
:1034800005D1A3698B4202D16346002B01D04027AE
:1034900001E008238373A281A161A079800719D577
:1034A0007620405B2189401A0004000C12D1802153
:1034B000495960350091A97E0191A179FD22114001
:1034C000A171314668460522213102F071F90120CF
:1034D000400507433846FEBDBC04002058080000E4
:1034E000CC000020F0B58FB0076841680A91794997
:1034F000794A0968008989180B91012109910021F5
:103500000891400514D50B988469C6692078617BC1
:1035100005072D0F8909012903D1C00901D0012018
:1035200000E000200890022D0CD9062D08D109E0FA
:103530000B983C6B066A207805072D0F042D01D0EF
:1035400000200990E0798009012804D12078400604
:1035500001D5012100E0002160480170E020C05D3C
:1035600000283DD001208646002084463078132173
:1035700000901DE000200D9042182318B25C9B784B
:103580009A4201D001220D92401CC0B20628F3D30A
:103590007046002804D00D98002801D0012000E0DA
:1035A00000208646891F6046401CC0B2C9B28446CE
:1035B00000988445DED3704600287AD00098401CDD
:1035C000C0B2042800D9042030701222711CF01DF2
:1035D00002F0EEF8314606221331A01C02F0E8F8A2
:1035E000062D02D0022D02D002E0022500E00325C4
:1035F00020784006C00F0490012D0AD06078801F0B
:10360000C606F60E3348F0210068095C012914D083
:103610002FE000266946204602F0D3F82D480068C6
:10362000E030007C0028EDD10098396888424FD105
:103630000198796888424BD11BE01121890141181A
:103640000A7DFF2A15D025490B78012B01D10223D1
:103650004B7037235A431218FF320132927E497859
:10366000D2001018232252018018007B4018C0B2EB
:103670000490099800282BD00A982037807B029666
:103680000094019038792A46049B0899FDF7EDFFD4
:1036900000281DD10A982146807B029008310D48F0
:1036A000009601910068A0300079C00702D0002088
:1036B00001E00DE01020A1210843A31C2946049A33
:1036C00002F08AF8002803D00B980021006A0170EC
:1036D0000FB0F0BDBC0400203C090000C80400206D
:1036E00070B50F4D0F49286841184030407B0028C5
:1036F00014D0C031897B082910D1002402E0400891
:10370000641CE4B2C107FAD0204602F0AFF8286882
:1037100001224030417BA2409143417370BD0000C3
:10372000BC0400205808000002780907090F0A436A
:10373000027000207047704730B50E4885B00568AC
:103740002C46AE352879BA34400711D5E87A0128DD
:103750000ED115214902684641800121017060881F
:103760006B46054A02F0D2F8002801D10220E87227
:1037700005B030BDBC040020FFFF00000348024933
:10378000C1600349416170477D3D05109C040020E4
:10379000954D05107FB5AC218172817B05468A0766
:1037A0002A350446002A09DA10220021684600F072
:1037B00094FC69462B460A46AD250FE0C80701D1A7
:1037C000480719D521464A312246E07A523200078D
:1037D00001D52B4601E023463A33AE25208900056A
:1037E000000D02F0D3F800280BD03A2801D00C28A5
:1037F00000D1002004B070BDC808C000A0734620EE
:10380000F8E7A17BCA0703D010221143A173F12569
:10381000C9B2C908C900A173A572EBE710B574213C
:10382000095CC9070BD1817AA42909D0AC2916D02B
:10383000AF2904D1417F002914D0D021817210BD5D
:1038400004461021543002F00FF9E07A00072046B8
:1038500002D5FDF7D5FF10BD02F016F910BDFDF73A
:1038600091FF10BD02F04AF910BD10B50368416820
:103870009A68FD20127B0B2A07D0022A0ED0032A59
:1038800013D0042A1ED0FC2010BD8A7A002A01D051
:10389000F12AF9D1184602F04DF910BD8A7AA12A11
:1038A000FBD1184602F090F910BD8A7AA52A05D0FE
:1038B000A22A01D0A42AF7D1FF2010BD184602F099
:1038C000B9F910BD8A7AA62AFBD1184602F0F2F99E
:1038D00010BD10B50146807AA92802D1002002F05F
:1038E000A9F910BD10B504460146042002F054FAAF
:1038F000FF2801D0012010BD2146042002F09CFACF
:10390000002010BD10B50146042002F045FA014622
:10391000FF2802D0042002F09DFB10BD00B5014637
:10392000042002F039FAFF2801D0012000BD002058
:1039300000BD7047F0B5574D0720296800020818F0
:10394000007F91B080076FD502F046FC01286CD152
:10395000002402F0E5FC064602F044FC012800D1F8
:10396000032430007ED0392702267F01012802D0AF
:1039700002287CD13BE06946022002F091FC032042
:1039800008A902F08DFC002C06D1F9212868C90095
:103990004118012002F084FC2868A421095CC907B1
:1039A00001D0002100E010210E436946112310913F
:1039B000F10603D50922BF210E4007E0C1194A795B
:1039C000920654D58979090651D507223107890E07
:1039D00009180120C0020818C06C314601F0CEF968
:1039E000070044D0381D3C714022109936E06946EA
:1039F000022002F055FC002C04D02022FF21684652
:103A000000F06BFB2868A421095CC90701D00021E4
:103A100000E010210E43694609230891F10605D5FF
:103A20000A22BF210E4009E029E030E0C1194A799D
:103A300092061CD5C979C90719D008223107890E09
:103A400009180120C0020818C06C314601F096F92F
:103A500007000CD03C71381D08992022401C00F052
:103A600036FB00E003E03946304601F0E5F9072077
:103A7000296800020818017FFD221140017772B603
:103A8000286880224030C1791143C17162B611B0FB
:103A9000F0BD0000BC04002010B5012813D10A4C71
:103AA00008222068817E11438176202207493C301C
:103AB00000F00DFB05492068202220315C3000F029
:103AC00006FB02F037FC10BDC4040020647F051023
:103AD00030B50446C07A0025000710D5208902F0D1
:103AE00039FC002801D0082509E0E07A01210843CB
:103AF000E072044804220068817E114381762846E2
:103B000030BD0000C404002010B50A4C2068807E3F
:103B100041060DD5902108420AD102F03BFC002855
:103B200006D12168BF22887E10408022104388760B
:103B300010BD0000C404002070B504680579E07A67
:103B400000072FD5208902F005FCE17A49084900D9
:103B5000E172154C002804D12168FB238A7E1A40AB
:103B60008A762168002D05D0CA7E1032CA760028D8
:103B700004D007E0C87E401CC87603E0887ECF22D0
:103B80001040887620680321C07E05090007000FD9
:103B9000FDF73EFA4019032804D302F019FC21680E
:103BA0000020C87670BD0000C404002070B50D4D23
:103BB0000178441C2868827E5206520E82760029C3
:103BC00002D002F005FC70BD02F00EFC002802D00D
:103BD00002F0B0FB70BD2868402221463C3000F066
:103BE00076FA70BDC404002070B51A4C02782368C0
:103BF000411C987EC00626D5002A05D01648002113
:103C00000068A030027B21E018462022D03000F06E
:103C10005EFA20682022817E114313E07C20DD6F54
:103C20004843281810D00589002D0DD0C57A2D06DF
:103C30000AD5012300220B2102F0DEFB2068CF22EF
:103C4000817E1140817670BD491CC9B28A42E5D897
:103C500070BD0000C4040020BC04002010B50B4A55
:103C6000016812688968927D4068C97B022A03D185
:103C70000A0701D4032010BD1823C27ADB4319437D
:103C80000A40C272FDF7A2FD10BD0000C40400206E
:103C900010B5C17F012908D0042906D0022907D018
:103CA000032901D102F0BEFB10BDA521817210BD18
:103CB000C17B491CC17301F0E7FE10BD10B5C17F87
:103CC000012908D0042906D0022909D0032901D1ED
:103CD00002F0A8FB10BD0146002002F0E9FB10BD78
:103CE000C17B491CC173B521817210BD38B514C8A0
:103CF000D07F02280FD10848D17B0068491E036994
:103D00000094CB40DB070146DB0F90313C3054324E
:103D1000803302F00AFC38BDC404002038B514C852
:103D2000D17F0023032904D00C480229006804D065
:103D30000AE0AA209072EB2038BDD17B0369491EAE
:103D4000CB40DB07DB0F803301463C3190306432DF
:103D5000009402F0EAFB002038BD0000C4040020FB
:103D60001CB50446C07F042806D0AA21022820D012
:103D7000012800D1A1721CBD01A800901048234663
:103D80000068224601466433543290313C3002F0E0
:103D9000F4FBB920A07201A802F01BFC0949FDF751
:103DA00037F920890A460105090D022002F01CFCA2
:103DB0001CBDE07B1428DDD2A420A0721CBD000035
:103DC000C404002040420F0038B514C80A48D17F0F
:103DD00000230068022906D1D17B0369491ECB402C
:103DE000DB07DB0F8033014690313C3064320094B6
:103DF00002F09BFB38BD0000C4040020FEB504683F
:103E0000416802918668C568BA2028700020306039
:103E1000E17F1F4804291ED002291BD10068E77BDF
:103E200001697A1ED140CB07029900910146DB0F50
:103E3000224654323C319030803302F076FB2146EA
:103E400010222A31029800F052F93060142F01D26A
:103E5000B4202870FEBD01A90091006823460146E8
:103E60002246643354323C31903002F086FBB92054
:103E7000287001A802F0ADFB0649FDF7C9F82089BA
:103E80000A460105090D022002F0AEFBFEBD00004E
:103E9000C404002040420F0070B5044613480025BA
:103EA0000268402128463C3202F0CAFB002804D0B8
:103EB00002F08EFAFFF728FE0DE0E07A4106890F46
:103EC00003290AD07421095DC90708D0400602D52C
:103ED000204602F0C5FB284670BD0125FBE78106A0
:103EE000F9D49B210840E072F2E70000C4040020EE
:103EF00010B50446807AAA280BD0BA2809D0B92870
:103F000010D07420005DC00702D12046FDF746FCAA
:103F100010BD204602F0DAFB0028F9D00123002270
:103F20000B210DE0E07F0428F2D1E07E410602D5AE
:103F3000BA20A07210BD0006FCD5012300220C217E
:103F4000204602F059FA10BD10B502684168936826
:103F5000FF201B7B0C2B03D00D2B14D0FC2010BD9D
:103F60008B7AA22B01D0B22BF9D174235B5CDB07D7
:103F7000CB7A05D05B06F2D4104602F0F9FB10BDF7
:103F80009B06F9D410BD8B7AAB2B01D0BB2BF9D19A
:103F9000104602F02FFC10BDF8B502684168926827
:103FA000FD20137B0E2B13D1CB7ADB0610D5CB7FF4
:103FB000022B0DD14B7E022B0AD174235B5CDB07F5
:103FC0008B7A06D0B22B0AD0B42B08D0B52B06D0F2
:103FD000F8BDA22B03D0A42B01D0A52BF8D10889C2
:103FE000392105050D484901006802264118C97BA1
:103FF0002D0D547B012349060ED502218F02083076
:10400000C0191C22C06C00F0B9FE010004D08D80E4
:104010008C71304600F010FF0020F8BDBC04002079
:1040200010B51C461346224602F01EFC10BD10B50A
:1040300002F04AFC10BD10B502F072FC10BD10B5C4
:104040001C461346224602F00FFC10BDC9B202788E
:104050008A4203D0401C002AF9D1002070477047E3
:1040600080B5002801D100BF07A006490B68002BCE
:1040700003D022220021984701E002F087FC222091
:1040800002BD0000AC090020636F6E737472616939
:104090006E742068616E646C65723A20626164209F
:1040A0006D65737361676500431C0178401C0942AC
:1040B000FBD1C01A70477047C9B2521E05D30378AE
:1040C000401C8B42F9D1401E70470020704710B54C
:1040D0000400FCF7B3FC200010BD10B5040008007C
:1040E00011000200200002F057FC200010BD80B536
:1040F000FCF766FF02BD002070477047044A0923A1
:1041000012681B02D218526E40008018417070472E
:10411000BC04002070B505460024204602F01AF9C0
:10412000002801D0462404E0012D02D10120FDF732
:1041300049FB204670BD4220704700230360436066
:1041400041720272C37283727047086042684A60AB
:10415000426811604160704704490A683D21490185
:1041600051180A7B02430A7370470000BC04002008
:10417000FFB58FB014460E78102205A8891CFCF7F5
:104180005DFC4F484F490068451802F02FFC00289D
:104190001ED1002C57D0012E09D16846808A4A4989
:1041A000884204D12846A968083081424BD128466C
:1041B000103029690390814209D00AA9284602F0EB
:1041C00031FC6846018D601E0D90814202D248206C
:1041D00013B0F0BD284608300CA9049002F022FC70
:1041E0006846008E002814D0EF680AA938461830B7
:1041F00002F018FC384620300CA902F013FC684687
:10420000398D008D09186846008E401C081887B249
:1042100000E0012701200004C01BA04201D2612060
:10422000D6E72C69286801901298012802D002284C
:1042300003D008E00520C00200E024486085012E7C
:1042400003D0022E05D04220C2E7204608300222C9
:1042500002E020460830102205A9FFF738FF20466B
:1042600031462030064601730F9821460780278586
:10427000039802F0E1FB21460498FFF766FF27460A
:104280001837E7616662A76126620D9884B20BE079
:104290002846019902F0D0FB38460199FFF755FFF7
:1042A0002868641EA4B20190002CF1D10F980188F7
:1042B0000D98081882B2002002F0CEFB002087E79C
:1042C000BC04002064070000011800000128000061
:1042D000F3B5A5B008881A9088780C461190102282
:1042E000091D13A8FCF7AAFBA08A1090A17D6846BF
:1042F0000172E07D0F90207E2090677EA07E1F904F
:10430000002006460146129020A801810F20BB4CD8
:104310002390BB4920684018199002F067FB0028E1
:104320000BD101211098490288425FD821A91A981F
:1043300000F03EFA002802D0602027B0F0BD21989E
:10434000179002F0ADFB1A9988420CD102A8019097
:104350001698009013AD0ECD119802F0A9FB00281D
:1043600001D06320E9E76846017A8806800F05D00E
:10437000012012902068A030007B4600C80703D0BF
:104380001298401CB61C1290080603D51298401CC7
:10439000B61C129017980DA918301D9002F042FB20
:1043A0006846129C808EA41CA04237D317980EA991
:1043B0002030019002F036FB6846018F00290DD0B5
:1043C0001798179A6B46406A9B8E128D5918808BEE
:1043D0005118081AA04201D26120AEE717988469EB
:1043E00011982568012803D0022803D04220A4E7B1
:1043F000052000E01320E0832A4639460F9802F09A
:104400008FFB422899D0199FE28B4037788B398BEC
:10441000411A109810188019814201DA48208CE75F
:104420000EA9019802F0FEFA6846008F002817983E
:1044300002D0406A808B00E0008D2599401C0880E6
:10444000259801210088A083259802220088401C1D
:10445000A8836C482081204620301790C17000212D
:10446000817081711998398B406D40186946A0613F
:10447000097A0170A06929461C31401CFFF727FE0C
:1044800011980128A0697DD0102213A9C01CFFF744
:104490001EFE2846102213A90830FFF718FE388B9D
:1044A000133038832E4620361198F0701098E88328
:1044B0001F98B07010982084109828841998398B10
:1044C000406D4018A8610021109AFFF706FE398B55
:1044D000109808183883179901200871179900203F
:1044E000487130716846007A810701D50121317128
:1044F00001070227002902DA317939433171410776
:1045000003D53179042211433171400603D5307946
:104510000821084330710F9870712098B0712146BE
:104520001D9802F089FA21460198FFF70EFE2946F0
:104530001D9802F081FA29460198FFF706FE1298AD
:10454000002841D068461A998181A18BC1810784D6
:104550004784012408A8047122A80A9008A884733B
:10456000239941730F993820014008A8017307214E
:10457000C173002505746846007AC00708D0224838
:10458000694600E02BE0088203A924A802F0D4FACF
:104590006846007A8006800F07D01B486946401E97
:1045A000088203A924A802F0C7FA6846007A000628
:1045B0000AD5292109026846018208A844730573B7
:1045C00003A924A802F0B8FA259801881298401C83
:1045D000081882B2002002F03FFA0020ADE6022265
:1045E00013A9C01CFFF773FD2846022213A9083047
:1045F000FFF76DFD388B401D53E70000BC04002021
:10460000640700000328000003290000F0B50746F6
:1046100017480E4600683D2149014018007B85B0CF
:104620001D461446C00706D003A9384600F0C0F85E
:1046300000280AD102E0472005B0F0BD04AA3046A8
:10464000039900F0CDF8002801D06020F4E7049928
:10465000228860880968002A00D0088C32466E469D
:1046600031C6032339460020FDF734FEE4E700009D
:10467000BC040020F0B5454C13252668ED017019E7
:1046800080690027416B4248AE368DB0814242D0EE
:104690000621684601F0E8F969464879C0210843D7
:1046A000694648712068062240198069243002F06A
:1046B000F3FA0746102105A801F0D6F92068102268
:1046C0004019806905A9001D02F0E6FA0743102190
:1046D00009A801F0C9F9206810224019806909A9C8
:1046E000143002F0D9FA0146394313D12068294920
:1046F00040198069264F4018800881002648081814
:104700003946049002F003FB04980068B84201D1D6
:10471000002700E0FB27226850198069A632243068
:104720000190062001460090002001F089FF00283A
:1047300002D12068A6300190701D009A0199FFF700
:10474000C6FC2268102631460020803201F078FF36
:10475000002807D020683246411989698030091D38
:10476000FFF7B5FC226831460020903201F068FF67
:10477000002807D0206832464119896990301431E9
:10478000FFF7A5FC38460DB0F0BD0000BC040020CA
:10479000AAAAAAAA3400FCEF0000041010B503492D
:1047A00006220968B331FFF792FC10BDBC0400205B
:1047B00010B5094A094B1268D2189368083206E00E
:1047C0001C8D844202D100200B6010BD1B689342F7
:1047D000F6D1412010BD0000BC0400206407000099
:1047E00010B50B6A203106E09C8B844202D1002078
:1047F000136010BD1B688B42F6D1412010BDF8B587
:1048000016460D460746002402F098FA002806D006
:1048100032462946384602F0B7FA044604E020350D
:104820006879002802D00E242046F8BD2879C107F7
:1048300001D1012E09D0810701D4022E03D04007F7
:10484000F2D4042EF0D10324EEE70224ECE7704703
:10485000F8B50D460E49092309681B02C9184E6EAA
:104860001F21521E0A431D3297B20024394602F01E
:10487000DBFA00280AD13946B06802F0FDFA044696
:1048800008340068A0600020E074A5802046F8BDD0
:10489000BC04002010B5121D806892B202F004FB27
:1048A00010BD7047F8B50E460C490922096812027E
:1048B0008918083807464C6E02F02CFB054639462D
:1048C000A06802F031FB72B67100605C401B60545E
:1048D00020794019207162B6F8BD0000BC040020A8
:1048E000F8B5069C1F4615460646002C13D0A06856
:1048F00002220D30FFF7EBFBE81E82B23B46072198
:10490000204602F02CFBE580A068012E05D01D2179
:1049100001730020F8BD4720F8BD1B21F8E77CB5E6
:104920000C4605466A4601A902F022FB002801D088
:1049300041207CBD6846E1888088814200D9E080C2
:1049400000980088A080204602F03AFB0098012DD4
:1049500007D001690822114302229143016100201E
:104960007CBD016949084900F8E7704710B507495F
:104970001D22096892018C18A169401A0002000AE0
:1049800002F034FB6169081810BD0000BC0400206F
:1049900070B586B00646462502F030FB040025D0EF
:1049A000202231460020FFF753FF06001DD00520CE
:1049B000C002694608800120024604900D4B314632
:1049C000204602F027FB050004D000213046FFF707
:1049D00069FF0BE001212069490308432061064873
:1049E000A061304602F0ECFA00E06425284606B0EB
:1049F00070BD0000FFFF00007D900510F7B586B088
:104A000017460646462502F0F9FA040025D0202272
:104A100031460020FFF71CFF06001DD010486946F4
:104A20000880012004903B4631462046079A02F058
:104A30002CFB050004D000213046FFF733FF0CE0CB
:104A4000A781012120694903084320610548A0612D
:104A5000304602F0B5FA00E06425284609B0F0BD02
:104A6000022800009B900510F7B586B01746064651
:104A7000462502F0C3FA040025D02022314600204A
:104A8000FFF7E6FE06001DD01048694608800120A9
:104A900004903B4631462046079A02F0F6FA05009C
:104AA00004D000213046FFF7FDFE0CE0A781012174
:104AB00020694903084320610548A061304602F09F
:104AC0007FFA00E06425284609B0F0BD0328000005
:104AD00087900510F7B517460646462502F08EFA70
:104AE000040022D0202231460020FFF7B1FE06004C
:104AF0001AD001983B46401C82B23146204602F053
:104B0000FFFA050004D000213046FFF7CBFE0CE091
:104B1000A781012120694903084320610448A0615D
:104B2000304602F04DFA00E064252846FEBD000044
:104B30009190051010B502F00BFB044602F008FB43
:104B40000004201810BD7047C3788278417800783F
:104B50001B021A43090212040843104370477047AE
:104B6000F0B4234B00281B6808D001280BD0022882
:104B70000CD0042833D02F24640108E01D481B18F2
:104B80009C4604230CE09D24E40000E01A4C1B1911
:104B90009C46032825D0042826D00423042825D0A9
:104BA0000F2701209840C3B200205B08C418E4B26C
:104BB000BC420FD2E50065442E686D682D02AA4202
:104BC00003D8AA4206D1B14204D32046B14201D152
:104BD000AA4202D0002BE8D1FF20F0BC7047074C5E
:104BE000D5E705231F27DCE70323D7E70827D8E706
:104BF000BC0400206C04000064050000DC0600001A
:104C0000F3B505468DB0FF20454C0390454920681B
:104C100047189D21C900401804902946022001F040
:104C2000BBF8FF284AD100200590232021684001CD
:104C30000918097A002931D9F879372148432168C0
:104C40002A79461838490E9B0A706A7930464A70AC
:104C5000FF30AA791F308A7006AA061FFEF7F2FA03
:104C60000322691C06A8FFF742FA002829D0307DEC
:104C7000012806D1072239462846FFF738FA0028CE
:104C80001FD005980837401CC0B20590232021682A
:104C900040010818017A05988142CDD8216800208A
:104CA000E03148742946022001F0C6F8226801214B
:104CB000E0325174FF2801D0FE20039003980FB01A
:104CC000F0BD0598039021680020E03148747178A8
:104CD000012001F0BFF915492068411809780F2912
:104CE0000CD19D23DB007822FF21C018FFF7F5F9D6
:104CF00027222168002052018918087129460120C5
:104D000001F09AF87070C2000498F9791018C17116
:104D100021680120E03148740398FF28BED0CDE718
:104D2000BC0400206C04000078090020E4040000AA
:104D30000A4610B501460320FFF712FFFF2801D0F5
:104D4000012010BD002010BD10B50C460B790A499A
:104D500084B00B7063794B70A3798B7013466A46ED
:104D6000FEF770FA0322611C6846FFF7C0F90028BD
:104D700000D0012004B010BD78090020FFB5044622
:104D800000262C4F83B09C460D46080616D572B6F9
:104D900001AB6A466146204602F0F7F900280BD0C5
:104DA000684681880098827892089200827001801B
:104DB0006180012662B615E062B621E001AB6A4669
:104DC0006146204602F0E1F9002819D0680609D4AE
:104DD00068468188009882789208920082700180EB
:104DE000618001260098AA00817840238907890FF5
:104DF0001A40114381700599C170002E0ED115E043
:104E00000020009072B6A8060FD401203968C002B5
:104E10000818816B08221143816362B672B6386844
:104E2000F7224030C1791140C17162B6009807B0D5
:104E3000F0BD0000BC0400200A46400608D5D0782A
:104E40003A280AD2111D054B80001B5810461847FE
:104E5000907880088000801C88707047CC730510A3
:104E6000FFB504230546C1061F4881B00C9E0068AB
:104E700003D50C22BF210D400CE039214901411816
:104E80004A79920602D5C979490702D4002005B0B3
:104E9000F0BD0A222907890E08180121C90240180D
:104EA000C06C2946FFF76AFF040019D002982071F0
:104EB00003986071271D0622A01D0499FFF707F9CA
:104EC0000A9838723846062209300B99FFF7FFF826
:104ED000FE7321462846FFF7AFFF002005B0F0BD66
:104EE000072005B0F0BD0000BC04002010B564210F
:104EF000064C4843216880314867FDF7D5FB21689F
:104F0000803188670020C86710BD0000BC04002005
:104F100070B50546002440782646022801D00428B2
:104F200003D1FCF7B7FB00280DD0084839210068F1
:104F3000490103192A5D5B18641CE4B29A71082CBC
:104F4000F7D3304670BD1126FBE70000BC040020FB
:104F500010B502F051F910BDF0B50F46B5B01546C9
:104F6000002130AA0F23445C5E1A491C9455102975
:104F7000F9DB1022694630A802F04EF90026B40091
:104F8000E019401CFFF7E0FD395D000208430321F2
:104F9000891B89002CAC761C6050042EEFDB214667
:104FA00010236A46084602F053F900200326311AFE
:104FB0008900635C8200AB54635A52191B0A537018
:104FC0006358401C1B0C93706158090ED170042863
:104FD000EDDB35B0F0BD704718B40168184ACB68F6
:104FE00013608C68012354604C6894600968D16038
:104FF0004168144ACC6814608C6854604C689460B2
:105000000968D16064216A4611700922D2066C4693
:105010002178491E21705169C90402D421780029E0
:10502000F5D122782270084A8168D4680C609468AF
:105030004C6054688C601268CA60037318BC704777
:10504000180000482800004838000048F0B5069EC7
:10505000079D059C0180144F091FB9421FD2428051
:10506000121FBA421BD211499A1F83808A4216D25C
:10507000A21FC4808A4212D29C4210D3FF21F43175
:1050800006818E420BD809494581091F0A3D8D4290
:1050900005D208998181099AC2818A4201D21220DF
:1050A000F0BD0020F0BD0000FD3F00007B0C0000C3
:1050B00038B5144B14461D680246AE35AB78462011
:1050C0005B071ED52B795B06DB0E1AD1104602F06A
:1050D000F1F9002815D10023207E6A46194602F016
:1050E00009FA00280DD16846007820760120207446
:1050F000204602F0EFFA002803D129790822114353
:10510000297138BDBC040020F8B505460027684663
:105110000770154846260468AE3420798006800F53
:1051200003D00021084600F0ADF9A078400718D55B
:1051300020794C21084214D10023287E6A46194662
:1051400002F0D8F900280DD16846007828762F742F
:10515000284602F0BFFA060003D120794021084317
:1051600020713046F8BD0000BC04002070B5044634
:1051700020484625066886B0AE36012C0FD0022C9A
:105180000DD0042C0BD0082C09D0102C07D0202CCB
:1051900005D0402C03D0802C01D0422527E0307967
:1051A000204224D0082C12D0402C10D00620012CF4
:1051B00003D0022C01D0802C04D1694608736846C4
:1051C00002F0D6FB0021084600F05CF901E002F095
:1051D000FBFB05000BD130790021A04330716846FC
:1051E00004744174022104AA084600F081FA28469A
:1051F00006B070BDBC040020F0B5104C46252468F4
:1052000085B0AE34A678760714D52679B3273E420A
:1052100010D102F0F5FB05000CD1207901210843E3
:1052200020710620694608730520C0020290684676
:1052300002F014FC284605B0F0BD0000BC040020BC
:10524000F0B5104C4625246885B0AE34A6787607B4
:1052500014D52679B3273E4210D102F0D1FB0500C8
:105260000CD1207902210843207106206946087379
:105270000520C0020290684602F0F0FB284605B007
:10528000F0BD0000BC040020F7B584B0072116462D
:105290000191009101F052FD040004D07420005DE2
:1052A000C00724D102E0402007B0F0BDA01C02F0EE
:1052B000E7FB00281DD0002E02D0A07B000616D4EC
:1052C000A27BD00613D4464D2868817D4B08194334
:1052D000C90702D0817E490709D400210291D10972
:1052E000C901A173A27A002A08D0F12A03D046206E
:1052F000DAE75920D8E7059AD2071ED0807EC0434E
:10530000800721D0208920220105090D0020FFF708
:105310009FFA07001AD0A020A072E07E2F2108403B
:10532000E0760598800703D5A07B20210843A07371
:105330002868002E0CD0417B0EE001200143A173B0
:105340002046FCF71FFAAFE73820ADE76420ABE753
:105350008030007B4007C10F2868827D53081A43C4
:10536000D207C37DD20F007B02F0ACFB064620467D
:1053700002F0B4FB0199009800910190227E33461F
:105380000121384602F0C8FB2146384602F0E0FB16
:10539000002802D04120029086E72968887EC24317
:1053A000920701D0401C88762046542200212030EC
:1053B000FEF793FE304618210840E072A07EF10708
:1053C00000D002210843A076E07E7107C90F084390
:1053D000E07628688030C672A120A072029863E748
:1053E000C4040020F7B500980F460188012620224A
:1053F0000020FFF72DFA040016D00098008802F074
:10540000C3FB050036D02879B84233D1A8784107CC
:105410002ED580072CD40298002808D0009802F0DE
:10542000CDFB002802D002E0642528E00026A06819
:1054300013210173A06800214773A06802278773B6
:10544000A068C173A068310A0674A0684174062080
:10545000E0802146052002F071FC002801D04125A2
:1054600009E0A878FB2108403843A870002506E031
:10547000462500E0422500212046FFF713FA284682
:10548000FEBD7047F3B5054693488DB0016893485B
:105490000F189248E4300C18FD20C0000818049042
:1054A000092000020818806E069002F06DFC064686
:1054B000E0210E98C8553046082E0AD2002D7DD125
:1054C00072B602F085FC62B6304602F055FD002649
:1054D000FFE0002D72D038468030C16802918668A6
:1054E00042200A9009907E48089000200C9002F01B
:1054F00081FD054605AB3246029902F095FD01217A
:105500000646490405E0800805900C98401CC0B28E
:105510000C9005988842F6D80C980599800440189C
:105520000B2109054018059078684021800A084041
:105530006949C01C0A681321C9015118896808709B
:1055400065480C2102681320C00110188068417062
:105550006148396802681320C00110188068801CF7
:1055600002F0ACFD5C4801681320C0010818816896
:10557000B8888871000AC871574801681320C001B3
:10558000081841689031A161416860313963416810
:105590003031E16140682062E16900200870216AD1
:1055A0000870A0696168E2685080E0680180388E08
:1055B000E168626850806068018000E088E04648E9
:1055C00001681320C00108180089216822685080F2
:1055D000206801800021099B2768C81D02463B54B2
:1055E0000A98E368985463689854059AE368081D1C
:1055F0001A54089A63681A54059A23681A540A9828
:10560000491C000A0A900998C9B2000A0990059835
:10561000000A05900898000A08900329DBD32E4859
:105620000168492040010B18987E002815D0E168D8
:105630006801C01C8872216868018872616888727C
:10564000E1680320C87221680122CA726168C872C9
:10565000082D39D2002E04D03BE0E16868011330F8
:10566000E8E72049A8014018002181729B7E002BA9
:1056700028D0DF0701D0252302E09B0722D526236F
:10568000C37223680382E3684382174BC361174BDD
:10569000836120231A54C1756020069B6843C0189B
:1056A000417172B6049BAA401B7D03241A43847087
:1056B000241F4481C1730498027562B6184602F033
:1056C00005FD06E02723DBE7002E02D1412600E09E
:1056D0000C2630460FB0F0BDBC0400205808000076
:1056E0002C01B000CC00002055555500D6BE898E47
:1056F000F8B5891ECDB20646A81C03210843401CFC
:105700008308174817460068F10603D51C22BF21FD
:105710000E4008E0392149014118897B090601D46E
:105720000020F8BD19223107890E08180121C9028D
:105730004018C06C3146FFF721FB04000ED03978C9
:10574000217179786171A5712A46B91CE01DFEF7B7
:10575000BEFC21463046FFF76FFBE1E70720F8BDAE
:10576000BC04002010B51149FD220968D200891837
:105770004C688B6842009C4204D1086B4C8A805A6A
:10578000A04201D0012000E000204B608B688B61BB
:105790004C6A8B89A3528C6ACB89A3520C6B4B8ABF
:1057A000A3520B8AC96A8B5210BD0000BC040020B2
:1057B00004E003780B70401C491C521E002AF8D1EB
:1057C000704710B50B460178CA09014608311846E2
:1057D00002F0E4FC10BD0000FFB581B006460A9857
:1057E000032113300843401C83081F48F10600685A
:1057F00003D50722BF210E400CE039214901411891
:105800004A79920602D58979890702D4002005B029
:10581000F0BD05223107890E08180121C902401880
:10582000C06C3146FFF7AAFA05001AD00298287119
:10583000039868712C462F1D18340622A81D049960
:10584000FEF745FC0A983872FC6020460A9A0B99CC
:10585000FEF73DFC0C98387429463046FFF7ECFA09
:10586000D4E70720D3E70000BC0400207CB5024643
:1058700023482449006845180921090241188B6E04
:10588000602151435C1800210091019172B6A1780A
:105890004907490F052901D062B67CBD2946C031B0
:1058A0008A737D2252024A8162B6052269464830D7
:1058B000FFF77EFF8020009941517A2101984855D9
:1058C000A0890622218950430930081886B2616BED
:1058D0000D480860606B05228660616B6846C91CD4
:1058E000FFF766FF60790121084360714035EE865D
:1058F000A0790221C006C00E0843A0717CBD000043
:10590000BC0400205808000003080100FFB589B05E
:10591000074646251E781022991C05A8FBF78EF82D
:10592000012E04D0022E02D042200DB0F0BD384628
:1059300001F064FB040024D0202239460020FEF749
:1059400087FF07001CD005AD04960FCD6D460FC52F
:10595000394620460B9B0A9A01F097FB050004D0BC
:1059600000213846FEF79EFF0BE001212069490324
:10597000084320610448A061384601F021FB00E0A3
:1059800064252846D1E70000AF900510FFB53348E5
:105990000E460068324987B045181F461446304607
:1059A00002F00BFC0190301D02F007FC0090207803
:1059B000617802AE0C0204430221079802F008FC51
:1059C00000213A783270491CC9B2761C7F1C10291C
:1059D000F7D3082802D302200BB0F0BDC035A97B55
:1059E000082901D20C20F7E71C4909220968120294
:1059F00089188A6E60214143511872B64A7992071C
:105A000002D062B63A20E7E77D2252026A81A8738B
:105A10004A6B144810600869020504D548790122D0
:105A20001043487103E001221203104308614A6BDE
:105A3000019850604A6B009890604A6B0298D06061
:105A40004A6B039810614A6B049850614A6B059841
:105A50009061486BC46162B60020BDE7BC040020C1
:105A60005808000003010A00F0B50E46074600245E
:105A700007E03D1901F06CFB2870000A6870A41C57
:105A8000E4B2B442F5D3F0BD30B50446008989B024
:105A90000105090D20220020FEF7DAFE050009D0DD
:105AA000E07A000709D568460590049404A8FBF73E
:105AB000AFFE08E0642009B030BD21466A4654318B
:105AC000204602F0C9FB1120E880A8680321017379
:105AD0006B4610220521284601F041FA214628464E
