:020000041004E6
:10000000006000209B140410A1130410AD13041011
:10001000AA5555AA45554C420000000000000000BA
:10002000000000000000000000000000C1130410E8
:10003000000000000000000053060410C313041069
:10004000AB060410C306041000000000000000000E
:10005000070704104B11041031140410BF140410CE
:100060000000000000000000000000000000000090
:1000700000000000C1140410C3140410C5140410BF
:10008000000000005B140410A7140410B91404103D
:10009000BB140410BD140410C7140410C5130410BD
:1000A0000000000000000000000000000000000050
:1000B0000000000000000000000000000000000040
:1000C000F8B596B0050017001E001C98049103A90E
:1000D0002B22885400200A9002950E9700960EE07D
:1000E000252912D00498029A90470490002800D144
:1000F000D2E00A98401C0A900E98401C0E900E9870
:1001000001780029ECD10A98C8E0002007900890F7
:100110000990022608210191012404210E9D00E08E
:1001200020436D1C2A78202AFAD0232A0AD02B2AB1
:1001300004D02D2A04D0302A08D00AE03043F0E75A
:100140000843EEE7020008201043EAE7020010200F
:10015000FAE72A2A0ED1009A17683A683F1D009BD9
:100160001F600C92002A03D553420C9301430800F0
:100170006D1C14E000210C91004A0BE0CBCCCC0CA0
:100180000C9B934205DA9F00FB185B00591830392D
:100190000C916D1C29780B00303B0A2BF0D3297889
:1001A0002E2903D00021C9430B9127E06D1C29782B
:1001B0002A2908D1009909680A68091D009B19605D
:1001C0000B926D1C1AE02D2902D12D236D1C00E02D
:1001D000002300210B910CE0002B09D10B9ABC4F9E
:1001E000BA4205DA9700BA185200511830390B910B
:1001F0006D1C29780A00303A0A2AEDD303A9088534
:100200002F783900B3A000F01BFA002801D0380085
:100210006D1C03AF2A217854785C682805D12878B2
:10022000682802D1622078546D1C10A806902A78A4
:10023000681C0E90252A15D0582A52D0632A00D166
:10024000BCE0642A00D17FE0692A00D17CE06F2AFB
:1002500047D0702A3AD0732A08D0752A41D0782A1C
:100260003FD0B5E0079410A90A70BAE00098006882
:100270000468001D009908600594002C13D12B2000
:10028000385C00280CD00024E44300BF93A000F0A9
:10029000E1F9201A00D1A4E00020C04317B0F0BD5E
:1002A00095A005909DE00B9D002D03D5200000F04A
:1002B000F5F909E02A000021200000F0F7F90028F4
:1002C00001D0001B00E0280008908AE00098006838
:1002D0000168001D009A1060039110A80590782114
:1002E00068E0785C622803D0682809D06C280FE0A9
:1002F000009801680868091D009B1960C0B20DE0F4
:10030000009801680868091D009B196080B205E02B
:10031000009801680868091D009B19600390388DDA
:100320000199C0B2084240D0039800283DD0202057
:100330001043782839D1079810A930230B54401C5A
:10034000431C07930A5430E0785C622803D0682885
:1003500009D06C280FE0009801680868091D009B0F
:10036000196040B20DE0009801680868091D009B03
:10037000196000B205E0009801680868091D009B3B
:1003800019600390002802D507982D2109E0388DC7
:10039000304202D007982B2103E0C00705D507980B
:1003A000202110AB1954401C079010A80799401841
:1003B0000590110003A800F0A0F812E0079400983F
:1003C00000680168001D009A106010A8017008E024
:1003D0000794252010A90870100002D0079610A8D5
:1003E00042700C980799401A0999401A0899401AC6
:1003F0000F902820385C400713D4202069460871EC
:100400000F9800280DDD0F9C029D012301AA03A96E
:10041000280000F0FAF8002800D03DE7641EF4D16F
:100420000295079D10AC002D0ED0029E227803A9E4
:10043000300000F0D9F8002802D4641C6D1EF5D1FC
:100440000296002800D027E7302069460871099CF1
:10045000002C0CDD029D012301AA03A9280000F055
:10046000D4F8002800D017E7641EF4D10295059C4B
:10047000089D002D0ED0029E227803A9300000F0C6
:10048000B3F8002802D4641C6D1EF5D10296002832
:1004900000D001E72820385C400700D42FE6202058
:1004A000694608710F98002800DC28E60F9C029D21
:1004B0000E9F009E012301AA03A9280000F0A5F8C1
:1004C000002800D0E8E6641E00D105E6F2E700004F
:1004D000CBCCCC0C686C747A4C0000007072696EE6
:1004E00074665F733A2062616420257320617267CD
:1004F000756D656E740000000000F0B583B00A00F1
:10050000C4686F2901D1082506E02021114378290C
:1005100001D00A2500E01025182701680E00642A82
:1005200001D0692A03D1002901D571420E00002EA5
:100530000CD1016A002909D1082D31D12821415C53
:1005400009072DD517273021E17529E0029068466B
:1005500002707F1E01973000290000F0B3F830319F
:10056000C8B23A2803DB6846007851380918E155CB
:100570003000290000F0A6F8060004D00298806838
:10058000E1198842E5D30298082D09D12821415C60
:10059000090705D5E15D302902D07F1E3021E155E4
:1005A0001821C91B4161E2198260026A914206DA90
:1005B000511A8161018D0B4A0A40028510E0002A20
:1005C0000ED52822825C14231340102B08D1426AD6
:1005D0000369D21A8369D21A511A012900DB816199
:1005E00003B0F0BDEFFF000010B503000C001100D8
:1005F000606898476060002804D0E069401CE061B2
:10060000002010BD0020C04310BDF8B50024002B11
:1006100011D007000E0014001D0021787068B84743
:100620007060002809D0F069401CF0610020641C53
:100630006D1EF2D104002000F2BD0020C043F9E796
:10064000C9B202788A4203D0401C002AF9D10020A6
:100650007047704780B5002801D100BF07A0064948
:100660000B68002B03D022220021984701E000F004
:1006700044F8222002BD000080000020636F6E73EA
:10068000747261696E742068616E646C65723A2080
:10069000626164206D65737361676500431C017856
:1006A000401C0942FBD1C01A70477047C9B2521EA4
:1006B00005D30378401C8B42F9D1401E70470020BF
:1006C00070477047094214D088420FD30122030CAF
:1006D00001D100041204002300185B418B4200D3B7
:1006E0005B1A5241F8D31900100070470100002036
:1006F000704708B500F006F808BD80B5012000F08D
:1007000003F801BD7047704780B500BF00BF024AC3
:1007100011001820ABBEFBE72600020010B5C20096
:1007200018231340FF249C40E2438907090E994097
:10073000030004D55A481B071B0F083B00E09948EB
:100740009B089B00C01803681A401143016010BD4C
:10075000FEB5002653480660032400F0B7F9694649
:10076000088068460088002801D1641EF5D16846DB
:100770000088202837DB68460088012401254005D1
:1007800025D4684600F002FA68464178090180786D
:100790000843122800DA002583480068000705D4C2
:1007A000002D14D0012000F062F810E07F4FF868AF
:1007B0007F4E3168081A283800020012002806DD32
:1007C000002D02D0012000F052F8306838607948DE
:1007D000047000F064FABFF34F8F7748A4490860B3
:1007E000BFF34F8FFEE70120FEBD10B500220021B0
:1007F000A04804E00B00415C5918491CC9B2435C95
:10080000002BF7D1CB1C202B12DA022343542123D7
:10081000441863700823A3704318DA70964A802343
:100820005B02401880B21843106010681840FCD179
:1008300010BD70B5002100238E4A04E01C00D35C7B
:10084000E3185B1CDBB2D45C002CF7D10225352405
:10085000DE1C202E05DAD554D6187470B070D2186C
:10086000D170864A157054709070D17070BD70B59B
:1008700080214902814B9CB20C437F4A002804D05E
:100880001460106808400AD0FBE798789D78FB2632
:100890002E409E70146014680C40FCD1987070BD9E
:1008A0001CED00E014000020F8B58AB005000C0033
:1008B00003A800BF79A11C2200F016FA684600F0D8
:1008C00065F96D4E002D54D003A8402181734C2151
:1008D000C17220210172B22141745B210175684906
:1008E0008B6B684A1D0C954209D1C57D8F272F401F
:1008F000C775C57D1B0170271F402F43C7754B6B04
:100900001D0C954209D14579CF272F404771457974
:100910001B0130271F402F43477109680B0C93427E
:1009200008D1C27DFC231340C375C27D8907890F9E
:100930001143C175C17AFB220A40C27269464A78E6
:1009400012018D781543112D06DDC17D04220A4365
:10095000C275C07DFFF76DFF8020400203A989B2F8
:100960000143316031680140FCD1112D01DDFFF7F9
:100970003CFF124881890029FBD001218181172188
:10098000018000214160002C07D07068102172683E
:100990000A40102303409A42F9D03B483B49086083
:1009A0000BB0F0BD00E400E0C000002004000048EF
:1009B000180000200C0000200400FA050C0010486C
:1009C00080B508203249088003210120C043FFF789
:1009D000A5FE03210020C043FFF7A0FE0321002055
:1009E000FFF79CFE03210120FFF798FE032104205E
:1009F000FFF794FE03210520FFF790FE002106205B
:100A0000FFF78CFE03210720FFF788FE03210D204E
:100A1000FFF784FE03210E20FFF780FE03210F2045
:100A2000FFF77CFE03211120FFF778FE032112203F
:100A3000FFF774FE03211320FFF770FE032114203B
:100A4000FFF76CFE03211520FFF768FE0321162037
:100A5000FFF764FE03211720FFF760FE012101204C
:100A6000FFF722FF0B480C49086062B601BD000089
:100A70000CED00E05C0000200C0000481C00002091
:100A8000B007001055AA0000CCBCECFC14000020FC
:100A90000400104066000E0020009040023F00025B
:100AA0003E30023C20023B4C023A400239B2023452
:100AB0005B02350B00000000304A0129116802D1A9
:100AC0000843106070478143116070472C480278DA
:100AD0002C4801880020002A44D109220A40092A12
:100AE00000D1202011220A40112A02D10200402008
:100AF000104321220A40212A02D102008020104303
:100B000041220A40412A03D10200802040001043C4
:100B100081220A40812A03D10200802080001043F4
:100B2000FF22921C13000B40934203D1020080204D
:100B3000C0001043144A13000B40934203D102003B
:100B400080200001104305220A40052A02D102003C
:100B5000102010438907890F03290ED101000820B6
:100B600008437047022A01D101207047042A01D1AD
:100B700002207047082A00D10420704720009040CE
:100B80000800904008001048010400000F21274A87
:100B900013681B090B404370136819408170D268B9
:100BA00042600121224B9A4208D1224A1268224B0C
:100BB0009A4201D1042202E0022200E001220270E6
:100BC0004278002A00D141701C490988491C8900DB
:100BD0008160704710B51A4C2100282200F084F87B
:100BE0000020206010BD70B500230024144AA50029
:100BF0005351641C0A2CFAD3116050600223C026A2
:100C0000F60199004418083CE0252D066519B54207
:100C100001D2246854505B1C0A2BF2D3BFF34F8FD0
:100C2000084809490860BFF34F8FFEE71C00904059
:100C300041A000021C00001044A000F2140010406B
:100C4000340000200400FA050CED00E0EFF31482FC
:100C5000EFF30981002080F31488BFF36F8FF0B5A4
:100C600043464C4655465E466746F8B4164CEFF38D
:100C70000883236006B4154C2068154C2060154C81
:100C80002068154C2060154C2068154C2060154CD0
:100C9000276800202060BFF34F8F30BF27600A4CC9
:100CA000246884F3088882B003BCF8BC9846A14647
:100CB000AA46B346BC46F0BC04BC80F3098881F365
:100CC0001488BFF36F8F10470800002004ED00E088
:100CD0002400002024ED00E02800002000E200E0D5
:100CE0007C0000200800204070B4103A03D378C97B
:100CF000103A78C0FBD2530701D318C918C001D5E8
:100D000008C908C0D20704D30B880380891C801C43
:100D1000002A01D50B78037070BC70476149002828
:100D2000086803D0012202430A6070470122904301
:100D300008607047F0B50400216801255A4E5B48F1
:100D40007269D2082A4001D1090100E0C900FFF709
:100D5000B9FCC10931810904490A401A401C400804
:100D600081B23F2902DD3F388006800E307360205B
:100D70009F21327C0A4023795B0103401343337483
:100D800032781140627952011040084330700821D6
:100D9000F720327C0240A379DB0008271F4017436D
:100DA000377432781040A279D2001140014331707B
:100DB000E179002907D1FD20317C0140317431787F
:100DC000084030701CE002200229317C0BD1014325
:100DD0003174FB21327C0A40327432781043307017
:100DE000307801400BE0014331740421327C04234C
:100DF00013433374327810433070307801433170CC
:100E000070692B490140207A2840400208437061F4
:100E1000706928490140207A4008284000020843B0
:100E20007061706924490140607A2840800308435A
:100E30007061706921490140607A40080540E8030B
:100E4000084370611020EF21327C0A40A37A1B0115
:100E500003401343337432781140A27A12011040D8
:100E600008433070F0BDC005C00D154908807047BB
:100E700001001448002901D5006800E0808AFFE7DE
:100E80000140080000D00120C0B270470E490A7826
:100E9000C7231340C0003822FFE702401A430A70FC
:100EA00070470000300030401C0030400000127AD3
:100EB000FFFDFFFFFFFEFFFFFFBFFFFFFF7FFFFF05
:100EC0000000304004003040340030404372617311
:100ED0006820496E666F207369676E61747572650C
:100EE000203D2030782530386C780D0A0000000055
:100EF000437261736820496E666F20535020202032
:100F000020202020203D2030782530386C780D0AB4
:100F100000000000437261736820496E666F2052C2
:100F20003020202020202020203D203078253038FF
:100F30006C780D0A00000000437261736820496EEE
:100F4000666F20523120202020202020203D20309C
:100F5000782530386C780D0A000000004372617308
:100F60006820496E666F20523220202020202020E9
:100F7000203D2030782530386C780D0A00000000C4
:100F8000437261736820496E666F205233202020BF
:100F900020202020203D2030782530386C780D0A24
:100FA00000000000437261736820496E666F205232
:100FB0003132202020202020203D2030782530385C
:100FC0006C780D0A00000000437261736820496E5E
:100FD000666F204C5220202020202020203D2030F1
:100FE000782530386C780D0A000000004372617378
:100FF0006820496E666F205043202020202020204A
:10100000203D2030782530386C780D0A0000000033
:10101000437261736820496E666F20785053522086
:1010200020202020203D2030782530386C780D0A93
:101030000000000048656C6C6F20576F726C643A5A
:1010400020426C75654E52472D2564202825642E5C
:101050002564292069732068657265210D0A0000E6
:1010600010B504002020FFF703FF0128FAD020006C
:10107000FFF7F9FE10BD78B585B004000121092005
:10108000FFF71AFD00F066F81E4980000818001FDF
:101090000068009000F05EF86D461B49800008185B
:1010A000001F006828710026AE716E71684600F05E
:1010B00057F800F04FF8154980000818001F006825
:1010C000009000F047F8124980000818001F0068DF
:1010D0002871684600F044F80294032002A90871C0
:1010E0004871CE804E7208720120887202A8FFF704
:1010F00021FE0020FFF7CAFE0120FFF70FFE06B019
:1011000070BD0000A8140410AC140410B014041036
:10111000B414041070B50024012804D0022802D0B1
:101120000020C04370BD002901D1002070BD0D001A
:10113000160004E02878FFF793FF6D1C641C300054
:10114000461E0028F6D1200070BD704701200349DB
:101150000870704701480078704700008400002044
:10116000F0B5047922000021224B002C04D11C6828
:101170000568AC431C6006E0062C04D100221C6804
:10118000056825431D600568CD40ED071AD508297F
:1011900009DA8D009E6A0F27AF40BE431700AF40AB
:1011A00037439F620EE00D00083D082D0AD20D0066
:1011B000083DAD00DE6A0F27AF40BE431700AF40C9
:1011C0003743DF62491C1A29DDDB01684279012AB5
:1011D0009A6802D11143996001E08A439A600168DC
:1011E00080790128586802D101435960F0BD8843D5
:1011F0005860F0BD0400004030B58DB00025FFF709
:10120000DFFB0AA8FFF7C2FCFFF7A0FFE1204002C6
:10121000FFF731FF6846FFF7DDFC254C0098000C16
:1012200000042449884235D123A000F055F80099E4
:10123000200000F051F801992000243000F04CF813
:1012400002992000483000F047F8039920006C30E4
:1012500000F042F804992000903000F03DF8059924
:101260002000B43000F038F806992000D83000F0A3
:1012700033F807992000FC3000F02EF808999020F0
:101280004000201800F028F80999A22040002018FA
:1012900000F022F80AA8837842780178B420400050
:1012A000201800F019F86D1C2D032D0BFBD1F1E770
:1012B000CC0E04100000ECBC4170706C696361746A
:1012C000696F6E206372617368206465746563740E
:1012D00065640D0A000000000EB4C0B5020003A84A
:1012E00001900020009001AB0121044878440C30AB
:1012F000FEF7E6FE029906B0084700BF890100002C
:1013000070B40123002413E00168001D194202D0CB
:101310004D466D1E49190C60091D121F042AFAD290
:101320000D00960701D50C80AD1C1A4000D02C7022
:101330000268001D002AE7D170BC704730B5016813
:101340004118446862088A188368E40704D54C464B
:101350001B1901E0641C06D191420BD00C7864B2D9
:10136000491C0D78491C1D705B1C002CF2D4641EB6
:10137000F7D5F1E70C3030BD10B507497944183185
:10138000064C7C44163404E0081D0A688918884716
:101390000100A142F8D110BD30000000940000000F
:1013A0000549EFF30880FFF71EFCFEE70349EFF362
:1013B0000880FFF718FCFEE70100ECBC0200ECBC63
:1013C000704770477047000039FFFFFF04000000BE
:1013D00008000020040000000C00002004000000B1
:1013E0001400002004000000180000200800000085
:1013F0001C00002004000000300000200800000055
:10140000240000202C0000005C00002000000000F0
:101410002DFFFFFFB400000014000000C0000020FA
:101420001DFFFFFFAE0000000A00000010000020BA
:1014300070470000FFF78CF9002801D0FFF79CFFF0
:1014400000BF00BF002000BF00BFFFF7D5FE00F0C7
:1014500000F880B500F002F801BD70470746384635
:10146000FFF752F9FBE780B56946087001220120B9
:10147000FFF750FE012802D16846007802BD002027
:10148000C04302BD38B505000C002000FFF7EBFF9C
:10149000A04200D00025280032BD00BF00BF00BF21
:1014A00000BFFFF7C7FF7047000100000100000008
:1014B0000008000001000000704770477047704747
:1014C000704770477047704781008100810081003C
:0714D000F00003000004100E
:040000051004149B34
:00000001FF
