:020000041004E6
:100000000060002075330510DB280510DD28051081
:10001000AA5555AA45554C420000000000000000BA
:10002000000000000000000000000000DF280510B4
:1000300000000000000000005B180410E12805101B
:10004000E9280510732804100000000000000000DB
:10005000FD280510D32F041005290510633804105E
:100060000000000000000000000000000000000090
:1000700000000000DB3904106B3A04103F3B041011
:100080000000000057340410AB3404107335041022
:100090008B350410233804105B450410FB28051031
:1000A0000000000000000000000000000000000050
:1000B0000000000000000000000000000000000040
:1000C00076B588B004001D0005A8801C50A10A88E0
:1000D0000280042C01DD422098E00F9A06210020C6
:1000E00000F050FE0100F7D100F050FE0100F3D106
:1000F00004A8801C019005A8009004ABEAB200217E
:10010000012000F047FE0100E6D1022208A906A85E
:1001100000F058FE06AE08A8801CB11C02780A70D8
:1001200042784A70022208A8011D301D00F04AFEE4
:1001300008A8801DB11D02780A7042784A7006A88E
:1001400003900820029000200190082000900023D6
:100150000A226846018A002000F05BFE0E98039098
:10016000E8B2029000200190EDB2009500236846AD
:10017000828A018A002000F04CFE05A8801C0390B2
:100180000220029000200190022000900023684687
:10019000428A018A002000F03CFE0421012000F088
:1001A00049FE010032D1200000F048FE05005E4EFD
:1001B0005C21300000F05AFE347030004C3069464B
:1001C000098C018008A94988418008A98988818013
:1001D00008A9C988C180554C00202070607068460D
:1001E0000021017061784170009801F02FF80090B3
:1001F00068460178217041786170102020701120CC
:1002000060701021002000F057FE28000AB070BD79
:10021000C0030000F4B58EB007000C004448056828
:1002200007A800BF2AA10A6802603F4E22000E996B
:1002300030002F3000F0E0FD2E20345408A80921B2
:1002400001702E21725C0E99401C00F0D5FD07A8AC
:100250001221417018218170344C2078102801D06F
:100260000C2532E00020002129706F70A8702E202C
:10027000305C401C012F0691059107A904910DD116
:100280000321039108A90291C0B2019000200090BF
:1002900000235022302101F037F90CE003210391B3
:1002A00008A90291C0B201900020009000235022C2
:1002B000302101F04AF9050007D1202020702120CB
:1002C00060702021102000F0F7FD28000FB0F0BD75
:1002D000020000001CB5154C684621780170617859
:1002E0004170009800F0B2FF0090684601782170DC
:1002F0004178617013BD00B585B00E4B18704B1E70
:100300009B41DB0F00210491039202931021019184
:1003100007210091002300220100012001F036F99D
:1003200005B000BD00000000F40300205C040020C4
:100330005004002016040020F6B59DB00F0041784F
:100340006A4611760678034813A90880300003D066
:10035000052302E00F1800000423AA4800900122A0
:10036000012001F05DF9010055D10425A64C2220A1
:10037000205C002800D00525A44869468887201DF8
:100380000590002004901020039000200290019519
:100390001220009001230FAA0121608801F05BF96F
:1003A000010038D1002E23D06846007EA071984805
:1003B0006946888509A8801C097E01700121417069
:1003C0000AA80890002007901020069000200590B1
:1003D0000491039509A8801C0290022001900090CE
:1003E0000BAB0122A188608801F054F9010012D101
:1003F000642009A9087009A8039001200290002038
:100400000190012000900023A2886188002000F064
:1004100000FD010002D0010000D080E3B948694628
:100420008885794C2000083000900B2301220BA90D
:10043000012001F0F5F8010052D104252220205CB2
:10044000002800D00525B0486946888306A8059095
:1004500000200490102003900020029001950220BB
:100460000090092307AA0121208901F0F4F8010076
:1004700036D10397092002900020019009200090B6
:1004800000236846028B2189002000F0C2FC010095
:1004900026D19E486946888306A8059000200490CE
:1004A0001020039000200290019502200090042368
:1004B00007AA0121208901F0CEF8010010D13800EF
:1004C0000930039004200290002001900420009045
:1004D00000236846028B2189002000F09AFC01006D
:1004E00077D18B486946888306A805900020049040
:1004F0001020039000200290019502200090042318
:1005000007AA0121208901F0A6F8010061D1380075
:100510000D300390042002900020019004200090F0
:1005200000236846028B2189002000F072FC010044
:100530004FD178486946888306A80590002004902A
:1005400010200390002002900195022000900423C7
:1005500007AA0121208901F07EF8010039D1380075
:10056000113003900420029000200190042000909C
:1005700000236846028B2189002000F04AFC01001C
:1005800027D165486946888306A805900020049015
:100590001020039000200290019502200090072374
:1005A00007AA0121208901F056F8010011D1380075
:1005B0001530039007200290002001900720009042
:1005C00000236846028B2189002000F022FC0100F4
:1005D00001D0010050D151486946088520005430AF
:1005E0000090062301220AA9012001F019F8010058
:1005F00041D104252220205C002800D00525CC48CC
:1006000008E000BFF6030020F4030020192A0000D0
:100610000829000069460883200056300590002014
:100620000490102003900120029001950420009076
:10063000042306AA012120004A30408901F00BF86A
:10064000010018D1BB486946088320005830059046
:1006500000200490102003900020029001951020AB
:100660000090012306AA012120004A30408900F0B1
:10067000F2FF010002D0010000D050E21E9E0820CF
:100680003178002908D0F17B002900D00D20317C81
:10069000002900D0C01C801C717C002900D0401CA7
:1006A000317A002912D0002132000A32CBB25D002B
:1006B000EB18D25C521E04D0521E012A02D8C01C74
:1006C00000E0001D491CCAB2012AEDDD9A4919AAB1
:1006D000118021000C310091C3B2012219A901201F
:1006E00000F09EFF070028D1307D002827D0F08A37
:1006F00015A90880F08A9149884211D161880A1DA4
:1007000010E000BF0A180000292A0000242A000077
:10071000262A0000282A0000502A00001318000092
:10072000318B728B0BA8801C019015A800900123BF
:1007300092B2A08900F0D6FF070000D0F2E10420B9
:1007400009A908702220205C002801D0052008702B
:100750007B48694608860AA805900020049010206E
:1007600003900020029009A80078019002200090D8
:1007700004230CAA0121A08900F06DFF07005CD1C1
:1007800030001C30039004200290002001900420CF
:10079000009000236846028DA189002000F039FBFB
:1007A00007004AD1F07F8007C10F4A202154DF485B
:1007B0006946088620000E30059000200490102025
:1007C00003900120029009A8007801900420009075
:1007D00001230CAA0121A08900F03DFF07002CD1C4
:1007E0003078002862D0D44869460886200010304E
:1007F000059000200490102003900120029009A889
:10080000007801900620009001230CAA0121A08904
:1008100000F021FF070010D130001C3003900420AD
:100820000290002001900420009000236846028D71
:10083000A189002000F0EDFA070000D072E1F07B02
:10084000002831D0BF486946088620001230059044
:1008500000200490102003900520029009A8007841
:1008600001901A20009008230CAA0121A08900F011
:10087000F2FE0700E1D1B448694608862000143032
:10088000059000200490102003900520029009A8F4
:10089000007801900E20009001230CAA0121A0896C
:1008A00000F0D9FE0700C8D1307C002818D0C54818
:1008B000694608862000163005900020049010201C
:1008C00003900520029009A8007801901A2000905A
:1008D00003230CAA0121A08900F0BDFE0700ACD1C2
:1008E000BD48694608860AA805900020049010209B
:1008F00003900020029009A8007801900220009047
:1009000073780CAA0121A08900F0A5FE070094D1FC
:1009100070780090322100F012FFC5B200983221A9
:1009200000F00DFF68460174002438001EE000BF8F
:100930004F2A0000312A0000121800000F18000092
:100940004A2A000032206043C0B272681218039233
:10095000322202920190009200236846028D00200C
:1009600000F057FA010000D0DBE0641CA849898937
:10097000AC42E7DB07006846007C002815D0322037
:100980004543EDB27068401903906846007C0290C0
:1009900001956846007C009000236846028D002087
:1009A00000F037FA070000D0BCE0707C002827D0A8
:1009B000BC4810A90880192009A9891C08702A20A0
:1009C00009A9891C48700BA80890002007901020E6
:1009D0000690002005900120049009A8007803905B
:1009E00009A8801C029002200190009010AB012207
:1009F0006846018D8648808900F04CFE0700D2D100
:100A0000307A002800D18DE000251E960AA8C01C6F
:100A100004787F4E1E98690049194018817A01298F
:100A200012D11A24C17A0AAA921C1170417A09AA19
:100A3000921C1170012109AB9B1C5970052209AB56
:100A40005B1C1A707219917709AFBF1C0521827A5D
:100A5000022A0DD10E24C27A0AAB9B1C1A70427A6C
:100A60003A7002227A7009AB5B1C197073199A777D
:100A7000827A032A0DD10A24C27A0AAB9B1C1A700F
:100A8000407A3870032078707219907709A8401C5A
:100A90000170B24869460886300018306900401875
:100AA00014900590002004901020039009A8401C89
:100AB0000078029009A80078019000940AA8801C90
:100AC00003780CAA0121B08900F0C5FD010028D1EE
:100AD000387871190877A24810A908800BA80890E7
:100AE000002007901020069000200590012004901F
:100AF00009A80078039009A8801C029002200190A8
:100B0000009010AB012214980188B08900F0C2FD5A
:100B1000010006D16D1C012D00DC7BE700201FB019
:100B2000F0BD07003800F9D0F9E700004C2A0000BA
:100B300037498862704700004E2A000089490870D2
:100B400070470000222A0000322A00000020864957
:100B50004A78432A00D1704710B509782C4A1029E9
:100B600006D0602904D05A23D35C002B00D1012089
:100B70005A23D35C002B02D0030002201843242305
:100B8000D35C2324125D08240443102908D1002BD0
:100B900009D0002A02D00100042011E0200010BD7D
:100BA000602900D12000002A04D0002B09D10100C7
:100BB000102005E0102904D1002B02D101002020D3
:100BC000084310BD332A000080B513211048008C63
:100BD00000F00FFE02BD00004B2A00001FB502A965
:100BE0000191891C009103AB02220021084C4000B6
:100BF0002018008B801C80B200F0FFFD002803D17C
:100C00006846007A012800D0002004B010BD000022
:100C1000F4030020F0B585B004001000002200E0CD
:100C2000521CD5B2471EBD42FADB504D02000429CA
:100C30000CD10393029000200190009201236A8A54
:100C4000A989288C00F0E5F805B0F0BD062907D188
:100C5000039302900020019000920123EA8AEFE7BB
:100C60006E4634706C4620740024E0B229186E463B
:100C700036780F7FBE4202D1897F012905D0641CDE
:100C8000E0B20228F1D14220DEE703936946097CF5
:100C90000291002101910092012340002818028B4B
:100CA000CEE7000007290000D8B50BB484B00600D9
:100CB00017002E4C208CA1896B461B7D042B08D17C
:100CC000069A039202970022019200970123628AFA
:100CD00018E06B461B7D052B08D1069A03920297FC
:100CE0000022019200970123A28A0BE06B461B7D34
:100CF000062B0AD1069A03920297002201920097CE
:100D00000123E28A00F085F80200002A03D1208C3A
:100D100000F09DFD0FE000226846007DA3181B7FB8
:100D20009E4203D1A118897F814206D0521CD2B2C3
:100D3000022AF3D1422008B0D0BD06980390029752
:100D4000002001900097012350002018028BA189F8
:100D5000208C00F05EF80100EDD1D8E74D2A0000AC
:100D600008290000210400205C040020F403002076
:100D700080B50100082901DB422002BD012000F0FE
:100D800059F802BD10B500F069FD10BD10B500F0B6
:100D900009FE10BD7CB5069D079C002805D086077E
:100DA00005D1460703D4060701D442207CBD0029A3
:100DB00003D0012901D00229F7D10095019400F058
:100DC000BBFE7CBD70B4103A03D378C9103A78C02A
:100DD000FBD2530701D318C918C001D508C908C0F0
:100DE000D20704D30B880380891C801C002A01D5FC
:100DF0000B78037070BC70478B0701D18307E1D07B
:100E0000124205D00B78491C0370401C521EF9D1C8
:100E10007047F0B585B084460AA8F0C86846858159
:100E2000C68103A8019002970094604600F082FFFB
:100E300005B0F0BD10B501F045F910BD10B504289E
:100E400001D9422010BD01F05FF910BD1206130A4E
:100E50001A43130C1A4300BF094205D0830707D079
:100E60000270401C491EF9D1704700000022FFE7C4
:100E70001300103906D330B41400150010393CC0EB
:100E8000FCD230BC490700D30CC000D504C0890097
:100E900002D30280801C002900D5027070470C0824
:100EA00002170D01010209090101060209FFFFFFF6
:100EB000FFFF0909FFFFFFFF704730B5FF231370E5
:100EC000864C658A6D1CA84201D104251570A58A3F
:100ED0006D1CA84201D105251570E58A6D1CA8423C
:100EE00002D10620107002E01578FF2D01D00B70A2
:100EF0001DE0A3885B1C984204D1A07908700120F2
:100F0000107014E000235D0065192D8B6D1C854267
:100F100005D1E5182D7F0D70E518AD7F15705B1CB0
:100F2000022BF0D11078FF2801D1422030BD0020E3
:100F300030BD10B5312820D032281FD1674CE06D6C
:100F40000078002819D02420205C00280BD0210034
:100F500044314320205C01F0F5F800280BD101203A
:100F60002C21605407E02320205C002803D01321AB
:100F7000208C00F03EFC332010BD322010BD00005C
:100F8000F1B58EB00EA800785449CB6D07AA00BF0A
:100F90004AA42568156009221824122507AE0EAF51
:100FA0003F78412F07D005D3432F4DD03CD3452F59
:100FB00079D06DD380E000205A27C855187058703A
:100FC00098707570B4704A20085C00281FD008A87B
:100FD00002702E200C5C22002F3108A8401CFFF765
:100FE0000BFF00200690059007A8049003200390B3
:100FF00008A80290641CE4B2019400200090002331
:10100000FA221201C821C90000F07EFA09E001901D
:1010100000900B00443343200A5C0121002001F0C2
:10102000AAF800280ED044E0187800280AD0587892
:10103000002840D14A20085C002801D041203BE034
:10104000432039E0422037E0002018705870757056
:10105000B47008A802702E228C5C22002F31401C34
:10106000FFF7CAFE00200690059007A80490032011
:10107000039008A80290641CE4B201940020009040
:1010800000233022202100F03FFA002811D108E08F
:101090001878002805D0587800280CD101F07DF888
:1010A00007E0442008E09878002802D1587800280A
:1010B00001D1462000E045200FB0F0BD0200000045
:1010C000212808D0222807D10448C06D00780028C4
:1010D00001D023207047222070470000F403002035
:1010E000F8B584B0B64FFD6D0026512804D076D3F4
:1010F000532845D004D372E06E702E70AE703DE080
:10110000287839001E31095C01290CD1FFF766FDF2
:10111000002804D02878401C2870AE7005E0A8781C
:10112000401CA87001E0401C2870A878297802298A
:1011300001DA0A2822DB0A281EDB02A829A10A8874
:1011400002800024E0B2FFF749FD002811D13800E9
:101150001E30005D01280CD160003818018B02A8F8
:1011600001900220009000238A1C92B2B88901F0FD
:101170001EF8641C022CE5DBAE702FE052202EE03E
:1011800002A8019003A8009002AB9B1C0222002140
:10119000B888801C80B200F030FB01206946097AD3
:1011A000012901D1687017E0AA78521CAA706978E9
:1011B000D2B20A2A01DA002910D000290CD16946DE
:1011C0000872B98802A801900220009000238A1CAE
:1011D00092B2788800F0EBFF542000E0532005B075
:1011E000F0BD0000010038B5754CE26D00251128F6
:1011F00006D02AD313280ED007D314281ED032BD10
:101200001078002810D1112032BD5570A16A01203C
:1012100000F0DBFF0DE02D20205C002806D001202F
:1012200000F0E0FF2D202554122032BD5078002818
:1012300001D1132032BDFFF7C7FC03E02320205C5F
:10124000002801D0142032BD152032BDF1B582B086
:1012500001905127502500260120A84C6946097AA3
:1012600000290CD0102952D020290FD030291FD0AE
:10127000402925D0502930D060295BD062E0FA2186
:101280004900A162A0725A2026545BE002A840786F
:10129000FFF716FF01A94870232853D1E06D81782C
:1012A00000292FD00670302069460871312047E0B0
:1012B00002A84078FFF73DFE01A94870332806E0F8
:1012C00002A84078FFF75CFE01A94870462839D192
:1012D0006846057101A8477034E002A84078FFF71E
:1012E000FFFE01A9487054282CD1E06D06705220F1
:1012F000205A0090635B4E20225A4C20215A208CA9
:1013000000F078FF102069460871112018E002A84B
:101310004078FFF768FF01A94870152803D0232003
:10132000205C00280ED12D202654602069460871CB
:10133000612005E05A21605440206946087141202F
:1013400001A948700198FEBD1D49CA6D002806D14B
:101350002323C8546A490978402900D15070704746
:10136000F8B501220025164C654E3678202E0BD19B
:10137000E66D070007D17778022F00D13270B27086
:101380002327E25500E0B5705D4E3678402E0AD135
:10139000E66D002804D1727023256255327004E096
:1013A00075703270F1BD002808D143202354218488
:1013B0000622069920004430FFF71EFDF1BD000013
:1013C000F40300204D4801214D4A1378202B01D110
:1013D000C36D19701278402A01D1C06D0170704739
:1013E00080B500BF00BF01BD0122444B002902D1DE
:1013F0001884012000E0002024215854404801783E
:10140000302901D1D96D0A700078402801D1D86DFA
:101410008270704780B53948002124228154008CA5
:1014200000F0F4FE01BD38B508001C00049D334AED
:10143000138A5B1C994205D1012C1BD1287801F03D
:101440009DF831BDD289521C914205D1012C11D198
:10145000287801F099F831BD6A4600A9491CFFF7C8
:101460002CFD002806D12B00E2B2684601784078B6
:1014700001F044F831BD80B508006A4600A9491C56
:10148000FFF71BFD002804D168460178407801F081
:101490004FF801BD194AD06D2323D25C002A00D138
:1014A000704780B5002907D00078002806D115497B
:1014B000012000F08AFE01BD0121017001BD7047CD
:1014C0007CB50E4EF56D012816D12320305C002826
:1014D00012D00124287800280DD15220305A0090D3
:1014E0005020335A4E20325A4C20315A308C00F062
:1014F00081FE2C7073BD6C7073BD0000F40300207E
:101500005C04002030750000FFB587B0109D159E6B
:10151000169C01930295009407A807C81F463346FE
:1015200001F00AF900280ED11398149903AA069421
:1015300043C21198129901900095029107A807C81B
:101540003B4601F027F90BB0F0BDFFB587B0109D09
:10155000159E169C01930295009407A807C81F4684
:10156000334601F0E9F800280ED11398149903AA24
:10157000069443C21198129901900095029107A810
:1015800007C83B4601F030F90BB0F0BDFFB583B0A2
:1015900003980C9D1E4614460F46002804D00128CF
:1015A00002D0422007B0F0BD002F01D0012FF8D1AA
:1015B000E81F0A28F5D20D981028F2D8A842F0D3D7
:1015C0000E98002801D00128EBD114490F988842C9
:1015D000E7D81098002801D00128E2D101F020F9C5
:1015E000012804D02046304305D01120DAE7022C30
:1015F000D7D8012ED5D868460399017047708472F8
:10160000C67285700D99C1700E9901720F98019084
:1016100068461099417201F005F9C3E73F420F0097
:1016200070B586B014461D460A4603466946881CB6
:101630000A9E01F00BF9002804D1012C04D0022CE1
:1016400002D0422006B070BD23462A466946304685
:1016500001F010F9F6E7F0B587B01C460B460546D9
:1016600000A9023101A80C9F0D9E01F0EFF800289F
:101670000ED16846058084828775C6750E990176FD
:101680000F994176109981766946119801F0A2F977
:1016900007B0F0BDF0B58BB09C460C46054613462E
:1016A000624601A806A9139F179E01F0CFF80028F3
:1016B00016D11298079068460580448008A80770E4
:1016C00014994170159981701699C1700671684618
:1016D000119981821099C1826946189801F018FB0E
:1016E0000BB0F0BDF0B587B0064614460D4602A813
:1016F000811E0D9F0C9A01F0A9F8002807D16846B9
:101700000680458084806946384601F0B1FB07B009
:10171000F0BDF446002804D4494200F013F84042DA
:1017200060474042002905D45FD000F00BF84042EA
:1017300049426047494200F005F849426047034684
:101740000B43E6D40022030A8B420BD203098B42DF
:1017500019D243088B422ED2411A00D2014652417F
:1017600010467047FF2209023FD012068B4205D374
:10177000121209028B4201D31212090203098B4291
:1017800019D300E0090AC3098B4201D3CB01C01A67
:10179000524183098B4201D38B01C01A5241430944
:1017A0008B4201D34B01C01A524103098B4201D332
:1017B0000B01C01A5241C3088B4201D3CB00C01A9F
:1017C000524183088B4201D38B00C01A5241430817
:1017D0008B4201D34B00C01A5241884200D3401AB9
:1017E0005241CFD201461046704708B501F0ECFBDC
:1017F00008BD10B501F0E9FB10BDFEB50E4614465C
:1018000000216A461F46118000280CD001AA6946B3
:1018100001F0E0FB050018D1684600883880684672
:101820000088864201D342250FE0801B80B2A0428F
:1018300000D2044668460480089804800198811903
:1018400068460288099801F011FC2846FEBD10B5D3
:101850000022114601F01EFC10BD7047F0B54F4F3D
:101860000446386885B078300D461646002C10D0F6
:10187000062C14D0082C0FD0182C0DD0282C0ED0EC
:101880002A2C0CD02C2C0DD02E2C0ED0D02C47D0A6
:1018900048E0062D0FD045E0102D0CD042E0022D7F
:1018A00009D03FE0012D06D03CE0062D3AD17179F8
:1018B000890903296FD100192A46314601F0D6FB68
:1018C0002C2C26D13078002823D001F057FC012899
:1018D00022D01B201F304009401C4100411801202C
:1018E00001F04EFC01F04AFC012817D01B201F30EC
:1018F0004009410041182A484078401AC01EC1B230
:10190000002001F03DFC3868F92240300178114098
:101910000170002005B0F0BDFB20DBE7FB20E6E70F
:10192000012D04D001F02AFC012804D005E0107834
:1019300001F032FCEEE7D12C02D02F2C1ED02AE091
:10194000082D28D102223146684601F08FFB022281
:10195000B11C01A801F08AFB0222311D02A801F08E
:1019600085FB0222B11D03A801F080FB6846838934
:1019700002898188008801F020FCCBE7012D0AD183
:101980003078002807D0082805D24922396852014A
:1019900089188876BDE71220BCE7000054040020B7
:1019A0007C000020F0B55FA099B000685E491590FA
:1019B0005E4A08688418092212028218D26E2546EF
:1019C000403514922A7AD20702D0622019B0F0BDB5
:1019D000AA8B01235B029A4201D9AB8303E0172A49
:1019E00001D21722AA83149AA0301392067B0DE02D
:1019F000761EF6B2139871010F18B8680F9038462A
:101A00002022002101F038FB0F98B860002EEFD1A2
:101A100020460830E0606460A060246008301390C5
:101A200060612061FF220021083001F0C8FB2046E0
:101A3000FF220021243001F0C2FB2046AA7F0021B2
:101A4000303001F0BCFB2046FF2200213C3001F089
:101A5000B6FB00222A7210461721334B05E0149E74
:101A60004701BE19401C7180C0B21E68A036367B8B
:101A70008642F4D8002028832F8C688C002614908E
:101A800008E02820E16C70430918204601F09FFB14
:101A9000761CB6B2BE42F4D3002608E03020216D99
:101AA00070430918139801F092FB761CB6B2149893
:101AB0008642F3D3012001F091FB012468460470B3
:101AC0001B4941802346042269460CA800F0D2FE3F
:101AD000002822D16846018E81821649018304269E
:101AE00006858475202108A881720024C4720473BD
:101AF00007214173847305A90DA800F06BFF00282E
:101B00000BD1684604874687818E15AB0EAA008EDE
:101B100001F070FB002800D158E700202872472010
:101B200054E700000000FFFF540400206407000099
:101B300001180000052A0000FFB50C4678A103C972
:101B400095B001910090002108A801730321C902FA
:101B500068464186012108A8734E0174356817460E
:101B6000AE3501F07BFB002808D170493068401881
:101B700001F008FCA878002802D0462019B0F0BD7A
:101B80000BA8159901F008FC0028F7D1072010A92F
:101B90000871012C05D0022C0AD0002C0ED0422056
:101BA000ECE708A8017B1020014308A8017305E0B9
:101BB00011A90BA801F0FEFB0028DFD110A80279C3
:101BC00001230CA9284600F055FE00287ED10222F0
:101BD0002946189801F04AFA29886846818115211A
:101BE000490201820784012686734E2108A881706C
:101BF0000024C470067107214171867103A902A8EF
:101C000000F0E8FE002861D1022202A91E9801F02E
:101C10002DFA082F02D26846478502E0082069465F
:101C2000488569460C850B4628880AAA098901F06F
:101C3000E1FA00286DD13E496846018202270784F7
:101C400008A8847103A902A800F0C4FE002860D18E
:101C5000022202A91F9801F009FA68460470694639
:101C600044704F850B4628880AAA098901F0C2FAF8
:101C700000284ED108A8007BC00723D02C49684615
:101C8000C91C01820821018408A88770047103A976
:101C900002A800F09FFE00283BD1FF216846C171D9
:101CA0008171C17081704170017044710471694625
:101CB000082048850B4628880AAA098901F09AFA63
:101CC000002826D108A8007B800600E021E022D56C
:101CD0002988684681811649A53101820684867368
:101CE00008A88770C470047107214171847103A929
:101CF00002A800F06FFE00280BD169460E700C851B
:101D00004E850B4628880AAA098901F073FA002833
:101D100001D0472032E708A8007BA87000202DE7FB
:101D2000626C75656E7267215404002033070000F1
:101D3000012A0000FFB5002099B0239A0B90129061
:101D400005461490064615901C46DB480B46006875
:101D5000DA49229F41180391002108910991518885
:101D6000069111880A913D2149014018007BC00766
:101D700006D00FA9184601F01FFB00280AD102E087
:101D800047201DB0F0BD10AA0F991B9801F02CFB45
:101D9000002801D06020F4E71998002803D06007DC
:101DA00001D5012000E000201390A007800F1C90B7
:101DB000109817902030C078012840D11798C04B58
:101DC00001899942F9D11798069904680A98228CDA
:101DD0004118914233D8204620301690807801284F
:101DE00016D0E08B04901798806900788006800FE9
:101DF0007ED0039840301890007A800778D51C98E0
:101E00000028F5D0AE4F0F99FF372031206814E03D
:101E1000BA4214D3B942DDD80497E4E70389A84A4B
:101E2000934203D12322125C012A08D0BB4203D182
:101E30002322125C012A03D000688842EED134E1EB
:101E400005900028FBD09C4809210268090251181E
:101E5000C96E0027009162E0780100990390085A4A
:101E600001055AD01999002901D0884255D1059908
:101E70007A008B69511C595C9A5C0902891889B2F5
:101E80000D91890749D00222059901F0BCFA00287A
:101E900004D01998002840D0652072E7002008A9D6
:101EA000C8551C98C00718D0179880690078C006DC
:101EB00013D50D98C00710D00120C8550543009ACE
:101EC000039880184088159A904206D91590009A78
:101ED0000398105A0005000D14901C9880071CD51B
:101EE000179880690078800617D50D98800700E064
:101EF00083E012D50220CA5D05430243CA5500990A
:101F00000398401840881599884206D91590009981
:101F10000398085A0005000D14907F1CFFB2664814
:101F20000068A030037BBB4296D8002D65D018987E
:101F3000007A00065FD46048016809200002081892
:101F4000C16E00201BE042018E5A360515D0AE0747
:101F50000BD556183669B7070DD408AF3F5CBF07DD
:101F600003D5360701D546200BE7EE0705D05218FA
:101F7000127CD20701D0432003E7401CC0B2834249
:101F8000E1D81598C01E86B20498864200D906464C
:101F9000A8070FD520220020149901F05DFA1290B5
:101FA00000287DD0F01C82B20021129801F076FA50
:101FB000002811D1E80720D020220020149901F038
:101FC0004BFA0B90002807D0F01C82B200210B982E
:101FD00001F064FA002810D0802001F0FFF8129878
:101FE000002802D0002101F061FA0B98002802D0ED
:101FF000002101F05BFA6420C3E6A1690A98069A01
:102000000818249901F032F816988078012801D137
:102010000498E083002D46D0274B09201968000260
:102020000818C16E002008AA0CE04301CF5A3F05F2
:1020300006D05F18BC463B69175C3B4367463B6173
:10204000401CC0B21C4B1B68A0331B7B8342ECD8E6
:10205000A8070DD512980090F01C82B221461C31C1
:102060000220A36901F040FA0220129901F05BFA04
:10207000E80718D00B980090F61C2146B2B21C312C
:102080000120A36901F030FA1398002805D00B98BD
:102090008021C07C08430B99C87401200B9900E093
:1020A00005E001F040FA00206BE6422069E680205E
:1020B00001F094F89FE7000054040020640700003A
:1020C0000328000010B5012818D8072916D80C4A93
:1020D000126813462033187759778007C906000E17
:1020E000090E01430020074BA03204E08401E418EC
:1020F000A172401CC0B2147B8442F7D8002010BDEE
:10210000540400200001002030B50C4A002113685F
:102110000B4A1268A032147B0AE07C224A43DD6F2E
:102120000832AA5A002A01D0462030BD491CC9B243
:102130008C42F2D81876002030BD000058040020F0
:10214000540400207CB504460D46012803D0002C21
:1021500001D012207CBD084601F00CFA0002204399
:102160000090E81C01F006FA0002000A019068469F
:1021700001F00CFA7CBD7CB5069D079C012903D0BB
:10218000042901D042207CBD012A01D0002AF9D1C6
:102190000095019401F032FA7CBD10B501F046FAC9
:1021A000040002D1012001F057FA204610BDFEB50F
:1021B0006C46099E089D20806180A280E380258175
:1021C0003146684601F0A0FAFEBD70B50D460446E2
:1021D00001F01EFB294601F025FB0146204601F0D7
:1021E00033FB70BD1FB569463A300873684601F08D
:1021F00039FB1FBD3EB56C46069D20806180A280E4
:10220000E3802581684601F059FB3EBD10B501F021
:10221000CFFB10BD7FB505000C0001A800210022F6
:1022200006C0FEF793FC40077BD5022001F00FFCAF
:1022300000206946087003956846447068E00020F5
:1022400043E0039869460978425C002400231000AB
:1022500030380A2806D21400303C000601D1272469
:1022600000E01D34100041381A2802D214003D3C11
:102270000123100061381A280CD214005D3C082A92
:102280001BD0092A04D00D2A19D0202A13D017E018
:102290002B2415E0002568004019A44909180E7880
:1022A000964203D06D1C212DE9DAF4E79F4C4B7860
:1022B000A11C0C5CE3E72C2402E02A2400E0282483
:1022C00001A88470002BBAD002206946087101ABC6
:1022D000082201210020FEF79DFC002803D0010008
:1022E000AF4801F0C3FB002001A908708870C82422
:1022F00001AB082201210020FEF78CFC641E00289F
:1023000001D0002CF4D168460078401C6946087062
:10231000684600784978884293D30120FEF70EFC86
:102320007FBD022001F09AFB7FBD9E480021017015
:1023300001220272417282720823C3720173022366
:1023400043738273C173018201750277427781778B
:10235000C2777047F8B596B005A800BFBDA10CC9FB
:102360000CC00920694688810A2003A948800025FD
:1023700003A8858096204000C8808A4F05A8019058
:102380003800203000900A2303A803C80A00010087
:102390000020FDF795FE0600834C02D0310020009E
:1023A00015E0824A01210120FDF7A5FF060003D0B8
:1023B0003100200024300AE07D48FEF7B9FB0420FC
:1023C000FEF7D6FC060006D0310020004C3001F0AC
:1023D0004DFB300058E069460D7209229FA10FA8FD
:1023E000FEF7F0FC0FAE04229FA130000930FEF78B
:1023F00003FD04229EA130000D30FEF7FDFC0422F7
:1024000099A130001130FEF7F7FC012070753020E3
:10241000B075F575FC2030767576EC20B076F576E3
:1024200007A839002022FEF7CDFC4C2007A94870F0
:1024300038002C30089007AA0FA902A8FDF77CFFEE
:10244000050003D02900200070300AE03A00203255
:102450000A210120FDF7DEFE050006D0290020003C
:10246000943001F003FB28000EE000BF82A001F0D1
:10247000FDFA002001F0F2FA012001F021FB002119
:10248000012001F02FFB002017B0F0BD10B5002493
:10249000FEF75CFBC00705D500220021032001F0F8
:1024A0004FFB0400FEF752FB800703D4FEF74EFB00
:1024B000800605D500220421032001F041FB040021
:1024C000200004D0210000BF72A001F0CFFA10BD9F
:1024D00080B5684602F03AF8002808D068460178CE
:1024E00034A001F0C3FA01216846FFF793FE01BD55
:1024F00080B5FDF7EFFEFFF7EBFF01BDF8B5160065
:102500001C0033000A0001002B4801F0AFFA00253F
:1025100068A704E0215C380001F0A8FA6D1CE8B25D
:10252000B042F7D325A001F0A1FAF1BD4403002089
:102530007CB506000D0068460021002206C031006F
:102540005EA001F093FA042D03D0300003D1012DD9
:1025500001D1082406E0052D03D0300002D1022D60
:1025600000D101246B46E2B229003000FEF79CFB4B
:10257000002802D0124801F079FA73BD80B501003D
:1025800056A001F073FA01BD80B501000D48012984
:1025900002D0002902D13C3001F068FA01BD0000F0
:1025A000042D0510CC0200207C1E051040E2010025
:1025B000C0D4010025630000702805100A00000047
:1025C0000C2705104C20051080B5FEF7BDFE00BF9E
:1025D0004AA001F04BFA01BD18B585B00CAC2478C7
:1025E00004946C46A48D03946C46248D02946C462E
:1025F000A48C0194089C0094FEF7B2FE47A001F061
:1026000035FA06B010BD80B5FEF7DCFE01BD80B521
:10261000FEF7E6FE01BD80B5FEF7E6FE01BD80B522
:10262000FEF7F8FE01BD1CB5049C0094FEF7FBFE0E
:1026300013BD80B5FEF71FFF01BD80B5FEF72AFF71
:1026400001BD80B5FEF73BFF01BD80B5FEF738FF49
:1026500001BD0000BCFC00E1800200005354204D8D
:102660006963726F200000003030303100000000DC
:102670003036333000000000484944204B65796211
:102680006F61726420436F6E666967757265640A74
:1026900000000000426C75654E52475F536C6565E3
:1026A000702829206572726F722030782530327858
:1026B0000D0A00002578202D2000000047657420B9
:1026C0005265706F72742043616C6C6261636B2041
:1026D0004944203D2025640A0000000050726F74B8
:1026E0006F636F6C206D6F6465206368616E6765F2
:1026F0006420746F2025780A000000004469736329
:102700006F6E6E656374696F6E20436F6D706C657C
:1027100074204576656E740A00000000436F6E6E8B
:10272000656374696F6E20436F6D706C65742045CE
:1027300076656E740A000000F0B5054600200F466D
:10274000079E059C174309D0202905D30127BF0305
:10275000BA4201D8914201D94220F0BD1946214325
:102760000AD09C42F8D309498C4203D00849A41FDF
:102770008C42F1D2062BEFD3002D03D0022D01D0D5
:10278000032DE9D1032EE7D8F0BD0000FFFF0000C4
:102790007B0C0000F0B591B00C461AA9E0C90021ED
:1027A000089109910A910B911999049105A9E0C129
:1027B00016A962C90093019113460146039602953A
:1027C0002246022001F0CAFE040007D1042008A915
:1027D000087704480E900CA801F07AFF204611B04B
:1027E000F0BD000020BF0200F0B58DB00C4616A968
:1027F000E0C90021089109910A910B911599049162
:1028000005A9E0C112A962C90093019113460146CE
:10281000039602952246012001F0A0FE0DB0F0BD06
:102820000020704770B5054601F064FF002801D014
:10283000462407E00448002400680C2229460C3096
:1028400000F014FC204670BD5804002070B51C46F2
:1028500013460D46012C03D0022C03D0422070BD3C
:10286000022200E01022194600F000FC2C7000202B
:1028700070BD7047FFB58FB014460E78102205A8C2
:10288000891CFEF7B9FA4F484F490068451801F016
:1028900057FF00281ED1002C57D0012E09D16846C1
:1028A000808A4A49884204D12846A9680830814272
:1028B0004BD12846103029690390814209D00AA9DA
:1028C000284601F059FF6846018D601E0D90814237
:1028D00002D2482013B0F0BD284608300CA904905D
:1028E00001F04AFF6846008E002814D0EF680AA95C
:1028F0003846183001F040FF384620300CA901F06E
:102900003BFF6846398D008D09186846008E401CD3
:10291000081887B200E0012701200004C01BA04274
:1029200001D26120D6E72C6928680190129801280D
:1029300002D0022803D008E00520C00200E02448AD
:102940006085012E03D0022E05D04220C2E720462A
:102950000830022202E020460830102205A900F0CB
:1029600085FB204631462030064601730F982146EC
:1029700007802785039801F009FF2146049800F09D
:1029800026FC27461837E7616662A76126620D9824
:1029900084B20BE02846019901F0F8FE384601990F
:1029A00000F015FC2868641EA4B20190002CF1D13F
:1029B0000F9801880D98081882B2002001F0F6FEE9
:1029C000002087E75404002064070000011800007D
:1029D00001280000F3B5A5B008881A9088780C4645
:1029E00011901022091D13A8FEF706FAA08A109074
:1029F000A17D68460172E07D0F90207E2090677E69
:102A0000A07E1F90002006460146129020A801815A
:102A10000F20BB4C2390BB4920684018199001F04F
:102A20008FFE00280BD101211098490288425FD8FF
:102A300021A91A9800F0C0FC002802D0602027B01D
:102A4000F0BD2198179001F0D5FE1A9988420CD15B
:102A500002A801901698009013AD0ECD119801F0C8
:102A6000D1FE002801D06320E9E76846017A880694
:102A7000800F05D0012012902068A030007B460016
:102A8000C80703D01298401CB61C1290080603D544
:102A90001298401CB61C129017980DA918301D9062
:102AA00001F06AFE6846129C808EA41CA04237D3B7
:102AB00017980EA92030019001F05EFE6846018F44
:102AC00000290DD01798179A6B46406A9B8E128D7D
:102AD0005918808B5118081AA04201D26120AEE724
:102AE0001798846911982568012803D0022803D01B
:102AF0004220A4E7052000E01320E0832A4639465F
:102B00000F9801F0B7FE422899D0199FE28B403709
:102B1000788B398B411A109810188019814201DA8C
:102B200048208CE70EA9019801F026FE6846008F28
:102B30000028179802D0406A808B00E0008D25990C
:102B4000401C0880259801210088A0832598022236
:102B50000088401CA8836C482081204620301790B4
:102B6000C1700021817081711998398B406D4018B6
:102B70006946A061097A0170A06929461C31401C90
:102B800000F074FA11980128A0697DD0102213A9D1
:102B9000C01C00F06BFA2846102213A9083000F080
:102BA00065FA388B133038832E4620361198F07032
:102BB0001098E8831F98B07010982084109828848B
:102BC0001998398B406D4018A8610021109A00F0C7
:102BD00053FA398B10980818388317990120087117
:102BE00017990020487130716846007A810701D535
:102BF0000121317101070227002902DA31793943B5
:102C00003171410703D531790422114331714006F6
:102C100003D530790821084330710F9870712098DE
:102C2000B07121461D9801F0B1FD2146019800F0D8
:102C3000CEFA29461D9801F0A9FD2946019800F019
:102C4000C6FA1298002841D068461A998181A18B52
:102C5000C18107844784012408A8047122A80A902E
:102C600008A88473239941730F993820014008A85C
:102C700001730721C173002505746846007AC007F7
:102C800008D02248694600E02BE0088203A924A866
:102C900000F03EF86846007A8006800F07D01B4897
:102CA0006946401E088203A924A800F031F868464E
:102CB000007A00060AD5292109026846018208A87F
:102CC0004473057303A924A800F022F8259801880D
:102CD0001298401C081882B2002001F067FD002005
:102CE000ADE6022213A9C01C00F0C0F9284602225A
:102CF00013A9083000F0BAF9388B401D53E70000E3
:102D00005404002064070000032800000329000089
:102D1000F3B597B00D8848880590081D1DC80DAE05
:102D20001DC68C8ACE8A087E1390C8692031019016
:102D3000087800904878049088780390C8780290CA
:102D40000F7901F0FDFC002817D1012040028442D8
:102D50005FD8B4425DD8002F01D1B44259D114A933
:102D6000284600F029FB002806D115AA14990598D9
:102D700000F03AFB002802D0602019B0F0BD149D8D
:102D800011A92846183001F0F7FC10A88088002807
:102D900010D0284612A9203001F0EEFC10A883883C
:102DA00000892A8D1818696A10188A8B904203D1FD
:102DB0006120E2E74820E0E715982C4B02899A420F
:102DC00027D12322125C012A23D1006800681690C3
:102DD000139801281FD16846808E29221202801A7A
:102DE000030001F053FD0604180404070A18022C1E
:102DF0000FD110E0072C0CD10DE0042C09D3E00713
:102E000007D1012F07D1A64203D3042E01D3F00727
:102E100001D04220B1E702980B90039B049A0A93D9
:102E200009920098019A0C970890069605940792CB
:102E30000DA81DC8019002A81CC013980B46009055
:102E40002A461699179801F02FFD002895D168465B
:102E50000649808EFF31884205D0179801880020EE
:102E60000A4601F0A3FC002087E7000003280000C9
:102E7000F3B552480C460068514993B040180F9082
:102E80002588618868468185A188018621461022AF
:102E9000083107A8FDF7B0FFA77901F051FC002821
:102EA0000DD16946888D098E884239D8002837D0DF
:102EB00010A9284600F080FA002802D0602015B042
:102EC000F0BD109D03A928461830059001F054FC70
:102ED00068468089002831D028462030AC690DA989
:102EE000049001F049FC6846818E364A002913D0CF
:102EF0006E46B6892B8D7618686A9B19868BB3420D
:102F000001D16120DBE70389934203D12030C078EF
:102F1000012801D06220D2E7012F03D0022F03D075
:102F20004220CCE7062000E00420E0830F9E4036DC
:102F3000708B338BC01AE38B984201DA4820BEE7CE
:102F4000288D491C4018139925460880A0832281AA
:102F500001202035E8700F98318B406D0222401817
:102F60000BA9A06100F082F8A06902220CA9801CC4
:102F700000F07CF8308B001D3083012F08D1A06950
:102F8000022207A9001D00F071F8308B801C3083ED
:102F90000020687101212971A870A8712146059847
:102FA00001F0F4FB2146049800F011F91398018810
:102FB00000200A4601F0FAFB002080E754040020BC
:102FC0006407000002280000704710B501F018FDEA
:102FD00010BD7047F0B5224B224C1B681E193D24D2
:102FE0009C4664011B191B7BDB0702D0B3680836C3
:102FF00031E06220F0BD1C8D84420BD12C20C05CDE
:10300000012805D010200880083313600020F0BD8F
:103010000220F8E7844220D21D4620351C6A17E0C2
:10302000A78B874211D123231B5D0120012B06D1E1
:1030300023890D4DAB4202D16046A030007BE38B6B
:1030400043430B80A0691060E0E7874205D82468FD
:10305000AC42E5D11B68B342CDD14120F0BD0000A8
:1030600054040020640700000229000010B5040089
:10307000FDF7C2FE200010BD10B5040008001100CD
:1030800002002000FDF7E2FE200010BD80B501F037
:10309000D5FC02BDF7B5064636480F4600683649EE
:1030A00082B04418304601F0D9FC050060D02046BB
:1030B0002430009001F0F0FC002859D12869000369
:1030C00056D5009801F0EFFC04464FE0A088B042CE
:1030D0004BD120223146002000F0BEF9060018D066
:1030E000A068002F017B427B15D03346049801F085
:1030F000DCFC002001222969D204914329610028C7
:103100002AD0692802D0304601F0E2FC002005B048
:10311000F0BD6420FBE70A2906D00C290AD00E294D
:103120000ED0082912D023E032462146284601F06D
:10313000E5FCDFE732462146284601F074FDD9E779
:1031400032462146284601F00FFED3E7324621469B
:10315000284601F0D3FECDE72146009802F038F86A
:103160000121204600F0A2F9CDE72468002CADD162
:103170004120CCE754040020640700000020704781
:10318000044A092312681B02D218526E40008018AC
:10319000417070475404002070B505460024204655
:1031A00002F038F8002801D0462404E0012D02D1B5
:1031B000012002F04FF8204670BD422070470023E6
:1031C0000360436041720272C37283727047086089
:1031D00042684A60426811604160704704490A6869
:1031E0003D21490151180A7B02430A7370470000D0
:1031F00054040020F0B5074617480E4600683D21EC
:1032000049014018007B85B01D461446C00706D012
:1032100003A9384600F0D0F800280AD102E0472080
:1032200005B0F0BD04AA3046039900F0DDF800288F
:1032300001D06020F4E70499228860880968002A98
:1032400000D0088C32466E4631C603233946002032
:10325000FEF770FDE4E7000054040020F0B5454C93
:1032600013252668ED01701980690027416B4248DB
:10327000AE368DB0814242D00621684601F0EBFFA8
:1032800069464879C021084369464871206806228A
:1032900040198069243001F0EFFF0746102105A88E
:1032A00001F0D9FF206810224019806905A9001D8E
:1032B00001F0E2FF0743102109A801F0CCFF2068CC
:1032C00010224019806909A9143001F0D5FF014688
:1032D000394313D12068294940198069264F401885
:1032E00080088100264808183946049001F0FFFF45
:1032F00004980068B84201D1002700E0FB2722684B
:1033000050198069A63224300190062001460090B1
:10331000002002F003F8002802D12068A6300190B6
:10332000701D009A0199FFF7A1FE22681026314610
:103330000020803201F0F2FF002807D020683246DA
:10334000411989698030091DFFF790FE22683146D6
:103350000020903201F0E2FF002807D020683246BA
:103360004119896990301431FFF780FE38460DB05D
:10337000F0BD000054040020AAAAAAAA3400FCEF61
:103380000000041010B5034906220968B331FFF7A5
:103390006DFE10BD540400200A07920F01D0422098
:1033A00070478A07FBD002788907890F0A430270A9
:1033B000002070474220704710B5094A094B126837
:1033C000D2189368083206E01C8D844202D1002096
:1033D0000B6010BD1B689342F6D1412010BD000068
:1033E000540400206407000010B50B6A203106E089
:1033F0009C8B844202D10020136010BD1B688B425D
:10340000F6D1412010BDF8B516460D4607460024FA
:1034100001F094FF002806D032462946384601F0D4
:10342000B3FF044604E020356879002802D00E245A
:103430002046F8BD2879C10701D1012E09D08107A6
:1034400001D4022E03D04007F2D4042EF0D103247D
:10345000EEE70224ECE77047F8B50D460E49092364
:1034600009681B02C9184E6E1F21521E0A431D32E5
:1034700097B20024394601F0D7FF00280AD1394617
:10348000B06801F0F9FF044608340068A06000202D
:10349000E074A5802046F8BD5404002010B5121D2C
:1034A000806892B202F000F810BD7047F8B50E4681
:1034B0000C490922096812028918083807464C6E1F
:1034C00002F028F805463946A06802F02DF872B6D9
:1034D0007100605C401B605420794019207162B615
:1034E000F8BD000054040020F8B5069C1F461546A0
:1034F0000646002C13D0A06802220D30FFF7B6FD5F
:10350000E81E82B23B460721204602F028F8E580FB
:10351000A068012E05D01D2101730020F8BD4720B1
:10352000F8BD1B21F8E77CB50C4605466A4601A9A3
:1035300002F01EF8002801D041207CBD6846E188D9
:103540008088814200D9E08000980088A0802046D1
:1035500001F0BEFA0098012D07D00169082211433D
:1035600002229143016100207CBD016949084900A4
:10357000F8E77047C3788278417800781B021A43D5
:10358000090212040843104370477047F1B5194D02
:1035900000212868E03041740320009902F010F8FF
:1035A00001270446FF281ED000263046009902F06D
:1035B00015F9FF280DD0C10028680F4A091889188D
:1035C000CA7937235A431018FF301B308770C470F4
:1035D000C8792A68E100891840062F22400E52015E
:1035E0008918C87100E007262868E0304774304623
:1035F000F8BD0000540400206C04000070B58CB0CD
:103600000024109D119E0A940B9404940594039435
:10361000069407940993089200900194029433460B
:103620002A46042000F09AFF0CB070BD002000B5BF
:103630008DB00A900B900890099005900690079025
:1036400004900090019002900346024601460390C8
:1036500000F084FF0DB000BD70B592B00646202288
:1036600021A101A8FDF7AEFB202109A8FDF7FEFB73
:103670000A216846017000242546694601A802F027
:10368000FDF86846027801A909A8FFF7EFFC01A838
:1036900024E0015D491CC9B2914223D803195B782B
:1036A000B34214D16B461A78521A6118C9B2411844
:1036B000D2B209A81A704019FFF7D8FC6B461878E7
:1036C0002818C1B209A802F0F7F812B070BD521A5A
:1036D0006B461A7062186918D4B2CDB269460A787E
:1036E000002AD6D11F20F0E702FF010201040302E5
:1036F0008FFC00000000000000000000000000003F
:103700000000000000000000F3B585B00288448886
:10371000818801913C4FC68805893D21386849015F
:103720004018007BC00767D001204002854215D8B1
:1037300069461046FFF740FE002862D102AA2046E3
:103740000099FFF751FE00285BD102992F480A89A2
:10375000824203D12322525C012A02D0422007B0C8
:10376000F0BD09680C680099203148E02289824246
:1037700003D12322125D012A43D0A38B019A9342E5
:103780003CD12046203003908178002903D1E08B82
:10379000AA19904205D201292ED1208CA91988425C
:1037A0002AD3012001900398C07801280AD1174933
:1037B0002089FF31884205D13868A030007B00277E
:1037C00001900AE000273846A169684308182A4694
:1037D0000699FFF74BFC7F1CFFB201988742F2D39A
:1037E00003988078012805D1002E02D0208CE08338
:1037F00000E0E5830020B2E74720B0E724688C4270
:10380000B4D16020ABE7000054040020032800007E
:1038100010B50920C00600690002000A02F088F80D
:1038200010BD7047074A914202DC5242914200DAD1
:103830001146FF22993251430A1251180A145118A5
:1038400008187047FFFF4F001FB56A463A301073E3
:103850006846029102F07EF8002800D0012004B0F2
:1038600010BD704770B5144E1D22316892018D183D
:103870002C681DE0017B227B914218D1214628460D
:1038800000F084FF284621460830FFF7A0FC207B8B
:103890003A2803D220352878401E287072B6306846
:1038A000DF224030C1791140C17162B670BD246819
:1038B000AC42DFD170BD000054040020FEB5048886
:1038C000418801918688C78800890090204602F0CF
:1038D0007BF8050066D0E878002863D0A878000758
:1038E000400F01D046255EE0202221460020FFF750
:1038F000B3FD040048D001992C48891F81424BD860
:10390000B11F814248D80198B04245D8FF20F53018
:10391000874241D20099781C7043890088423BD885
:1039200022490098091F0A38884235D8A068122118
:103930000173A068E9784173A06808218173A068C9
:103940000021C173A068019901740199A068090A56
:103950004174A068310A8674A068C174A068390AED
:103960000775A0684175A068009981750099A068E5
:10397000090AC1750C20E0802146052002F03EF8BE
:10398000002803D0412508E064250CE0A878062132
:103990000843A870002506E0422500212046FFF7D5
:1039A00085FD00E042252846FEBD00007A0C00009F
:1039B00000B50005000D01F0C1FC002806D0017B18
:1039C0000A07920F022A03D0462000BD402000BD06
:1039D0000C2211430173002000BD704738B50E4D15
:1039E0002C000C3C002811D0022807D00ED202F087
:1039F0002FF80C2148432818083805E002F028F871
:103A00000C2148432818001F006832BD02F020F83E
:103A10000C214843205832BD683305101CB5040002
:103A20000121012002F01AF82000FFF7D7FF0090D3
:103A300068460621017101218171417102F078F817
:103A40002000FFF7CBFF002102F0BCF813BD80B5CA
:103A5000FFF7C4FF012102F0B5F801BD80B5FFF703
:103A6000BDFF002102F0AEF801BD70470EB4C0B535
:103A7000020003A801900020009001AB012104483E
:103A800078440C3002F0E6F8029906B0084700BF0F
:103A9000EFF7000038B5094D2C00083C002808D08D
:103AA000012806D101F0D4FFC0002818001F0068CB
:103AB00032BD01F0CDFFC000205832BDA433051047
:103AC0001CB504000121012001F0C8FF2000FFF710
:103AD000E1FF00900020694688808871684602F006
:103AE00027F813BD7FB505000C0000266846067058
:103AF000032141700121817002F06CFB2800FFF767
:103B0000C9FF01900296039401A802F062F8280010
:103B1000FFF7C0FF02F088F82800FFF7BBFF012184
:103B200002F078F87FBD80B5FFF7B4FF02F07FF8B0
:103B300002BD80B5FFF7AEFF02F076F801BD704719
:103B4000F1B5FFB091B00C001500EFF310801890A4
:103B500072B60020A849087002F082FB060090A807
:103B6000007802F0D7FB6946087090A8007802F050
:103B700017FC90A90978884200D90800694609789D
:103B8000814200D901008E4200D90E0068460670BD
:103B90009A486946097889004018816E491C8166F7
:103BA0006846007800280AD068460078012807D1C6
:103BB0009348007A0021924A117230BF1072A9E333
:103BC00068464470E148057068464078DF490871EE
:103BD00001A802F0F3FBDD48007A1D9089480088B7
:103BE00067908948006866900025002088AB874F61
:103BF00081007A585A50401C0828F9DB8448C06973
:103C000065908448806964908020C0050068639056
:103C10008020C005406862908020C0058068619067
:103C20008020C005C06860908020C00500695F905A
:103C30008020C00540695E908020C00580695D904D
:103C40008020C005C0691C908020C005C06A5C90BF
:103C50008020C005006B5B908020C005406C5A90AE
:103C60006D48006859906C48007C58906A48008BF9
:103C700057906948007F569068480078559067488B
:103C8000406854906548007A539064488089529007
:103C90006248007F519062480078509060480079F7
:103CA0004F905F48007A4E905D48007B4D905C4895
:103CB000007C4C90C44800684B90C34840684A90D0
:103CC000C148007C4990C048007D4890BF480078BA
:103CD0004790BE4880884690BC4880684590BB4865
:103CE000808944900022BA4C1005011990000B689D
:103CF00016AE33504B6814AE33508B8B12AE33502C
:103D00000B8C10AE33508B8C0EAE33500B8D0CAE33
:103D10003350CB6A0AAE33504C23CB5A08AE3350E3
:103D20004C314B6806AE3350C96804AB1950521C75
:103D3000012AD9DDB020000600684390A54800683C
:103D40004290A44840684190A24880894090A14890
:103D5000008A3F909F4840693E909E48007E3D907B
:103D60009C48808D3C909B48006B3B909948406BF1
:103D70003A909848806B39909648C06B3890954837
:103D8000006C37909348406C36909348008835908B
:103D90009148808834909048007B33908E48007C16
:103DA00032908D48808A31908B48007E30908B48CD
:103DB00000882F90894880882E908848007B2D901D
:103DC0008648007C2C908548808A2B908348007E12
:103DD0002A908348006829908148406828900848C4
:103DE000006827900648007A26907E4800680028E0
:103DF00018D17D481B9016E00C00002060080020C0
:103E0000000070400400104000E100E000E400E029
:103E100004ED00E0080090400C0030402C003040E1
:103E2000500030401B95002270481A9014205043D7
:103E30001A9940189100436878AE7350036880AEB9
:103E40007350836870AE7350C06868AB5850521C92
:103E5000082AE9DB8120C005406825908120C00543
:103E6000007B24908120C005408B23908120C005D9
:103E7000008B22908120C005406A21908120C005DE
:103E8000806A20908120C00500881F9058480068F3
:103E90001E9068460078032806D156480068C02165
:103EA0008905014353480160002153480068643884
:103EB0001990CB4A50661046426E13688E008351AB
:103EC000491C121D42661929F6DB204800791F495A
:103ED00009788026F6053268520A514088436AD133
:103EE00001A84078000101A989780143112904DD66
:103EF00042480560002002F04DFB3E480068404902
:103F00000860012002F096F902F07EFC002002F029
:103F100091F93C480078002800D081E03A480068D8
:103F2000400632D439480268374B19685140C648B8
:103F3000374C2468056AAC421CD11B689A4203D0F6
:103F4000C24A12680A4015D1324901E000002040FF
:103F50000968B20813000B4004682240934209D15B
:103F6000320911400068024091420ED01C4800689E
:103F700080070AD51F49C8680209D01CB30A9842B5
:103F80001AD2CA6812098242FBD301A841780901FA
:103F900080780843112805DD012002F0FBFA1E4855
:103FA0001649086068460078032804D11148016862
:103FB0001A4A0A400260ADE1C8680009D94BD3181B
:103FC0009842F9D1E1E700BF0000404024004040A2
:103FD0000000A0400400F0400400D0400400E04095
:103FE00010E000E0000C704051E5CC1A080000A081
:103FF000080000C004000048000004101400002065
:10400000180000200C00002000E200E0E80800207A
:10401000E4080020E0080020CCBCECFCFFFFFFCF50
:104020000120C14908828D808D6000226C49199859
:104030004866486E9300CB580360521C001D4866CA
:10404000192AF6DB6798B949088066987F490860A5
:104050000020810088AA52587A50401C0828F8DBBA
:1040600065987949C8616498B149886163983060FE
:10407000629870606198B0606098F0605D98B0611F
:104080005E9870615F9830611C98B0621C98F06116
:104090005C98F0625B9830635A987064A5485999AF
:1040A000016058990174579901835699017720301E
:1040B00055990170549941605399017252998181C7
:1040C000519901772430509901704F9901714E999F
:1040D00001724D9901734C99017497484B99016095
:1040E0004A9941604999017448990175243047996A
:1040F00001704699818045998160449981810022AF
:1041000010050119900016AB1B580B6014AB1B581F
:104110004B6012AB1B588B8310AB1B580B840EAB40
:104120001B588B840CAB1B580B850AAB1B58CB62FE
:104130004C3108AB1B580B8006AB1B584B6004ABD3
:104140001858C860521C012ADADD4398B0210906CC
:1041500008607A482899416085602999016078480B
:104160004299016041994160409981813F99018262
:104170003E9941613D9901763B9901633A994163CA
:10418000399981633899C1633799016436994164DB
:104190003C9981856B4835990180349981803399A8
:1041A0000173329901746849319A0A408282309AC7
:1041B000027666482F9A02802E9A82802D9A027388
:1041C0002C9A02742B9A114081822A9901766048B8
:1041D00027990160269901721B985E4902E000BF91
:1041E000600800200860142068431A994018A9004C
:1041F00078AA5258426080AA5258026070AA525857
:10420000826068AA5158C1606D1C082DEBDB8120CB
:10421000C00525994160249901732399418322990E
:10422000018321994162209981621F9901801E9822
:10423000494908603E480078002834D168464078F3
:10424000002830D0384803E004ED00E000E100E051
:10425000018809220A40092A02D1F16989051FD47F
:10426000018811220A40112A02D1F169490517D4A7
:10427000018821220A40212A02D1F16909050FD4BF
:10428000018841220A40412A02D1F169C90407D4B8
:10429000008881210140812905D1F069800402D57F
:1042A00001202E4908602E4D68460078032803D16E
:1042B00028682C49014029601D982B4908726846DE
:1042C0000078032801D1012100E00021002002F044
:1042D00083F91D98C0071DD501F0CAFB6946088007
:1042E00068460088400512D42048008800070ED593
:1042F000E8681F490968081A0002001200D5404208
:10430000212804DAE8682D30EA689042FCD21520B2
:1043100018490870189880F3108800207FB012B0F8
:10432000F0BD00BF0400F0FF08001048040010407A
:10433000080090400C0030400000404010E000E0D9
:104340000400F0400400D040BFFF00000400E04043
:1043500000007040000C7040080000C000E200E067
:1043600004000048FFFFFFCF00002040C0000020F5
:10437000180000200000C04010B50400202002F00A
:1043800049FB0128FAD0200002F03BFB10BD78B5B4
:1043900085B004000121092001F060FB01F058FB09
:1043A0004F4980000818001F0068009001F050FB82
:1043B0006D464C4980000818001F006828710026CF
:1043C000AE716E71684601F0B3FB01F041FB4649E6
:1043D00080000818001F0068009001F039FB434975
:1043E00080000818001F00682871684601F0A0FBD3
:1043F0000294032002A908714871CE804E7208729F
:104400000120887202A802F059FA002002F013FB82
:10441000012002F047FA06B070BD1CB504006846E2
:104420000421017003214170847001F0D3FE21004A
:10443000102002F0DCFA13BD80B5102002F0F2FA71
:10444000002808D101BD02F0E1FA69460870012197
:10445000684600F011F8102002F0DCFA0028F2D0D3
:1044600001BD80B522490860E1204002FFF78FFFBF
:104470000120FFF7D2FF01BD1D4A1268002A00D1BA
:10448000704780B5904701BD80B5802002F0C2FA28
:104490005FE080B5082002F0BDFA012800D00020BE
:1044A00002BD14490A68144B9854521C8020C00065
:1044B000824200D100220A6070470E494A680B68A8
:1044C000934201D1012070470B4B9B5C0370521C3F
:1044D0008020C000824200D100224A600020704744
:1044E000AC330510B0330510B4330510B8330510E4
:1044F000DC080020240000206004002070B50025A6
:1045000004000E0003E0205CFFF7CBFF6D1CA8B297
:10451000B042F8D370BD70B50024012804D0022841
:1045200002D00020C04370BD002901D1002070BD21
:104530000D00160004E02878FFF71EFF6D1C641CB8
:104540003000461E0028F6D1200070BD80B5FFF770
:10455000B4FF401E8041C00F02BD7047FFB595B04B
:104560000E46054620210CA8FCF780FC0020049094
:10457000564800270468681EAE34042802D8A07884
:10458000C0070BD0062D02D0002D0AD002E0A07883
:10459000800703D5E0784006800E0AD0462019B087
:1045A000F0BDA0788007F9D0E0784006800EF5D005
:1045B0000FE0002D0DD0012D20D0022D28D0062D8A
:1045C00033D0032D33D0042D37D0002E3BD04220E2
:1045D000E5E7002002F052FA0028E0D1E0788007F9
:1045E00008D50420694608736846FFF73BF90220A6
:1045F00002F056FB0120E0700020D0E7012EE6D04B
:10460000042EE4D01F980028E1D10627042008E0FA
:10461000012EDCD0042EDAD01F980028D7D1052730
:104620000220E0700120049010E040200DE0022EF6
:1046300001D0032ECBD1082007E0012E01D0042E9B
:10464000C5D1102001E004272020E07000230BAA30
:1046500019461E9802F04CFB030002D002F038FC11
:1046600032E01022002107A8FEF706FD07A86C46DD
:10467000279B269A1F990FC42B463046189A1799E4
:1046800002F030FC0300E9D108A8017BC170259835
:1046900003AC049B289A29990FC422AB07CB029242
:1046A0000091019039460CA8209B219A02F060FCF1
:1046B0000300D3D107A802F0DDFC0300CED1012016
:1046C00002F0DCF90300C9D1184668E75404002061
:1046D00010B504460920C00600690002000A01F076
:1046E00027F9A168FFF79EF8A060204601F032F993
:1046F00010BD704730B5104A002013680F4A0146BC
:104700001268A032147B13E07C22DD6F4A43AA18A2
:104710007425AD5CED07957A06D0B02D06D3EAB2CC
:10472000F02A03D8012030BDA02DF8D2491CC9B20F
:104730008C42E9D830BD0000580400205404002009
:1047400010B50B480B49006844184034207AC00764
:1047500009D0002002F034FD217A890701D5002814
:1047600003D0002010BD472010BD642010BD000004
:104770005404002064070000026800230B8082427A
:1047800003D09BB212685B1CF8E7704700B50B467C
:1047900002F034FD002808D003CB083B086003CBAF
:1047A00041600020083B1860586000BD30B50F4BD9
:1047B0000F4D1B6804465B1940331B7A412085B0BE
:1047C0009B0710D56B469981DA810020188204205E
:1047D000588203AA04A96D4607C502231A4601217F
:1047E0002046FDF7A7FA05B030BD000054040020B4
:1047F0006407000002480068AE300088704700007F
:10480000540400200FB410B5079C01282DD1684630
:1048100080891749884210D103A80FC802F0F9FC1B
:1048200000281DD102F012FDFA281ED001281CD943
:104830002078F3210840207017E00D49491C884278
:1048400008D0C91E884205D0491C884202D0C91C24
:1048500088420AD103AC0FCC02F0DBFC002800D068
:10486000632010BC08BC04B018470020F9E7000022
:10487000022A00002423184204D0C81F092803D8A4
:104880002032D171002070474220704730B4744606
:10489000641E2578641CAB4200D21D46635D5B003C
:1048A000E31830BC18470000FFB55248524A006870
:1048B00087B08218069210AA109B0126169F928834
:1048C000012B04D14D4B9A4201D1A030067B069DAD
:1048D00034464035688B2B8B7C43C31A09982030B3
:1048E0000390A34222DA48200BB0F0BD2320405CA5
:1048F000012819D108896C46208098420CD03F4C81
:10490000641EA04208D0641CA04205D0641CA042D2
:1049100002D0A41CA04207D1384CFF3CA04201D0D9
:10492000904201D16220DFE7096801E029231B02E0
:1049300003988142DAD109981B9984691898224614
:10494000FFF798FF4228CFD01C98012804D1159872
:10495000874201D24220C7E71598E08320462030E5
:104960001C990590817027840A98808B401CA08335
:104970001098012814D02046102211A90830FEF703
:1049800075FB05991098C8700698298B406D4018E2
:10499000A061298B384670430818288300250FE052
:1049A00011A80FC808340FC4183CEAE72846A169CB
:1049B00078430818159A1799FEF758FB6D1CEDB24D
:1049C000B542F3D30599189848710599199808715B
:1049D00005991A988871099821461830FFF7D6FE74
:1049E00021460398FEF7F3FB0798A18B0180002076
:1049F0007AE7000054040020640700000229000048
:104A000070B50D460B490024884204D8032102F0FA
:104A100039FC082801D302240AE007490122096869
:104A20002031C97D8240114202D1294602F06EFC3C
:104A3000204670BDFF0E000054040020A446521E04
:104A400008D303780C78401C491CA342F7D0181BEC
:104A500064467047002064467047000010B50D4959
:104A600000050B68092109025918CA6E0021000DC2
:104A7000A0331B7B0AE04C01145B2405240D844207
:104A800002D14801801810BD491CC9B28B42F2D82E
:104A9000002010BD540400200068002801D0002030
:104AA000704701207047006870477FB505469868D9
:104AB000012202739A681C4651739868022202A967
:104AC0000E30FEF7D3FAA16805200D74E0807FBD9B
:104AD00010B504460146042000F090FF002808D0DD
:104AE000044805490068401821463C3002F060FC4B
:104AF000432010BD5404002064070000FEB50446A6
:104B000000200290C8881546032804D013460022CE
:104B10000A21042026E08968022268460D31FEF74A
:104B2000A5FA68460088002819D002F057FC010059
:104B300073D068460A8D00880B27052682421DD156
:104B4000A86807732C20405C01280ED00B46083360
:104B500010223146284600F002FD112059E02B4674
:104B600002465DE0FFF7A1FF54E00B460833022246
:104B70003146284600F0F3FC03204AE001AAFEF784
:104B800033FC002849D1208801220005000D01993D
:104B9000FEF739FC002804D069460A882B460A2112
:104BA000E0E701992620405C40070ED5206902030A
:104BB0000BD40122D204104320618A8B2188022069
:104BC000029B02F02FFC6920FEBD6288002128466E
:104BD00002F050FC002801D04520FEBDA868214607
:104BE0000773019802F04EFC6188491E8AB2019950
:104BF000CC8BA24200D214468A69098C41435318D7
:104C000031462246284600F0AAFC641C2004000C11
:104C100003D0E8800020FEBDFFE7684602882B46EF
:104C20000A2101209EE770B50546C88888B00C4669
:104C30001646052804D0134600220C2104201FE04C
:104C4000A168022204A80D31FEF710FA6846028A14
:104C5000002A13D0A168022202A80F31FEF706FA3B
:104C60006846008A02F0BAFB010076D068460A8DD9
:104C7000008A824207D13346024620E033466FE085
:104C8000FFF713FF66E06A46FEF7AEFB002864D12B
:104C9000288801220005000D0099FEF7B4FB0028CA
:104CA00004D069460A8A33460C21E9E700986A88ED
:104CB000C18BD31E994205D86846028A33460C211F
:104CC0000B20DDE76B461B89994205D26846028AB4
:104CD0000C2133460720D3E72621095C49070ED56E
:104CE00029690C030BD40122D20411432961828B60
:104CF0002988022002F096FB692008B070BD0021CF
:104D0000304602F0B7FB002801D04520F5E7B06837
:104D10000D2101732946009802F0B4FB014600986A
:104D20006A46C38B12899B1A9CB26B885B1E9BB22E
:104D30009C4200D31C468369008C48431818831892
:104D400005212246304600F00AFC641C2004000CB9
:104D500003D0F0800020D0E7FFE76846028A3346A0
:104D60000C2101208CE70000F7B5FFB085B00546A7
:104D7000002469468C815F485F4900684618859821
:104D8000C088411E042902D3C043C00704D00022BA
:104D90000E210420869B44E0286900031BD403A84D
:104DA000009004AB3046869A859902F093FB6846E2
:104DB000808900280FD001222969D20411434006BE
:104DC000020E2961298804AB022002F0BBFB692096
:104DD0007FB008B0F0BD6A880021869802F04AFBD7
:104DE000002801D04520F3E78598C088401E87B28F
:104DF000012677E0301D81B201AB0222859802F0D6
:104E0000D5FB68468088002832D002F0E7FA01001E
:104E10002ED068460A8D8088824224D1002C03D08F
:104E200007E0FFF742FE63E086980F2280680124C6
:104E300002736888A04253D02C22525C012A05D00C
:104E4000001B80B2102806D3102004E0001B80B2A3
:104E5000022800D302200090201D0B4680B20833A8
:104E60000146009A36E002AAFEF7BEFA002805D0F5
:104E7000684682880E210120869BD2E7288801227D
:104E80000005000D0299FEF7BEFA002804D069461D
:104E90008A880E21869BC4E7002C04D186980F21B6
:104EA0008068012401736888A04219D0029A001B0F
:104EB000D18B80B2884200D3084600902946104624
:104EC00002F0E0FA02998A69098C41435318201DC7
:104ED000009A81B2869800F042FB0098201884B2B4
:104EE000B61CB6B2BE4285D3002C01D08698C480D1
:104EF00000206DE75404002064070000F7B5FFB000
:104F000093B007460C46002080A903908883AD48E3
:104F1000AD49006802264518E088072806D0152804
:104F200004D0002208210420949B4CE0A1680222B6
:104F300085A80D31FEF79AF8A168022286A80F31E4
:104F4000FEF794F880A8828A008B824238D8002A23
:104F500036D010229D498DA8FEF788F8E0880728F2
:104F600034D089AB10220921204602F01FFB38699A
:104F7000000337D4398868460174090A417480A94E
:104F80000A8B898A89A86C4607C404AC8DAB87AAB2
:104F90002846A11C02F013FB80A8808B002821D09A
:104FA00001213A69C9040A433A614006020E398870
:104FB000A31C022002F0C6FA69207FB016B0F0BD33
:104FC00008210120949BFFF770FDF2E010227F4939
:104FD00089A8FEF74BF8A16802228CA81131FEF7D0
:104FE00045F8C4E77A880021949802F043FA002833
:104FF00001D04520E1E7083580A88895808A02F035
:10500000EDF9050090A8019074D0B8E0294602227D
:105010002A310198FEF72AF8102289A98DA8FEF7F7
:1050200035F8002806D02846203000902C6A8442AB
:105030007ED1A3E00398002804D0042810D01228C1
:1050400006D0AAE02C20405D012806D01220039053
:105050002C20405D022807D09FE00420039003E04D
:105060002C20405D01287DD1301D81B22B46283394
:105070000222949800F073FA03982B46801E82B2A5
:10508000B01D81B20833B61C949800F068FA0398FA
:105090003018801E86B271E080A9A08B898A884270
:1050A00068D380A9098B884277D82320005D012826
:1050B00008D020460830102289A9FDF7E7FF002814
:1050C00008D057E02146022208310198FDF7CEFFB3
:1050D0008DA8F0E7388801220005000D2146FEF773
:1050E00092F90399002915D1002804D0A28B082138
:1050F000949B68E75FE0E18BFD2901D9FF2101E086
:10510000891CC9B203917988039A891E914201D200
:10511000C9B2039179888A1B03998A423DDB002832
:105120003BD10398E18B801E0290814235D100E093
:1051300021E0301D81B223461C330222949800F0F6
:105140000EFA3946204602F09DF9218CA2694143AE
:105150000298531882B2B01D81B2949800F0FFF902
:10516000039800E019E0301886B27888811B039814
:10517000814212DB2468009884428DD12D68889882
:1051800085420AD080A9288D098B884205D8788865
:105190000399801B884200DB38E7022E0BD99498D4
:1051A00009218068017394980399806841739498E9
:1051B000C680002001E780A8828A08210A20949BEB
:1051C00001E70000540400206407000004330510C8
:1051D00010B504460068884209D1026822600022A6
:1051E0000260206800280BD1626009E01046026866
:1051F0008A42FBD10A68026062688A4200D160601C
:10520000084602F051FAE17A081AE072A07A401ECC
:10521000A07210BD70B50D4A054613680C4A0020F7
:1052200012680146A032147B0DE07C22DE6F4A43F7
:10523000B218D67AF60704D01289AA4201D001200A
:1052400070BD491CC9B28C42EFD870BD5804002013
:10525000540400207047F0B50E460746002407E0CE
:105260003D1902F026FA2870000A6870A41CE4B206
:10527000B442F5D3F0BD0000F7B5164600241CE09B
:1052800000981149001940188108019889000019F7
:1052900042780578120215438278C078120400061D
:1052A00002430948154340420F182946384600F08A
:1052B0001EF83868854204D1241DB442E0D3002092
:1052C000FEBDFB20FEBD00000000FCEF1049096898
:1052D000104A91420AD110493F220A814006000C2F
:1052E000886111200880088AC007FCD57047084AE9
:1052F0001268084B9A420AD1074A3F23138180085B
:105300009061116433201080108AC007FCD570476B
:1053100014000020CCBCECFC0000104030B504466A
:105320000120002306E0D55CA54201D0002030BD5D
:105330005B1CDBB28B42F6D330BD000070B5002899
:105340001BD003050F48002100680D4A1B0DA0303B
:105350001268047B0FE008467C267043D56F083046
:10536000285A0005000D984203D17C225143681849
:1053700070BD491CC9B28C42EDD8002070BD000040
:10538000580400205404002070B515460C4606460B
:1053900002F0ACF920346179012D09D00A0702D559
:1053A0004207920F0FD0CA0625D5020709D522E081
:1053B000CA0702D04207920F05D08A0705D5020717
:1053C00003D4082070BD052070BD490707D5C0076C
:1053D00009D0E179304602F0A0F95F2805D02079A4
:1053E000C00704D005E00F2070BD0C2070BD022066
:1053F00070BD002070BD890607D5C007F3D0E179E4
:10540000304602F08AF95F28EFD02079810701D475
:10541000022D07D0410701D4042D03D00007E8D4A2
:10542000082DE6D1032070BD70B5124A0923126819
:105430001B02D2180123526E83435B00491E412494
:105440009B184909491CC9B272B615798D420ED311
:105450001E785B78AD19EDB25B18AB4207D84000FF
:10546000135C00245B1813541079401A107162B653
:10547000204670BD54040020491EC904090E72B6AE
:1054800002788A420CD9511AC9B24A1ED3B20370AB
:10549000426888001058990052580021116000E0BD
:1054A000002062B670470000F7B50746184809218A
:1054B000006809024018446E41201646002F11D0A2
:1054C000384602F03AF90546B0420CD2301A81B2A1
:1054D0000198FFF7A9FF002804D132463946A06899
:1054E00002F035F9FEBD32463946A06802F02FF9C8
:1054F0006D1E761E69097209891A72B6019A5200E8
:10550000A35C5B1AA35422795118217162B6FEBDC7
:10551000540400200021002804D0491C0068C9B2AE
:105520000028FAD108467047002917D072B60278D1
:10553000002A03D0436892009A58116010B40023E7
:105540008B800278521CD2B2027044689200A15043
:1055500009680029F4D162B610BC7047704710B5D5
:105560001C4613460A468068214602F037F910BDF2
:10557000F0B5944600220A806346104C1A60092355
:1055800022681B028646D2184120D26E00230FE00B
:105590005D01AD182F697646374207D06F880E88B7
:1055A000B74203D90F806046056000205B1CDBB268
:1055B0002568A0352D7B9D42EAD8F0BD540400201B
:1055C000F3B505007F4883B0006808D0012D0DD0E9
:1055D000022D0ED0042D1BD02F2149010AE07A495B
:1055E0008D22411801910F21D20020E09D21C90098
:1055F00000E0764941180191032D0BD0042D0CD009
:105600000F21012D0BD0022D0CD0042D03D10CE065
:105610006F49EFE71F216F4A09E00821F1E76E4A61
:10562000801805E02B22520101E0DB22D200801815
:10563000009004788C4207D1002D15D0032D13D093
:10564000042D11D0012D0FD08C4201D1022D0DD08F
:1056500000262846049900F0C1F80290FF2807D0E0
:10566000FE26002D7ED0AAE0FF26A8E0FC26F0E76B
:10567000FE2E78D0022D10D1FC2E0ED15148019A69
:105680000068FF300130417ECB009A18D279427613
:10569000022002F0D7F8641EE4B2002C3DD001983D
:1056A000E1000F183E46083E04990720401E0B5C9F
:1056B000325C9A1A0BD0002A0BDD0198E100081821
:1056C00007220499FDF7D2FC261E26D02BE00028E5
:1056D000ECD1384607223146FDF7C8FCF079F87165
:1056E000002D03D0032D01D0012D12D1F079C1433B
:1056F00049060ED037214843324909684018FF3027
:105700001B30002D02D0012D17D0C01C0178491C80
:105710000170641E2406240EC1D107220499019849
:10572000FDF7A4FC00260098022D08D0007800990F
:10573000401C0870002D3DD041E0401CE6E7017898
:10574000002921D00198CA001018C01D0278521CEF
:10575000D2B2A24200D902700838491EF6D1009890
:10576000007801E028E022E000280DD0154800680C
:10577000FF300130417EA14201D3491C4176017EB8
:10578000A14201D3491C01760E480168FF31013165
:10579000097ECA0001995118CC710068FF300130B0
:1057A0000476009800990078401C087007E0002DEE
:1057B00002D004E0FE2E02D1029E80200643304635
:1057C00005B0F0BD540400206C0400006405000026
:1057D000DC060000DC050000E4040000F0B5234A0C
:1057E0000028126808D001280BD002280CD0042809
:1057F0002FD02F235B0108E01D4812189646042283
:105800000CE09D23DB0000E01A4BD21896460328DB
:1058100021D0042822D00422042821D00F2084463D
:1058200001209040C3B200265B08F018C0B260456A
:105830000BD2C200744614190722521E8D5CA75C5D
:10584000ED1B0FD0002D00DD0646002BECD1FF2014
:10585000F0BD094BD9E705221F20E0E70322DBE773
:105860000820DCE7002AE8D1F0BD00005404002045
:105870006C04000064050000DC06000030B50C4A32
:105880000C4B1268D218936A2032147B1F2C02D959
:105890000020087030BD002205E01D780570521C04
:1058A000401CD2B25B1CA242F7D30C7030BD00008A
:1058B000540400205808000070B51B4A1B4B1268A6
:1058C000D418E36B0833A3621F2901D9302070BDBF
:1058D0000022656BE66BAD5CB554521CD2B2082A4F
:1058E000F7D3002205E00578521C1D70401CD2B28F
:1058F0005B1C8A42F7D32C200155E06B891D417057
:1059000002F04CF8217E01290CD008280AD2616BE4
:10591000E06BE16360638034616A4880A16A48801B
:10592000E16A4880002070BD54040020580800003F
:1059300010B507491D22096892018C18A169401A07
:105940000002000A02F04EF86169081810BD00005C
:1059500054040020F8B51B4D06461D212868890116
:105960004418317B481E3E2801D34220F8BD204612
:10597000A2680830824205D03A2905D22021095D6B
:10598000072901D36420F8BD694602F033F81022DC
:1059900031460098FDF76AFB20460099FDF717FC99
:1059A0000098007B3A2803D220342078401C2070D5
:1059B00072B62868DF224030C1791140C17162B6E9
:1059C0000020F8BD5404002030B502460A480123E7
:1059D0000068DB020021C318A030047B07E0586B8D
:1059E0000D0140190588954204D0491CC9B28C426A
:1059F000F5D8002030BD00005404002010B50C463E
:105A00000146042805D0052903D0062901D05020DD
:105A100010BDA068A2790272E088020AA0684272F2
:105A2000A0688172A068090AC172E088001DE08048
:105A300002202073204601F0EBFF0028E8D0E08828
:105A4000001FE080412010BD01200349087070470D
:105A50000148007870470000F0080020304A012912
:105A6000116802D10843106070478143116070478C
:105A70002C4802782C4801880020002A44D10922B1
:105A80000A40092A00D1202011220A40112A02D1FD
:105A900002004020104321220A40212A02D10200A4
:105AA0008020104341220A40412A03D10200802075
:105AB0004000104381220A40812A03D10200802045
:105AC00080001043FF22921C13000B40934203D12D
:105AD00002008020C0001043144A13000B40934280
