:020000041004E6
:1000000000600020993004105120041053060410A1
:10001000AA5555AA45554C420000000000000000BA
:10002000000000000000000000000000E52C0410AB
:100030000000000000000000AB060410E72C0410D4
:10004000C30604102F070410000000000000000089
:10005000E92C041053200410F12C0410C3260410C2
:100060000000000000000000000000000000000090
:10007000000000004B3004108B300410B530041029
:1000800000000000F92C0410DB20041003220410EF
:100090003F23041097240410B9300410B730041023
:1000A0000000000000000000000000000000000050
:1000B0000000000000000000000000000000000040
:1000C000F8B596B0050017001E001C98049103A90E
:1000D0002B22885400200A9002950E9700960EE07D
:1000E000252912D00498029A90470490002800D144
:1000F000D2E00A98401C0A900E98401C0E900E9870
:1001000001780029ECD10A98C8E0002007900890F7
:100110000990022608210191012404210E9D00E08E
:1001200020436D1C2A78202AFAD0232A0AD02B2AB1
:1001300004D02D2A04D0302A08D00AE03043F0E75A
:100140000843EEE7020008201043EAE7020010200F
:10015000FAE72A2A0ED1009A17683A683F1D009BD9
:100160001F600C92002A03D553420C9301430800F0
:100170006D1C14E000210C91004A0BE0CBCCCC0CA0
:100180000C9B934205DA9F00FB185B00591830392D
:100190000C916D1C29780B00303B0A2BF0D3297889
:1001A0002E2903D00021C9430B9127E06D1C29782B
:1001B0002A2908D1009909680A68091D009B19605D
:1001C0000B926D1C1AE02D2902D12D236D1C00E02D
:1001D000002300210B910CE0002B09D10B9ABC4F9E
:1001E000BA4205DA9700BA185200511830390B910B
:1001F0006D1C29780A00303A0A2AEDD303A9088534
:100200002F783900B3A000F01BFA002801D0380085
:100210006D1C03AF2A217854785C682805D12878B2
:10022000682802D1622078546D1C10A806902A78A4
:10023000681C0E90252A15D0582A52D0632A00D166
:10024000BCE0642A00D17FE0692A00D17CE06F2AFB
:1002500047D0702A3AD0732A08D0752A41D0782A1C
:100260003FD0B5E0079410A90A70BAE00098006882
:100270000468001D009908600594002C13D12B2000
:10028000385C00280CD00024E44300BF93A000F0A9
:10029000E1F9201A00D1A4E00020C04317B0F0BD5E
:1002A00095A005909DE00B9D002D03D5200000F04A
:1002B000F5F909E02A000021200000F0F7F90028F4
:1002C00001D0001B00E0280008908AE00098006838
:1002D0000168001D009A1060039110A80590782114
:1002E00068E0785C622803D0682809D06C280FE0A9
:1002F000009801680868091D009B1960C0B20DE0F4
:10030000009801680868091D009B196080B205E02B
:10031000009801680868091D009B19600390388DDA
:100320000199C0B2084240D0039800283DD0202057
:100330001043782839D1079810A930230B54401C5A
:10034000431C07930A5430E0785C622803D0682885
:1003500009D06C280FE0009801680868091D009B0F
:10036000196040B20DE0009801680868091D009B03
:10037000196000B205E0009801680868091D009B3B
:1003800019600390002802D507982D2109E0388DC7
:10039000304202D007982B2103E0C00705D507980B
:1003A000202110AB1954401C079010A80799401841
:1003B0000590110003A800F0A0F812E0079400983F
:1003C00000680168001D009A106010A8017008E024
:1003D0000794252010A90870100002D0079610A8D5
:1003E00042700C980799401A0999401A0899401AC6
:1003F0000F902820385C400713D4202069460871EC
:100400000F9800280DDD0F9C029D012301AA03A96E
:10041000280000F0FAF8002800D03DE7641EF4D16F
:100420000295079D10AC002D0ED0029E227803A9E4
:10043000300000F0D9F8002802D4641C6D1EF5D1FC
:100440000296002800D027E7302069460871099CF1
:10045000002C0CDD029D012301AA03A9280000F055
:10046000D4F8002800D017E7641EF4D10295059C4B
:10047000089D002D0ED0029E227803A9300000F0C6
:10048000B3F8002802D4641C6D1EF5D10296002832
:1004900000D001E72820385C400700D42FE6202058
:1004A000694608710F98002800DC28E60F9C029D21
:1004B0000E9F009E012301AA03A9280000F0A5F8C1
:1004C000002800D0E8E6641E00D105E6F2E700004F
:1004D000CBCCCC0C686C747A4C0000007072696EE6
:1004E00074665F733A2062616420257320617267CD
:1004F000756D656E740000000000F0B583B00A00F1
:10050000C4686F2901D1082506E02021114378290C
:1005100001D00A2500E01025182701680E00642A82
:1005200001D0692A03D1002901D571420E00002EA5
:100530000CD1016A002909D1082D31D12821415C53
:1005400009072DD517273021E17529E0029068466B
:1005500002707F1E01973000290000F0C7F830318B
:10056000C8B23A2803DB6846007851380918E155CB
:100570003000290000F0BAF8060004D00298806824
:10058000E1198842E5D30298082D09D12821415C60
:10059000090705D5E15D302902D07F1E3021E155E4
:1005A0001821C91B4161E2198260026A914206DA90
:1005B000511A8161018D0B4A0A40028510E0002A20
:1005C0000ED52822825C14231340102B08D1426AD6
:1005D0000369D21A8369D21A511A012900DB816199
:1005E00003B0F0BDEFFF000010B503000C001100D8
:1005F000606898476060002804D0E069401CE061B2
:10060000002010BD0020C04310BDF8B50024002B11
:1006100011D007000E0014001D0021787068B84743
:100620007060002809D0F069401CF0610020641C53
:100630006D1EF2D104002000F2BD0020C043F9E796
:10064000C9B202788A4203D0401C002AF9D10020A6
:100650007047704780B5002801D100BF07A0064948
:100660000B68002B03D022220021984701E000F004
:1006700058F8222002BD00008C040020636F6E73C6
:10068000747261696E742068616E646C65723A2080
:10069000626164206D65737361676500431C017856
:1006A000401C0942FBD1C01A70477047C9B2521EA4
:1006B00005D30378401C8B42F9D1401E70470020BF
:1006C00070477047CA0F00D0494203105A400DD0FE
:1006D00004B500D3404200F009F8009AD20701D3D4
:1006E0004942124200D5404204BD0000094214D0E4
:1006F00088420FD30122030C01D10004120400230D
:1007000000185B418B4200D35B1A5241F8D31900A9
:100710001000704701000020704708B500F006F88F
:1007200008BD80B5012000F003F801BD7047704797
:100730002021090326311820ABBEF9E79248012198
:10074000018100210160704730B58F4A51681268FD
:100750008E4B140A5C43D5B25D432B0AE318103369
:100760005B0983628B098A4C634380331B0A4362B3
:10077000C261016287494A43110CC18230BD10B584
:100780000400FFF7DBFFAB4800880028FBD0200007
:10079000FFF7DAFF10BD804948800888000716D4AB
:1007A0007E487F49C268921C0A40022AFAD3491C3B
:1007B00011430160C1689142FCD3C2681032A14963
:1007C0001140C2688A42FCD380214905016070470C
:1007D000C20B4A434004400CC9094843000A1018A0
:1007E00020308009704768214143090ADB225043C9
:1007F000000C08187047830B4B438004800C090AD7
:100800004843800918180021515E411A0800403001
:10081000C009C301591A1180704738B530C808386B
:100820009D4A13680B6002004832816A006B181AF7
:100830000002000AFFF7DFFF00210019694134BD03
:1008400038B504009448056822004832E16A606BBC
:10085000281A0002000AFFF7CEFF210008310CC958
:1008600000218018594103C4083C256365632200B8
:10087000083203C2A06AE06231BD80B5FFF7A8FF6D
:100880000821864A904201D9100002E0082800D2CF
:100890000820934AC00810753F4803880B4201D1D5
:1008A000117D417201BD70B505008D4C2888206115
:1008B000E878002802D1A878002810D089488189DA
:1008C0000029FBD00188FE2212020A4017211143A1
:1008D00001802000FFF753FFA06AE0620CE0C8200F
:1008E0004003E062A062804860628048E061804826
:1008F0002062F4204000E082E87838216054616A88
:10090000206980B2FFF7B9FFE08AFFF744FFE08A71
:1009100020830020002103C4083C5F4A1268226340
:1009200062632200083203C27F251B4EF079284003
:10093000FFF759FF38304421605470792840FFF7A1
:1009400052FF1B3045216054307A2840FFF74BFF9F
:10095000383046216054307A05402800FFF743FFC5
:100960001B304721605470BD9E480078002804D099
:100970000548012101810021016070472D4801884F
:10098000481E8041C00F704710001048F6BC080098
:100990005307000055050000C00000200400004877
:1009A000FFFFFF0070B594B0984C3820205C002801
:1009B00036D068462100502200F030F96846FFF733
:1009C000C3FE0999049880B2FFF757FF6D46E88A85
:1009D000298B814203D0FFF7DEFEE88A2883EFF3FC
:1009E000108672B6287D2075E88AE082288B2083E5
:1009F0000798E06108982062099860620A98A062EE
:100A00000B98E0620F98E063109820644820285A01
:100A1000482160522000FFF713FF86F3108807E09B
:100A2000EFF3108572B62000FFF70AFF85F31088F8
:100A300014B070BD1800104880B569467348FFF7C0
:100A4000ECFE04BDF0FFFF00F8B505006F4C6946F1
:100A50002000FFF7E2FE06000F0022004832A16AE4
:100A60000098401B00020012FFF7C5FE002339006A
:100A7000301A9941F4BD0200644B3820185C1074A0
:100A8000186AD0601800083003C803C2083AD86951
:100A90009060586B5061704710000048FF030000E1
:100AA00038B50C000E4D696AFFF792FE010011295E
:100AB00001D3083100E01821334A1068002C02D01D
:100AC00080235B0500E0002341180902090A0B435B
:100AD0008021490419439163916BE96332BD0000A1
:100AE000B80300200C001048C2F528008D5B000000
:100AF000ECEB6501F8B50600444C200044300129B8
:100B000006D1002A02D04420255C06E0457804E0A6
:100B1000002A01D0857800E0C57869462000FFF7FB
:100B20007CFE301A401B002621691431814206D216
:100B300080256D040127217D364A517202E080250F
:100B4000AD040027616AFFF743FE3249497AC900C4
:100B5000401A002F02D08021490500E000212C4AD4
:100B6000009B1B181B021B0A2B4319431160002812
:100B700006D580204004854202D116600120F2BDD6
:100B8000106820640020F2BD100000480100002021
:100B90001F4A12680A605101490F032901D102203E
:100BA0007047022901D101207047012900D103209B
:100BB00070471648C08A17494880704780B5134966
:100BC0000A004832896AFFF716FE02BD80B5FFF7BA
:100BD0000AFE02BD80B510480068FFF735FF04BD6E
:100BE00000000000F0030020084A130044330128ED
:100BF00004D1002906D04420105C7047002901D0A0
:100C0000987870475878704700000000B8030020BB
:100C100004000048C00000200800004870B4103AEA
:100C200003D378C9103A78C0FBD2530701D318C94F
:100C300018C001D508C908C0D20704D30B880380A7
:100C4000891C801C002A01D50B78037070BC70478A
:100C5000F8B584B09025ED0528680090C00100D457
:100C60008FE0FFF7A6FF784C2000083080B280218B
:100C700049020143E960606D00990161016B884799
:100C80000128606D01D1866A00E0C66A874880212C
:100C90004905002E03D16960002101803FE00388EF
:100CA000834A1A4033781A43482313430380327827
:100CB000920182183823F35C937532001C326B4624
:100CC0009A8002001C3233789B016F46BF88D7524E
:100CD0003278920180186A469288C2837078400701
:100CE0001DD569607178880612D5FFF7A5FE02AAA6
:100CF00003C27068FFF76AFF0300717801220A409F
:100D0000022001400F0002A803C8C018390004E007
:100D100001220A4002200140706800F0FEFA0098AB
:100D2000800F800728D06420E968C90301D5401EE0
:100D3000FAD1A068010CFF2212020A40207B104366
:100D4000C9B2002811D00C290FDA062251437F398D
:100D500001E0891D40101E28FBDCFF22A232504317
:100D6000974A80188012081800E07F20616D886122
:100D7000FFF730FF616D4861606D66653100426B61
:100D800090470098000401D500F0BAFA009880035B
:100D900001D500BF00BF0098286005B0F0BD38B590
:100DA0000D000400082C04DBB9214900854800F03F
:100DB0005DFD00203D49A201891809182D222B5CF8
:100DC0008B54401C0528F5DB31BDF8B50C0017002D
:100DD00006007C4D082E04DBCD214900280000F0E0
:100DE00045FD282C04DBFF219C31280000F03EFD4E
:100DF0002E48B1014018C4752C214754F1BD70B57F
:100E00000C0016000500082D04DBDD2149006D48AB
:100E100000F02CFD2548A90140184462866270BD8F
:100E200010B50400102804DBFF21EA31654800F00A
:100E30001DFDE00000211D4A4A248B01D3181855DE
:100E4000491C0829F9DB10BD5C000020F8B504003E
:100E50000D0016005B4F082804DB81218900380053
:100E600000F004FD280005D0012D03D0A34938006F
:100E700000F0FCFC0D48A1014418300005D0012E03
:100E800007D09F49380000F0F1FC012D01D0012E60
:100E900004D12320205C0A21014303E02320205CAD
:100EA000F521014023202154F1BD0000C0000020A5
:100EB000F0FF000030B5C168C18301001C3181839F
:100EC00082680300213303218024E402A24208D275
:100ED00020254255140A1C70120C11402222815404
:100EE0002EE0A400A2420BD2940820254455940A77
:100EF0001C70920C114022228154815C04221CE05F
:100F0000A400A2420BD2140920254455140B1C70D6
:100F1000120D114022228154815C08220DE0A400B0
:100F2000A2420DD2940920254455940B1C70920DB9
:100F3000114022228154815C0C220A432221425416
:100F400041788022114205D12223C35C134322241D
:100F5000035505E02223C35C40241C432223C454D0
:100F60002223C35C30241C432223C454654B1C68D9
:100F7000232544551C68240A242544551B681B035B
:100F80001B0F2524035500232624035513240C404E
:100F900026254455445D4455445DFB2525402624C3
:100FA00005552C4605786D01254326240555FF245B
:100FB0002725445538240355890700D5025530BDEF
:100FC000A04600003C2D04107FB50400684600F0E8
:100FD00088F8002845D100214A4801718022520535
:100FE000494B1A60494A8260C160494A0300103384
:100FF000538123785B075B0F1588464E2E401D00FA
:10100000354348262E4316809B01D2181183518305
:10101000118421001C319183D18344653820205CE8
:10102000907572B66078810612D5FFF705FD02AAA9
:1010300003C26068FFF7CAFD030060780122024026
:10104000022101400C0002A803C8C018210004E0DE
:101050000122024002210140606800F05EF962B6A0
:1010600000E0C42004B070BD70B504000D0006D0CF
:10107000012D04D0AF218900274800F0F7FB40265E
:1010800026480660224809214171C17105218171FC
:101090000172002D0CD1802142790A434271C2793C
:1010A0000A43C27182790A438271027A1143017242
:1010B00014490C65002202809020C005B3054360EE
:1010C000836403680360472008600A710B20FFF700
:1010D000A7FE002200210020FFF7B8FE104806609E
:1010E00070BD010000200A4A1288120700D4704720
:1010F00080B50800FFF74AFD02BD000005020000B0
:10110000060200005C00002004000048862E00005B
:10111000C0000020F0FF00003C2D041080E100E042
:1011200000E100E080B5FFF71FFC01208C49087149
:1011300001BDF8B507000E003C000020307000E053
:101140002469002C1AD0207B0028F9D0EFF31085F9
:1011500072B6FFF771FC020003CC083C801A01282C
:1011600003DB0121FFF79CFC01E00120307085F3D7
:1011700010883078002801D03800F2BD2000F2BD80
:10118000FEB500256C462570017B002901D00120A9
:10119000FEBD0CC0083801210173714CE668019650
:1011A000070001E035003669002E08D00CCE083E5D
:1011B00003CF083F8B42F5D301D88242F2D33800E7
:1011C0000661002D01D1019000E028610199814262
:1011D00013D16946FFF7ADFFE0606846007800284C
:1011E0000BD0EFF3108072B6217C4A1C637C9A42CC
:1011F00000D0491C217480F3108868460078FEBD39
:10120000F2B586B0050000260E70A87A002861D0DD
:1012100070480CC85248006800218018594104AA3F
:1012200003C2EFF3108772B6FFF706FC02AA03C2EF
:1012300003CD083D0090019104A803C8C822920282
:10124000002312184B4100980199994210D301D8FC
:1012500090420DD304A803C8B922520000231218EB
:101260004B4102A803C88B422ED801D382422BD215
:10127000297AE87AFFF7B8FC020003CD083D6B46F7
:1012800003C3012402A803C8002312184B41002005
:1012900009324341684603C88B4210D801D38242C9
:1012A0000DD22A7AEB7A684603C81900FFF722FCB0
:1012B0000699087087F31088AE726C720AE087F3A3
:1012C00010880698047005E087F310888020400598
:1012D0006449086007B0F0BD10B5214C002808D063
:1012E000607900280BD120001830FFF71BFF012088
:1012F00004E02000183000F035F80020607110BDC7
:1013000080204005594908603348017C4A1C437CD1
:101310009A4200D0491C0174704738B5030000247C
:1013200068460470504DE9722A722A4803C81A1A96
:10133000002312184B410CC5083D6C720120A872A5
:1013400069462800FFF75CFF68460078002800D057
:10135000AC720120FFF7C0FF6846007832BD000084
:10136000080400207CB503001B4CE2681500002136
:101370000026100001E02E002D69002D09D09D42AD
:10138000F9D101932B69954201D1180002E0336134
:1013900000E001936D462970019B1973824216D0BB
:1013A000002814D06946FFF7C4FEE0606846007864
:1013B00000280DD0EFF3108072B6217C4A1C637CAC
:1013C0009A4200D0491C217480F3108873BDE060FC
:1013D00073BD000058040020080400207CB50600FE
:1013E0004020764908606846B1788170B188C17044
:1013F00031880180FFF757FA7148FFF73CFB002561
:10140000704CE56001206071174845728572308824
:10141000A0602582B08800030A21FFF753F92060FD
:101420002571694E002804D13000FFF7C7FB20600A
:101430000AE03000FFF7C2FB2168884203D2300087
:10144000FFF7BCFB0100216060482062E562FFF706
:10145000F3FA2268002312184B4120001830FFF7DE
:101460008FFE73BD0400004870040020480000484F
:10147000F0B585B00020694608705548407A0028CC
:1014800031D0FFF7D9FA02000B00514803C8994246
:1014900029D801D3904226D200204D49487222E03B
:1014A000401C19E00469019901738168002900D08A
:1014B00088472000F6D16946F868FFF73AFEF860E1
:1014C0006846007801280AD1EFF3108172B6387CA3
:1014D000421C7B7C9A42E3D1387481F31088787C7B
:1014E000049940187874374F787C01003A7C824226
:1014F00001D3501A03E080204000801A40180028D1
:1015000024D00490FC6800200190002603940294EB
:10151000019D02E0260024696D1C002C0AD0207B6E
:101520000028F7D0FFF788FA020003CC083C801AA5
:101530000028EFDD002D019802D03061039400E017
:1015400002900398F86002980028B3E71C4C3879A1
:10155000002818D0FFF712FA00282CD13871FFF7B5
:1015600021FA2000FFF787FA69461948FFF748FE7D
:10157000FFF762FA3A68002312184B41380018301E
:10158000FFF7FEFD17E0207C002814D0FFF754FA87
:101590000CCCC824E4020025A4185D418D420AD871
:1015A00001D3844207D238001830FFF7DBFEFFF783
:1015B000DBF90120387105B0F0BD000000E100E06A
:1015C0005804002008040020FFEFFF00251104103C
:1015D000700400203EB50121C80200F055F901A8B1
:1015E00000F053FA002001A908700F22CA700125EB
:1015F0004D7088708D488880C8808D4C200000F028
:10160000C5F968461121017003214170857000F011
:10161000EBFA01220321200000F06EFA37BD0169C8
:1016200048031ED48348002908D5814909884160B0
:101630008149096801614188491C41804188FA2239
:101640009200914202D0012101700AE07B49426878
:10165000891A02697A4B5A4389188160C268511805
:10166000C160012070470000F8B586B080A003C8B3
:1016700004AA03C200F06EFC00F0ECFC002000F0B5
:1016800013FD012000F010FDFFF7A4FFE120400250
:1016900000F02FFD01210020FFF7E6FC04A8FFF772
:1016A0009DFE02206749087014204870002007E062
:1016B000AE2065496A461288885468460088401CF6
:1016C00069460880684600881428F1DB5F4800F00E
:1016D0009DFD0F20FFF7A4FB5D4800F001FE0121F6
:1016E000534800F0DAF9534C2BE02078012828D138
:1016F000002020706188002907D050496268891A4B
:1017000022694F4B5A438918A160E168A268891881
:10171000E16049490860494845490880494A4D48BF
:1017200001909620009013003033FA212820105C9D
:1017300000F072FD002804D0628801004EA000F085
:10174000CFFDFFF795FE6088FA2189008842CCD151
:10175000E668002E59D0300000F0D6FD00F0F0FD14
:1017600000223D4B00F005FE00223B4B00F001FE45
:1017700000F060FE0500300000F08EFE02000B005D
:101780000020364900F0F5FD00F054FE070000F09F
:1017900093FE060000F0C8FD0100380000F0E1FEF5
:1017A00001002F4800F035FF00F086FE02003800EF
:1017B0008021090400F086FF01D8039201E0504225
:1017C0000390280000F078FE070000F0ADFD010056
:1017D000280000F0C6FE0100214800F01AFF00F0CA
:1017E0006BFE020028008021090400F06BFF01D984
:1017F0005042020003980290019600923B0014228E
:10180000FA218900174800F06BFD002060800D4A26
:10181000908550859071E06000901349009888424F
:1018200000D365E70098401C0090F7E7E7FD000053
:101830000000D0404803002024000020FFFF0000EB
:10184000E8FD00005C0300205E030020DF8888883C
:101850005C2C04101F16041000408F40D012A341CE
:1018600000007A448C2C0410FFFF0F00FEE70000FC
:1018700001000000000000004552524F5220256434
:1018800020282564290D0A0070B504000D003A4E89
:101890003A48204003D187213000FFF7E7FF2800B6
:1018A000344D010005D0012807D088213000FFF712
:1018B000DDFF2868A043286070BD286804432C60C1
:1018C00070BD2F4802782F4801880020002A44D19B
:1018D00009220A40092A00D1202011220A40112A97
:1018E00002D102004020104321220A40212A02D1C5
:1018F00002008020104341220A40412A03D1020005
:1019000080204000104381220A40812A03D1020036
:10191000802080001043FF22921C13000B40934252
:1019200003D102008020C0001043174A13000B406F
:10193000934203D1020080200001104305220A4097
:10194000052A02D10200102010438907890F0329BC
:101950000ED10100082008437047022A01D101205E
:101960007047042A01D102207047082A00D10420C0
:1019700070470000200090408C2D04109F3F0F0006
:1019800008009040080010480104000070B50400F1
:101990000D00514E5148844206D05148844203D034
:1019A0006A213000FFF762FF287800280BD08028DA
:1019B00009D0012807D0022805D0032803D06B21C5
:1019C0003000FFF753FF687800280BD0012809D0BA
:1019D000022807D0032805D0042803D06C2130004A
:1019E000FFF744FFA87800280BD0012809D002286F
:1019F00007D0032805D0042803D06D213000FFF75D
:101A000035FF208B374901402183208B3649014027
:101A10002183F820217D01402175C721227D0A40C4
:101A200022752B78314A802B07D1238B1A402283D1
:101A3000228B80235B00134308E0268B32409B07F8
:101A40009B0F13432383228B294B13402383EA7874
:101A50002274228B802313432383AA88A280EA88DE
:101A60002281228B234B13402383227D10406A78EE
:101A70005207520F02432275207D0140A878C00012
:101A8000382202400A43227570BD002141708170E6
:101A90008180C1800170C170704770B504000D0075
:101AA0000D4E0E48844206D00D48844203D0A32137
:101AB0003000FFF7DBFE280005D0012D08D0A4215F
:101AC0003000FFF7D3FE208B0A490140218370BD0F
:101AD000208B80210143F9E7282E04100000D0401C
:101AE0000000E040EFFF0000DFFF0000FCFF00000F
:101AF000FFFE00007FFF0000F8B504000D00170096
:101B0000234E2448844207D02348844204D0FF2136
:101B10008A313000FFF7AAFEF020284001D12800CA
:101B200004D1C52149003000FFF7A0FE2D01380087
:101B300006D0012F08D0FF218C313000FFF796FE30
:101B4000207FA8432077F1BD207F05432577F1BD95
:101B500070B504000D000E4E0E48844207D00E48AA
:101B6000844204D0D12149003000FFF77FFEF020ED
:101B7000284001D1280004D1FF21A4313000FFF713
:101B800075FE2020205C05432020255470BD0000F8
:101B9000282E04100000D0400000E04070B5040082
:101BA0000D000E4E0E48844207D00E48844204D0E9
:101BB000DB2149003000FFF759FEF020284001D119
:101BC000280004D1FF21B8313000FFF74FFE207FFD
:101BD0000540280000D0012070BD0000282E041010
:101BE0000000D0400000E040F8B50400A0781F4D90
:101BF000002805D0012803D05A212800FFF736FE1F
:101C00006078042803DB5B212800FFF72FFE217892
:101C10001F220123A078002821D0607849B2CD008E
:101C200018262E40FF27B740FD438007000EB04026
:101C30000E0004D50E493607360F083E00E00D4968
:101C4000B608B60089190E68354028430860207828
:101C5000024093400849400980000B50F1BD0A4002
:101C600093400648490989004350F1BDC02E041035
:101C70001CED00E000E400E000E100E080E100E0B5
:101C800010B5C20018231340FF249C40E24389078B
:101C9000090E9940030004D55D481B071B0F083B44
:101CA00000E05C489B089B00C01803681A40114381
:101CB000016010BDFEB501245748017801220A4396
:101CC00002700026554806600325FFF7FAFD6946B5
:101CD000088068460088002801D16D1EF5D168464D
:101CE0000088202836DB684600880125400525D479
:101CF000684600F0FBFC684641780901807808439B
:101D0000122800DA00258C480068000705D4002D51
:101D100014D0012000F062F810E0884FF868884E77
:101D20003168081A283800020012002806DD002D4C
:101D300002D0012000F052F8306838608148047009
:101D400000F02BFDBFF34F8F7F4880490860BFF341
:101D50004F8FFEE70120FEBD10B500220021A948EB
:101D600004E00B00415C5918491CC9B2435C002BCC
:101D7000F7D1CB1C202B12DA022343542123441821
:101D800063700823A3704318DA709F4A80235B02B4
:101D9000401880B21843106010681840FCD110BD84
:101DA00070B500210023974A04E01C00D35CE318BF
:101DB0005B1CDBB2D45C002CF7D102253524DE1C81
:101DC000202E05DAD554D6187470B070D218D170A0
:101DD0008E4A157054709070D17070BD70B58021AE
:101DE00049028A4B9CB20C43874A002804D01460F5
:101DF000106808400AD0FBE798789D78FB262E40B3
:101E00009E70146014680C40FCD1987070BD000086
:101E10001CED00E000E400E0080020401400002079
:101E2000F3B58BB003A800BF82A11C22FEF7F6FE1B
:101E3000684600F05BFC744C01250BA80078002874
:101E400058D003A84421817371490A7801231343B0
:101E50000B704C21C17220210172B22141745B21AF
:101E600001756C498B6B6C4A1E0C964209D1C67D7C
:101E70008F273740C775C67D1B0170271F4037432A
:101E8000C7754B6B1E0C964209D14679CF27374058
:101E9000477146791B0130271F4037434771096856
:101EA0000B0C934208D1C27DFC231340C375C27D45
:101EB0008907890F1143C175C17AFB220A40C2729A
:101EC00069464A7812018E781643112E06DDC17DCF
:101ED00004220A43C275C07DFFF762FF280403A9EC
:101EE00089B20143216021680140FCD1112E01DD3E
:101EF000FFF732FF164988890028FBD00CA800782C
:101F00008D8117220A8000224A60002807D060686D
:101F1000102162680A40102303409A42F9D00BA8AE
:101F20000078002802D015203C4908703C483D4903
:101F300008600DB0F0BD0000C000002004000048A3
:101F4000180000200C0000200400FA050CED00E051
:101F50000C00104880B50820334908800321012077
:101F6000C043FFF78DFE03210020C043FFF788FE2A
:101F700003210020FFF784FE03210120FFF780FEEC
:101F800003210420FFF77CFE03210520FFF778FEE4
:101F900000210620FFF774FE03210720FFF770FEE3
:101FA00003210D20FFF76CFE03210E20FFF768FED2
:101FB00003210F20FFF764FE03211120FFF760FECD
:101FC00003211220FFF75CFE03211320FFF758FEC8
:101FD00003211420FFF754FE03211520FFF750FEC4
:101FE00003211620FFF74CFE03211720FFF748FEC0
:101FF00001210120FFF714FF0C480D49086062B66B
:1020000001BD0000380400200C0000481C00002026
:1020100008002040B007001055AA00000000C04092
:10202000CCBCECFC140000200400104066000E0044
:1020300020009040023F00023E30023C20023B4C18
:10204000023A400239B202345B02350B0000000054
:1020500070477047012003490870704701480078B5
:10206000704700009004002038B50E4D2C000C3C49
:10207000002811D0022807D00ED2FFF7EFFF0C2165
:1020800048432818083805E0FFF7E8FF0C214843CB
:102090002818001F006832BDFFF7E0FF0C214843FD
:1020A000205832BD8C3004101CB5040001210120E1
:1020B000FFF7EAFB2000FFF7D7FF009068460621F4
:1020C000017101218171417100F08CFB2000FFF74B
:1020D000CBFF002100F00EFC13BD704710B50400CB
:1020E000202000F03FFD0128FAD0200000F01FFD65
:1020F00010BD78B585B0040001210920FFF7C4FBAD
:10210000FFF7ACFF2C4980000818001F0068009002
:10211000FFF7A4FF6D46294980000818001F0068DA
:1021200028710026AE716E71684600F05BFBFFF708
:1021300095FF234980000818001F00680090FFF7F2
:102140008DFF204980000818001F0068287168462C
:1021500000F048FB0294032002A908714871CE8068
:102160004E7208720120887202A800F0F7FB00206E
:1021700000F03CFD012000F0DDFB06B070BD80B535
:10218000102000F019FD002808D101BD00F0DEFC90
:10219000694608700121684600F006F8102000F03A
:1021A000E1FC0028F2D001BD074A1268002A00D1E4
:1021B000704780B5904701BDA4300410A8300410CA
:1021C000AC300410B03004102800002070B500249A
:1021D000012804D0022802D00020C04370BD00298D
:1021E00001D1002070BD0D00160004E02878FFF733
:1021F00075FF6D1C641C3000461E0028F6D12000BF
:1022000070BD704701207047012070472D498867D5
:102210000020704700000000FFB585B000250024B5
:10222000FEF70AFC06000698FEF7D0FC3018009076
:102230006846007D282800DBC02401A8FEF751FF76
:10224000002801D0C4243AE0200038D10F9F02A812
:1022500021A10CC90CC002A90020FEF7A0FD00229C
:102260006846017D0020FEF7B0FD164C164AA16FAE
:102270000020FEF7C4FD25700320607000986060A8
:10228000A5600798E060124EA662E6620F482063E0
:10229000104961633580069921640E99616408993B
:1022A000A1646566A566E06627672000FEF702FE6A
:1022B0003000FEF7FFFD2000FEF786FE0400200040
:1022C00009B0F0BDCC020020555555000522041080
:1022D0000803002009220410FFFFFFFFFF00000099
:1022E0000EB4C0B5020003A801900020009001AB1D
:1022F0000121044878440C30FDF7E2FE029906B053
:10230000084700BF710D00009D2102000AD002D4D1
:10231000491E9218FCD5C905100A1206524100D375
:10232000012A4841704700009D210200EED552422B
:10233000F446FFF7EBFF0122D207104360477047D6
:10234000012212060118CA420AD28A420DD8382246
:10235000120609098918C20FD207114340077047B6
:1023600000D049080909014301E0C10FC907002055
:102370007047F0B40E005E400125ED072E40B446D4
:10238000AE0ADF184C18F4423BD2F74241D2640D3A
:1023900043D07F0D38D0E41BC902DB0229432B4315
:1023A000CF0ADB0A0600B61A9F4104D2641EB61992
:1023B0007F41B6185F416812800D241800188442CE
:1023C00022DAE80C0021B6197F41B61A9F4102D2E9
:1023D000B6185F413F1C40414941F4D3241C21DD24
:1023E0002405B6197F41B61A9F4105D33743C60766
:1023F00037430026012F7041614166463143F0BCEE
:102400007047FCD1F74205D20020C1434905490875
:10241000F3E704D00020C143F1E77F0DFAD000209C
:102420006146ECE72442FAD1401C61410F03F6D328
:102430000020E2E7012252054B18DA4201D9581573
:1024400070475B0D0722D2019B1A10D9FF2B1DD2BA
:10245000DB050122D2070A4013430903020D114391
:10246000490AC200524100D9491CC81870470AD114
:10247000800A0A0302435212921C04D9D3070B406C
:10248000D00518437047C80FC0077047C80F000237
:10249000FF30C00570477047010042221201D21E72
:1024A000004207D002D4521E0018FCD5C10A4005D4
:1024B00012058918704700000122D2070118090E81
:1024C0007F3910D449421F310FD4001805D2C00102
:1024D0001043C84000D5D0437047C0011043C840E6
:1024E00005D440427047002070470042F3D51000E9
:1024F00070470122D20703004B402ED4431A01D269
:10250000C01AC91830B44B180418240E1B0E22D060
:10251000FF2C20D0E31A182B1DDC09021143C40D37
:10252000641E0002104394461925ED1A0A00AA40C1
:10253000D940451801D36D08A41CE405D209280A26
:102540002D062A436546AA41604103181B0EFF2B46
:1025500001D3C00DC00530BC7047514006E051406A
:10256000CCE70122D20703004B40F8D4431A03D230
:10257000C01AC9185040514030B44B1809021143D9
:102580000418240E1B0E40D0FF2C3AD025009D418C
:102590000BD31ED8C50D4002401A0BD3ED05010028
:1025A000400AC90591416841D5E7C50D4002491867
:1025B000401AD0D001214008491C0018FCD58C429B
:1025C00004D36D1A000AED054019C4E7E805104070
:1025D000C1E7182DBFDCAC1C0D00E140E5414D40CA
:1025E000012D4941C40D00021043451A01D46D1953
:1025F0009543641EE405280A2D069541604130BCD0
:102600007047FF2BA7D1D843A5E72442A3D10020D0
:10261000A1E730B405004D400122D20715404B1808
:102620000418240E2ED01B0E32D0FF2C34D0FF2BDA
:102630003AD0E4180002090210431143000A090AC3
:102640009446C2B24A43000AC3B24B43000A48430D
:10265000110A5B181A43D2B2190A091801D4491891
:10266000641E080A7F3C23DBFE2C08DAE405090619
:102670001143634699416041284330BC7047FF20B5
:10268000C005F9E728001B0EFF2BF6D1D043F4E775
:102690002800FF2CF1D1F9E74002F7D1FF2B01D13F
:1026A0004902F3D1E005E7E7D8054902E4D0EDE7B8
:1026B00043020020641CDFD15B129B1CDCD9D805CF
:1026C000DAE770470CB4012212060318DA4207D881
:1026D0004B18DA4204D802000A43921802D281420F
:1026E0000CBC7047FCD088420CBC70470F21114ACB
:1026F00013681B090B404370136819408170D2683E
:10270000426001210C4B9A4208D10C4A12680C4BD2
:102710009A4201D1042202E0022200E0012202706A
:102720004278002A00D1417006490988491C890075
:10273000816070471C00904041A000021C00001006
:1027400044A000F214001040EFF31482EFF309816B
:10275000002080F31488BFF36F8FF0B543464C46DA
:1027600055465E466746F8B4164CEFF3088323607F
:1027700006B4154C2068154C2060154C2068154C8B
:102780002060154C2068154C2060154C27680020EF
:102790002060BFF34F8F30BF27600A4C246884F35A
:1027A000088882B003BCF8BC9846A146AA46B34646
:1027B000BC46F0BC04BC80F3098881F31488BFF3E5
:1027C0006F8F10470800002004ED00E08004002017
:1027D00024ED00E08404002000E200E088040020F2
:1027E00008002040F8B50400504D2068800103D156
:1027F0007A212800FFF73AF8207900280BD0062824
:1028000009D0012807D0042805D0052803D07B2152
:102810002800FFF72BF8A079002805D0012803D065
:102820007C212800FFF722F86079002805D00128D4
:1028300003D07D212800FFF719F82068C00406D5D1
:102840002079062803D180212800FFF70FF820689F
:10285000800406D52079062803D181212800FFF7BE
:1028600005F823791900304A0020002B04D11368A1
:102870002568AB43136006E0062B04D100211368E2
:1028800025681D4315602568C540ED071AD5082841
:1028900009DA8500966A0F27AF40BE430F00AF40AC
:1028A000374397620EE00500083D082D0AD2050067
:1028B000083DAD00D66A0F27AF40BE430F00AF40C2
:1028C0003743D762401C1A28DDDB20686179012973
:1028D000916802D10843906001E0814391602068D3
:1028E000A1790129516802D108435060F1BD8143AB
:1028F0005160F1BD70B504000D000C4EA00104D173
:10290000B72149003000FEF7B1FF2800084D010053
:1029100006D0012806D0FF2170313000FEF7A6FF57
:102920006C6070BD2C6070BD04000040DC2D041094
:102930003C00004010B5884C01000AD0012803D0AB
:102940005F218648FEF792FF206801210143216044
:1029500010BD206801218843206010BDF8B5040037
:1029600020687E4D002802D07D49884203D3932100
:102970002800FEF77BFF2079002809D0012807D026
:10298000022805D0032803D094212800FEF76EFF0B
:102990006079002809D0012807D0022805D0032833
:1029A00003D095212800FEF761FFA079002805D00B
:1029B000012803D096212800FEF758FFE07900286F
:1029C00007D0012805D0022803D097212800FEF760
:1029D0004DFF207A042803DB98212800FEF746FFEC
:1029E000607A042803DB99212800FEF73FFFA07AD4
:1029F000002805D0012803D09A212800FEF736FFD1
:102A0000216801256A4E6B487269D2082A4001D1BB
:102A1000090100E0C900FDF769FEC109318109041F
:102A2000490A401A401C400881B23F2902DD3F3864
:102A30008006800E307360209F21327C0A4023790B
:102A40005B010340134333743278114062795201C1
:102A5000104008433070F7200821327C0240A379EF
:102A6000DB0008271F401743377432781040A279E3
:102A7000D200114001433170E179002907D1FD20D6
:102A8000317C014031743178084030701CE0022004
:102A90000229317C0BD101433174FB21327C0A4085
:102AA0003274327810433070307801400BE00143CB
:102AB00031740421327C042313433374327810437D
:102AC0003070307801433170706945490140207A97
:102AD0002840400208437061706942490140207AF1
:102AE0004008284000020843706170693E49014077
:102AF000607A284080030843706170694A49014048
:102B0000607A40080540E803084370611020EF2117
:102B1000327C0A40A37A1B0103401343337432789A
:102B20001140A27A1201104008433070F1BD10B577
:102B3000040080218900884203DBEF390748FEF753
:102B400095FEE005C00D3949088010BD3748008862
:102B5000C0B270470000000030003040742E0410F6
:102B600041420F0010B50400012C1AD0082C18D0D7
:102B7000102C16D0202C14D0402C12D0802C10D029
:102B80002B4884420DD02B4884420AD02A488442E4
:102B900007D02A48844204D0FF2156312848FEF746
:102BA00065FE2C48002C01D5006800E0808A11E009
:102BB0001C0030400000127A10B504001948204073
:102BC00001D1200004D1C82149001D48FEF74EFE66
:102BD0001F4800880440200000D00120C0B210BD72
:102BE000FFFDFFFFFFFEFFFFFFBFFFFF10B504006B
:102BF00010D001280ED002280CD003280AD00428B7
:102C000008D0052806D0062804D0FF21DA310C4868
:102C1000FEF72CFE10480178C7220A40E100382355
:102C200010E000000DE00000FF7FFFFF00003040DB
:102C30000800008001000080020000800400008085
:102C4000742E04100B401343037010BD00000000ED
:102C50003C0030400400304034003040426C756528
:102C60004E52472D3120526164696F20447269765B
:102C70006572205468726F75676870757420417052
:102C8000706C69636174696F6E0D0A00256420546D
:102C900058207061636B6574732E20256420504347
:102CA0004B54204C454E2E2041766572616765205D
:102CB00074696D653A2025642E25303364206D7368
:102CC0002E2044617461207468726F756768707536
:102CD000743A2025642E25303364206B6270732E85
:102CE0000D0A00007047704780B5FFF748FA01BD34
:102CF00080B5FDF7ADFF01BD38B50E4C0E4D01217D
:102D00002800FEF74BFF002806D02068401C2060FA
:102D100001212800FEF71CFF02212800FEF73EFFDC
:102D2000002806D02068401C206002212800FEF701
:102D30000FFF31BD240000200000D040433A5C4723
:102D400049545F766F62735C626C75656E72673151
:102D50002D73646B5C4C6962726172795C426C7554
:102D6000654E5247315F5065726970685F447269A1
:102D70007665725C7372635C426C75654E52473166
:102D80005F726164696F2E6300000000433A5C4724
:102D900049545F766F62735C626C75656E72673101
:102DA0002D73646B5C4C6962726172795C426C7504
:102DB000654E5247315F5065726970685F44726951
:102DC0007665725C7372635C426C75654E52473116
:102DD0005F7379734374726C2E630000433A5C47EF
:102DE00049545F766F62735C626C75656E726731B1
:102DF0002D73646B5C4C6962726172795C426C75B4
:102E0000654E5247315F5065726970685F44726900
:102E10007665725C7372635C426C75654E524731C5
:102E20005F6770696F2E6300433A5C4749545F7671
:102E30006F62735C626C75656E7267312D73646B63
:102E40005C4C6962726172795C426C75654E524786
:102E5000315F5065726970685F4472697665725C53
:102E60007372635C426C75654E5247315F6D667478
:102E70002E630000433A5C4749545F766F62735C8F
:102E8000626C75656E7267312D73646B5C4C696240
:102E9000726172795C426C75654E5247315F506564
:102EA000726970685F4472697665725C7372635CA4
:102EB000426C75654E5247315F756172742E6300C6
:102EC000433A5C4749545F766F62735C626C756528
:102ED0006E7267312D73646B5C4C696272617279DA
:102EE0005C426C75654E5247315F5065726970681F
:102EF0005F4472697665725C7372635C6D6973635B
:102F00002E63000070B40123002413E00168001D4B
:102F1000194202D04D466D1E49190C60091D121F41
:102F2000042AFAD20D00960701D50C80AD1C1A4078
:102F300000D02C700268001D002AE7D170BC7047D9
:102F400030B501684118446862088A188368E4074C
:102F500004D54C461B1901E0641C06D191420BD0EC
:102F60000C7864B2491C0D78491C1D705B1C002C48
:102F7000F2D4641EF7D5F1E70C3030BD10B5074927
:102F800079441831064C7C44163404E0081D0A6864
:102F9000891888470100A142F8D110BD080000003F
:102FA0008400000061FFFFFF040000000800002013
:102FB000040000000C0000200400000014000020A9
:102FC0000400000018000020080000001C00002081
:102FD0000400000030000020080000002400002051
:102FE000580000005C000020DC000000B803002056
:102FF000000000004DFFFFFFD000000014000000A3
:10300000C00000203DFFFFFFCA0000000A000000D2
:10301000100000202DFFFFFFA20000001C00000098
:10302000CC020020FEF746FE002801D0FFF7A6FFE5
:1030300000BF00BF002000BF00BFFEF715FB00F07F
:1030400000F880B500F002F801BD70470746384629
:10305000FDF76EFBFBE780B5694608700122012091
:10306000FFF7B4F8012802D16846007802BD0020BD
:10307000C04302BD38B505000C002000FFF7EBFF90
:10308000A04200D00025280032BD7047400000005B
:10309000800000000040000000BF00BF00BF00BF74
:1030A000FFF7C0FF00010000010000000008000061
:1030B00001000000704770477047880004DF88DF18
:1030C0008801C5000018D1008100810081008100C5
:0730D000F0000300000410F2
:04000005100430991A
:00000001FF
