:020000041004E6
:1000000000600020690E0410750E0410770E0410B5
:10001000AA5555AA45554C420000000000000000BA
:10002000000000000000000000000000790E041035
:100030000000000000000000870704107B0E041081
:100040002B0C04102F0C0410000000000000000016
:10005000470E0410530E04108D0E0410990E041058
:100060000000000000000000000000000000000090
:10007000000000009B0E04109D0E04109F0E041043
:10008000000000008F0E0410910E0410930E041057
:10009000950E0410970E0410A30E0410A10E041068
:1000A0000000000000000000000000000000000050
:1000B0000000000000000000000000000000000040
:1000C00010B5C20018231340FF249C40E243890767
:1000D000090E9940030004D55D481B071B0F083B20
:1000E00000E05C489B089B00C01803681A4011435D
:1000F000016010BDFEB501245748017801220A4372
:100100000270002655480660032500F0DEF96946B6
:10011000088068460088002801D16D1EF5D1684628
:100120000088202836DB684600880125400525D454
:10013000684600F02FFA6846417809018078084344
:10014000122800DA00258C480068000705D4002D2D
:1001500014D0012000F062F810E0884FF868884E53
:100160003168081A283800020012002806DD002D28
:1001700002D0012000F052F83068386081480470E5
:1001800000F05FFABFF34F8F7F4880490860BFF3EC
:100190004F8FFEE70120FEBD10B500220021A948C7
:1001A00004E00B00415C5918491CC9B2435C002BA8
:1001B000F7D1CB1C202B12DA0223435421234418FD
:1001C00063700823A3704318DA709F4A80235B0290
:1001D000401880B21843106010681840FCD110BD60
:1001E00070B500210023974A04E01C00D35CE3189B
:1001F0005B1CDBB2D45C002CF7D102253524DE1C5D
:10020000202E05DAD554D6187470B070D218D1707B
:100210008E4A157054709070D17070BD70B5802189
:1002200049028A4B9CB20C43874A002804D01460D0
:10023000106808400AD0FBE798789D78FB262E408E
:100240009E70146014680C40FCD1987070BD000062
:100250001CED00E000E400E0080020401400002055
:10026000F3B58BB003A800BF82A11C2200F00EFAE8
:10027000684600F08FF9744C01250BA8007800281F
:1002800058D003A84421817371490A78012313438C
:100290000B704C21C17220210172B22141745B218B
:1002A00001756C498B6B6C4A1E0C964209D1C67D58
:1002B0008F273740C775C67D1B0170271F40374306
:1002C000C7754B6B1E0C964209D14679CF27374034
:1002D000477146791B0130271F4037434771096832
:1002E0000B0C934208D1C27DFC231340C375C27D21
:1002F0008907890F1143C175C17AFB220A40C27276
:1003000069464A7812018E781643112E06DDC17DAA
:1003100004220A43C275C07DFFF762FF280403A9C7
:1003200089B20143216021680140FCD1112E01DD19
:10033000FFF732FF164988890028FBD00CA8007807
:100340008D8117220A8000224A60002807D0606849
:10035000102162680A40102303409A42F9D00BA88A
:100360000078002802D015203C4908703C483D49DF
:1003700008600DB0F0BD0000C0000020040000487F
:10038000180000200C0000200400FA050CED00E02D
:100390000C00104880B50820334908800321012053
:1003A000C043FFF78DFE03210020C043FFF788FE06
:1003B00003210020FFF784FE03210120FFF780FEC8
:1003C00003210420FFF77CFE03210520FFF778FEC0
:1003D00000210620FFF774FE03210720FFF770FEBF
:1003E00003210D20FFF76CFE03210E20FFF768FEAE
:1003F00003210F20FFF764FE03211120FFF760FEA9
:1004000003211220FFF75CFE03211320FFF758FEA3
:1004100003211420FFF754FE03211520FFF750FE9F
:1004200003211620FFF74CFE03211720FFF748FE9B
:1004300001210120FFF714FF0C480D49086062B646
:1004400001BD00005C0000200C0000481C000020E2
:1004500008002040B007001055AA00000000C0406E
:10046000CCBCECFC140000200400104066000E0020
:1004700020009040023F00023E30023C20023B4CF4
:10048000023A400239B202345B02350B0000000030
:1004900070B504000D003A4E3A48204003D1872140
:1004A000300000F06FF92800344D010005D001281C
:1004B00007D08821300000F065F92868A043286043
:1004C00070BD286804432C6070BD2F4802782F4807
:1004D00001880020002A44D109220A40092A00D1BB
:1004E000202011220A40112A02D10200402010438C
:1004F00021220A40212A02D10200802010434122F9
:100500000A40412A03D1020080204000104381228A
:100510000A40812A03D10200802080001043FF227C
:10052000921C13000B40934203D102008020C000B4
:100530001043174A13000B40934203D1020080205E
:100540000001104305220A40052A02D102001020B2
:1005500010438907890F03290ED1010008200843A1
:100560007047022A01D101207047042A01D10220DC
:100570007047082A00D104207047000020009040F6
:10058000300C04109F3F0F000800904008001048F6
:10059000010400000F21114A13681B090B4043702E
:1005A000136819408170D268426001210C4B9A4255
:1005B00008D10C4A12680C4B9A4201D1042202E085
:1005C000022200E0012202704278002A00D141702C
:1005D00006490988491C8900816070471C009040C9
:1005E00041A000021C00001044A000F214001040C2
:1005F000EFF31482EFF30981002080F31488BFF336
:100600006F8FF0B543464C4655465E466746F8B494
:10061000164CEFF30883236006B4154C2068154C84
:100620002060154C2068154C2060154C2068154C36
:100630002060154C276800202060BFF34F8F30BF2B
:1006400027600A4C246884F3088882B003BCF8BC95
:100650009846A146AA46B346BC46F0BC04BC80F30B
:10066000098881F31488BFF36F8F104708000020BA
:1006700004ED00E02400002024ED00E0280000202C
:1006800000E200E07C0000200800204070B4103A36
:1006900003D378C9103A78C0FBD2530701D318C9E5
:1006A00018C001D508C908C0D20704D30B8803803D
:1006B000891C801C002A01D50B78037070BC704720
:1006C00030B585B0FFF766FE00F05EF80121092025
:1006D000FFF7DEFE00F05CF8264980000818001FD6
:1006E0000068009000F054F86C4623498000081818
:1006F000001F006820710025A5716571684600F033
:100700004DF800F045F81D4980000818001F0068EA
:10071000009000F03DF81A4980000818001F00689A
:100720002071684600F03AF8E12040020290032070
:1007300002A908714871CD804D720872012088723B
:1007400002A800F0E9F8002000F020FA012000F0F3
:10075000CFF8102000F0E4F90128FAD000F0D4F925
:100760000400802000F0DCF90028FAD0E0B200F0AC
:10077000BCF9EEE77C0E0410800E0410840E041009
:10078000880E0410FEE77047012003490870704787
:10079000014800787047000080000020F8B5040090
:1007A000524D2068800103D17A212800FFF7EAFF2B
:1007B000207900280BD0062809D0012807D004286A
:1007C00005D0052803D07B212800FFF7DBFFA079A7
:1007D000002805D0012803D07C212800FFF7D2FF94
:1007E0006079002805D0012803D07D212800FFF77B
:1007F000C9FF2068C00406D52079062803D18021CE
:100800002800FFF7BFFF2068800406D5207906285E
:1008100003D181212800FFF7B5FF23791900324A5F
:100820000020002B04D113682568AB43136006E059
:10083000062B04D10021136825681D431560256827
:10084000C540ED0738D5082809DA8500966A0F27D4
:10085000AF40BE430F00AF40374397622CE0050026
:10086000083D082D0BD20500083DAD00D66A0F27C4
:10087000AF40BE430F00AF403743D7621CE00500D6
:10088000103D082D0BD20500103DAD00166B0F2753
:10089000AF40BE430F00AF40374317630CE018284A
:1008A0000ADB0500183DAD00968E0F27AF40BE4312
:1008B0000F00AF4037439786401C1A28BFDB2068E3
:1008C00061790129916802D10843906001E0814378
:1008D00091602068A1790129516802D108435060D4
:1008E000F1BD81435160F1BD04000040800C041053
:1008F00010B5884C01000AD0012803D05F2186483A
:10090000FFF740FF206801210143216010BD2068EE
:1009100001218843206010BDF8B5040020687E4D99
:10092000002802D07D49884203D393212800FFF795
:1009300029FF2079002809D0012807D0022805D0F6
:10094000032803D094212800FFF71CFF60790028BA
:1009500009D0012807D0022805D0032803D095210B
:100960002800FFF70FFFA079002805D0012803D049
:1009700096212800FFF706FFE079002807D001281C
:1009800005D0022803D097212800FFF7FBFE207A2C
:10099000042803DB98212800FFF7F4FE607A04287E
:1009A00003DB99212800FFF7EDFEA07A002805D08F
:1009B000012803D09A212800FFF7E4FE21680125D1
:1009C0006A4E6B487269D2082A4001D1090100E0E1
:1009D000C90000F00FF9C10931810904490A401A20
:1009E000401C400881B23F2902DD3F388006800E5E
:1009F000307360209F21327C0A4023795B010340E1
:100A00001343337432781140627952011040084325
:100A10003070F7200821327C0240A379DB000827E0
:100A20001F401743377432781040A279D20011402A
:100A300001433170E179002907D1FD20317C01406B
:100A400031743178084030701CE002200229317C7A
:100A50000BD101433174FB21327C0A40327432786D
:100A600010433070307801400BE0014331740421B1
:100A7000327C04231343337432781043307030785F
:100A80000143317070693E490140207A284040029C
:100A90000843706170693B490140207A4008284052
:100AA000000208437061706937490140607A28404C
:100AB000800308437061706942490140607A4008D0
:100AC0000540E803084370611020EF21327C0A40A2
:100AD000A37A1B0103401343337432781140A27A86
:100AE0001201104008433070F1BD10B504008021A0
:100AF0008900884203DBEF390748FFF743FEE00532
:100B0000C00D3149088010BD2F480088C0B2704721
:100B10000000000030003040CC0C041041420F00B7
:100B200010B50400012C1AD0082C18D0102C16D0A7
:100B3000202C14D0402C12D0802C10D0234884427A
:100B40000DD0234884420AD02248844207D022484C
:100B5000844204D0FF2156312048FFF713FE23487A
:100B6000002C01D5006800E0808A03E01C003040C2
:100B70000000127A0440200000D00120C0B210BD55
:100B8000FFFDFFFFFFFEFFFFFFBFFFFF10B50400EB
:100B900010D001280ED002280CD003280AD0042837
:100BA00008D0052806D0062804D0FF21DA310B48EA
:100BB000FFF7E8FD0E480178C7220A40E10038231C
:100BC0000EE00000FF7FFFFF0000304008000080C3
:100BD000010000800200008004000080CC0C0410A2
:100BE0000B401343037010BD0000000004003040B0
:100BF00034003040094214D088420FD30122030C44
:100C000001D100041204002300185B418B4200D381
:100C10005B1A5241F8D31900100070470100002000
:100C2000704708B500F002F808BD7047704770477C
:100C3000433A5C4749545F766F62735C626C7565DA
:100C40006E7267312D73646B5C4C6962726172798C
:100C50005C426C75654E5247315F506572697068D1
:100C60005F4472697665725C7372635C426C756531
:100C70004E5247315F7379734374726C2E63000078
:100C8000433A5C4749545F766F62735C626C75658A
:100C90006E7267312D73646B5C4C6962726172793C
:100CA0005C426C75654E5247315F50657269706881
:100CB0005F4472697665725C7372635C426C7565E1
:100CC0004E5247315F6770696F2E6300433A5C474D
:100CD00049545F766F62735C626C75656E726731E2
:100CE0002D73646B5C4C6962726172795C426C75E5
:100CF000654E5247315F5065726970685F44726932
:100D00007665725C7372635C426C75654E524731F6
:100D10005F756172742E630070B40123002413E0C8
:100D20000168001D194202D04D466D1E49190C6024
:100D3000091D121F042AFAD20D00960701D50C8056
:100D4000AD1C1A4000D02C700268001D002AE7D1AB
:100D500070BC704730B501684118446862088A1851
:100D60008368E40704D54C461B1901E0641C06D1D6
:100D700091420BD00C7864B2491C0D78491C1D704F
:100D80005B1C002CF2D4641EF7D5F1E70C3030BDAB
:100D900010B5074979441831064C7C44163404E0F8
:100DA000081D0A68891888470100A142F8D110BDC2
:100DB000080000006C00000061FFFFFF040000005D
:100DC00008000020040000000C00002004000000C7
:100DD000140000200400000018000020080000009B
:100DE0001C0000200400000030000020080000006B
:100DF00024000020280000005C000020000000000B
:100E000055FFFFFFA000000014000000C0000020FC
:100E100045FFFFFF9A0000000A00000010000020BC
:100E2000FFF768F9002801D0FFF7B2FF00BF00BF4D
:100E3000002000BF00BFFFF743FC00F000F880B5C2
:100E400000F002F801BD70470746384600F002F88E
:100E5000FBE7704780B500BF00BF024A11001820B1
:100E6000ABBEFBE72600020000BF00BF00BF00BF13
:100E7000FFF7D6FF7047FEE770477047000100009C
:100E800001000000000800000100000070477047EA
:100E9000704770477047704770477047704770479A
:100EA000704770478100810081008100F0000300DD
:030EB0000004102B
:0400000510040E696C
:00000001FF
