:020000041004E6
:100000000060002031770510F9680510FB680510C5
:10001000AA5555AA45554C420000000000000000BA
:10002000000000000000000000000000FD68051056
:100030000000000000000000FF68051001690510C5
:1000400009690510471204100000000000000000BC
:100050003D6905107B1904103F690510A336041093
:100060000000000000000000000000000000000090
:1000700000000000FB36041013370410DF4C04109E
:1000800000000000E3260410032704108F2F041043
:10009000DF2F04105B3204102B510410DB4E0410D0
:1000A0000000000000000000000000000000000050
:1000B0000000000000000000000000000000000040
:1000C000F1B5FFB095B00C001500EFF3108018905B
:1000D00072B60020A149087000F008FC060094A840
:1000E000007800F05DFC6946087094A8007800F084
:1000F000A7FC94A90978884200D9080069460978C4
:10010000814200D901008E4200D90E006846067077
:1001100093486946097889004018816E491C8166B8
:100120006846007800280AD068460078012807D180
:100130008C48007A00218B4A117230BF1072A5E3FF
:1001400068464470E248057068464078E0490871A6
:1001500001A800F091FCDE48007A1E9082480088D9
:100160006A90824800686990002600208BAB804C22
:10017000810062585A50401C0828F9DB7D48C0694C
:1001800068907D48806967908025ED0528686690B5
:1001900068686590A8686490E868639028696290D0
:1001A00068696190A8696090E8691D90E86A5F904D
:1001B000286B5E90686B5D90288F5C90686C5B909C
:1001C0006E4800685A906D48007C59906B48008BCF
:1001D00058906A48007F5790694800785690684860
:1001E000406855906648007A5490654880895390DD
:1001F0006348007F529063480078519061480079CD
:1002000050906048007A4F905E48007B4E905D4869
:10021000007C4D90C64800684C90C54840684B90A3
:10022000C348007C4A90C248007D4990C14800788C
:100230004890C04880884790BE4880684690BD4836
:10024000808945900022BC481C9010051C994118DB
:1002500090000B6816AF3B504B6814AF3B508B8B34
:1002600012AF3B500B8C10AF3B508B8C0EAF3B5002
:100270000B8D0CAF3B50CB6A0AAF3B504C23CB5A93
:1002800008AF3B504C314B6806AF3B50C96804ABDC
:100290001950521C012AD6DDB02000060068449097
:1002A000A64800684390A54840684290A3488089CA
:1002B0004190A248008A4090A04840693F909F48E2
:1002C000007E3E909D48808D3D909C48006B3C9008
:1002D0009A48406B3B909948806B3A909748C06B26
:1002E00039909648006C38909448406C3790944808
:1002F000008836909248808835909148007B3490F1
:100300008F48007C33908E48808A32908C48007EE3
:1003100031908C48008830908A4880882F90894896
:10032000007B2E908748007C2D908648808A2C90F8
:100330008448007E2B90844800682A908248406858
:1003400029900848006828900648007A27907F483E
:100350000068002818D17E481B9016E00C00002091
:1003600048030020000070400400104000E100E05D
:1003700000E400E004ED00E0080090400C00304094
:100380002C003040500030401B96002271481A90DB
:10039000142050431A994018910043687BAF7B505A
:1003A000036883AF7B50836873AF7B50C0686BABCF
:1003B0005850521C082AE9DB8120C005406826906D
:1003C0008120C005007B25908120C005408B2490B2
:1003D0008120C005008B23908120C005406A2290B7
:1003E0008120C005806A21908120C005008820906E
:1003F000594800681F9068460078032806D157487E
:100400000068C02189050143544801600021544817
:10041000006864381990CF4A50661046426E1368DF
:100420008F00C351491C121D42661929F6DB28486A
:100430000079274909782A68520A514088436ED1C9
:1004400001A84078000101A989780143112904DD40
:1004500044480660002000F007FC4048006842491C
:100460000860012000F06AFD00F07EFD002000F031
:1004700065FD3E480078002800D087E03C480068D1
:10048000400636D43B480268394B19685140CC4885
:10049000394C2468056AAC421FD11B689A4203D0CC
:1004A000C84A12680A4018D13449096880225205A6
:1004B00013000B400468224093420ED18022D204E4
:1004C000114000680240914213D01F4802E000BF73
:1004D00000002040006880070BD52049C868020949
:1004E000D01C80235B0398421AD2CA681209824248
:1004F000FBD301A84178090180780843112805DD64
:10050000012000F0B1FB1E481649086068460078DB
:10051000032804D1114801681A4A0A400260B5E173
:10052000C8680009184BD3189842F9D1E1E700BF19
:1005300000004040240040400000A0400400F04083
:100540000400D0400400E04010E000E0000C7040E7
:1005500051E5CC1A080000A0080000C004000048C3
:100560000000041014000020180000200C000020DF
:1005700000E200E0280400202404002028000020DD
:10058000CCBCECFCFFFFFFCF0400F0FF0120C3490F
:1005900008828E808E6000216E48199A4266426EF3
:1005A0008B00C3581360491C121D42661929F6DBE3
:1005B0006A98BB49088069988249086000208100D8
:1005C0008BAA52586250401C0828F8DB68987C4976
:1005D000C8616798B34988616698286065986860C3
:1005E0006498A8606398E8606098A8616198686101
:1005F000629828611D98A8621D98E8615F98E8627A
:100600005E9828635D9868635C9828875B98686447
:10061000A5485A99016059990174589901835799CD
:1006200001772030569901705599416054990172B3
:1006300053998181529901772430519901705099D1
:1006400001714F9901724E9901734D990174974848
:100650004C9901604B9941604A990174499901751F
:100660002430489901704799818046998160459965
:100670008181002210051C994118900016AB1B586F
:100680000B6014AB1B584B6012AB1B588B8310AB29
:100690001B580B840EAB1B588B840CAB1B580B8563
:1006A0000AAB1B58CB624C3108AB1B580B8006AB16
:1006B0001B584B6004AB1858C860521C012AD9DD86
:1006C0004498B021090608607948299941608660FC
:1006D0002A990160774843990160429941604199A4
:1006E0008181409901823F9941613E9901763C990F
:1006F00001633B9941633A9981633999C1633899A0
:100700000164379941643D9981856B483699018030
:100710003599818034990173339901746749329A0C
:100720000A408282319A02766548309A02802F9A76
:1007300082802E9A02732D9A02742C9A1140818223
:100740002B9901765F4828990160279901721B98BF
:100750005D4901E0480300200860142070431A99A5
:100760004018B1007BAA5258426083AA52580260D6
:1007700073AA525882606BAA5158C160761C082E29
:10078000EBDB8120C00526994160259901732499EE
:1007900041832399018322994162219981622099A1
:1007A00001801F98494908602E0D3E4800780028B6
:1007B00035D168464078002831D0384804E000BF81
:1007C00004ED00E000E100E0018809220A40092A66
:1007D00002D1E96989051FD4018811220A40112A32
:1007E00002D1E969314017D1018821220A40212A2A
:1007F00002D1E96909050FD4018841220A40412A42
:1008000002D1E969C90407D4008881210140812906
:1008100005D1E869800402D501202D4908602D4DDD
:1008200068460078032803D128682B4901402960D5
:100830001E982A49087268460078032801D10121D0
:1008400000E00021002000F031FA1E98C0071DD5FD
:1008500000F0E2FB6946088068460088304212D109
:100860001F48008800070ED5E8681E490968081A65
:100870000002001200D54042212804DAE8682D3039
:10088000EA689042FCD2152017490870189880F346
:10089000108800207FB016B0F0BD0000080010489E
:1008A00004001040080090400C0030400000404020
:1008B00010E000E00400F0400400D040BFFF000062
:1008C0000400E04000007040000C7040080000C0D0
:1008D00000E200E004000048FFFFFFCF00002040DE
:1008E000C0000020180000200000C040F8B5294DCD
:1008F000002029680A4640321378D279934348D1C0
:100900004A6E120E45D13E22525C002A41D1431E4E
:1009100021488D6A467A1A460024F600AD19092648
:10092000F606376900887D1907070120002F07DACE
:100930001123DB01CB189C6A631B1B021B1228D4FA
:1009400007273F02C919C96DCF0103D54A1B1202FF
:1009500012121ED401252D07002B06DA002A0ADA0E
:1009600075600E48856003200AE0112000060443EC
:100970007460002A03DB2943084600F0ADFB022027
:100980000449096840314A78002A02D000204870A2
:100990000320F8BD3C030020C000002040000048B8
:1009A0000320704710B500F01BFA00F0BDFBE120FA
:1009B000400200F0CEFB2B4C2000343000F044FC11
:1009C000002804D00100200000F060FCFEE700F0E9
:1009D00091FC022000F08EFC002000F0A4FC02201C
:1009E00000F0A1FC00F0A6FC00F082FD002000F069
:1009F0000FFF0221002000F01DFF1B4C1020207073
:100A00000020607000F04CFF00F0BEFD627821789D
:100A10000320FFF755FBF5E7BFF34F8F1348144949
:100A20000860BFF34F8FFEE7042800DB704780B5F6
:100A30001321137850780002184300F073FF01BDB2
:100A400080B50C480068800607D400F0C8FB002879
:100A500003D100F0C9FB002801D0002002BD032013
:100A600002BD000074630510300400200400FA0584
:100A70000CED00E0E80200200F21114A13681B0969
:100A80000B404370136819408170D26842600121A5
:100A90000C4B9A4208D10C4A12680C4B9A4201D175
:100AA000042202E0022200E0012202704278002AC1
:100AB00000D1417006490988491C8900816070474E
:100AC0001C00904041A000021C00001044A000F255
:100AD000140010407FB504000D0016006846FFF7B3
:100AE000CBFF68460178217041782970807830709A
:100AF0007FBD0C0802170D01010209090101060260
:100B000009FFFFFFFFFF0909FFFFFFFF10B5C2004C
:100B100018231340FF249C40E2438907090E9940A3
:100B2000030004D55D481B071B0F083B00E05C4831
:100B30009B089B00C01803681A401143016010BD58
:100B4000FEB501245748017801220A4302700026AD
:100B500055480660032500F05FFA6946088068463C
:100B60000088002801D16D1EF5D168460088202834
:100B700036DB684600880125400525D46846FFF726
:100B80007BFF68464178090180780843122800DA23
:100B900000258C480068000705D4002D14D00120E2
:100BA00000F062F810E0884FF868884E3168081A43
:100BB000283800020012002806DD002D02D0012096
:100BC00000F052F8306838608148047000F0F5F9A0
:100BD000BFF34F8F7F4880490860BFF34F8FFEE718
:100BE0000120FEBD10B500220021A94804E00B0041
:100BF000415C5918491CC9B2435C002BF7D1CB1C8E
:100C0000202B12DA02234354212344186370082353
:100C1000A3704318DA709F4A80235B02401880B2A9
:100C20001843106010681840FCD110BD70B5002149
:100C30000023974A04E01C00D35CE3185B1CDBB282
:100C4000D45C002CF7D102253524DE1C202E05DAD9
:100C5000D554D6187470B070D218D1708E4A1570F1
:100C600054709070D17070BD70B5802149028A4B6C
:100C70009CB20C43874A002804D0146010680840D6
:100C80000AD0FBE798789D78FB262E409E70146072
:100C900014680C40FCD1987070BD00001CED00E0A1
:100CA00000E400E00800204014000020F3B58BB001
:100CB00003A800BF82A11C2200F038FE6846FFF79F
:100CC000DBFE744C01250BA80078002858D003A83F
:100CD0004421817371490A78012313430B704C211D
:100CE000C17220210172B22141745B2101756C49EE
:100CF0008B6B6C4A1E0C964209D1C67D8F273740FC
:100D0000C775C67D1B0170271F403743C7754B6BE6
:100D10001E0C964209D14679CF2737404771467954
:100D20001B0130271F403743477109680B0C934262
:100D300008D1C27DFC231340C375C27D8907890F8A
:100D40001143C175C17AFB220A40C27269464A78D2
:100D500012018E781643112E06DDC17D04220A434E
:100D6000C275C07DFFF762FF280403A989B2014361
:100D7000216021680140FCD1112E01DDFFF732FF17
:100D8000164988890028FBD00CA800788D8117228D
:100D90000A8000224A60002807D06068102162683B
:100DA0000A40102303409A42F9D00BA8007800288B
:100DB00002D015203C4908703C483D4908600DB000
:100DC000F0BD0000C0000020040000481800002012
:100DD0000C0000200400FA050CED00E00C001048A7
:100DE00080B508203349088003210120C043FFF764
:100DF0008DFE03210020C043FFF788FE0321002061
:100E0000FFF784FE03210120FFF780FE0321042069
:100E1000FFF77CFE03210520FFF778FE0021062066
:100E2000FFF774FE03210720FFF770FE03210D205A
:100E3000FFF76CFE03210E20FFF768FE03210F2051
:100E4000FFF764FE03211120FFF760FE032112204B
:100E5000FFF75CFE03211320FFF758FE0321142047
:100E6000FFF754FE03211520FFF750FE0321162043
:100E7000FFF74CFE03211720FFF748FE0121012058
:100E8000FFF714FF0C480D49086062B601BD000071
:100E9000F40300200C0000481C0000200800204043
:100EA000B007001055AA00000000C040CCBCECFC0C
:100EB000140000200400104066000E002000904046
:100EC000023F00023E30023C20023B4C023A40020C
:100ED00039B202345B02350B00000000F0B5027835
:100EE0001F2301248178002921D0417852B2D500F6
:100EF00018262E40FF27B740FD438907090EB14051
:100F0000160004D5134A3607360F083E00E0124A91
:100F1000B608B6009219166835402943116000786A
:100F200003409C400D49400980000C50F0BD134027
:100F30009C400B48510989004450F0BD09490028E4
:100F4000086803D0042202430A60704704229043D9
:100F5000086070471CED00E000E400E000E100E004
:100F600080E100E010ED00E0EFF31482EFF309817F
:100F7000002080F31488BFF36F8FF0B543464C46D2
:100F800055465E466746F8B4164CEFF30883236077
:100F900006B4154C2068154C2060154C2068154C83
:100FA0002060154C2068154C2060154C27680020E7
:100FB0002060BFF34F8F30BF27600A4C246884F352
:100FC000088882B003BCF8BC9846A146AA46B3463E
:100FD000BC46F0BC04BC80F3098881F31488BFF3DD
:100FE0006F8F10470800002004ED00E0280000206B
:100FF00024ED00E02404002000E200E028040020AA
:1010000008002040304A0129116802D108431060CD
:1010100070478143116070472C4802782C48018842
:101020000020002A44D109220A40092A00D12020A8
:1010300011220A40112A02D102004020104321222D
:101040000A40212A02D102008020104341220A4096
:10105000412A03D1020080204000104381220A402F
:10106000812A03D10200802080001043FF22921CBD
:1010700013000B40934203D102008020C0001043B4
:10108000144A13000B40934203D102008020000158
:10109000104305220A40052A02D102001020104305
:1010A0008907890F03290ED10100082008437047E2
:1010B000022A01D101207047042A01D10220704781
:1010C000082A00D10420704720009040080090407A
:1010D000080010480104000030B5EFF3108172B62B
:1010E0000922D2061269FF25821A120214120C4A32
:1010F00091351368AC4208DC0122120690431A466F
:101100004032D479DF252C40D471C2010724D209A2
:1011100024021B19DA65034A906081F3108830BD00
:101120003C0300204000004801200349087070473C
:1011300001480078704700003304002010B5040017
:10114000202000F0C5FC0128FAD0200000F0BBFCF4
:1011500010BD78B585B0040001210920FFF752FFCA
:10116000FFF7E6FF244980000818001F0068009080
:10117000FFF7DEFF6D46214980000818001F006858
:1011800028710026AE716E71684600F0CFFCFFF743
:10119000CFFF1B4980000818001F00680090FFF770
:1011A000C7FF184980000818001F006828716846AA
:1011B00000F0BCFC0294032002A908714871CE80A3
:1011C0004E7208720120887202A800F0E3FB002032
:1011D00000F08CFC012000F0D1FB06B070BD80B5A2
:1011E000802000F075FC2AE080B5082000F070FC3B
:1011F000012800D0002002BD7C7705108077051003
:10120000847705108877051070B50024012804D074
:10121000022802D00020C04370BD002901D1002067
:1012200070BD0D00160004E02878FFF787FF6D1CE5
:10123000641C3000461E0028F6D1200070BD401E00
:101240008041C00F02BD704710B5837F012200248A
:1012500092024168082B03D94224914202D310E044
:10126000914201D242240CE001463422064800F0AB
:1012700011FD00F023FD002801DA482401E000F010
:101280005DFD204610BD0000C00300200EB4C0B5B7
:10129000020003A801900020009001AB0121044846
:1012A00078440C3000F0BEFD029906B0084700BF3C
:1012B0007B63010038B50E4D2C000C3C002811D08A
:1012C000022807D00ED2FFF733FF0C21484328181D
:1012D000083805E0FFF72CFF0C2148432818001FB1
:1012E000006832BDFFF724FF0C214843205832BD6F
:1012F000247705101CB5040001210120FFF782FEB0
:101300002000FFF7D7FF00906846062101710121F8
:101310008171417100F00AFC2000FFF7CBFF002132
:1013200000F06FFC13BD80B5FFF7C4FF012100F092
:1013300068FC01BD18B589B007A800BF4CA10CC955
:101340000CC0904C2000FFF7A1FF07AA0621002047
:1013500001F028F8010004D020005030FFF796FF7C
:1013600003E020007C30FFF791FF0421012001F011
:101370001DF8002805D001002000A430FFF786FFEB
:1013800003E02000D430FFF781FFB84801F012F8E5
:10139000002806D00100802040002018FFF776FFCB
:1013A00004E0942040002018FFF770FF01F022F8BD
:1013B000002805D0010000BF2FA0FFF767FF02E063
:1013C00035A0FFF763FF05A80190801C009006ABD5
:1013D00007220221042001F011F8002804D00100A6
:1013E00034A0FFF753FF02E03AA0FFF74FFF01F0F0
:1013F0001DF8002806D00100A62040002018FFF7A5
:1014000045FF04E0BC2040002018FFF73FFF02200A
:1014100001F010F8002806D00100D020400020186C
:10142000FFF734FF04E0E62040002018FFF72EFF0E
:1014300000200490BC4803900020029010200190EE
:1014400007200090002302220121012000F0FAFF72
:10145000002806D00100FA2040002018FFF716FFF0
:1014600004E08C2080002018FFF710FF0AB010BDA8
:10147000883822E1800200006163695F67617474EB
:101480005F696E69742829206661696C65643A3009
:1014900078253032780D0A006163695F6761747482
:1014A0005F696E6974202D2D3E205355434345538B
:1014B000530D0A006163695F6761705F696E6974EB
:1014C0002829206661696C65643A30782530327865
:1014D0000D0A00006163695F6761705F696E69741E
:1014E000202D2D3E20535543434553530D0A0000F4
:1014F000E0B58022D201002001900090022311006B
:10150000012001F01FF801009D4802D0FFF7BEFE48
:1015100007BD4430FFF7BAFE07BD18B587B002001B
:101520000B008021C901FA20800006900024059458
:10153000049003942820029006200190022000903D
:10154000080001F009F801008E4802D0FFF79EFE66
:1015500002E02C30FFF79AFE08B010BD80B5684657
:1015600097A10A8802806B46022211218648008AD0
:1015700001F0A9F80100854801D111212C30FFF7B5
:1015800085FE01BD1C460510F8B57F4C6069C0079B
:1015900006D56069012188436061611D20794BE0B7
:1015A00008276069384005D06069B8436061FFF77B
:1015B000D5FFF1BD764D774E6069400760691FD554
:1015C000042188436061311D300001F080F8010082
:1015D00001D0280042E0317828003030FFF756FE75
:1015E0003078002841D03079582170540622711D7E
:1015F0003000593000F0B4F9606907436761F1BD0C
:10160000C00660691BD5102188436061002231004B
:101610005831012000F060FF002805D001002800AB
:101620006430FFF733FE03E028009C30FFF72EFE06
:10163000310059315820305CFFF76FFFF1BD800653
:1016400013D560692021884360611321208A00F04E
:1016500069F9002805D001002800D030FFF716FEF8
:10166000F1BD00BF57A0FFF711FEF1BDCC02002075
:10167000FEB50D002E78287A694608706F78424CC6
:10168000207800282AD10622A91C01A800F002FB1C
:10169000042E23D1EB6800206946097804E002009B
:1016A000185C1018401CC0B2884217DA5A1C125C31
:1016B000092AF4D10622210018315B1C181801F008
:1016C00011F800280AD12771062201A9601D00F037
:1016D000E1FA01202070616908436061F7BD80B5BF
:1016E0002D48FFF7D3FD01BD10B50C002B48FFF7C7
:1016F000CDFD25480482416902220A43426110BDA2
:1017000080B52748FFF7C2FD01BD80B52548FFF72A
:10171000BDFD01BD80B52448FFF7B8FD1A484169F9
:1017200004220A43426101BD40E2010080B51F4826
:10173000FFF7ACFD01BD80B500930B0001001C4814
:10174000FFF7A4FD01BD80B51A48FFF79FFD01BD5D
:1017500080B51948FFF79AFD0B48416910220A43EA
:101760004261416902229143416101BD80B518780F
:101770005978090201431148FFF788FD01BD0000B7
:10178000B060051074650510D402002030620510A9
:10179000685C05105C0000206C6D0510E46A0510A3
:1017A000946D0510BC6D0510586C0510546B051038
:1017B00034610510846C0510C06B0510E46D0510D4
:1017C000010000006163695F6761705F7465726D3D
:1017D000696E617465202D2D3E205355434345535A
:1017E000530D0A0038B5094D2C00083C002808D0DC
:1017F000012806D1FFF79CFCC0002818001F0068D4
:1018000032BDFFF795FCC000205832BD747705103B
:101810001CB5040001210120FFF7F4FB2000FFF7B5
:10182000E1FF00900020694688808871684600F0DA
:101830007DF913BD7FB505000C00002668460670D3
:101840000321417001218170FFF748FB2800FFF759
:10185000C9FF01900296039401A800F0D9F928006D
:10186000FFF7C0FF00F0FFF92800FFF7BBFF0121E1
:1018700000F0EFF97FBD80B5FFF7B4FF00F0BEF9CF
:10188000002800D0012002BD80B5FFF7ABFF00F0BB
:10189000EDF902BD80B5FFF7A5FF00F0E4F901BD49
:1018A00010B500F02FFF1D4C41212068490141185F
:1018B000097F00290DD1A0300079C00705D100F0C3
:1018C000AFFF00F0CDFF01F099F801F061F901F0F0
:1018D0006FF901F0F3F92068014640310A78C979BF
:1018E0008A4319D13E21095C002915D10C490A8887
:1018F000120711D50922D2061269497A836AC900F2
:1019000059181123DB01C018806A801A00020012E6
:10191000814201DA01F034FA10BD00003C030020DE
:10192000C000002010B501F0D7FA10BD70B4103A15
:1019300003D378C9103A78C0FBD2530701D318C932
:1019400018C001D508C908C0D20704D30B8803808A
:10195000891C801C002A01D50B78037070BC70476D
:101960008B0701D18307E1D0124205D00B78491CC7
:101970000370401C521EF9D170477047614900281E
:10198000086803D0012202430A6070470122904395
:1019900008607047F0B50400216801255A4E5B4885
:1019A0007269D2082A4001D1090100E0C90001F0A2
:1019B00097FAC10931810904490A401A401C4008BC
:1019C00081B23F2902DD3F388006800E30736020EF
:1019D0009F21327C0A4023795B0103401343337417
:1019E000327811406279520110400843307008216A
:1019F000F720327C0240A379DB0008271F40174301
:101A0000377432781040A279D2001140014331700E
:101A1000E179002907D1FD20317C01403174317812
:101A2000084030701CE002200229317C0BD10143B8
:101A30003174FB21327C0A403274327810433070AA
:101A4000307801400BE0014331740421327C0423DF
:101A5000134333743278104330703078014331705F
:101A600070692B490140207A284040020843706188
:101A7000706928490140207A400828400002084344
:101A80007061706924490140607A284080030843EE
:101A90007061706921490140607A40080540E8039F
:101AA000084370611020EF21327C0A40A37A1B01A9
:101AB00003401343337432781140A27A120110406C
:101AC00008433070F0BDC005C00D1549088070474F
:101AD00001001448002901D5006800E0808AFFE772
:101AE0000140080000D00120C0B270470E490A78BA
:101AF000C7231340C0003822FFE702401A430A7090
:101B000070470000300030401C0030400000127A66
:101B1000FFFDFFFFFFFEFFFFFFBFFFFFFF7FFFFF98
:101B2000000030400400304034003040F0B504790B
:101B300022000021514B002C04D11C680568AC43E5
:101B40001C6006E0062C04D100221C6805682543B1
:101B50001D600568CD40ED0738D5082909DA8D00EC
:101B60009E6A0F27AF40BE431700AF4037439F62C6
:101B70002CE00D00083D082D0BD20D00083DAD00F6
:101B8000DE6A0F27AF40BE431700AF403743DF6226
:101B90001CE00D00103D082D0BD20D00103DAD00D6
:101BA0001E6B0F27AF40BE431700AF4037431F6384
:101BB0000CE018290ADB0D00183DAD009E8E0F27A2
:101BC000AF40BE431700AF4037439F86491C1A29D8
:101BD000BFDB01684279012A9A6802D111439960FA
:101BE00001E08A439A60016880790128586802D12F
:101BF00001435960F0BD88435860F0BD8021C9059C
:101C000035E01F4A012901D11060704750607047CC
:101C100002681C494368012B0B6802D11A430A6011
:101C200001E093430B6082680368012A03D18A684C
:101C300013438B6004E0002A07D18A689A438A60C4
:101C40004A68006882434A607047486803434B60B3
:101C500070470D4A0029116802D008431060704790
:101C60008143116070470949086070470849096855
:101C7000084000D00120C0B27047000004000040BE
:101C80003C000040100000401C00004028000040C4
:101C90002400004010B50400FFF762FE200010BDD4
:101CA00010B50400080011000200200001F070F9D6
:101CB000200010BD80B500F015FD02BD70B50025F7
:101CC000ED4300F0B0FC01282ED000231849032278
:101CD000888BFF24401E10438A7F59346243821848
:101CE000088B282460431218488B30246043121854
:101CF0000846203040782C24604310180D4A1818EC
:101D000084184869A0420DD10B4884420AD90D6954
:101D100000F089FCC1B2284601F062F901F09CFA9A
:101D2000401B251A284670BDFF23B533CEE70000BF
:101D3000C003002089190000B8090000F8B5062684
:101D4000324840250560324800270780A905092050
:101D5000C00641602F4A9160016801602E4803214E
:101D600004694269601E08433946401CFFF798FF2A
:101D700000F059FCC1B2204601F032F901F06CFAD2
:101D800001F06CFA00F01BFC244917208881244CD8
:101D90002068421901465770FA2088622820107086
:101DA00000F0CEFB012805D12068102240300178D8
:101DB0001143017000F04DFC012805D120688022FC
:101DC00040300178114301702068014640300278AC
:101DD000324302700020C043086601F09BFA01F014
:101DE00053FB01F083FB206801212030017707219C
:101DF0004177012001F0C0FB01F0E0FB00F05EFF45
:101E000002488038056002210160F8BD80E100E0F1
:101E1000C000002040000048C0030020000010481F
:101E20003C030020F8B596B0050017001E001C9872
:101E3000049103A92B22885400200A9002950E9742
:101E400000960EE0252912D00498029A904704903B
:101E5000002800D1D2E00A98401C0A900E98401C3D
:101E60000E900E9801780029ECD10A98C8E0002065
:101E7000079008900990022608210191012404216D
:101E80000E9D00E020436D1C2A78202AFAD0232AD8
:101E90000AD02B2A04D02D2A04D0302A08D00AE0F8
:101EA0003043F0E70843EEE7020008201043EAE77A
:101EB00002001020FAE72A2A0ED1009A17683A6821
:101EC0003F1D009B1F600C92002A03D553420C93C8
:101ED000014308006D1C14E000210C91004A0BE046
:101EE000CBCCCC0C0C9B934205DA9F00FB185B001B
:101EF000591830390C916D1C29780B00303B0A2B96
:101F0000F0D329782E2903D00021C9430B9127E073
:101F10006D1C29782A2908D1009909680A68091DC9
:101F2000009B19600B926D1C1AE02D2902D12D2304
:101F30006D1C00E0002300210B910CE0002B09D167
:101F40000B9ABC4FBA4205DA9700BA1852005118E2
:101F500030390B916D1C29780A00303A0A2AEDD3EA
:101F600003A908852F783900B3A001F091FB002860
:101F700001D038006D1C03AF2A217854785C6828A2
:101F800005D12878682802D1622078546D1C10A8E9
:101F900006902A78681C0E90252A15D0582A52D00F
:101FA000632A00D1BCE0642A00D17FE0692A00D115
:101FB0007CE06F2A47D0702A3AD0732A08D0752A5D
:101FC00041D0782A3FD0B5E0079410A90A70BAE052
:101FD000009800680468001D009908600594002CB2
:101FE00013D12B20385C00280CD00024E44300BF20
:101FF00093A001F057FB201A00D1A4E00020C043B9
:1020000017B0F0BD95A005909DE00B9D002D03D568
:10201000200001F06BFB09E02A000021200001F004
:102020006DFB002801D0001B00E0280008908AE02A
:10203000009800680168001D009A1060039110A8C4
:102040000590782168E0785C622803D0682809D080
:102050006C280FE0009801680868091D009B196052
:10206000C0B20DE0009801680868091D009B196066
:1020700080B205E0009801680868091D009B19609E
:102080000390388D0199C0B2084240D003980028CF
:102090003DD020201043782839D1079810A930234B
:1020A0000B54401C431C07930A5430E0785C6228B0
:1020B00003D0682809D06C280FE0009801680868F0
:1020C000091D009B196040B20DE000980168086886
:1020D000091D009B196000B205E0009801680868BE
:1020E000091D009B19600390002802D507982D2137
:1020F00009E0388D304202D007982B2103E0C00759
:1021000005D50798202110AB1954401C079010A842
:10211000079940180590110003A800F0A0F812E0FC
:102120000794009800680168001D009A106010A8CC
:10213000017008E00794252010A90870100002D053
:10214000079610A842700C980799401A0999401AEE
:102150000899401A0F902820385C400713D420209B
:10216000694608710F9800280DDD0F9C029D012320
:1021700001AA03A9280000F0FAF8002800D03DE7E2
:10218000641EF4D10295079D10AC002D0ED0029E66
:10219000227803A9300000F0D9F8002802D4641C8A
:1021A0006D1EF5D10296002800D027E73020694641
:1021B0000871099C002C0CDD029D012301AA03A9D2
:1021C000280000F0D4F8002800D017E7641EF4D1EE
:1021D0000295059C089D002D0ED0029E227803A931
:1021E000300000F0B3F8002802D4641C6D1EF5D155
:1021F0000296002800D001E72820385C400700D470
:102200002FE62020694608710F98002800DC28E698
:102210000F9C029D0E9F009E012301AA03A9280086
:1022200000F0A5F8002800D0E8E6641E00D105E61D
:10223000F2E70000CBCCCC0C686C747A4C00000048
:102240007072696E74665F733A20626164202573F0
:1022500020617267756D656E740000000000F0B556
:1022600083B00A00C4686F2901D1082506E0202147
:102270001143782901D00A2500E0102518270168AC
:102280000E00642A01D0692A03D1002901D57142C8
:102290000E00002E0CD1016A002909D1082D31D180
:1022A0002821415C09072DD517273021E17529E048
:1022B0000290684602707F1E01973000290000F0EE
:1022C0000FFE3031C8B23A2803DB68460078513837
:1022D0000918E1553000290000F002FE060004D084
:1022E00002988068E1198842E5D30298082D09D147
:1022F0002821415C090705D5E15D302902D07F1E08
:102300003021E1551821C91B4161E2198260026A3E
:10231000914206DA511A8161018D0B4A0A40028509
:1023200010E0002A0ED52822825C14231340102BC3
:1023300008D1426A0369D21A8369D21A511A012953
:1023400000DB816103B0F0BDEFFF000010B50300BA
:102350000C001100606898476060002804D0E069B4
:10236000401CE061002010BD0020C04310BDF8B546
:102370000024002B11D007000E0014001D0021784E
:102380007068B8477060002809D0F069401CF0619F
:102390000020641C6D1EF2D104002000F2BD00205C
:1023A000C043F9E710B501F0B5F910BD10B501F063
:1023B000E3F810BD70B50546002440782646022893
:1023C00001D0042803D100F0BBF800280DD0084844
:1023D00039210068490103192A5D5B18641CE4B2C5
:1023E0009A71082CF7D3304670BD1126FBE7000028
:1023F0003C03002010B501F031FA10BD7CB5069DFC
:10240000079C002805D0860705D1460703D4060798
:1024100001D442207CBD002903D0012901D002292A
:10242000F7D10095019401F0E3FA7CBD10B501F0FD
:10243000DDFB10BD10B5042801D9422010BD01F00C
:10244000E5FB10BDFFB583B003980C9D1E461446F6
:102450000F46002804D0012802D0422007B0F0BD6A
:10246000002F01D0012FF8D1E81F0A28F5D20D98CE
:102470001028F2D8A842F0D30E98002801D00128E5
:10248000EBD114490F988842E7D81098002801D062
:102490000128E2D100F0DDF8012804D020463043C5
:1024A00005D01120DAE7022CD7D8012ED5D86846FE
:1024B0000399017047708472C67285700D99C1705E
:1024C0000E9901720F98019068461099417201F0BF
:1024D000BBFBC3E73F420F0080B501F0C9FB02BD63
:1024E00080B501F002FC01BD80B501F02FFC02BDFA
:1024F00080B501F035FF02BD1FB56C46A48C039476
:10250000089C02946C46A48B01946C46248B009426
:1025100001F0B2FF1FBD1FB508AC247802946C46D1
:10252000247F0194069C009402F0AAF804B010BD28
:1025300080B502F065F902BD80B502F083F902BDF5
:10254000012070471CB56C46247D01946C46247CA8
:10255000009402F0BBF916BD18B587B010AC248802
:1025600006946C46A48F05946C46248F04946C46A4
:10257000A48E03946C46248E02946C46A48D019420
:102580000AAC2478009402F0B6F908B010BD80B50A
:1025900002F0DEF901BD80B502F0FEF902BD80B5A2
:1025A00002F074FA01BD80B502F06EFB01BD80B58A
:1025B00002F08EFB02BD80B502F092FB01BD80B53A
:1025C00002F0B0FB01BD80B502F0B8FB02BD80B5E2
:1025D00002F0F8FB01BD80B502F01BFC02BD80B526
:1025E00002F04BFC01BD80B502F050FC02BD80B58D
:1025F00002F05CFC01BD80B502F064FC02BD80B558
:1026000002F06CFC01BD80B502F094FC02BD80B507
:1026100002F026FD02BD80B502F05EFD02BD80B570
:1026200002F084FD02BD0120704780B502F0D8FDA4
:1026300001BD80B502F086FE01BD80B502F09EFEB0
:1026400002BD80B502F0B6FE01BD80B502F0CAFE43
:1026500001BD0120704780B502F0FEFE01BD80B5CE
:1026600002F018FF01BD80B502F04EFF02BD80B53B
:1026700002F064FF01BD80B502F076FF01BD80B5B8
:1026800002F08AFF01BD80B502F09EFF02BD80B559
:1026900002F0BCFF01BD80B502F0ECFF01BD80B5CA
:1026A00003F002F801BD80B503F04CF802BD80B51F
:1026B00003F074F801BD80B503F09CF802BD80B54D
:1026C00003F0C0F802BD10B503F000F910BD08B565
:1026D00000226B461A700346FA22684603F0FEF8A1
:1026E00008BD7047A446521E08D303780C78401CDE
:1026F000491CA342F7D0181B64467047002064466B
:1027000070477047F0B5002693B0701E0E90424897
:102710001D210068890144180920C0060069374658
:1027200005022D0A72B6A0692146281A0002000A85
:10273000223103F017F96169A561401860613648DC
:1027400000684030C1798A0663D420221143C171E8
:1027500062B6256814E0A8686169401A00280ADC9E
:10276000BA0001A8761C85507F1CF6B2FFB2287B08
:1027700003F010F903E00E99884200D20E902D6804
:10278000A542E8D12046083000250C901830129060
:1027900018E0AF0001A8761EC159F6B2204603F03A
:1027A00037F901A8C1590C9803F042F901A8C059A2
:1027B000007B3A2804D2129812990078401E0870C3
:1027C0006D1CEDB2002EE4D12068A04217D03D254B
:1027D0006D04284603F033F901460E98814201D872
:1027E000284601E003F034F9A1690818000201212C
:1027F000000A09064018FEF76FFC13B0F0BD72B670
:10280000002005490722096812028918C865034992
:10281000886062B6F1E700003C03002040000048F9
:102820001FB50E480468AE34E078010612D5A178D1
:10283000C9070CD0800708D504206946087368468C
:1028400003F016F9022003F03FF90020E070400683
:10285000400EE070FFF7AFFE1FBD00003C030020FC
:10286000F0B58BB000206349029063480A681418E1
:1028700072B610464030C57902231D43C57162B659
:1028800025464035287AC0077DD00920000210185F
:102890000026C76E49E071017A5A002A43D0C9194F
:1028A000069109694A021ED48A0226D502210491A2
:1028B0000699012309880905090D03913921490168
:1028C0004118097C89070ED5D90208304018232207
:1028D000C06C022103F020F9010004D0039A8A8021
:1028E000049803F077F9069800880090069803F0A2
:1028F00085F9009803F000FA15E0480713D506980B
:1029000000880005000D03F005FA002805D106989F
:1029100000880005000D03F021FA069904200969DA
:10292000814306980161761CF6B23248AC210068FA
:10293000095CB142AFD803F0B7FB2046243006460D
:1029400003F068FC012802D0012003F06BFC204654
:10295000183003F05FFC012802D0002003F062FC75
:102960003C34204603F056FC01280FD002A9204633
:1029700003F054FD0420029903F067FD0028F0D015
:102980002046029900E032E003F085FD287A000637
:102990002DD5304603F03EFC012828D1002003F05D
:1029A0008DFDA98B23314909491CC9B200F098FA61
:1029B00000281CD00F4D044628680123D902083096
:1029C000401842263822C06C314603F0A5F80100B9
:1029D0000DD000228A80CC80304603F0FBF83D21E8
:1029E0002A68490151180A7B802082430A730BB080
:1029F000F0BD00003C03002064070000F0B593B078
:102A00000020069072B65F4D042128684030C279DC
:102A10000A43C27162B6FFF714FE00265A4F73E0F4
:102A20003868C16F7C2070430C186BD02089002857
:102A300068D0617BC9075FD00005000D21462A31AF
:102A40000190102211910CA8FFF724F907A9204644
:102A500003F052FD00283CD0019803F089FD0B9053
:102A6000207B80070CD0019803F08AFD0246474B7B
:102A70000021012003F0A6FD207B00090001207346
:102A800002200490019803900320029039212868C5
:102A900049014118897B0123890712D5D9020830E1
:102AA00040181322C06C022103F036F8010008D050
:102AB000039A8A80029A00238A71CB71049803F0EA
:102AC00089F80B983A280AD0607B40084000607370
:102AD00012E007A9019803F095FD0B90F1E7102291
:102AE0000CA91198FFF7D6F872B62868FB2240307F
:102AF000C1791140C17162B6A07A002802D0204687
:102B000003F088FD761CF6B22868A030007BB04246
:102B100086D830E006A9386803F080FC06988088E3
:102B200003F03AFE010022D006988268127B052A43
:102B300005D08B7A102B05D9F12B03D00BE003F0D5
:102B400051FE14E074235B5CDB0702D0012A0ED136
:102B500001E00B2A0BD103F050FE002807D0FD281E
:102B600005D00699386803F096FC13B0F0BD01213A
:102B7000069803F075FE386803F04CFB0028C9D0B6
:102B8000F3E700003C030020400300203075000004
:102B900010B5FFF7ADFCFFF748FDFFF744FD012836
:102BA00001D1FFF72CFDFFF7FEFC03F077FE10BD0F
:102BB000FEB572B63F4D0823286801464030C27901
:102BC0001A43C27162B6002001276C46FF028200E0
:102BD0005218D219D26C52884300401CC0B2E25243
:102BE0000328F4D372B6C8190021866B816362B6DC
:102BF000F00702D00020FDF70FFFB00702D501203B
:102C0000FDF70AFF700702D50220FDF705FF300728
:102C100002D50320FDF700FF002623E00D281AD27D
:102C2000211D254A8000125820469047002812D0C6
:102C300072B62868F7224030C1791140C17162B67E
:102C400030E03A2807D21C49231D8000E8390A5891
:102C5000194620469047029829684018C019C06C50
:102C60002188018071006846415AB00002902A68AC
:102C70008018C019C06C028892089200141802884B
:102C800008348A420ED0A27891070BD09107890FA1
:102C9000012901D104460834A0788008C006E078F4
:102CA000CFD5BBE7761CF6B2032EDBD303F01AFEBA
:102CB000FEBD00003C030020085B0510F8B52C4F5A
:102CC0003C68206E5C34401C002814D00025294844
:102CD0000023C07B00283ED00926F6062648002D9A
:102CE0001CD000210A460B464169521C994204D16E
:102CF000002902D004E00125E9E7204B9A42F2D3F3
:102D00002160006960603069A1680002090E000A54
:102D100009060143A16003F0FFFD1DE03169A268CF
:102D20000902090A150E08D0018BC90712D04169A2
:102D3000216000696060E37210E0881A00027D2360
:102D400000121B03984205DD100E00060843A06028
:102D500003F0E2FDF8BD6360002DFBD003CC03F06F
:102D6000E9FDFA2002F074FE39688862F8BD0000BF
:102D70003C030020E00300200000104888130000FE
:102D8000FEB552480088602341075148490F026848
:102D9000092000021018826E59435418A278256940
:102DA0005207520F216A0092022A01D0052A20D12F
:102DB0002A0404D46279920701D1002919D0A66AA5
:102DC000444A2B0443D563799B0715D0676B778002
:102DD0000120C00385432561FFF725FC012809D0A8
:102DE0001F217878014204D0218A890401D5001D71
:102DF0007870FEBDFF21F4E70029FAD01542F8D122
:102E00000A7C406FD206D20E921C1718B8B20190FD
:102E10007080204603F0D2FD0120C0038543256168
:102E200005110098052800D1AD00FFF7FCFB012833
:102E30000BD01F217878014204D02169294201D0AA
:102E4000001D787001987080FEBDFF21F2E7708848
:102E500001235B07C01863799C469B0704D0636B12
:102E6000834201D0012700E00027666B864202D032
:102E70002388834212D1002912D015420ED101239A
:102E800000290ED086420CD02488844209D00968DB
:102E9000002906D0154204D1012103E00023EFE709
:102EA0000023002162469206920F03D00022002FD9
:102EB00006D101E00122FAE70B43C5D0002AC3D0B6
:102EC0000178102211430170FEBD0000C0000020F7
:102ED0003C0300206006000010B503F0B1FD10BDFA
:102EE0000022030A8B420BD203098B4219D24308FA
:102EF0008B422ED2411A00D20146524110467047F1
:102F0000FF2209023FD012068B4205D3121209029A
:102F10008B4201D31212090203098B4219D300E03C
:102F2000090AC3098B4201D3CB01C01A524183095C
:102F30008B4201D38B01C01A524143098B4201D30A
:102F40004B01C01A524103098B4201D30B01C01A35
:102F50005241C3088B4201D3CB00C01A52418308AF
:102F60008B4201D38B00C01A524143088B4201D3DC
:102F70004B00C01A5241884200D3401A5241CFD26E
:102F800001461046704708B503F078FD08BD70474C
:102F90001206130A1A43130C1A4300BF094205D044
:102FA000830705D00270401C491EF9D1704700000C
:102FB0001300103906D330B41400150010393CC08A
:102FC000FCD230BC490700D30CC000D504C0890036
:102FD00002D30280801C002900D502707047704720
:102FE000F3B581B0984A012101A803F048FD974C40
:102FF00004222060432101A803F041FD012721683C
:10300000FF02C91908640422432101A803F037FD17
:1030100021680422C9194864FF21843101A803F002
:103020002EFD21688A4DC9198864A97F0C2201A848
:103030000B3103F024FD13212268C9015118C86027
:10304000A97F202201A803F01AFD09262168360273
:103050008919C867A97F102201A803F010FD132168
:103060002268C901511808602822052101A803F02F
:1030700006FD13212268C9015118886030220521FC
:1030800001A803F0FCFC13212268C9015118486013
:10309000FA10012101A803F0F2FC13212268C901F2
:1030A00051184861A97F602201A803F0E8FC21685B
:1030B000202289198866A97F01A803F0E0FC216815
:1030C0008919C866AA8B012101A803F0D8FC0F2139
:1030D0002268C90151188863298B282201A803F0AE
:1030E000CEFC0F212268C90151180863698B302278
:1030F00001A803F0C4FC0F212268C90151184863DC
:103100000C22012101A803F0BAFC21680C228919C4
:103110004866012101A803F0B2FC21682822891920
:10312000496E8860284620300090417801A803F05D
:10313000A6FC216804228919496E89688860009874
:10314000417801A8491C03F09AFC216810228919D2
:10315000496E89684860A97F01A803F090FC216846
:103160000222C9194863A97F01A803F088FC2168DD
:103170000222C919C860A97F01A803F080FC216858
:103180000222C9190861A97F01A803F078FC21680F
:103190000222C9194861A97F01A803F070FC2168C7
:1031A0000122C9198861A97F01A8491C03F067FCA5
:1031B00021681022C91908630B2101A803F05FFCE4
:1031C000072221681202891808650422802101A8BB
:1031D00003F055FC216889190867029ADC204243F4
:1031E000012101A8443203F04AFC2168891948678B
:1031F000029AD8204243012101A82C3203F03FFC5F
:103200002168F02289198867012101A803F037FCA1
:10321000104C7C222060A97F01A803F030FC2168BB
:103220000822C867032101A803F029FC216828228D
:1032300080310860012101A803F021FC2168803160
:1032400048600198FEBD0000B80900003C03002062
:10325000C00300204003002070477047F0B52B48A2
:1032600013240268E4011019C0681121C901034642
:1032700051180C33CB670923054688671B021835A4
:10328000D1180D600C354D600C358D600C35CD605E
:103290000C350D610C35CD630C350D640C354D646A
:1032A0007830886400201419D21811E0D16F4501DC
:1032B0004D19602141430F46966E3437F5510C2568
:1032C0004543E668843575192831966E401C755063
:1032D0000F498D7F8542E9D80C4A002014681322DB
:1032E000D201A518E31807E02C680601A6194401CD
:1032F0000834DF6E401C3E518C7F8442F4D8034872
:10330000C968006880188161F0BD00003C0300209E
:10331000C0030020C0200006016880220A4302602A
:1033200001688022914301607047C0200006016857
:1033300001220A4302600168012291430160704743
:10334000C020000600688107C80F70473948007820
:10335000002801D00120704737480068002800D0BD
:103360000120C0B2704710B50B00521E815C9C5CFE
:10337000091B01D1002AF8D1080010BD000000008F
:1033800070B50E002B4D2C7801281AD1202200BFD9
:1033900035A13000FFF7E7FF002801D404201BE02F
:1033A000FB20204028702548002100229300F4587B
:1033B000C3181C60521C082AF8DB20300160002072
:1033C00070BD00BF20A102280FD120223000FFF7DE
:1033D000CAFF002804D4012020432870012070BDBA
:1033E000FE20204028701648DEE70328F6D1202270
:1033F0003000FFF7B8FF002801D40220ECE7FD20E1
:10340000204028700F48CFE7012808D10B48002240
:10341000835C8B54521C202AFADB00207047022860
:1034200001D10748F3E7032801D10648EFE701205F
:103430007047000032040020000400C06C0400C08B
:10344000900400C0B40400C0FFFFFFFFFFFFFFFFB8
:10345000FFFFFFFF00000000000000000000000070
:1034600001000000FFFFFFFF512563FCC2CAB9F352
:10347000849E17A7ADFAE6BCFFFFFFFFFFFFFFFF2B
:1034800000000000FFFFFFFF3EB5174D15482968FB
:10349000827F0846A0310A730024603004764476A7
:1034A0008476E122C276802202770222427730209F
:1034B00008704C7002AA01A96846FDF70BFB68462C
:1034C0000078A22201016846007A891C00020143AB
:1034D000684600790003014328681152A030047146
:1034E0003EBD0000C00300203C03002070B503F087
:1034F000D1FA03F0E9FA03F0AFFB03F0E1FB03F0CC
:10350000EFFB1A4C1A4920681A4D401881101320FD
:103510002A68C0011018C162616889080163A16846
:103520008908416303F008FC29681F208001228B71
:1035300008188280628B0F23C280DB01A28BCB181C
:10354000DA87628C028022462032127882703D2215
:10355000520100208918087303F010FC03F018FCD6
:1035600003F04CFC03F058FC70BD0000C0030020C9
:103570000000FCEF3C03002010B5012818D80729F3
:1035800016D80C4A126813462033187759778007EB
:10359000C906000E090E01430020074BA03204E0CB
:1035A0008401E418A172401CC0B2147B8442F7D895
:1035B000002010BD3C0300200001002070B5304DFC
:1035C0002E4A28680021FF301B30FEF769FB28686F
:1035D000FF21F222115411229201821811765176A4
:1035E0009176284AF4210A502F235B01F822FF210B
:1035F000C018FEF755FB244B28687822FF21C0181D
:10360000FEF74EFB204B2868F8337822FF21C018C4
:10361000FEF746FB9D232868DB007822FF21C018B7
:10362000FEF73EFB194B28684022FF21C018FEF729
:1036300037FB232628687601002481190C72272184
:10364000490141180C712B21490141180C701721B7
:10365000890141180C771B2189014018047603F079
:1036600005FC29680B468033986788190A460121B2
:103670000471E0325174DC67847170BD390300005D
:103680003C030020905F01006C040000DC06000099
:10369000C9B202788A4203D0401C002AF9D1002026
:1036A0007047704780B5002801D100BF07A00649C8
:1036B0000B68002B03D022220021984701E003F081
:1036C000DEFB222002BD00002C040020636F6E731D
:1036D000747261696E742068616E646C65723A2000
:1036E000626164206D65737361676500431C0178D6
:1036F000401C0942FBD1C01A70477047C9B2521E24
:1037000005D30378401C8B42F9D1401E704700203E
:1037100070477047F0B54F4F0446386885B0783031
:103720000D461646002C10D0062C14D0082C0FD0B5
:10373000182C0DD0282C0ED02A2C0CD02C2C0DD0CF
:103740002E2C0ED0D02C47D048E0062D0FD045E0CF
:10375000102D0CD042E0022D09D03FE0012D06D003
:103760003CE0062D3AD17179890903296FD10019FE
:103770002A463146FEF78EFA2C2C26D130780028C6
:1037800023D0FEF750FF012822D01B201F30400914
:10379000401C41004118012003F076FBFEF743FF77
:1037A000012817D01B201F304009410041182A482A
:1037B0004078401AC01EC1B2002003F065FB386893
:1037C000F9224030017811400170002005B0F0BDB1
:1037D000FB20DBE7FB20E6E7012D04D0FEF723FF0B
:1037E000012804D005E0107803F05AFBEEE7D12C55
:1037F00002D02F2C1ED02AE0082D28D102223146DB
:103800006846FEF747FA0222B11C01A8FEF742FA09
:103810000222311D02A8FEF73DFA0222B11D03A8C3
:10382000FEF738FA68468389028981880088FEF7A6
:10383000EEFECBE7012D0AD13078002807D008280A
:1038400005D249223968520189188876BDE71220CD
:10385000BCE700003C030020E0030020F0B55FA0BF
:1038600099B000685E4915905E4A0868841809227C
:1038700012028218D26E2546403514922A7AD20757
:1038800002D0622019B0F0BDAA8B01235B029A42DC
:1038900001D9AB8303E0172A01D21722AA83149A15
:1038A000A0301392067B0DE0761EF6B213987101DC
:1038B0000F18B8680F90384620220021FEF7F0F963
:1038C0000F98B860002EEFD120460830E0606460A9
:1038D000A06024600830139060612061FF22002105
:1038E000083003F0EEFA2046FF220021243003F0D6
:1038F000E8FA2046AA7F0021303003F0E2FA2046A1
:10390000FF2200213C3003F0DCFA00222A7210462C
:103910001721334B05E0149E4701BE19401C7180EE
:10392000C0B21E68A036367B8642F4D800202883B9
:103930002F8C688C0026149008E02820E16C7043DE
:103940000918204602F074F8761CB6B2BE42F4D3D1
:10395000002608E03020216D70430918139802F00A
:1039600067F8761CB6B214988642F3D3012003F0B0
:10397000B1FA0124684604701B49418023460422A1
:1039800069460CA803F0B2FA002822D16846018EDD
:10399000818216490183042606858475202108A8A2
:1039A00081720024C472047307214173847305A9D2
:1039B0000DA803F04BFB00280BD16846048746870F
:1039C000818E15AB0EAA008E03F0DEFC002800D11C
:1039D00058E700202872472054E700000000FFFF4E
:1039E0003C0300206407000001180000052A0000C5
:1039F000FFB50C4678A103C995B001910090002154
:103A000008A801730321C90268464186012108A85C
:103A1000734E017435681746AE3503F0E9FC002893
:103A200008D170493068401803F076FDA878002866
:103A300002D0462019B0F0BD0BA81599FEF7B7FDCE
:103A40000028F7D1072010A90871012C05D0022CFD
:103A50000AD0002C0ED04220ECE708A8017B1020F1
:103A6000014308A8017305E011A90BA8FEF760FD4A
:103A70000028DFD110A8027901230CA9284603F001
:103A800035FA00287ED1022229461898FEF702F95D
:103A9000298868468181152149020182078401260F
:103AA00086734E2108A881700024C4700671072116
:103AB0004171867103A902A803F0C8FA002861D1F8
:103AC000022202A91E98FEF7E5F8082F02D26846E6
:103AD000478502E008206946488569460C850B4603
:103AE00028880AAA098903F04FFC00286DD13E49B5
:103AF000684601820227078408A8847103A902A8E6
:103B000003F0A4FA002860D1022202A91F98FEF750
:103B1000C1F868460470694644704F850B46288892
:103B20000AAA098903F030FC00284ED108A8007BBE
:103B3000C00723D02C496846C91C01820821018492
:103B400008A88770047103A902A803F07FFA00286F
:103B50003BD1FF216846C1718171C1708170417094
:103B60000170447104716946082048850B46288815
:103B70000AAA098903F008FC002826D108A8007BBE
:103B8000800600E021E022D5298868468181164917
:103B9000A53101820684867308A88770C4700471F9
:103BA00007214171847103A902A803F04FFA00288C
:103BB0000BD169460E700C854E850B4628880AAAE3
:103BC000098903F0E1FB002801D0472032E708A86B
:103BD000007BA87000202DE7626C75656E7267210E
:103BE0003C03002033070000012A000010B50648FE
:103BF00013210068C9014018C06AC001000C03F01D
:103C000095FC002010BD00003C03002030B50C4A9C
:103C1000002113680B4A1268A032147B0AE07C2250
:103C20004A43DD6F0832AA5A002A01D0462030BD2F
:103C3000491CC9B28C42F2D81876002030BD000071
:103C4000400300203C03002070B5054603F096FCBD
:103C5000002801D0462407E00448002400680C2214
:103C600029460C30FEF716F8204670BD40030020B0
:103C7000F0B5064600208DB00D46002A03D003F0B3
:103C8000A3FC002806D1002E03D0002D04D0002470
:103C900028E000200DB0F0BD4220FBE7E000001B53
:103CA000295C471908467F1C009103F091FC00280D
:103CB000F0D103AA3946009803F092FC002804D002
:103CC0001022002103A8FDF7EBFF07A803F09CFCDE
:103CD00007AB03AA3946009803F0AAFC0028D9D103
:103CE000641CE4B2B442D9D3D4E7F3B589B00D462D
:103CF00003F0BFFC8002800A0121890508430022ED
:103D00006B461024114601E0032A04D2D700064670
:103D1000FE401E7000E01970521C5B1C641E2406DD
:103D2000240EF1D1002304AA6946099800F08AFD07
:103D300003226946281DFDF7ADFF032204A9681C74
:103D4000FDF7A8FF012028700BB0F0BDF0B5A3B0BF
:103D500001780E91456881681091C76801691E91CC
:103D60004169059180690024189417940090FF26FA
:103D700016941D940894A81C03F084FC2978000272
:103D80004906C90F08433860681D03F07BFC000238
:103D9000000A78602846083003F074FC2978000295
:103DA000C9090843029028460B3003F06BFC00025F
:103DB000000A03907A681002810F012902D1397834
:103DC000012900D000211391039909028B0F012BC7
:103DD00003D1029BDBB2012B00D000231593800F8F
:103DE00002D13878012800D000201B90880F03D121
:103DF0000298C0B2012826D0002128780507FB4888
:103E00002D0F03681846FF301B302190F848181812
:103E1000149000200F9012900C9001201A901C908A
:103E20000098426000983A680260F0480068199073
:103E3000E030027C0B92002A00D0012211920B9AF2
:103E4000012A02D005E00121D7E7407C002800D1FB
:103E500001240E98002811D001284ED0032D02D045
:103E6000052D00D001240598007E03287ED002286D
:103E70007DD001287CD004287AD09CE0032D06D088
:103E8000052D04D0042D04D0012D05D009E0012416
:103E900007E001200F9004E01198002801D10120D3
:103EA000129010981690801C189010980830179057
:103EB000059820300079032810D001280ED0002268
:103EC0000C92059200280BD0012809D000201A90EE
:103ED0000B98012806D0012D09D0A0E00122EFE7C0
:103EE0000120F4E7012D6FD1002900D0012415989D
:103EF000002801D101201290C1E0002D02D0012D37
:103F000000D0012405982030007901280ED000222D
:103F10000C921B9A002A01D0002809D00122059298
:103F2000159A002A06D0012D09D019E00122EFE7E9
:103F30000022F4E7012D13D10B9A012A06D00B9A27
:103F4000002A0BD0159A002A08D009E02323199AD9
:103F50005B01D2181279012A00D1012401221292A8
:103F6000139A002A06D00B9A002A02E01CE019E0FE
:103F70001CE006D1002801D101220F92139A002AD9
:103F800007D00B9A012A45D1002805D101201D90A8
:103F900002E00B9801283DD1012D78D100296ED087
:103FA00001246CE0052D06D1012404E013990029B9
:103FB00008D0002A06D000210F91032D05D0052D31
:103FC00009D00FE00121F7E729E005992031497B6D
:103FD000C90705D106E005992031497B890701D53C
:103FE00001210C910C990591012112911099891CC4
:103FF000189110990831179110991691012A07D13B
:10400000012801D0042803D11B99002900D00124E4
:10401000052D29D0012D32D00E98012837D01898BF
:1040200003F030FB1699000209784906C90F0843CE
:1040300009901898C01C03F025FB0002000A0A90A2
:104040000E98012823D0179803F01CFB1699000244
:104050000978C90908430D901798C01C03F012FB9A
:104060000002000A109020E013990029D7D00128FF
:1040700001D00428D3D101200890D0E707E0012126
:10408000199889024018C16D0991006ED7E71E98F2
:1040900000691E9949690202CB03DB0F09041A4328
:1040A000090A000E01430D921091002C73D1139850
:1040B000002866D00B9800281CD01198002860D0EA
:1040C000786839680202012003F0E8FA474B01469C
:1040D0009D221868D2008218FF290CD0FE293ED0FC
:1040E000C8008018C6791498F100091807220098B2
:1040F000FDF7D0FD83E0052D02D10E99022904D0F1
:10410000F221095CFF2913D029E00121384603F090
:1041100015FB41087F2903D0C10014980818E1E776
:1041200008990598084301D0012468E0002466E05E
:10413000112189014118497EFF2910D1FF30072242
:1041400039460130FDF7A6FD284800210068F2221B
:10415000115401464031CA79EF231A40CA710E99B1
:10416000012904D0059C4AE001200F9047E023215B
:1041700049014018C0790228D6D20C980028F3D003
:10418000D2E71B98002802D00B98012804D0119880
:1041900000280CD104E039E00020059C1C902EE0A2
:1041A0002321199849014018007A002827D07868FF
:1041B00039680202002003F071FAFF281FD0C10005
:1041C00014980818C6793720219970434018017D4A
:1041D000002900D0012120302091807D002809D0C5
:1041E00000201F90002907D009E000003C030020B8
:1041F0006C0400000120F4E71F98002894D1574870
:10420000016811208001081806754675119800286C
:104210004BD0FF2E0BD00898002808D04F480168DB
:10422000112080010818807DB04200D001241D9823
:1042300000280BD0FF2E09D04848016811208001CA
:104240000818807EB04201D0012447E0002C45D1FF
:10425000159800282BD0012D29D14048029A0068DA
:10426000C11DF9310B699A4205D1039A49691202BD
:1042700009028A421BD0112189014118497E1A9CEA
:10428000FF2912D1FF30072202A90930FDF702FDF4
:104290003248EF23016808464030C2791A40C271A3
:1042A00011220020920189184876002C16D11C9802
:1042B000002813D00C98FF2E07D000280ED03720EE
:1042C000219970434018807806E0002806D078686D
:1042D0000102386803F0CAFA0028B5D00F98002808
:1042E0002AD00D983968884203D11098796888429D
:1042F00022D01198002807D11848016823204001D6
:104300000818007A002800D00120FF2E02D0209942
:10431000002907D000221F99002905D00021052D72
:1043200017D103E00122F6E70121F8E7002810D0B9
:10433000002A0ED000290CD0002C0AD11298002897
:104340000AD002990998884203D103990A988842B1
:1043500002D0012023B0F0BD0020FBE73C03002089
:10436000F8B502F083FD434C074621680A468031C8
:10437000886FCB6F381A1818C8674B6F000B9842BC
:1043800036D30020E032C8675074107C00282BD050
:104390000025232676010BE03721694308180146E2
:1043A000FF31FF3040313030FFF79FFC6D1CEDB224
:1043B00020688119097AA942EED800250BE037213F
:1043C000694308180146FF31FF3047311F30FFF7BE
:1043D0008CFC6D1CEDB220688119097AA942EED8D7
:1043E000216801208919887121680120E031487411
:1043F0002068F8210F5072B601464031CA79102367
:104400001A43CA7162B60146E0310A7C002A24D000
:10441000897CFF25002906D1FF30013003F08EF999
:104420002068E030857411262168B6018819407E25
:10443000FF2813D0372250434018FF30FF310022AD
:104440003030093103F01EFA002808D0216800201E
:104450008919C8752068801945760020F8BD206844
:1044600001218219FF30D175013081680161C16875
:104470004161EFE73C030020FFB595B000257C4883
:104480000295039500880E4679494007C00D0C310E
:104490004018C1890120400709184988FF230C18DA
:1044A000744837210268112080011018407D1B33A9
:1044B000414389185B5C0793E3799B09012B04D185
:1044C00023785B0601D5012700E0002723235B0149
:1044D000D2185279012A17D9FF2815D0159800282B
:1044E00004D0607B8009012805D00DE00622FF3151
:1044F00002A8413106E02078000605D521460622B3
:10450000083102A8FDF7C6FB002F35D017983C28CC
:1045100000D105AE574F1120396880010818407D41
:10452000FF2824D00622A11C6846FDF7B3FB07989C
:104530005149C50038680622281841183046FDF751
:10454000A9FB386823212A1849015118097B372211
:10455000891CB171112189014118497D5143081805
:10456000FF300622A11C4830FDF794FB06E006222E
:10457000A11C3046FDF78EFB009501953D48A42116
:104580000068095CC90701D0002700E010271799CF
:104590000C9118990B9115990991716808230902DA
:1045A000090E0A9102A90791694606911E99139175
:1045B0001F991291209980370903090C11912199B3
:1045C000C9B20F91F90603D50B22BF210F4009E0B4
:1045D0003921490141184A79920635D5C9798907A7
:1045E00032D509223907890E08180121C90240185D
:1045F000C06C394601F090FA040025D00C99217165
:104600000B99E180099921720A99251D6172062290
:104610003146A81DFDF73EFB284606220C300799BF
:10462000FDF738FB2846062212300699FDF732FBCB
:1046300013992983129969831199A9830F99A977ED
:104640002146384601F0C6FA179800280ED1706846
:104650000A4CC003C10F20680622816331463930FD
:10466000FDF718FB20683830FDF7BDFF19B0F0BD2D
:10467000C00000203C0300206D0400000003002067
:10468000FFB55C49964609685B4A8DB08D183922A2
:1046900052018A18944652791127169B04920C46AF
:1046A000BF010020179E9206A034CF190833002ABC
:1046B0000FDA6246D27952070BD50D9A012A08D932
:1046C0007246012A05D10E9A002A02D0FA7D002AEC
:1046D0000BD0F022525C012A23D13F7DFF2F20D046
:1046E0002079C00732D0002431E03A7D0120FF2A32
:1046F00019D06F4649C7372042435018FF30013068
:10470000807EC00041183D480B182079C00701D0B9
:10471000002000E01020A12108437146109A10E00B
:10472000012011B0F0BD694649C12079C00701D010
:10473000002000E01020A121169B084301227146B1
:104740009B1C03F0B9F8002850D1E9E71024A12000
:104750000443704607901098099037204743781813
:10476000FF300130807E0593C000421823480B962D
:104770001018089018980290032213301043401C20
:104780008308E00603D50722BF20044007E0049811
:104790008006C5D5604680798007C1D505222007EF
:1047A000800E40180121C9024018C06C214601F05A
:1047B000B3F906001AD00798307109987071354620
:1047C000371D18350622B01D0899FDF763FA0298C7
:1047D0003872FD602846029A0599FDF75BFA0B983E
:1047E00038743146204601F0F5F999E7296A00202E
:1047F000087095E73C0300203C0900006D040000B0
:104800007CB50446E1200D46800003F09BF80BA127
:1048100003C9009001916846FDF7CCFD012003F02B
:10482000A3F8002801D047207CBD20782021084330
:1048300020700920287000207CBD00001F020000AD
:104840000000000030B50D461C49144609681C4A9A
:1048500091B089180922D206096D1269891A194A7C
:1048600009021288090A12070AD5002B08D1164A34
:10487000FF39914204D32246294603F079F81AE021
:104880000146102204A8FDF705FA1022294608A8BF
:10489000FDF700FA04A8009008A801900CA8029067
:1048A000002069460873684603F0A2F810220CA99C
:1048B0002046FDF7EFF9002011B030BD3C03002089
:1048C00058080000C000002002FF7F0030B585B00E
:1048D000009313460A46089D099C014601950294DF
:1048E00003A803F0BFF8002803D1214603A803F072
:1048F000DFF805B030BDFFB58DB0144618AAECCA7C
:1049000004976F466CC70A46014605A8179B03F03B
:10491000FDF800280AD108A84471012C08D0002C09
:1049200006D0022C04D0032C02D0422011B0F0BDDE
:1049300009A8062202301099FDF7ACF908A91698CB
:104940000873C0B20328F0D805A803F011F9EDE709
:1049500038B51048002104680846AE3403F03AF92F
:10496000694648702079C10704D001216A46117058
:1049700088432071C0B2810705D502216A461170B3
:10498000FD210840207102216A46084603F058FACA
:1049900038BD00003C030020FEB5394909220968F2
:1049A00012028A18936E602242439C18354A800195
:1049B0008D183549228946184020005B2021895DE9
:1049C000521C228140006269002700B2101A606107
:1049D000F07A4018C0B2252800D32538F072A079AB
:1049E000C0072ED0284640300090408E2189401AC2
:1049F0000004000C25D124480C3800884007400FE3
:104A000003F058FA8446A07940084000A071284677
:104A1000C030017A4908490001720099A3894A8D82
:104A2000C98D0905090C934205D1A3698B4202D1B6
:104A30006346002B01D0402701E008238373A28145
:104A4000A161A079800719D57620405B2189401AA1
:104A50000004000C12D18021495960350091A97ED3
:104A60000191A179FD221140A171314668460522CC
:104A7000213103F045FA0120400507433846FEBDC9
:104A80003C03002058080000CC000020F0B58FB097
:104A9000076841680A917949794A09680089891843
:104AA0000B910121099100210891400514D50B9823
:104AB0008469C6692078617B05072D0F8909012962
:104AC00003D1C00901D0012000E000200890022D90
:104AD0000CD9062D08D109E00B983C6B066A2078AA
:104AE00005072D0F042D01D000200990E0798009E1
:104AF000012804D12078400601D5012100E00021E1
:104B000060480170E020C05D00283DD0012086464D
:104B1000002084463078132100901DE000200D9085
:104B200042182318B25C9B789A4201D001220D9260
:104B3000401CC0B20628F3D37046002804D00D985C
:104B4000002801D0012000E000208646891F604631
:104B5000401CC0B2C9B2844600988445DED370467A
:104B600000287AD00098401CC0B2042800D9042044
:104B700030701222711CF01D03F0C2F9314606227A
:104B80001331A01C03F0BCF9062D02D0022D02D077
:104B900002E0022500E0032520784006C00F0490C3
:104BA000012D0AD06078801FC606F60E3348F0212A
:104BB0000068095C012914D02FE0002669462046D0
:104BC00003F0A7F92D480068E030007C0028EDD103
:104BD0000098396888424FD10198796888424BD152
:104BE0001BE01121890141180A7DFF2A15D02549B2
:104BF0000B78012B01D102234B7037235A43121833
:104C0000FF320132927E4978D200101823225201DD
:104C10008018007B4018C0B20490099800282BD05F
:104C20000A982037807B02960094019038792A46B2
:104C3000049B0899FDF76FFC00281DD10A982146B6
:104C4000807B029008310D48009601910068A030E9
:104C50000079C00702D0002001E00DE01020A12162
:104C60000843A31C2946049A03F05EF9002803D0E8
:104C70000B980021006A01700FB0F0BD3C030020CA
:104C80003C0900004403002070B50F4D0F4928680F
:104C900041184030407B002814D0C031897B08295E
:104CA00010D1002402E04008641CE4B2C107FAD02D
:104CB000204603F083F9286801224030417BA2405E
:104CC0009143417370BD00003C0300205808000070
:104CD00002780907090F0A430270002070477047E5
:104CE00030B50E4885B005682C46AE352879BA3403
:104CF000400711D5E87A01280ED1152149026846EE
:104D000041800121017060886B46054A03F0A6F9D5
:104D1000002801D10220E87205B030BD3C0300201C
:104D2000FFFF000003480249C16003494161704729
:104D30008D2F05101C030020B93805107FB5AC215C
:104D40008172817B05468A072A350446002A09DAE2
:104D5000102200216846FCF7A3FF69462B460A464D
:104D6000AD250FE0C80701D1480719D521464A31C2
:104D70002246E07A5232000701D52B4601E0234655
:104D80003A33AE2520890005000D03F0A7F900286D
:104D90000BD03A2801D00C2800D1002004B070BDFF
:104DA000C808C000A0734620F8E7A17BCA0703D05B
:104DB00010221143A173F125C9B2C908C900A1731A
:104DC000A572EBE710B57421095CC9070BD1817A94
:104DD000A42909D0AC2916D0AF2904D1417F0029DC
:104DE00014D0D021817210BD04461021543003F03C
:104DF000E3F9E07A0007204602D5FDF738FC10BD44
:104E000003F0EAF910BDFDF7DEFB10BD03F01EFA5A
:104E100010BD10B5036841689A68FD20127B0B2A0B
:104E200007D0022A0ED0032A13D0042A1ED0FC2059
:104E300010BD8A7A002A01D0F12AF9D1184603F070
:104E400021FA10BD8A7AA12AFBD1184603F064FA30
:104E500010BD8A7AA52A05D0A22A01D0A42AF7D1AA
:104E6000FF2010BD184603F08DFA10BD8A7AA62ADD
:104E7000FBD1184603F0C6FA10BD10B50146807A82
:104E8000A92802D1002003F07DFA10BD10B5044618
:104E90000146042003F028FBFF2801D0012010BDAB
:104EA0002146042003F070FB002010BD10B5014620
:104EB000042003F019FB0146FF2802D0042003F070
:104EC00071FC10BD00B50146042003F00DFBFF2866
:104ED00001D0012000BD002000BD704770B513490E
:104EE00009220968120200208B18AC22525C19E0DA
:104EF00060249D6E44432C195C252D5DED060FD575
:104F00000B480818C030428A018A608903F0F6FC19
:104F10003A2804D04034207FEF210840207770BD2C
:104F2000401CC0B28242E3D870BD00003C030020A8
:104F300058080000FFB50746464881B000880D4676
:104F4000454909220968120240078A18400F926EEB
:104F500060235843141841480E18FDF764FB0028DD
:104F600022D0142D04D0152D20D0072D59D05CE06F
:104F70002146039803F022FD01212069890408439A
:104F8000214640312061087F0222104308778206C3
:104F900009D56279520852006271DF221040087709
:104FA000002F4ED151E0012005B0F0BD254640351F
:104FB000287FC007F7D02146039803F0FFFC204666
:104FC00000F08AF8002825D0A888E988884200D314
:104FD0000846E881698AA88A814200D20846688327
:104FE0002A8AE98A8A4200D2114629836A88288956
:104FF000824200D21046C9080E3989B268818842BF
:1050000000D30846A8810498006801214906084396
:1050100004990860287F400840002877002F10D1AD
:1050200013E00398C078142802D0002005B0F0BD2A
:105030004034207F04214008400008432077002F9F
:1050400003D00820C036F073ADE70820C036B07337
:10505000A9E70000C00000203C0300205808000021
:10506000F8B51C4615460E460746FDF7DCFA002843
:1050700005D003F0D3FC002803D00C20F8BD11208C
:10508000F8BD1249124A0968002089183A461B3AAD
:10509000E12A00D330203346FF3B0E4A493B93427E
:1050A00000D330202B461B3BE12B00D3302023467E
:1050B000FF3B493B934200D3302072B6C0318F8210
:1050C000CE820D834C8362B6F8BD00003C03002005
:1050D000580800000107000070B54030018942887F
:1050E0000025914200D31146C38A028A934200D21E
:1050F0001A46C48883889C4200D22346868A448A02
:10510000A64200D2344646898E4200D00125C1898C
:10511000994200D00125018B914200D00125408B9E
:10512000A04200D00125284670BD704770B503210C
:1051300003F09AFC082801D3022070BD26490922F9
:10514000096812028918896E602250430D18687927
:105150006E6B800701D03A2070BD2C464034E18848
:10516000A08803F0C5FCE081A18A608A03F0C0FC3E
:1051700060832189608803F0BBFC6081E18A208A1A
:1051800003F0B6FC2083C0080E3881B2608903F0BA
:10519000AFFCA081114830606C6B2846022244307D
:1051A000E11C02F0ADFE28460222611D523002F0E1
:1051B000A7FE28460222E11D423002F0A1FE214650
:1051C000284602220931503002F09AFE6879012106
:1051D00008436871002070BD3C03002003091500DE
:1051E000F0B5574D0720296800020818007F91B0DC
:1051F00080076FD5FEF7A4F801286CD1002403F0D6
:105200007BFC0646FEF7A2F8012800D103243000FB
:105210007ED0392702267F01012802D002287CD1C6
:105220003BE069460220FEF7EFF8032008A9FEF7ED
:10523000EBF8002C06D1F9212868C900411801209B
:10524000FEF7E2F82868A421095CC90701D0002113
:1052500000E010210E43694611231091F10603D599
:105260000922BF210E4007E0C1194A79920654D5A0
:105270008979090651D507223107890E09180120BD
:10528000C0020818C06C314600F046FC070044D04C
:10529000381D3C714022109936E069460220FEF725
:1052A000B3F8002C04D02022FF216846FCF7F8FC5C
:1052B0002868A421095CC90701D0002100E0102161
:1052C0000E43694609230891F10605D50A22BF213C
:1052D0000E4009E029E030E0C1194A7992061CD558
:1052E000C979C90719D008223107890E0918012088
:1052F000C0020818C06C314600F00EFC07000CD04C
:105300003C71381D08992022401CFCF7C3FC00E0CA
:1053100003E03946304600F05DFC072029680002B2
:105320000818017FFD221140017772B6286880229B
:105330004030C1791143C17162B611B0F0BD0000B7
:105340003C03002010B5012813D10A4C0822206824
:10535000817E11438176202207493C30FCF79AFC7C
:1053600005492068202220315C30FCF793FC03F0D3
:10537000CDFB10BD400300201465051030B5044678
:10538000C07A0025000710D5208903F0CFFB002844
:1053900001D0082509E0E07A01210843E0720448C1
:1053A00004220068817E11438176284630BD0000CA
:1053B0004003002010B50A4C2068807E41060DD5C0
:1053C000902108420AD103F0D1FB002806D12168C0
:1053D000BF22887E104080221043887610BD0000D6
:1053E0004003002070B504680579E07A00072FD5E6
:1053F000208903F09BFBE17A49084900E172154CD2
:10540000002804D12168FB238A7E1A408A7621680D
:10541000002D05D0CA7E1032CA76002804D007E0DD
:10542000C87E401CC87603E0887ECF221040887674
:1054300020680321C07E05090007000FFDF750FD1D
:105440004019032804D303F0AFFB21680020C8767D
:1054500070BD00004003002070B50D4D0178441C64
:105460002868827E5206520E8276002902D003F00E
:105470009BFB70BD03F0A4FB002802D003F046FBA9
:1054800070BD2868402221463C30FCF703FC70BD0B
:105490004003002070B51A4C02782368411C987EA6
:1054A000C00626D5002A05D0164800210068A03085
:1054B000027B21E018462022D030FCF7EBFB20686D
:1054C0002022817E114313E07C20DD6F48432818A1
:1054D00010D00589002D0DD0C57A2D060AD50123DF
:1054E00000220B2103F074FB2068CF22817E114043
:1054F000817670BD491CC9B28A42E5D870BD0000F2
:10550000400300203C03002010B50B4A01681268DC
:105510008968927D4068C97B022A03D10A0701D4B9
:10552000032010BD1823C27ADB4319430A40C2721C
:10553000FDF783F810BD00004003002010B5C17FC7
:10554000012908D0042906D0022907D0032901D156
:1055500003F054FB10BDA521817210BDC17B491C15
:10556000C17302F039FE10BD10B5C17F012908D00A
:10557000042906D0022909D0032901D103F03EFBFA
:1055800010BD0146002003F07FFB10BDC17B491C0C
:10559000C173B521817210BD38B514C8D07F0228FF
:1055A0000FD10848D17B0068491E03690094CB40A5
:1055B000DB070146DB0F90313C305432803303F07F
:1055C000A0FB38BD4003002038B514C8D17F0023AC
:1055D000032904D00C480229006804D00AE0AA205C
:1055E0009072EB2038BDD17B0369491ECB40DB07AD
:1055F000DB0F803301463C3190306432009403F07D
:1056000080FB002038BD0000400300201CB504468C
:10561000C07F042806D0AA21022820D0012800D16A
:10562000A1721CBD01A800901048234600682246C4
:1056300001466433543290313C3003F08AFBB92088
:10564000A07201A803F0B1FB0949FDF749FC2089CC
:105650000A460105090D022003F0B2FB1CBDE07BE8
:105660001428DDD2A420A0721CBD0000400300203D
:1056700040420F0038B514C80A48D17F00230068A3
:10568000022906D1D17B0369491ECB40DB07DB0F22
:105690008033014690313C306432009403F031FB9A
:1056A00038BD000040030020FEB504684168029147
:1056B0008668C568BA20287000203060E17F1F48E6
:1056C00004291ED002291BD10068E77B01697A1EDC
:1056D000D140CB07029900910146DB0F224654329C
:1056E0003C319030803303F00CFB214610222A31EC
:1056F0000298FCF7DFFA3060142F01D2B420287032
:10570000FEBD01A90091006823460146224664338C
:1057100054323C31903003F01CFBB920287001A8B2
:1057200003F043FB0649FDF7DBFB20890A46010530
:10573000090D022003F044FBFEBD000040030020E1
:1057400040420F0070B5044613480025026840210E
:1057500028463C3203F060FB002804D003F024FA12
:10576000FFF728FE0DE0E07A4106890F03290AD0F1
:105770007421095DC90708D0400602D5204603F010
:105780005BFB284670BD0125FBE78106F9D49B2110
:105790000840E072F2E700004003002010B5044624
:1057A000807AAA280BD0BA2809D0B92810D0742042
:1057B000005DC00702D12046FCF711FF10BD204656
:1057C00003F070FB0028F9D0012300220B210DE02B
:1057D000E07F0428F2D1E07E410602D5BA20A07213
:1057E00010BD0006FCD5012300220C21204603F049
:1057F000EFF910BD10B5026841689368FF201B7B6C
:105800000C2B03D00D2B14D0FC2010BD8B7AA22BB7
:1058100001D0B22BF9D174235B5CDB07CB7A05D0C6
:105820005B06F2D4104603F08FFB10BD9B06F9D443
:1058300010BD8B7AAB2B01D0BB2BF9D1104603F0F6
:10584000C5FB10BDF8B5026841689268FD20137B66
:105850000E2B13D1CB7ADB0610D5CB7F022B0DD1CB
:105860004B7E022B0AD174235B5CDB078B7A06D05C
:10587000B22B0AD0B42B08D0B52B06D0F8BDA22B82
:1058800003D0A42B01D0A52BF8D108893921050517
:105890000D484901006802264118C97B2D0D547B33
:1058A000012349060ED502218F020830C0191C229F
:1058B000C06C00F031F9010004D08D808C7130464D
:1058C00000F088F90020F8BD3C03002010B51C460C
:1058D0001346224603F0B4FB10BD7047FFB597B0E6
:1058E0000C201590142014901D48002500681321E9
:1058F000C9014018C66A1F462C461D70304603F089
:10590000CFFBFC280DD0FE2806D014986D1C36184D
:105910001598EDB28542F1D31798047000201BB0A2
:10592000F0BD6946304603F0C5FB1999E01D884279
:1059300001D96420F3E7684640780622C107189829
:10594000C90F0155641C1898A4B20FA9001902319F
:10595000FCF7A0F9A41D3878A4B2401C3870D4E735
:105960003C03002010B50A4A830B12688004526A77
:10597000800C140A60435A438009101800228A5E82
:10598000821A10464030C009C3019A1A0A8010BD1D
:105990003C03002010B5030003F09EFB3A332D2D8D
:1059A0002D1E2130332A2A2A2A2A2A2A2A2A242466
:1059B00024242424242424242424242424242424A7
:1059C0002424242424242424242424242424242794
:1059D000272727272727273303F08CFB10BD03F049
:1059E0009FFB10BD03F0C0FB10BD03F0CBFB10BD4F
:1059F00003F0F8FB10BD03F017FC10BDFCF7C7FD6A
:105A000010BD3A38C0B20428FAD203F049FC10BDE8
:105A100000B50B4603F045FC002808D003CB083B3B
:105A2000086003CB41600020083B1860586000BD4F
:105A3000086042684A60426811604160704708B57A
:105A400000216A4611806946FFF78CFF08BD0000FF
:105A50000649C20B09684004096A400CCB09584347
:105A60005143000A08182030800970473C03002089
:105A700070B5144E1D22316892018D182C681DE0FE
:105A8000017B227B914218D121462846FFF7C0FFB7
:105A9000284621460830FFF7CBFF207B3A2803D267
:105AA00020352878401E287072B63068DF224030DA
:105AB000C1791140C17162B670BD2468AC42DFD1BA
:105AC00070BD00003C03002010B50446C10611481B
:105AD000006803D51522BF210C4006E03921490199
