:020000041004E6
:1000000000600020713C04102D3A04102F3A0410B7
:10001000AA5555AA45554C420000000000000000BA
:10002000000000000000000000000000313A041051
:1000300000000000000000004F0F0410333A0410CD
:10004000353A0410A70F0410000000000000000063
:10005000BF0F0410653A04100F100410372B041062
:100060000000000000000000000000000000000090
:10007000000000003B33041027340410AB38041098
:10008000000000005F110410231504102715041050
:10009000032504102B250410233C04106D3A041092
:1000A0000000000000000000000000000000000050
:1000B0000000000000000000000000000000000040
:1000C000FDB5B4B03C98049102A93B2288540020AD
:1000D0000D9028A8401C27900DE00498349A904772
:1000E0000490002801D100F042FE0D98401C0D90B4
:1000F0003598401C359035980178002910D0252975
:10010000EBD100200790089009900A900B900C907A
:10011000002102240120129008200190359D05E065
:100120000D9800F026FE0800129901436D1C2878F6
:100130002028F8D023280BD02B2804D02D2804D039
:10014000302808D00AE02143F0E708000421ECE75A
:1001500008000821E9E708001021E6E72A280FD166
:10016000369802681068121D369B1A600F9000289E
:1001700004D542420F920800042101436D1C12E095
:1001800000200F90624A09E00F9B934205DA9E001F
:10019000F3185B00181830380F906D1C2878030096
:1001A000303B0A2BF0D328782E2803D00020C04300
:1001B0000E9027E06D1C28782A2808D13698006810
:1001C0000268001D369B18600E926D1C1AE02D28E7
:1001D00002D12D226D1C00E0002200200E900CE0C8
:1001E000002A09D10E9B4A4EB34205DA9E00F3184D
:1001F0005B00181830380E906D1C28780300303BD7
:100200000A2BEDD302A801872E7831003E487844AE
:10021000FF30093800F092FE002801D06D1C00E08C
:10022000002602A83A214654405C682804D1287868
:1002300068280BD1622005E06C2807D128786C284B
:1002400004D1712002A93A2288546D1C16A8069088
:10025000287869460870681C359068460278100056
:1002600025382DD02038022800D800E2133801D1DB
:1002700000F0A1FC0B3801D100F03AFD401E01D185
:1002800000F0E7FC401E022800D8F0E1001F01D179
:1002900000F0DFFC401F00D148E1401E01D100F01A
:1002A0008AFC401E00D1EBE0C01E10D0801E01D1A0
:1002B00000F081FCC01E01D100F07DFC00F023FDA8
:1002C000252016A908701298079000F027FD36988F
:1002D00000680468001D369908600594002C00D061
:1002E000BAE002A83B21405C002800D1ADE0002428
:1002F000E44306487844143000F02AFE201A01D066
:1003000000F035FD00F00AFD383500006C350000C6
:10031000CBCCCC0C641E01D000F01FFD3495079DA2
:1003200016AC002D0FD0349E227802A9300000F0C8
:10033000D9FD002802D4641C6D1EF5D13496002826
:1003400001D000F014FD3020694608700A9C002C92
:100350000DDD349D01236A4602A9280000F0D3FD7B
:10036000002801D000F003FD641EF3D13495059CF4
:10037000089D002D0FD0349E227802A9300000F095
:10038000B1FD002802D4641C6D1EF5D134960028FE
:1003900001D000F0ECFC302769460F700B9C002C5C
:1003A0000DDD349D01236A4602A9280000F0ABFD53
:1003B000002801D000F0DBFC641EF3D134950598D1
:1003C00008994418099D002D0FD0349E227802A967
:1003D000300000F087FD002802D4641C6D1EF5D1AA
:1003E0003496002801D000F0C2FC684607700C9CCF
:1003F000002C0DDD349D01236A4602A9280000F07F
:1004000082FD002801D000F0B2FC641EF3D13495C7
:1004100002A83821405C400700D46CE620206946E1
:1004200008700198002800DC65E6019C349D0123DA
:100430006A4602A9280000F066FD002801D000F0FD
:1004400096FC641EF3D1349555E63E487844FF305F
:100450000B38059000F062FC0E9D002D03D52000A6
:1004600000F09AFD09E02A000021200000F09CFD28
:10047000002801D0001B00E02800089000F04EFC8E
:10048000369800680268001D369908600020C04355
:100490000021104002AA03C216A80590069A3C2328
:1004A00002A803C8002904D1002802D10E9C002C08
:1004B00013D05B1E05072D0F3035EEB23A2E00DB50
:1004C0002735D55400090C072043090901D100281C
:1004D00003D0059CD518AC42EBD33C20C01A089041
:1004E000D11805910E99884208DA081A0A9002A8D4
:1004F000018FBD4A0A40028700F010FC002901D498
:1005000000F00CFC02A93822895C14220A40102A4F
:1005100001D000F003FC0F99079A891A0A9A891AE8
:10052000081A002801DC00F0F9FB42E302A83B2195
:10053000415C002908D00024E44349487844FF3056
:100540002130D9E6503300003A21405C622868D05F
:10055000682819D06A2844D06C2806D071284ED05B
:10056000742830D07A2820D06CE036980068016872
:10057000001D369A1060002976D10024E4433948E2
:100580007844FF301F38B7E6369800680168001DD0
:10059000369A1060002905D10024E443314878449C
:1005A000C230A9E60D980880B8E336980068016863
:1005B000001D369A1060002956D10024E4432948D2
:1005C0007844A03098E6369800680168001D369A95
:1005D0001060002948D10024E44322487844843044
:1005E0008AE6369800680268001D36990860002A7D
:1005F00013D10024E4431B48784468307CE63698E5
:1006000000680268001D36990860002A05D10024A0
:10061000E443144878444C306EE60D98C11703C289
:100620007CE3369800680168001D369A1060002946
:1006300005D10024E4430B48784428305CE60D984B
:1006400008706BE3369800680168001D369A1060E8
:10065000002909D10024E44302487844801D4BE678
:10066000E8310000FC3100000D98086056E3369830
:100670000368DB1D072083433698036003CB369D58
:100680002B6002AB03C3C80F02D007982D210AE0EC
:1006900002A8008F204202D007982B2103E0C00758
:1006A00005D50798202116AB1954401C079016A8B1
:1006B00007994318059328AC02A803C814AD03C5D5
:1006C0000E98002801D5062007E007D1684600787B
:1006D00020210143672901D112980E9002A803C876
:1006E000080041004915491C10D100030ED0032019
:1006F0000890613A1A2A04D23C497944FF311139F1
:1007000015E03B497944FF31173910E002A803C8CE
:10071000080041004915491C0ED100030CD10320EB
:100720000890613A1A2A16D332497944C631032215
:10073000180000F05FFCF1E202A8C0C885A003C861
:100740003940002280235B03994208D2002079407F
:1007500032AB03C313E0284979449C31E7E7774B78
:100760003B40774F1F4332AAC0C2080D75A20CCA86
:10077000101876494843764900F04AFC020032A836
:1007800003C802AB03C302A803C872A6C0CE0640CA
:100790000F4003D1002E01D10025B8E014A830C8C5
:1007A0006D006D0825920720801A05DD02002000EB
:1007B000290000F070FB0AE042420020674900F087
:1007C0006AFB02000B002000290000F050FC2022F0
:1007D0006B461B781A436B465A706A465278662AF3
:1007E0000CD1259A0A320AE0EFFF0000AC3000007D
:1007F000AC300000B0300000A830000006220E9B94
:100800009A18142A00DD142228AB30241C705C1CBA
:1008100002E014A803C8139A002A3CDD14AB03C3FA
:10082000139214A803C800F083FC269006460834EF
:10083000042530000A2100F0FFFB0F0030000A21E0
:1008400000F0FAFB06003037601E077030000A2106
:1008500000F0F2FB0F0030000A2100F0EDFB060073
:10086000A41E303727706D1EE3D108341398083862
:1008700013900028CDDD269800F072FC02000B00DA
:1008800014A803C800F0D9FC0022354B00F04CFD41
:1008900014AA03C2C5E72798201A28A94C1C259D35
:1008A00002E0401E6D1E641C21783029F9D0694693
:1008B0004978662901D1691C06E0694649786529AD
:1008C00001D1129900E000210E9A5618B04200DAC8
:1008D000461E002E1BD4864204DAA05D342801DDBA
:1008E000392000E030203100621E521801E0761EEF
:1008F000521E491E13788342F9D0392802D1605C18
:10090000401C6054002902D5641E761C6D1C68468C
:100910000078694648700E9F30B2002803DC129EB2
:10092000054C7C44123468464178202008436628F0
:1009300018D16D1C2EE000BF702F0000FFFF0F804C
:100940000000E03F02FCFFFFFFFFFFFF9775000084
:10095000A0860100FFFFFFFFFFFFFF7F0000F03FC9
:1009600084D7974167285CD128B20321C9438842C4
:1009700041DBB8423FDA6D1C02A8008F0199C0B27A
:10098000084203D130B2B84200DA070028B23F1A59
:1009900000D5002728B2002800DDA8E00898411CF7
:1009A00008913021059A1154002F05DC02A8008F10
:1009B0000199C0B2084205D00898411C08912E2127
:1009C000059A115428B241428F4200DA7D422DB27D
:1009D00068420B907D1930B2854200DA2E0036B2A3
:1009E0000996320021000598089BC01800F002FB10
:1009F000A81B0C90C7E030B2B84206DA02A9098FF2
:100A0000019AC9B2114200D107007F1E00D500270C
:100A100068464078672801D1652000E04520694696
:100A200048700898411C08912178059A1154611C5E
:100A3000002F05DC02A8008F019AC0B2104218D026
:100A40000898421C08922E22059B1A54002F10DD94
:100A5000741E20B2874200DA3C0022B20598089B3F
:100A6000C01800F0C7FA24B2089800190890381B83
:100A70000B9005980899401869464978017029B289
:100A8000002903D42B214170861C03E02D224270E3
:100A9000861C4D42002412A928000D0005E00A2101
:100AA00000F0B6FA2970641C6D1C00B20028F6DC58
:100AB000012C08DC6846407820210143652902D1D9
:100AC00030203070761C002C09D130203070761C1C
:100AD00007E0641E12A8005D30303070761C002CD8
:100AE000F7DC059808994018301A09904BE030B2AD
:100AF00029B288421DDA32B221000598089BC0183D
:100B000000F078FA36B20898801908902DB2A91B27
:100B10000B91002F05DC02A9098F019AC9B211427D
:100B200005D02E21059A11540998401C09900C9764
:100B300029E02AB221000598089BC01800F05AFA53
:100B400028B2089909180891751B002F05DC02AA24
:100B5000128F019BD2B21A4204D04A1C08922E2254
:100B6000059B5A5429B28F4200DA3D002AB221185F
:100B70000598089BC01800F03DFA2DB2089840195E
:100B80000890781B0B9002A83821405C142101408A
:100B9000102900D0C2E00798089940180B99401816
:100BA000099940180C9940180F99884200DBB5E06C
:100BB000081A0A90B2E002AA3A20105C622808D013
:100BC00068280ED06A2814D06C281DD0712810D047
:100BD0001AE0369801680868091D369B1960C0B292
:100BE00018E0369801680868091D369B196080B2C4
:100BF00010E036980368DB1D0720834336980360B6
:100C000003CB369C236006E0369801680868091D0E
:100C1000369B1960002102AB03C3108F0199C0B24B
:100C200008425BD002A803C8002901D1002855D092
:100C3000684600782021014378294FD1079816A9EA
:100C400030220A54401C421C07926A4612780A5409
:100C500044E002AA3A20105C622808D068280ED02E
:100C60006A2814D06C281DD0712810D01AE036984C
:100C700001680868091D369B196040B218E0369873
:100C800001680868091D369B196000B210E03698AB
:100C90000368DB1D072083433698036003CB369D32
:100CA0002B6006E0369801680868091D369B1960BC
:100CB000C11702AB03C3002902DA07982D2109E00E
:100CC000108F204202D007982B2103E0C00705D5E2
:100CD0000798202116AA1154401C079016A80799BE
:100CE000401805906846017802A800F044F815E025
:100CF00012980790369800680168001D369A1060B7
:100D000016A801700AE0252016A90870129807900D
:100D100068460078002801D04A7007940F98079918
:100D2000401A0A99401A0899401A0B99401A0999D1
:100D3000401A0C99401A019002A83821405C4007E3
:100D400001D5FFF7ECFA20206946087001980028C9
:100D500001DCFFF7E4FA019C349D01236A4602A9F5
:100D6000280000F0D0F8002801D1FFF7D3FA0020C6
:100D7000C04337B0F0BDF2B586B0040025696F29D5
:100D800001D1082707E0084620210143782901D036
:100D90000A2700E010273C2603CC083C04AA03C223
:100DA0006A46127E642A03D06A46127E692A09D1F5
:100DB000002907DA04A803C800220023121A8B4175
:100DC00004A80CC004A803C800290DD100280BD129
:100DD000206B002808D1082F3BD13820205C000769
:100DE00037D53B26302033E00294009504A830C864
:100DF000761E0196200029003A00FB1700F056FBF2
:100E00003032D0B23A2803DB6846007E51381218DF
:100E100000988255200029003A00FB1700F046FB9D
:100E200004000D0001D1002C05D00298C068009983
:100E300089198842DCD3029C009D082F09D13820F3
:100E4000205C000705D5A85D302802D0761E302032
:100E5000A8553C20801BA061A919E160216B884244
:100E600006DA081A2062208F1C490140218710E011
:100E700000290ED53821615C14220A40102A08D1BD
:100E8000616B6269891A226A891A081A002800DDD2
:100E9000206207B0F0BDF8B50026114F04000D0028
:100EA000009214E0C00707D532003B002000290063
:100EB00000F03AFA04000D00009840100090300055
:100EC000390032003B0000F02FFA06000F000098B6
:100ED0000028E7D120002900F4BD0000EFFF00004A
:100EE0000000244010B503000C001100A0689847D2
:100EF000A060002804D0E06A401CE062002010BD21
:100F00000020C04310BDF8B50024002B11D007000D
:100F10000E0014001D002178B068B847B0600028AA
:100F200009D0F06A401CF0620020641C6D1EF2D1F2
:100F300004002000F2BD0020C043F9E7C9B20278E6
:100F40008A4203D0401C002AF9D100207047704724
:100F500080B5002801D100BF07A006490B68002B0F
:100F600003D022220021984701E000F0D4FA222089
:100F700002BD000084000020636F6E7374726169AB
:100F80006E742068616E646C65723A2062616420E0
:100F90006D65737361676500431C0178401C0942ED
:100FA000FBD1C01A70477047C9B2521E05D30378EF
:100FB000401C8B42F9D1401E70470020704770479B
:100FC00070B4103A03D378C9103A78C0FBD25307F3
:100FD00001D318C918C001D508C908C0D20704D365
:100FE0000B880380891C801C002A01D50B780370B4
:100FF00070BC70478B0701D18307E1D0124205D046
:101000000B78491C0370401C521EF9D17047704781
:10101000CA0F00D0494203105A400DD004B500D386
:10102000404200F009F8009AD20701D34942124227
:1010300000D5404204BD0000094214D088420FD3BD
:101040000122030C01D100041204002300185B41AB
:101050008B4200D35B1A5241F8D31900100070473D
:1010600001000020704708B500F05AFA08BDF0B43E
:101070000E005E400125ED072E40B446AE0ADF1893
:101080004C18F4423BD2F74241D2640D43D07F0D5D
:1010900038D0E41BC902DB0229432B43CF0ADB0A09
:1010A0000600B61A9F4104D2641EB6197F41B618D5
:1010B0005F416812800D24180018844222DAE80C7F
:1010C0000021B6197F41B61A9F4102D2B6185F417E
:1010D0003F1C40414941F4D3241C21DD2405B619AD
:1010E0007F41B61A9F4105D33743C60737430026D1
:1010F000012F7041614166463143F0BC7047FCD11D
:10110000F74205D20020C14349054908F3E704D05E
:101110000020C143F1E77F0DFAD000206146ECE7E3
:101120002442FAD1401C61410F03F6D30020E2E7CC
:101130004A1812D2400DC90208430121C9070843C9
:10114000520D40210901521A521C06D452421F323C
:1011500001D4D0407047C0177047002070477047D7
:10116000010042221201D21E004207D002D4521EB8
:101170000018FCD5C10A4005120589187047000007
:101180008B4200D1824205D98446100062468C46CB
:1011900019006346DF184C18640D7F0D3AD0661CA9
:1011A000760537D0E61B352E34DCDB022B43DB0A19
:1011B0000C0DC9022943C912202E0DDB1700203E59
:1011C00006D01F00F741F3405F400026012A774117
:1011D000C01871410DD217E01700F741F240574097
:1011E000F3415A40B340F3405A4000268018594119
:1011F0000AD3A21C52050FD0C207012F724117005B
:101200004008CB0718434908641C24054208AF4135
:1012100070416141F0BC7047641C21050020F9E772
:101220006B4010E06B40ABE7F742F3D1E943F1E7E5
:101230002442EFD100200021ECE7F0B40125ED07B6
:101240000F005F40EED40C00871A9C4105D2C01BF2
:10125000A141D219634169406B40AE0ADF184C18B6
:10126000F442E1D2640D7F0DE2D0E61B362ED1DCD4
:10127000DB022B43DB0AA4460C0DC9022943C90A31
:10128000012E28DC04D1D6075208DF073A435B0859
:10129000EF0A76429041994114D039423BD1B619B8
:1012A00040414941761C394204D1761C001849411D
:1012B0003942FAD0B9436746B74208D9A41B24057E
:1012C0002143A7E70042EAD13642E8D1A2E7E40A87
:1012D000E10700209EE7202E0BDD203E1F00F3409B
:1012E000F7415F40012A002257417E4298419141D7
:1012F0000BE01700F741F2405740F3415A40B3402A
:10130000F3405A407E42904199410A0303D2641E41
:10131000B619404149410027641E24054208AE41E8
:1013200078416141F0BC7047F0B50E005E40012588
:10133000ED072E40B446AE0ADF184C18F44208D22E
:10134000F7420ED2640D01D07F0D12D1002061460C
:10135000F0BD05D1F74201D87F0D05D10020C14372
:10136000F0BDFBD1640DF9D00020C1434905490807
:101370008FE0E419C902DB0229432B43DB0A460D47
:10138000C00231438E4630B487B295B27D432E0CF5
:10139000ADB2140C7C43A419260C240425439CB242
:1013A0007C43A419190C7943270CC919A4B20F0462
:1013B0003C43090C000C97B247432E0CBE19354331
:1013C000ADB2170C4743360CBF19A6B2BF193E0485
:1013D0003543240C3E0C36199FB24743BF19BCB2AB
:1013E0003E0C89191F0C47437F183E043443390CC7
:1013F000704680B297B247432E0CBE193543ADB24A
:10140000170C4743360CBF19A6B2BF193E0435432B
:10141000240C3E0C36199FB24743BF19BCB23E0C98
:1014200089191F0C47437F183E043443390C774613
:101430003F0C90B278432E0C80190604ADB22E43B7
:10144000050CA0B22D18120C7A435019020C80B270
:10145000240CA4189AB27A43121914042043120CD3
:1014600089181B0C7B43C91830BCEF0A394203D1E1
:10147000B61940414941641E6F12BF0DE41B0BDBDE
:10148000FF19BC4211DA240500274208AE41784119
:10149000614166463143F0BD641C05D1401C614189
:1014A000CF0201D34908F4E750E75DE7124224D0A8
:1014B000994228D970B500251B4202D00C000021AA
:1014C00009E00024012649186441944200D3A41A7B
:1014D0007641F8D33100012601E0764109D20018A7
:1014E00064416D41A41A9D41F7D2A4185D41B6191B
:1014F000F5D3300022002B0070BD1B42D8D108B5B7
:1015000000F010F808BD01D19042D3D202000B00C8
:1015100000210020704780B5012000F005F801BDD2
:10152000704770477047704780B500BF00BF024AE0
:1015300011001820ABBEFBE72600020078B589B089
:101540000400002568460570B94800F0B3FE002885
:101550003CD101220F21684600F00CFF002835D154
:10156000684600786928F4D1052069460870012290
:101570001221684600F020FF002827D10122122105
:10158000684600F0F7FE002820D16846007804285D
:10159000F4D16846457001221221401C00F0EAFE99
:1015A000002813D168464078042101436846417001
:1015B00001221221401C00F0FFFE002806D101226A
:1015C0000A2100A8401C00F0D5FE002800D0E1E16F
:1015D00068464078802108406946487001220A2107
:1015E00000A8401C00F0E8FE00286FD1019420788C
:1015F00000F06CFF69464D708021090400F082FF05
:1016000001D200242AE0A54900F07CFF01D2102479
:1016100024E0A34900F076FF01D220241EE0A14976
:1016200000F070FF01D2302418E09F4900F06AFFFB
:1016300001D2402412E09D4900F064FF01D2502401
:101640000CE09B4900F05EFF01D2602406E099495E
:1016500000F058FF01D2702400E080240122112103
:1016600000A8401C00F086FE00282FD16846407874
:101670000007000F04436846447001221121401CFA
:1016800000F09AFE002821D10198407800F01EFF5A
:1016900002900024684645700298874900F032FFA6
:1016A00015D20122112100A8401C00F063FE002881
:1016B0000CD16846407802210143684641700122FE
:1016C0001121401C00F078FE00283DD062E101228B
:1016D000112100A8401C00F04DFE0028F6D16846FC
:1016E0004078FD2101406846417001221121401CD3
:1016F00000F062FE0028E9D10298C14900F002FF23
:101700000CD3C04900F0FEFE01D2042406E0BE491D
:1017100000F0F8FE01D2082400E00C24012211217F
:1017200000A8401C00F026FE0028CFD16846407873
:10173000F32101400C436846447001221121401CF2
:1017400000F03AFE0028C1D1019800790199C978CA
:101750006A46557000245580019A9278002A00D07C
:101760000824002902D010216A46D170002802D036
:101770002020694688700122192100A8401C00F031
:10178000F9FD0028A2D168464078F72101400C43BA
:10179000EF2020406946C9780143DF2008406946B0
:1017A000897801436846417001221921401C00F0EC
:1017B00003FE00288AD10198407900F087FE69462F
:1017C0004D708021090400F09DFE01D2002438E014
:1017D000324900F097FE01D2102432E0304900F087
:1017E00091FE01D220242CE02E4900F08BFE01D284
:1017F000302426E02C4900F085FE01D2402420E070
:101800002A4900F07FFE01D250241AE0284900F056
:1018100079FE01D2602414E0264900F073FE01D263
:1018200070240EE0794900F06DFE03D2802408E0B8
:1018300000127A00764900F065FE01D2902400E0A3
:10184000A0240122102100A8401C00F093FD0028D4
:101850003CD1684640780007000F04436846447056
:1018600001221021401C00F0A7FD00282ED1019874
:10187000807900F02BFE002469464D70BA4900F0D3
:1018800041FE1CD3B94900F03DFE01D2082416E008
:10189000B74900F037FE11D20C2410E0010050418E
:1018A0000100D041010050420100D04201005043EC
:1018B0000100D043014050440100FA4204240122B7
:1018C000102100A8401C00F055FD002862D1684698
:1018D0004078F32101400C436846447001221021F6
:1018E000401C00F069FD002854D10198407A01990C
:1018F000097A6A46557000260024019AD279002A96
:1019000000D00826002900D01024002800D020256F
:101910000122182100A8401C00F02CFD002839D11C
:1019200068464078F72101400E43EF2030400443E1
:10193000DF20204005436846457001221821401CE5
:1019400000F03AFD002825D101220D21684600F063
:1019500011FD00281ED16846007803210143684626
:10196000017001220D2100F027FD002812D1012273
:101970001A21684600F0FEFC00280BD1684600786A
:10198000802101436846017001221A2100F014FDF4
:10199000002801D0012031E00121012000F0C6FD26
:1019A0001CA003C804AA03C200F046FEC84C800075
:1019B0002058049004A800F045FE00BF17A000685E
:1019C000039003A800F0E4FF06A80C2101F02CF816
:1019D00000F032FE80002058069006A800F006FFB6
:1019E00000F02AFE8000205800F060FF00F024FE86
:1019F00001218000205800F03BFF00200AB070BD9C
:101A0000010075430100FA4301007A440180CF448C
:101A1000012050450000000000000000000301000C
:101A200080B5002801D1012002BD01220F2100F064
:101A3000A1FC02BD38B5050002220021684600F075
:101A4000FBFF02222821684600F094FC002818D1F0
:101A50006C466078000221784018288002222A21F2
:101A6000684600F087FC00280BD1607800022178DE
:101A70004018688002222C21684600F07BFC002878
:101A800001D0012032BD9EE0FEB5050000240222F7
:101A9000002100A8801C00F0CFFF0222282100A80E
:101AA000801C00F067FC002824D100AEB61C7078C2
:101AB00000023178471802222A2100A8801C00F079
:101AC00059FC002816D17078000231784018694618
:101AD000888002222C2100A8801C00F04BFC0028EA
:101AE00008D16946087001221021684600F042FCC6
:101AF000002801D00120FEBD684600780C2101407D
:101B00000CD0042904D0082906D00C2902D006E004
:101B1000904C04E0904C02E0904C00E0904C38B2C5
:101B200000F0E4FC0100200000F090FF00F0E6FF70
:101B30002860019800B200F0D9FC0100200000F0FC
:101B400085FF00F0DBFF6860707800023178401894
:101B500000B200F0CBFC0100200000F077FF00F0A5
:101B6000CDFFA8600020FEBD0100004001008040C4
:101B70000100004138B5050002220021684600F04E
:101B80005BFF02222221684600F0F4FB002818D1F6
:101B90006C466078000221784018288002222421B7
:101BA000684600F0E7FB00280BD16078000221783E
:101BB0004018688002222621684600F0DBFB0028DE
:101BC00001D0012032BD6078000221784018A88041
:101BD000002032BDF8B5060000240222002168462C
:101BE00000F02AFF02222221684600F0C3FB0028F1
:101BF0006BD16D46687800022978471802222421AB
:101C0000684600F0B7FB00285FD1687800022978A9
:101C100040186946488002222621684600F0AAFB47
:101C2000002852D1687800022978451869460C705E
:101C300001221121684600F09DFB002845D168462D
:101C4000007802210840694608706846007802283A
:101C500001D1814C18E001221121684600F08AFB75
:101C6000002832D1684600780C2101400BD00429AD
:101C700007D0082903D00C2906D1784C04E0784C11
:101C800002E0784C00E0A04C38B200F02FFC0100DC
:101C9000200000F0DBFE00F031FF306000980014FF
:101CA00000F024FC0100200000F0D0FE00F026FF30
:101CB000706028B200F01AFC0100200000F0C6FE9F
:101CC00000F01CFFB0600020F2BD0120F2BD00005A
:101CD000983C04101CB504000020694608700122DD
:101CE0001021684600F046FB002801D0012016BDF7
:101CF00068460078F021014014D0102914D0202922
:101D000014D0302914D0402914D0502914D060297F
:101D100014D0702914D0802914D0902914D0A0296F
:101D200014D015E0002012E0784810E078480EE06A
:101D300078480CE078480AE0944808E0944806E0C7
:101D4000944804E0944802E0944800E094482060FD
:101D5000002016BD23DBF93E23DB793E23DBF93D72
:101D600023DB793D1CB5002469460C7080210904F1
:101D700000F0C8FB36D38B4900F0C4FB01D210241D
:101D800030E0894900F0BEFB01D220242AE08749D7
:101D900000F0B8FB01D2302424E0854900F0B2FB0A
:101DA00001D240241EE0834900F0ACFB01D2502454
:101DB00018E0814900F0A6FB01D2602412E07F49BF
:101DC00000F0A0FB01D270240CE07D4900F09AFBEA
:101DD00001D2802406E0A04900F094FB01D29024B7
:101DE00000E0A02401221021684600F0C3FA002878
:101DF0000CD1684600780007000F04436846047061
:101E00000122102100F0D8FA002800D0012016BDD0
:101E10001CB50400002069460870012210216846A4
:101E200000F0A8FA002801D0012016BD684600780D
:101E30000C21014006D004290AD0082904D00C291D
:101E400004D007E0854804E0854802E0854800E0CA
:101E5000A1482060002016BD00008C4000008C428C
:101E600000000C4200008C411CB5040000206946B3
:101E7000087001221021684600F07CFA002801D089
:101E8000012016BD684600780C21014006D00429C7
:101E90000AD0082904D00C2904D008E0802004E0EE
:101EA000812002E0822000E08320C0052060002025
:101EB00016BD1CB5002469460C70884900F022FB51
:101EC0000CD3874900F01EFB01D2082406E0A1498B
:101ED00000F018FB01D20C2400E0042401221021A0
:101EE000684600F047FA00280CD168460078F321D4
:101EF00001400C43684604700122102100F05CFA96
:101F0000002800D0012016BD00000C410000504107
:101F10000000D041000050420000D0421CB5040037
:101F200000206946087001221121684600F022FA5B
:101F3000002801D0012016BD68460078F02101403C
:101F400010D0102910D0202910D0302910D04029CD
:101F500010D0502910D0602910D0702910D08029BD
:101F600010D011E000200EE07B480CE07B480AE036
:101F70007B4808E07B4806E0044804E0044802E0AF
:101F8000044800E004482060002016BD00005043D3
:101F90000000D043004050440080CF440020504512
:101FA0000020D045010050410100D04101005042C5
:101FB0000100D042010050430100D0430140504491
:101FC0000180CF441CB5002469460C7080210904AF
:101FD00000F098FA2AD3914900F094FA01D2102423
:101FE00024E08F4900F08EFA01D220241EE08D49B2
:101FF00000F088FA01D2302418E08B4900F082FA10
:1020000001D2402412E0894900F07CFA01D2502428
:102010000CE0874900F076FA01D2602406E0854999
:1020200000F070FA01D2702400E080240122112116
:10203000684600F09FF900280CD168460078000738
:10204000000F0443684604700122112100F0B4F926
:10205000002800D0012016BD0120504523DB793D2A
:1020600023DBF93D23DB793E1CB5040000206946E3
:10207000087001221121684600F07CF9002812D175
:102080006846007802210840694608706846007872
:10209000022801D168481BE001221121684600F0A6
:1020A00069F9002801D0012016BD684600780C218E
:1020B000014006D0042906D0082906D00C2906D0F4
:1020C00007E05E4804E05E4802E05E4800E05E48EB
:1020D0002060002016BD000023DBF93E0100004017
:1020E000010080401CB504000020694608700122F0
:1020F0001121684600F03EF9002812D168460078A8
:10210000022108406946087068460078022801D11B
:102110004E481BE001221121684600F02BF90028EF
:1021200001D0012016BD684600780C21014006D080
:10213000042906D0082906D00C2906D007E0444817
:1021400004E0444802E0444800E0444820600020A5
:1021500016BD000001000041000050410000D041C8
:10216000000050420000D04238B505000024684607
:10217000047028003A4900F0C5F914D20122112157
:10218000684600F0F7F8002846D16846007802213A
:102190000143684601700122112100F00DF9002869
:1021A0003AD1002032BD01221121684600F0E2F848
:1021B000002831D168460078FD2101406846017051
:1021C0000122112100F0F8F8002825D12800254926
:1021D00000F098F90CD3244900F094F901D20424BA
:1021E00006E0224900F08EF901D2082400E00C2418
:1021F00001221121684600F0BDF800280CD1684684
:102200000078F32101400C4368460470012211213B
:1022100000F0D2F80028C4D0012032BD01005041A6
:102220000100D041010050420100D0420100504362
:102230000100D0430140504400008C4000000C419C
:1022400000008C4100000C4200008C420000FA4269
:10225000000075430000FA4300007A440000FA448D
:102260000100FA42010075430100FA4301007A447B
:1022700010B58024A402200000F05EFC002817D0D6
:10228000200000F06BFC63480121C94342690A4009
:10229000426102681140016000F0CEF9854980007A
:1022A0000818001F006800F05BFA01205849087602
:1022B00010BD0000F1B586B00121112000F036F903
:1022C000684600F047FA00F0B7F9040000F0B4F9EE
:1022D000050000F0B1F97849A2008958774AAB00AF
:1022E000D2580A43764980000858104300906C4643
:1022F000042020710127A77100256571684600F050
:10230000A1F900F099F96F4E800030580090062036
:102310002071684600F096F900F08EF98000305880
:1023200000F01EFA03A800F09CFC03A8057007212A
:10233000417045800698049003A800F045FC0020F9
:1023400000F016FD00F004FD00F0F8FC002000F0A5
:102350002DFD002000F040FD02A8052101700321A1
:102360004170877000F014FB012000F084FC002015
:1023700007B0F0BDF8B507000C001600002000F013
:10238000F7FC234DEE83AE76EC762F620020687664
:1023900001212977287600F04FF94A4C8000205817
:1023A00000F0EAF901210C2000F079FC287E0028D9
:1023B000FCD000210C2020E0F8B507000C0016002E
:1023C000012000F0D5FC124DEE83AE76EC762F6244
:1023D0000020687602212977287600F02DF9394C03
:1023E0008000205800F0C8F90121082000F057FCB7
:1023F000287E0028FCD00021082000F050FC00F0CE
:102400001BF98000205800F0ABF90020F2BD00005D
:102410000C030020580000A038B52B4C01250420E7
:1024200000F072FC012813D1607E002802D100F078
:1024300057FC06E000F054FC216A627E8918491EB0
:102440000870607EA17E814200D12576401C6076B6
:10245000082000F059FC01282AD1E08B00281FD069
:10246000E17E227F012A04D10020207780200843CA
:1024700013E0022A03D10320207708000DE0401E5C
:10248000032AE08308D1206A617E405C00F025FCCD
:10249000607E401C607631BDFF2000F01EFC31BD27
:1024A0000021082000F0FBFB207F032800D12576C7
:1024B00031BD00008C3C04108C3C0410943C041092
:1024C000903C0410883C04100C0300209D21020065
:1024D0000AD002D4491E9218FCD5C905100A12066A
:1024E000524100D3012A4841704700009D2102005B
:1024F000EED55242F446FFF7EBFF0122D20710431C
:10250000604770470CB4012212060318DA4207D85C
:102510004B18DA4204D802000A43921802D28842C9
:102520000CBC7047FCD08142FAE7704770B50400DC
:102530000D003A4E3A48204003D18721300000F088
:10254000C5FC2800344D010005D0012807D08821A2
:10255000300000F0BBFC2868A043286070BD2868EC
:1025600004432C6070BD2F4802782F48018800205A
:10257000002A44D109220A40092A00D12020112230
:102580000A40112A02D102004020104321220A40B1
:10259000212A02D102008020104341220A40412A10
:1025A00003D1020080204000104381220A40812A8A
:1025B00003D10200802080001043FF22921C1300F0
:1025C0000B40934203D102008020C0001043174A01
:1025D00013000B40934203D10200802000011043FE
:1025E00005220A40052A02D1020010201043890763
:1025F000890F03290ED10100082008437047022AE1
:1026000001D101207047042A01D102207047082A15
:1026100000D104207047000020009040AC38041026
:102620009F3F0F0008009040080010480104000080
:102630000120034908707047014800787047000086
:1026400089000020F8B50400674D2068800103D19F
:102650007A21280000F03AFC207900280BD00628C7
:1026600009D0012807D0042805D0052803D07B21F4
:10267000280000F02BFCA079002805D0012803D009
:102680007C21280000F022FC6079002805D0012878
:1026900003D07D21280000F019FC2068C00406D575
:1026A0002079062803D18021280000F00FFC206843
:1026B000800406D52079062803D18121280000F066
:1026C00005FC23791900474A0020002B04D1136828
:1026D0002568AB43136006E0062B04D10021136884
:1026E00025681D4315602568C540ED071AD50828E3
:1026F00009DA8500966A0F27AF40BE430F00AF404E
:10270000374397620EE00500083D082D0AD2050008
:10271000083DAD00D66A0F27AF40BE430F00AF4063
:102720003743D762401C1A28DDDB20686179012914
:10273000916802D10843906001E081439160206874
:10274000A1790129516802D108435060F1BD81434C
:102750005160F1BD002101600171817141717047CB
:1027600010B50400A00104D1A62149001E4800F0C4
:10277000ADFB8048046010BD10B50400A00104D179
:10278000AE214900184800F0A1FB7B48046010BD51
:1027900070B504000D00144EA00104D1B72149000A
:1027A000300000F093FB2800724D010006D0012894
:1027B00006D0FF217031300000F088FB6C6070BDE6
:1027C0002C6070BD10B50400A00104D1C2214900E5
:1027D0006A4800F07BFB8020C00501684C40046023
:1027E00010BD0000040000404839041038B5040052
:1027F000624D2068800104D1D0214900280000F0FA
:1028000065FB6068002806D0012804D0FF21A231B2
:10281000280000F05BFBA068002808D0012806D043
:10282000022804D0D1214900280000F04FFB216884
:1028300053486268012A026802D11143016001E035
:102840008A430260A1682268012903D181680A4392
:10285000826004E0002907D181689143816041686A
:1028600022689143416031BD41680A43426031BDF5
:1028700070B504000D00414EA00104D1FF21CE31FE
:10288000300000F023FB28003E4D01000AD0012853
:1028900004D0E7214900300000F018FB2868044309
:1028A0002C6070BD2868A043286070BD10B504007E
:1028B000A00104D1FF21E431304800F007FB324889
:1028C000046010BD10B50400012C49D0022C47D083
:1028D000042C45D0082C43D0102C41D0202C3FD0C4
:1028E000402C3DD0802C3BD080204000844237D00B
:1028F0004000844234D04000844231D040008442C1
:102900002ED0400084422BD04000844228D040008A
:10291000844225D04000844222D0400084421FD00F
:10292000400084421CD04000844219D040008442C0
:1029300016D04000844213D04000844210D04000A2
:1029400084420DD0400084420AD04000844207D027
:102950004000844204D0FA214900084800F0B6FA49
:102960000A4800680440200000D00120C0B210BD19
:10297000000000003C0000404000004048390410C6
:10298000100000401C0000402800004024000040CF
:10299000F8B50400A0781F4D002805D0012803D009
:1029A0005A21280000F092FA6078042803DB5B21AA
:1029B000280000F08BFA21781F220123A07800283C
:1029C00021D0607849B2CD0018262E40FF27B740AD
:1029D000FD438007000EB0400E0004D50E493607B7
:1029E000360F083E00E00D49B608B60089190E689A
:1029F0003540284308602078024093400849400948
:102A000080000B50F1BD0A409340064849098900F7
:102A10004350F1BD743A04101CED00E000E400E006
:102A200000E100E080E100E0002200BF094202D0A6
:102A3000491E4254FCD1704710B504000800110033
:102A400002002000FFF7F2FF200010BD30B40500A7
:102A50004D400122D20715404B180418240E2ED0E9
:102A60001B0E32D0FF2C34D0FF2B3AD0E4180002DA
:102A7000090210431143000A090A9446C2B24A43AC
:102A8000000AC3B24B43000A4843110A5B181A43B9
:102A9000D2B2190A091801D44918641E080A7F3CE9
:102AA00023DBFE2C08DAE40509061143634699414D
:102AB0006041284330BC7047FF20C005F9E728007B
:102AC0001B0EFF2BF6D1D043F4E72800FF2CF1D1E9
:102AD000F9E74002F7D1FF2B01D14902F3D1E0051C
:102AE000E7E7D8054902E4D0EDE743020020641C83
:102AF000DFD15B129B1CDCD9D805DAE70122D207B3
:102B00000118090E7F3910D449421F310FD4001823
:102B100005D2C0011043C84000D5D0437047C00162
:102B20001043C84005D4404270470020704700421F
:102B3000F3D510007047704710B5040004D1FF2191
:102B4000AC310C4800F0C2F9A02000060068044037
:102B5000200000D00120C0B210BD000010B504005C
:102B600004D1F5214900034800F0B0F9024804609F
:102B700010BD0000FC380410040000A070B5050072
:102B8000012602245A4828185A49884203D3612151
:102B9000594800F09BF959486900FEF74DFA0028A2
:102BA00008D05749884205D201E064004008FF2858
:102BB000FBD8461E534804740168644A0A4036062E
:102BC000310C1143016070BD38B5040020784A4DC6
:102BD000002805D0012803D09B21280000F076F9B9
:102BE0006078202803DB9C21280000F06FF9A07892
:102BF000002805D0012803D09D21280000F066F9A7
:102C0000E078002805D0012803D09E21280000F09C
:102C10005DF96068FFF7B2FF3A48416804229143CA
:102C20002278920004231A400A434260016840223D
:102C30009143A278920140231A400A43026001683E
:102C400080229143E278D20180231A400A43026035
:102C500001681F2291436278D206D20E0A430260B5
:102C600031BD012101700721417000218170C170C7
:102C70004B494160704710B5484C01000AD001280B
:102C800003D0D1211C4800F021F920680221014322
:102C9000216010BD206802218843206010BD70B5FE
:102CA00005000C00144E05D0012C03D0EE2130009D
:102CB00000F00CF9C020284001D1280003D1EF21F9
:102CC000300000F003F93748002C017802D00D43A2
:102CD000057070BDA943017070BD3349086070472D
:102CE0003148006870470B401343036010BD00007B
:102CF000F0D8FFFFF1EA7900943904100024F400C1
:102D000001FE00000000404010B5040008280ED06D
:102D100004280CD002280AD0012808D0102806D098
:102D2000202804D0FF21A4312A4800F0CFF83448ED
:102D300000780440200000D0012010BD1A4800E0B7
:102D4000016801798908C907FAD47047FF00FFFFBD
:102D50002D48017802220A43027000E0C168294927
:102D60000978C907FAD50178FD220A400270704738
:102D700010B504000AD0012C08D0022C06D0032C78
:102D800004D0FC214900134800F0A0F81F48016856
:102D90001F4A0A40E105C0235B04A4E70400404049
:102DA00040420F00140040400800404010B50400AD
:102DB00007D0012805D0022803D01749054800F0A4
:102DC00085F814480168154A0A40A102E0235B0116
:102DD00089E700009439041010B5040008D00128D8
:102DE00006D0022804D0A62189000D4800F06EF814
:102DF000084801680B4A0A40E101E0239B0072E7A2
:102E0000180040400C00404080004040000040401E
:102E1000FFFF7FFE0400404086020000FFE3FFFF4B
:102E2000943904107FFCFFFF70B58CB000F0C8F936
:102E3000FFF7FEFB002000F061FAE120400200F005
:102E400088FA1E4C1E49216009A87D2242700D227D
:102E5000027001238370C370037102258571427172
:102E6000C3710372437209688847164800F0DCFAA0
:102E700017A6154D16E00020287006A8884703A85D
:102E80002168096988470598029004980190039881
:102E90000090089B079A0699300000F0C5FA0020C0
:102EA00000F045FA2068816828780128E3D006A858
:102EB000884703A8216809698847F3E724000020B0
:102EC000CC020020303B041088000020FEE7000008
:102ED00025642C2025642C2025642C2025642C209E
:102EE00025642C2025640D0A0000000010B5C200E6
:102EF00018231340FF249C40E2438907090E9940A0
:102F0000030004D55D481B071B0F083B00E05C482D
:102F10009B089B00C01803681A401143016010BD54
:102F2000FEB501245748017801220A4302700026A9
:102F3000554806600325FFF716FB6946088068467A
:102F40000088002801D16D1EF5D168460088202830
:102F500036DB684600880125400525D4684600F028
:102F600077FA68464178090180780843122800DA28
:102F700000258C480068000705D4002D14D00120DE
:102F800000F062F810E0884FF868884E3168081A3F
:102F9000283800020012002806DD002D02D0012092
:102FA00000F052F8306838608148047000F0A7FAE9
:102FB000BFF34F8F7F4880490860BFF34F8FFEE714
:102FC0000120FEBD10B500220021A94804E00B003D
:102FD000415C5918491CC9B2435C002BF7D1CB1C8A
:102FE000202B12DA02234354212344186370082350
:102FF000A3704318DA709F4A80235B02401880B2A6
:103000001843106010681840FCD110BD70B5002145
:103010000023974A04E01C00D35CE3185B1CDBB27E
:10302000D45C002CF7D102253524DE1C202E05DAD5
:10303000D554D6187470B070D218D1708E4A1570ED
:1030400054709070D17070BD70B5802149028A4B68
:103050009CB20C43874A002804D0146010680840D2
:103060000AD0FBE798789D78FB262E409E7014606E
:1030700014680C40FCD1987070BD00001CED00E09D
:1030800000E400E00800204014000020F3B58BB0FD
:1030900003A800BF82A11C22FDF792FF684600F042
:1030A000D7F9744C01250BA80078002858D003A844
:1030B0004421817371490A78012313430B704C2119
:1030C000C17220210172B22141745B2101756C49EA
:1030D0008B6B6C4A1E0C964209D1C67D8F273740F8
:1030E000C775C67D1B0170271F403743C7754B6BE3
:1030F0001E0C964209D14679CF2737404771467951
:103100001B0130271F403743477109680B0C93425E
:1031100008D1C27DFC231340C375C27D8907890F86
:103120001143C175C17AFB220A40C27269464A78CE
:1031300012018E781643112E06DDC17D04220A434A
:10314000C275C07DFFF762FF280403A989B201435D
:10315000216021680140FCD1112E01DDFFF732FF13
:10316000164988890028FBD00CA800788D81172289
:103170000A8000224A60002807D060681021626837
:103180000A40102303409A42F9D00BA80078002887
:1031900002D015203C4908703C483D4908600DB0FC
:1031A000F0BD0000C000002004000048180000200E
:1031B0000C0000200400FA050CED00E00C001048A3
:1031C00080B508203349088003210120C043FFF760
:1031D0008DFE03210020C043FFF788FE032100205D
:1031E000FFF784FE03210120FFF780FE0321042066
:1031F000FFF77CFE03210520FFF778FE0021062063
:10320000FFF774FE03210720FFF770FE03210D2056
:10321000FFF76CFE03210E20FFF768FE03210F204D
:10322000FFF764FE03211120FFF760FE0321122047
:10323000FFF75CFE03211320FFF758FE0321142043
:10324000FFF754FE03211520FFF750FE032116203F
:10325000FFF74CFE03211720FFF748FE0121012054
:10326000FFF714FF0C480D49086062B601BD00006D
:103270005C0000200C0000481C00002008002040DA
:10328000B007001055AA00000000C040CCBCECFC08
:10329000140000200400104066000E002000904042
:1032A000023F00023E30023C20023B4C023A400208
:1032B00039B202345B02350B0000000038B50E4D08
:1032C0002C000C3C002811D0022807D00ED2FFF7AA
:1032D000B3F90C2148432818083805E0FFF7ACF98A
:1032E0000C2148432818001F006832BDFFF7A4F9DD
:1032F0000C214843205832BD643C04101CB5040026
:1033000001210120FFF712F92000FFF7D7FF0090FD
:10331000684606210171012181714171FFF792F91F
:103320002000FFF7CBFF0021FFF732FA13BD80B575
:10333000FFF7C4FFFFF746FA01BD704710B5040060
:10334000202000F013FA0128FAD0200000F0F9F94B
:1033500010BD78B585B0040001210920FFF7E6F81B
:10336000FFF76AF91E4980000818001F00680090E6
:10337000FFF762F96D461B4980000818001F0068BE
:1033800028710026AE716E716846FFF75BF9FFF792
:1033900053F9154980000818001F00680090FFF7D6
:1033A0004BF9124980000818001F00682871684610
:1033B000FFF748F90294032002A908714871CE80F2
:1033C0004E7208720120887202A800F0D1F8002025
:1033D00000F002FA012000F0B7F806B070BD00005E
:1033E0007C3C0410803C0410843C0410883C041095
:1033F00070B50024012804D0022802D00020C04368
:1034000070BD002901D1002070BD0D00160004E040
:103410002878FFF793FF6D1C641C3000461E0028BF
:10342000F6D1200070BD70470EB4C0B5020003A8ED
:1034300001900020009001AB0121044878440C3039
:10344000FCF73EFE029906B0084700BF01080000E5
:103450000F21114A13681B090B4043701368194070
:103460008170D268426001210C4B9A4208D10C4A0B
:1034700012680C4B9A4201D1042202E0022200E0C1
:10348000012202704278002A00D141700649098861
:10349000491C8900816070471C00904041A00002D7
:1034A0001C00001044A000F214001040EFF314823E
:1034B000EFF30981002080F31488BFF36F8FF0B51C
:1034C00043464C4655465E466746F8B4164CEFF305
:1034D0000883236006B4154C2068154C2060154CF9
:1034E0002068154C2060154C2068154C2060154C48
:1034F000276800202060BFF34F8F30BF27600A4C41
:10350000246884F3088882B003BCF8BC9846A146BE
:10351000AA46B346BC46F0BC04BC80F3098881F3DC
:103520001488BFF36F8F10470800002004ED00E0FF
:103530002800002024ED00E07C00002000E200E0F4
:10354000800000200800204010B5854C01000AD002
:10355000012803D05F218348FFF7B8FC20680121D0
:103560000143216010BD206801218843206010BD07
:10357000F8B5040020687B4D002802D07A498842C3
:1035800003D393212800FFF7A1FC2079002809D05C
:10359000012807D0022805D0032803D09421280051
:1035A000FFF794FC6079002809D0012807D0022891
:1035B00005D0032803D095212800FFF787FCA079C8
:1035C000002805D0012803D096212800FFF77EFCB3
:1035D000E079002807D0012805D0022803D09721E0
:1035E0002800FFF773FC207A042803DB98212800C9
:1035F000FFF76CFC607A042803DB99212800FFF7B1
:1036000065FCA07A002805D0012803D09A21280063
:10361000FFF75CFC21680125674E68487269D20893
:103620002A4001D1090100E0C900FDF705FDC109EB
:1036300031810904490A401A401C400881B23F29DF
:1036400002DD3F388006800E307360209F21327C7F
:103650000A4023795B0103401343337432781140ED
:1036600062795201104008433070F7200821327C03
:103670000240A379DB0008271F40174337743278D4
:103680001040A279D200114001433170E179002944
:1036900007D1FD20317C0140317431780840307011
:1036A0001CE002200229317C0BD101433174FB2143
:1036B000327C0A40327432781043307030780140E6
:1036C0000BE0014331740421327C0423134333742F
:1036D00032781043307030780143317070693B4963
:1036E0000140207A284040020843706170693849DF
:1036F0000140207A40082840000208437061706948
:1037000034490140607A2840800308437061706941
:103710003F490140607A40080540E8030843706172
:103720001020EF21327C0A40A37A1B01034013438F
:10373000337432781140A27A12011040084330707D
:10374000F1BD10B5040080218900884203DBEF3908
:103750000448FFF7BBFBE005C00D2E49088010BDF3
:1037600030003040E039041041420F0010B5040031
:10377000012C1AD0082C18D0102C16D0202C14D0C4
:10378000402C12D0802C10D0234884420DD02348E6
:1037900084420AD02248844207D02248844204D07E
:1037A000FF2156312048FFF791FB2348002C01D51B
:1037B000006800E0808A03E01C0030400000127ABC
:1037C0000440200000D00120C0B210BDFFFDFFFF6B
:1037D000FFFEFFFFFFBFFFFF10B5040010D0012860
:1037E0000ED002280CD003280AD0042808D00528BF
:1037F00006D0062804D0FF21DA310B48FFF766FB1C
:103800000E480178C7220A40E10038230EE000008C
:10381000FF7FFFFF000030400800008001000080B3
:103820000200008004000080E03904100B401343C4
:10383000037010BD00000000040030403400304030
:10384000686A6C747A4C00007072696E74665F739B
:103850003A20256E20646973616C6C6F7765640033
:103860007072696E74663A2062616420256E206110
:103870007267756D656E74007072696E74665F73E1
:103880003A2062616420257320617267756D656EF0
:1038900074000000000000006E616E004E414E009A
:1038A000696E6600494E460030007047433A5C47F7
:1038B00049545F766F62735C626C75656E726731D6
:1038C0002D73646B5C4C6962726172795C426C75D9
:1038D000654E5247315F5065726970685F44726926
:1038E0007665725C7372635C426C75654E524731EB
:1038F0005F7379734374726C2E630000433A5C47C4
:1039000049545F766F62735C626C75656E72673185
:103910002D73646B5C4C6962726172795C426C7588
:10392000654E5247315F5065726970685F447269D5
:103930007665725C7372635C426C75654E5247319A
:103940005F646D612E630000433A5C4749545F76C3
:103950006F62735C626C75656E7267312D73646B38
:103960005C4C6962726172795C426C75654E52475B
:10397000315F5065726970685F4472697665725C28
:103980007372635C426C75654E5247315F67706954
:103990006F2E6300433A5C4749545F766F62735CF5
:1039A000626C75656E7267312D73646B5C4C696215
:1039B000726172795C426C75654E5247315F506539
:1039C000726970685F4472697665725C7372635C79
:1039D000426C75654E5247315F7370692E6300000B
:1039E000433A5C4749545F766F62735C626C7565FD
:1039F0006E7267312D73646B5C4C696272617279AF
:103A00005C426C75654E5247315F506572697068F3
:103A10005F4472697665725C7372635C426C756553
:103A20004E5247315F756172742E63007047FEE736
:103A30007047704710B5FEF7FFFD084C8000205816
:103A4000FEF740FF012808D1FEF7F6FD8000205860
:103A5000FEF72CFF01200249087010BD983C0410AD
:103A60008800002080B5FEF7D7FC01BD80B5FEF7C9
:103A7000FFFB01BD433A5C4749545F766F62735C5C
:103A8000626C75656E7267312D73646B5C4C696234
:103A9000726172795C426C75654E5247315F506558
:103AA000726970685F4472697665725C7372635C98
:103AB0006D6973632E63000070B40123002413E06A
:103AC0000168001D194202D04D466D1E49190C6057
:103AD000091D121F042AFAD20D00960701D50C8089
:103AE000AD1C1A4000D02C700268001D002AE7D1DE
:103AF00070BC704730B501684118446862088A1884
:103B00008368E40704D54C461B1901E0641C06D108
:103B100091420BD00C7864B2491C0D78491C1D7081
:103B20005B1C002CF2D4641EF7D5F1E70C3030BDDD
:103B30004143435F582C204143435F592C2041436C
:103B4000435F5A2C204759525F582C204759525FE7
:103B5000592C204759525F5A0D0A000010B50749E9
:103B600079441831064C7C44163404E0081D0A6878
:103B7000891888470100A142F8D110BD0800000053
:103B80007C00000035FFFFFF04000000080000205B
:103B9000040000000C0000200400000014000020BD
:103BA0000400000018000020080000001C00002095
:103BB0000400000030000020080000002400002065
:103BC000300000005C0000200000000029FFFFFF23
:103BD0001701000014000000C000002019FFFFFFC3
:103BE000110100000A0000001000002009FFFFFF83
:103BF000B00000008E000000CC020020FFF790F91A
:103C0000002801D0FFF7AAFF00BF00BF002000BFBF
:103C100000BFFFF709F900F000F880B500F002F8E6
:103C200001BD704707463846FDF77EFCFBE780B5CF
:103C30006946087001220120FFF7DAFB012802D152
:103C40006846007802BD0020C04302BD38B50500BB
:103C50000C002000FFF7EBFFA04200D00025280059
:103C600032BD000040000000800000000040000065
:103C700000BF00BF00BF00BFFFF7C0FF0001000092
:103C80000100000000080000010000000200000028
:103C90000400000008000000010000000010000007
:103CA0003F3D150410211A0410891A0410351A0416
:103CB00010D51B0410751B0410D51C0410651D04C1
:103CC00010111E0410691E0410B31E04101D1F04E1
:103CD00010C51F041069200410E520041069210498
:103CE00010E8000001F5008100810081008100F0F2
:063CF000000300000410B7
:0400000510043C7136
:00000001FF
