:020000041004E6
:1000000000600020ED3E0410A93C0410AB3C04103D
:10001000AA5555AA45554C420000000000000000BA
:10002000000000000000000000000000AD3C0410D3
:1000300000000000000000004F0F0410AF3C04104F
:10004000B13C0410A70F04100000000000000000E5
:10005000BF0F0410E13C04100F100410BF2B04105C
:100060000000000000000000000000000000000090
:1000700000000000B7350410A3360410273B04101D
:10008000000000005F110410231504102715041050
:100090008B250410B32504109F3E0410E93C041086
:1000A0000000000000000000000000000000000050
:1000B0000000000000000000000000000000000040
:1000C000FDB5B4B03C98049102A93B2288540020AD
:1000D0000D9028A8401C27900DE00498349A904772
:1000E0000490002801D100F042FE0D98401C0D90B4
:1000F0003598401C359035980178002910D0252975
:10010000EBD100200790089009900A900B900C907A
:10011000002102240120129008200190359D05E065
:100120000D9800F026FE0800129901436D1C2878F6
:100130002028F8D023280BD02B2804D02D2804D039
:10014000302808D00AE02143F0E708000421ECE75A
:1001500008000821E9E708001021E6E72A280FD166
:10016000369802681068121D369B1A600F9000289E
:1001700004D542420F920800042101436D1C12E095
:1001800000200F90624A09E00F9B934205DA9E001F
:10019000F3185B00181830380F906D1C2878030096
:1001A000303B0A2BF0D328782E2803D00020C04300
:1001B0000E9027E06D1C28782A2808D13698006810
:1001C0000268001D369B18600E926D1C1AE02D28E7
:1001D00002D12D226D1C00E0002200200E900CE0C8
:1001E000002A09D10E9B4A4EB34205DA9E00F3184D
:1001F0005B00181830380E906D1C28780300303BD7
:100200000A2BEDD302A801872E7831003E487844AE
:10021000FF30093800F092FE002801D06D1C00E08C
:10022000002602A83A214654405C682804D1287868
:1002300068280BD1622005E06C2807D128786C284B
:1002400004D1712002A93A2288546D1C16A8069088
:10025000287869460870681C359068460278100056
:1002600025382DD02038022800D800E2133801D1DB
:1002700000F0A1FC0B3801D100F03AFD401E01D185
:1002800000F0E7FC401E022800D8F0E1001F01D179
:1002900000F0DFFC401F00D148E1401E01D100F01A
:1002A0008AFC401E00D1EBE0C01E10D0801E01D1A0
:1002B00000F081FCC01E01D100F07DFC00F023FDA8
:1002C000252016A908701298079000F027FD36988F
:1002D00000680468001D369908600594002C00D061
:1002E000BAE002A83B21405C002800D1ADE0002428
:1002F000E44306487844143000F02AFE201A01D066
:1003000000F035FD00F00AFDB4370000E8370000CA
:10031000CBCCCC0C641E01D000F01FFD3495079DA2
:1003200016AC002D0FD0349E227802A9300000F0C8
:10033000D9FD002802D4641C6D1EF5D13496002826
:1003400001D000F014FD3020694608700A9C002C92
:100350000DDD349D01236A4602A9280000F0D3FD7B
:10036000002801D000F003FD641EF3D13495059CF4
:10037000089D002D0FD0349E227802A9300000F095
:10038000B1FD002802D4641C6D1EF5D134960028FE
:1003900001D000F0ECFC302769460F700B9C002C5C
:1003A0000DDD349D01236A4602A9280000F0ABFD53
:1003B000002801D000F0DBFC641EF3D134950598D1
:1003C00008994418099D002D0FD0349E227802A967
:1003D000300000F087FD002802D4641C6D1EF5D1AA
:1003E0003496002801D000F0C2FC684607700C9CCF
:1003F000002C0DDD349D01236A4602A9280000F07F
:1004000082FD002801D000F0B2FC641EF3D13495C7
:1004100002A83821405C400700D46CE620206946E1
:1004200008700198002800DC65E6019C349D0123DA
:100430006A4602A9280000F066FD002801D000F0FD
:1004400096FC641EF3D1349555E63E487844FF305F
:100450000B38059000F062FC0E9D002D03D52000A6
:1004600000F09AFD09E02A000021200000F09CFD28
:10047000002801D0001B00E02800089000F04EFC8E
:10048000369800680268001D369908600020C04355
:100490000021104002AA03C216A80590069A3C2328
:1004A00002A803C8002904D1002802D10E9C002C08
:1004B00013D05B1E05072D0F3035EEB23A2E00DB50
:1004C0002735D55400090C072043090901D100281C
:1004D00003D0059CD518AC42EBD33C20C01A089041
:1004E000D11805910E99884208DA081A0A9002A8D4
:1004F000018FBD4A0A40028700F010FC002901D498
:1005000000F00CFC02A93822895C14220A40102A4F
:1005100001D000F003FC0F99079A891A0A9A891AE8
:10052000081A002801DC00F0F9FB42E302A83B2195
:10053000415C002908D00024E44349487844FF3056
:100540002130D9E6CC3500003A21405C622868D0E1
:10055000682819D06A2844D06C2806D071284ED05B
:10056000742830D07A2820D06CE036980068016872
:10057000001D369A1060002976D10024E4433948E2
:100580007844FF301F38B7E6369800680168001DD0
:10059000369A1060002905D10024E443314878449C
:1005A000C230A9E60D980880B8E336980068016863
:1005B000001D369A1060002956D10024E4432948D2
:1005C0007844A03098E6369800680168001D369A95
:1005D0001060002948D10024E44322487844843044
:1005E0008AE6369800680268001D36990860002A7D
:1005F00013D10024E4431B48784468307CE63698E5
:1006000000680268001D36990860002A05D10024A0
:10061000E443144878444C306EE60D98C11703C289
:100620007CE3369800680168001D369A1060002946
:1006300005D10024E4430B48784428305CE60D984B
:1006400008706BE3369800680168001D369A1060E8
:10065000002909D10024E44302487844801D4BE678
:1006600064340000783400000D98086056E3369832
:100670000368DB1D072083433698036003CB369D58
:100680002B6002AB03C3C80F02D007982D210AE0EC
:1006900002A8008F204202D007982B2103E0C00758
:1006A00005D50798202116AB1954401C079016A8B1
:1006B00007994318059328AC02A803C814AD03C5D5
:1006C0000E98002801D5062007E007D1684600787B
:1006D00020210143672901D112980E9002A803C876
:1006E000080041004915491C10D100030ED0032019
:1006F0000890613A1A2A04D23C497944FF311139F1
:1007000015E03B497944FF31173910E002A803C8CE
:10071000080041004915491C0ED100030CD10320EB
:100720000890613A1A2A16D332497944C631032215
:10073000180000F05FFCF1E202A8C0C885A003C861
:100740003940002280235B03994208D2002079407F
:1007500032AB03C313E0284979449C31E7E7774B78
:100760003B40774F1F4332AAC0C2080D75A20CCA86
:10077000101876494843764900F04AFC020032A836
:1007800003C802AB03C302A803C872A6C0CE0640CA
:100790000F4003D1002E01D10025B8E014A830C8C5
:1007A0006D006D0825920720801A05DD02002000EB
:1007B000290000F070FB0AE042420020674900F087
:1007C0006AFB02000B002000290000F050FC2022F0
:1007D0006B461B781A436B465A706A465278662AF3
:1007E0000CD1259A0A320AE0EFFF000028330000FE
:1007F000283300002C3300002433000006220E9B17
:100800009A18142A00DD142228AB30241C705C1CBA
:1008100002E014A803C8139A002A3CDD14AB03C3FA
:10082000139214A803C800F083FC269006460834EF
:10083000042530000A2100F0FFFB0F0030000A21E0
:1008400000F0FAFB06003037601E077030000A2106
:1008500000F0F2FB0F0030000A2100F0EDFB060073
:10086000A41E303727706D1EE3D108341398083862
:1008700013900028CDDD269800F072FC02000B00DA
:1008800014A803C800F0D9FC0022354B00F04CFD41
:1008900014AA03C2C5E72798201A28A94C1C259D35
:1008A00002E0401E6D1E641C21783029F9D0694693
:1008B0004978662901D1691C06E0694649786529AD
:1008C00001D1129900E000210E9A5618B04200DAC8
:1008D000461E002E1BD4864204DAA05D342801DDBA
:1008E000392000E030203100621E521801E0761EEF
:1008F000521E491E13788342F9D0392802D1605C18
:10090000401C6054002902D5641E761C6D1C68468C
:100910000078694648700E9F30B2002803DC129EB2
:10092000054C7C44123468464178202008436628F0
:1009300018D16D1C2EE000BFEC310000FFFF0F80CE
:100940000000E03F02FCFFFFFFFFFFFF9775000084
:10095000A0860100FFFFFFFFFFFFFF7F0000F03FC9
:1009600084D7974167285CD128B20321C9438842C4
:1009700041DBB8423FDA6D1C02A8008F0199C0B27A
:10098000084203D130B2B84200DA070028B23F1A59
:1009900000D5002728B2002800DDA8E00898411CF7
:1009A00008913021059A1154002F05DC02A8008F10
:1009B0000199C0B2084205D00898411C08912E2127
:1009C000059A115428B241428F4200DA7D422DB27D
:1009D00068420B907D1930B2854200DA2E0036B2A3
:1009E0000996320021000598089BC01800F002FB10
:1009F000A81B0C90C7E030B2B84206DA02A9098FF2
:100A0000019AC9B2114200D107007F1E00D500270C
:100A100068464078672801D1652000E04520694696
:100A200048700898411C08912178059A1154611C5E
:100A3000002F05DC02A8008F019AC0B2104218D026
:100A40000898421C08922E22059B1A54002F10DD94
:100A5000741E20B2874200DA3C0022B20598089B3F
:100A6000C01800F0C7FA24B2089800190890381B83
:100A70000B9005980899401869464978017029B289
:100A8000002903D42B214170861C03E02D224270E3
:100A9000861C4D42002412A928000D0005E00A2101
:100AA00000F0B6FA2970641C6D1C00B20028F6DC58
:100AB000012C08DC6846407820210143652902D1D9
:100AC00030203070761C002C09D130203070761C1C
:100AD00007E0641E12A8005D30303070761C002CD8
:100AE000F7DC059808994018301A09904BE030B2AD
:100AF00029B288421DDA32B221000598089BC0183D
:100B000000F078FA36B20898801908902DB2A91B27
:100B10000B91002F05DC02A9098F019AC9B211427D
:100B200005D02E21059A11540998401C09900C9764
:100B300029E02AB221000598089BC01800F05AFA53
:100B400028B2089909180891751B002F05DC02AA24
:100B5000128F019BD2B21A4204D04A1C08922E2254
:100B6000059B5A5429B28F4200DA3D002AB221185F
:100B70000598089BC01800F03DFA2DB2089840195E
:100B80000890781B0B9002A83821405C142101408A
:100B9000102900D0C2E00798089940180B99401816
:100BA000099940180C9940180F99884200DBB5E06C
:100BB000081A0A90B2E002AA3A20105C622808D013
:100BC00068280ED06A2814D06C281DD0712810D047
:100BD0001AE0369801680868091D369B1960C0B292
:100BE00018E0369801680868091D369B196080B2C4
:100BF00010E036980368DB1D0720834336980360B6
:100C000003CB369C236006E0369801680868091D0E
:100C1000369B1960002102AB03C3108F0199C0B24B
:100C200008425BD002A803C8002901D1002855D092
:100C3000684600782021014378294FD1079816A9EA
:100C400030220A54401C421C07926A4612780A5409
:100C500044E002AA3A20105C622808D068280ED02E
:100C60006A2814D06C281DD0712810D01AE036984C
:100C700001680868091D369B196040B218E0369873
:100C800001680868091D369B196000B210E03698AB
:100C90000368DB1D072083433698036003CB369D32
:100CA0002B6006E0369801680868091D369B1960BC
:100CB000C11702AB03C3002902DA07982D2109E00E
:100CC000108F204202D007982B2103E0C00705D5E2
:100CD0000798202116AA1154401C079016A80799BE
:100CE000401805906846017802A800F044F815E025
:100CF00012980790369800680168001D369A1060B7
:100D000016A801700AE0252016A90870129807900D
:100D100068460078002801D04A7007940F98079918
:100D2000401A0A99401A0899401A0B99401A0999D1
:100D3000401A0C99401A019002A83821405C4007E3
:100D400001D5FFF7ECFA20206946087001980028C9
:100D500001DCFFF7E4FA019C349D01236A4602A9F5
:100D6000280000F0D0F8002801D1FFF7D3FA0020C6
:100D7000C04337B0F0BDF2B586B0040025696F29D5
:100D800001D1082707E0084620210143782901D036
:100D90000A2700E010273C2603CC083C04AA03C223
:100DA0006A46127E642A03D06A46127E692A09D1F5
:100DB000002907DA04A803C800220023121A8B4175
:100DC00004A80CC004A803C800290DD100280BD129
:100DD000206B002808D1082F3BD13820205C000769
:100DE00037D53B26302033E00294009504A830C864
:100DF000761E0196200029003A00FB1700F056FBF2
:100E00003032D0B23A2803DB6846007E51381218DF
:100E100000988255200029003A00FB1700F046FB9D
:100E200004000D0001D1002C05D00298C068009983
:100E300089198842DCD3029C009D082F09D13820F3
:100E4000205C000705D5A85D302802D0761E302032
:100E5000A8553C20801BA061A919E160216B884244
:100E600006DA081A2062208F1C490140218710E011
:100E700000290ED53821615C14220A40102A08D1BD
:100E8000616B6269891A226A891A081A002800DDD2
:100E9000206207B0F0BDF8B50026114F04000D0028
:100EA000009214E0C00707D532003B002000290063
:100EB00000F03AFA04000D00009840100090300055
:100EC000390032003B0000F02FFA06000F000098B6
:100ED0000028E7D120002900F4BD0000EFFF00004A
:100EE0000000244010B503000C001100A0689847D2
:100EF000A060002804D0E06A401CE062002010BD21
:100F00000020C04310BDF8B50024002B11D007000D
:100F10000E0014001D002178B068B847B0600028AA
:100F200009D0F06A401CF0620020641C6D1EF2D1F2
:100F300004002000F2BD0020C043F9E7C9B20278E6
:100F40008A4203D0401C002AF9D100207047704724
:100F500080B5002801D100BF07A006490B68002B0F
:100F600003D022220021984701E000F0D4FA222089
:100F700002BD000084000020636F6E7374726169AB
:100F80006E742068616E646C65723A2062616420E0
:100F90006D65737361676500431C0178401C0942ED
:100FA000FBD1C01A70477047C9B2521E05D30378EF
:100FB000401C8B42F9D1401E70470020704770479B
:100FC00070B4103A03D378C9103A78C0FBD25307F3
:100FD00001D318C918C001D508C908C0D20704D365
:100FE0000B880380891C801C002A01D50B780370B4
:100FF00070BC70478B0701D18307E1D0124205D046
:101000000B78491C0370401C521EF9D17047704781
:10101000CA0F00D0494203105A400DD004B500D386
:10102000404200F009F8009AD20701D34942124227
:1010300000D5404204BD0000094214D088420FD3BD
:101040000122030C01D100041204002300185B41AB
:101050008B4200D35B1A5241F8D31900100070473D
:1010600001000020704708B500F05AFA08BDF0B43E
:101070000E005E400125ED072E40B446AE0ADF1893
:101080004C18F4423BD2F74241D2640D43D07F0D5D
:1010900038D0E41BC902DB0229432B43CF0ADB0A09
:1010A0000600B61A9F4104D2641EB6197F41B618D5
:1010B0005F416812800D24180018844222DAE80C7F
:1010C0000021B6197F41B61A9F4102D2B6185F417E
:1010D0003F1C40414941F4D3241C21DD2405B619AD
:1010E0007F41B61A9F4105D33743C60737430026D1
:1010F000012F7041614166463143F0BC7047FCD11D
:10110000F74205D20020C14349054908F3E704D05E
:101110000020C143F1E77F0DFAD000206146ECE7E3
:101120002442FAD1401C61410F03F6D30020E2E7CC
:101130004A1812D2400DC90208430121C9070843C9
:10114000520D40210901521A521C06D452421F323C
:1011500001D4D0407047C0177047002070477047D7
:10116000010042221201D21E004207D002D4521EB8
:101170000018FCD5C10A4005120589187047000007
:101180008B4200D1824205D98446100062468C46CB
:1011900019006346DF184C18640D7F0D3AD0661CA9
:1011A000760537D0E61B352E34DCDB022B43DB0A19
:1011B0000C0DC9022943C912202E0DDB1700203E59
:1011C00006D01F00F741F3405F400026012A774117
:1011D000C01871410DD217E01700F741F240574097
:1011E000F3415A40B340F3405A4000268018594119
:1011F0000AD3A21C52050FD0C207012F724117005B
:101200004008CB0718434908641C24054208AF4135
:1012100070416141F0BC7047641C21050020F9E772
:101220006B4010E06B40ABE7F742F3D1E943F1E7E5
:101230002442EFD100200021ECE7F0B40125ED07B6
:101240000F005F40EED40C00871A9C4105D2C01BF2
:10125000A141D219634169406B40AE0ADF184C18B6
:10126000F442E1D2640D7F0DE2D0E61B362ED1DCD4
:10127000DB022B43DB0AA4460C0DC9022943C90A31
:10128000012E28DC04D1D6075208DF073A435B0859
:10129000EF0A76429041994114D039423BD1B619B8
:1012A00040414941761C394204D1761C001849411D
:1012B0003942FAD0B9436746B74208D9A41B24057E
:1012C0002143A7E70042EAD13642E8D1A2E7E40A87
:1012D000E10700209EE7202E0BDD203E1F00F3409B
:1012E000F7415F40012A002257417E4298419141D7
:1012F0000BE01700F741F2405740F3415A40B3402A
:10130000F3405A407E42904199410A0303D2641E41
:10131000B619404149410027641E24054208AE41E8
:1013200078416141F0BC7047F0B50E005E40012588
:10133000ED072E40B446AE0ADF184C18F44208D22E
:10134000F7420ED2640D01D07F0D12D1002061460C
:10135000F0BD05D1F74201D87F0D05D10020C14372
:10136000F0BDFBD1640DF9D00020C1434905490807
:101370008FE0E419C902DB0229432B43DB0A460D47
:10138000C00231438E4630B487B295B27D432E0CF5
:10139000ADB2140C7C43A419260C240425439CB242
:1013A0007C43A419190C7943270CC919A4B20F0462
:1013B0003C43090C000C97B247432E0CBE19354331
:1013C000ADB2170C4743360CBF19A6B2BF193E0485
:1013D0003543240C3E0C36199FB24743BF19BCB2AB
:1013E0003E0C89191F0C47437F183E043443390CC7
:1013F000704680B297B247432E0CBE193543ADB24A
:10140000170C4743360CBF19A6B2BF193E0435432B
:10141000240C3E0C36199FB24743BF19BCB23E0C98
:1014200089191F0C47437F183E043443390C774613
:101430003F0C90B278432E0C80190604ADB22E43B7
:10144000050CA0B22D18120C7A435019020C80B270
:10145000240CA4189AB27A43121914042043120CD3
:1014600089181B0C7B43C91830BCEF0A394203D1E1
:10147000B61940414941641E6F12BF0DE41B0BDBDE
:10148000FF19BC4211DA240500274208AE41784119
:10149000614166463143F0BD641C05D1401C614189
:1014A000CF0201D34908F4E750E75DE7124224D0A8
:1014B000994228D970B500251B4202D00C000021AA
:1014C00009E00024012649186441944200D3A41A7B
:1014D0007641F8D33100012601E0764109D20018A7
:1014E00064416D41A41A9D41F7D2A4185D41B6191B
:1014F000F5D3300022002B0070BD1B42D8D108B5B7
:1015000000F010F808BD01D19042D3D202000B00C8
:1015100000210020704780B5012000F005F801BDD2
:10152000704770477047704780B500BF00BF024AE0
:1015300011001820ABBEFBE72600020078B589B089
:101540000400002568460570B94800F091FE0028A7
:101550003CD101220F21684600F010FF002835D150
:10156000684600786928F4D1052069460870012290
:101570001221684600F040FF002827D101221221E5
:10158000684600F0FBFE002820D168460078042859
:10159000F4D16846457001221221401C00F0EEFE95
:1015A000002813D168464078042101436846417001
:1015B00001221221401C00F01FFF002806D1012249
:1015C0000A2100A8401C00F0D9FE002800D0E1E16B
:1015D00068464078802108406946487001220A2107
:1015E00000A8401C00F008FF00286FD1019420786B
:1015F00000F0B0FF69464D708021090400F0C6FF7D
:1016000001D200242AE0A54900F0C0FF01D2102435
:1016100024E0A34900F0BAFF01D220241EE0A14932
:1016200000F0B4FF01D2302418E09F4900F0AEFF73
:1016300001D2402412E09D4900F0A8FF01D25024BD
:101640000CE09B4900F0A2FF01D2602406E099491A
:1016500000F09CFF01D2702400E0802401221121BF
:1016600000A8401C00F08AFE00282FD16846407870
:101670000007000F04436846447001221121401CFA
:1016800000F0BAFE002821D10198407800F062FFF6
:1016900002900024684645700298874900F076FF62
:1016A00015D20122112100A8401C00F067FE00287D
:1016B0000CD16846407802210143684641700122FE
:1016C0001121401C00F098FE00283DD062E101226B
:1016D000112100A8401C00F051FE0028F6D16846F8
:1016E0004078FD2101406846417001221121401CD3
:1016F00000F082FE0028E9D10298C14900F046FFBF
:101700000CD3C04900F042FF01D2042406E0BE49D8
:1017100000F03CFF01D2082400E00C24012211213A
:1017200000A8401C00F02AFE0028CFD1684640786F
:10173000F32101400C436846447001221121401CF2
:1017400000F05AFE0028C1D1019800790199C978AA
:101750006A46557000245580019A9278002A00D07C
:101760000824002902D010216A46D170002802D036
:101770002020694688700122192100A8401C00F031
:10178000FDFD0028A2D168464078F72101400C43B6
:10179000EF2020406946C9780143DF2008406946B0
:1017A000897801436846417001221921401C00F0EC
:1017B00023FE00288AD10198407900F0CBFE6946CB
:1017C0004D708021090400F0E1FE01D2002438E0D0
:1017D000324900F0DBFE01D2102432E0304900F043
:1017E000D5FE01D220242CE02E4900F0CFFE01D2FC
:1017F000302426E02C4900F0C9FE01D2402420E02C
:101800002A4900F0C3FE01D250241AE0284900F012
:10181000BDFE01D2602414E0264900F0B7FE01D2DB
:1018200070240EE0794900F0B1FE03D2802408E074
:1018300000127A00764900F0A9FE01D2902400E05F
:10184000A0240122102100A8401C00F097FD0028D0
:101850003CD1684640780007000F04436846447056
:1018600001221021401C00F0C7FD00282ED1019854
:10187000807900F06FFE002469464D70BA4900F08F
:1018800085FE1CD3B94900F081FE01D2082416E080
:10189000B74900F07BFE11D20C2410E0010050414A
:1018A0000100D041010050420100D04201005043EC
:1018B0000100D043014050440100FA4204240122B7
:1018C000102100A8401C00F059FD002862D1684694
:1018D0004078F32101400C436846447001221021F6
:1018E000401C00F089FD002854D10198407A0199EC
:1018F000097A6A46557000260024019AD279002A96
:1019000000D00826002900D01024002800D020256F
:101910000122182100A8401C00F030FD002839D118
:1019200068464078F72101400E43EF2030400443E1
:10193000DF20204005436846457001221821401CE5
:1019400000F05AFD002825D101220D21684600F043
:1019500015FD00281ED16846007803210143684622
:10196000017001220D2100F047FD002812D1012253
:101970001A21684600F002FD00280BD16846007865
:10198000802101436846017001221A2100F034FDD4
:10199000002801D0012031E00121012000F00AFEE1
:1019A0001CA003C804AA03C200F08AFEC84C800031
:1019B0002058049004A800F089FE00BF17A000681A
:1019C000039003A801F028F806A80C2101F070F894
:1019D00000F076FE80002058069006A800F04AFF2E
:1019E00000F06EFE8000205800F0A4FF00F068FEBA
:1019F00001218000205800F07FFF00200AB070BD58
:101A0000010075430100FA4301007A440180CF448C
:101A1000012050450000000000000000000301000C
:101A200080B5002801D1012002BD01220F2100F064
:101A3000A5FC02BD38B5050002220021684601F070
:101A40003FF802222821684600F098FC002818D1AF
:101A50006C466078000221784018288002222A21F2
:101A6000684600F08BFC00280BD1607800022178DA
:101A70004018688002222C21684600F07FFC002874
:101A800001D0012032BD9EE0FEB5050000240222F7
:101A9000002100A8801C01F013F80222282100A8D0
:101AA000801C00F06BFC002824D100AEB61C7078BE
:101AB00000023178471802222A2100A8801C00F079
:101AC0005DFC002816D17078000231784018694614
:101AD000888002222C2100A8801C00F04FFC0028E6
:101AE00008D16946087001221021684600F046FCC2
:101AF000002801D00120FEBD684600780C2101407D
:101B00000CD0042904D0082906D00C2902D006E004
:101B1000904C04E0904C02E0904C00E0904C38B2C5
:101B200000F028FD0100200000F0D4FF01F02AF8A9
:101B30002860019800B200F01DFD0100200000F0B7
:101B4000C9FF01F01FF86860707800023178401812
:101B500000B200F00FFD0100200000F0BBFF01F01B
:101B600011F8A8600020FEBD010000400100804087
:101B70000100004138B5050002220021684600F04E
:101B80009FFF02222221684600F0F8FB002818D1AE
:101B90006C466078000221784018288002222421B7
:101BA000684600F0EBFB00280BD16078000221783A
:101BB0004018688002222621684600F0DFFB0028DA
:101BC00001D0012032BD6078000221784018A88041
:101BD000002032BDF8B5060000240222002168462C
:101BE00000F06EFF02222221684600F0C7FB0028A9
:101BF0006BD16D46687800022978471802222421AB
:101C0000684600F0BBFB00285FD1687800022978A5
:101C100040186946488002222621684600F0AEFB43
:101C2000002852D1687800022978451869460C705E
:101C300001221121684600F0A1FB002845D1684629
:101C4000007802210840694608706846007802283A
:101C500001D1814C18E001221121684600F08EFB71
:101C6000002832D1684600780C2101400BD00429AD
:101C700007D0082903D00C2906D1784C04E0784C11
:101C800002E0784C00E0A04C38B200F073FC010098
:101C9000200000F01FFF00F075FF30600098001476
:101CA00000F068FC0100200000F014FF00F06AFF63
:101CB000706028B200F05EFC0100200000F00AFF16
:101CC00000F060FFB0600020F2BD0120F2BD000016
:101CD000143F04101CB5040000206946087001225E
:101CE0001021684600F04AFB002801D0012016BDF3
:101CF00068460078F021014014D0102914D0202922
:101D000014D0302914D0402914D0502914D060297F
:101D100014D0702914D0802914D0902914D0A0296F
:101D200014D015E0002012E0784810E078480EE06A
:101D300078480CE078480AE0944808E0944806E0C7
:101D4000944804E0944802E0944800E094482060FD
:101D5000002016BD23DBF93E23DB793E23DBF93D72
:101D600023DB793D1CB5002469460C7080210904F1
:101D700000F00CFC36D38B4900F008FC01D2102493
:101D800030E0894900F002FC01D220242AE0874992
:101D900000F0FCFB01D2302424E0854900F0F6FB82
:101DA00001D240241EE0834900F0F0FB01D2502410
:101DB00018E0814900F0EAFB01D2602412E07F497B
:101DC00000F0E4FB01D270240CE07D4900F0DEFB62
:101DD00001D2802406E0A04900F0D8FB01D2902473
:101DE00000E0A02401221021684600F0C7FA002874
:101DF0000CD1684600780007000F04436846047061
:101E00000122102100F0F8FA002800D0012016BDB0
:101E10001CB50400002069460870012210216846A4
:101E200000F0ACFA002801D0012016BD6846007809
:101E30000C21014006D004290AD0082904D00C291D
:101E400004D007E0854804E0854802E0854800E0CA
:101E5000A1482060002016BD00008C4000008C428C
:101E600000000C4200008C411CB5040000206946B3
:101E7000087001221021684600F080FA002801D085
:101E8000012016BD684600780C21014006D00429C7
:101E90000AD0082904D00C2904D008E0802004E0EE
:101EA000812002E0822000E08320C0052060002025
:101EB00016BD1CB5002469460C70884900F066FB0D
:101EC0000CD3874900F062FB01D2082406E0A14947
:101ED00000F05CFB01D20C2400E00424012210215C
:101EE000684600F04BFA00280CD168460078F321D0
:101EF00001400C43684604700122102100F07CFA76
:101F0000002800D0012016BD00000C410000504107
:101F10000000D041000050420000D0421CB5040037
:101F200000206946087001221121684600F026FA57
:101F3000002801D0012016BD68460078F02101403C
:101F400010D0102910D0202910D0302910D04029CD
:101F500010D0502910D0602910D0702910D08029BD
:101F600010D011E000200EE07B480CE07B480AE036
:101F70007B4808E07B4806E0044804E0044802E0AF
:101F8000044800E004482060002016BD00005043D3
:101F90000000D043004050440080CF440020504512
:101FA0000020D045010050410100D04101005042C5
:101FB0000100D042010050430100D0430140504491
:101FC0000180CF441CB5002469460C7080210904AF
:101FD00000F0DCFA2AD3914900F0D8FA01D210249B
:101FE00024E08F4900F0D2FA01D220241EE08D496E
:101FF00000F0CCFA01D2302418E08B4900F0C6FA88
:1020000001D2402412E0894900F0C0FA01D25024E4
:102010000CE0874900F0BAFA01D2602406E0854955
:1020200000F0B4FA01D2702400E0802401221121D2
:10203000684600F0A3F900280CD168460078000734
:10204000000F0443684604700122112100F0D4F906
:10205000002800D0012016BD0120504523DB793D2A
:1020600023DBF93D23DB793E1CB5040000206946E3
:10207000087001221121684600F080F9002812D171
:102080006846007802210840694608706846007872
:10209000022801D168481BE001221121684600F0A6
:1020A0006DF9002801D0012016BD684600780C218A
:1020B000014006D0042906D0082906D00C2906D0F4
:1020C00007E05E4804E05E4802E05E4800E05E48EB
:1020D0002060002016BD000023DBF93E0100004017
:1020E000010080401CB504000020694608700122F0
:1020F0001121684600F042F9002812D168460078A4
:10210000022108406946087068460078022801D11B
:102110004E481BE001221121684600F02FF90028EB
:1021200001D0012016BD684600780C21014006D080
:10213000042906D0082906D00C2906D007E0444817
:1021400004E0444802E0444800E0444820600020A5
:1021500016BD000001000041000050410000D041C8
:10216000000050420000D04238B505000024684607
:10217000047028003A4900F009FA14D20122112112
:10218000684600F0FBF8002846D168460078022136
:102190000143684601700122112100F02DF9002849
:1021A0003AD1002032BD01221121684600F0E6F844
:1021B000002831D168460078FD2101406846017051
:1021C0000122112100F018F9002825D12800254905
:1021D00000F0DCF90CD3244900F0D8F901D2042432
:1021E00006E0224900F0D2F901D2082400E00C24D4
:1021F00001221121684600F0C1F800280CD1684680
:102200000078F32101400C4368460470012211213B
:1022100000F0F2F80028C4D0012032BD0100504186
:102220000100D041010050420100D0420100504362
:102230000100D0430140504400008C4000000C419C
:1022400000008C4100000C4200008C420000FA4269
:10225000000075430000FA4300007A440000FA448D
:102260000100FA42010075430100FA4301007A447B
:10227000F8B590B007000121874800F09BF9684647
:1022800000F0ACFA00F01CFA040000F019FA0500A6
:1022900000F016FA3849A2008958564AAB00D258C5
:1022A0000A43534980000858104300906D460420AB
:1022B00028710120A87100246C71684600F006FAAC
:1022C00000F0FEF9734E800030580090062028710F
:1022D000684600F0FBF900F0F3F98000305800F098
:1022E00083FA03A800F0DFFC03A804700721417003
:1022F0004480049700F08AFC002000F05BFD00F0B1
:1023000049FD00F03DFD654F0597654E069610208E
:1023100007900A250895099480200A900B940C9444
:102320000D9440010E900F9405A95E4800F094FDB5
:10233000059730000C300690079408955A4C05A973
:10234000200000F089FD01220221200000F03AFE69
:102350000121052000F050FD02A817210170012184
:102360004170817000F058FB012000F0A6FC0020B5
:1023700011B0F0BD00000000083F0410F8B50700E0
:102380000C001600002000F015FD454D8020204374
:1023900028700024002004E0FF21C2B2AA18517066
:1023A000401CC1B2B142F7D3287E0028FCD02C7665
:1023B00000F086F9644980000818001F006800F0EA
:1023C0001FFA711C614881614160012102680A4362
:1023D0000260426911434161287E0028FCD003E07D
:1023E0002819407B3855641CB442F9DB0020F2BD4B
:1023F0000C3F0410103F041070B504000D001600CF
:10240000002000F0D7FC264805700021002203E0E0
:10241000A35C85186B70521CB242F9DB027E002A65
:10242000FCD0017600F04CF9474980000818001FE5
:10243000006800F0E5F9761C444886614660012199
:1024400002680A430260426911434161002070BD85
:1024500010B58024A402200000F0F6FD002817D05B
:10246000200000F009FE10480121C94342690A40DA
:10247000426102681140016000F022F93249800097
:102480000818001F006800F0AFF901200449087621
:1024900010BD0000043F041011000100080040407E
:1024A0000C0300206C0000A0580000A038B5284C98
:1024B0000125042000F04AFC012813D1607E002889
:1024C00002D100F02FFC06E000F02CFC216A627EB5
:1024D0008918491E0870607EA17E814200D1257650
:1024E000401C6076082000F031FC01282AD1E08BE6
:1024F00000281FD0E17E227F012A04D1002020770E
:102500008020084313E0022A03D10320207708002B
:102510000DE0401E032AE08308D1206A617E405C02
:1025200000F0FDFB607E401C607631BDFF2000F0B6
:10253000F6FB31BD0021082000F0D3FB207F0328EB
:1025400000D1257631BD0000083F0410580000A0DE
:102550000C0300209D2102000AD002D4491E9218CB
:10256000FCD5C905100A1206524100D3012A484180
:10257000704700009D210200EED55242F446FFF75D
:10258000EBFF0122D2071043604770470CB40122D1
:1025900012060318DA4207D84B18DA4204D80200B0
:1025A0000A43921802D288420CBC7047FCD0814288
:1025B000FAE7704770B504000D003A4E3A482040E3
:1025C00003D18721300000F0BFFD2800344D010009
:1025D00005D0012807D08821300000F0B5FD28681B
:1025E000A043286070BD286804432C6070BD2F484C
:1025F00002782F4801880020002A44D109220A408D
:10260000092A00D1202011220A40112A02D10200F9
:102610004020104321220A40212A02D102008020BA
:10262000104341220A40412A03D102008020400089
:10263000104381220A40812A03D1020080208000B9
:102640001043FF22921C13000B40934203D102005F
:102650008020C0001043174A13000B40934203D15F
:10266000020080200001104305220A40052A02D101
:102670000200102010438907890F03290ED10100A1
:10268000082008437047022A01D101207047042A1C
:1026900001D102207047082A00D1042070470000B1
:1026A00020009040283B04109F3F0F0008009040FE
:1026B0000800104801040000012003490870704719
:1026C000014800787047000089000020F8B5040038
:1026D000674D2068800103D17A21280000F034FD85
:1026E000207900280BD0062809D0012807D004281B
:1026F00005D0052803D07B21280000F025FDA07916
:10270000002805D0012803D07C21280000F01CFD02
:102710006079002805D0012803D07D21280000F031
:1027200013FD2068C00406D52079062803D1802136
:10273000280000F009FD2068800406D520790628CD
:1027400003D18121280000F0FFFC23791900474ABA
:102750000020002B04D113682568AB43136006E00A
:10276000062B04D10021136825681D4315602568D8
:10277000C540ED071AD5082809DA8500966A0F27A3
:10278000AF40BE430F00AF40374397620EE00500F5
:10279000083D082D0AD20500083DAD00D66A0F2776
:1027A000AF40BE430F00AF403743D762401C1A28EA
:1027B000DDDB206861790129916802D108439060CE
:1027C00001E0814391602068A1790129516802D11B
:1027D00008435060F1BD81435160F1BD00210160AB
:1027E000017181714171704710B50400A00104D1DD
:1027F000A62149001E4800F0A7FC8048046010BDD7
:1028000010B50400A00104D1AE214900184800F021
:102810009BFC7B48046010BD70B504000D00144E95
:10282000A00104D1B7214900300000F08DFC280040
:10283000724D010006D0012806D0FF217031300012
:1028400000F082FC6C6070BD2C6070BD10B504009F
:10285000A00104D1C22149006A4800F075FC802023
:10286000C00501684C40046010BD00000400004039
:10287000C43B041038B50400624D2068800104D1C7
:10288000D0214900280000F05FFC6068002806D0D5
:10289000012804D0FF21A231280000F055FCA068D7
:1028A000002808D0012806D0022804D0D1214900F0
:1028B000280000F049FC216853486268012A026838
:1028C00002D11143016001E08A430260A1682268DD
:1028D000012903D181680A43826004E0002907D1FD
:1028E000816891438160416822689143416031BDB4
:1028F00041680A43426031BD70B504000D00414E8D
:10290000A00104D1FF21CE31300000F01DFC2800D1
:102910003E4D01000AD0012804D0E72149003000D3
:1029200000F012FC286804432C6070BD2868A043A6
:10293000286070BD10B50400A00104D1FF21E4316E
:10294000304800F001FC3248046010BD10B50400AE
:10295000012C49D0022C47D0042C45D0082C43D060
:10296000102C41D0202C3FD0402C3DD0802C3BD08F
:1029700080204000844237D04000844234D0400060
:10298000844231D0400084422ED0400084422BD07B
:102990004000844228D04000844225D04000844238
:1029A00022D0400084421FD0400084421CD040000E
:1029B000844219D04000844216D04000844213D093
:1029C0004000844210D0400084420DD04000844238
:1029D0000AD04000844207D04000844204D0FA214B
:1029E0004900084800F0B0FB0A4800680440200095
:1029F00000D00120C0B210BD000000003C0000402B
:102A000040000040C43B0410100000401C00004087
:102A10002800004024000040F8B50400A0781F4DB5
:102A2000002805D0012803D05A21280000F08CFB93
:102A30006078042803DB5B21280000F085FB217807
:102A40001F220123A078002821D0607849B2CD0050
:102A500018262E40FF27B740FD438007000EB040E8
:102A60000E0004D50E493607360F083E00E00D492A
:102A7000B608B60089190E683540284308602078EA
:102A8000024093400849400980000B50F1BD0A40C4
:102A900093400648490989004350F1BDF03C0410B9
:102AA0001CED00E000E400E000E100E080E100E077
:102AB000002200BF094202D0491E4254FCD1704797
:102AC00010B504000800110002002000FFF7F2FF1B
:102AD000200010BD30B405004D400122D207154042
:102AE0004B180418240E2ED01B0E32D0FF2C34D0DD
:102AF000FF2B3AD0E4180002090210431143000AE8
:102B0000090A9446C2B24A43000AC3B24B43000AC0
:102B10004843110A5B181A43D2B2190A091801D4A2
:102B20004918641E080A7F3C23DBFE2C08DAE40502
:102B300009061143634699416041284330BC704700
:102B4000FF20C005F9E728001B0EFF2BF6D1D0436C
:102B5000F4E72800FF2CF1D1F9E74002F7D1FF2B71
:102B600001D14902F3D1E005E7E7D8054902E4D0F5
:102B7000EDE743020020641CDFD15B129B1CDCD913
:102B8000D805DAE70122D2070118090E7F3910D4DF
:102B900049421F310FD4001805D2C0011043C8406C
:102BA00000D5D0437047C0011043C84005D440420F
:102BB0007047002070470042F3D5100070477047FF
:102BC00070B50500012602245A4828185A4988423F
:102BD00003D36121594800F0B7FA59486900FEF75C
:102BE0002BFA002808D05749884205D201E064003A
:102BF0004008FF28FBD8461E534804740168644A05
:102C00000A403606310C1143016070BD38B504002E
:102C100020784A4D002805D0012803D09B212800A8
:102C200000F092FA6078202803DB9C21280000F055
:102C30008BFAA078002805D0012803D09D21280018
:102C400000F082FAE078002805D0012803D09E2108
:102C5000280000F079FA6068FFF7B2FF3A4841684F
:102C6000042291432278920004231A400A434260CE
:102C7000016840229143A278920140231A400A43FE
:102C80000260016880229143E278D20180231A40D9
:102C90000A43026001681F2291436278D206D20E75
:102CA0000A43026031BD01210170072141700021FA
:102CB0008170C1704B494160704710B5484C0100AC
:102CC0000AD0012803D0D1211C4800F03DFA206829
:102CD00002210143216010BD206802218843206049
:102CE00010BD70B505000C00144E05D0012C03D0AA
:102CF000EE21300000F028FAC020284001D1280041
:102D000003D1EF21300000F01FFA3748002C017882
:102D100002D00D43057070BDA943017070BD3349E9
:102D2000086070473148006870470B4013430360E8
:102D300010BD0000F0D8FFFFF1EA7900103C04104C
:102D40000024F40001FE00000000404010B5040023
:102D500008280ED004280CD002280AD0012808D058
:102D6000102806D0202804D0FF21A431204800F0EC
:102D7000EBF9204800780440200000D0012010BD6D
:102D80001A4800E0016801798908C907FAD4704738
:102D9000FF00FFFF2948017802220A43027000E089
:102DA000C16825490978C907FAD50178FD220A408A
:102DB0000270704710B504000AD0012C08D0022C14
:102DC00006D0032C04D0FC214900094800F0BCF9CE
:102DD0001B4801681B4A0A40E105C0235B04A4E7C5
:102DE0000400404040420F001400404008004040B2
:102DF000103C04101800404070B504000D00124E45
:102E0000042807D0012805D0052803D00F49300039
:102E100000F09AF928000E4D010009D0012803D0D6
:102E20000C49300000F090F9287804432C7070BDF4
:102E30002878A043287070BD0C00404080004040BE
:102E400000004040FFFF7FFE103C0410AA0200007B
:102E500024004040AB02000070B504000D00574E46
:102E60005248844218D05048844215D04D4884427C
:102E700012D04B4884420FD04D4884420CD04D486C
:102E8000844209D04C48844206D04D48844203D045
:102E9000BB21300000F058F9A868102805D00028A0
:102EA00003D0BC21300000F04FF9E868002803D0BF
:102EB00080214902884203D3BD21300000F044F94B
:102EC0002869402805D0002803D0BE21300000F03A
:102ED0003BF96869802805D0002803D0BF21300065
:102EE00000F032F9A86900280AD080214900884200
:102EF00006D04900884203D0C021300000F024F9F8
:102F0000E86900280AD08021C900884206D049001B
:102F1000884203D0C121300000F016F9286A202829
:102F200005D0002803D0C221300000F00DF9686AF6
:102F3000C021890188420CD080218901884208D0B3
:102F40004908884205D0002803D0C321300000F092
:102F5000FBF8A86A8021C901884205D0002803D067
:102F6000C421300000F0F0F8206849490140A86809
:102F70000843296A01432869084369690143A8692C
:102F80000843E9690143686A0843A96A014321606B
:102F9000E86860602868A0606868E06070BD000054
:102FA000440000A0300000A01C0000A0080000A009
:102FB000580000A06C0000A0800000A0783B041026
:102FC000940000A0F8B504000D001700334E1B4814
:102FD000844219D01A48844216D01A48844213D029
:102FE0002248844210D0224884420DD02148844295
:102FF0000AD02848844207D02748844204D0FF21C1
:103000007031300000F0A0F80E20284004D1B82123
:103010004900300000F098F838000AD0012F04D0A1
:10302000FF217231300000F08FF8206805432560E1
:10303000F1BD2068A8432060F1BD0000080000A099
:103040001C0000A0300000A010B5040004D1FF2136
:10305000AC31124800F078F8A02000060068044067
:10306000200000D00120C0B210BD0000440000A02C
:10307000580000A06C0000A010B5040004D1F52198
:103080004900064800F060F80548046010BD0000E3
:103090000F80FFFF800000A0940000A0783B041088
:1030A000040000A070B58CB000F0C8F9FFF704FB75
:1030B000002000F061FAE120400200F088FA1E4C86
:1030C0001E49216009A87D2242700D220270012351
:1030D0008370C3700371022585714271C3710372DD
:1030E000437209688847164800F0DCFA17A6154DA8
:1030F00016E00020287006A8884703A821680969FF
:103100008847059802900498019003980090089BC6
:10311000079A0699300000F0C5FA002000F045FA41
:103120002068816828780128E3D006A8884703A88A
:10313000216809698847F3E724000020CC020020B9
:10314000AC3D041088000020FEE7000025642C2020
:1031500025642C2025642C2025642C2025642C201B
:1031600025640D0A0000000010B5C20018231340AA
:10317000FF249C40E2438907090E9940030004D5CF
:103180005D481B071B0F083B00E05C489B089B0049
:10319000C01803681A401143016010BDFEB5012438
:1031A0005748017801220A430270002655480660FC
:1031B0000325FFF71CFA6946088068460088002846
:1031C00001D16D1EF5D168460088202836DB68469F
:1031D00000880125400525D4684600F077FA684646
:1031E0004178090180780843122800DA00258C48CC
:1031F0000068000705D4002D14D0012000F062F80B
:1032000010E0884FF868884E3168081A28380002A4
:103210000012002806DD002D02D0012000F052F837
:10322000306838608148047000F0A7FABFF34F8F10
:103230007F4880490860BFF34F8FFEE70120FEBD45
:1032400010B500220021A94804E00B00415C591888
:10325000491CC9B2435C002BF7D1CB1C202B12DADE
:10326000022343542123441863700823A370431896
:10327000DA709F4A80235B02401880B218431060C6
:1032800010681840FCD110BD70B500210023974A8A
:1032900004E01C00D35CE3185B1CDBB2D45C002CA4
:1032A000F7D102253524DE1C202E05DAD554D61898
:1032B0007470B070D218D1708E4A157054709070BE
:1032C000D17070BD70B5802149028A4B9CB20C430D
:1032D000874A002804D01460106808400AD0FBE731
:1032E00098789D78FB262E409E70146014680C40E0
:1032F000FCD1987070BD00001CED00E000E400E01F
:103300000800204014000020F3B58BB003A800BFD4
:1033100082A11C22FDF754FE684600F0D7F9744CD8
:1033200001250BA80078002858D003A844218173F8
:1033300071490A78012313430B704C21C17220217B
:103340000172B22141745B2101756C498B6B6C4A2F
:103350001E0C964209D1C67D8F273740C775C67DA2
:103360001B0170271F403743C7754B6B1E0C9642DD
:1033700009D14679CF273740477146791B0130275D
:103380001F403743477109680B0C934208D1C27D37
:10339000FC231340C375C27D8907890F1143C17592
:1033A000C17AFB220A40C27269464A7812018E78BD
:1033B0001643112E06DDC17D04220A43C275C07D6D
:1033C000FFF762FF280403A989B201432160216845
:1033D0000140FCD1112E01DDFFF732FF164988892B
:1033E0000028FBD00CA800788D8117220A800022CB
:1033F0004A60002807D06068102162680A401023E4
:1034000003409A42F9D00BA80078002802D015207A
:103410003C4908703C483D4908600DB0F0BD0000D3
:10342000C000002004000048180000200C0000200C
:103430000400FA050CED00E00C00104880B50820EF
:103440003349088003210120C043FFF78DFE03218B
:103450000020C043FFF788FE03210020FFF784FE11
:1034600003210120FFF780FE03210420FFF77CFEEB
:1034700003210520FFF778FE00210620FFF774FEE8
:1034800003210720FFF770FE03210D20FFF76CFEDC
:1034900003210E20FFF768FE03210F20FFF764FED3
:1034A00003211120FFF760FE03211220FFF75CFECD
:1034B00003211320FFF758FE03211420FFF754FEC9
:1034C00003211520FFF750FE03211620FFF74CFEC5
:1034D00003211720FFF748FE01210120FFF714FF09
:1034E0000C480D49086062B601BD00005C00002078
:1034F0000C0000481C00002008002040B00700100D
:1035000055AA00000000C040CCBCECFC1400002018
:103510000400104066000E0020009040023F0002B0
:103520003E30023C20023B4C023A400239B20234A7
:103530005B02350B0000000038B50E4D2C000C3C32
:10354000002811D0022807D00ED2FFF7B9F80C21BD
:1035500048432818083805E0FFF7B2F80C21484323
:103560002818001F006832BDFFF7AAF80C21484355
:10357000205832BDE03E04101CB50400012101209A
:10358000FFF718F82000FFF7D7FF009068460621E4
:103590000171012181714171FFF798F82000FFF757
:1035A000CBFF0021FFF738F913BD80B5FFF7C4FF4B
:1035B000FFF74CF901BD704710B50400202000F062
:1035C00013FA0128FAD0200000F0F9F910BD78B5FF
:1035D00085B0040001210920FEF7ECFFFFF770F829
:1035E0001E4980000818001F00680090FFF768F867
:1035F0006D461B4980000818001F006828710026CE
:10360000AE716E716846FFF761F8FFF759F815491A
:1036100080000818001F00680090FFF751F8124959
:1036200080000818001F006828716846FFF74EF8F0
:103630000294032002A908714871CE804E7208726C
:103640000120887202A800F0D1F8002000F002FAF0
:10365000012000F0B7F806B070BD0000F83E04107D
:10366000FC3E0410003F0410043F041070B5002419
:10367000012804D0022802D00020C04370BD0029D8
:1036800001D1002070BD0D00160004E02878FFF77E
:1036900093FF6D1C641C3000461E0028F6D12000EC
:1036A00070BD70470EB4C0B5020003A801900020A1
:1036B000009001AB0121044878440C30FCF700FD78
:1036C000029906B0084700BF010800000F21114A07
:1036D00013681B090B404370136819408170D2684E
:1036E000426001210C4B9A4208D10C4A12680C4BE3
:1036F0009A4201D1042202E0022200E0012202707B
:103700004278002A00D1417006490988491C890085
:10371000816070471C00904041A000021C00001016
:1037200044A000F214001040EFF31482EFF309817B
:10373000002080F31488BFF36F8FF0B543464C46EA
:1037400055465E466746F8B4164CEFF3088323608F
:1037500006B4154C2068154C2060154C2068154C9B
:103760002060154C2068154C2060154C27680020FF
:103770002060BFF34F8F30BF27600A4C246884F36A
:10378000088882B003BCF8BC9846A146AA46B34656
:10379000BC46F0BC04BC80F3098881F31488BFF3F5
:1037A0006F8F10470800002004ED00E02800002083
:1037B00024ED00E07C00002000E200E0800000201A
:1037C0000800204010B5854C01000AD0012803D024
:1037D0005F218348FFF7B8FC206801210143216085
:1037E00010BD206801218843206010BDF8B5040099
:1037F00020687B4D002802D07A49884203D3932168
:103800002800FFF7A1FC2079002809D0012807D063
:10381000022805D0032803D094212800FFF794FC48
:103820006079002809D0012807D0022805D0032894
:1038300003D095212800FFF787FCA079002805D048
:10384000012803D096212800FFF77EFCE0790028AC
:1038500007D0012805D0022803D097212800FFF7C0
:1038600073FC207A042803DB98212800FFF76CFC06
:10387000607A042803DB99212800FFF765FCA07A11
:10388000002805D0012803D09A212800FFF75CFC0E
:1038900021680125674E68487269D2082A4001D123
:1038A000090100E0C900FDF7C7FBC1093181090426
:1038B000490A401A401C400881B23F2902DD3F38C6
:1038C0008006800E307360209F21327C0A4023796D
:1038D0005B01034013433374327811406279520123
:1038E000104008433070F7200821327C0240A37951
:1038F000DB0008271F401743377432781040A27945
:10390000D200114001433170E179002907D1FD2037
:10391000317C014031743178084030701CE0022065
:103920000229317C0BD101433174FB21327C0A40E6
:103930003274327810433070307801400BE001432C
:1039400031740421327C04231343337432781043DE
:10395000307030780143317070693B490140207A02
:103960002840400208437061706938490140207A5C
:1039700040082840000208437061706934490140E2
:10398000607A284080030843706170693F490140B4
:10399000607A40080540E803084370611020EF2179
:1039A000327C0A40A37A1B010340134333743278FC
:1039B0001140A27A1201104008433070F1BD10B5D9
:1039C000040080218900884203DBEF390448FFF7B7
:1039D000BBFBE005C00D2E49088010BD3000304013
:1039E0005C3C041041420F0010B50400012C1AD0B9
:1039F000082C18D0102C16D0202C14D0402C12D00B
:103A0000802C10D0234884420DD0234884420AD011
:103A10002248844207D02248844204D0FF215631F4
:103A20002048FFF791FB2348002C01D5006800E0F7
:103A3000808A03E01C0030400000127A044020001D
:103A400000D00120C0B210BDFFFDFFFFFFFEFFFF51
:103A5000FFBFFFFF10B5040010D001280ED00228D0
:103A60000CD003280AD0042808D0052806D0062840
:103A700004D0FF21DA310B48FFF766FB0E480178CE
:103A8000C7220A40E10038230EE00000FF7FFFFF5D
:103A9000000030400800008001000080020000802B
:103AA000040000805C3C04100B401343037010BD05
:103AB000000000000400304034003040686A6C743C
:103AC0007A4C00007072696E74665F733A20256EDE
:103AD00020646973616C6C6F776564007072696EE5
:103AE00074663A2062616420256E20617267756D8C
:103AF000656E74007072696E74665F733A206261FD
:103B00006420257320617267756D656E7400000016
:103B1000000000006E616E004E414E00696E66004E
:103B2000494E460030007047433A5C4749545F763F
:103B30006F62735C626C75656E7267312D73646B56
:103B40005C4C6962726172795C426C75654E524779
:103B5000315F5065726970685F4472697665725C46
:103B60007372635C426C75654E5247315F73797353
:103B70004374726C2E630000433A5C4749545F768D
:103B80006F62735C626C75656E7267312D73646B06
:103B90005C4C6962726172795C426C75654E524729
:103BA000315F5065726970685F4472697665725CF6
:103BB0007372635C426C75654E5247315F646D6130
:103BC0002E630000433A5C4749545F766F62735C32
:103BD000626C75656E7267312D73646B5C4C6962E3
:103BE000726172795C426C75654E5247315F506507
:103BF000726970685F4472697665725C7372635C47
:103C0000426C75654E5247315F6770696F2E630075
:103C1000433A5C4749545F766F62735C626C7565CA
:103C20006E7267312D73646B5C4C6962726172797C
:103C30005C426C75654E5247315F506572697068C1
:103C40005F4472697665725C7372635C426C756521
:103C50004E5247315F7370692E630000433A5C47F0
:103C600049545F766F62735C626C75656E72673122
:103C70002D73646B5C4C6962726172795C426C7525
:103C8000654E5247315F5065726970685F44726972
:103C90007665725C7372635C426C75654E52473137
:103CA0005F756172742E63007047FEE7704770475E
:103CB00010B5FEF705FD084C80002058FEF746FEC3
:103CC000012808D1FEF7FCFC80002058FEF732FEE8
:103CD00001200249087010BD143F04108800002024
:103CE00080B5FEF7E3FB01BD80B5FEF7B1FB01BD7A
:103CF000433A5C4749545F766F62735C626C7565EA
:103D00006E7267312D73646B5C4C6962726172799B
:103D10005C426C75654E5247315F506572697068E0
:103D20005F4472697665725C7372635C6D6973631C
:103D30002E63000070B40123002413E00168001D0D
:103D4000194202D04D466D1E49190C60091D121F03
:103D5000042AFAD20D00960701D50C80AD1C1A403A
:103D600000D02C700268001D002AE7D170BC70479B
:103D700030B501684118446862088A188368E4070E
:103D800004D54C461B1901E0641C06D191420BD0AE
:103D90000C7864B2491C0D78491C1D705B1C002C0A
:103DA000F2D4641EF7D5F1E70C3030BD4143435FD8
:103DB000582C204143435F592C204143435F5A2CE8
:103DC000204759525F582C204759525F592C2047A1
:103DD00059525F5A0D0A000010B50749794418314D
:103DE000064C7C44163404E0081D0A68891888478C
:103DF0000100A142F8D110BD080000007C000000C5
:103E000035FFFFFF04000000080000200400000050
:103E10000C0000200400000014000020040000003A
:103E200018000020080000001C0000200400000012
:103E300030000020080000002400002030000000B6
:103E40005C0000200000000029FFFFFF17010000B8
:103E500014000000C000002019FFFFFF1101000046
:103E60000A0000001000002009FFFFFFB000000062
:103E70008E000000CC020020FFF790F9002801D04E
:103E8000FFF7AAFF00BF00BF002000BF00BFFFF781
:103E900009F900F000F880B500F002F801BD7047A4
:103EA00007463846FDF740FBFBE780B569460870DA
:103EB00001220120FFF7DAFB012802D168460078D1
:103EC00002BD0020C04302BD38B505000C00200033
:103ED000FFF7EBFFA04200D00025280032BD000014
:103EE00040000000800000000040000000BF00BF54
:103EF00000BF00BFFFF7C0FF00010000010000008D
:103F000000080000010000000200000004000000A2
:103F10000800000001000000001000003F3D1504F3
:103F200010211A0410891A0410351A0410D51B0424
:103F300010751B0410D51C0410651D0410111E04FF
:103F400010691E0410B31E04101D1F0410C51F04A9
:103F50001069200410E520041069210410E8000015
:103F600001F5008100810081008100F00003000064
:023F700004103B
:0400000510043EEDB8
:00000001FF
