:020000041004E6
:1008000000600020B1200510551D0510571D051072
:10081000AA5555AA45554C420000000000000000B2
:10082000000000000000000000000000591D05103D
:1008300000000000000000002F2304105B1D0510C5
:10084000631D05102B2704100000000000000000AD
:10085000651D0510432A04106D1D05100B4E041074
:100860000000000000000000000000000000000088
:1008700000000000DB4F04106B5304106F55041090
:100880000000000047350410B33704105739041036
:10089000E3430410DB450410075B041033580410D5
:1008A0000000000000000000000000000000000048
:1008B0000000000000000000000000000000000038
:1008C000F0B5FF4885B00168FE480C18FE4EB168CF
:1008D000C8017DD5204680300090806B827AEE235F
:1008E0001A40827230464A030125C068002A42DB62
:1008F0004A0105D500200921C9064860357036E057
:100900004A0012D5C178491E0906090EC17003D1EB
:100910000922D2065160357041790A0627D5490669
:10092000490E41718169416121E0E84A11420AD0D2
:10093000224620329570490202D50321917000E0D1
:1009400095708169416101792246C1704032917987
:10095000002908D00921C9068968A1640021022361
:10096000E1649377A16541794906490E4171002000
:100970004621085543E031698A8901214907521807
:100980005288436B5218934213D19378142B03D09F
:100990009278042A08D00CE0034640331A7FDF2700
:1009A0003A402A431A7704E0012302699B021A4362
:1009B0000261806A408840187D210078095D084303
:1009C000C00606D4002009213570C906486010E031
:1009D0007CE2606D00F068FB01460920C0060269F8
:1009E000236DD21A1202120A914202D235700021EE
:1009F0004160F06801220169D20391430161B1684D
:100A0000480213D530698089012252078018408836
:100A100080187061F268536B834207D180780D288B
:100A200004D1412310699B0298431061002948DAE0
:100A30000098806B418801204007A34F0818F86197
:100A40000920C0064069C00DC00707D00020092159
:100A50007D70C90648603D709D48F3E0F86841210B
:100A60000069490108420AD000F042FB012829D060
:100A70001C22F86941780A4201D0091F4170F869C7
:100A80007D2201781155C94389071DD0F868006996
:100A9000C00370D500F02CFB01286DD01F20F96930
:100AA0004978084267D0002009217D70C906486056
:100AB0003D708748B861F8680121026909048A43DA
:100AC0000261C0E0FC22D4E7867841781A2E76D203
:100AD000804A925DFF2A72D08A4270D1022E15D0D0
:100AE000F9684A79D2065BD4062E16D00A69D30378
:100AF00028D5002209237D70DB065A603D70744AB8
:100B0000BA6101200A69000482435CE0F868406B26
:100B10000560F9682320487195E00122B8699203C5
:100B20001043B8616C4A0869104015225202104304
:100B300008612046C030C17BBA78914230D108218B
:100B4000C17380E0002E18D0012E2AD0032E2DD0A4
:100B50000A2E35D00B2E38D0082E39D0092E3AD097
:100B60000C2E3BD002465D4B3146012000F0B0FA1E
:100B7000002868D14BE05DE05AE00A463E46214637
:100B800000F0B8FAF0698179C0790002084354494D
:100B9000400240185349896A814200D8084660657E
:100BA00051E00A46214600F0C9FA4CE0BB698026B4
:100BB0003343412000040243BB610A6143E028E063
:100BC0008920C00105E00A613DE047480240FAE79C
:100BD00010200243F7E70121090327E03B4697076E
:100BE0000426002F08DA9F6937439F6102239A4346
:100BF0000823CF26335502E0D30700D132432A43DE
:100C00000A610522C01C2C3100F0AFFA1BE0072E50
:100C100006D0F8680822016911430161C67112E02B
:100C2000F969C9780E290ED101218906B9610AE056
:100C3000FF2034E72146FB683A69F86900F09EFA24
:100C4000B9690843B861204BD8681969066A0F8AE8
:100C500001225207BF1801977F88BA1800275A61EE
:100C600002979B681127BF043B421ED15F011CD431
:100C7000476B974201D0012700E00027039790427D
:100C800001D0012700E00027BC46002E0DD0039FB5
:100C9000002F0AD06746002F07D0F77CFF0904D049
:100CA0003768002F01D0012702975B0202D4029B14
:100CB000002B78D043799F0701D5002E20D015E076
:100CC0008C030020580800004403002000004080EE
:100CD000080010000A210410DFFBFEFF5C03002067
:100CE0009AFDFFFF5C000020BFFFFEFF5B085B007A
:100CF000476B974243D143719378042B05D016E09C
:100D00002B431F462F434771F2E72346C033DF7B57
:100D1000082F05D1DC4FBF78DF737D277F029F81CD
:100D2000D94B01279B69FF063B43D74FBB614379F2
:100D3000DB060CD5D44B09275D700023FF067B60D2
:100D4000D14BD24F1D709B693B43CF4FBB61927813
:100D5000152A32D1074640373A7FFD231A40BC4658
:100D60003A77130729D5C84B01279B697F063B4378
:100D7000C54FBB61F7231A4063461A771DE08242D4
:100D80001BD0338AB77C0022DB1933827369B361CD
:100D9000B274338AF788BB4202D2F77CFF0903D0D2
:100DA0003668202205E068E0DB0602D1B3691B68E3
:100DB000B361B54B9F693A439A6142790027D207E4
:100DC00017D0B14A436B53619A78052A3BD1026927
:100DD00020231A430261002008704871487088710E
:100DE0008870C871C8700872087148728020487293
:100DF00029E0002E0AD000F00BFA002806D1A24804
:100E00003322C16852010969114209D09E49012269
:100E1000C868486105800169D2031143016112E08D
:100E20009B4A317C126809231B02C906D218C90EDD
:100E3000526F0127891C89184161019A51803146FE
:100E4000C06800F0F5F9904E2121F0688901006931
:100E500008420AD000F04CF9012809D01F2271691C
:100E60004878024201D0001D4870002F02D004E0F3
:100E7000FF22F4E70199B08A4880834EF268106936
:100E80004106890F13D080063178C00F012902D0A6
:100E9000B16849031CD5002804D03069C17D0823FE
:100EA000194303E03069C17DF7231940C17521461C
:100EB0003369F06900F0FEF9307801280BD0009911
:100EC0007448896B0322091D00F07CFA05B0F0BD5F
:100ED0000028E7D1E1E76C480121C2680069537935
:100EE000C67A01962026365C00278772204620307D
:100EF0000290807803281CD197796348002F18D17D
:100F00009F06BF0F15D1624F3F682037FF7C002F2F
:100F10000FD1176A002F0CD1CF273F5D8078874211
:100F200007D09089411C7043019E89B2801980B21C
:100F300001904020805A1689400048437118118161
:100F400002998978002902D15169091A51610099E1
:100F5000896B8E7A11273E438E7226464A49C036E7
:100F6000F77B89788F420AD1B189091AB1810FD5EF
:100F70004549494F4D708E693E438E6108E0566980
:100F80004149002E04DC4D70444F8E693E438E6112
:100F9000990605D53C49424E4D708B6933438B61B0
:100FA00011792746D1704037BD71E16C80B20818C5
:100FB000E0649079FB210840334E9071C00717D050
:100FC000B88E1189401A012180B2C903884205D325
:100FD00075703449B0690843B06109E0002807D151
:100FE00001230021204600F0F5F9B1690843B06102
:100FF000F06881798A0723D53A8F0389D21A521C67
:10100000012392B2DB039A4205D375702549B0697A
:101010000843B06114E0002A12D1FD221140817111
:10102000306900992130496801700A0A42700A0C3F
:101030008270090EC17060343069E17E20304171E8
:10104000019800F017FA3169C8720298002787707A
:101050007078002802D0B07800F01AFA0C4C5821B1
:1010600020680D54492149014018407E002802D0D3
:10107000012000F0E1FA012000F0E2FB206840309E
:10108000077605B0F0BD0000440300200800010011
:101090008C030020FA0030000880400008000400A3
:1010A00008000200080008000649C20B0968400455
:1010B000096A400CCB0958435143000A08182030F4
:1010C000800970478C03002080B500F0F7FE01BD59
:1010D00080B500F01FFF02BD80B500F0B1FF02BD7A
:1010E00080B500F0E9FF02BD80B501F01BF802BD3C
:1010F0000120704770B50C460546C1786020015547
:101100001646281D01F068F84034A084A81D01F09F
:1011100063F820852846083001F05EF8A08528464F
:101120000A3001F059F8208628460C3001F054F8B6
:10113000A086B07901210843B07170BD70B5054635
:1011400016460C46C01C01F04CF884210851E97980
:101150007B2001552846083001F03EF840342087B6
:10116000B07902210843B07170BD04E003780B70C0
:10117000401C491C521E002AF8D17047F8B51D4684
:10118000144606460027FFF7B3FF01280CD01F20A6
:1011900071780840060036D00020E86101F02CF894
:1011A000002803D0E86907E0FF20F1E769893246AB
:1011B000012001F031F8E861002801D0102722E079
:1011C000E07D80214840E0751049286908421AD026
:1011D0006079401E60716079FF2814D1A079401EAB
:1011E000A071A079FF280ED1E079401EE071E0796E
:1011F000FF2808D1207A401E2072207AFF2802D1D1
:10120000607A401E60723846F8BD00002028000059
:10121000064801684B20400108184178C078814297
:1012200001D9012070470020704700008C03002086
:10123000F8B50C46CA88098A4030521A80891026AF
:1012400095B2A84205D20546E07C4006400EE07407
:1012500003E02068002800D10026002904D1207B6B
:10126000800701D5022000E00120CF060643FF0ED3
:10127000E81982B20E48A169036809200002181813
:10128000406F001D00F0EAFF60610948A574016825
:10129000092000020818416FB81C0E540448016868
:1012A000092000020818406FFF1CC555F8BD00005A
:1012B0008C030020FFB515691E46A8032E3689B0A1
:1012C0001C461746002833DA102269463046FFF7DD
:1012D0004CFF0924E4060398A0610298E06101989C
:1012E000206200986062354801681320C001081828
:1012F000816AA162406AE0620A988030016C2163D1
:10130000C06B606300F0CEFFA06B0390E06B0290B7
:101310002B480168019140680090102231466846D0
:10132000FFF723FF0120400485433D610DB0F0BD70
:10133000E8053CD505A80146009010223046FFF78D
:1013400014FFFF20013085434120800205433D61A9
:101350000998082201A9C01CFFF707FF0998214638
:1013600004222A310B30FFF700FF154805A9283861
:1013700000F0AAFF0924E4060298A0620198E06246
:10138000786B082203A90D30FFF7EFFE0498206365
:101390000398606300F086FF094905A8083900F04A
:1013A00093FF102231460098FFF7DFFEBEE7A07AD8
:1013B0000006BBD40A9800F090FFB7E78C0300202A
:1013C0004000004803E00870000A491C521E002A31
:1013D000F9D17047FFB582B000230193059B012B23
:1013E00030D04B8C224D1C010B8C9C46CB7E6B432A
:1013F0008D8BAE46CD8B1646403697690096A74238
:1014000006D19689664503D1009E3688AE4201D04A
:101410004026019696790427760876003E43967119
:101420009461546164469481009A1580059A012A5A
:1014300017D00B6170464A68400010184860019848
:1014400006B0F0BD034640331D461B8E084E1C01FE
:10145000AB8D9C4660231B5C7343AE8C2D8DB646D2
:10146000C9E783657146C26C49005118C164E6E75B
:10147000E2040000054925224143090C5143401A6A
:1014800080B2252800D32538C0B27047EB06000093
:10149000F1B56749674A086882B082180092FD2258
:1014A000D2008618AC22155C04460346029AC0346A
:1014B000363395427ED9092109024018174660212A
:1014C000806E4F430025B91C4554029800F010FF70
:1014D00000280CD15648BF1D0168092000020818D9
:1014E000806EC05D002802D00098C030057272B6D0
:1014F0004F48029D0768012039462031CA7DA84027
:101500008243CA75317D81433175197808077AD4D1
:101510004A070298520F82427CD030462030827EA9
:101520005507029A6D0F954276D181760F2018707B
:10153000404AA0687063BD18A86D2169A965206143
:10154000686D6169696560612146284618315C30C3
:1015500000F0E8FE3748A37E5E3039180A780B7039
:10156000A276A86C2168A9642060E86C6168E964CF
:1015700060603048E37E603039180A780B7021468D
:101580002846E2761C31643000F0CCFE2146284625
:101590001E31683000F0C6FE2146284620316C30EE
:1015A00000F0C0FE214628462231703000F0BAFE1D
:1015B000214600E03AE028462431743000F0B2FEC3
:1015C000214628462631783000F0ACFE1948803597
:1015D0007B303918204628300A7803780B70027067
:1015E0001448E26A8430381801680260E162072119
:1015F000E06809050843A96B0322091DFFF7E2FE15
:101600000AE000E006E03A20805D41070298490FB9
:10161000814201D10F2018702036B07E4107029818
:10162000490F814201D10F20B07662B6FEBD0000A5
:101630008C03002058080000F0B57E4C05467E491A
:10164000206891B04018089000200D9072B600F00C
:101650006FFE002801D1002D07D0764800250168D3
:10166000492040010818467EDFE062B60D9811B0AF
:10167000F0BDF0077ED07149A80140180E906D486A
:101680000168092000020818816E602068430C1868
:10169000A178206A4907490F02294BD1A17949074E
:1016A00048D4002846D04020005B4000099000024A
:1016B000FFF7FAFC039000200F905E483621006887
:1016C000095C0A070AD44907490FA94206D101213A
:1016D00080300F91416C0191806C06E00899C96CD3
:1016E00001910121C9024018C0690090FF205F30BC
:1016F000FFF7DAFC51490C39497AC90041180098C2
:10170000411A0398081A07900E980B214156203071
:10171000059100780A900020029020890690092007
:10172000C00601690798401A070201203F0AC00558
:1017300087422AD36CE001200D9007990398081A7C
:101740000790029903980818029009990198401A85
:101750000190616909980818606105990A98081A4A
:1017600040B205900698401E80B206900598002869
:1017700004DA00E056E0253040B205900920C006AA
:1017800001690798401A07023F0A6420FFF78CFCA2
:101790002A490C39497AC900411826480068806AEC
:1017A0000818B84207D20120C005874203D2099920
:1017B00001988842BFD802990098401A01020D98FA
:1017C000090A00280CD01B4811220068D201801899
:1017D000806A081A00020012002801DD00200D9026
:1017E0000F98002806D01348019A006880304264A0
:1017F000816408E0089A0198D0640E4802680120CC
:10180000C0021018C1610E990598C872069820810F
:10181000084801220168492040010818417EAA4079
:10182000914341766D1CEDB27608002E00D020E782
:101830001BE700008C03002058080000CC000020AB
:10184000F1B5FD4FFD223868D2000146851896B0EB
:1018500068301290092000020818806E0F90F74837
:101860000E180920C0060069099000201490082471
:10187000F348FFF719FC02900020139072B6386805
:10188000F7214030C2790A40C271129801210171DA
:10189000129801684A07520F4271C9081298C9008C
:1018A000016062B61698002801D009980EE0642005
:1018B000FFF7FAFB014609980918E248427ADE4828
:1018C0000068806A101808180002000A00F05CFD29
:1018D000686B05903A20405D0D90082841D20120A8
:1018E00014900D98602148430F9940180390D648F2
:1018F000876AD448407AC00000F0AEFE01460398E3
:101900004030028852028918CD4A524289188F42CB
:1019100000D239467165B82189590B794A7989799C
:1019200012021A438907890B1143028B408BFF3146
:101930001018C331401800F097FE07465F200001E1
:10194000FFF7B2FBB84204D95F200001FFF7ACFB00
:1019500000E0384605990918BA48407AC0000818CE
:101960001390706DFFF7A0FB0599401801900020BF
:1019700007460390287D002809D10D98082806D332
:10198000B049002008800921C906486060E1686804
:101990000790686C049029680998401A00020412A4
:1019A000A84800884007400F00F0A2FC002801D0A2
:1019B000002007E0002CFBDB204600F04DFE0499E0
:1019C000884200DA04900120800708240990002052
:1019D0000B90297D3AE00D9A904234D0964A1268D5
:1019E0002032927D1207120F82422CD0EB6A420005
:1019F00010930C929F5A00976B6A9A5A079B920118
:101A00007B43D318049A9C46934212DACA0710D03B
:101A10002A6B0C9B079FD25A521C93B21A467A43E8
:101A2000009F9444FA1892B213460092109F0C9AA9
:101A3000BB52099A6346944505D2CA0703D0009A5F
:101A4000099304460B924908401CC0B20029C2D138
:101A50000998FFF729FB29684718A86A6100405ACE
:101A60008001FFF721FBC01903907648407A582285
:101A7000C10071480068125C002A744A126939D0AA
:101A8000BB1A029A52009B1A38E0002001E0806ADB
:101A90004018181A0002000A01460A900120C005E9
:101AA000814209D3082C7DD0204600F0E1FD644935
:101AB000099840180490686401210A98C905884271
:101AC00081D2082C6ED00B98002835D00799484356
:101AD0000490FFF7E9FA296840180002000A28601C
:101AE000696C0498081A686409990498081A002116
:101AF00009901BE0029BBA1A5B08D31A169A002AB7
:101B0000C5D0C2E7EA6A480007909446105A0B9A7B
:101B1000801A04E02B6B079A401C9A5A1018002870
:101B2000F8DB079B6246491CD052C9B242480068A4
:101B3000A030007B8842E5D80D9808286CD2059823
:101B4000C01B01020120090AC005814223D302986B
:101B5000391A1398081A02020120120AC00582429B
:101B600001D313980FE0019A891A0902090A8142E8
:101B700001D2019808E001204002FFF795FA02998E
:101B80004900791A081A01900599401A0002000AC2
:101B900000F062FD7065029901984018C01B0102B7
:101BA000090A00E054E00120C005814254D20299A4
:101BB0004A00039952180599511A0902090A8142EB
:101BC0002AD20D98602148430F9942186020604343
:101BD0004018C17BD37B994201D3102100E0002142
:101BE000C90615D48179CA0704D07221895B02899C
:101BF000891A05E0890707D576218A5B0189511A80
:101C0000491E0904090C07D04079000604D423E0DA
:101C10005079902108421FD1082C21D008490998F9
:101C20004018686460200F9960434018807840072E
:101C3000400F01284BD013E08C030020580800000F
:101C400066020000C00000205C0000200000004888
:101C50001498002804D003D0059F0D9C0198039090
:101C6000039839020002000A0390090A012000913A
:101C70008002FFF719FA029001204002FFF714FAE0
:101C8000074600990398401A00020012002809DD57
:101C90000299000A884200D901460291B84200D850
:101CA00038460746082C7DD0804800884007400F02
:101CB000A0424FD060200F99604340180790807871
:101CC0004007400F052812D0022810D042E03146CC
:101CD000803103208A6840028242C1D0C9688142B3
:101CE000BED000F005FD4005400DC719B8E70798C4
:101CF000A101006A04906D480818818B079880B292
:101D0000814227D00498002824D004990798FFF72F
:101D10008FFA674904980A68007C09210902C00605
:101D20005118C00E496F801C401804900798016933
:101D30002120800101420DD0FFF7DAF901283BD0C4
:101D40001F2004994978084204D0049840780499E7
:101D5000001D48705648554900682030847448205A
:101D60002043088030468030436B997ACA06D20EF1
:101D700061010A439A72826B907AC006C00E0843D2
:101D800090720098306500F0D3FA012816D04848C8
:101D900046490068497A2030007D401A316DC00004
:101DA000081800E03AE000020121000A4906411843
:101DB0000920C00641600EE0FF20C2E70121306D1E
:101DC000090641180920C0064160394800682030E2
:101DD000017D36484172082C24D2602044430F987C
:101DE000241872B61298A17800684907C008C0008C
:101DF000490F08432F4908400099C9000843129928
:101E0000086062B6A0784007400F03280FD0FFF7A4
:101E10006FF901280FD00398C01B19E00020092199
:101E2000C906486021490020088017B0F0BD02991A
:101E30000398401A0CE04034208B618B4018FF302F
:101E4000C33000F011FC874200D938460399081AC4
:101E50000002000AE863A88B8001FFF725F92968D2
:101E6000002644181448FFF71FF9201A0002000A40
:101E700028640F4C2E8420684030407E002807D014
:101E800000F054FC20684030417E4908490041760A
:101E900020684030407E0028C7D000F071FC2068E8
:101EA0004030417EFD2211404176BEE7C000002057
:101EB0008C030020070000F83502000070B51349BC
:101EC00009220968120200208B18AC22525C19E02A
:101ED00060249D6E44432C195C252D5DED060FD5C5
:101EE0000B480818C030428A018A608900F06CFCF7
:101EF0003A2804D04034207FEF210840207770BD7D
:101F0000401CC0B28242E3D870BD00008C030020A8
:101F100058080000FFB50746464881B000880D46C6
:101F2000454909220968120240078A18400F926E3B
:101F300060235843141841480E18FFF7D9F80028B9
:101F400022D0142D04D0152D20D0072D59D05CE0BF
:101F50002146039800F098FC012120698904084378
:101F6000214640312061087F022210430877820613
:101F700009D56279520852006271DF221040087759
:101F8000002F4ED151E0012005B0F0BD254640356F
:101F9000287FC007F7D02146039800F075FC204643
:101FA00000F08AF8002825D0A888E988884200D364
:101FB0000846E881698AA88A814200D20846688377
:101FC0002A8AE98A8A4200D2114629836A882889A6
:101FD000824200D21046C9080E3989B2688188420F
:101FE00000D30846A88104980068012149060843E7
:101FF00004990860287F400840002877002F10D1FE
:1020000013E00398C078142802D0002005B0F0BD7A
:102010004034207F04214008400008432077002FEF
:1020200003D00820C036F073ADE70820C036B07387
:10203000A9E70000C00000208C0300205808000021
:10204000F8B51C4615460E460746FFF751F800281E
:1020500005D000F049FC002803D00C20F8BD112069
:10206000F8BD1249124A0968002089183A461B3AFD
:10207000E12A00D330203346FF3B0E4A493B9342CE
:1020800000D330202B461B3BE12B00D330202346CE
:10209000FF3B493B934200D3302072B6C0318F8260
:1020A000CE820D834C8362B6F8BD00008C03002005
:1020B000580800000107000070B5403001894288CF
:1020C0000025914200D31146C38A028A934200D26E
:1020D0001A46C48883889C4200D22346868A448A52
:1020E000A64200D2344646898E4200D00125C189DD
:1020F000994200D00125018B914200D00125408BEF
:10210000A04200D00125284670BD0C0802170D0121
:10211000010209090101060209FFFFFFFFFF09098A
:10212000FFFFFFFF70B5032100F004FC082801D376
:10213000022070BD26490922096812028918896E99
:10214000602250430D1868796E6B800701D03A20E9
:1021500070BD2C464034E188A08800F02FFCE0815F
:10216000A18A608A00F02AFC60832189608800F0DF
:1021700025FC6081E18A208A00F020FC2083C008D1
:102180000E3881B2608900F019FCA08111483060DE
:102190006C6B284602224430E11CFEF7E6FF28461D
:1021A0000222611D5230FEF7E0FF28460222E11DA7
:1021B0004230FEF7DAFF214628460222093150302C
:1021C000FEF7D3FF6879012108436871002070BDD4
:1021D0008C030020030915000178407800020843B1
:1021E00070470178427813028278C07812040006A2
:1021F0001043184308437047064801684B204001CC
:10220000081801788078814201D9012070470020A8
:10221000704700008C030020F8B50D460E490923D5
:1022200009681B02C9184E6E1F21521E0A431D3237
:1022300097B20024394600F0C5FB00280AD1394680
:10224000B06800F0E7FB044608340068A060002096
:10225000E074A5802046F8BD8C03002070B50C46C4
:102260001F21521E0A430546521C002011044E0D28
:1022700017D0214608316A1A2846002A01DD082AAB
:1022800003DB202200F0DEFB04E0082208C9521E16
:1022900008C0FBD120352046761E24683604360C53
:1022A000E7D170BD08B56420694608700921C906E8
:1022B0006A461078401E10704869C00402D4107835
:1022C0000028F5D1107808BDCA6802608A684260AB
:1022D0004A6882600968C160704710B5044680345E
:1022E000606C002803D000F0BDFB0020606410BDCE
:1022F0000B49FD220968D2008A182032927E3631BD
:102300001207120F824206D009780A0705D449073E
:10231000490F814201D10120704700207047000021
:102320008C03002002880B8803800A807047704766
:1023300030B41348092203681120C0011818D206CE
:10234000806A11690F4C411A09022588090A2D0774
:1023500002D430BC01207047647A9B6AE400E31821
:102360008B4209D20123DB05994205D2590008436B
:10237000506030BC0120704730BC00207047000026
:102380008C030020C0000020F1B5B04AFD21106888
:10239000C90090B041180491AD4904464518C034B5
:1023A000014636310D9100210291AA49497AC900AE
:1023B0000C91816A0B91049920310E91897E0791CD
:1023C00008297DD2092109024018816E1746079815
:1023D0006022504308180890079881019D480C30EE
:1023E00008180A90C07A2E4640360990B08B00F04B
:1023F00073FB39684031098E401880B20390E96C54
:10240000039800F077FBE96C09020F1AB07F00F027
:1024100076FB3818FEF748FEA96C41180C98081A8C
:102420000002000A01901099411A0B98081A000244
:102430000121000AC90588427ED2049801994163AE
:102440000998FFF717F80A99C8720D980078C143E8
:10245000090706D041070798490F4007400F8142FE
:102460002BD10E980821807E08430D990870A86C26
:102470002060E86C60600198A0600298E060A86D40
:102480002061686D6061B08B2083B07FA0762846A4
:1024900060300178E176B18CA183318DE183B18D1B
:1024A0002184318E6184B18EA184318FE184C17E1B
:1024B0002820015584204059E0620D98007800E002
:1024C0007CE0079942074907520F490F8A4261D0C1
:1024D000F72108400D995D4F08704007400F0790A5
:1024E0000920396800020818816E0798602250435D
:1024F000081804900798810156480C3008180A9073
:10250000C07A0990208B00F0E7FA39684031098ED3
:10251000401880B203906168039800F0EBFA61689C
:1025200009020F1AA07E00F0EAFA3818FEF7BCFD87
:10253000216841180C9800E042E0081A0702109840
:102540003F0A391A0B98081A00020121000AC9052E
:10255000884258D2A7600998FEF78CFF0A99C87282
:1025600001980899C01B00024979000A9022114283
:1025700010D10121C90588420AD30498C17B08986B
:10258000C07B401C814203D804984079C00601D525
:1025900000F0BCFAE96C039800F056FB0446B07FEB
:1025A00000F05AFBA96D20184018072109050843BF
:1025B0008035A96B0322091DFEF704FF11B0F0BDA1
:1025C00008984030008841000A9820300278099825
:1025D000101880B209900898089A0089401C108150
:1025E00008984069421A089842610898C07BFF2801
:1025F00002D2089A401CD073E86C4018E86407982F
:1026000000F032FBFBE604984030008841000A9855
:10261000203002780998101880B209900498049A22
:102620000089401C108104984069421A0498426154
:102630000498C07BFF2802D2049A401CD0736068C3
:1026400040186060079800F00FFB64E78C030020DF
:1026500058080000C000002008B500216A4611801B
:10266000694600F063FB08BD4101401880097047CE
:10267000F8B501461B480922006812028218936EC1
:1026800060224A439E18184A00248518174A880178
:102690008718B0784007400F052802D0012805D0E0
:1026A00010E0084600F05AFB04460BE02A46803250
:1026B000108A002802D0401E108203E00124084640
:1026C000FEF7E6FEF07BFF2801D2401CF073002CE1
:1026D00006D02346324629460020009700F040FBF2
:1026E000F8BD00008C03002058080000CC0000203A
:1026F00000210B200007026852070DD50268042351
:102700009A430260026808231A43026004E0491CED
:10271000052901DD0020704742689207F7D541681E
:10272000C907FCD0806880B270477047FEB5114879
:10273000114900680622461810494118684600F001
:102740003FFE01226946304600F04EFEB56BF46B49
:10275000736B366C00206A46811C175C5F54175CF3
:102760006F54175C6754175C401C77540628F3DBE2
:102770000020FEBD8C030020580800003307000035
:102780007CB50E4C0E492068062245180D494118AB
:10279000684600F015FE296A06226846891CFEF785
:1027A000E4FC13212068C9014018816806226846AC
:1027B000891CFEF7DAFC00207CBD00008C030020A1
:1027C0003C09000033070000F7B52C4F0E462C499A
:1027D000386882B0441815460321029800F0AAF820
:1027E00000900920396800020818816E0098602264
:1027F00050430F180098FFF77BFD002807D0CF202B
:10280000005D0099082905D3022005B0F0BDCE2057
:10281000005DF6E74037397F4A0701D51A20F4E713
:1028200032461B3AE12A05D22A46FF3A154B493A6D
:102830009A4201D31220E8E78A0601D4C90701D0E1
:102840000C20E2E7082801D23A20DEE7C034A08A53
:10285000B04200D20646E08AA84200D205467889F6
:10286000B04204D1388BA84201D10020CDE72A46DE
:102870003146029800F0C8FDC7E700008C03002035
:10288000580800004941000070B50C460546022278
:102890004831C01CFEF769FC214602225631681DF2
:1028A000FEF763FC214602224631E81DFEF75DFC7F
:1028B00021462846022254310930FEF756FC4034A6
:1028C00020891B211B2800D22181E28AFF20493068
:1028D000824200D2E082E2881B2A00D2E180A18AF3
:1028E000814200D2A08270BD70B5114809240268EF
:1028F0003F2040011018037F002024021419A03249
:102900000146157B10E0DA070BD06022A66E4A4321
:10291000B21892785207520F052A01D0022A00D12C
:1029200001205B08491CC9B28D42ECD870BD000083
:102930008C030020F8B507461F4809260568FD20CE
:10294000C0002C182846363036023F0584463F0D1D
:10295000AE19237D08200022A0350097B6462D7BB6
:102960000EE0DE0709D07646B66E60275743F619AB
:102970007689009FB74200D110465B08521CD2B244
:102980009542EED82034A27E1207120F824202D165
:10299000CB0700D10820824207D062461278130785
:1029A00007D45207520F824203D1C90700D1082031
:1029B000F8BD8907FBD5F8BD8C030020884200D301
:1029C0000846704770B5124A092312681B02D218D4
:1029D0000123526E83435B00491E41249B18490921
:1029E000491CC9B272B615798D420ED31E785B7838
:1029F000AD19EDB25B18AB4207D84000135C002460
:102A00005B1813541079401A107162B6204670BDDD
:102A10008C030020491EC904090E72B602788A424E
:102A20000CD9511AC9B24A1ED3B203704268880049
:102A30001058990052580021116000E0002062B641
:102A400070477047814202D25318984203D300B5B1
:102A500000F05CFD00BD521E03D38B5C8354521EFC
:102A6000FBD2704718B40168184ACB6813608C68B1
:102A7000012354604C6894600968D1604168144A2D
:102A8000CC6814608C6854604C6894600968D160AC
:102A900064216A4611700922D2066C462178491ECB
:102AA00021705169C90402D421780029F5D1227816
:102AB0002270084A8168D4680C6094684C6054683D
:102AC0008C601268CA60037318BC70471800004815
:102AD00028000048380000481FB5054C40071ECCB0
:102AE00003946C460EC4000F6946085A04B010BD2A
:102AF0003420051089084143880A401C7047032888
:102B000002D06320C043704766207047F8B54C4D33
:102B10004C492868441826464036B08BFFF7DCFF46
:102B200029684031098E401880B2E16C00F08CF8C1
:102B30000746B07F00F090F8A16D381841180720C3
:102B40000005014300913F4A2968363A881836311A
:102B500000F0E9FC412128684901421891784B07AF
:102B6000014620318E7D5B0F37093F013B43937057
:102B70007207520F8A75334AA8313C3A801800F028
:102B8000D7FC2868A16CC0300268A2640160286884
:102B9000E16CC4300268E264016028680099CC22CC
:102BA0001150D030A16D0268A26501602868616D86
:102BB000D430026862650160296820465C30D831F3
:102BC00000F0BBFC296820465E30DA3100F0ABFC37
:102BD000296820466030DB3100F0A5FC29682046DA
:102BE0006430DC3100F0A9FC296820466830DE3111
:102BF00000F0A3FC296820466C30E03100F09DFC19
:102C0000296820467030E23100F097FC29682046A0
:102C10007430E43100F091FC296820467830E631C8
:102C200000F08BFC296820467B30E83100F07BFC0B
:102C3000296820468430EC3100F07AFCF8BD0000B1
:102C40008C030020580800004143080A292109018B
:102C50004843C00A401C7047012801D00148704712
:102C6000002070477A030000FEB503462C48412738
:102C70000268092000021018816E602058430C1869
:102C8000284811461018284E7F019D01D219AE190F
:102C90009278C03100259A420CD102464032174644
:102CA000928E3F8F009784273F58012301977B27FF
:102CB0003F5C07E08A8CCF8C0097CF6A0023019796
:102CC00028277F5C0297A779FF0708D02789D21BA6
:102CD0001204120C03D12246FEF77CFB0546A079B4
:102CE000810710D522890099891A491C0904090C09
:102CF00009D1FD21084001ABA071314605222131E7
:102D00001846FEF732FA002D09D0054800960168F2
:102D100004482B4609182246002000F021F8FEBD89
:102D20008C03002058080000CC00002010B50A4A8F
:102D3000830B12688004526A800C140A60435A4361
:102D40008009101800228A5E821A10464030C0099D
:102D5000C3019A1A0A8010BD8C030020002070471E
:102D6000FFB506468DB050890690F94809210068E4
:102D700009020A904018806E14460C905279204641
:102D8000403051061D460B90002901DBE8076FD04B
:102D9000002008900B9800880190A089A1698446C2
:102DA000A0784007400F05282FD003282DD0012000
:102DB0000990BF20024062710E9FEA0738464030FA
:102DC0001037002A09D03C21089100210E9F06915E
:102DD000019181838C468180083739220A9B5201F8
:102DE0009B185A79920612D5DA7992070FD5808806
:102DF000019B624601920390009302913946069B23
:102E0000089A099800F09EFB32E00020D0E7007994
:102E10000903090C6246019B0293039204910590F9
:102E2000786801970002000E00900A98A03000799F
:102E3000C00701D0002000E010208030099B069AD6
:102E4000089900F081FBE8070899C00F08430FD1EB
:102E500078680622C003C10FBE4800688163394606
:102E6000393000F0ADFABB480068383000F0B0FBF4
:102E70000E9F28070122C037002872DA2069844695
:102E8000E80301D5162017E0A80301D5132013E0AD
:102E9000280301D528200FE0E80201D53D200BE0F2
:102EA000680201D5222007E0680334D56079000666
:102EB00001D4082000E03E200290B87B6021484306
:102EC0000C994018A04201D10820B873F87B60210A
:102ED00048430C994018A04201D10820F8739E483D
:102EE000008843079A485B0F0068014640314F7BDA
:102EF0009A4097434F73052261469202114220D0B7
:102F000029041ED5218A49040ED5A0300079C007B6
:102F100003D0002002E01F20CEE710208030069A68
:102F2000029900F057FB0CE0A0300079C00701D0F7
:102F3000002000E0102000238030069A029900F063
:102F400075FB206A002801D000F09EFB0020206263
:102F500060627F48A4210068095CC90702D000258F
:102F600001E039E010250299069F02238035079180
:102F7000E90603D50222BF210D4006E00721090220
:102F80004118897FC90614D500222907890E09181E
:102F90000120C0020818C06C294600F097FB010010
:102FA00007D000220A71CF80079A0A72284600F0E3
:102FB000EBFB2046383000F0FBFB00272761E0697F
:102FC0003D46002807D0828806998A4203D1012114
:102FD00000F0F0FBE76187E1680621D5A0784007A3
:102FE000400F052801D1A1696161002105280CD09D
:102FF000208BA2890004000D019000920B98069A84
:103000000388802000F0F4FB6EE1606B4389028945
:1030100001930092C3888020069A00F0E9FB6AE0E1
:10302000680723D5802004904948072100680902D9
:103030004118C97F0223069F0907CCD59902401881
:103040000C22C06C049900F041FB0100C3D08F80BA
:10305000F2788A713379727912021A430A81B3794C
:10306000F27912021A434A8104983BE12805800F45
:1030700006D00E98694631C1684600F0EFFB33E197
:10308000364805423DD0E80401D5002000E01A2072
:10309000079006980290F01C8021089005912C481A
:1030A00039210068490141184A79032392061AD54B
:1030B0008979090717D50121C90240180E22C06C71
:1030C000059900F003FB019000280CD007990171CD
:1030D0000299C18008220830089900F071F901991D
:1030E000059800F051FBA0784007400F052802D05A
:1030F000022803D0F8E00820B873F5E00820F87340
:10310000F2E068042CD5208A4004114800680CD5F0
:10311000A0300079C00701D0002000E0102000217D
:103120008030069A00F056FA0CE0A0300079C00713
:1031300001D0002000E01020012300218030069AF9
:1031400000F074FAA0784007400F0528D3D0CBE0F8
:103150008C03002050030020C00000200010000459
:1031600028021ED5208A00051AD59348F1780068F8
:10317000A0300079C00701D0002000E0102000231B
:103180008030069A00F052FAA0784007400F0528D8
:1031900001D10820B8734321206989028843206146
:1031A000A2E00E992A06803184480191002A26DA8D
:1031B00002A9334607910D337F4900930968169F92
:1031C00009180822F01C2637FDF7CFFFF17A307B73
:1031D0000822000208430199C88307990098FDF767
:1031E000C4FF009B0422184639460830FDF7BDFF96
:1031F00001980299C16301980399016474E029015F
:103200003CD56D49A4220968525CD20701D0002741
:1032100000E010270818039001980323C08B803723
:103220000590F80603D50622BF20074009E03920A3
:10323000400108184279920656D58079C00653D5C8
:1032400004223807800E41180120C0020818C06C03
:10325000394600F03BFA0190002845D0001D02904D
:103260000699018002980822801C039900F0A8F8B2
:103270000298059941813846019933E0A80200D5AA
:1032800039E7A80130D5802001900B98069F40892E
:1032900002900B983921008B07900B984901C08947
:1032A00006900B980323408B049043480068411814
:1032B0004A79920618D58979490615D50121C9029E
:1032C00040180622C06C019900F000FA01000BD0F2
:1032D0008F80029ACA80079A0A81069A4A81049AC4
:1032E0008A81019800F050FAA8060AD5206A016880
:1032F000216200210160226A002A00D1616200F08F
:10330000C3F9E8061AD5FDF7F3FE012852D01F27AE
:103310007078B11C0740E0693A46806800F09FFA77
:10332000E069C780E069002707603078E1698007BD
:10333000800F0873E06900F0BDFAE761E80137D556
:103340001698C18901204007091849880818017892
:103350004906CD0F06A900F0CBFAA1200090A67B6C
:103360000698089007980990134839210068490188
:103370004118497E0223C9071AD09902001D40183E
:103380000F22C06C009900F0A1F9040010D0267142
:10339000271D6571042208A9A01D00F011F8042260
:1033A00009A9B81D00F00CF82146009800F0ECF9CE
:1033B00011B0F0BDFF27ABE78C0300209C09000093
:1033C00010B5040000F0A2F8200010BD10B50400F4
:1033D000080011000200200000F094FA200010BD47
:1033E00080B500F0B9FA02BD70B5054616460C4628
:1033F000084600F0C0FA286021796079000208438D
:1034000031044018686070BDF7B50F4682B00321E3
:10341000FFF790FA0646FEF76BFF0090082E02D3E6
:10342000022005B0F0BD2948294900684518092146
:1034300009024018816E602070430C1872B6A078A3
:103440004007400F052804D0022802D00C2062B6A5
:10345000E7E76079800701D03A20F8E7204640305E
:10346000478004990182017F202211430177616B1B
:1034700018480860676B204602224430F91CFDF7AB
:1034800074FE20460222791D5230FDF76EFE204662
:103490000222F91D4230FDF768FE3946204602221D
:1034A00009315030FDF761FE6079012108436071F8
:1034B0007D2000994002002904D0C035A881EE7318
:1034C0000020C4E7C0356881AE73F9E78C030020A3
:1034D000580800000309140070B4103A03D378C9E7
:1034E000103A78C0FBD2530701D318C918C001D5D0
:1034F00008C908C0D20704D30B880380891C801C2C
:10350000002A01D50B78037070BC70478B0701D17E
:103510008307E1D0124205D00B78491C0370401C90
:10352000521EF9D1704702780B7803700A70704709
:1035300002680B6803600A60704702880B8803808A
:103540000A80704770477047FFB51F46052306463F
:10355000C1061E4881B0006803D50522BF210E4078
:1035600009E03921490141184A79920629D589791A
:10357000C90726D003223107890E08180121C90284
:103580004018C06C314600F0A1F804001CD002982D
:1035900020710398E08027720A9860722046251DEA
:1035A00006220A300B99FFF70BFF0C98A8810D98A3
:1035B000E8810E9828820F98A8742146304600F0C2
:1035C000E3F8002005B0F0BD0720FBE78C030020E6
:1035D0000120704770B50E4601230446C10612480B
:1035E0001546006803D50422BF210C4008E03921AC
:1035F00049014118C978090601D4002070BD022292
:103600002107890E08180121C9024018C06C214603
:1036100000F05CF8010005D00E71CD80204600F06E
:10362000B3F8EAE7072070BD8C030020F8B51D460B
:103630000F4602230446C10612481646006803D509
:103640000322BF210C4008E0072109024118897FAD
:10365000090601D40020F8BD01222107890E0818AF
:103660000121C9024018C06C214600F02FF801006A
:1036700006D00F71CE800D72204600F085F8E9E784
:103680000720F8BD8C03002070B5C17C0E4D4906A3
:10369000490EC174044601232868D90240189026B7
:1036A0000022C06C314600F011F8010003D0304612
:1036B0004C6000F069F84B202968400109184878EF
:1036C000401C487070BD00008C030020FFB504460C
:1036D00000262C4F83B09C460D46080616D572B6C0
:1036E00001AB6A466146204600F050F900280BD035
:1036F00068468188009882789208920082700180E2
:103700006180012662B615E062B621E001AB6A462F
:103710006146204600F03AF9002819D0680609D41D
:1037200068468188009882789208920082700180B1
:10373000618001260098AA00817840238907890FBB
:103740001A40114381700599C170002E0ED115E009
:103750000020009072B6A8060FD401203968C0027C
:103760000818816B08221143816362B672B638680B
:10377000F7224030C1791140C17162B6009807B09C
:10378000F0BD00008C0300200A46400608D5D07822
:103790003A280AD2111D054B80001B5810461847C5
:1037A000907880088000801C8870704784F704102F
:1037B00070477047F8B50E460C4909220968120295
:1037C0008918083807464C6E00F016F90546394648
:1037D000A06800F01BF972B67100605C401B605479
:1037E00020794019207162B6F8BD00008C030020DA
:1037F000F8B51D460F4603230446C1061648164673
:10380000006803D51022BF210C400BE0392149018B
:1038100041184A79920602D58979490701D40020D6
:10382000F8BD0D222107890E08180121C902401890
:10383000C06C2146FFF74AFF01000AD00F71CE800D
:103840000D81069A4A81079A8A812046FFF79CFFDC
:10385000E5E70720F8BD00008C0300207047F8B5AD
:1038600004460D46501E1F210843401C0004164606
:10387000470D1ED0204608302946421A002A01DD95
:10388000082A03DB2022FFF7DDF804E0082208C93C
:10389000521E08C0FBD12035202E01D2304600E058
:1038A0002020A080301A7F1E24683F0486B23F0C7F
:1038B000E0D1F8BD70B50D4D044601232868D9024A
:1038C000401890261A46C06C3146FFF7FFFE0100F3
:1038D00003D030464C60FFF757FF4B20296840016A
:1038E00009180878401C087070BD00008C03002087
:1038F00010B50B4601784906CA0F811C184600F026
:10390000A0F810BD1206130A1A43130C1A4300BF85
:10391000094205D0830707D00270401C491EF9D127
:10392000704700000022FFE71300103906D330B4BF
:103930001400150010393CC0FCD230BC490700D33C
:103940000CC000D504C0890002D30280801C00296D
:1039500000D5027070477047A446521E08D3037802
:103960000C78401C491CA342F7D0181B64467047D2
:103970000020644670470178427813028278C0784C
:10398000120400061043184308437047F0B54488FA
:10399000491CA4B2E5B2A40809B21C808EB2878883
:1039A0003619BE4204D9A6B2891B6D1C09B2EDB20C
:1039B000A4002418083414601C88AD076418A400FF
:1039C000AD0F2C43A4B21C800388E31A9C07A40FFC
:1039D000012C02D803D1002B01DD00230AE00123D2
:1039E000002907DA11688C78A408A400641C8C7084
:1039F000083010601846F0BD0021002804D0491C92
:103A00000068C9B20028FAD108467047002917D0CB
:103A100072B60278002A03D0436892009A58116067
:103A200010B400238B800278521CD2B2027044681A
:103A30009200A15009680029F4D162B610BC704709
:103A4000704770B5044616460D460846FEF7C9FB9A
:103A50002060281DFEF7C0FB31044018606070BD77
:103A6000BFF34F8FCF48D0490860BFF34F8FFEE7B9
:103A7000CE4881784170704710B5CC4C2078002832
:103A800007D00020207000F03FFB9321A08C00F0B5
:103A900043FB607810BD80B5103000F052FB01BDD3
:103AA00010B500E0521E130609D00300581C0C008C
:103AB000611C1B782478A342F4D0012010BD0020A3
:103AC00010BD0000F0B58DB00AA800BFA1A11CC9AF
:103AD0001CC0022000F084FB06AC662020709A20F7
:103AE00060700C20A0702020E0700020207108265B
:103AF0006671A720A071BA20E071E3202072112026
:103B000060720620A0728527E772C0202073F7201C
:103B100060739720A0738A20E073A44D102206A939
:103B200028003830FFF74CFC2800103000900A23A2
:103B3000012229003831022000F079FB002837D11A
:103B4000662020709A2060700C20A0702020E07009
:103B5000002020716671A720A071BA20E071E320D7
:103B6000207211206072A672E772C02020738C2030
:103B700060732E20A0731220E073102206A9280083
:103B80004830FFF71DFC28001230059000200490FB
:103B90001020039004200290002001900220009049
:103BA00008232A0048320221288A00F05BFB002803
:103BB00000D0CCE0662020709A2060700C20A070AD
:103BC0002020E070002020716671A720A071BA202B
:103BD000E071E320207211206072A672E772F0207B
:103BE0002073992060730F20A0732120E0731022AE
:103BF00006A928004830FFF7E3FB280014300590A1
:103C000000200490102003900520029000200190D5
:103C10000E20009009232A0048320221288A00F051
:103C200021FB002847D10AA8039009200290002018
:103C30000190092000900123AA8A298AA88C00F00B
:103C400030FB002837D1662020709A2060700C204D
:103C5000A0702020E070002020716671A720A07164
:103C6000BA20E071E320207211206072A672E77220
:103C700080202073AA2060739120A0732620E07317
:103C8000102206A928004830FFF79AFB28001630BA
:103C90000590012004901020039005200290002040
:103CA00001900E200090D4232A0048320221288A55
:103CB00000F0D8FA00284AD1662020709A2060705F
:103CC0000C20A0702020E070002020716671A720D9
:103CD000A071BA20E071E320207211206072A672F8
:103CE000E7726020207357206073DC20A0732B20C4
:103CF000E073102206A928004830FFF761FB280076
:103D000018300590002004901020039004200290A9
:103D1000002001901220009004232A004832022142
:103D2000288A00F09FFA002811D18F4804908F480C
:103D3000059004A8039002960020019000960123AC
:103D40006A8A298AA88C00F0ACFA002800D04720A3
:103D50000DB0F0BD020000000000000000000000F7
:103D60001FB50100CB4C608B401C00F0C1FA00294C
:103D700011D120000C30039004200290002001900B
:103D8000042000900123228B218AA08C00F089FA64
:103D90000020607160831FBDBE4A01235371D08132
:103DA000918170470400FA050CED00E0CC02002080
:103DB000F8B584B0B74CA0840025A08A401C81428D
:103DC00028D1E570257118790006D97809044018C2
:103DD00099780902401859784018E062187A00066C
:103DE000D97909044018997909024018597940187D
:103DF000A0621978012901D0032901D1012100E035
:103E0000082121726063A5832563E583042000F007
:103E10007BF9A7E0208B861CB1421AD1E583A581EE
:103E2000E58121000C31039104210291019500915B
:103E300001230200218AA08C00F033FA002802D16D
:103E4000022000F0E6F9607A032801D01720E08410
:103E500088E0E08A401C8142FAD16079002806D0CF
:103E6000608B401C6083207AFFF77AFF7AE0E08C59
:103E7000001F0090C110090F081800110290C00126
:103E80000190A08B019988426CDA1000A28B0390FC
:103E9000974819000CE0855406E0E76ABA42FAD266
:103EA0004F1C961BBE5D8654865C5E40E671521CBC
:103EB000A68BE379039FF7193F1FBA42EDDB039806
:103EC0000818C01E077846787E40807870405840B9
:103ED000E071A283238C5A1CE08BE6790F78BE42F6
:103EE00032D1029E36018919CE7836028F78F619C2
:103EF0006684668CB0421FD1401CE083497801295A
:103F000006D0761C02994E433101E26A914228D3D1
:103F1000A081E581A68B3000019900F0E9F9002924
:103F200007D0E06A216B401A0199884219D2864273
:103F300017D30120A07114E06083002B00D1002270
:103F4000E283E18BF02006E06083002B00D10022A9
:103F5000E283E18B0F20FFF71FFFA583207AFFF795
:103F6000FFFEE57105B0F0BD1005F8001007E7FF92
:103F7000F8B584B00400474DA879002800D17EE050
:103F800000F010FA0100200000F015FA0400E88C9F
:103F9000001FC110090F081800110001001DC0000A
:103FA000C110090F081800116B214843FA2189003C
:103FB00000F09EF9401CA04261DA0027AF71AF719A
:103FC000688C2884A86A296B401868630024002143
:103FD000474E04E01034A4B2686B10306863AA8BBB
:103FE000944222DA686BAB6A10339842F2D0111B0C
:103FF000102904DB311900F0B5F810220FE0311957
:10400000C97809063219927812048918321952783F
:1040100012028918325D891800F093F804223119D0
:10402000686BFFF73DFD0100D4D0002906D1286B55
:10403000A98B401828630020AF8300E03C20E88172
:1040400028000C3003900420029001970090012377
:104050002A8B298AA88C00F024F9286BE96A884207
:104060000DD3022000F0DCF822492348FFF713FDAE
:1040700000212248FFF70FFD01202870A87005B02D
:10408000F0BD1F48C91EC184417A02220A43427210
:1040900070470000CC02002038B504001848417A6F
:1040A00001220A434272C08C001FC110090F091877
:1040B00009110901091DC900FA25AD00C810000F3A
:1040C000401800116B214843290000F011F9401DF0
:1040D00068430C4900F00CF90100C8200001009071
:1040E00000238AB289B2200000F06BF931BD0000D4
:1040F00094030020AA5555AA00F8051000080410E2
:10410000CC020020E2040000024909686831C8803E
:10411000002070478C03002010B500F05EF910BD40
:104120001C4909681C4A91420AD11C493F220A8154
:104130004006000C886111200880088AC007FCD561
:104140007047144A1268144B9A420AD1134A3F230B
:10415000138180089061116433201080108AC00799
:10416000FCD570470B4A12680B4B9A4211D10B4A8F
:104170003F23138180089061086810644868506488
:1041800088689064C868D064CC201080108AC0070A
:10419000FCD5704714000020CCBCECFC00001040A3
:1041A00038B50E4D2C000C3C002811D0022807D049
:1041B0000ED200F01BF90C2148432818083805E0FE
:1041C00000F014F90C2148432818001F006832BD84
:1041D00000F00CF90C214843205832BDA4200510F2
:1041E0001CB504000121012000F006F92000FFF7B2
:1041F000D7FF00906846062101710121817141714C
:1042000000F064F92000FFF7CBFF002100F0C6F9B1
:1042100013BD80B5FFF7C4FF012100F0BFF901BD58
:1042200080B5FFF7BDFF002100F0B8F901BD70B502
:1042300086B014461D460A4603466946881C0A9EF7
:1042400000F0B8F9002804D1012C04D0022C02D0CF
:10425000422006B070BD23462A466946304600F02B
:10426000BDF9F6E7F0B587B01C460B46054600A938
:10427000023101A80C9F0D9E00F09CF900280ED180
:104280006846058084828775C6750E9901760F99F8
:104290004176109981766946119800F04FFA07B07F
:1042A000F0BDF0B585B084460AA8F0C8684685819F
:1042B000C68103A8019002970094604600F0DCFBE1
:1042C00005B0F0BDF446002804D4494200F013F8CC
:1042D000404260474042002905D45FD000F00BF80F
:1042E000404249426047494200F005F84942604770
:1042F00003460B43E6D40022030A8B420BD2030988
:104300008B4219D243088B422ED2411A00D2014669
:10431000524110467047FF2209023FD012068B42DD
:1043200005D3121209028B4201D3121209020309AA
:104330008B4219D300E0090AC3098B4201D3CB0198
:10434000C01A524183098B4201D38B01C01A5241DA
:1043500043098B4201D34B01C01A524103098B42DE
:1043600001D30B01C01A5241C3088B4201D3CB00C9
:10437000C01A524183088B4201D38B00C01A5241AC
:1043800043088B4201D34B00C01A5241884200D3EC
:10439000401A5241CFD201461046704708B500F08E
:1043A00033FD08BD10B50920C00600690002000AEF
:1043B00000F02CFD10BD401AC01081004018001202
:1043C00070473EB56C46069D20806180A280E380E8
:1043D0002581684600F02CFD3EBD10B500F0A2FD21
:1043E00010BD7047012003490870704701480078EC
:1043F00070470000640C0020304A0129116802D186
:104400000843106070478143116070472C48027860
:104410002C4801880020002A44D109220A40092A98
:1044200000D1202011220A40112A02D1020040208E
:10443000104321220A40212A02D102008020104389
:1044400041220A40412A03D102008020400010434B
:1044500081220A40812A03D102008020800010437B
:10446000FF22921C13000B40934203D102008020D4
:10447000C0001043144A13000B40934203D10200C2
:1044800080200001104305220A40052A02D10200C3
:10449000102010438907890F03290ED1010008203D
:1044A00008437047022A01D101207047042A01D134
:1044B00002207047082A00D1042070472000904055
:1044C000080090400800104801040000F0B504798D
:1044D00022000021354B002C04D11C680568AC4338
:1044E0001C6006E0062C04D100221C6805682543E8
:1044F0001D600568CD40ED0738D5082909DA8D0023
:104500009E6A0F27AF40BE431700AF4037439F62FC
:104510002CE00D00083D082D0BD20D00083DAD002C
:10452000DE6A0F27AF40BE431700AF403743DF625C
:104530001CE00D00103D082D0BD20D00103DAD000C
:104540001E6B0F27AF40BE431700AF4037431F63BA
:104550000CE018290ADB0D00183DAD009E8E0F27D8
:10456000AF40BE431700AF4037439F86491C1A290E
:10457000BFDB01684279012A9A6802D11143996030
:1045800001E08A439A60016880790128586802D165
:1045900001435960F0BD88435860F0BD044A0129C9
:1045A00001D1106070475060704700000400004067
:1045B0003C00004070B51C4613460D46012C03D04C
:1045C000022C03D0422070BD022200E010221946C6
:1045D000FEF7F6FE2C70002070BD7047FFB58FB05F
:1045E00014460E78102205A8891CFEF78FFF4F484D
:1045F0004F490068451800F0B3FC00281ED1002C7C
:1046000057D0012E09D16846808A4A49884204D190
:104610002846A968083081424BD1284610302969C4
:104620000390814209D00AA9284600F0B5FC6846EB
:10463000018D601E0D90814202D2482013B0F0BD62
:10464000284608300CA9049000F0A6FC6846008EAD
:10465000002814D0EF680AA93846183000F09CFCF6
:10466000384620300CA900F097FC6846398D008D43
:1046700009186846008E401C081887B200E0012720
:1046800001200004C01BA04201D26120D6E72C69A2
:10469000286801901298012802D0022803D008E06F
:1046A0000520C00200E024486085012E03D0022EC0
:1046B00005D04220C2E720460830022202E0204610
:1046C0000830102205A9FEF77BFE20463146203037
:1046D000064601730F98214607802785039800F04E
:1046E00065FC2146049800F071FC27461837E76105
:1046F0006662A76126620D9884B20BE02846019994
:1047000000F054FC3846019900F060FC2868641EF3
:10471000A4B20190002CF1D10F9801880D980818CF
:1047200082B2002000F05AFC002087E78C030020B2
:10473000640700000118000001280000F3B5A5B0CF
:1047400008881A9088780C4611901022091D13A829
:10475000FEF7DCFEA08A1090A17D68460172E07D24
:104760000F90207E2090677EA07E1F90002006463E
:104770000146129020A801810F20BB4C2390BB4919
:1047800020684018199000F0EBFB00280BD10121A4
:104790001098490288425FD821A91A9800F042FC7B
:1047A000002802D0602027B0F0BD2198179000F0BB
:1047B00051FC1A9988420CD102A8019016980090D9
:1047C00013AD0ECD119800F04DFC002801D06320F0
:1047D000E9E76846017A8806800F05D0012012902B
:1047E0002068A030007B4600C80703D01298401C08
:1047F000B61C1290080603D51298401CB61C1290E5
:1048000017980DA918301D9000F0C6FB6846129C41
:10481000808EA41CA04237D317980EA92030019097
:1048200000F0BAFB6846018F00290DD01798179A3F
:104830006B46406A9B8E128D5918808B5118081A4E
:10484000A04201D26120AEE71798846911982568CB
:10485000012803D0022803D04220A4E7052000E06D
:104860001320E0832A4639460F9800F033FC422893
:1048700099D0199FE28B4037788B398B411A109869
:1048800010188019814201DA48208CE70EA901989E
:1048900000F082FB6846008F0028179802D0406A1B
:1048A000808B00E0008D2599401C0880259801210F
:1048B0000088A083259802220088401CA8836C48A9
:1048C0002081204620301790C170002181708171B5
:1048D0001998398B406D40186946A061097A0170BA
:1048E000A06929461C31401CFEF76AFD1198012879
:1048F000A0697DD0102213A9C01CFEF761FD2846D7
:10490000102213A90830FEF75BFD388B1330388373
:104910002E4620361198F0701098E8831F98B070DA
:1049200010982084109828841998398B406D40186D
:10493000A8610021109AFEF749FD398B10980818DC
:104940003883179901200871179900204871307138
:104950006846007A810701D50121317101070227DC
:10496000002902DA317939433171410703D53179B0
:10497000042211433171400603D5307908210843E0
:1049800030710F9870712098B07121461D9800F019
:104990000DFB2146019800F019FB29461D9800F0F7
:1049A00005FB2946019800F011FB1298002841D020
:1049B00068461A998181A18BC181078447840124AB
:1049C00008A8047122A80A9008A884732399417347
:1049D0000F993820014008A801730721C1730025F1
:1049E00005746846007AC00708D02248694600E08E
:1049F0002BE0088203A924A800F078FB6846007A1F
:104A00008006800F07D01B486946401E088203A914
:104A100024A800F06BFB6846007A00060AD529211D
:104A200009026846018208A84473057303A924A8F3
:104A300000F05CFB259801881298401C081882B28F
:104A4000002000F0CBFA0020ADE6022213A9C01C22
:104A5000FEF7B6FC2846022213A90830FEF7B0FC88
:104A6000388B401D53E700008C03002064070000D2
:104A70000328000003290000FFB5002099B0239A05
:104A80000B90129005461490064615901C46DB4884
:104A90000B460068DA49229F4118039100210891D2
:104AA00009915188069111880A913D2149014018C8
:104AB000007BC00706D00FA9184600F0B3FA002803
:104AC0000AD102E047201DB0F0BD10AA0F991B9833
:104AD00000F0BCFB002801D06020F4E71998002802
:104AE00003D0600701D5012000E000201390A0074B
:104AF000800F1C90109817902030C078012840D16A
:104B00001798C04B01899942F9D117980699046802
:104B10000A98228C4118914233D8204620301690B2
:104B20008078012816D0E08B04901798806900786F
:104B30008006800F7ED0039840301890007A80075E
:104B400078D51C980028F5D0AE4F0F99FF3720314B
:104B5000206814E0BA4214D3B942DDD80497E4E7E0
:104B60000389A84A934203D12322125C012A08D068
:104B7000BB4203D12322125C012A03D00068884281
:104B8000EED134E105900028FBD09C480921026851
:104B900009025118C96E0027009162E0780100995E
:104BA0000390085A01055AD01999002901D088426A
:104BB00055D105997A008B69511C595C9A5C0902A0
:104BC000891889B20D91890749D00222059900F010
:104BD0004CFB002804D01998002840D0652072E7CB
:104BE000002008A9C8551C98C00718D017988069DC
:104BF0000078C00613D50D98C00710D00120C85505
:104C00000543009A039880184088159A904206D967
:104C10001590009A0398105A0005000D14901C98E6
:104C200080071CD5179880690078800617D50D98E5
:104C3000800700E083E012D50220CA5D05430243ED
:104C4000CA5500990398401840881599884206D99A
:104C5000159000990398085A0005000D14907F1CC8
:104C6000FFB266480068A030037BBB4296D8002D97
:104C700065D01898007A00065FD460480168092062
:104C800000020818C16E00201BE042018E5A360552
:104C900015D0AE070BD556183669B7070DD408AF37
:104CA0003F5CBF0703D5360701D546200BE7EE076B
:104CB00005D05218127CD20701D0432003E7401CD4
:104CC000C0B28342E1D81598C01E86B204988642CD
:104CD00000D90646A8070FD5202200201499FDF719
:104CE0009BFA129000287DD0F01C82B2002112980D
:104CF00000F0E3FA002811D1E80720D0202200209C
:104D00001499FDF789FA0B90002807D0F01C82B2A5
:104D100000210B9800F0D1FA002810D0802000F07C
:104D2000D3FA1298002802D00021FEF743FD0B9819
:104D3000002802D00021FEF73DFD6420C3E6A169F2
:104D40000A98069A08182499FEF73AFB1698807874
:104D5000012801D10498E083002D46D0274B09207B
:104D6000196800020818C16E002008AA0CE043016F
:104D7000CF5A3F0506D05F18BC463B69175C3B43E2
:104D800067463B61401CC0B21C4B1B68A0331B7BB9
:104D90008342ECD8A8070DD512980090F01C82B27F
:104DA00021461C310220A36900F09AFA02201299D0
:104DB00000F0B5FAE80718D00B980090F61C2146D1
:104DC000B2B21C310120A36900F08AFA13980028BE
:104DD00005D00B988021C07C08430B99C874012032
:104DE0000B9900E005E000F09AFA00206BE6422003
:104DF00069E6802000F068FA9FE700008C0300203D
:104E000064070000032800007047704710B5074989
:104E10001D22096892018C18A169401A0002000A3B
:104E2000FDF71AFC6169081810BD00008C03002012
:104E3000FEB50488418801918688C7880089009062
:104E4000204600F093FA050066D0E878002863D089
:104E5000A8780007400F01D046255EE020222146B9
:104E60000020FDF7D9F9040048D001992C48891F8A
:104E700081424BD8B11F814248D80198B04245D8F1
:104E8000FF20F530874241D20099781C7043890099
:104E900088423BD822490098091F0A38884235D8F1
:104EA000A06812210173A068E9784173A068082105
:104EB0008173A0680021C173A068019901740199F0
:104EC000A068090A4174A068310A8674A068C17498
:104ED000A068390A0775A0684175A06800998175B6
:104EE0000099A068090AC1750C20E08021460520C0
:104EF00000F056FA002803D0412508E064250CE0B4
:104F0000A87806210843A870002506E04225002164
:104F10002046FEF74FFC00E042252846FEBD00007B
:104F20007A0C000070B50D460B490024884204D865
:104F30000321FDF7FFFC082801D302240AE00749FA
:104F4000012209682031C97D8240114202D12946DF
:104F500000F04CFA204670BDFF0E00008C030020CC
:104F600010B50B480B49006844184034207AC0073C
:104F700009D0002000F08CFA217A890701D5002899
:104F800003D0002010BD472010BD642010BD0000DC
:104F90008C03002064070000026800230B8082421B
:104FA00003D09BB212685B1CF8E7704700B50B4654
:104FB00000F08CFA002808D003CB083B086003CB34
:104FC00041600020083B1860586000BD08604268DE
:104FD0004A604268116041607047704730B50F4BBE
:104FE0000F4D1B6804465B1940331B7A412085B086
:104FF0009B0710D56B469981DA8100201882042026
:10500000588203AA04A96D4607C502231A46012146
:105010002046FFF731FD05B030BD00008C030020B5
:105020006407000010B5094A094B1268D21893684A
:10503000083206E01C8D844202D100200B6010BDB6
:105040001B689342F6D1412010BD00008C03002064
:105050006407000002480068AE3000887047000016
:105060008C0300200FB410B5079C01282DD1684691
:1050700080891749884210D103A80FC800F031FA7F
:1050800000281DD100F04AFAFA281ED001281CD9A8
:105090002078F3210840207017E00D49491C884210
:1050A00008D0C91E884205D0491C884202D0C91CBC
:1050B00088420AD103AC0FCC00F013FA002800D0CC
:1050C000632010BC08BC04B018470020F9E70000BA
:1050D000022A00002423184204D0C81F092803D83C
:1050E0002032D1710020704742207047F3B597B04D
:1050F0000D8848880590081D1DC80DAE1DC68C8AF8
:10510000CE8A087E1390C8692031019008780090FB
:105110004878049088780390C87802900F79FFF758
:105120001FFF002817D10120400284425FD8B442FB
:105130005DD8002F01D1B44259D114A92846FFF7F8
:1051400071FF002806D115AA1499059800F07EF881
:10515000002802D0602019B0F0BD149D11A9284686
:105160001830FFF719FF10A88088002810D02846B3
:1051700012A92030FFF710FF10A8838800892A8D1C
:105180001818696A10188A8B904203D16120E2E7EF
:105190004820E0E715982C4B02899A4227D1232218
:1051A000125C012A23D10068006816901398012828
:1051B0001FD16846808E29221202801A030000F057
:1051C000C9F90604180404070A18022C0FD110E0CC
:1051D000072C0CD10DE0042C09D3E00707D1012FD7
:1051E00007D1A64203D3042E01D3F00701D04220F9
:1051F000B1E702980B90039B049A0A9309920098D6
:10520000019A0C9708900696059407920DA81DC860
:10521000019002A81CC013980B4600902A461699CC
:10522000179800F0A5F9002895D168460649808EA8
:10523000FF31884205D01798018800200A46FFF701
:10524000CDFE002087E700000328000010B50B6AA0
:10525000203106E09C8B844202D10020136010BDF7
:105260001B688B42F6D1412010BDF8B516460D469D
:105270000746002400F028FA002806D032462946C6
:10528000384600F047FA044604E0203568790028E3
:1052900002D00E242046F8BD2879C10701D1012E85
:1052A00009D0810701D4022E03D04007F2D4042E86
:1052B000F0D10324EEE70224ECE710B5121D80685C
:1052C00092B200F077FA10BD04490A683D21490105
:1052D00051180A7B02430A73704700008C030020B8
:1052E000F8B5069C1F4615460646002C13D0A0684C
:1052F00002220D30FEF764F8E81E82B23B46072119
:10530000204600F08DFAE580A068012E05D01D2111
:1053100001730020F8BD4720F8BD1B21F8E77CB5DC
:105320000C4605466A4601A900F084FA002801D01F
:1053300041207CBD6846E1888088814200D9E080B8
:1053400000980088A080204600F09CFA0098012D6B
:1053500007D0016908221143022291430161002014
:105360007CBD016949084900F8E7704730B502463D
:105370000A4801230068DB020021C318A030047B27
:1053800007E0586B0D0140190588954204D0491C6F
:10539000C9B28C42F5D8002030BD00008C0300203B
:1053A00010B50C460146042805D0052903D006296E
:1053B00001D0502010BDA068A2790272E088020AD4
:1053C000A0684272A0688172A068090AC172E08870
:1053D000001DE08002202073204600F069FA0028BA
:1053E000E8D0E088001FE080412010BDF8B50646F7
:1053F00024480F460068244944180921090240182E
:10540000816E602070430D183046FCF771FF002854
:1054100016D02046CF30CC3472B602780121B1408C
:10542000082A02D36A7992070ED06879800726D4B9
:10543000144800682030C27D0A43C2753A201FE03C
:105440002046CE30CA34E7E77A06104B5208D2180D
:105450006B6B1A603A0601D4132200E012226B79BA
:1054600013436B710670288B2080403505486F7799
:1054700000682030C27D8A43C275002000E00C2005
:1054800062B6F8BD8C030020580800000302020039
:105490000D490922096812028918496E72B6012263
:1054A000824350004218084B095C09201B68000227
:1054B0001818406E527800798A4202D9511A401A5F
:1054C000C0B262B6704700008C030020026804E09E
:1054D0008A4201D10120704712688242F8D100202F
:1054E00070471FB582B00024FFF7B4FD6946FFF78F
:1054F00099FD009A6846116A0089203209E0232349
:105500005B5C012B04D10B89834201D1641CE4B2A2
:1055100009689142F3D1204606B010BD70B50C4821
:1055200013210068C90140181426C56A00242846C2
:1055300000F0F0F9FC2805D0FE2807D0002803D0A1
:10554000FA2070BD641CE4B2AD19F0E7204670BDCE
:105550008C03002030B47446641E2578641CAB4272
:1055600000D21D46635D5B00E31830BC18477047EE
:10557000FFB55248524A006887B08218069210AAB6
:10558000109B0126169F9288012B04D14D4B9A4205
:1055900001D1A030067B069D34464035688B2B8BAD
:1055A0007C43C31A099820300390A34222DA482092
:1055B0000BB0F0BD2320405C012819D108896C464E
:1055C000208098420CD03F4C641EA04208D0641C3E
:1055D000A04205D0641CA04202D0A41CA04207D166
:1055E000384CFF3CA04201D0904201D16220DFE75D
:1055F000096801E029231B0203988142DAD1099846
:105600001B99846918982246FFF764FD4228CFD081
:105610001C98012804D11598874201D24220C7E77F
:105620001598E083204620301C99059081702784CE
:105630000A98808B401CA0831098012814D0204623
:10564000102211A90830FDF7BBFE05991098C8700B
:105650000698298B406D4018A061298B384670430D
:105660000818288300250FE011A80FC808340FC4BC
:10567000183CEAE72846A16978430818159A179953
:10568000FDF79EFE6D1CEDB2B542F3D30599189857
:10569000487105991998087105991A98887109989F
:1056A00021461830FFF782FC21460398FFF78EFC55
:1056B0000798A18B018000207AE700008C0300206E
:1056C000640700000229000070B500281BD0030504
:1056D0000F48002100680D4A1B0DA0301268047BA2
:1056E0000FE008467C267043D56F0830285A000525
:1056F000000D984203D17C225143681870BD491CAB
:10570000C9B28C42EDD8002070BD0000900300208B
:105710008C03002070B515460C46064600F004F9CF
:1057200020346179012D09D00A0702D54207920F72
:105730000FD0CA0625D5020709D522E0CA0702D034
:105740004207920F05D08A0705D5020703D4082027
:1057500070BD052070BD490707D5C00709D0E179A4
:10576000304600F0F8F85F2805D02079C00704D053
:1057700005E00F2070BD0C2070BD022070BD002020
:1057800070BD890607D5C007F3D0E179304600F037
:10579000E2F85F28EFD02079810701D4022D07D0ED
:1057A000410701D4042D03D00007E8D4082DE6D129
:1057B000032070BDF7B507461848092100680902A3
:1057C0004018446E41201646002F11D0384600F094
:1057D000D2F80546B0420CD2301A81B20198FDF7DA
:1057E000F1F8002804D132463946A06800F0CDF81F
:1057F000FEBD32463946A06800F0C7F86D1E761E21
:1058000069097209891A72B6019A5200A35C5B1A7F
:10581000A35422795118217162B6FEBD8C03002079
:1058200010B51C4613460A468068214600F0F4F87D
:1058300010BD7047F0B5944600220A806346104CB4
:105840001A60092322681B028646D2184120D26EB4
:1058500000230FE05D01AD182F697646374207D06F
:105860006F880E88B74203D90F806046056000201C
:105870005B1CDBB22568A0352D7B9D42EAD8F0BDCC
:105880008C03002010B5044601460420FFF788FD74
:10589000002808D0044805490068401821463C30DB
:1058A00000F0EEF8432010BD8C03002064070000D8
:1058B00010B5044600202082A074A168A161616136
:1058C0002060204600F0F2F8452801D0412010BDAC
:1058D000A0880321FDF72EF80446FCF709FD0028F7
:1058E00013D072B60A480122016849204001091804
:1058F000487EA2401043487662B60020FBF79CFE2B
:10590000002802D00020FBF79BFF002010BD000004
:105910008C03002003498000401800680006400EF8
:10592000400070470000041010B50024FFF7CCFEC3
:1059300000280ED00089C10407D50124810401D5B7
:10594000032402E0410400D50524000401D408200A
:105950000443204610BD10B50C46FFF7B5FE0028E5
:1059600007D0817A002904D0007FA04201D3002013
:1059700010BD5F2010BD0021002804D0491C006824
:10598000C9B20028FAD14801704730B400240B1E78
:1059900022D02034A4B294421AD30A68002A35D007
:1059A00072B60378002B03D044689B00E3581A605A
:1059B0000024948003785B1CDBB2037045689B0075
:1059C000EA501268002AF4D162B6002008601DE097
:1059D0000B4609680029DCD1111B491EC9040A0EB7
:1059E00072B6017891420CD9891AC9B24A1ED2B254
:1059F000027040688900920041588258002010606F
:105A000000E0002162B61960002902D030BC0020FD
:105A1000704730BC47207047FFB504465009000668
:105A200081B01F46000E06D0002C23D0401E2468F3
:105A30000006000EF8D1D606F60E17E02020851BD2
:105A4000BD4200D33D46A0192A4608300299FDF711
:105A5000B7FC0298711940190290781B87B2A08890
:105A6000884201D2A819A08024680026002F04D003
:105A7000002CE3D1412005B0F0BD002005B0F0BD01
:105A800010B5044600200860206800280CD060682B
:105A900001600846616000F031F8E17A4018E07278
:105AA000A07A401CA07210BD2160F2E710B5044638
:105AB00080880321FCF73EFF022172B6082815D228
:105AC0000D4A1368092212029A186023926E5843F5
:105AD000831CD35C002B09D0002110182160016ABF
:105AE000002906D0416A0C604521446262B608462E
:105AF00010BD0462F8E700008C03002010B5806838
:105B0000FDF77AFF10BD7047F8B596B00500170095
:105B10001E001C98049103A92B22885400200A908F
:105B200002950E9700960EE0252912D00498029A4D
:105B300090470490002800D1D2E00A98401C0A90B7
:105B40000E98401C0E900E9801780029ECD10A980E
:105B5000C8E00020079008900990022608210191D2
:105B6000012404210E9D00E020436D1C2A78202A88
:105B7000FAD0232A0AD02B2A04D02D2A04D0302A86
:105B800008D00AE03043F0E70843EEE702000820BF
:105B90001043EAE702001020FAE72A2A0ED1009A01
:105BA00017683A683F1D009B1F600C92002A03D5BE
:105BB00053420C93014308006D1C14E000210C912A
:105BC000004A0BE0CBCCCC0C0C9B934205DA9F0037
:105BD000FB185B00591830390C916D1C29780B00AB
:105BE000303B0A2BF0D329782E2903D00021C9435A
:105BF0000B9127E06D1C29782A2908D100990968A2
:105C00000A68091D009B19600B926D1C1AE02D2972
:105C100002D12D236D1C00E0002300210B910CE02C
:105C2000002B09D10B9ABC4FBA4205DA9700BA187B
:105C30005200511830390B916D1C29780A00303A06
:105C40000A2AEDD303A908852F783900B3A000F004
:105C50001BFA002801D038006D1C03AF2A217854AC
:105C6000785C682805D12878682802D162207854A9
:105C70006D1C10A806902A78681C0E90252A15D055
:105C8000582A52D0632A00D1BCE0642A00D17FE0B8
:105C9000692A00D17CE06F2A47D0702A3AD0732A53
:105CA00008D0752A41D0782A3FD0B5E0079410A9D2
:105CB0000A70BAE0009800680468001D0099086046
:105CC0000594002C13D12B20385C00280CD0002424
:105CD000E44300BF93A000F0E1F9201A00D1A4E052
:105CE0000020C04317B0F0BD95A005909DE00B9D2E
:105CF000002D03D5200000F0F5F909E02A0000216D
:105D0000200000F0F7F9002801D0001B00E0280077
:105D100008908AE0009800680168001D009A1060F1
:105D2000039110A80590782168E0785C622803D080
:105D3000682809D06C280FE0009801680868091DE0
:105D4000009B1960C0B20DE0009801680868091D49
:105D5000009B196080B205E0009801680868091D81
:105D6000009B19600390388D0199C0B2084240D061
:105D7000039800283DD020201043782839D1079877
:105D800010A930230B54401C431C07930A5430E0E5
:105D9000785C622803D0682809D06C280FE000984E
:105DA00001680868091D009B196040B20DE0009869
:105DB00001680868091D009B196000B205E00098A1
:105DC00001680868091D009B19600390002802D52E
:105DD00007982D2109E0388D304202D007982B21F9
:105DE00003E0C00705D50798202110AB1954401CCB
:105DF000079010A8079940180590110003A800F01B
:105E0000A0F812E00794009800680168001D009A4D
:105E1000106010A8017008E00794252010A90870F0
:105E2000100002D0079610A842700C980799401AEB
:105E30000999401A0899401A0F902820385C4007A9
:105E400013D42020694608710F9800280DDD0F9C9F
:105E5000029D012301AA03A9280000F0FAF80028F6
:105E600000D03DE7641EF4D10295079D10AC002DD3
:105E70000ED0029E227803A9300000F0D9F8002845
:105E800002D4641C6D1EF5D10296002800D027E7CD
:105E9000302069460871099C002C0CDD029D01230D
:105EA00001AA03A9280000F0D4F8002800D017E7C1
:105EB000641EF4D10295059C089D002D0ED0029E13
:105EC000227803A9300000F0B3F8002802D4641C43
:105ED0006D1EF5D10296002800D001E72820385C1D
:105EE000400700D42FE62020694608710F9800284B
:105EF00000DC28E60F9C029D0E9F009E012301AA54
:105F000003A9280000F0A5F8002800D0E8E6641EE8
:105F100000D105E6F2E70000CBCCCC0C686C747ABB
:105F20004C0000007072696E74665F733A206261A3
:105F30006420257320617267756D656E74000000C2
:105F40000000F0B583B00A00C4686F2901D10825AC
:105F500006E020211143782901D00A2500E0102510
:105F6000182701680E00642A01D0692A03D100298C
:105F700001D571420E00002E0CD1016A002909D111
:105F8000082D31D12821415C09072DD51727302153
:105F9000E17529E00290684602707F1E019730008B
:105FA0002900FEF7A8F93031C8B23A2803DB684669
:105FB000007851380918E15530002900FEF79BF9A7
:105FC000060004D002988068E1198842E5D302985F
:105FD000082D09D12821415C090705D5E15D30294B
:105FE00002D07F1E3021E1551821C91B4161E21901
:105FF0008260026A914206DA511A8161018D0B4A70
:106000000A40028510E0002A0ED52822825C142363
:106010001340102B08D1426A0369D21A8369D21A3D
:10602000511A012900DB816103B0F0BDEFFF0000D0
:1060300010B503000C0011006068984760600028EC
:1060400004D0E069401CE061002010BD0020C04386
:1060500010BDF8B50024002B11D007000E0014006D
:106060001D0021787068B8477060002809D0F06979
:10607000401CF0610020641C6D1EF2D10400200061
:10608000F2BD0020C043F9E7C9B202788A4203D0CA
:10609000401C002AF9D100207047704780B50028C5
:1060A00001D100BF07A006490B68002B03D02222B4
:1060B0000021984701E000F028F8222002BD0000EE
:1060C000600C0020636F6E73747261696E74206877
:1060D000616E646C65723A20626164206D657373F1
:1060E00061676500431C0178401C0942FBD1C01A5E
:1060F00070470000C9B2521E05D30378401C8B4282
:10610000F9D1401E70470020704780B5012000F093
:1061100001F801BD80B500BF00BF024A1100182080
:10612000ABBEFBE72600020010B5C20018231340E7
:10613000FF249C40E2438907090E9940030004D5DF
:106140005D481B071B0F083B00E05C489B089B0059
:10615000C01803681A401143016010BDFEB5012448
:106160005748017801220A4302700026554806600C
:106170000325FEF74BF96946088068460088002829
:1061800001D16D1EF5D168460088202836DB6846AF
:1061900000880125400525D4684600F0ADF9684621
:1061A0004178090180780843122800DA00258C48DC
:1061B0000068000705D4002D14D0012000F062F81B
:1061C00010E0884FF868884E3168081A28380002B5
:1061D0000012002806DD002D02D0012000F052F848
:1061E000306838608148047000F0EDF9BFF34F8FDC
:1061F0007F4880490860BFF34F8FFEE70120FEBD56
:1062000010B500220021A94804E00B00415C591898
:10621000491CC9B2435C002BF7D1CB1C202B12DAEE
:10622000022343542123441863700823A3704318A6
:10623000DA709F4A80235B02401880B218431060D6
:1062400010681840FCD110BD70B500210023974A9A
:1062500004E01C00D35CE3185B1CDBB2D45C002CB4
:10626000F7D102253524DE1C202E05DAD554D618A8
:106270007470B070D218D1708E4A157054709070CE
:10628000D17070BD70B5802149028A4B9CB20C431D
:10629000874A002804D01460106808400AD0FBE741
:1062A00098789D78FB262E409E70146014680C40F0
:1062B000FCD1987070BD00001CED00E000E400E02F
:1062C0000800204014000020F3B58BB003A800BFE5
:1062D00082A11C22FDF700F9684600F00DF9744C0C
