:020000041005E5
:10180000006000203D210610ED1D0610EF1D0610A2
:10181000AA5555AA45554C420000000000000000A2
:10182000000000000000000000000000F11D061094
:10183000000000000000000003340510F31D061036
:10184000FB1D06101F350510000000000000000001
:10185000FD1D0610533F0510051E06102B4B0510ED
:101860000000000000000000000000000000000078
:101870000000000037520510FB570510775D05107A
:1018800000000000BF41051063430510FF4905102B
:10189000574A0510274B05109F610510E35E0510A0
:1018A0000000000000000000000000000000000038
:1018B0000000000000000000000000000000000028
:1018C000F0B5FF4885B00168FE480C18FE4EB168BF
:1018D000C8017DD5204680300090806B827AEE234F
:1018E0001A40827230464A030125C068002A42DB52
:1018F0004A0105D500200921C9064860357036E047
:101900004A0012D5C178491E0906090EC17003D1DB
:101910000922D2065160357041790A0627D5490659
:10192000490E41718169416121E0E84A11420AD0C2
:10193000224620329570490202D50321917000E0C1
:1019400095708169416101792246C1704032917977
:10195000002908D00921C9068968A1640021022351
:10196000E1649377A16541794906490E41710020F0
:101970004621085543E031698A89012149075218F7
:101980005288436B5218934213D19378142B03D08F
:101990009278042A08D00CE0034640331A7FDF27F0
:1019A0003A402A431A7704E0012302699B021A4352
:1019B0000261806A408840187D210078095D0843F3
:1019C000C00606D4002009213570C906486010E021
:1019D0007CE2606D00F068FB01460920C0060269E8
:1019E000236DD21A1202120A914202D235700021DE
:1019F0004160F06801220169D20391430161B1683D
:101A0000480213D530698089012252078018408826
:101A100080187061F268536B834207D180780D287B
:101A200004D1412310699B0298431061002948DAD0
:101A30000098806B418801204007A34F0818F86187
:101A40000920C0064069C00DC00707D00020092149
:101A50007D70C90648603D709D48F3E0F8684121FB
:101A60000069490108420AD000F02EFB012829D064
:101A70001C22F86941780A4201D0091F4170F869B7
:101A80007D2201781155C94389071DD0F868006986
:101A9000C00370D500F018FB01286DD01F20F96934
:101AA0004978084267D0002009217D70C906486046
:101AB0003D708748B861F8680121026909048A43CA
:101AC0000261C0E0FC22D4E7867841781A2E76D2F3
:101AD000804A925DFF2A72D08A4270D1022E15D0C0
:101AE000F9684A79D2065BD4062E16D00A69D30368
:101AF00028D5002209237D70DB065A603D70744AA8
:101B0000BA6101200A69000482435CE0F868406B16
:101B10000560F9682320487195E00122B8699203B5
:101B20001043B8616C4A08691040152252021043F4
:101B300008612046C030C17BBA78914230D108217B
:101B4000C17380E0002E18D0012E2AD0032E2DD094
:101B50000A2E35D00B2E38D0082E39D0092E3AD087
:101B60000C2E3BD002465D4B3146012000F0AEFA10
:101B7000002868D14BE05DE05AE00A463E46214627
:101B800000F0A6FAF0698179C0790002084354494F
:101B9000400240185349896A814200D8084660656E
:101BA00051E00A46214600F0B7FA4CE0BB698026B6
:101BB0003343412000040243BB610A6143E028E053
:101BC0008920C00105E00A613DE047480240FAE78C
:101BD00010200243F7E70121090327E03B4697075E
:101BE0000426002F08DA9F6937439F6102239A4336
:101BF0000823CF26335502E0D30700D132432A43CE
:101C00000A610522C01C2C3100F09DFA1BE0072E52
:101C100006D0F8680822016911430161C67112E01B
:101C2000F969C9780E290ED101218906B9610AE046
:101C3000FF2034E72146FB683A69F86900F08CFA26
:101C4000B9690843B861204BD8681969066A0F8AD8
:101C500001225207BF1801977F88BA1800275A61DE
:101C600002979B681127BF043B421ED15F011CD421
:101C7000476B974201D0012700E00027039790426D
:101C800001D0012700E00027BC46002E0DD0039FA5
:101C9000002F0AD06746002F07D0F77CFF0904D039
:101CA0003768002F01D0012702975B0202D4029B04
:101CB000002B78D043799F0701D5002E20D015E066
:101CC000B00000205808000068000020000040809C
:101CD00008001000EE2F0510DFFBFEFF8000002043
:101CE0009AFDFFFFCC040020BFFFFEFF5B085B00F6
:101CF000476B974243D143719378042B05D016E08C
:101D00002B431F462F434771F2E72346C033DF7B47
:101D1000082F05D1DC4FBF78DF737D277F029F81BD
:101D2000D94B01279B69FF063B43D74FBB614379E2
:101D3000DB060CD5D44B09275D700023FF067B60C2
:101D4000D14BD24F1D709B693B43CF4FBB61927803
:101D5000152A32D1074640373A7FFD231A40BC4648
:101D60003A77130729D5C84B01279B697F063B4368
:101D7000C54FBB61F7231A4063461A771DE08242C4
:101D80001BD0338AB77C0022DB1933827369B361BD
:101D9000B274338AF788BB4202D2F77CFF0903D0C2
:101DA0003668202205E068E0DB0602D1B3691B68D3
:101DB000B361B54B9F693A439A6142790027D207D4
:101DC00017D0B14A436B53619A78052A3BD1026917
:101DD00020231A43026100200870487148708871FE
:101DE0008870C871C8700872087148728020487283
:101DF00029E0002E0AD000F0F9F9002806D1A24807
:101E00003322C16852010969114209D09E49012259
:101E1000C868486105800169D2031143016112E07D
:101E20009B4A317C126809231B02C906D218C90ECD
:101E3000526F0127891C89184161019A51803146EE
:101E4000C06800F0E3F9904E2121F0688901006933
:101E500008420AD000F038F9012809D01F22716920
:101E60004878024201D0001D4870002F02D004E0E3
:101E7000FF22F4E70199B08A4880834EF268106926
:101E80004106890F13D080063178C00F012902D096
:101E9000B16849031CD5002804D03069C17D0823EE
:101EA000194303E03069C17DF7231940C17521460C
:101EB0003369F06900F0ECF9307801280BD0009913
:101EC0007448896B0322091D00F06AFA05B0F0BD61
:101ED0000028E7D1E1E76C480121C2680069537925
:101EE000C67A01962026365C00278772204620306D
:101EF0000290807803281CD197796348002F18D16D
:101F00009F06BF0F15D1624F3F682037FF7C002F1F
:101F10000FD1176A002F0CD1CF273F5D8078874201
:101F200007D09089411C7043019E89B2801980B20C
:101F300001904020805A1689400048437118118151
:101F400002998978002902D15169091A51610099D1
:101F5000896B8E7A11273E438E7226464A49C036D7
:101F6000F77B89788F420AD1B189091AB1810FD5DF
:101F70004549494F4D708E693E438E6108E0566970
:101F80004149002E04DC4D70444F8E693E438E6102
:101F9000990605D53C49424E4D708B6933438B61A0
:101FA00011792746D1704037BD71E16C80B20818B5
:101FB000E0649079FB210840334E9071C00717D040
:101FC000B88E1189401A012180B2C903884205D315
:101FD00075703449B0690843B06109E0002807D141
:101FE00001230021204600F0E3F9B1690843B06104
:101FF000F06881798A0723D53A8F0389D21A521C57
:10200000012392B2DB039A4205D375702549B0696A
:102010000843B06114E0002A12D1FD221140817101
:10202000306900992130496801700A0A42700A0C2F
:102030008270090EC17060343069E17E20304171D8
:10204000019800F005FA3169C8720298002787707C
:102050007078002802D0B07800F008FA0C4C5821B3
:1020600020680D54492149014018407E002802D0C3
:10207000012000F0CFFA012000F0D0FB20684030B2
:10208000077605B0F0BD00006800002008000100E0
:10209000B0000020FA003000088040000800040072
:1020A00008000200080008000649C20B0968400445
:1020B000096A400CCB0958435143000A08182030E4
:1020C00080097047B0000020002070470020704752
:1020D00070B50C460546C178602001551646281D8E
:1020E00000F0DAFE4034A084A81D00F0D5FE208563
:1020F0002846083000F0D0FEA08528460A3000F0BF
:10210000CBFE208628460C3000F0C6FEA086B079B3
:1021100001210843B07170BD70B5054616460C46E6
:10212000C01C00F0BEFE84210851E9797B200155D6
:102130002846083000F0B0FE40342087B0790221F4
:102140000843B07170BD04E003780B70401C491C5B
:10215000521E002AF8D17047F8B51D4614460646AF
:102160000027FFF7B1FF01280CD01F20717808402D
:10217000060036D00020E86100F09EFE002803D063
:10218000E86907E0FF20F1E769893246012000F0A5
:10219000A3FEE861002801D0102722E0E07D802125
:1021A0004840E0751049286908421AD06079401EFD
:1021B00060716079FF2814D1A079401EA071A079C8
:1021C000FF280ED1E079401EE071E079FF2808D1A8
:1021D000207A401E2072207AFF2802D1607A401EA9
:1021E00060723846F8BD00002028000006480168EB
:1021F0004B20400108184178C078814201D9012064
:102200007047002070470000B0000020F8B50C4671
:10221000CA88098A4030521A8089102695B2A8428D
:1022200005D20546E07C4006400EE07403E02068DD
:10223000002800D10026002904D1207B800701D589
:10224000022000E00120CF060643FF0EE81982B20B
:102250000E48A1690368092000021818406F001D8C
:1022600000F05CFE60610948A57401680920000265
:102270000818416FB81C0E54044801680920000278
:102280000818406FFF1CC555F8BD0000B0000020C5
:10229000FFB515691E46A8032E3689B01C461746A1
:1022A000002833DA102269463046FFF74CFF092434
:1022B000E4060398A0610298E0610198206200980A
:1022C0006062354801681320C0010818816AA16264
:1022D000406AE0620A988030016C2163C06B6063E1
:1022E00000F040FEA06B0390E06B02902B48016869
:1022F000019140680090102231466846FFF723FFA5
:102300000120400485433D610DB0F0BDE8053CD59A
:1023100005A80146009010223046FFF714FFFF2069
:10232000013085434120800205433D610998082220
:1023300001A9C01CFFF707FF0998214604222A3192
:102340000B30FFF700FF154805A9283800F01CFEE8
:102350000924E4060298A0620198E062786B0822E2
:1023600003A90D30FFF7EFFE049820630398606324
:1023700000F0F8FD094905A8083900F005FE102213
:1023800031460098FFF7DFFEBEE7A07A0006BBD417
:102390000A9800F002FEB7E7B000002040000048B5
:1023A00003E00870000A491C521E002AF9D1704748
:1023B000FFB582B000230193059B012B30D04B8CDD
:1023C000224D1C010B8C9C46CB7E6B438D8BAE4605
:1023D000CD8B1646403697690096A74206D196895E
:1023E000664503D1009E3688AE4201D04026019654
:1023F00096790427760876003E439671946154617D
:1024000064469481009A1580059A012A17D00B61C1
:1024100070464A68400010184860019806B0F0BD48
:10242000034640331D461B8E084E1C01AB8D9C4657
:1024300060231B5C7343AE8C2D8DB646C9E7836564
:102440007146C26C49005118C164E6E7E20400001D
:10245000054925224143090C5143401A80B22528E1
:1024600000D32538C0B27047EB060000F1B56749CC
:10247000674A086882B082180092FD22D20086184E
:10248000AC22155C04460346029AC03436339542AA
:102490007ED909210902401817466021806E4F43FA
:1024A0000025B91C4554029800F082FD00280CD18B
:1024B0005648BF1D0168092000020818806EC05DE3
:1024C000002802D00098C030057272B64F48029DB5
:1024D0000768012039462031CA7DA8408243CA7569
:1024E000317D81433175197808077AD44A070298FB
:1024F000520F82427CD030462030827E5507029AAD
:102500006D0F954276D181760F201870404AA068F1
:102510007063BD18A86D2169A9652061686D616946
:10252000696560612146284618315C3000F05AFD2B
:102530003748A37E5E3039180A780B70A276A86CF3
:102540002168A9642060E86C6168E96460603048D3
:10255000E37E603039180A780B7021462846E2760F
:102560001C31643000F03EFD214628461E316830A3
:1025700000F038FD2146284620316C3000F032FD55
:10258000214628462231703000F02CFD214600E023
:102590003AE028462431743000F024FD21462846D4
:1025A0002631783000F01EFD194880357B3039180F
:1025B000204628300A7803780B7002701448E26ACB
:1025C0008430381801680260E1620721E06809057B
:1025D0000843A96B0322091DFFF7E2FE0AE000E0B1
:1025E00006E03A20805D41070298490F814201D1FF
:1025F0000F2018702036B07E41070298490F8142A3
:1026000001D10F20B07662B6FEBD0000B000002000
:1026100058080000F0B57E4C05467E49206891B010
:102620004018089000200D9072B600F0EDFC0028D4
:1026300001D1002D07D076480025016849204001CE
:102640000818467EDFE062B60D9811B0F0BDF007C5
:102650007ED07149A80140180E906D48016809208C
:1026600000020818816E602068430C18A178206A67
:102670004907490F02294BD1A179490748D40028BD
:1026800046D04020005B400009900002FFF70CFD9F
:10269000039000200F905E4836210068095C0A070D
:1026A0000AD44907490FA94206D1012180300F9170
:1026B000416C0191806C06E00899C96C019101217F
:1026C000C9024018C0690090FF205F30FFF7ECFCA2
:1026D00051490C39497AC90041180098411A0398A8
:1026E000081A07900E980B2141562030059100786A
:1026F0000A9000200290208906900920C0060169F6
:102700000798401A070201203F0AC00587422AD3D2
:102710006CE001200D9007990398081A0790029920
:1027200003980818029009990198401A019061696C
:1027300009980818606105990A98081A40B205902E
:102740000698401E80B206900598002804DA00E042
:1027500056E0253040B205900920C006016907986F
:10276000401A07023F0A6420FFF79EFC2A490C39F1
:10277000497AC900411826480068806A0818B8429A
:1027800007D20120C005874203D2099901988842E7
:10279000BFD802990098401A01020D98090A002832
:1027A0000CD01B4811220068D2018018806A081AD8
:1027B00000020012002801DD00200D900F98002873
:1027C00006D01348019A006880304264816408E0B2
:1027D000089A0198D0640E4802680120C0021018BF
:1027E000C1610E990598C872069820810848012297
:1027F0000168492040010818417EAA409143417672
:102800006D1CEDB27608002E00D020E71BE700001B
:10281000B000002058080000CC000020F1B5FD4FAA
:10282000FD223868D2000146851896B068301290B3
:10283000092000020818806E0F90F7480E18092032
:10284000C00600690990002014900824F348FFF79F
:102850002BFC02900020139072B63868F7214030AC
:10286000C2790A40C271129801210171129801685F
:102870004A07520F4271C9081298C900016062B636
:102880001698002801D009980EE06420FFF70CFC90
:10289000014609980918E248427ADE480068806AD1
:1028A000101808180002000A00F0DAFB686B0590A7
:1028B0003A20405D0D90082841D2012014900D98D7
:1028C000602148430F9940180390D648876AD4483E
:1028D000407AC00000F02CFD014603984030028889
:1028E00052028918CD4A524289188F4200D2394685
:1028F0007165B82189590B794A79897912021A438D
:102900008907890B1143028B408BFF311018C331AB
:10291000401800F015FD07465F200001FFF7C4FBDB
:10292000B84204D95F200001FFF7BEFB00E0384643
:1029300005990918BA48407AC00008181390706DBC
:10294000FFF7B2FB0599401801900020074603905D
:10295000287D002809D10D98082806D3B049002009
:1029600008800921C906486060E168680790686CC2
:10297000049029680998401A00020412A8480088A7
:102980004007400F00F014FB002801D0002007E0B2
:10299000002CFBDB204600F0CBFC0499884200DAD7
:1029A0000490012080070824099000200B90297DC5
:1029B0003AE00D9A904234D0964A12682032927DC5
:1029C0001207120F82422CD0EB6A420010930C9235
:1029D0009F5A00976B6A9A5A079B92017B43D318C0
:1029E000049A9C46934212DACA0710D02A6B0C9BB9
:1029F000079FD25A521C93B21A467A43009F9444BE
:102A0000FA1892B213460092109F0C9ABB52099A80
:102A10006346944505D2CA0703D0009A0993044639
:102A20000B924908401CC0B20029C2D10998FFF797
:102A30003BFB29684718A86A6100405A8001FFF7EC
:102A400033FBC01903907648407A5822C100714880
:102A50000068125C002A744A126939D0BB1A029AC3
:102A600052009B1A38E0002001E0806A4018181AD2
:102A70000002000A01460A900120C005814209D3E4
:102A8000082C7DD0204600F05FFC6449099840186E
:102A90000490686401210A98C905884281D2082CF3
:102AA0006ED00B98002835D0079948430490FFF763
:102AB000FBFA296840180002000A2860696C049833
:102AC000081A686409990498081A002109901BE003
:102AD000029BBA1A5B08D31A169A002AC5D0C2E71D
:102AE000EA6A480007909446105A0B9A801A04E04C
:102AF0002B6B079A401C9A5A10180028F8DB079B8A
:102B00006246491CD052C9B242480068A030007BDE
:102B10008842E5D80D9808286CD20598C01B0102A0
:102B20000120090AC005814223D30298391A13985B
:102B3000081A02020120120AC005824201D313982A
:102B40000FE0019A891A0902090A814201D201980B
:102B500008E001204002FFF7A7FA02994900791A1C
:102B6000081A01900599401A0002000A00F0E0FBE3
:102B70007065029901984018C01B0102090A00E023
:102B800054E00120C005814254D202994A000399C1
:102B900052180599511A0902090A81422AD20D9840
:102BA000602148430F994218602060434018C17B60
:102BB000D37B994201D3102100E00021C90615D42E
:102BC0008179CA0704D07221895B0289891A05E0DC
:102BD000890707D576218A5B0189511A491E0904A4
:102BE000090C07D04079000604D423E050799021E5
:102BF00008421FD1082C21D0084909984018686460
:102C000060200F996043401880784007400F0128EA
:102C10004BD013E0B000002058080000660200000E
:102C2000C0000020CC0400200000004814980028B8
:102C300004D003D0059F0D9C01980390039839029E
:102C40000002000A0390090A012000918002FFF7A8
:102C50002BFA029001204002FFF726FA074600995E
:102C60000398401A00020012002809DD0299000AA8
:102C7000884200D901460291B84200D8384607463A
:102C8000082C7DD0804800884007400FA0424FD0DC
:102C900060200F9960434018079080784007400FEC
:102CA000052812D0022810D042E03146803103209E
:102CB0008A6840028242C1D0C9688142BED000F019
:102CC00083FB4005400DC719B8E70798A101006ACA
:102CD00004906D480818818B079880B2814227D0F4
:102CE0000498002824D004990798FFF78FFA6749C1
:102CF00004980A68007C09210902C0065118C00E18
:102D0000496F801C401804900798016921208001B8
:102D100001420DD0FFF7D8F901283BD01F200499BC
:102D20004978084204D0049840780499001D4870FE
:102D30005648554900682030847448202043088054
:102D400030468030436B997ACA06D20E61010A433D
:102D50009A72826B907AC006C00E084390720098F7
:102D6000306500F051F9012816D0484846490068FE
:102D7000497A2030007D401A316DC000081800E00B
:102D80003AE000020121000A490641180920C00664
:102D900041600EE0FF20C2E70121306D09064118B5
:102DA0000920C0064160394800682030017D36485E
:102DB0004172082C24D2602044430F98241872B624
:102DC0001298A17800684907C008C000490F08435D
:102DD0002F4908400099C90008431299086062B65B
:102DE000A0784007400F03280FD0FFF76DF90128A6
:102DF0000FD00398C01B19E000200921C9064860C4
:102E000021490020088017B0F0BD02990398401AAC
:102E10000CE04034208B618B4018FF30C33000F051
:102E20008FFA874200D938460399081A0002000A2F
:102E3000E863A88B8001FFF737F92968002644185A
:102E40001448FFF731F9201A0002000A28640F4CD9
:102E50002E8420684030407E002807D000F0D2FA4F
:102E600020684030417E4908490041762068403062
:102E7000407E0028C7D000F0EFFA20684030417E45
:102E8000FD2211404176BEE7C0000020B0000020C6
:102E9000070000F83502000001784078000208437E
:102EA00070470178427813028278C07812040006D5
:102EB0001043184308437047064801684B204001FF
:102EC000081801788078814201D9012070470020DC
:102ED00070470000B0000020F8B50D460E490923E8
:102EE00009681B02C9184E6E1F21521E0A431D326B
:102EF00097B20024394600F0D3FA00280AD13946A7
:102F0000B06800F0F5FA044608340068A0600020BC
:102F1000E074A5802046F8BDB000002070B50C46D6
:102F20001F21521E0A430546521C002011044E0D5B
:102F300017D0214608316A1A2846002A01DD082ADE
:102F400003DB202200F0ECFA04E0082208C9521E3C
:102F500008C0FBD120352046761E24683604360C86
:102F6000E7D170BD08B56420694608700921C9061B
:102F70006A461078401E10704869C00402D4107868
:102F80000028F5D1107808BDCA6802608A684260DE
:102F90004A6882600968C160704710B50446803491
:102FA000606C002803D000F0CBFA0020606410BDF4
:102FB0000B49FD220968D2008A182032927E3631F0
:102FC0001207120F824206D009780A0705D4490772
:102FD000490F814201D10120704700207047000055
:102FE000B000002002880B8803800A8070470C081C
:102FF00002170D01010209090101060209FFFFFF85
:10300000FFFF0909FFFFFFFF30B4134809220368DF
:103010001120C0011818D206806A11690F4C411A9C
:1030200009022588090A2D0702D430BC0120704707
:10303000647A9B6AE400E3188B4209D20123DB0522
:10304000994205D259000843506030BC01207047B6
:1030500030BC002070470000B0000020C0000020FD
:10306000F1B5B04AFD211068C90090B04118049133
:10307000AD4904464518C034014636310D91002152
:103080000291AA49497AC9000C91816A0B9104996D
:1030900020310E91897E079108297DD209210902EC
:1030A0004018816E17460798602250430818089010
:1030B000079881019D480C3008180A90C07A2E4666
:1030C00040360990B08B00F075FA39684031098EAE
:1030D000401880B20390E96C039800F079FAE96C2B
:1030E00009020F1AB07F00F078FA3818FEF7DCFFFB
:1030F000A96C41180C98081A0002000A0190109956
:10310000411A0B98081A00020121000AC9058842D9
:103110007ED20498019941630998FFF799F90A99B9
:10312000C8720D980078C143090706D04107079877
:10313000490F4007400F81422BD10E980821807E15
:1031400008430D990870A86C2060E86C60600198D5
:10315000A0600298E060A86D2061686D6061B08B2E
:103160002083B07FA076284660300178E176B18C6C
:10317000A183318DE183B18D2184318E6184B18E43
:10318000A184318FE184C17E2820015584204059DB
:10319000E0620D98007800E07CE00799420749075B
:1031A000520F490F8A4261D0F72108400D995D4FB7
:1031B00008704007400F079009203968000208187E
:1031C000816E079860225043081804900798810187
:1031D00056480C3008180A90C07A0990208B00F0ED
:1031E000E9F939684031098E401880B2039061686E
:1031F000039800F0EDF9616809020F1AA07E00F053
:10320000ECF93818FEF750FF216841180C9800E0DF
:1032100042E0081A070210983F0A391A0B98081A58
:1032200000020121000AC905884258D2A760099806
:10323000FFF70EF90A99C87201980899C01B00029D
:103240004979000A9022114210D10121C905884212
:103250000AD30498C17B0898C07B401C814203D8E4
:1032600004984079C00601D500F0BEF9E96C0398D6
:1032700000F058FA0446B07F00F05CFAA96D2018FF
:1032800040180721090508438035A96B0322091D51
:10329000FFF786F811B0F0BD089840300088410073
:1032A0000A98203002780998101880B2099008987E
:1032B000089A0089401C108108984069421A0898B1
:1032C00042610898C07BFF2802D2089A401CD07344
:1032D000E86C4018E864079800F034FAFBE60498BC
:1032E0004030008841000A98203002780998101870
:1032F00080B209900498049A0089401C10810498B7
:103300004069421A049842610498C07BFF2802D2A7
:10331000049A401CD073606840186060079800F001
:1033200011FA64E7B000002058080000C000002037
:1033300008B500216A461180694600F065FA08BDAB
:103340004101401880097047F8B501461B48092221
:10335000006812028218936E60224A439E18184A2F
:1033600000248518174A88018718B0784007400F55
:10337000052802D0012805D010E0084600F05CFACC
:1033800004460BE02A468032108A002802D0401EF4
:10339000108203E001240846FFF768F8F07BFF285D
:1033A00001D2401CF073002C06D023463246294639
:1033B0000020009700F042FAF8BD0000B0000020A5
:1033C00058080000CC00002000210B2000070268F4
:1033D00052070DD5026804239A430260026808234D
:1033E0001A43026004E0491C052901DD00207047F2
:1033F00042689207F7D54168C907FCD0806880B25F
:1034000070477047FEB511481149006806224618FA
:1034100010494118684600F041FD012269463046D6
:1034200000F050FDB56BF46B736B366C00206A4690
:10343000811C175C5F54175C6F54175C6754175CF2
:10344000401C77540628F3DB0020FEBDB0000020AE
:1034500058080000330700007CB50E4C0E49206868
:10346000062245180D494118684600F017FD296AE3
:1034700006226846891CFEF766FE13212068C901F2
:103480004018816806226846891CFEF75CFE002011
:103490007CBD0000B00000203C09000033070000A4
:1034A00070B5124A092312681B02D2180123526E0A
:1034B00083435B00491E41249B184909491CC9B23A
:1034C00072B615798D420ED31E785B78AD19EDB2C8
:1034D0005B18AB4207D84000135C00245B18135400
:1034E0001079401A107162B6204670BDB0000020FD
:1034F000491EC904090E72B602788A420CD9511AC3
:10350000C9B24A1ED3B203704268880010589900AD
:1035100052580021116000E0002062B670477047E9
:10352000814202D25318984203D300B500F0F4FC54
:1035300000BD521E03D38B5C8354521EFBD27047D6
:1035400018B40168184ACB6813608C680123546072
:103550004C6894600968D1604168144ACC68146072
:103560008C6854604C6894600968D16064216A4634
:1035700011700922D2066C462178491E21705169CA
:10358000C90402D421780029F5D122782270084A92
:103590008168D4680C6094684C6054688C601268D0
:1035A000CA60037318BC7047180000482800004820
:1035B000380000481FB5054C40071ECC03946C46EC
:1035C0000EC4000F6946085A04B010BDCC20061086
:1035D00089084143880A401C7047032802D06320B1
:1035E000C043704766207047F8B54C4D4C49286879
:1035F000441826464036B08BFFF7DCFF296840317F
:10360000098E401880B2E16C00F08CF80746B07F5C
:1036100000F090F8A16D381841180720000501430B
:1036200000913F4A2968363A8818363100F081FC0B
:10363000412128684901421891784B070146203101
:103640008E7D5B0F37093F013B4393707207520F2A
:103650008A75334AA8313C3A801800F06FFC28681C
:10366000A16CC0300268A26401602868E16CC430BB
:103670000268E264016028680099CC221150D030C1
:10368000A16D0268A26501602868616DD43002688E
:1036900062650160296820465C30D83100F053FC37
:1036A000296820465E30DA3100F043FC2968204664
:1036B0006030DB3100F03DFC296820466430DC31AD
:1036C00000F041FC296820466830DE3100F03BFC08
:1036D000296820466C30E03100F035FC296820462E
:1036E0007030E23100F02FFC296820467430E4315C
:1036F00000F029FC296820467830E63100F023FCF0
:10370000296820467B30E83100F013FC2968204608
:103710008430EC3100F012FCF8BD0000B000002055
:10372000580800004143080A292109014843C00AFA
:10373000401C7047012801D00148704700207047A5
:103740007A030000FEB503462C4841270268092091
:1037500000021018816E602058430C18284811464A
:103760001018284E7F019D01D219AE199278C031F0
:1037700000259A420CD1024640321746928E3F8F66
:10378000009784273F58012301977B273F5C07E080
:103790008A8CCF8C0097CF6A0023019728277F5C03
:1037A0000297A779FF0708D02789D21B1204120CB1
:1037B00003D12246FEF7FCFD0546A079810710D50E
:1037C00022890099891A491C0904090C09D1FD2193
:1037D000084001ABA0713146052221311846FEF7A1
:1037E000B2FC002D09D005480096016804482B461C
:1037F00009182246002000F021F8FEBDB00000208C
:1038000058080000CC00002010B50A4A830B12684B
:103810008004526A800C140A60435A4380091018CD
:1038200000228A5E821A10464030C009C3019A1AEB
:103830000A8010BDB000002000207047FFB506468A
:103840008DB050890690F9480921006809020A9054
:103850004018806E14460C90527920464030510634
:103860001D460B90002901DBE8076FD0002008906F
:103870000B9800880190A089A1698446A078400730
:10388000400F05282FD003282DD001200990BF20FC
:10389000024062710E9FEA07384640301037002A16
:1038A00009D03C21089100210E9F0691019181834E
:1038B0008C468180083739220A9B52019B185A791D
:1038C000920612D5DA7992070FD58088019B62465D
:1038D00001920390009302913946069B089A099839
:1038E00000F036FB32E00020D0E700790903090C34
:1038F0006246019B029303920491059078680197B8
:103900000002000E00900A98A0300079C00701D094
:10391000002000E010208030099B069A089900F0F2
:1039200019FBE8070899C00F08430FD178680622F1
:10393000C003C10FBE48006881633946393000F0CA
:10394000ADFABB480068383000F048FB0E9F2807EE
:103950000122C037002872DA20698446E80301D5C5
:10396000162017E0A80301D5132013E0280301D582
:1039700028200FE0E80201D53D200BE0680201D5C8
:10398000222007E0680334D56079000601D40820BE
:1039900000E03E200290B87B602148430C9940181B
:1039A000A04201D10820B873F87B602148430C99EC
:1039B0004018A04201D10820F8739E4800884307B0
:1039C0009A485B0F0068014640314F7B9A4097430D
:1039D0004F73052261469202114220D029041ED560
:1039E000218A49040ED5A0300079C00703D00020F9
:1039F00002E01F20CEE710208030069A029900F0E6
:103A0000EFFA0CE0A0300079C00701D0002000E000
:103A1000102000238030069A029900F00DFB206AE6
:103A2000002801D000F036FB0020206260627F4851
:103A3000A4210068095CC90702D0002501E039E033
:103A400010250299069F022380350791E90603D5C8
:103A50000222BF210D4006E0072109024118897F9B
:103A6000C90614D500222907890E09180120C002B1
:103A70000818C06C294600F02FFB010007D0002277
:103A80000A71CF80079A0A72284600F083FB20460D
:103A9000383000F093FB00272761E0693D4600289D
:103AA00007D0828806998A4203D1012100F088FB61
:103AB000E76187E1680621D5A0784007400F052817
:103AC00001D1A1696161002105280CD0208BA28958
:103AD0000004000D019000920B98069A0388802044
:103AE00000F08CFB6EE1606B4389028901930092C8
:103AF000C3888020069A00F081FB6AE0680723D51E
:103B00008020049049480721006809024118C97FB4
:103B10000223069F0907CCD5990240180C22C06CDD
:103B2000049900F0D9FA0100C3D08F80F2788A712D
:103B30003379727912021A430A81B379F279120247
:103B40001A434A8104983BE12805800F06D00E985D
:103B5000694631C1684600F087FB33E136480542CB
:103B60003DD0E80401D5002000E01A200790069817
:103B70000290F01C8021089005912C4839210068A2
:103B8000490141184A79032392061AD58979090710
:103B900017D50121C90240180E22C06C059900F00A
:103BA0009BFA019000280CD0079901710299C180FD
:103BB00008220830089900F071F90199059800F081
:103BC000E9FAA0784007400F052802D0022803D068
:103BD000F8E00820B873F5E00820F873F2E0680414
:103BE0002CD5208A4004114800680CD5A0300079FB
:103BF000C00701D0002000E0102000218030069A8C
:103C000000F0EEF90CE0A0300079C00701D00020F0
:103C100000E01020012300218030069A00F00CFA09
:103C2000A0784007400F0528D3D0CBE0B00000209B
:103C300074000020C00000200010000428021ED5DF
:103C4000208A00051AD59348F1780068A0300079E1
:103C5000C00701D0002000E0102000238030069A29
:103C600000F0EAF9A0784007400F052801D10820AC
:103C7000B87343212069890288432061A2E00E992C
:103C80002A06803184480191002A26DA02A93346A7
:103C900007910D337F4900930968169F0918082280
:103CA000F01C2637FEF74FFAF17A307B082200022B
:103CB00008430199C88307990098FEF744FA009BCE
:103CC0000422184639460830FEF73DFA0198029959
:103CD000C16301980399016474E029013CD56D49E1
:103CE000A4220968525CD20701D0002700E0102707
:103CF0000818039001980323C08B80370590F806BD
:103D000003D50622BF20074009E0392040010818EA
:103D10004279920656D58079C00653D504223807D9
:103D2000800E41180120C0020818C06C394600F00E
:103D3000D3F90190002845D0001D0290069901801A
:103D400002980822801C039900F0A8F802980599AF
:103D500041813846019933E0A80200D539E7A8012E
:103D600030D5802001900B98069F408902900B98D7
:103D70003921008B07900B984901C08906900B9858
:103D80000323408B04904348006841184A79920607
:103D900018D58979490615D50121C902401806228E
:103DA000C06C019900F098F901000BD08F80029A45
:103DB000CA80079A0A81069A4A81049A8A810198E0
:103DC00000F0E8F9A8060AD5206A016821620021FE
:103DD0000160226A002A00D1616200F05BF9E80606
:103DE0001AD5FEF771F9012852D01F277078B11C3F
:103DF0000740E0693A46806800F037FAE069C7801A
:103E0000E069002707603078E1698007800F087358
:103E1000E06900F055FAE761E80137D51698C189E5
:103E20000120400709184988081801784906CD0F74
:103E300006A900F063FAA1200090A67B06980890DE
:103E40000798099013483921006849014118497EB3
:103E50000223C9071AD09902001D40180F22C06C16
:103E6000009900F039F9040010D02671271D657102
:103E7000042208A9A01D00F011F8042209A9B81D08
:103E800000F00CF82146009800F084F911B0F0BD64
:103E9000FF27ABE7B00000209C09000010B504002C
:103EA00000F03AF8200010BD10B504000800110021
:103EB0000200200000F02CFA200010BD80B500F0B8
:103EC00051FA02BD70B5054616460C46084600F08C
:103ED00058FA2860217960790002084331044018BB
:103EE000686070BD70B4103A03D378C9103A78C0D6
:103EF000FBD2530701D318C918C001D508C908C09F
:103F0000D20704D30B880380891C801C002A01D5AA
:103F10000B78037070BC70478B0701D18307E1D029
:103F2000124205D00B78491C0370401C521EF9D177
:103F3000704702780B7803700A70704702680B684C
:103F400003600A60704702880B8803800A8070470C
:103F500070477047FFB51F4605230646C1061E4839
:103F600081B0006803D50522BF210E4009E0392148
:103F7000490141184A79920629D58979C90726D07D
:103F800003223107890E08180121C9024018C06CAC
:103F9000314600F0A1F804001CD00298207103986B
:103FA000E08027720A9860722046251D06220A309A
:103FB0000B99FFF773FF0C98A8810D98E8810E9874
:103FC00028820F98A8742146304600F0E3F80020BC
:103FD00005B0F0BD0720FBE7B000002001207047CE
:103FE00070B50E4601230446C10612481546006806
:103FF00003D50422BF210C4008E0392149014118B2
:10400000C978090601D4002070BD02222107890E5B
:1040100008180121C9024018C06C214600F05CF864
:10402000010005D00E71CD80204600F0B3F8EAE71C
:10403000072070BDB0000020F8B51D460F460223D2
:104040000446C10612481646006803D50322BF2164
:104050000C4008E0072109024118897F090601D4B4
:104060000020F8BD01222107890E08180121C9028C
:104070004018C06C214600F02FF8010006D00F71E7
:10408000CE800D72204600F085F8E9E70720F8BDE4
:10409000B000002070B5C17C0E4D4906490EC174B8
:1040A000044601232868D902401890260022C06CDB
:1040B000314600F011F8010003D030464C6000F0AA
:1040C00069F84B202968400109184878401C48705D
:1040D00070BD0000B0000020FFB5044600262C4F44
:1040E00083B09C460D46080616D572B601AB6A46EB
:1040F0006146204600F050F900280BD068468188C0
:104100000098827892089200827001806180012676
:1041100062B615E062B621E001AB6A466146204610
:1041200000F03AF9002819D0680609D46846818859
:104130000098827892089200827001806180012646
:104140000098AA00817840238907890F1A401143FB
:1041500081700599C170002E0ED115E000200090ED
:1041600072B6A8060FD401203968C0020818816B06
:1041700008221143816362B672B63868F722403074
:10418000C1791140C17162B6009807B0F0BD00005E
:10419000B00000200A46400608D5D0783A280AD256
:1041A000111D054B80001B58104618479078800859
:1041B0008000801C8870704774F605107047704747
:1041C000F8B50E460C490922096812028918083808
:1041D00007464C6E00F016F905463946A06800F017
:1041E0001BF972B67100605C401B60542079401965
:1041F000207162B6F8BD0000B0000020F8B51D4681
:104200000F4603230446C10616481646006803D528
:104210001022BF210C400BE03921490141184A7995
:10422000920602D58979490701D40020F8BD0D22F4
:104230002107890E08180121C9024018C06C2146C7
:10424000FFF74AFF01000AD00F71CE800D81069A58
:104250004A81079A8A812046FFF79CFFE5E70720FD
:10426000F8BD0000B00000207047F8B504460D46C8
:10427000501E1F210843401C00041646470D1ED047
:10428000204608302946421A002A01DD082A03DBAD
:104290002022FFF745F904E0082208C9521E08C091
:1042A000FBD12035202E01D2304600E02020A08016
:1042B000301A7F1E24683F0486B23F0CE0D1F8BD5F
:1042C00070B50D4D044601232868D9024018902688
:1042D0001A46C06C3146FFF7FFFE010003D030469E
:1042E0004C60FFF757FF4B202968400109180878F8
:1042F000401C087070BD0000B000002010B50B46D7
:1043000001784906CA0F811C184600F0A0F810BDBC
:104310001206130A1A43130C1A4300BF094205D0B0
:10432000830707D00270401C491EF9D17047000076
:104330000022FFE71300103906D330B41400150033
:1043400010393CC0FCD230BC490700D30CC000D5AA
:1043500004C0890002D30280801C002900D50270AD
:1043600070477047A446521E08D303780C78401C4F
:10437000491CA342F7D0181B6446704700206446CE
:1043800070470178427813028278C07812040006E0
:104390001043184308437047F0B54488491CA4B241
:1043A000E5B2A40809B21C808EB287883619BE42D5
:1043B00004D9A6B2891B6D1C09B2EDB2A400241861
:1043C000083414601C88AD076418A400AD0F2C439A
:1043D000A4B21C800388E31A9C07A40F012C02D806
:1043E00003D1002B01DD00230AE00123002907DAB5
:1043F00011688C78A408A400641C8C7008301060CC
:104400001846F0BD0021002804D0491C0068C9B23C
:104410000028FAD108467047002917D072B60278F2
:10442000002A03D0436892009A58116010B4002308
:104430008B800278521CD2B2027044689200A15064
:1044400009680029F4D162B610BC7047704770B596
:10445000044616460D460846FEF723FD2060281D3B
:10446000FEF71AFD31044018606070BDF8B596B0D3
:10447000050017001E001C98049103A92B228854E4
:1044800000200A9002950E9700960EE0252912D082
:104490000498029A90470490002800D1D2E00A982C
:1044A000401C0A900E98401C0E900E98017800292E
:1044B000ECD10A98C8E000200790089009900226E5
:1044C00008210191012404210E9D00E020436D1C70
:1044D0002A78202AFAD0232A0AD02B2A04D02D2A7F
:1044E00004D0302A08D00AE03043F0E70843EEE772
:1044F000020008201043EAE702001020FAE72A2A07
:104500000ED1009A17683A683F1D009B1F600C92FD
:10451000002A03D553420C93014308006D1C14E09C
:1045200000210C91004A0BE0CBCCCC0C0C9B9342AD
:1045300005DA9F00FB185B00591830390C916D1C8F
:1045400029780B00303B0A2BF0D329782E2903D091
:104550000021C9430B9127E06D1C29782A2908D135
:10456000009909680A68091D009B19600B926D1C6F
:104570001AE02D2902D12D236D1C00E0002300211B
:104580000B910CE0002B09D10B9ABC4FBA4205DA13
:104590009700BA185200511830390B916D1C2978C8
:1045A0000A00303A0A2AEDD303A908852F7839008A
:1045B000B3A000F01BFA002801D038006D1C03AF37
:1045C0002A217854785C682805D12878682802D197
:1045D000622078546D1C10A806902A78681C0E90F2
:1045E000252A15D0582A52D0632A00D1BCE0642A6B
:1045F00000D17FE0692A00D17CE06F2A47D0702A81
:104600003AD0732A08D0752A41D0782A3FD0B5E035
:10461000079410A90A70BAE0009800680468001DA9
:10462000009908600594002C13D12B20385C0028D9
:104630000CD00024E44300BF93A000F0E1F9201A5D
:1046400000D1A4E00020C04317B0F0BD95A00590B4
:104650009DE00B9D002D03D5200000F0F5F909E049
:104660002A000021200000F0F7F9002801D0001BEB
:1046700000E0280008908AE0009800680168001DAA
:10468000009A1060039110A80590782168E0785C8A
:10469000622803D0682809D06C280FE000980168D0
:1046A0000868091D009B1960C0B20DE00098016800
:1046B0000868091D009B196080B205E00098016838
:1046C0000868091D009B19600390388D0199C0B2DC
:1046D000084240D0039800283DD02020104378287D
:1046E00039D1079810A930230B54401C431C079361
:1046F0000A5430E0785C622803D0682809D06C281E
:104700000FE0009801680868091D009B196040B21D
:104710000DE0009801680868091D009B196000B24F
:1047200005E0009801680868091D009B1960039066
:10473000002802D507982D2109E0388D304202D09B
:1047400007982B2103E0C00705D50798202110AB5F
:104750001954401C079010A80799401805901100A3
:1047600003A800F0A0F812E0079400980068016820
:10477000001D009A106010A8017008E00794252021
:1047800010A90870100002D0079610A842700C986B
:104790000799401A0999401A0899401A0F90282041
:1047A000385C400713D42020694608710F98002810
:1047B0000DDD0F9C029D012301AA03A9280000F032
:1047C000FAF8002800D03DE7641EF4D10295079D59
:1047D00010AC002D0ED0029E227803A9300000F00C
:1047E000D9F8002802D4641C6D1EF5D10296002869
:1047F00000D027E7302069460871099C002C0CDDA9
:10480000029D012301AA03A9280000F0D4F8002882
:1048100000D017E7641EF4D10295059C089D002D79
:104820000ED0029E227803A9300000F0B3F80028D1
:1048300002D4641C6D1EF5D10296002800D001E759
:104840002820385C400700D42FE6202069460871F4
:104850000F98002800DC28E60F9C029D0E9F009E0A
:10486000012301AA03A9280000F0A5F8002800D020
:10487000E8E6641E00D105E6F2E70000CBCCCC0CE4
:10488000686C747A4C0000007072696E74665F73B5
:104890003A2062616420257320617267756D656ED0
:1048A000740000000000F0B583B00A00C4686F29EE
:1048B00001D1082506E020211143782901D00A25DD
:1048C00000E01025182701680E00642A01D0692A2B
:1048D00003D1002901D571420E00002E0CD1016ACE
:1048E000002909D1082D31D12821415C09072DD596
:1048F00017273021E17529E00290684602707F1E7B
:1049000001973000290000F0B2F83031C8B23A28DF
:1049100003DB6846007851380918E155300029005A
:1049200000F0A5F8060004D002988068E1198842DA
:10493000E5D30298082D09D12821415C090705D546
:10494000E15D302902D07F1E3021E1551821C91BBD
:104950004161E2198260026A914206DA511A81616C
:10496000018D0B4A0A40028510E0002A0ED528224C
:10497000825C14231340102B08D1426A0369D21AB7
:104980008369D21A511A012900DB816103B0F0BD9D
:10499000EFFF000010B503000C001100606898479D
:1049A0006060002804D0E069401CE061002010BD78
:1049B0000020C04310BDF8B50024002B11D0070023
:1049C0000E0014001D0021787068B8477060002840
:1049D00009D0F069401CF0610020641C6D1EF2D10A
:1049E00004002000F2BD0020C043F9E7C9B20278FC
:1049F0008A4203D0401C002AF9D10020704770473A
:104A000080B5002801D100BF07A006490B68002B24
:104A100003D022220021984701E000F07FF82220F5
:104A200002BD00004C050020636F6E7374726169F3
:104A30006E742068616E646C65723A2062616420F5
:104A40006D65737361676500431C0178401C094202
:104A5000FBD1C01A70477047C9B2521E05D3037804
:104A6000401C8B42F9D1401E704700207047002245
:104A7000030A8B420BD203098B4219D243088B42A3
:104A80002ED2411A00D20146524110467047FF22F1
:104A900009023FD012068B4205D3121209028B4243
:104AA00001D31212090203098B4219D300E0090A4B
:104AB000C3098B4201D3CB01C01A524183098B42F7
:104AC00001D38B01C01A524143098B4201D34B01E0
:104AD000C01A524103098B4201D30B01C01A524143
:104AE000C3088B4201D3CB00C01A524183088B42CA
:104AF00001D38B00C01A524143088B4201D34B00B3
:104B0000C01A5241884200D3401A5241CFD20146C6
:104B10001046704708B500F007F808BD80B50120C1
:104B200000F004F801BD70477047704780B500BFC2
:104B300000BF024A11001820ABBEFBE726000200AE
:104B4000F0B5EF48EF49006895B04418EE494118B8
:104B50000391EE498968CA017ED54A03EB49096988
:104B60007BD4C8890122520780184088851888891B
:104B70008018408806A9871828780607360F284627
:104B8000FFF7BCFBE1488068002867DA022012AB1F
:104B9000032E02D0052E69D07AE1DC4EF178C906E9
:104BA0005CD501217171D6490968E031097C002981
:104BB00021D008A9087003980C90099510A80E90B0
:104BC0000A970B930D94084600F0A2F930713079E2
:104BD000012843D001200006B0613069018A2046D7
:104BE0008030026A1180018C30690182817A8022D2
:104BF000114381724CE104A9284600F08BF9A81CEE
:104C000001460A786B7910464A78120210438A7876
:104C1000C97812041043090608432978000249069E
:104C2000C90F08431946AB792A7A1B021943EB795D
:104C300012061B0419431143090200F075F9049987
:104C400022689142C3D1059962689142BFD101287F
:104C500006D0F078400602E049E19FE088E002D506
:104C600000203071B6E70120307111E1A749C97801
:104C700009077DD5012600210922D2065160A049ED
:104C80000968E031097C00292ED008A90870039832
:104C90000C90099510A80E900A970B930D94084656
:104CA00000F036F901469948017110A800F048F962
:104CB00001286DD0954E3079012869D03069009077
:104CC00006AB21462846F26800F05AF98C490020CC
:104CD00009682031C8742046C030C17BB278914247
:104CE00046D10821C173D3E00027089704A92846BC
:104CF000099700F00FF9A81C01460A7810464A7877
:104D0000120210438A78C978120410430906084336
:104D1000297800024906C90F084308906A79297A60
:104D20001046AA79090612021043EA7912041043C8
:104D300008430002000A099008A800F001F90128C0
:104D400000D1002609980102089800F0EDF801460C
:104D50006E4801220271049A23689A4216D1059A7C
:104D600063689A4212D1012904D0C178090600E093
:104D70008EE00BD5C178890607D50699A2689142C5
:104D800004D10799E268914200D10771002E91D1B8
:104D9000A420015B5D480069018279E05B4A8B8950
:104DA000A021095B89B28B4201D10121917123219C
:104DB000490141188979524D012969D1112189018F
:104DC0004218927DFF2A63D037214A431218FF32DE
:104DD00041320394507B002836D11321C9012E683B
:104DE00013787618B76806462A36BB552E68521CCB
:104DF0007618B76806465236BB552E687618B768DF
:104E000006467A36BB552E687618B7680646A2362F
:104E1000401CC0B2BB550628E1D328684022401888
:104E2000816820310B7A13430B72816840310B7C0F
:104E300013430B74816860310B7E13430B768068DB
:104E4000A0300178114301700398007E012819D128
:104E50001121286889014118897D37225143091899
:104E6000FF202F30405C00280CD10398FF31406BAD
:104E70004831083000F0D2F903988022406B017865
:104E80001143017023212A680020490151188871BB
:104E90001E480369997A090629D51D8A224680325F
:104EA000918C89B28D4222D12F21158A095DD97248
:104EB00000210923DB065960FF23691E55339942FF
:104EC00000D81182002D04D1012181618078FDF785
:104ED000CDFA0B484921006849014018407E00285E
:104EE00002D00120FDF796FB0120FDF797FC074853
:104EF0008068400302D52046FEF74FF815B0F0BD9C
:104F0000B0000020580800003C09000068000020A4
:104F10001F20704710B50B460178CA0901460831B9
:104F20001846FFF794FA10BD0A4610B50146032053
:104F300000F082F9FF2801D0012010BD002010BD33
:104F400010B50E4900220B68FD21C9005918203107
:104F5000897E08290FD2092424021B199B6E602424
:104F60006143591803688C6BA34204D14068C96B34
:104F7000884200D10122104610BD0000B000002080
:104F8000FFB50D4607468DB000200921C906169EC3
:104F90001446486038460E30FDF783FF0790B97C11
:104FA000F87C0202387D0004104308430990787DA4
:104FB000069038461630FDF76FFF0A9038461830D5
:104FC000FDF76AFF0B9038461A30FDF765FF0C902D
:104FD00038461C30FDF760FF039038461E302037FE
:104FE0000090F878C106C90E47090920C00608914B
:104FF0008068A86400203146E864213105220291CE
:105000000098FDF7A0F80221E170002022225055FF
:10501000E0730B980C225043606100203122105540
:10502000039801230001A0612846217140300390BC
:1050300083710B987149400240187149896A814215
:1050400000D208460021686521810C98A081204685
:1050500040300B9A02800A9A01235200921CEA64A3
:10506000039A9783039A9780A17121612380A26A92
:105070001280A26A548001771B27FF2147804931A3
:105080002B460182C0331A8A1B2A02D15A8A8A42CD
:1050900001D0102202771A8B8280C7800781478156
:1050A0008781C7815A8B42828182C1820183418379
:1050B000288C5449401C80B2884202D94942401889
:1050C00080B260812884C7200190A16AC87205223D
:1050D00002990098FDF737F80020F072218D318297
:1050E000F0750798B0610998F061202108988855FB
:1050F000FCF7EAFF8021012800D1B175422002901F
:105100000590414804902F461098404B8037002866
:105110003AD0B86B0080B96B0198C872388F708232
:1051200010983B49006828611098406868610698AB
:105130004843FF30F530A865039901208877188827
:105140001946344A400712684123400F5B01D218C8
:1051500090706079C022104360710020B072A07816
:10516000C008C000801CA070BA6B1B209072088819
:10517000A16A4001083088720020C0433882B96BB0
:105180000322C91D029825E0786B00807A6B019894
:10519000D072B88E70826079C02210436071B17293
:1051A000A0781D4DC008C000401DA07018884101A6
:1051B000A06A19318172796B0A20887200F08CF82C
:1051C000796B0322C91D0298FDF7EAF8796B032277
:1051D0002846091DFDF7E4F80120FDF71FFBA16A31
:1051E0000322C91D0598FDF7DBF8A16A0322091DFA
:1051F0000498FDF7D5F811B0F0BD00009AFDFFFF4F
:10520000CC040020FF0E0000FA003000C000002097
:10521000E2040000B00000202C01B0000A78027007
:105220004B7843708A788270CA78C2700B790371A8
:105230004A79427170477047F0B4234B00281B68CD
:1052400008D001280BD002280CD0042833D02F24FA
:10525000640108E01D481B189C4604230CE09D24B3
:10526000E40000E01A4C1B199C46032825D00428B2
:1052700026D00423042825D00F2701209840C3B24C
:1052800000205B08C418E4B2BC420FD2E5006544BC
:105290002E686D682D02AA4203D8AA4206D1B142F7
:1052A00004D32046B14201D1AA4202D0002BE8D15A
:1052B000FF20F0BC7047074CD5E705231F27DCE72C
:1052C0000323D7E70827D8E7B00000206C040000CC
:1052D00064050000DC0600000B48FD210068C900E1
:1052E00040180A490988C36A4907028C090F5A52B3
:1052F000036BC28B5A52836A428C5A52436A828B26
:105300005A52816941607047B0000020C0000020FF
:1053100010B5C20018231340FF249C40E2438907C4
:10532000090E9940030004D55A481B071B0F083B80
:1053300000E099489B089B00C01803681A4011437D
:10534000016010BDFEB5002653480660032400F03E
:10535000B7F96946088068460088002801D1641EB4
:10536000F5D168460088202837DB6846008801248C
:105370000125400525D4684600F002FA68464178C8
:10538000090180780843122800DA00258348006864
:10539000000705D4002D14D0012000F062F810E0C1
:1053A0007F4FF8687F4E3168081A283800020012D3
:1053B000002806DD002D02D0012000F052F83068F0
:1053C00038607948047000F042FABFF34F8F774895
:1053D000A4490860BFF34F8FFEE70120FEBD10B562
:1053E00000220021A04804E00B00415C5918491C30
:1053F000C9B2435C002BF7D1CB1C202B12DA02235D
:1054000043542123441863700823A3704318DA70AF
:10541000964A80235B02401880B2184310601068DF
:105420001840FCD110BD70B5002100238E4A04E065
:105430001C00D35CE3185B1CDBB2D45C002CF7D1FE
:1054400002253524DE1C202E05DAD554D6187470BA
:10545000B070D218D170864A157054709070D170A7
:1054600070BD70B580214902814B9CB20C437F4ACC
:10547000002804D01460106808400AD0FBE7987830
:105480009D78FB262E409E70146014680C40FCD161
:10549000987070BD1CED00E014000020F8B58AB0D3
:1054A00005000C0003A800BF79A11C22FEF71AFD1D
:1054B000684600F065F96D4E002D54D003A84021D8
:1054C00081734C21C17220210172B22141745B2190
:1054D000017568498B6B684A1D0C954209D1C57DE1
:1054E0008F272F40C775C57D1B0170271F402F4395
:1054F000C7754B6B1D0C954209D14579CF272F40BD
:10550000477145791B0130271F402F4347710968B8
:105510000B0C934208D1C27DFC231340C375C27D9E
:105520008907890F1143C175C17AFB220A40C272F3
:1055300069464A7812018D781543112D06DDC17D2B
:1055400004220A43C275C07DFFF76DFF8020400230
:1055500003A989B20143316031680140FCD1112DAA
:1055600001DDFFF73CFF124881890029FBD00121B2
:1055700081811721018000214160002C07D07068D3
:10558000102172680A40102303409A42F9D03B4828
:105590003B4908600BB0F0BD00E400E0C000002013
:1055A00004000048180000200C0000200400FA0548
:1055B0000C00104880B508203249088003210120E2
:1055C000C043FFF7A5FE03210020C043FFF7A0FE64
:1055D00003210020FFF79CFE03210120FFF798FE26
:1055E00003210420FFF794FE03210520FFF790FE1E
:1055F00000210620FFF78CFE03210720FFF788FE1D
:1056000003210D20FFF784FE03210E20FFF780FE0B
:1056100003210F20FFF77CFE03211120FFF778FE06
:1056200003211220FFF774FE03211320FFF770FE01
:1056300003211420FFF76CFE03211520FFF768FEFD
:1056400003211620FFF764FE03211720FFF760FEF9
:1056500001210120FFF722FF0B480C49086062B6C8
:1056600001BD00000CED00E0280500200C00004802
:105670001C000020B007001055AA0000CCBCECFCB8
:10568000140000200400104066000E00200090402E
:10569000023F00023E30023C20023B4C023A4002F4
:1056A00039B202345B02350B00000000304A012998
:1056B000116802D108431060704781431160704740
:1056C0002C4802782C4801880020002A44D1092265
:1056D0000A40092A00D1202011220A40112A02D1B1
:1056E00002004020104321220A40212A02D1020058
:1056F0008020104341220A40412A03D10200802029
:105700004000104381220A40812A03D102008020F8
:1057100080001043FF22921C13000B40934203D1E0
:1057200002008020C0001043144A13000B40934233
:1057300003D1020080200001104305220A40052AFF
:1057400002D10200102010438907890F03290ED1CE
:105750000100082008437047022A01D10120704748
:10576000042A01D102207047082A00D10420704782
:1057700020009040080090400800104801040000FC
:105780000F21114A13681B090B404370136819401D
:105790008170D268426001210C4B9A4208D10C4AB8
:1057A00012680C4B9A4201D1042202E0022200E06E
:1057B000012202704278002A00D14170064909880E
:1057C000491C8900816070471C00904041A0000284
:1057D0001C00001044A000F2140010407FB504002B
:1057E0000D0016006846FFF7CBFF68460178217070
:1057F00041782970807830707FBD7047EFF3148254
:10580000EFF30981002080F31488BFF36F8FF0B5A8
:1058100043464C4655465E466746F8B4164CEFF391
:105820000883236006B4154C2068154C2060154C85
:105830002068154C2060154C2068154C2060154CD4
:10584000276800202060BFF34F8F30BF27600A4CCD
:10585000246884F3088882B003BCF8BC9846A1464B
:10586000AA46B346BC46F0BC04BC80F3098881F369
:105870001488BFF36F8F10470800002004ED00E08C
:10588000B800002024ED00E0BC00002000E200E0B1
:105890004805002008002040FFB5002099B0239A59
:1058A0000B90129005461490064615901C46DB4856
:1058B0000B460068DA49229F4118039100210891A4
:1058C00009915188069111880A913D21490140189A
:1058D000007BC00706D00FA9184600F0A5F90028E4
:1058E0000AD102E047201DB0F0BD10AA0F991B9805
:1058F00000F0B2F9002801D06020F4E719980028E0
:1059000003D0600701D5012000E000201390A0071C
:10591000800F1C90109817902030C078012840D13B
:105920001798C04B01899942F9D1179806990468D4
:105930000A98228C4118914233D820462030169084
:105940008078012816D0E08B049017988069007841
:105950008006800F7ED0039840301890007A800730
:1059600078D51C980028F5D0AE4F0F99FF3720311D
:10597000206814E0BA4214D3B942DDD80497E4E7B2
:105980000389A84A934203D12322125C012A08D03A
:10599000BB4203D12322125C012A03D00068884253
:1059A000EED134E105900028FBD09C480921026823
:1059B00009025118C96E0027009162E07801009930
:1059C0000390085A01055AD01999002901D088423C
:1059D00055D105997A008B69511C595C9A5C090272
:1059E000891889B20D91890749D00222059900F0E2
:1059F00042F9002804D01998002840D0652072E7A9
:105A0000002008A9C8551C98C00718D017988069AD
:105A10000078C00613D50D98C00710D00120C855D6
:105A20000543009A039880184088159A904206D939
:105A30001590009A0398105A0005000D14901C98B8
:105A400080071CD5179880690078800617D50D98B7
:105A5000800700E083E012D50220CA5D05430243BF
:105A6000CA5500990398401840881599884206D96C
:105A7000159000990398085A0005000D14907F1C9A
:105A8000FFB266480068A030037BBB4296D8002D69
:105A900065D01898007A00065FD460480168092034
:105AA00000020818C16E00201BE042018E5A360524
:105AB00015D0AE070BD556183669B7070DD408AF09
:105AC0003F5CBF0703D5360701D546200BE7EE073D
:105AD00005D05218127CD20701D0432003E7401CA6
:105AE000C0B28342E1D81598C01E86B2049886429F
:105AF00000D90646A8070FD5202200201499FDF7EB
:105B0000EBF9129000287DD0F01C82B2002112988F
:105B100000F0D9F8002811D1E80720D02022002079
:105B20001499FDF7D9F90B90002807D0F01C82B228
:105B300000210B9800F0C7F8002810D0802000F05A
:105B4000C9F81298002802D00021FEF739FB0B9803
:105B5000002802D00021FEF733FB6420C3E6A169D0
:105B60000A98069A08182499FEF798F916988078EA
:105B7000012801D10498E083002D46D0274B09204D
:105B8000196800020818C16E002008AA0CE0430141
:105B9000CF5A3F0506D05F18BC463B69175C3B43B4
:105BA00067463B61401CC0B21C4B1B68A0331B7B8B
:105BB0008342ECD8A8070DD512980090F01C82B251
:105BC00021461C310220A36900F090F802201299AE
:105BD00000F0ABF8E80718D00B980090F61C2146AF
:105BE000B2B21C310120A36900F080F8139800289C
:105BF00005D00B988021C07C08430B99C874012004
:105C00000B9900E005E000F090F800206BE64220E0
:105C100069E6802000F05EF89FE70000B0000020F9
:105C2000640700000328000010B5094A094B1268F8
:105C3000D2189368083206E01C8D844202D10020FD
:105C40000B6010BD1B689342F6D1412010BD0000CF
:105C5000B00000206407000010B50B6A203106E098
:105C60009C8B844202D10020136010BD1B688B42C4
:105C7000F6D1412010BDF8B516460D460746002462
:105C800000F07AF8002806D032462946384600F05F
:105C900099F8044604E020356879002802D00E24E3
:105CA0002046F8BD2879C10701D1012E09D081070E
:105CB00001D4022E03D04007F2D4042EF0D10324E5
:105CC000EEE70224ECE710B5121D806892B200F0F6
:105CD000C9F810BD04490A683D21490151180A7BE1
:105CE00002430A7370470000B0000020F8B5069C1C
:105CF0001F4615460646002C13D0A06802220D3020
:105D0000FEF7CCF8E81E82B23B460721204600F0A1
:105D1000DFF8E580A068012E05D01D210173002069
:105D2000F8BD4720F8BD1B21F8E77CB50C460546B9
:105D30006A4601A900F0D6F8002801D041207CBDB8
:105D40006846E1888088814200D9E0800098008818
:105D5000A080204600F0EEF80098012D07D00169E0
:105D60000822114302229143016100207CBD016998
:105D700049084900F8E7704770B500281BD00305B3
:105D80000F48002100680D4A1B0DA0301268047BEB
:105D90000FE008467C267043D56F0830285A00056E
:105DA000000D984203D17C225143681870BD491CF4
:105DB000C9B28C42EDD8002070BD0000B4000020B4
:105DC000B000002070B515460C46064600F0C8F835
:105DD00020346179012D09D00A0702D54207920FBC
:105DE0000FD0CA0625D5020709D522E0CA0702D07E
:105DF0004207920F05D08A0705D5020703D4082071
:105E000070BD052070BD490707D5C00709D0E179ED
:105E1000304600F0BCF85F2805D02079C00704D0D8
:105E200005E00F2070BD0C2070BD022070BD002069
:105E300070BD890607D5C007F3D0E179304600F080
:105E4000A6F85F28EFD02079810701D4022D07D072
:105E5000410701D4042D03D00007E8D4082DE6D172
:105E6000032070BDF7B507461848092100680902EC
:105E70004018446E41201646002F11D0384600F0DD
:105E800096F80546B0420CD2301A81B20198FDF75F
:105E900007FB002804D132463946A06800F091F88B
:105EA000FEBD32463946A06800F08BF86D1E761EA6
:105EB00069097209891A72B6019A5200A35C5B1AC9
:105EC000A35422795118217162B6FEBDB0000020A2
:105ED00010B51C4613460A468068214600F0B8F803
:105EE00010BD7047F0B5944600220A806346104CFE
:105EF0001A60092322681B028646D2184120D26EFE
:105F000000230FE05D01AD182F697646374207D0B8
:105F10006F880E88B74203D90F8060460560002065
:105F20005B1CDBB22568A0352D7B9D42EAD8F0BD15
:105F3000B000002010B504460146042000F0BCF873
:105F4000002808D0044805490068401821463C3024
:105F500000F0D8F8432010BDB00000206407000016
:105F600010B50024FFF708FF00280ED00089C104F7
:105F700007D50124810401D5032402E0410400D5A2
:105F80000524000401D408200443204610BD10B5A8
:105F90000C46FFF7F1FE002807D0817A002904D0D3
:105FA000007FA04201D3002010BD5F2010BD002162
:105FB000002804D0491C0068C9B20028FAD1480161
:105FC000704730B400240B1E22D02034A4B2944277
:105FD0001AD30A68002A35D072B60378002B03D092
:105FE00044689B00E3581A600024948003785B1C8B
:105FF000DBB2037045689B00EA501268002AF4D1B6
:1060000062B6002008601DE00B4609680029DCD15B
:10601000111B491EC9040A0E72B6017891420CD9AF
:10602000891AC9B24A1ED2B2027040688900920031
:10603000415882580020106000E0002162B61960CB
:10604000002902D030BC0020704730BC4720704788
:10605000FFB504465009000681B01F46000E06D069
:10606000002C23D0401E24680006000EF8D1D6066E
:10607000F60E17E02020851BBD4200D33D46A01937
:106080002A4608300299FDF709FF02987119401954
:106090000290781B87B2A088884201D2A819A080FC
:1060A00024680026002F04D0002CE3D1412005B045
:1060B000F0BD002005B0F0BD10B50C460146042827
:1060C00005D0052903D0062901D0502010BDA068B5
:1060D000A2790272E088020AA0684272A068817206
:1060E000A068090AC172E088001DE08002202073C8
:1060F000204600F01DF80028E8D0E088001FE0806E
:10610000412010BD10B5044600200860206800281A
:106110000CD0606801600846616000F03BF8E17AED
:106120004018E072A07A401CA07210BD2160F2E716
:1061300010B5044600202082A074A168A1616161AD
:106140002060204600F02CF8452801D0412010BDE9
:10615000A088032100F04CF80446FCF729FF002832
:1061600013D072B60A48012201684920400109187B
:10617000487EA2401043487662B60020FCF74AFAF7
:10618000002802D00020FCF749FB002010BD0000D1
:10619000B000002010B58068FEF734F910BD7047DC
:1061A00010B504468088032100F022F8022172B65F
:1061B000082815D20D4A1368092212029A18602382
:1061C000926E5843831CD35C002B09D00021101819
:1061D0002160016A002906D0416A0C6045214462B1
:1061E00062B6084610BD0462F8E70000B000002067
:1061F000F8B507461F4809260568FD20C0002C1881
:106200002846363036023F0584463F0DAE19237DC1
:1062100008200022A0350097B6462D7B0EE0DE0751
:1062200009D07646B66E60275743F6197689009FE7
:10623000B74200D110465B08521CD2B29542EED84C
:106240002034A27E1207120F824202D1CB0700D166
:106250000820824207D062461278130707D45207FB
:10626000520F824203D1C90700D10820F8BD890727
:10627000FBD5F8BDB000002038B58AB008A800BF33
:10628000B6A10CC90CC006A8B6A10CC90CC006AAC0
:106290000621002000F0A2F90500A24C02D029003E
:1062A000200042E00421012000F09CF900F09EF95A
:1062B000050003D029002000243036E0ABA000F018
:1062C00099F905A8019004A8009004AB9B1C082232
:1062D0000021012000F0A2F9050003D029002000D0
:1062E000483022E0A9A000F085F908A80390082012
:1062F0000290002001900820009000236846028A46
:10630000418A002000F0A2F9050003D029002000F6
:106310006C300AE02000A03000F06CF900F0A8F921
:10632000050006D029002000D03000F063F92800D5
:1063300004E02000FC3000F05DF900200BB030BD1F
:106340007FB5794DA868400603D52026A86830405F
:1063500003D07FBDA8880019A8806888A9888142D9
:106360001AD2441A152C00DB1424704840180390EC
:10637000E0B2029000200190A0B2009001236C488E
:1063800002886C480188288800F060F96428E1D10F
:10639000A8680643AE607FBDA86840218843A86016
:1063A000002068801020644908607FBDFEB500248D
:1063B00000265E4F5C4D01906846018026E06C80AF
:1063C00023E068885D49884200DB6C800198805D2D
:1063D000698878540198805D00F062FA6888401CF2
:1063E000688081B279184A1E12780A2A01D00D2AD3
:1063F0000BD180B20128E2D00C70A8684021014383
:10640000A96010204E490860AC80761C6846008860
:106410008642D6DBF7BD000018B593B007A800BFD1
:1064200062A10CC90CC000BF62A11C22FDF75AFD7D
:10643000002007A9095C09AA4342D2189176401CA2
:106440000628F6DB10A800BF61A11CC91CC00021F2
:10645000002000F056FA002006900590049003906A
:1064600010A8029009200190002000900023002233
:10647000002100F051FA334A002804D00100100036
:1064800000F0B8F803E01000303000F0B3F809A9CC
:106490001B2000F062FA14B010BD10B5224CA068A9
:1064A000800705D5FFF7B8FFA06802218843A060E8
:1064B000FFF746FF10BD1C480180816801220A4396
:1064C0008260704718488168012291438160816829
:1064D00002220A43826081680422914381608168BC
:1064E0002022914381608168174A0A408260816856
:1064F000164A0A4082608168154A0A4082608168B3
:10650000144A0A408260704780B508001900029A58
:1065100000F006F901BD04488168202291438160A2
:106520007047000050F505105C000020CC020020F0
:10653000020500200005002000E100E0FF0100004E
:1065400080E100E088110610FFFEFFFFFFFDFFFF66
:10655000FFFBFFFFFFF7FFFF70477047426C756559
:106560004E524731AA0000E1800200006163695F7A
:10657000676174745F696E69742829202D2D3E202F
:10658000535543434553530D0A0000006163695F4F
:106590006761705F696E69742829202D2D3E205334
:1065A0005543434553530D0A00000000AA0000E183
:1065B00080020000020A00090953506F72745F31B3
:1065C000320DFF0105000000000000000000000087
:1065D0000953506F72745F313200000010B500F043
:1065E000C5F910BD10B500F065FA10BD10B500F08A
:1065F00083FA10BD0EB4C0B5020003A801900020BC
:10660000009001AB0121044878440C30FDF72EFFC7
:10661000029906B0084700BF3FBA00007CB5069D4E
:10662000079C002805D0860705D1460703D4060736
:1066300001D442207CBD002903D0012901D00229C8
:10664000F7D10095019400F021FB7CBDF0B585B039
:1066500084460AA8F0C868468581C68103A80190CF
:10666000029700946046FFF717F905B0F0BD704738
:1066700038B586B03A4C10223DA120000830FDF715
:106680000DFC384D00940623012221000831022020
:1066900000F0FAFB00283CD1102200BF38A12000F6
:1066A0001830FDF7FBFBA01C059001200490102082
:1066B00003900020029001901020009014232200EB
:1066C00018320221208800F0FAFB002821D1102284
:1066D0002FA120001830FDF7E1FB201D05900120BF
:1066E00004901020039001200290002001900C20C3
:1066F00000901423220018320221208800F0DFFBD2
:10670000002806D1A28861882800FFF773FF0020C7
:1067100004E028004830FFF76DFF472007B030BD88
:10672000F8B50F4B9C88641CA0420BD100250EA429
:106730000F001600BD4211DA715D2000FFF75AFF0D
:106740006D1CF7E75988891C884207D11078012809
:1067500004D10648016804220A430260F1BD00002A
:1067600000050020900E0610256300006400002044
:10677000669A0C200008969EE2119EB1E0F273D951
:10678000669A0C200008969EE2119EB1E1F273D940
:10679000669A0C200008969EE2119EB1E2F273D92F
:1067A00010B50400202000F061FC0128FAD0200080
:1067B00000F053FC10BD78B585B00400012109201C
:1067C000FEF774FF00F08AFC3B4980000818001FA8
:1067D0000068009000F082FC6D463849800008187F
:1067E000001F006828710026AE716E71684600F0C7
:1067F0007BFC00F073FC324980000818001F006821
:10680000009000F06BFC2F4980000818001F006802
:106810002871684600F068FC0294032002A9087100
:106820004871CE804E7208720120887202A800F072
:1068300071FB002000F02BFC012000F05FFB06B094
:1068400070BD1CB50400684604210170032141702D
:10685000847000F09FFC2100102000F0F4FB13BDB9
:1068600080B5102000F00AFC002808D101BD00F01E
:10687000F9FB694608700121684600F015F8102000
:1068800000F0F4FB0028F2D001BD80B50E4908608D
:10689000E1204002FFF78FFF0120FFF7D2FF01BD8B
:1068A00080B5FFF77DFF01BD074A1268002A00D1BD
:1068B000704780B5904701BD7421061078210610FD
:1068C0007C210610802106102800002070B50024CD
:1068D000012804D0022802D00020C04370BD002946
:1068E00001D1002070BD0D00160004E02878FFF7EC
:1068F00057FF6D1C641C3000461E0028F6D1200096
:1069000070BD10B50A461F2801D9122010BD0146DE
:10691000104600F077FC10BDFFB587B0109D159EA6
:10692000169C01930295009407A807C81F4633469A
:1069300000F096FC00280ED11398149903AA06942F
:1069400043C21198129901900095029107A807C8B7
:106950003B4600F0B3FC0BB0F0BD10B51F2801D9C9
:10696000422010BD00F0C6FC10BD0000F0B54F4F36
:106970000446386885B078300D461646002C10D095
:10698000062C14D0082C0FD0182C0DD0282C0ED08B
:106990002A2C0CD02C2C0DD02E2C0ED0D02C47D045
:1069A00048E0062D0FD045E0102D0CD042E0022D1E
:1069B00009D03FE0012D06D03CE0062D3AD1717997
:1069C000890903296FD100192A463146FDF766FA75
:1069D0002C2C26D13078002823D0FBF775FB01281A
:1069E00022D01B201F304009401C410041180120CB
:1069F00000F0E8FCFBF768FB012817D01B201F30D4
:106A00004009410041182A484078401AC01EC1B2CE
:106A1000002000F0D7FC3868F9224030017811409E
:106A20000170002005B0F0BDFB20DBE7FB20E6E7AE
:106A3000012D04D0FBF748FB012804D005E01078B5
:106A400000F0CCFCEEE7D12C02D02F2C1ED02AE097
:106A5000082D28D1022231466846FDF71FFA02228E
:106A6000B11C01A8FDF71AFA0222311D02A8FDF798
:106A700015FA0222B11D03A8FDF710FA68468389B2
:106A800002898188008800F0BAFCCBE7012D0AD189
:106A90003078002807D0082805D2492239685201E9
:106AA00089188876BDE71220BCE70000B0000020FE
:106AB000EC04002010B5012818D8072916D80C4A74
:106AC000126813462033187759778007C906000EDD
:106AD000090E01430020074BA03204E08401E418B2
:106AE000A172401CC0B2147B8442F7D8002010BDB4
:106AF000B000002000010020F0B55FA099B0006850
:106B00005E4915905E4A08688418092212028218AC
:106B1000D26E2546403514922A7AD20702D06220DE
:106B200019B0F0BDAA8B01235B029A4201D9AB8355
:106B300003E0172A01D21722AA83149AA0301392D5
:106B4000067B0DE0761EF6B2139871010F18B86837
:106B50000F90384620220021FDF7A6F90F98B86063
:106B6000002EEFD120460830E0606460A060246011
:106B70000830139060612061FF220021083000F08E
:106B800040FC2046FF220021243000F03AFC204641
:106B9000AA7F0021303000F034FC2046FF22002183
:106BA0003C3000F02EFC00222A7210461721334B95
:106BB00005E0149E4701BE19401C7180C0B21E68DA
:106BC000A036367B8642F4D8002028832F8C688C30
:106BD0000026149008E02820E16C70430918204634
:106BE00000F017FC761CB6B2BE42F4D3002608E0D3
:106BF0003020216D70430918139800F00AFC761CB0
:106C0000B6B214988642F3D30120FFF763F801244B
:106C1000684604701B4941802346042269460CA83B
:106C200000F0FEFB002822D16846018E81821649C1
:106C30000183042606858475202108A8817200241A
:106C4000C472047307214173847305A90DA800F071
:106C500097FC00280BD1684604874687818E15ABC8
:106C60000EAA008E00F02AFE002800D158E700206E
:106C70002872472054E700000000FFFFB00000200A
:106C80006407000001180000052A0000FFB50C464B
:106C900078A103C995B001910090002108A8017363
:106CA0000321C90268464186012108A8734E017478
:106CB00035681746AE3500F035FE002808D170491A
:106CC0003068401800F0C2FEA878002802D04620A4
:106CD00019B0F0BD0BA8159900F0C2FE0028F7D13D
:106CE000072010A90871012C05D0022C0AD0002C15
:106CF0000ED04220ECE708A8017B1020014308A831
:106D0000017305E011A90BA800F0B8FE0028DFD13F
:106D100010A8027901230CA9284600F081FB002865
:106D20007ED1022229461898FDF7B8F829886846CE
:106D300081811521490201820784012686734E2133
:106D400008A881700024C470067107214171867102
:106D500003A902A800F014FC002861D1022202A9B4
:106D60001E98FDF79BF8082F02D26846478502E07F
:106D700008206946488569460C850B4628880AAA7A
:106D8000098900F09BFD00286DD13E4968460182CB
:106D90000227078408A8847103A902A800F0F0FB69
:106DA000002860D1022202A91F98FDF777F86846F3
:106DB0000470694644704F850B4628880AAA0989E1
:106DC00000F07CFD00284ED108A8007BC00723D02E
:106DD0002C496846C91C01820821018408A88770D3
:106DE000047103A902A800F0CBFB00283BD1FF21CE
:106DF0006846C1718171C1708170417001704471C8
:106E000004716946082048850B4628880AAA098922
:106E100000F054FD002826D108A8007B800600E081
:106E200021E022D52988684681811649A531018251
:106E30000684867308A88770C470047107214171A5
:106E4000847103A902A800F09BFB00280BD16946BE
:106E50000E700C854E850B4628880AAA098900F019
:106E60002DFD002801D0472032E708A8007BA8703C
:106E700000202DE7626C75656E726721B0000020FE
:106E800033070000012A000070B586B014461D4685
:106E90000A4603466946881C0A9E00F0F1FD002858
:106EA00004D1012C04D0022C02D0422006B070BDC7
:106EB00023462A466946304600F0B2FAF6E7F0B5B6
:106EC00087B01C460B46054600A9023101A80C9F5D
:106ED0000D9E00F0D5FD00280ED168460580848205
:106EE0008775C6750E9901760F994176109981764E
:106EF0006946119800F044FB07B0F0BD69490028CD
:106F0000086803D0012202430A60704701229043BF
:106F100008607047F0B5040021680125624E63489F
:106F20007269D2082A4001D1090100E0C900FDF7C9
:106F30009EFDC10931810904490A401A401C4008DC
:106F400081B23F2902DD3F388006800E3073602019
:106F50009F21327C0A4023795B0103401343337441
:106F60003278114062795201104008433070082194
:106F7000F720327C0240A379DB0008271F4017432B
:106F8000377432781040A279D20011400143317039
:106F9000E179002907D1FD20317C0140317431783D
:106FA000084030701CE002200229317C0BD10143E3
:106FB0003174FB21327C0A403274327810433070D5
:106FC000307801400BE0014331740421327C04230A
:106FD000134333743278104330703078014331708A
:106FE000706933490140207A2840400208437061AB
:106FF000706930490140207A400828400002084367
:10700000706170692C490140607A28408003084310
:107010007061706929490140607A40080540E803C1
:10702000084370611020EF21327C0A40A37A1B01D3
:1070300003401343337432781140A27A1201104096
:1070400008433070F0BD1E4A0029118802D0084361
:1070500010807047814311807047C005C00D1949E9
:107060000880704717480088C0B270470100164872
:10707000002901D5006800E0808A02E00100134881
:1070800000880140080000D00120C0B270471049BC
:107090000A78C7231340C0003822FFE702401A4392
:1070A0000A707047300030401C0030400000127AF7
:1070B000FFFDFFFFFFFEFFFFFFBFFFFFFF7FFFFFA3
:1070C0003800304000003040040030403C00304088
:1070D00034003040012003490870704701480078AF
:1070E0007047000050050020F0B50479220000210F
:1070F000274B002C04D11C680568AC431C6006E0DB
:10710000062C04D100221C68056825431D60056813
:10711000CD40ED071AD5082909DA8D009E6A0F27A0
:10712000AF40BE431700AF4037439F620EE00D00F3
:10713000083D082D0AD20D00083DAD00DE6A0F277C
:10714000AF40BE431700AF403743DF62491C1A29E6
:10715000DDDB01684279012A9A6802D11143996006
:1071600001E08A439A60016880790128586802D159
:1071700001435960F0BD88435860F0BD8021C905C6
:10718000FFE70968084000D00120C0B27047000046
:1071900004000040F0B502781F2301248178002903
:1071A00021D0417852B2D50018262E40FF27B74093
:1071B000FD438907090EB140160004D50D4A360774
:1071C000360F083E00E00C4AB608B6009219166861
:1071D000354029431160007803409C40074940092D
:1071E00080000C50F0BD13409C40054851098900B7
:1071F0004450F0BD1CED00E000E400E000E100E0E0
:1072000080E100E0F0B5144A144B1268D3181A6CF0
:10721000154608321F2901D93020F0BD00249E6B8D
:107220001F6C365D3E55641CE4B2082CF7D3002475
:1072300005E00678641C1670401CE4B2521C8C42B7
:10724000F7D3186C891D4170986B9D631864803367
:10725000186A45800020F0BDB000002058080000EA
:10726000F0B5054600200F46079E059C174309D040
:10727000202905D30127BF03BA4201D8914201D981
:107280004220F0BD194621430AD09C42F8D3094957
:107290008C4203D00849A41F8C42F1D2062BEFD3B5
:1072A000002D03D0022D01D0032DE9D1032EE7D804
:1072B000F0BD0000FFFF00007B0C0000F0B58DB0BA
:1072C0000C4616A9E0C90021089109910A910B9179
:1072D0001599049105A9E0C112A962C90093019111
