:020000041004E6
:1000000000600020397005101F6F0510216F05106A
:10001000AA5555AA45554C420000000000000000BA
:10002000000000000000000000000000236F051029
:100030000000000000000000A7110410256F05104B
:10004000276F0510A312041000000000000000003C
:100050002B6F05107B1604102D6F05102B2E04102E
:100060000000000000000000000000000000000090
:10007000000000004F2E0410CB3004108336041013
:1000800000000000296F05103F220410E322041035
:100090004B250410D72D0410F3360410DB36041062
:1000A0000000000000000000000000000000000050
:1000B0000000000000000000000000000000000040
:1000C000F1B5FFB091B00C001500EFF3108018905F
:1000D00072B60020A849087000F00EFC060090A837
:1000E000007800F063FC6946087090A8007800F082
:1000F000B3FC90A90978884200D9080069460978BC
:10010000814200D901008E4200D90E006846067077
:100110009A486946097889004018816E491C8166B1
:100120006846007800280AD068460078012807D180
:100130009348007A0021924A117230BF1072A9E3ED
:1001400068464470E148057068464078DF490871A8
:1001500001A800F093FCDD48007A1D9089480088D2
:1001600067908948006866900025002088AB874F1B
:1001700081007A585A50401C0828F9DB8448C0692D
:1001800065908448806964908020C0050068639011
:100190008020C005406862908020C0058068619022
:1001A0008020C005C06860908020C00500695F9015
:1001B0008020C00540695E908020C00580695D9008
:1001C0008020C005C0691C908020C005C06A5C907A
:1001D0008020C005006B5B908020C005406C5A9069
:1001E0006D48006859906C48007C58906A48008BB4
:1001F00057906948007F5690684800785590674846
:10020000406854906548007A5390644880895290C1
:100210006248007F519062480078509060480079B1
:100220004F905F48007A4E905D48007B4D905C484F
:10023000007C4C90C44800684B90C34840684A908A
:10024000C148007C4990C048007D4890BF48007874
:100250004790BE4880884690BC4880684590BB481F
:10026000808944900022BA4C1005011990000B6857
:1002700016AE33504B6814AE33508B8B12AE3350E6
:100280000B8C10AE33508B8C0EAE33500B8D0CAEEE
:100290003350CB6A0AAE33504C23CB5A08AE33509E
:1002A0004C314B6806AE3350C96804AB1950521C30
:1002B000012AD9DDB020000600684390A5480068F7
:1002C0004290A44840684190A24880894090A1484B
:1002D000008A3F909F4840693E909E48007E3D9036
:1002E0009C48808D3C909B48006B3B909948406BAC
:1002F0003A909848806B39909648C06B38909548F2
:10030000006C37909348406C369093480088359045
:100310009148808834909048007B33908E48007CD0
:1003200032908D48808A31908B48007E30908B4887
:1003300000882F90894880882E908848007B2D90D7
:100340008648007C2C908548808A2B908348007ECC
:100350002A9083480068299081484068289008487E
:10036000006827900648007A26907E48006800289A
:1003700018D17D481B9016E00C0000207C03002063
:10038000000070400400104000E100E000E400E0E4
:1003900004ED00E0080090400C0030402C0030409C
:1003A000500030401B95002270481A901420504392
:1003B0001A9940189100436878AE7350036880AE74
:1003C0007350836870AE7350C06868AB5850521C4D
:1003D000082AE9DB8120C005406825908120C005FE
:1003E000007B24908120C005408B23908120C00594
:1003F000008B22908120C005406A21908120C00599
:10040000806A20908120C00500881F9058480068AD
:100410001E9068460078032806D156480068C0211F
:10042000890501435348016000215348006864383E
:100430001990CB4A50661046426E13688E00835165
:10044000491C121D42661929F6DB204800791F4914
:1004500009788026F6053268520A514088436AD1ED
:1004600001A84078000101A989780143112904DD20
:1004700042480560002000F0F4FB3E480068404917
:100480000860012000F012FD00F01EFD002000F0C9
:100490000DFD3C480078002800D081E03A48006813
:1004A000400632D439480268374B19685140C64873
:1004B000374C2468056AAC421CD11B689A4203D0B1
:1004C000C24A12680A4015D1324901E000002040BA
:1004D0000968B20813000B4004682240934209D116
:1004E000320911400068024091420ED01C48006859
:1004F00080070AD51F49C8680209D01CB30A984270
:100500001AD2CA6812098242FBD301A841780901B4
:1005100080780843112805DD012000F0A2FB1E4869
:100520001649086068460078032804D1114801681C
:100530001A4A0A400260ADE1C8680009D94BD318D5
:100540009842F9D1E1E700BF00004040240040405C
:100550000000A0400400F0400400D0400400E0404F
:1005600010E000E0000C704051E5CC1A080000A03B
:10057000080000C00400004800000410140000201F
:10058000180000200C00002000E200E024040020FD
:100590002800002024000020CCBCECFCFFFFFFCF93
:1005A0000120C14908828D808D6000226C49199814
:1005B0004866486E9300CB580360521C001D486685
:1005C000192AF6DB6798B949088066987F49086060
:1005D0000020810088AA52587A50401C0828F8DB75
:1005E00065987949C8616498B149886163983060B9
:1005F000629870606198B0606098F0605D98B061DA
:100600005E9870615F9830611C98B0621C98F061D0
:100610005C98F0625B9830635A987064A548599969
:1006200001605899017457990183569901772030D8
:100630005599017054994160539901725299818181
:10064000519901772430509901704F9901714E9959
:1006500001724D9901734C99017497484B9901604F
:100660004A99416049990174489901752430479924
:100670000170469981804599816044998181002269
:1006800010050119900016AB1B580B6014AB1B58DA
:100690004B6012AB1B588B8310AB1B580B840EABFB
:1006A0001B588B840CAB1B580B850AAB1B58CB62B9
:1006B0004C3108AB1B580B8006AB1B584B6004AB8E
:1006C0001858C860521C012ADADD4398B021090687
:1006D00008607A48289941608560299901607848C6
:1006E0004299016041994160409981813F9901821D
:1006F0003E9941613D9901763B9901633A99416385
:10070000399981633899C163379901643699416495
:100710003C9981856B483599018034998180339962
:100720000173329901746849319A0A408282309A81
:10073000027666482F9A02802E9A82802D9A027342
:100740002C9A02742B9A114081822A990176604872
:1007500027990160269901721B985E4902E000BF4B
:100760007C0300200860142068431A994018A900EF
:1007700078AA5258426080AA5258026070AA525811
:10078000826068AA5158C1606D1C082DEBDB812086
:10079000C0052599416024990173239941832299C9
:1007A000018321994162209981621F9901801E98DD
:1007B000494908603E480078002834D168464078AE
:1007C000002830D0384803E004ED00E000E100E00C
:1007D000018809220A40092A02D1F16989051FD43A
:1007E000018811220A40112A02D1F169490517D462
:1007F000018821220A40212A02D1F16909050FD47A
:10080000018841220A40412A02D1F169C90407D472
:10081000008881210140812905D1F069800402D539
:1008200001202E4908602E4D68460078032803D128
:1008300028682C49014029601D982B490872684698
:100840000078032801D1012100E00021002000F000
:1008500025FA1D98C0071DD500F08EFB694608805B
:1008600068460088400512D42048008800070ED54D
:10087000E8681F490968081A0002001200D54042C2
:10088000212804DAE8682D30EA689042FCD215206D
:1008900018490870189880F3108800207FB012B0B3
:1008A000F0BD00BF0400F0FF080010480400104035
:1008B000080090400C0030400000404010E000E094
:1008C0000400F0400400D040BFFF00000400E040FE
:1008D00000007040000C7040080000C000E200E022
:1008E00004000048FFFFFFCF00002040C0000020B0
:1008F000180000200000C040F8B5294D00202968EC
:100900000A4640321378D279934348D14A6E120E88
:1009100045D13E22525C002A41D1431E21488D6AB6
:10092000467A1A460024F600AD190926F6063769FC
:1009300000887D1907070120002F07DA1123DB014A
:10094000CB189C6A631B1B021B1228D407273F028B
:10095000C919C96DCF0103D54A1B120212121ED448
:1009600001252D07002B06DA002A0ADA75600E48E9
:10097000856003200AE01120000604437460002A09
:1009800003DB2943084600F057FB022004490968AD
:1009900040314A78002A02D0002048700320F8BD78
:1009A0006C030020C0000020400000480320704776
:1009B00010B500F0FFF900F067FBE120400200F005
:1009C00078FB1C4C2000943000F0EEFB010003D0BB
:1009D000200000F00BFCFEE7002000F03BFC0220B2
:1009E00000F038FC002000F055FC022000F052FC22
:1009F00000F09AFC002805D001002000343000F0FF
:100A0000F5FBFEE71BA12000583000F0EFFB00F0E3
:100A1000C7FD00F038FD002200210320FFF750FB46
:100A2000F5E7BFF34F8F044804490860BFF34F8FC9
:100A3000FEE70000F85A05100400FA050CED00E08E
:100A4000042800DB704780B513211378507800022A
:100A5000184300F0E7FD01BD80B500F070FB0028F1
:100A600003D100F071FB002801D0002002BD03205B
:100A700002BD0000312E302E300000000F21114A3F
:100A800013681B090B404370136819408170D268CA
:100A9000426001210C4B9A4208D10C4A12680C4B5F
:100AA0009A4201D1042202E0022200E001220270F7
:100AB0004278002A00D1417006490988491C890002
:100AC000816070471C00904041A000021C00001093
:100AD00044A000F2140010407FB504000D00160081
:100AE0006846FFF7CBFF684601782170417829708E
:100AF000807830707FBD0C0802170D0101020909D2
:100B00000101060209FFFFFFFFFF0909FFFFFFFFC9
:100B100010B5C20018231340FF249C40E24389070C
:100B2000090E9940030004D55A481B071B0F083BC8
:100B300000E099489B089B00C01803681A401143C5
:100B4000016010BDFEB5002653480660032400F086
:100B500013FA6946088068460088002801D1641E9F
:100B6000F5D168460088202837DB684600880124D4
:100B70000125400525D46846FFF780FF6846417887
:100B8000090180780843122800DA002583480068AC
:100B9000000705D4002D14D0012000F062F810E009
:100BA0007F4FF8687F4E3168081A2838000200121B
:100BB000002806DD002D02D0012000F052F8306838
:100BC00038607948047000F0A8F9BFF34F8F774878
:100BD000A4490860BFF34F8FFEE70120FEBD10B5AA
:100BE00000220021A04804E00B00415C5918491C78
:100BF000C9B2435C002BF7D1CB1C202B12DA0223A5
:100C000043542123441863700823A3704318DA70F7
:100C1000964A80235B02401880B218431060106827
:100C20001840FCD110BD70B5002100238E4A04E0AD
:100C30001C00D35CE3185B1CDBB2D45C002CF7D146
:100C400002253524DE1C202E05DAD554D618747002
:100C5000B070D218D170864A157054709070D170EF
:100C600070BD70B580214902814B9CB20C437F4A14
:100C7000002804D01460106808400AD0FBE7987878
:100C80009D78FB262E409E70146014680C40FCD1A9
:100C9000987070BD1CED00E014000020F8B58AB01B
:100CA00005000C0003A800BF79A11C2200F0BEFCC7
:100CB0006846FFF7E3FE6D4E002D54D003A8402197
:100CC00081734C21C17220210172B22141745B21D8
:100CD000017568498B6B684A1D0C954209D1C57D29
:100CE0008F272F40C775C57D1B0170271F402F43DD
:100CF000C7754B6B1D0C954209D14579CF272F4005
:100D0000477145791B0130271F402F434771096800
:100D10000B0C934208D1C27DFC231340C375C27DE6
:100D20008907890F1143C175C17AFB220A40C2723B
:100D300069464A7812018D781543112D06DDC17D73
:100D400004220A43C275C07DFFF76DFF8020400278
:100D500003A989B20143316031680140FCD1112DF2
:100D600001DDFFF73CFF124881890029FBD00121FA
:100D700081811721018000214160002C07D070681B
:100D8000102172680A40102303409A42F9D03B4870
:100D90003B4908600BB0F0BD00E400E0C00000205B
:100DA00004000048180000200C0000200400FA0590
:100DB0000C00104880B5082032490880032101202A
:100DC000C043FFF7A5FE03210020C043FFF7A0FEAC
:100DD00003210020FFF79CFE03210120FFF798FE6E
:100DE00003210420FFF794FE03210520FFF790FE66
:100DF00000210620FFF78CFE03210720FFF788FE65
:100E000003210D20FFF784FE03210E20FFF780FE53
:100E100003210F20FFF77CFE03211120FFF778FE4E
:100E200003211220FFF774FE03211320FFF770FE49
:100E300003211420FFF76CFE03211520FFF768FE45
:100E400003211620FFF764FE03211720FFF760FE41
:100E500001210120FFF722FF0B480C49086062B610
:100E600001BD00000CED00E0F40300200C00004880
:100E70001C000020B007001055AA0000CCBCECFC00
:100E8000140000200400104066000E002000904076
:100E9000023F00023E30023C20023B4C023A40023C
:100EA00039B202345B02350B00000000054900280E
:100EB000086803D0042202430A607047042290436A
:100EC0000860704710ED00E0EFF31482EFF3098142
:100ED000002080F31488BFF36F8FF0B543464C4673
:100EE00055465E466746F8B4164CEFF30883236018
:100EF00006B4154C2068154C2060154C2068154C24
:100F00002060154C2068154C2060154C2768002087
:100F10002060BFF34F8F30BF27600A4C246884F3F2
:100F2000088882B003BCF8BC9846A146AA46B346DE
:100F3000BC46F0BC04BC80F3098881F31488BFF37D
:100F40006F8F10470800002004ED00E0240000200F
:100F500024ED00E02800002000E200E0240400204E
:100F600008002040304A0129116802D1084310606E
:100F700070478143116070472C4802782C480188E3
:100F80000020002A44D109220A40092A00D1202049
:100F900011220A40112A02D10200402010432122CE
:100FA0000A40212A02D102008020104341220A4037
:100FB000412A03D1020080204000104381220A40D0
:100FC000812A03D10200802080001043FF22921C5E
:100FD00013000B40934203D102008020C000104355
:100FE000144A13000B40934203D1020080200001F9
:100FF000104305220A40052A02D1020010201043A6
:101000008907890F03290ED1010008200843704782
:10101000022A01D101207047042A01D10220704721
:10102000082A00D10420704720009040080090401A
:10103000080010480104000030B5EFF3108172B6CB
:101040000922D2061269FF25821A120214120C4AD2
:1010500091351368AC4208DC0122120690431A460F
:101060004032D479DF252C40D471C2010724D20943
:1010700024021B19DA65034A906081F3108830BDA1
:101080006C030020400000480120034908707047AD
:1010900001480078704700002D04002010B50400BE
:1010A000202000F095FB0128FAD0200000F08BFBF7
:1010B00010BD78B585B0040001210920FFF752FF6B
:1010C000FFF7E6FF244980000818001F0068009021
:1010D000FFF7DEFF6D46214980000818001F0068F9
:1010E00028710026AE716E71684600F09FFBFFF715
:1010F000CFFF1B4980000818001F00680090FFF711
:10110000C7FF184980000818001F0068287168464A
:1011100000F08CFB0294032002A908714871CE8074
:101120004E7208720120887202A800F0B3FA002003
:1011300000F05CFB012000F0A1FA06B070BD80B5A4
:10114000802000F045FB2AE080B5082000F040FB3D
:10115000012800D0002002BD7470051078700510C1
:101160007C7005108070051070B50024012804D033
:10117000022802D00020C04370BD002901D1002008
:1011800070BD0D00160004E02878FFF787FF6D1C86
:10119000641C3000461E0028F6D1200070BD401EA1
:1011A0008041C00F02BD704710B5837F012200242B
:1011B00092024168082B03D94224914202D310E0E5
:1011C000914201D242240CE001463422064800F04C
:1011D00083FB00F095FB002801DA482401E000F0D1
:1011E000CFFB204610BD00005C0000200EB4C0B54F
:1011F000020003A801900020009001AB01210448E7
:1012000078440C3000F030FC029906B0084700BF6B
:10121000255D010038B50E4D2C000C3C002811D086
:10122000022807D00ED2FFF733FF0C2148432818BD
:10123000083805E0FFF72CFF0C2148432818001F51
:10124000006832BDFFF724FF0C214843205832BD0F
:101250002C7005101CB5040001210120FFF782FE4F
:101260002000FFF7D7FF0090684606210171012199
:101270008171417100F0DAFA2000FFF7CBFF002105
:1012800000F01EFB13BD80B5FFF7C4FF012100F085
:1012900017FB01BD80B5FFF7BDFF002100F010FB7B
:1012A00001BD7047E0B5684610210170042101714D
:1012B0000822C2700122427142708170A249C9683D
:1012C0000968884707BD1CB59F4C6846E168896A74
:1012D0008847002826D1009800F086FE207200047E
:1012E0000016607221000A2000F09BFE009800F0BA
:1012F0007BFE040000F0B0FE0100009800F0EFFE5D
:10130000924900F044FF00F06FFE02000098802137
:10131000090400F095FF01D95042020021008C48D9
:10132000FFF764FF13BD000038B58AB008A800BFFE
:101330008EA10CC90CC007A88EA10A68026008AA79
:101340000621002000F090FF0500824C02D0290009
:10135000200056E00421012000F08AFF00F08CFFFD
:10136000050003D02900200030304AE006A8019093
:1013700005A8009005AB9B1C07220021012000F06E
:101380007FFF050002D029007BA03AE007A8039068
:101390000420029000200190042000900023684661
:1013A000828AC18A002000F083FF050003D0290053
:1013B0002000543025E0002000F08BFF050003D012
:1013C0002900200088301CE000200490624803902F
:1013D000002002901020019007200090002301229D
:1013E0000121012000F07EFF050003D0290020002C
:1013F000B83006E000F0C0FF050006D0290020004C
:10140000E430FFF7F3FE280002E0FFF74BFF002077
:101410000BB030BD18B589B007A800BF5EA10CC9DC
:101420000CC007A9062001F04FF801004B4C02D078
:101430002000FFF7DBFEC822D200002006900590B6
:10144000049003900290019000900023110001F09D
:1014500046F8002804D0010020003430FFF7C6FE13
:1014600039490A2000F0DDFD002804D001002000E9
:101470006030FFF7BBFEFFF726FF20009030FFF73C
:10148000B5FE0AB010BD70B50124354D68688007FF
:1014900006D52C70FFF7BEFF68680221884368609C
:1014A0000026686820400CD02878002801D16868A0
:1014B00070BD2E701321688800F0B4F86868A043EE
:1014C0006860686804400AD12878002807D02E7028
:1014D000FA218900012001F023F8FFF7F4FE70BD26
:1014E00080B51F48426801231343436041800021B7
:1014F0000170012001F021F81A49012001F010F8D3
:1015000001BD80B5164841680122914341604168A0
:1015100002220A434260012001F00FF801BD80B5AC
:101520000800029AD9B200F06BFF01BD80B50E48E9
:10153000002900D12430FFF759FE01BD012801D157
:1015400007490870704700001003002000007A442B
:10155000946905100856051040E20100C05B0510B3
:101560000803002060EA000074630510010080E1B8
:10157000800200004E6F64656163695F6761705F40
:10158000496E69742829206661696C65643A203067
:1015900078253032780D0A0005094E6F6465000029
:1015A00010B500F0D3FF1D4C4121206849014118BE
:1015B000097F00290DD1A0300079C00705D101F0C5
:1015C00053F801F071F801F03DF901F005FA01F06E
:1015D00013FA01F097FA2068014640310A78C97978
:1015E0008A4319D13E21095C002915D10C490A888A
:1015F000120711D50922D2061269497A836AC900F5
:1016000059181123DB01C018806A801A00020012E9
:10161000814201DA01F0D8FA10BD00006C0300200D
:10162000C000002010B501F07BFB10BD70B4103A73
:1016300003D378C9103A78C0FBD2530701D318C935
:1016400018C001D508C908C0D20704D30B8803808D
:10165000891C801C002A01D50B78037070BC704770
:101660008B0701D18307E1D0124205D00B78491CCA
:101670000370401C521EF9D1704770476149002821
:10168000086803D0012202430A6070470122904398
:1016900008607047F0B50400216801255A4E5B4888
:1016A0007269D2082A4001D1090100E0C90001F0A5
:1016B0003BFBC10931810904490A401A401C40081A
:1016C00081B23F2902DD3F388006800E30736020F2
:1016D0009F21327C0A4023795B010340134333741A
:1016E000327811406279520110400843307008216D
:1016F000F720327C0240A379DB0008271F40174304
:10170000377432781040A279D20011400143317011
:10171000E179002907D1FD20317C01403174317815
:10172000084030701CE002200229317C0BD10143BB
:101730003174FB21327C0A403274327810433070AD
:10174000307801400BE0014331740421327C0423E2
:101750001343337432781043307030780143317062
:1017600070692B490140207A28404002084370618B
:10177000706928490140207A400828400002084347
:101780007061706924490140607A284080030843F1
:101790007061706921490140607A40080540E803A2
:1017A000084370611020EF21327C0A40A37A1B01AC
:1017B00003401343337432781140A27A120110406F
:1017C00008433070F0BDC005C00D15490880704752
:1017D00001001448002901D5006800E0808AFFE775
:1017E0000140080000D00120C0B270470E490A78BD
:1017F000C7231340C0003822FFE702401A430A7093
:1018000070470000300030401C0030400000127A69
:10181000FFFDFFFFFFFEFFFFFFBFFFFFFF7FFFFF9B
:10182000000030400400304034003040F0B504790E
:1018300022000021264B002C04D11C680568AC4313
:101840001C6006E0062C04D100221C6805682543B4
:101850001D600568CD40ED071AD5082909DA8D000D
:101860009E6A0F27AF40BE431700AF4037439F62C9
:101870000EE00D00083D082D0AD20D00083DAD0018
:10188000DE6A0F27AF40BE431700AF403743DF6229
:10189000491C1A29DDDB01684279012A9A6802D1C4
:1018A0001143996001E08A439A60016880790128B8
:1018B000586802D101435960F0BD88435860F0BDBB
:1018C000044A012901D11060704750607047000040
:1018D000040000403C00004010B50400FFF7C0FECB
:1018E000200010BD10B50400080011000200200007
:1018F00001F072FA200010BD80B501F097FA02BD28
:1019000070B50025ED4301F0A0FA01282ED0002388
:1019100018490322888BFF24401E10438A7F5934C4
:1019200062438218088B282460431218488B3024A5
:10193000604312180846203040782C246043101869
:101940000D4A181884184869A0420DD10B488442EA
:101950000AD90D6901F079FAC1B2284601F078FA86
:1019600001F0B2FB401B251A284670BDFF23B5339A
:10197000CEE700005C00002089190000B8090000D3
:10198000F8B5062632484025056032480027078012
:10199000A9050920C00641602F4A916001680160D5
:1019A0002E48032104694269601E08433946401CE1
:1019B000FFF798FF01F049FAC1B2204601F048FA5A
:1019C00001F082FB01F082FB01F026FC2449172084
:1019D0008881244C2068421901465770FA20886299
:1019E0002820107001F0FEFB012805D1206810228C
:1019F000403001781143017001F042FC012805D10B
:101A0000206880224030017811430170206801462F
:101A100040300278324302700020C043086601F073
:101A200069FC01F021FD01F051FD20680121203009
:101A3000017707214177012001F08EFD01F0AEFD15
:101A400001F060F802488038056002210160F8BDAD
:101A500080E100E0C0000020400000485C00002061
:101A6000000010486C030020F8B596B00500170080
:101A70001E001C98049103A92B22885400200A9070
:101A800002950E9700960EE0252912D00498029A2E
:101A900090470490002800D1D2E00A98401C0A9098
:101AA0000E98401C0E900E9801780029ECD10A98EF
:101AB000C8E00020079008900990022608210191B3
:101AC000012404210E9D00E020436D1C2A78202A69
:101AD000FAD0232A0AD02B2A04D02D2A04D0302A67
:101AE00008D00AE03043F0E70843EEE702000820A0
:101AF0001043EAE702001020FAE72A2A0ED1009AE2
:101B000017683A683F1D009B1F600C92002A03D59E
:101B100053420C93014308006D1C14E000210C910A
:101B2000004A0BE0CBCCCC0C0C9B934205DA9F0017
:101B3000FB185B00591830390C916D1C29780B008B
:101B4000303B0A2BF0D329782E2903D00021C9433A
:101B50000B9127E06D1C29782A2908D10099096882
:101B60000A68091D009B19600B926D1C1AE02D2953
:101B700002D12D236D1C00E0002300210B910CE00D
:101B8000002B09D10B9ABC4FBA4205DA9700BA185C
:101B90005200511830390B916D1C29780A00303AE7
:101BA0000A2AEDD303A908852F783900B3A001F0E4
:101BB0005FFD002801D038006D1C03AF2A21785446
:101BC000785C682805D12878682802D1622078548A
:101BD0006D1C10A806902A78681C0E90252A15D036
:101BE000582A52D0632A00D1BCE0642A00D17FE099
:101BF000692A00D17CE06F2A47D0702A3AD0732A34
:101C000008D0752A41D0782A3FD0B5E0079410A9B2
:101C10000A70BAE0009800680468001D0099086026
:101C20000594002C13D12B20385C00280CD0002404
:101C3000E44300BF93A001F025FD201A00D1A4E0E9
:101C40000020C04317B0F0BD95A005909DE00B9D0E
:101C5000002D03D5200001F039FD09E02A00002104
:101C6000200001F03BFD002801D0001B00E028000F
:101C700008908AE0009800680168001D009A1060D2
:101C8000039110A80590782168E0785C622803D061
:101C9000682809D06C280FE0009801680868091DC1
:101CA000009B1960C0B20DE0009801680868091D2A
:101CB000009B196080B205E0009801680868091D62
:101CC000009B19600390388D0199C0B2084240D042
:101CD000039800283DD020201043782839D1079858
:101CE00010A930230B54401C431C07930A5430E0C6
:101CF000785C622803D0682809D06C280FE000982F
:101D000001680868091D009B196040B20DE0009849
:101D100001680868091D009B196000B205E0009881
:101D200001680868091D009B19600390002802D50E
:101D300007982D2109E0388D304202D007982B21D9
:101D400003E0C00705D50798202110AB1954401CAB
:101D5000079010A8079940180590110003A800F0FB
:101D6000A0F812E00794009800680168001D009A2E
:101D7000106010A8017008E00794252010A90870D1
:101D8000100002D0079610A842700C980799401ACC
:101D90000999401A0899401A0F902820385C40078A
:101DA00013D42020694608710F9800280DDD0F9C80
:101DB000029D012301AA03A9280000F0FAF80028D7
:101DC00000D03DE7641EF4D10295079D10AC002DB4
:101DD0000ED0029E227803A9300000F0D9F8002826
:101DE00002D4641C6D1EF5D10296002800D027E7AE
:101DF000302069460871099C002C0CDD029D0123EE
:101E000001AA03A9280000F0D4F8002800D017E7A1
:101E1000641EF4D10295059C089D002D0ED0029EF3
:101E2000227803A9300000F0B3F8002802D4641C23
:101E30006D1EF5D10296002800D001E72820385CFD
:101E4000400700D42FE62020694608710F9800282B
:101E500000DC28E60F9C029D0E9F009E012301AA34
:101E600003A9280000F0A5F8002800D0E8E6641EC9
:101E700000D105E6F2E70000CBCCCC0C686C747A9C
:101E80004C0000007072696E74665F733A20626184
:101E90006420257320617267756D656E74000000A3
:101EA0000000F0B583B00A00C4686F2901D108258D
:101EB00006E020211143782901D00A2500E01025F1
:101EC000182701680E00642A01D0692A03D100296D
:101ED00001D571420E00002E0CD1016A002909D1F2
:101EE000082D31D12821415C09072DD51727302134
:101EF000E17529E00290684602707F1E019730006C
:101F0000290000F011FF3031C8B23A2803DB6846DF
:101F1000007851380918E1553000290000F004FF1D
:101F2000060004D002988068E1198842E5D302983F
:101F3000082D09D12821415C090705D5E15D30292B
:101F400002D07F1E3021E1551821C91B4161E219E1
:101F50008260026A914206DA511A8161018D0B4A50
:101F60000A40028510E0002A0ED52822825C142344
:101F70001340102B08D1426A0369D21A8369D21A1E
:101F8000511A012900DB816103B0F0BDEFFF0000B1
:101F900010B503000C0011006068984760600028CD
:101FA00004D0E069401CE061002010BD0020C04367
:101FB00010BDF8B50024002B11D007000E0014004E
:101FC0001D0021787068B8477060002809D0F0695A
:101FD000401CF0610020641C6D1EF2D10400200042
:101FE000F2BD0020C043F9E70122D2070118090E13
:101FF0007F3910D449421F310FD4001805D2C001D7
:102000001043C84000D5D0437047C0011043C840BA
:1020100005D440427047002070470042F3D51000BD
:10202000704710B50A461F2801D9122010BD01467D
:10203000104601F05FFB10BD9D2102000AD002D4C2
:10204000491E9218FCD5C905100A1206524100D348
:10205000012A4841704700009D210200EED55242FE
:10206000F446FFF7EBFF0122D2071043604701223D
:10207000D20703004B402ED4431A01D2C01AC9180C
:1020800030B44B180418240E1B0E22D0FF2C20D085
:10209000E31A182B1DDC09021143C40D641E000253
:1020A000104394461925ED1A0A00AA40D940451854
:1020B00001D36D08A41CE405D209280A2D062A4381
:1020C0006546AA41604103181B0EFF2B01D3C00DCA
:1020D000C00530BC7047514006E05140CCE70122BA
:1020E000D20703004B40F8D4431A03D2C01AC918D0
:1020F0005040514030B44B18090211430418240ECB
:102100001B0E40D0FF2C3AD025009D410BD31ED88A
:10211000C50D4002401A0BD3ED050100400AC90568
:1021200091416841D5E7C50D40024918401AD0D009
:1021300001214008491C0018FCD58C4204D36D1ABB
:10214000000AED054019C4E7E8051040C1E7182D65
:10215000BFDCAC1C0D00E140E5414D40012D494183
:10216000C40D00021043451A01D46D199543641E35
:10217000E405280A2D069541604130BC7047FF2BCD
:10218000A7D1D843A5E72442A3D10020A1E730B4CA
:1021900005004D400122D20715404B180418240EAB
:1021A0002ED01B0E32D0FF2C34D0FF2B3AD0E418A7
:1021B0000002090210431143000A090A9446C2B200
:1021C0004A43000AC3B24B43000A4843110A5B1852
:1021D0001A43D2B2190A091801D44918641E080A10
:1021E0007F3C23DBFE2C08DAE40509061143634635
:1021F00099416041284330BC7047FF20C005F9E792
:1022000028001B0EFF2BF6D1D043F4E72800FF2C4B
:10221000F1D1F9E74002F7D1FF2B01D14902F3D107
:10222000E005E7E7D8054902E4D0EDE743020020E6
:10223000641CDFD15B129B1CDCD9D805DAE7704740
:102240000CB4012212060318DA4207D84B18DA42FE
:1022500004D802000A43921802D281420CBC704793
:10226000FCD088420CBC704710B501F07FFA10BD5D
:1022700010B501F071F910BD10B501F01BFB10BDD8
:102280007CB5069D079C002805D0860705D146072A
:1022900003D4060701D442207CBD002903D00129C4
:1022A00001D00229F7D10095019401F0CDFB7CBD4E
:1022B000F0B585B084460AA8F0C868468581C68115
:1022C00003A8019002970094604601F0BBFC05B0A2
:1022D000F0BD10B5042801D9422010BD01F07AFEEE
:1022E00010BD7047FFB583B003980C9D1E46144681
:1022F0000F46002804D0012802D0422007B0F0BDCC
:10230000002F01D0012FF8D1E81F0A28F5D20D982F
:102310001028F2D8A842F0D30E98002801D0012846
:10232000EBD114490F988842E7D81098002801D0C3
:102330000128E2D100F0A4FF012804D02046304358
:1023400005D01120DAE7022CD7D8012ED5D868465F
:102350000399017047708472C67285700D99C170BF
:102360000E9901720F98019068461099417201F020
:102370004FFEC3E73F420F0010B58EB00AA800BF62
:1023800036A11022FFF752F906A800BF37A110228C
:10239000FFF74CF92F4C10220AA9201DFFF79CFAD9
:1023A000102206A920001430FFF796FA00940323A8
:1023B0000122211D022001F03FFE00281AD1A01C9D
:1023C000059001200490102003900120029000202D
:1023D00001900E2000900123220014320221208857
:1023E00001F045FE002805D161881B48FEF7FEFE7E
:1023F000002003E021A0FEF7F9FE47200EB010BD3B
:10240000F8B5160013494988491C884220D100BFFD
:1024100022A0FEF7EBFE002428A700BF24A509E0B8
:1024200021003800FEF7E2FEE0B2FEF733FF0CE0D9
:10243000012C0AD03078E040C007F1D521002800F7
:10244000FEF7D4FEE0B2FEF71EFF641C022CEFDDA7
:10245000F1BD00009000002030650510BA5CF793D4
:102460003B12D389E4110D9B2EF60EEDBA5CF79367
:102470003B12D389E4110D9B1AFB0EED4572726F6E
:1024800072207768696C6520616464696E672052A8
:102490004320736572766963652E0A00436F6D6D24
:1024A000616E642072656365697665642E0A00005A
:1024B0004C4544202564204F4E0A00004C454420E2
:1024C0002564204F46460A0010B50A461F2801D948
:1024D000122010BD0146104601F0E8FD10BDFFB509
:1024E00087B0109D159E169C01930295009407A835
:1024F00007C81F46334601F007FE00280ED1139887
:10250000149903AA069443C2119812990190009558
:10251000029107A807C83B4601F024FE0BB0F0BDAE
:1025200070B50D46044601F039FE294601F040FE23
:102530000146204601F04EFE70BD1FB569463A3097
:102540000873684601F054FE1FBD7047F0B50026C1
:1025500093B0701E0E9042481D21006889014418F6
:102560000920C0060069374605022D0A72B6A06927
:102570002146281A0002000A223101F065FE616935
:10258000A56140186061364800684030C1798A060C
:1025900063D420221143C17162B6256814E0A86893
:1025A0006169401A00280ADCBA0001A8761C85502F
:1025B0007F1CF6B2FFB2287B01F05EFE03E00E99AD
:1025C000884200D20E902D68A542E8D120460830FE
:1025D00000250C901830129018E0AF0001A8761E6C
:1025E000C159F6B2204601F085FE01A8C1590C98E8
:1025F00001F090FE01A8C059007B3A2804D212983D
:1026000012990078401E08706D1CEDB2002EE4D1C6
:102610002068A04217D03D256D04284601F081FEB8
:1026200001460E98814201D8284601E001F082FE61
:10263000A169081800020121000A09064018FEF7E6
:10264000FBFC13B0F0BD72B60020054907220968F3
:1026500012028918C8650349886062B6F1E7000074
:102660006C030020400000481FB50E480468AE34DB
:10267000E078010612D5A178C9070CD0800708D5EB
:10268000042069460873684601F0B2FD022001F09B
:1026900061FE0020E0704006400EE07000F0B8FDE2
:1026A0001FBD00006C030020F0B58BB00020634913
:1026B000029063480A68141872B610464030C57913
:1026C00002231D43C57162B625464035287AC007EE
:1026D0007DD00920000210180026C76E49E0710164
:1026E0007A5A002A43D0C919069109694A021ED4B0
:1026F0008A0226D502210491069901230988090539
:10270000090D0391392149014118097C89070ED52A
:10271000D902083040182322C06C022101F042FE89
:10272000010004D0039A8A80049801F099FE06986B
:1027300000880090069801F0A7FE009801F022FFA3
:1027400015E0480713D5069800880005000D01F034
:1027500027FF002805D1069800880005000D01F02C
:1027600043FF069904200969814306980161761C9C
:10277000F6B23248AC210068095CB142AFD802F031
:10278000D9F820462430064602F08AF9012802D002
:10279000012002F08DF92046183002F081F901285D
:1027A00002D0002002F084F93C34204602F078F98F
:1027B00001280FD002A9204602F076FA04200299DF
:1027C00002F089FA0028F0D02046029900E032E0B9
:1027D00002F0A7FA287A00062DD5304602F060F9FB
:1027E000012828D1002002F0AFFAA98B2331490932
:1027F000491CC9B200F098FA00281CD00F4D0446BD
:1028000028680123D9020830401842263822C06CBB
:10281000314601F0C7FD01000DD000228A80CC8036
:10282000304601F01DFE3D212A68490151180A7BFE
:10283000802082430A730BB0F0BD00006C030020BF
:1028400064070000F0B593B00020069072B65F4DAB
:10285000042128684030C2790A43C27162B600F090
:1028600007FD00265A4F73E03868C16F7C20704323
:102870000C186BD02089002868D0617BC9075FD015
:102880000005000D21462A310190102211910CA85B
:10289000FFF722F807A9204602F074FA00283CD07E
:1028A000019802F0ABFA0B90207B80070CD00198C6
:1028B00002F0ACFA0246474B0021012002F0C8FAB0
:1028C000207B0009000120730220049001980390EE
:1028D000032002903921286849014118897B01238E
:1028E000890712D5D902083040181322C06C022182
:1028F00001F058FD010008D0039A8A80029A002353
:102900008A71CB71049801F0ABFD0B983A280AD07C
:10291000607B40084000607312E007A9019802F054
:10292000B7FA0B90F1E710220CA91198FEF7D4FF2B
:1029300072B62868FB224030C1791140C17162B67D
:10294000A07A002802D0204602F0AAFA761CF6B23D
:102950002868A030007BB04286D830E006A93868ED
:1029600002F0A2F90698808802F05CFB010022D0F8
:1029700006988268127B052A05D08B7A102B05D920
:10298000F12B03D00BE002F073FB14E074235B5CCB
:10299000DB0702D0012A0ED101E00B2A0BD102F095
:1029A00072FB002807D0FD2805D00699386802F090
:1029B000B8F913B0F0BD0121069802F097FB386812
:1029C00002F06EF80028C9D0F3E700006C03002085
:1029D000700300203075000010B500F0DBFB00F044
:1029E0003BFC00F032FA012801D102F09DFB00F01F
:1029F00007FC02F09BFB10BDFEB572B63F4D0823ED
:102A0000286801464030C2791A43C27162B600207C
:102A100001276C46FF0282005218D219D26C5288EC
:102A20004300401CC0B2E2520328F4D372B6C81966
:102A30000021866B816362B6F00702D00020FDF7AB
:102A4000F0FFB00702D50120FDF7EBFF700702D5BC
:102A50000220FDF7E6FF300702D50320FDF7E1FF76
:102A6000002623E00D281AD2211D254A8000125885
:102A700020469047002812D072B62868F7224030CE
:102A8000C1791140C17162B630E03A2807D21C49C1
:102A9000231D8000E8390A581946204690470298BD
:102AA00029684018C019C06C2188018071006846EF
:102AB000415AB00002902A688018C019C06C028880
:102AC000920892001418028808348A420ED0A27824
:102AD00091070BD09107890F012901D104460834D1
:102AE000A0788008C006E078CFD5BBE7761CF6B2A8
:102AF000032EDBD302F03EFBFEBD00006C03002082
:102B0000D4550510F8B52C4F3C68206E5C34401C41
:102B1000002814D0002529480023C07B00283ED07F
:102B20000926F6062648002D1CD000210A460B4631
:102B30004169521C994204D1002902D004E00125C8
:102B4000E9E7204B9A42F2D3216000696060306966
:102B5000A1680002090E000A09060143A16002F003
:102B600023FB1DE03169A2680902090A150E08D08D
:102B7000018BC90712D04169216000696060E3726E
:102B800010E0881A00027D2300121B03984205DD25
:102B9000100E00060843A06002F006FBF8BD63605B
:102BA000002DFBD003CC02F00DFBFA2001F0C2FB9C
:102BB00039688862F8BD00006C0300207C000020AA
:102BC0000000104888130000FEB5524800886023BA
:102BD00041075148490F0268092000021018826E0F
:102BE00059435418A27825695207520F216A00925E
:102BF000022A01D0052A20D12A0404D4627992073E
:102C000001D1002919D0A66A444A2B0443D563791F
:102C10009B0715D0676B77800120C0038543256132
:102C200000F013F9012809D01F217878014204D05F
:102C3000218A890401D5001D7870FEBDFF21F4E7CB
:102C40000029FAD01542F8D10A7C406FD206D20E84
:102C5000921C1718B8B201907080204602F0F6FA64
:102C60000120C0038543256105110098052800D186
:102C7000AD0000F0EAF801280BD01F21787801425E
:102C800004D02169294201D0001D7870019870801C
:102C9000FEBDFF21F2E7708801235B07C01863794E
:102CA0009C469B0704D0636B834201D0012700E060
:102CB0000027666B864202D02388834212D1002906
:102CC00012D015420ED1012300290ED086420CD01D
:102CD0002488844209D00968002906D0154204D10D
:102CE000012103E00023EFE7002300216246920662
:102CF000920F03D00022002F06D101E00122FAE753
:102D00000B43C5D0002AC3D00178102211430170B3
:102D1000FEBD0000C00000206C0300206006000023
:102D200010B502F0D5FA10BD0022030A8B420BD277
:102D300003098B4219D243088B422ED2411A00D28A
:102D40000146524110467047FF2209023FD0120649
:102D50008B4205D3121209028B4201D312120902CF
:102D600003098B4219D300E0090AC3098B4201D33E
:102D7000CB01C01A524183098B4201D38B01C01A87
:102D8000524143098B4201D34B01C01A52410309FE
:102D90008B4201D30B01C01A5241C3088B4201D3AD
:102DA000CB00C01A524183088B4201D38B00C01A5A
:102DB000524143088B4201D34B00C01A5241884212
:102DC00000D3401A5241CFD201461046704708B591
:102DD00002F09CFA08BD70471206130A1A43130C3E
:102DE0001A4300BF094205D0830707D00270401C78
:102DF000491EF9D1704700000022FFE71300103987
:102E000006D330B41400150010393CC0FCD230BCDD
:102E1000490700D30CC000D504C0890002D302804A
:102E2000801C002900D5027070477047A446521ECE
:102E300008D303780C78401C491CA342F7D0181B18
:102E40006446704700206446704700207047704712
:102E5000F3B581B0984A012101A802F058FA974CC5
:102E600004222060432101A802F051FA01272168C1
:102E7000FF02C91908640422432101A802F047FA9D
:102E800021680422C9194864FF21843101A802F095
:102E90003EFA21688A4DC9198864A97F0C2201A8CD
:102EA0000B3102F034FA13212268C9015118C860AD
:102EB000A97F202201A802F02AFA092621683602F9
:102EC0008919C867A97F102201A802F020FA1321EE
:102ED0002268C901511808602822052101A802F0C2
:102EE00016FA13212268C901511888603022052181
:102EF00001A802F00CFA13212268C9015118486098
:102F0000FA10012101A802F002FA13212268C90176
:102F100051184861A97F602201A802F0F8F92168E0
:102F2000202289198866A97F01A802F0F0F921689A
:102F30008919C866AA8B012101A802F0E8F90F21BE
:102F40002268C90151188863298B282201A802F040
:102F5000DEF90F212268C90151180863698B3022FC
:102F600001A802F0D4F90F212268C9015118486361
:102F70000C22012101A802F0CAF921680C2289194A
:102F80004866012101A802F0C2F9216828228919A6
:102F9000496E8860284620300090417801A802F0F0
:102FA000B6F9216804228919496E896888600098F9
:102FB000417801A8491C02F0AAF921681022891958
:102FC000496E89684860A97F01A802F0A0F92168CC
:102FD0000222C9194863A97F01A802F098F9216863
:102FE0000222C919C860A97F01A802F090F92168DE
:102FF0000222C9190861A97F01A802F088F9216895
:103000000222C9194861A97F01A802F080F921684C
:103010000122C9198861A97F01A8491C02F077F92A
:1030200021681022C91908630B2101A802F06FF969
:10303000072221681202891808650422802101A84C
:1030400002F065F9216889190867029ADC20424379
:10305000012101A8443202F05AF921688919486710
:10306000029AD8204243012101A82C3202F04FF9E4
:103070002168F02289198867012101A802F047F927
:10308000104C7C222060A97F01A802F040F9216841
:103090000822C867032101A802F039F92168282213
:1030A00080310860012101A802F031F921688031E6
:1030B00048600198FEBD0000B80900006C030020C4
:1030C0005C0000207003002070477047F0B52B486B
:1030D00013240268E4011019C0681121C9010346D4
:1030E00051180C33CB670923054688671B02183536
:1030F000D1180D600C354D600C358D600C35CD60F0
:103100000C350D610C35CD630C350D640C354D64FB
:103110007830886400201419D21811E0D16F45016D
:103120004D19602141430F46966E3437F5510C25F9
:103130004543E668843575192831966E401C7550F4
:103140000F498D7F8542E9D80C4A0020146813226C
:10315000D201A518E31807E02C680601A61944015E
:103160000834DF6E401C3E518C7F8442F4D8034803
:10317000C968006880188161F0BD00006C03002000
:103180005C00002080B502F0CDF801BD80B502F0F2
:10319000FBF802BD80B502F001FC02BD1FB56C4614
:1031A000A48C0394089C02946C46A48B01946C46F6
:1031B000248B009402F07EFC1FBD1FB508AC247860
:1031C00002946C46247F0194069C009402F076FDE4
:1031D00004B010BD80B502F031FE02BD80B502F032
:1031E0004FFE02BD0120704780B502F08DFE01BD8B
:1031F00080B502F0ADFE02BD80B502F023FF01BD37
:1032000080B503F01DF801BD80B503F03DF802BDA7
:1032100080B503F041F801BD80B503F05FF801BD52
:1032200080B503F067F802BD80B503F0A7F801BDD3
:1032300080B503F0CAF802BD80B503F0FAF801BD0D
:1032400080B503F0FFF802BD80B503F00BF901BDB6
:1032500080B503F013F902BD80B503F01BF901BD81
:1032600080B503F0C9F901BD80B503F0E1F902BDF5
:1032700080B503F0F9F901BD80B503F00DFA01BD89
:103280000120704780B503F041FA01BD80B503F01D
:103290005BFA01BD80B503F091FA02BD80B503F081
:1032A000A7FA01BD80B503F0B9FA01BD80B503F0FE
:1032B000CDFA01BD80B503F0E1FA02BD80B503F09F
:1032C000FFFA01BD80B503F02FFB01BD80B503F00F
:1032D00045FB01BD80B503F08FFB02BD80B503F057
:1032E000B7FB01BD80B503F0DFFB02BD80B503F085
:1032F00003FC02BDC0200006016880220A43026070
:1033000001688022914301607047C0200006016877
:1033100001220A4302600168012291430160704763
:10332000C020000600688107C80F70473948007840
:10333000002801D00120704737480068002800D0DD
:103340000120C0B2704710B50B00521E815C9C5C1E
:10335000091B01D1002AF8D1080010BD00000000AF
:1033600070B50E002B4D2C7801281AD1202200BFF9
:1033700035A13000FFF7E7FF002801D404201BE04F
:10338000FB20204028702548002100229300F4589B
:10339000C3181C60521C082AF8DB20300160002092
:1033A00070BD00BF20A102280FD120223000FFF7FE
:1033B000CAFF002804D4012020432870012070BDDA
:1033C000FE20204028701648DEE70328F6D1202290
:1033D0003000FFF7B8FF002801D40220ECE7FD2001
:1033E000204028700F48CFE7012808D10B48002261
:1033F000835C8B54521C202AFADB00207047022881
:1034000001D10748F3E7032801D10648EFE701207F
:10341000704700002C040020000400C06C0400C0B1
:10342000900400C0B40400C0FFFFFFFFFFFFFFFFD8
:10343000FFFFFFFF00000000000000000000000090
:1034400001000000FFFFFFFF512563FCC2CAB9F372
:10345000849E17A7ADFAE6BCFFFFFFFFFFFFFFFF4B
:1034600000000000FFFFFFFF3EB5174D154829681B
:10347000827F0846A0310A730024603004764476C7
:103480008476E122C27680220277022242773020BF
:1034900008704C7002AA01A96846FDF71DFB68463A
:1034A0000078A22201016846007A891C00020143CB
:1034B000684600790003014328681152A030047166
:1034C0003EBD00005C0000206C03002070B503F0DE
:1034D00057FB03F06FFB03F035FC03F067FC03F0D0
:1034E00075FC1A4C1A4920681A4D40188110132097
:1034F0002A68C0011018C162616889080163A16867
:103500008908416303F08EFC29681F208001228B0B
:1035100008188280628B0F23C280DB01A28BCB183C
:10352000DA87628C028022462032127882703D2235
:10353000520100208918087303F096FC03F09EFCEA
:1035400003F0D2FC03F0DEFC70BD00005C00002044
:103550000000FCEF6C03002010B5012818D80729E3
:1035600016D80C4A1268134620331877597780070B
:10357000C906000E090E01430020074BA03204E0EB
:103580008401E418A172401CC0B2147B8442F7D8B5
:10359000002010BD6C0300200001002070B5304DEC
:1035A0002E4A28680021FF301B30FEF79BF928685F
:1035B000FF21F222115411229201821811765176C4
:1035C0009176284AF4210A502F235B01F822FF212B
:1035D000C018FEF787F9244B28687822FF21C0180D
:1035E000FEF780F9204B2868F8337822FF21C018B5
:1035F000FEF778F99D232868DB007822FF21C018A8
:10360000FEF770F9194B28684022FF21C018FEF719
:1036100069F9232628687601002481190C72272174
:10362000490141180C712B21490141180C701721D7
:10363000890141180C771B2189014018047600F09C
:10364000ADFD29680B468033986788190A46012129
:103650000471E0325174DC67847170BD390300007D
:103660006C030020905F01006C040000DC06000089
:10367000C9B202788A4203D0401C002AF9D1002046
:103680007047704780B5002801D100BF07A00649E8
:103690000B68002B03D022220021984701E003F0A1
:1036A0005BFC222002BD000028040020636F6E73C3
:1036B000747261696E742068616E646C65723A2020
:1036C000626164206D65737361676500431C0178F6
:1036D000401C0942FBD1C01A70477047C9B2521E44
:1036E00005D30378401C8B42F9D1401E704700205F
:1036F0007047704770B51B4A1B4B1268D418E36BB8
:103700000833A3621F2901D9302070BD0022656BE8
:10371000E66BAD5CB554521CD2B2082AF7D3002236
:1037200005E00578521C1D70401CD2B25B1C8A4219
:10373000F7D32C200155E06B891D417003F012FC7A
:10374000217E01290CD008280AD2616BE06BE1636D
:1037500060638034616A4880A16A4880E16A488079
:10376000002070BD6C03002058080000F0B54F4FDA
:103770000446386885B078300D461646002C10D0C7
:10378000062C14D0082C0FD0182C0DD0282C0ED0BD
:103790002A2C0CD02C2C0DD02E2C0ED0D02C47D077
:1037A00048E0062D0FD045E0102D0CD042E0022D50
:1037B00009D03FE0012D06D03CE0062D3AD17179C9
:1037C000890903296FD100192A463146FEF784F88A
:1037D0002C2C26D13078002823D0FFF736FB012887
:1037E00022D01B201F304009401C410041180120FD
:1037F00003F0DCFBFFF729FB012817D01B201F304B
:103800004009410041182A484078401AC01EC1B200
:10381000002003F0CBFB3868F922403001781140DA
:103820000170002005B0F0BDFB20DBE7FB20E6E7E0
:10383000012D04D0FFF709FB012804D005E0107822
:1038400003F0C0FBEEE7D12C02D02F2C1ED02AE0D3
:10385000082D28D1022231466846FEF73DF80222A3
:10386000B11C01A8FEF738F80222311D02A8FEF7AC
:1038700033F80222B11D03A8FEF72EF868468389AB
:1038800002898188008803F0AEFBCBE7012D0AD1C5
:103890003078002807D0082805D24922396852011B
:1038A00089188876BDE71220BCE700006C03002071
:1038B0007C000020F0B55FA099B000685E491590CB
:1038C0005E4A08688418092212028218D26E2546C0
:1038D000403514922A7AD20702D0622019B0F0BD86
:1038E000AA8B01235B029A4201D9AB8303E0172A1A
:1038F00001D21722AA83149AA0301392067B0DE0FE
:10390000761EF6B2139871010F18B8680F903846FA
:1039100020220021FDF7E6FF0F98B860002EEFD1BE
:1039200020460830E0606460A06024600830139096
:1039300060612061FF220021083003F056FB204621
:10394000FF220021243003F050FB2046AA7F0021F3
:10395000303003F04AFB2046FF2200213C3003F0C8
:1039600044FB00222A7210461721334B05E0149EB7
:103970004701BE19401C7180C0B21E68A036367B5C
:103980008642F4D8002028832F8C688C002614905F
:1039900008E02820E16C70430918204600F0BAFCCA
:1039A000761CB6B2BE42F4D3002608E03020216D6A
:1039B00070430918139800F0ADFC761CB6B2149849
:1039C0008642F3D3012003F019FB012468460470FA
:1039D0001B4941802346042269460CA803F01AFBC8
:1039E000002822D16846018E81821649018304266F
:1039F00006858475202108A881720024C47204738E
:103A000007214173847305A90DA803F0B3FB0028B7
:103A10000BD1684604874687818E15AB0EAA008EAF
:103A200003F046FD002800D158E700202872472007
:103A300054E700000000FFFF6C0300206407000053
:103A400001180000052A0000FFB50C4678A103C943
:103A500095B001910090002108A801730321C902CB
:103A600068464186012108A8734E017435681746DF
:103A7000AE3503F051FD002808D170493068401878
:103A800003F0DEFDA878002802D0462019B0F0BD72
:103A90000BA81599FFF7B8FB0028F7D1072010A94C
:103AA0000871012C05D0022C0AD0002C0ED0422027
:103AB000ECE708A8017B1020014308A8017305E08A
:103AC00011A90BA8FFF786FB0028DFD110A8027907
:103AD00001230CA9284603F09DFA00287ED102227A
:103AE00029461898FDF7F8FE298868468181152136
:103AF000490201820784012686734E2108A881703D
:103B00000024C470067107214171867103A902A8BF
:103B100003F030FB002861D1022202A91E98FDF7B4
:103B2000DBFE082F02D26846478502E0082069467E
:103B3000488569460C850B4628880AAA098903F03E
:103B4000B7FC00286DD13E496846018202270784F0
:103B500008A8847103A902A803F00CFB002860D117
:103B6000022202A91F98FDF7B7FE68460470694655
:103B700044704F850B4628880AAA098903F098FCEF
:103B800000284ED108A8007BC00723D02C496846E6
:103B9000C91C01820821018408A88770047103A947
:103BA00002A803F0E7FA00283BD1FF216846C17163
:103BB0008171C170817041700170447104716946F6
:103BC000082048850B4628880AAA098903F070FC5A
:103BD000002826D108A8007B800600E021E022D53D
:103BE0002988684681811649A53101820684867339
:103BF00008A88770C470047107214171847103A9FA
:103C000002A803F0B7FA00280BD169460E700C85A4
:103C10004E850B4628880AAA098903F049FC00282A
:103C200001D0472032E708A8007BA87000202DE7CC
:103C3000626C75656E7267216C03002033070000AB
:103C4000012A0000FFB5002099B0239A0B90129032
:103C500005461490064615901C46DB480B46006846
:103C6000DA49229F41180391002108910991518856
:103C7000069111880A913D2149014018007BC00737
:103C800006D00FA9184603F0E5FC00280AD102E08F
:103C900047201DB0F0BD10AA0F991B9803F0F2FC4D
:103CA000002801D06020F4E71998002803D06007AD
:103CB00001D5012000E000201390A007800F1C9088
:103CC000109817902030C078012840D11798C04B29
:103CD00001899942F9D11798069904680A98228CAB
:103CE0004118914233D82046203016908078012820
:103CF00016D0E08B04901798806900788006800FBA
:103D00007ED0039840301890007A800778D51C98B0
:103D10000028F5D0AE4F0F99FF372031206814E00E
:103D2000BA4214D3B942DDD80497E4E70389A84A1C
:103D3000934203D12322125C012A08D0BB4203D153
:103D40002322125C012A03D000688842EED134E1BC
:103D500005900028FBD09C480921026809025118EF
:103D6000C96E0027009162E0780100990390085A1B
:103D700001055AD01999002901D0884255D10599D9
:103D80007A008B69511C595C9A5C0902891889B2C6
:103D90000D91890749D00222059903F082FC002881
:103DA00004D01998002840D0652072E7002008A9A7
:103DB000C8551C98C00718D0179880690078C006AD
:103DC00013D50D98C00710D00120C8550543009A9F
:103DD000039880184088159A904206D91590009A49
:103DE0000398105A0005000D14901C9880071CD5EC
:103DF000179880690078800617D50D98800700E035
:103E000083E012D50220CA5D05430243CA550099DA
:103E10000398401840881599884206D91590009952
:103E20000398085A0005000D14907F1CFFB26648E5
:103E30000068A030037BBB4296D8002D65D018984F
:103E4000007A00065FD46048016809200002081863
:103E5000C16E00201BE042018E5A360515D0AE0718
:103E60000BD556183669B7070DD408AF3F5CBF07AE
:103E700003D5360701D546200BE7EE0705D05218CB
:103E8000127CD20701D0432003E7401CC0B283421A
:103E9000E1D81598C01E86B20498864200D906461D
:103EA000A8070FD520220020149903F023FC1290BC
:103EB00000287DD0F01C82B20021129803F03CFC57
:103EC000002811D1E80720D020220020149903F007
:103ED00011FC0B90002807D0F01C82B200210B9837
:103EE00003F02AFC002810D0802003F087F81298F5
:103EF000002802D0002101F0F9F80B98002802D028
:103F0000002101F0F3F86420C3E6A1690A98069A3B
:103F100008182499FDF7E0FC16988078012801D153
:103F20000498E083002D46D0274B09201968000231
:103F30000818C16E002008AA0CE04301CF5A3F05C3
:103F400006D05F18BC463B69175C3B4367463B6144
:103F5000401CC0B21C4B1B68A0331B7B8342ECD8B7
:103F6000A8070DD512980090F01C82B221461C3192
:103F70000220A36903F0E7FB0220129903F002FC80
:103F8000E80718D00B980090F61C2146B2B21C31FD
:103F90000120A36903F0D7FB1398002805D00B98E4
:103FA0008021C07C08430B99C87401200B9900E064
:103FB00005E003F0E7FB00206BE6422069E6802085
:103FC00003F01CF89FE700006C030020640700006A
:103FD0000328000030B50C4A002113680B4A126810
:103FE000A032147B0AE07C224A43DD6F0832AA5AD1
:103FF000002A01D0462030BD491CC9B28C42F2D8FB
:104000001876002030BD0000700300206C030020F3
:1040100070B5054603F0DCFB002801D0462407E01C
:104020000448002400680C2229460C30FDF754FC9B
:10403000204670BD7003002070B586B014461D4642
:104040000A4603466946881C0A9E03F0E7FB0028DF
:1040500004D1012C04D0022C02D0422006B070BD45
:1040600023462A466946304602F0D4FFF6E7F0B50B
:1040700087B01C460B46054600A9023101A80C9FDB
:104080000D9E03F0CBFB00280ED16846058084828C
:104090008775C6750E9901760F99417610998176CC
:1040A0006946119803F066F807B0F0BDF0B5144A00
:1040B000144B1268D3181A6C154608321F2901D9FF
:1040C0003020F0BD00249E6B1F6C365D3E55641C95
:1040D000E4B2082CF7D3002405E00678641C1670BF
:1040E000401CE4B2521C8C42F7D3186C891D4170FD
:1040F000986B9D6318648033186A45800020F0BD7A
:104100006C03002058080000F0B5054600200F465B
:10411000079E059C174309D0202905D30127BF031B
:10412000BA4201D8914201D94220F0BD194621433B
:104130000AD09C42F8D309498C4203D00849A41FF5
:104140008C42F1D2062BEFD3002D03D0022D01D0EB
:10415000032DE9D1032EE7D8F0BD0000FFFF0000DA
:104160007B0C0000F0B58DB00C4616A9E0C900210B
:10417000089109910A910B911599049105A9E0C143
:1041800012A962C900930191134601460396029554
:104190002246012003F056FB0DB0F0BD10B50920FA
:1041A000C00600690002000A03F006FC10BD70475B
:1041B000074A914202DC5242914200DA1146FF2244
:1041C000993251430A1251180A14511808187047AD
:1041D000FFFF4F001FB56A463A30107368460291E0
:1041E00003F0FCFB002800D0012004B010BD00004B
:1041F00070B5144E1D22316892018D182C681DE097
:10420000017B227B914218D12146284600F072F8AA
:1042100028462146083000F07DF8207B3A2803D25A
:1042200020352878401E287072B63068DF22403072
:10423000C1791140C17162B670BD2468AC42DFD152
:1042400070BD00006C03002010B50A4A830B126891
:104250008004526A800C140A60435A438009101883
:1042600000228A5E821A10464030C009C3019A1AA1
:104270000A8010BD6C03002010B5030003F0E8FBBA
:104280003A332D2D2D1E2130332A2A2A2A2A2A2A72
:104290002A2A2424242424242424242424242424D2
:1042A00024242424242424242424242424242424CE
:1042B00024242427272727272727273303F0D6FB63
:1042C00010BD03F0E9FB10BD03F00AFC10BD03F0C4
:1042D00015FC10BD03F042FC10BD03F061FC10BDE5
:1042E000FEF782FF10BD3A38C0B20428FAD2FDF7BB
:1042F00025F910BD00B50B4603F08EFC002808D050
:1043000003CB083B086003CB41600020083B1860EA
:10431000586000BD086042684A60426811604160B0
:10432000704708B500216A4611806946FFF78CFF87
:1043300008BD00000649C20B09684004096A400C28
:10434000CB0958435143000A0818203080097047B0
:104350006C03002010B50446C1061148006803D55F
:104360001522BF210C4006E0392149014118897B03
:10437000C90710D012222107890E08180121C9028D
:104380004018C06C0023214600F00CF8010004D056
:10439000204600F065F8002010BD072010BD000089
:1043A0006C030020FFB5044600262C4F83B09C46CA
:1043B0000D46080616D572B601AB6A466146204620
:1043C00003F035FC00280BD068468188009882787D
:1043D00092089200827001806180012662B615E029
:1043E00062B621E001AB6A466146204603F01FFC3D
:1043F000002819D0680609D4684681880098827818
:104400009208920082700180618001260098AA00C3
:10441000817840238907890F1A40114381700599DB
:10442000C170002E0ED115E00020009072B6A806D3
:104430000FD401203968C0020818816B082211438B
:10444000816362B672B63868F7224030C179114094
:10445000C17162B6009807B0F0BD00006C03002087
:104460000A46400608D5D0783A280AD2111D054BD5
:1044700080001B5810461847907880088000801CE8
:1044800088707047EC540510F0B504463B483C4931
:10449000006885B04518218A890419D50221049144
:1044A000392149014118897C412627880123C90700
:1044B0000ED0D902083040183122C06C0221FFF71B
:1044C00071FF010004D08F808E710498FFF7C8FF40
:1044D000294620880122183103F0DFFB2946208875
:1044E0000122303103F0D9FB2946208801222431F2
:1044F00003F0D3FB2946208800223C3103F0CDFB9A
:1045000020880005000D03F0E3FB850029461131EA
:1045100068460173FFF76CFE294612316846017345
:10452000FFF766FE2946133168460173FFF760FE08
:10453000684614350573FFF75BFE208803F0E4FB43
:10454000208801050D48090D02681320C0011018CC
:10455000028A914201D100210182E069002802D043
:10456000012100F0C3FD202200212046A568FDF7AF
:10457000B9F91720A560608005B0F0BD6C0300207C
:104580006407000010B5412400F04CFD002805D060
:104590006030017D8022114301750024204610BD4A
:1045A00010B594B0044600F03DFD00281AD04178C3
:1045B0006A46C907C90F801C03F05EFC00280DD0B5
:1045C000204600F02FFD00280CD0817AF12907D178
:1045D000807EC10704D0800702D5002014B010BD32
:1045E0005E20FBE74020F9E7F1B5FFB001248BB076
:1045F000600205900027CC4807970168CB48C94D59
:10460000081803908A980AAA0005000D05A903F06E
:1046100087FC0690002872D104260AA80599421842
:10462000203AD27F0B2A23D00026002004900AA82B
:104630008119022201A80291FDF74EF9684681888E
:1046400009AB08AA039803F08DFC012817D00228B3
:104650007ED068468088854200D30546844200D9D2
:104660002046044602988078012872D013363CE137
:10467000491E761E36040591360CCFD1D5E7089831
:104680000090002F66D10099022228310298FDF790
:1046900033F900281ED100982030017B02988078E1
:1046A000814217D1012808D10098029902220830CE
:1046B000C91CFDF721F9002815D00298807802283E
:1046C00008D10098029910220830C91CFDF714F98E
:1046D000002808D00098008DA84200D80546A042C6
:1046E00000D22046044602990AA88978012907D0F9
:1046F00013360599B6B28E4204D3012707E006E1CE
:10470000761DF6E78119022201A8FDF7E5F8039965
:10471000009808318E462FE084466946026A8B88ED
:1047200020300DE0918B994203D3012F7ED1994225
:104730007CD9A94200D80D46A14200D30C4612688C
:104740008242EFD10498002804D16046006802E05C
:1047500015E0BFE08AE070450ED0018D994203D389
:10476000012F09D1994207D98D4200D30D468C42C1
:1047700000D80C46012F59D17045CDD1BAE0089828
:104780000090002F72D1009902221C310298FDF78F
:10479000B3F800281ED100982030C17802988078A4
:1047A000814217D1012808D10098029902220830CD
:1047B000C91CFDF7A1F800281AD0029880780228B9
:1047C00008D10098029910220830C91CFDF794F80E
:1047D00000280DD00098808BA84200D80546A04242
:1047E00000D22046044602988078012826D003E0B3
:1047F00002988078012805D013360798B6B20128B0
:104800001ED021E000984A490089884216D18A9832
:1048100003F0C6FB0146009803F0E0FB0099098C09
:104820004843009989694018022200E038E0029963
:10483000491DFDF751F801200790D4E7761DDCE70C
:10484000B61C0020B6B207900598864201D3012716
:1048500005E00AA88119022201A8FDF73DF8039A94
:104860000099083209980968944630E01AE08646B3
:104870006A46938820300DE08A8B9A4203D3012F39
:104880000ED19A420CD9AA4200D81546A24200D3B2
:10489000144609688142EFD1049800282AD102E029
:1048A0000120049026E07046006860450FD0028D1C
:1048B000016A9A4203D3012F09D19A4207D995423E
:1048C00000D31546944200D81446012FE8D1604524
:1048D000CDD10FE00298C078022805D10298007966
:1048E000292801D1B61CB6B2761D0598B6B286420B
:1048F00000D301270598811B042902D3864200D2E8
:1049000093E604980028FBD1A54203D906987FB00E
:104910000CB0F0BD224629468A9803F087FB06902A
:10492000F5E70000FFFF00006C03002064070000B3
:1049300002290000F0B55848584A016885B08A1825
:1049400004920922120289180027CD6E95E07E019B
:10495000A85B00287BD070190090C06900284BD05C
:1049600000990969CA0532D54A0530D58068012405
:10497000A402007BA143009A1D28116139D01B2895
:1049800037D0009A927B824202D0012802D030E0D8
:10499000012806D10098C0698068407B401C824293
:1049A00069D1C80509D5A95B022003F063FB009813
:1049B000FF220169013291430161009881698847B2
:1049C000452816D1009801692143016111E00121B8
:1049D00000F08CFB00980021C16100980122016960
:1049E000920291430161022211464220009B03F092
:1049F0004FFBA85B00283ED004982430019003F0C0
:104A000075FB044635E020680390A068AB5B017B32
:104A1000A0881A05120D904201D11D2904D09042A0
:104A200026D11B2932D023E000990969CA040FD48A
:104A300001221203009811430161A95B032003F0D6
:104A400057FBA95B2246022003F064FB08E012E05A
:104A50006946088102AB02220321422003F018FBC1
:104A60002146019803F09EFB0121204600F03EFB09
:104A7000039C002CC7D17F1CFFB207480068A03000
:104A8000007BB84200D962E705B0F0BD2246194666
:104A9000022003F0A9FBE3E76C0300206407000099
:104AA0000068002801D000207047012070470000F6
:104AB000F0B57B497B4A096885B08E18012806D07D
:104AC00030461830009003F011FB0446E5E0304614
:104AD0002430039003F00AFB0546BAE0A8682F686B
:104AE000007B0290A88803F05BFA040073D0218851
:104AF0002022002002F0FEFD019000286CD0E88802
:104B00006188884204D900220420019B029920E098
:104B10004620009002980E284ED00ADC801E03002A
:104B200002F096FF0B1C13221329132F1338134185
:104B3000130016285AD004DC102846D0122804D1BD
:104B40004BE018285BD01D2872D000220620019B64
:104B5000029903F091FB002000905CE0294620467A
:104B6000019A03F09DFB4FE02A4621463046019B07
:104B700003F0F0FB48E029462046019A03F0DEFCF2
:104B800042E02069000353D429462046019A03F0ED
:104B9000CDFD39E0206900034AD429462046019A18
:104BA00003F02EFF30E02069000341D4294620465F
:104BB000019A03F0BAFF27E02069000338D42946A0
:104BC0002046019A04F052F81EE029462046019A38
:104BD00004F016F918E033E03EE02069800327D4A2
:104BE00029462046019A04F0FDF90DE02069800372
:104BF0001ED429462046019A04F092FA04E0294680
:104C00002046019A04F048FB0090452810D06928FE
:104C10000ED046280CD00121206909068843206166
:104C2000019804F019FC0098002809D010E0FFE773
:104C30000021019800F05AFA009845280CD0F2E7BC
:104C40002946039803F0AEFA0121284600F04EFAF7
:104C50003D46002D00D041E705B0F0BDA0682668B4
:104C6000077BA08803F09CF905000DD0522F01D0DE
:104C7000D22F06D1286940030ED42146284604F0DD
:104C800001FC2869400307D42146009803F08AFA02
:104C90000121204600F02AFA3446002CDED1DBE761
:104CA0006C0300206407000010B50446006808602B
:104CB000206802682260002202602068002800D17B
:104CC0006260086804F074FCE17A081AE072A07A65
:104CD000401EA07210BD10B50C460146042805D038
:104CE000052903D0062901D0502010BDA068A27963
:104CF0000272E088020AA0684272A0688172A0680D
:104D0000090AC172E088001DE0800220207320465D
:104D100004F054FC0028E8D0E088001FE080412027
:104D200010BD10B50446006808602068002800D156
:104D300061600846216004F03BFCE17A4018E072B3
:104D4000A07A401CA07210BD0D4909220968120208
:104D50008918496E72B60122824350004218084BEE
:104D6000095C09201B6800021818406E527800790F
:104D70008A4202D9511A401AC0B262B67047000086
:104D80006C030020FEB50446002000902546264610
:104D9000A07A2A3532360F46BC2821D0F12810D10E
:104DA000E07A00071CD42046203001AA2946029050
:104DB00004F036FC0222314601A8FCF79DFD0028D4
:104DC00006D022462946304604F064FC4120FEBD50
:104DD00009482B4600686A460299803004F0A0FC1E
:104DE000102200213846FCF77DFD227F29463846F7
:104DF000FCF772FD0020FEBD6C03002010B50146DB
:104E00000022412004F0A0FC10BD000030B5024695
:104E10000D480068A030007B002A014612D00B4CE0
:104E2000130500201B0D22680AE07C244443D56F43
:104E300008342C5B2405240D9C4203D0401CC0B2D6
:104E40008142F2D830BD00006C03002070030020C6
:104E50007FB50024002902D0012902D002E00825F4
:104E600000E00025A9186A4611730293012809D0B1
:104E700000280AD11046FFF7BBF9684604F0B2FCDF
:104E8000044602E01046FFF7B3F9204604B070BDB7
:104E90000A4610B50146002004F056FC10BD000083
:104EA000F0B50446807A2646603695B0102820D0AA
:104EB000D1287BD0D22879D0D32877D0D42875D0E8
:104EC000D52873D0F02875D0FE2877D0A2287FD0BF
:104ED000B2287DD0B42868D0BF28204677D0FEF70E
:104EE000A3F9E07A000702D52046FEF7F7F915B0DE
:104EF000F0BD60786A46C107C90FA01C02F0BCFF74
:104F00000227474D00282AD004F07EFC002824D038
:104F1000307DC00721D004F081FCFA281DD0002884
:104F20001BD0E079400618D502201490392128685A
:104F300049014118C97B2689012309070DD5DD02E6
:104F4000083040191A223946C06CFFF72BFA0100CD
:104F500003D08E801498FFF783FA00204AE0694658
:104F6000204604F077FC20890104BAD5022114916F
:104F700006053921286849014118897B360D01232E
:104F80000907AED5DD020830401915223946C06C3C
:104F9000FFF708FA0100A4D08E801498FFF760FA9A
:104FA0009FE703E006E009E012E027E0204604F076
:104FB000BDFC96E7204604F045FD92E7307D0006F3
:104FC0008FD57C2200212046FCF78CFC89E724E069
:104FD000E07A000704D52046FEF77CF9002880D04F
:104FE000E07F022802D1E07EC006D9D5307DC0071F
:104FF00002D0B420A07274E7A420FBE72046102161
:10500000643004F05BFDE07A000703D52046FEF72C
:1050100049F966E7B521A17263E704F05FFD60E737
:105020006C03002070B500281BD003050F48002139
:1050300000680D4A1B0DA0301268047B0FE0084683
:105040007C267043D56F0830285A0005000D984221
:1050500003D17C225143681870BD491CC9B28C42EF
:10506000EDD8002070BD0000700300206C0300200C
:1050700010B50A46897AFB2904D08068417B104626
:1050800004F048FD10BD7CB50546C87A0C46000703
:1050900006D5684600950194FEF724F9FC2822D134
:1050A0007420005DC00704D02146284604F064FD4A
:1050B00004E0684600950194FEF7BAF8FC2812D186
:1050C0002146284604F0E4FD452803D047280BD0AC
:1050D000FC2808D1E17AFD20090704D5684600952F
:1050E0000194FEF703F97CBDFD207CBDF8B50E46AA
:1050F0000C490922096812028918083807464C6EC3
:1051000004F04EFE05463946A06804F053FE72B620
:105110007100605C401B605420794019207162B6B8
:10512000F8BD00006C03002070470000F8B5104E79
:1051300030682030C57D002D19D0002409273F029A
:1051400010E0E9070BD0C019816E60206043081899
:105150004030417F204604F049FE002807D06D080A
:10516000641CE4B23068AC21095CA142E9D8F8BD06
:105170006C0300203EB50B4801AA0468694602A8EA
:10518000683404F085FE00280BD06846007AE18878
:1051900001228240114204D069460978019A04F044
:1051A00097FE3EBD6C0300200449002008610448BE
:1051B000012100686030C171704700000000104894
:1051C0006C03002070B51A4A1A4CD37B2268002B5E
:1051D00011D01A4E184B8009CDB2584375430B0AB3
:1051E0002D0A734310355B19154D80305B09000A99
:1051F0006943090C04E0192312481B04FF21E9311B
:10520000114D118669805362106209482038008E62
:10521000FFF790F8E914884200D3481E4005216842
:10522000000E203108752988090700D4687270BD06
:105230007C0000206C03002053070000F6BC08002F
:1052400055050000C2F52800C0000020F8B50C4646
:10525000CA88098A4030521A8089102695B2A8421D
:1052600005D20546E07C4006400EE07403E020686D
:10527000002800D10026002904D1207B800701D519
:10528000022000E00120CF060643FF0EE81982B29B
:105290000E48A1690368092000021818406F001D1C
:1052A00004F017FE60610948A57401680920000236
:1052B0000818416FB81C0E54044801680920000208
:1052C0000818406FFF1CC555F8BD00006C03002096
:1052D00070B50D460B490024884204D8032104F020
:1052E0001DFE082801D302240AE0074901220968AB
:1052F0002031C97D8240114202D1294604F076FD59
:10530000204670BDFF0E00006C030020704710B5F2
:10531000034600680324401E20435143401C4118AB
:10532000196010BDF3B589B00D4604F03BFE800254
:10533000800A01218905084300226B46102411468A
:1053400001E0032A04D2D7000646FE401E7000E0AA
:105350001970521C5B1C641E2406240EF1D100231C
:1053600004AA6946099800F08BFD03226946281DAE
:10537000FCF7B2FA032204A9681CFCF7ADFA01207D
:1053800028700BB0F0BD0000F0B5A3B001780E910D
:10539000456881681091C76801691E91416905914E
:1053A00080690024189417940090FF2616941D9489
:1053B0000894A81C04F000FE297800024906C90FD1
:1053C00008433860681D04F0F7FD0002000A7860A9
:1053D0002846083004F0F0FD29780002C909084386
:1053E000029028460B3004F0E7FD0002000A03900B
:1053F0007A681002810F012902D13978012900D081
:1054000000211391039909028B0F012B03D1029BF9
:10541000DBB2012B00D000231593800F02D1387826
:10542000012800D000201B90880F03D10298C0B241
:10543000012826D0002128780507FB482D0F036896
:105440001846FF301B302190F8481818149000209F
:105450000F9012900C9001201A901C9000984260BE
:1054600000983A680260F04800681990E030027CC9
:105470000B92002A00D0012211920B9A012A02D02D
:1054800005E00121D7E7407C002800D101240E98D7
:10549000002811D001284ED0032D02D0052D00D0B8
:1054A00001240598007E03287ED002287DD00128A3
:1054B0007CD004287AD09CE0032D06D0052D04D0A2
:1054C000042D04D0012D05D009E0012407E00120BE
:1054D0000F9004E01198002801D10120129010983B
:1054E0001690801C1890109808301790059820305E
:1054F0000079032810D001280ED000220C920592CA
:1055000000280BD0012809D000201A900B98012800
:1055100006D0012D09D0A0E00122EFE70120F4E739
:10552000012D6FD1002900D001241598002801D148
:1055300001201290C1E0002D02D0012D00D00124E5
:1055400005982030007901280ED000220C921B9A79
:10555000002A01D0002809D001220592159A002ABC
:1055600006D0012D09D019E00122EFE70022F4E76F
:10557000012D13D10B9A012A06D00B9A002A0BD0C9
:10558000159A002A08D009E02323199A5B01D21842
:105590001279012A00D1012401221292139A002AC1
:1055A00006D00B9A002A02E01CE019E01CE006D1AC
:1055B000002801D101220F92139A002A07D00B9ADA
:1055C000012A45D1002805D101201D9002E00B9849
:1055D00001283DD1012D78D100296ED001246CE045
:1055E000052D06D1012404E01399002908D0002AD2
:1055F00006D000210F91032D05D0052D09D00FE015
:105600000121F7E729E005992031497BC90705D138
:1056100006E005992031497B890701D501210C91CC
:105620000C990591012112911099891C18911099DA
:105630000831179110991691012A07D1012801D03C
:10564000042803D11B99002900D00124052D29D05D
:10565000012D32D00E98012837D0189804F0ACFCF8
:105660001699000209784906C90F0843099018984D
:10567000C01C04F0A1FC0002000A0A900E98012848
:1056800023D0179804F098FC169900020978C909EC
:1056900008430D901798C01C04F08EFC0002000A0D
:1056A000109020E013990029D7D0012801D00428B8
:1056B000D3D101200890D0E707E001211998890291
:1056C0004018C16D0991006ED7E71E9800691E99B8
:1056D00049690202CB03DB0F09041A43090A000ED1
:1056E00001430D921091002C73D11398002866D0BD
:1056F0000B9800281CD01198002860D07868396871
:105700000202012004F064FC474B01469D22186808
:10571000D2008218FF290CD0FE293ED0C800801884
:10572000C6791498F100091807220098FCF7D4F8FC
:1057300083E0052D02D10E99022904D0F221095CE3
:10574000FF2913D029E00121384604F091FC4108DB
:105750007F2903D0C10014980818E1E7089905983B
:10576000084301D0012468E0002466E0112189018A
:105770004118497EFF2910D1FF30072239460130F8
:10578000FCF7AAF8284800210068F22211540146CB
:105790004031CA79EF231A40CA710E99012904D009
:1057A000059C4AE001200F9047E023214901401861
:1057B000C0790228D6D20C980028F3D0D2E71B98E3
:1057C000002802D00B98012804D0119800280CD191
:1057D00004E039E00020059C1C902EE0232119985C
:1057E00049014018007A002827D0786839680202F9
:1057F000002004F0EDFBFF281FD0C100149808180A
:10580000C6793720219970434018017D002900D0C6
:10581000012120302091807D002809D000201F9098
:10582000002907D009E000006C0300206C04000090
:105830000120F4E71F98002894D1574801681120EF
:105840008001081806754675119800284BD0FF2E68
:105850000BD00898002808D04F480168112080011B
:105860000818807DB04200D001241D9800280BD07C
:10587000FF2E09D048480168112080010818807E59
:10588000B04201D0012447E0002C45D115980028F2
:105890002BD0012D29D14048029A0068C11DF93151
:1058A0000B699A4205D1039A4969120209028A4298
:1058B0001BD0112189014118497E1A9CFF2912D160
:1058C000FF30072202A90930FCF706F83248EF231F
:1058D000016808464030C2791A40C2711122002086
:1058E000920189184876002C16D11C98002813D0F4
:1058F0000C98FF2E07D000280ED037202199704336
:105900004018807806E0002806D0786801023868E0
:1059100004F046FC0028B5D00F9800282AD00D9836
:105920003968884203D110987968884222D011984A
:10593000002807D118480168232040010818007A80
:10594000002800D00120FF2E02D02099002907D086
:1059500000221F99002905D00021052D17D103E051
:105960000122F6E70121F8E7002810D0002A0ED026
:1059700000290CD0002C0AD1129800280AD00299D4
:105980000998884203D103990A98884202D00120DD
:1059900023B0F0BD0020FBE76C030020F8B5FEF754
:1059A000FDFB434C074621680A468031886FCB6F68
:1059B000381A1818C8674B6F000B984236D300206E
:1059C000E032C8675074107C00282BD000252326B5
:1059D00076010BE03721694308180146FF31FF309B
:1059E00040313030FFF79EFC6D1CEDB2206881190C
:1059F000097AA942EED800250BE03721694308183F
:105A00000146FF31FF3047311F30FFF78BFC6D1C23
:105A1000EDB220688119097AA942EED821680120E7
:105A20008919887121680120E03148742068F821C3
:105A30000F5072B601464031CA7910231A43CA7119
:105A400062B60146E0310A7C002A24D0897CFF2519
:105A5000002906D1FF30013004F00AFB2068E03055
:105A6000857411262168B6018819407EFF2813D05D
:105A7000372250434018FF30FF31002230300931C7
:105A800004F09AFB002808D0216800208919C87505
:105A90002068801945760020F8BD20680121821910
:105AA000FF30D175013081680161C1684161EFE764
:105AB0006C030020FFB595B000257C480295039546
:105AC00000880E4679494007C00D0C314018C18945
:105AD0000120400709184988FF230C187448372112
