:020000041004E6
:1028000000600020594B0410C93A0410E332041050
:10281000AA5555AA45554C42000000000000000092
:10282000000000000000000000000000214904102A
:102830000000000000000000E732041023490410EB
:102840003D490410CB3A04100000000000000000D5
:102850002D4904101F3F0410354904100B4B041080
:102860000000000000000000000000000000000068
:10287000000000007D4B04107F4B0410814B0410BE
:10288000000000005B400410CF4304100F49041007
:102890001F490410FF4A0410854B0410834B041099
:1028A0000000000000000000000000000000000028
:1028B0000000000000000000000000000000000018
:1028C00092480121018100210160704730B58F4A93
:1028D000516812688E4B140A5C43D5B25D432B0AD3
:1028E000E31810335B0983628B098A4C634380339E
:1028F0001B0A4362C261016287494A43110CC182CB
:1029000030BD10B50400FFF7DBFFAB48008800289E
:10291000FBD02000FFF7DAFF10BD8049488008880F
:10292000000716D47E487F49C268921C0A40022ADA
:10293000FAD3491C11430160C1689142FCD3C268BB
:102940001032A1491140C2688A42FCD38021490556
:1029500001607047C20B4A434004400CC909484318
:10296000000A101820308009704768214143090A85
:10297000DB225043000C08187047830B4B43800444
:10298000800C090A4843800918180021515E411A39
:1029900008004030C009C301591A1180704738B58A
:1029A00030C808389D4A13680B6002004832816ABB
:1029B000006B181A0002000AFFF7DFFF0021001960
:1029C000694134BD38B50400944805682200483296
:1029D000E16A606B281A0002000AFFF7CEFF2100AF
:1029E00008310CC900218018594103C4083C2563F3
:1029F00065632200083203C2A06AE06231BD80B57F
:102A0000FFF7A8FF0821864A904201D9100002E092
:102A1000082800D20820934AC00810753F48038850
:102A20000B4201D1117D417201BD70B505008D4C85
:102A300028882061E878002802D1A878002810D0E2
:102A4000894881890029FBD00188FE2212020A40B0
:102A50001721114301802000FFF753FFA06AE062B5
:102A60000CE0C8204003E062A062804860628048B9
:102A7000E06180482062F4204000E082E87838215C
:102A80006054616A206980B2FFF7B9FFE08AFFF7FE
:102A900044FFE08A20830020002103C4083C5F4AF1
:102AA0001268226362632200083203C27F251B4E34
:102AB000F0792840FFF759FF38304421605470798D
:102AC0002840FFF752FF1B3045216054307A2840E0
:102AD000FFF74BFF383046216054307A054028001C
:102AE000FFF743FF1B304721605470BD9E480078BC
:102AF000002804D0054801210181002101607047B0
:102B00002D480188481E8041C00F704710001048B2
:102B1000F6BC08005307000055050000C000002067
:102B200004000048FFFFFF0070B594B0984C3820B7
:102B3000205C002836D068462100502200F030F991
:102B40006846FFF7C3FE0999049880B2FFF757FF64
:102B50006D46E88A298B814203D0FFF7DEFEE88AC2
:102B60002883EFF3108672B6287D2075E88AE0820C
:102B7000288B20830798E06108982062099860629A
:102B80000A98A0620B98E0620F98E06310982064A6
:102B90004820285A482160522000FFF713FF86F38F
:102BA000108807E0EFF3108572B62000FFF70AFFE8
:102BB00085F3108814B070BD1800104880B56946C0
:102BC0007348FFF7ECFE04BDF0FFFF00F8B5050009
:102BD0006F4C69462000FFF7E2FE06000F0022005E
:102BE0004832A16A0098401B00020012FFF7C5FEA0
:102BF00000233900301A9941F4BD0200644B38209B
:102C0000185C1074186AD0601800083003C803C23A
:102C1000083AD8699060586B5061704710000048BE
:102C2000FF03000038B50C000E4D696AFFF792FEF5
:102C30000100112901D3083100E01821334A10683E
:102C4000002C02D080235B0500E00023411809021C
:102C5000090A0B438021490419439163916BE9638D
:102C600032BD0000580400200C001048C2F52800B6
:102C70008D5B0000ECEB6501F8B50600444C2000CC
:102C80004430012906D1002A02D04420255C06E008
:102C9000457804E0002A01D0857800E0C5786946CF
:102CA0002000FFF77CFE301A401B002621691431FA
:102CB000814206D280256D040127217D364A51725A
:102CC00002E08025AD040027616AFFF743FE324928
:102CD000497AC900401A002F02D08021490500E03E
:102CE00000212C4A009B1B181B021B0A2B43194373
:102CF0001160002806D580204004854202D116606C
:102D00000120F2BD106820640020F2BD10000048D0
:102D1000010000201F4A12680A605101490F03296F
:102D200001D102207047022901D1012070470129F9
:102D300000D1032070471648C08A17494880704761
:102D400080B513490A004832896AFFF716FE02BDB2
:102D500080B5FFF70AFE02BD80B510480068FFF796
:102D600035FF04BD0000000090040020084A130055
:102D70004433012804D1002906D04420105C704758
:102D8000002901D0987870475878704700000000FB
:102D90005804002004000048C0000020080000483B
:102DA00070B4103A03D378C9103A78C0FBD25307F5
:102DB00001D318C918C001D508C908C0D20704D367
:102DC0000B880380891C801C002A01D50B780370B6
:102DD00070BC704780B5FFF789FE01208C490871EF
:102DE00001BDF8B507000E003C000020307000E087
:102DF0002469002C1AD0207B0028F9D0EFF310852D
:102E000072B6FFF7DBFE020003CC083C801A0128F3
:102E100003DB0121FFF706FF01E00120307085F39D
:102E200010883078002801D03800F2BD2000F2BDB3
:102E3000FEB500256C462570017B002901D00120DC
:102E4000FEBD0CC0083801210173714CE668019683
:102E5000070001E035003669002E08D00CCE083E90
:102E600003CF083F8B42F5D301D88242F2D338001A
:102E70000661002D01D1019000E028610199814295
:102E800013D16946FFF7ADFFE0606846007800287F
:102E90000BD0EFF3108072B6217C4A1C637C9A42FF
:102EA00000D0491C217480F3108868460078FEBD6C
:102EB000F2B586B0050000260E70A87A002861D011
:102EC00070480CC85248006800218018594104AA73
:102ED00003C2EFF3108772B6FFF770FE02AA03C2B7
:102EE00003CD083D0090019104A803C8C8229202B6
:102EF000002312184B4100980199994210D301D830
:102F000090420DD304A803C8B9225200002312181E
:102F10004B4102A803C88B422ED801D382422BD248
:102F2000297AE87AFFF722FF020003CD083D6B46BD
:102F300003C3012402A803C8002312184B41002038
:102F400009324341684603C88B4210D801D38242FC
:102F50000DD22A7AEB7A684603C81900FFF78CFE77
:102F60000699087087F31088AE726C720AE087F3D6
:102F700010880698047005E087F3108880204005CB
:102F80006449086007B0F0BD10B5214C002808D096
:102F9000607900280BD120001830FFF71BFF0120BB
:102FA00004E02000183000F035F80020607110BDFA
:102FB00080204005594908603348017C4A1C437C05
:102FC0009A4200D0491C0174704738B503000024B0
:102FD00068460470504DE9722A722A4803C81A1ACA
:102FE000002312184B410CC5083D6C720120A872D9
:102FF00069462800FFF75CFF68460078002800D08B
:10300000AC720120FFF7C0FF6846007832BD0000B7
:10301000A80400207CB503001B4CE26815000021C9
:103020000026100001E02E002D69002D09D09D42E0
:10303000F9D101932B69954201D1180002E0336167
:1030400000E001936D462970019B1973824216D0EE
:10305000002814D06946FFF7C4FEE0606846007897
:1030600000280DD0EFF3108072B6217C4A1C637CDF
:103070009A4200D0491C217480F3108873BDE0602F
:1030800073BD000020050020A80400207CB50600C8
:103090004020764908606846B1788170B188C17077
:1030A00031880180FFF7C1FC7148FFF7A6FD0025BC
:1030B000704CE56001206071174845728572308858
:1030C000A0602582B08800030A2100F0DBF82060B0
:1030D0002571694E002804D13000FFF731FE2060D1
:1030E0000AE03000FFF72CFE2168884203D230004E
:1030F000FFF726FE0100216060482062E562FFF7CD
:103100005DFD2268002312184B4120001830FFF7A4
:103110008FFE73BD040000483805002048000048B9
:10312000F0B585B00020694608705548407A0028FF
:1031300031D0FFF743FD02000B00514803C899420C
:1031400029D801D3904226D200204D49487222E06E
:10315000401C19E00469019901738168002900D0BD
:1031600088472000F6D16946F868FFF73AFEF86014
:103170006846007801280AD1EFF3108172B6387CD6
:10318000421C7B7C9A42E3D1387481F31088787CAE
:10319000049940187874374F787C01003A7C824259
:1031A00001D3501A03E080204000801A4018002804
:1031B00024D00490FC68002001900026039402941F
:1031C000019D02E0260024696D1C002C0AD0207BA2
:1031D0000028F7D0FFF7F2FC020003CC083C801A6D
:1031E0000028EFDD002D019802D03061039400E04B
:1031F00002900398F86002980028B3E71C4C3879D5
:10320000002818D0FFF77CFC00282CD13871FFF77C
:103210008BFC2000FFF7F1FC69461948FFF748FED8
:10322000FFF7CCFC3A68002312184B4138001830E5
:10323000FFF7FEFD17E0207C002814D0FFF7BEFC4E
:103240000CCCC824E4020025A4185D418D420AD8A4
:1032500001D3844207D238001830FFF7DBFEFFF7B6
:1032600045FC0120387105B0F0BD000000E100E030
:1032700020050020A8040020FFEFFF00D52D04103A
:1032800038050020CA0F00D0494203105A400DD023
:1032900004B500D3404200F009F8009AD20701D3E8
:1032A0004942124200D5404204BD0000094214D0F8
:1032B00088420FD30122030C01D100041204002321
:1032C00000185B418B4200D35B1A5241F8D31900BE
:1032D0001000704701000020704708B500F002F8A8
:1032E00008BD704770477047F8B584B09025ED056C
:1032F00028680090C00100D498E0FFF71CFD654CE1
:103300002000083080B2802149020143E960606DED
:1033100000990161016B88470128606D01D1866ABF
:1033200000E0C66A9F4980204005002E03D16860F6
:103330000020088048E00B889B4A1A4033781A43E3
:10334000482313430B80327892018A183823F35CA8
:10335000937532001C326B469A800A001C32337817
:103360009B016F46BF88D752327892018A186B460C
:103370009B88D38332789201891822228A5C802329
:10338000134322228B54717849071DD568607178E8
:10339000880612D5FFF712FC02AA03C27068FFF775
:1033A000D7FC0300717801220A40022001400F007F
:1033B00002A803C8C018390004E001220A40022014
:1033C00001407068FFF701FE0098800F800728D049
:1033D0006420E968C90301D5401EFAD1A068010C38
:1033E000FF2212020A40207B1043C9B2002811D0EC
:1033F0000C290FDA062251437F3901E0891D401064
:103400001E28FBDCFF22A2325043934A8018801210
:10341000081800E07F20616D8861FFF79DFC616DF9
:103420004861606D66653100426B9047009800040A
:1034300001D5FFF7BDFD0098800301D500BF00BF97
:103440000098286005B0F0BD30B50022554B8401CE
:103450001B199B182D248D5C1D55521C052AF5DB6C
:1034600030BD504B80011818C1752C214254704753
:103470004C4B8001181841628262704710B5C00041
:103480000021484A4A248B01D3181855491C0829A1
:10349000F9DB10BD5C00002030B5C168C1830100BC
:1034A0001C31818382680300213303218024E402DC
:1034B000A24208D220254255140A1C70120C114059
:1034C000222281542EE0A400A2420BD2940820258F
:1034D0004455940A1C70920C114022228154815C44
:1034E00004221CE0A400A2420BD21409202544555A
:1034F000140B1C70120D114022228154815C082291
:103500000DE0A400A2420DD2940920254455940B4D
:103510001C70920D114022228154815C0C220A43BE
:103520002221425441788022114205D12223C35CDA
:1035300013432224035505E02223C35C40241C438B
:103540002223C4542223C35C30241C432223C454AA
:10355000624B1C68232544551C68240A24254455C5
:103560001B681B031B0F252403550023262403552A
:1035700013240C4026254455445D4455445DFB25E9
:103580002540262405552C4605786D012543262423
:103590000555FF242725445538240355890700D5B0
:1035A000025530BDC0000020F0FF00007FB50400D0
:1035B000684600F087F800284BD100214748017188
:1035C00080225205464B1A60464A8260C160464AD4
:1035D00003001033538123785B075B0F1588434E3C
:1035E0002E401D00354348262E4316809B01D218DD
:1035F00011835183118421001C319183D1832221B5
:10360000515C80230B432221535444653820205CB5
:10361000907572B66078810612D5FFF7CFFA02AACC
:1036200003C26068FFF794FB030060780122024048
:10363000022101400C0002A803C8C018210004E0C8
:1036400001220240022101406068FFF7BEFC62B621
:1036500000E0C42004B070BDA046000038B540248E
:10366000234A1460204D09226A71EA710522AA7169
:103670002A7200290CD180216A790A436A71EA7999
:103680000A43EA71AA790A43AA712A7A1143297274
:1036900012490865002028809022D205A3055360B6
:1036A00093641368136047220A6008710B20FFF7C8
:1036B000E5FE2320285CF5210140232029540D48F4
:1036C000046031BD01000020074A1288120700D4AF
:1036D000704780B50800FFF71BFB02BD5C000020AF
:1036E00004000048862E0000C0000020F0FF00000B
:1036F00080E100E000E100E010B5C20018231340B3
:10370000FF249C40E2438907090E9940030004D539
:103710005D481B071B0F083B00E05C489B089B00B3
:10372000C01803681A401143016010BDFEB50124A2
:103730005748017801220A43027000265548066066
:10374000032500F0CDF96946088068460088002806
:1037500001D16D1EF5D168460088202836DB684609
:1037600000880125400525D4684600F019FA68460E
:103770004178090180780843122800DA00258C4836
:103780000068000705D4002D14D0012000F062F875
:1037900010E0884FF868884E3168081A283800020F
:1037A0000012002806DD002D02D0012000F052F8A2
:1037B000306838608148047000F049FABFF34F8FD9
:1037C0007F4880490860BFF34F8FFEE70120FEBDB0
:1037D00010B500220021A94804E00B00415C5918F3
:1037E000491CC9B2435C002BF7D1CB1C202B12DA49
:1037F000022343542123441863700823A370431801
:10380000DA709F4A80235B02401880B21843106030
:1038100010681840FCD110BD70B500210023974AF4
:1038200004E01C00D35CE3185B1CDBB2D45C002C0E
:10383000F7D102253524DE1C202E05DAD554D61802
:103840007470B070D218D1708E4A15705470907028
:10385000D17070BD70B5802149028A4B9CB20C4377
:10386000874A002804D01460106808400AD0FBE79B
:1038700098789D78FB262E409E70146014680C404A
:10388000FCD1987070BD00001CED00E000E400E089
:103890000800204014000020F3B58BB003A800BF3F
:1038A00082A11C22FFF77CFA684600F079F9744C7B
:1038B00001250BA80078002858D003A84421817363
:1038C00071490A78012313430B704C21C1722021E6
:1038D0000172B22141745B2101756C498B6B6C4A9A
:1038E0001E0C964209D1C67D8F273740C775C67D0D
:1038F0001B0170271F403743C7754B6B1E0C964248
:1039000009D14679CF273740477146791B013027C7
:103910001F403743477109680B0C934208D1C27DA1
:10392000FC231340C375C27D8907890F1143C175FC
:10393000C17AFB220A40C27269464A7812018E7827
:103940001643112E06DDC17D04220A43C275C07DD7
:10395000FFF762FF280403A989B2014321602168AF
:103960000140FCD1112E01DDFFF732FF1649888995
:103970000028FBD00CA800788D8117220A80002235
:103980004A60002807D06068102162680A4010234E
:1039900003409A42F9D00BA80078002802D01520E5
:1039A0003C4908703C483D4908600DB0F0BD00003E
:1039B000C000002004000048180000200C00002077
:1039C0000400FA050CED00E00C00104880B508205A
:1039D0003349088003210120C043FFF78DFE0321F6
:1039E0000020C043FFF788FE03210020FFF784FE7C
:1039F00003210120FFF780FE03210420FFF77CFE56
:103A000003210520FFF778FE00210620FFF774FE52
:103A100003210720FFF770FE03210D20FFF76CFE46
:103A200003210E20FFF768FE03210F20FFF764FE3D
:103A300003211120FFF760FE03211220FFF75CFE37
:103A400003211320FFF758FE03211420FFF754FE33
:103A500003211520FFF750FE03211620FFF74CFE2F
:103A600003211720FFF748FE01210120FFF714FF73
:103A70000C480D49086062B601BD0000FC0400203E
:103A80000C0000481C00002008002040B007001077
:103A900055AA00000000C040CCBCECFC1400002083
:103AA0000400104066000E0020009040023F00021B
:103AB0003E30023C20023B4C023A400239B2023412
:103AC0005B02350B0000000070477047304A012947
:103AD000116802D10843106070478143116070473C
:103AE0002C4802782C4801880020002A44D1092261
:103AF0000A40092A00D1202011220A40112A02D1AD
:103B000002004020104321220A40212A02D1020053
:103B10008020104341220A40412A03D10200802024
:103B20004000104381220A40812A03D102008020F4
:103B300080001043FF22921C13000B40934203D1DC
:103B400002008020C0001043144A13000B4093422F
:103B500003D1020080200001104305220A40052AFB
:103B600002D10200102010438907890F03290ED1CA
:103B70000100082008437047022A01D10120704744
:103B8000042A01D102207047082A00D1042070477E
:103B900020009040080090400800104801040000F8
:103BA0000F21114A13681B090B4043701368194019
:103BB0008170D268426001210C4B9A4208D10C4AB4
:103BC00012680C4B9A4201D1042202E0022200E06A
:103BD000012202704278002A00D14170064909880A
:103BE000491C8900816070471C00904041A0000280
:103BF0001C00001044A000F214001040EFF31482E7
:103C0000EFF30981002080F31488BFF36F8FF0B5C4
:103C100043464C4655465E466746F8B4164CEFF3AD
:103C20000883236006B4154C2068154C2060154CA1
:103C30002068154C2060154C2068154C2060154CF0
:103C4000276800202060BFF34F8F30BF27600A4CE9
:103C5000246884F3088882B003BCF8BC9846A14667
:103C6000AA46B346BC46F0BC04BC80F3098881F385
:103C70001488BFF36F8F10470800002004ED00E0A8
:103C80004805002024ED00E04C05002000E200E0A3
:103C9000500500200800204010B50069410320D4E1
:103CA0006B4C002810D4410106D5012000F031F9F9
:103CB0002089401C208107E0400005D5022000F04B
:103CC00028F9E088401CE080A088401CA080614A60
:103CD000907180B2642804D0002000F01AF901200D
:103CE000A070012010BD0000F8B584B062A003C828
:103CF00002AA03C2FFF76AFE00F012F9E1204002B7
:103D000000F023F9002000F0EBF8012000F0E8F8C3
:103D1000022000F0E5F8002000F0B6F901210020B3
:103D200000F0C4F9012000F0AFF94B484B49416065
:103D30004B490A681202120AC0231B0613430B6088
:103D4000002585600721016001210020FFF786FC26
:103D500002A8FFF79BF902203E4E307005217170DA
:103D60000121B170F0700320307104207071384C63
:103D7000A088B0713B4800F0C7F90F20FFF77EFB29
:103D8000FFF7CEF9A078012817D1A570322000F0F6
:103D900049F8354801909620009023000C333200FA
:103DA000C8214900207800F0B5F9002805D0A28884
:103DB000010000BF32A000F011FAA08864281DD1D4
:103DC0002789E188781800F02DFA284900F035FAA3
:103DD0000100264800F086FA00F0DCFA0090E38843
:103DE0003A002178224800F0F9F9A5802581E58084
:103DF000B5710120A070642000F014F860780128EB
:103E000005D16570217800BF21A000F0E7F90120FD
:103E100000F06DF90028B3D1A0780028FCD000F0A4
:103E2000D7FAADE701B413480168CA43009B9A4230
:103E30000BD201680023DB439942FAD10099891A19
:103E400002688A42FCD101B07047009A5118F7E726
:103E500048030020D804002010E000E0FE7C0000B1
:103E600020ED00E0DF888888993C04100000C842FB
:103E70007849041024000020010000000000000028
:103E80004552524F5220256420282564290D0A00EE
:103E90004368616E6E656C2025640D0A00000000A9
:103EA00038B50E4D2C000C3C002811D0022807D04C
:103EB0000ED200F039F80C2148432818083805E0E4
:103EC00000F032F80C2148432818001F006832BD6A
:103ED00000F02AF80C214843205832BD4C4B041006
:103EE0001CB5040001210120FFF7F0FD2000FFF7C1
:103EF000D7FF00906846062101710121817141714F
:103F000000F07AFA2000FFF7CBFF002100F0DFFA83
:103F100013BD80B5FFF7C4FF00F0E0FA01BD7047A4
:103F2000012003490870704701480078704700007D
:103F30005405002010B50400202000F0C5FB012826
:103F4000FAD0200000F0B7FB10BD78B585B00400B2
:103F500001210920FFF7BAFDFFF7E6FF2C49800099
:103F60000818001F00680090FFF7DEFF6D46294922
:103F700080000818001F006828710026AE716E715D
:103F8000684600F039FAFFF7CFFF23498000081890
:103F9000001F00680090FFF7C7FF20498000081845
:103FA000001F00682871684600F026FA029403207A
:103FB00002A908714871CE804E7208720120887281
:103FC00002A800F0DFFA002000F08FFB012000F0D3
:103FD000CDFA06B070BD80B5102000F07DFB002842
:103FE00008D101BD00F06CFB6946087001216846EC
:103FF00000F006F8102000F067FB0028F2D001BDA9
:10400000074A1268002A00D1704780B5904701BD69
:104010006C4B0410704B0410744B0410784B04105C
:104020002800002070B50024012804D0022802D006
:104030000020C04370BD002901D1002070BD0D00DB
:10404000160004E02878FFF775FF6D1C641C300033
:10405000461E0028F6D1200070BD704738B5094DC6
:104060002C00083C002808D0012806D1FFF75CFF8F
:10407000C0002818001F006832BDFFF755FFC000C0
:10408000205832BD644B04101CB5040001210120EE
:10409000FFF71CFD2000FFF7E1FF009000206946BC
:1040A00088808871684600F0A7F913BD7FB50500C8
:1040B0000C000026684606700321417001218170C2
:1040C00000F034FB2800FFF7C9FF0190029603942B
:1040D00001A800F009FA2800FFF7C0FF00F02FFA4E
:1040E0002800FFF7BBFF012100F01FFA7FBD80B55C
:1040F000FFF7B4FF00F0E8F9002800D0012002BD6E
:1041000001207047012070472D49886700207047C3
:1041100000000000FFB585B000250024FEF74EFD2D
:1041200006000698FEF714FE301800906846007DE1
:10413000282800DBC02401A8FFF7C4FA002801D01A
:10414000C4243AE0200038D10F9F02A821A10CC955
:104150000CC002A90020FFF777F900226846017D14
:104160000020FFF77EF9164C164AA16F0020FFF7DA
:104170007FF925700320607000986060A560079843
:10418000E060124EA662E6620F4820631049616348
:104190003580069921640E9961640899A164656669
:1041A000A566E06627672000FFF776F93000FFF785
:1041B00073F92000FFF7FAF90400200009B0F0BD00
:1041C000CC02002055555500014104100803002081
:1041D00005410410FFFFFFFFFF0000000EB4C0B553
:1041E000020003A801900020009001AB01210448C7
:1041F00078440C3000F0DFFA029906B0084700BF9F
:10420000370900009D2102000AD002D4491E9218ED
:10421000FCD5C905100A1206524100D3012A4841B3
:10422000704700009D210200EED55242F446FFF790
:10423000EBFF0122D2071043604730B405004D4028
:104240000122D20715404B180418240E28D01B0E4B
:104250002FD0FF2C34D0FF2B37D0E41A00020902F4
:104260001043114343084808D10D1B1A02D2641EA3
:10427000DB181B18DB18834200D31B1A4941F9D302
:104280007F3426DDFE2C08DAE4054808C907194307
:1042900091416041284330BC7047FF20C005F9E7D9
:1042A00028001B0E03D0FF2BF5D14902F3D0D043D9
:1042B000F1E7FF2C01D14002F9D1FF20C005E9E769
:1042C0004002F4D1FF2BF8D1F1E728004902E2D0F7
:1042D000EDE70B0200202442DCD15B129B1CD9D9F4
:1042E000D805D7E730B405004D400122D20715406C
:1042F0004B180418240E2ED01B0E32D0FF2C34D0B5
:10430000FF2B3AD0E4180002090210431143000ABF
:10431000090A9446C2B24A43000AC3B24B43000A98
:104320004843110A5B181A43D2B2190A091801D47A
:104330004918641E080A7F3C23DBFE2C08DAE405DA
:1043400009061143634699416041284330BC7047D8
:10435000FF20C005F9E728001B0EFF2BF6D1D04344
:10436000F4E72800FF2CF1D1F9E74002F7D1FF2B49
:1043700001D14902F3D1E005E7E7D8054902E4D0CD
:10438000EDE743020020641CDFD15B129B1CDCD9EB
:10439000D805DAE70122D2070118090E7F3910D4B7
:1043A00049421F310FD4001805D2C0011043C84044
:1043B00000D5D0437047C0011043C84005D44042E7
:1043C0007047002070470042F3D5100070477047D7
:1043D000054806490860BFF34F8F05480549086046
:1043E000BFF34F8FFEE700BF554201B0040000202D
:1043F0000400FA050CED00E0F0B50479220000217C
:10440000544B002C04D11C680568AC431C6006E0CA
:10441000062C04D100221C68056825431D60056830
:10442000CD40ED0738D5082909DA8D009E6A0F279F
:10443000AF40BE431700AF4037439F622CE00D00F2
:10444000083D082D0BD20D00083DAD00DE6A0F2798
:10445000AF40BE431700AF403743DF621CE00D00A2
:10446000103D082D0BD20D00103DAD001E6B0F2727
:10447000AF40BE431700AF4037431F630CE018291D
:104480000ADB0D00183DAD009E8E0F27AF40BE43E6
:104490001700AF4037439F86491C1A29BFDB0168CC
:1044A0004279012A9A6802D11143996001E08A4356
:1044B0009A60016880790128586802D101435960E7
:1044C000F0BD88435860F0BD8021C9053BE0224A19
:1044D000012901D110607047506070478021C905E3
:1044E0000A6850400860704702681C494368012B05
:1044F0000B6802D11A430A6001E093430B608268A3
:104500000368012A03D18A6813438B6004E0002A00
:1045100007D18A689A438A604A68006882434A6081
:104520007047486803434B6070470D4A0029116883
:1045300002D00843106070478143116070470949F9
:104540000860704708490968084000D00120C0B2DF
:1045500070470000040000403C0000401000004094
:104560001C0000402800004024000040644900284E
:10457000086803D0012202430A6070470122904379
:1045800008607047F0B50400216801255D4E5E4863
:104590007269D2082A4001D1090100E0C900FEF782
:1045A00085FEC10931810904490A401A401C4008AE
:1045B00081B23F2902DD3F388006800E30736020D3
:1045C0009F21327C0A4023795B01034013433374FB
:1045D000327811406279520110400843307008214E
:1045E000F720327C0240A379DB0008271F401743E5
:1045F000377432781040A279D200114001433170F3
:10460000E179002907D1FD20317C014031743178F6
:10461000084030701CE002200229317C0BD101439C
:104620003174FB21327C0A4032743278104330708E
:10463000307801400BE0014331740421327C0423C3
:104640001343337432781043307030780143317043
:1046500070692E490140207A284040020843706169
:1046600070692B490140207A400828400002084325
:104670007061706927490140607A284080030843CF
:104680007061706924490140607A40080540E80380
:10469000084370611020EF21327C0A40A37A1B018D
:1046A00003401343337432781140A27A1201104050
:1046B00008433070F0BDC005C00D18490880704730
:1046C00016480088C0B2704701001548002901D57E
:1046D000006800E0808A02E0010012480088014082
:1046E000080000D00120C0B270470F490A78C723E4
:1046F0001340C0003822FFE702401A430A70704797
:10470000300030401C0030400000127AFFFDFFFFF7
:10471000FFFEFFFFFFBFFFFFFF7FFFFF00003040F6
:10472000040030403C00304034003040F0B50278A6
:104730001F2301248178002921D0417852B2D5006D
:1047400018262E40FF27B740FD438907090EB140C8
:10475000160004D50D4A3607360F083E00E00C4A15
:10476000B608B600921916683540294311600078E2
:1047700003409C400749400980000C50F0BD1340A5
:104780009C400548510989004450F0BD1CED00E0F3
:1047900000E400E000E100E080E100E070B5060028
:1047A0000800002B06D014001D002178B047641CBF
:1047B0006D1EFAD170BDF8B588B0029000910392D9
:1047C000019309E00123039A00990298FFF7E6FF9D
:1047D00000900398401C039003980078002821D093
:1047E0002528EFD1039840780399891C0391010093
:1047F000252812D0582867D0632815D064281BD0EC
:10480000692819D06F285FD0702864D073286AD0C7
:10481000752859D0782857D0DEE70098029A90473B
:104820000090D9E709B0F0BD019800680168001D4B
:10483000019A1060C9B2F0E7019800680468001D91
:1048400001990860002C04D52D210098029A904708
:10485000009064206F2801D1082506E02021014343
:10486000782901D00A2500E010250B2726006428AE
:1048700003D1002C01D571420E0004007F1E049765
:1048800030002900FEF712FD3031C8B23A2802DBB1
:1048900020005138091805A8C01904900170300093
:1048A0002900FEF703FD060001D0002FE6DC049C82
:1048B00000980B21CD1BB3D0029E2178B047641C19
:1048C0006D1EFAD10296ABE7019909680C68091DC3
:1048D000019A1160BEE7019800680468001D019903
:1048E00008607820B6E7019800680468001D019907
:1048F0000860200000F00CF80500009890D0029E9F
:104900002178B047641C6D1EFAD1029688E7704783
:10491000431C0178401C0942FBD1C01A7047704704
:10492000704712480168491C0160704780B5FFF765
:1049300052FB01BD80B5FEF7D7FC01BD10B50020CC
:10494000FFF78CFBFFF7FEFD01280ED10020FFF7DB
:1049500085FBFFF7F4FD012005490870054C207820
:10496000401C2821FEF78EFC217010BD2400002081
:1049700049030020480300204368616E6E656C2087
:104980003D2025642C54696D656F757420657272C5
:104990006F7273203D2025642C4352432065727250
:1049A0006F7273203D2025642C504552203D2025F8
:1049B000642025250D0A000070B40123002413E0B3
:1049C0000168001D194202D04D466D1E49190C6048
:1049D000091D121F042AFAD20D00960701D50C807A
:1049E000AD1C1A4000D02C700268001D002AE7D1CF
:1049F00070BC704730B501684118446862088A1875
:104A00008368E40704D54C461B1901E0641C06D1F9
:104A100091420BD00C7864B2491C0D78491C1D7072
:104A20005B1C002CF2D4641EF7D5F1E70C3030BDCE
:104A300010B5074979441831064C7C44163404E01B
:104A4000081D0A68891888470100A142F8D110BDE5
:104A5000080000008400000061FFFFFF0400000068
:104A600008000020040000000C00002004000000EA
:104A700014000020040000001800002008000000BE
:104A80001C0000200400000030000020080000008E
:104A900024000020580000005C00002000010000FD
:104AA00058040020000000004DFFFFFFEA00000056
:104AB00014000000C00000203DFFFFFFE4000000E4
:104AC0000A000000100000202DFFFFFFBA000000C8
:104AD00020000000CC020020FEF728FE002801D0B4
:104AE000FFF7A6FF00BF00BF002000BF00BFFFF719
:104AF000FBF800F000F880B500F002F801BD704747
:104B00000746384600F002F8FBE77047202109030A
:104B100026311820ABBEF9E780B56946087001223E
:104B20000120FFF77FFA012802D16846007802BD14
:104B30000020C04302BD38B505000C002000FFF77F
:104B4000EBFFA04200D00025280032BD400000004D
:104B5000800000000040000000BF00BF00BF00BF99
:104B6000FFF7BAFF00200000200000000001000055
:104B700001000000000800000100000070477047BD
:104B8000704770477047880006DF88DF881800018B
:104B900081008100F1008100810081008100F0002E
:054BA0000300280410D1
:0400000510044B593F
:00000001FF
