:020000041004E6
:10000000006000205D3905107F3505108135051031
:10001000AA5555AA45554C420000000000000000BA
:100020000000000000000000000000008335051003
:100030000000000000000000270F041085350510A7
:100040008D350510532B0410000000000000000047
:10005000913505103B2D0410993505107F3704109C
:100060000000000000000000000000000000000090
:100070000000000097370410533A0410DB3A0410D4
:1000800000000000372E0410AB350410FF350410BB
:10009000C736041027370410573C04108F3505105D
:1000A0000000000000000000000000000000000050
:1000B0000000000000000000000000000000000040
:1000C00080B575480078072803D000F097FD002818
:1000D00001D0002002BD032002BD000030B58BB06E
:1000E00009A800BF36A10CC90CC007A836A10CC9CD
:1000F0000CC009AA0621002000F0E1FD0500674CB4
:1001000002D0290020004EE00421012000F0DBFD98
:1001100000F0DDFD050003D029002000303042E072
:1001200006A8019005A8009005AB9B1C08220021A1
:10013000012000F0D0FD050002D0290024A032E00B
:1001400007A803900820029000200190082000904A
:1001500000236846828AC18A002000F0D4FD050091
:1001600003D02900200054301DE0032000F0DCFD06
:10017000050003D029002000883014E001200490FD
:100180004748039001200290102001900720009022
:10019000002300220021012000F0CEFD050006D042
:1001A00029002000B83000F011FE280006E02000F1
:1001B000F43000F00BFE0020374908700BB030BD62
:1001C000CCBC00E180020000414E435364656D6F7A
:1001D0006163695F6761705F696E69742829206671
:1001E00061696C65643A203078253032780D0A00F8
:1001F00030B58FB00CA800BF2AA11CC91CC007A82D
:100200001121017015214170D02181700021C17030
:100210002D210171122141711E2181714B21C1716A
:100220000F210172A4214172992181724E21C17264
:10023000CE210173B521417331218173F421C17342
:10024000052101747921417407A9122000F0D2FD23
:100250000100B84C02D0200000F0B8FD002006904C
:100260000590049003900CA80290092001900020B2
:1002700000900123C022A02100F0C7FD050005D099
:1002800029002000343000F0A1FD02E008A000F0B9
:100290009DFD28000FB030BDCC020020E0110510FC
:1002A00040E2010009414E435364656D6F00000058
:1002B00044657669636520696E2041647665727471
:1002C0006973696E67204D6F64652E2E2E0D0A00CE
:1002D000F0B587B0B44CB54800900126B44D002766
:1002E0002078401E082818D801A1095C49008F44D5
:1002F00004CB1E446C1576D92900FA21C9000120CF
:1003000000F0A4FDC1B2002902D0280000F05EFD7B
:10031000022000F0EEFD08202070C3E0608800F0AD
:10032000F6FD00280DD0010028002830B7E001209C
:1003300000F0F1FD22003732FA204100608800F021
:10034000F3FDAEE09B489C4960520021009A8BB2BD
:100350000C265E43925D002A04D1491C8AB2322ADF
:10036000F4DB05E0944AA152A21897700421217091
:100370009149615A8142D0D159E08D2080002018E6
:100380008D49615A0C224A438058029002A90E718D
:100390004E713220C8800E721E2048810E73962046
:1003A0004000C8810E744E748E7402A8C67484B066
:1003B0006846142201F084F90FBC01F071F800289E
:1003C0006FD0010028005C3069E0611D207901F0E8
:1003D00017F9002865D0010028008C305FE07648CE
:1003E0002018007A002809D02800B03000F0EEFC78
:1003F0002EA000F0EBFC704961180F7201A800F00C
:1004000057FC01281ED001F082F96B496118496838
:1004100001F086F96949884244DB00BF29A000F059
:10042000D5FC0099644AA25A0C235343CF54FA21B5
:100430004900012000F00AFDC0B2002831D00100BF
:1004400028002CE068460079412803D068460079EE
:10045000612801D1002100E001218D2080002018B9
:10046000554AA25A0C235343C05801F002F9002800
:1004700005D001002800F83000F0A8FCD1E768465C
:10048000017900BF14A0F7E7022000F039FDFFF763
:10049000AFFE002805D0010096204000281800F08B
:1004A00095FC277000F056FD07B0F0BD2A2A2057B2
:1004B000616974696E672035207365632E2E2E2E58
:1004C0000D0A00002A2A20416374696F6E20546966
:1004D0006D656F75740D0A002A2A20416374696F77
:1004E0006E20506572666F726D6564203D202563D5
:1004F0000D0A000010B501002D4C05D1AC204000C4
:10050000201800F063FC04E0C0204000201800F038
:100510005DFCFA214900012000F098FCC0B20028DF
:1005200003D00100200000F051FC00201E4908709B
:1005300010BD0000E0280510F8B5040004D001004B
:100540001F4800F043FCF1BD08000025079C02296C
:1005500010D1002114480C224A4382188B239B009F
:10056000D2189368A34203D0491C322901DAF2E77A
:100570001570F1BD1900069E23000B4C0C276F432C
:10058000E4198B27BF00E4192778002F03D06D1CD6
:10059000322DF2DBF1BD012525706070A270E17093
:1005A0002671A360F1BD0000CC020020F8040020F9
:1005B00070E10410FFFF00008404000088130000B5
:1005C000202D0510F0B585B000280CD094488B2163
:1005D00089004118934A825A0C2353430022CA547B
:1005E000092101700AE00024080001D0012905D189
:1005F0006846817082810193002703E005B0F0BD59
:10060000E41CA4B2684680898442F7DA0222019889
:100610000019411C684601F089F8684600880028E6
:10062000EED0814D012668468078002800D08CE00D
:10063000A878002800D069E02888694608817B48AE
:1006400000F0C4FB7648694609890C224A438018A9
:1006500004907749401802900078002808D00228BA
:1006600001D003D307E000BF77A002E07CA000E048
:1006700081A000F0ABFB02984078012810D002283E
:100680000CD0042808D0082804D010280BD100BFB3
:100690007EA006E084A004E08AA002E08FA000E033
:1006A00094A000F093FB029880780B2821D801A138
:1006B000095C8F4436322E2A26221E1A16120E0A82
:1006C00091A014E098A012E05A4810E05A480EE0B9
:1006D0009BA00CE09FA00AE0584808E0584806E0BC
:1006E000584804E0A1A002E0CC4800E0CC4800F06B
:1006F0006DFB0298C178CF4800F068FB04988D210B
:1007000089004158A0A000F061FBAE700198005D27
:10071000072818D801A1095C8F4400BF24201C18A9
:1007200014100C08A0A00CE0A4A00AE0C94808E03E
:10073000C94806E0C94804E0A5A002E0C84800E0B6
:10074000A7A000F043FB05201CE00198005D0028F5
:1007500003D100BFA7A000F039FB314829880C2243
:100760004A4380188B2189004018C178012901D0A3
:10077000052905D12E7200F0CAFF6860072001E04C
:1007800007700920264908700198005D451EAD419B
:10079000ED0F641CA6B268460288FF20F630824244
:1007A0000C460CD201988019811C2000373000F0D3
:1007B000BDFF2000373069460988475409E0821E92
:1007C00001988019811C2000373000F0AFFFC1482C
:1007D0002754684600883418A41CA4B2002D16D0F3
:1007E00068460288521C332A0D4D08DA2900373139
:1007F000681D00F09BFF68460088401C06E032221E
:1008000029003731681D00F091FF322028716846B9
:100810000088002803D0B0497AA000F0D7FAF1E6AA
:10082000CC0200208404000050070020542505104D
:100830002D020000302505100C25051000240510A0
:10084000E8230510CC2305100D0A2A2A20457665D9
:100850006E743A2052656D6F7665640D0A00000073
:100860000D0A2A2A204576656E743A204D6F646918
:10087000666965640D0A00000D0A2A2A204576651E
:100880006E743A2041646465640D0A002A2A20547B
:100890007970653A204E65676174697665204163B9
:1008A00074696F6E0D0A00002A2A20547970653A27
:1008B00020506F73697469766520416374696F6E47
:1008C0000D0A00002A2A20547970653A205072657A
:1008D000204578697374696E670D0A002A2A2054CE
:1008E0007970653A20496D706F7274616E740D0A8B
:1008F000000000002A2A20547970653A2053696C60
:10090000656E740D0A0000002A2A20436174656731
:100910006F72793A20456E7465727461696E6D65A7
:100920006E740D0A000000002A2A20436174656776
:100930006F72793A204C6F636174696F6E0D0A00B3
:100940002A2A2043617465676F72793A204E657771
:10095000730D0A002A2A2043617465676F72793A21
:1009600020456D61696C0D0A000000002A2A2043B1
:10097000617465676F72793A204D6973736564209D
:1009800043616C6C0D0A00002A2A204E6F74696660
:1009900069636174696F6E205549443A2030782547
:1009A0003038780D0A0000002A2A204E65676174ED
:1009B0006976652049443A20000000002A2A205028
:1009C0006F7369746976652049443A20000000001D
:1009D0002A2A205375625469746C653A200000001D
:1009E0002A2A20417070204964656E7469666965C1
:1009F000723A20002A2A20417070204E616D653ABB
:100A0000200000002025730D0A000000002803D1FB
:100A1000324841800121017070470000AC2305106D
:100A20009423051000202E49087002202B490870DD
:100A3000704700009825051028490A78012806D13A
:100A4000082A01D1062202E0100000D109220A7012
:100A50007047000048240510342405102424051094
:100A600018240510704780B500F0B3FB01BD80B5B8
:100A700000F0C4FB01BD80B500F0ECFB01BD80B50A
:100A800000F050FC01BD80B500F003FC01BD80B555
:100A900000F056FC01BD10B5104C638883420BD1A9
:100AA00010480B0003D100F091F9032003E02C3033
:100AB00000F08CF90020207010BD80B507484088F8
:100AC00000F048FE002803D00100074800F07EF93E
:100AD00001BD00002A02000003030020CC02002018
:100AE000AC100020402905103C2F051010B5040063
:100AF000202000F0EBFE0128FAD0200000F0DDFEFF
:100B000010BD78B585B004000121092000F012FF66
:100B100000F07EFF4B4980000818001F006800901D
:100B200000F076FF6D46484980000818001F0068F5
:100B300028710026AE716E71684600F06FFF00F0FC
:100B400067FF424980000818001F0068009000F00D
:100B50005FFF3F4980000818001F00682871684641
:100B600000F05CFF0294032002A908714871CE8056
:100B70004E7208720120887202A800F0FBFD00206E
:100B800000F0B5FE012000F0E9FD06B070BD1CB517
:100B9000040068460421017003214170847000F054
:100BA000B1FF2100102000F07EFE13BD80B51020A3
:100BB00000F094FE002808D101BD00F083FE6946D4
:100BC00008700121684600F011F8102000F07EFE48
:100BD0000028F2D001BD80B51E490860E120400226
:100BE000FFF78FFF0120FFF7D2FF01BD194A1268FE
:100BF000002A00D1704780B5904701BD80B58020A4
:100C000000F064FE57E014490A68144B9854521CD3
:100C10008020C000824200D100220A6070470E4945
:100C20004A680B68934201D1012070470B4B9B5CD3
:100C30000370521C8020C000824200D100224A6012
:100C400000207047C8390510CC390510D03905107F
:100C5000D4390510B0000020240000205C070020DB
:100C600070B5002504000E0003E0205CFFF7CBFF09
:100C70006D1CA8B2B042F8D370BD70B50024012835
:100C800004D0022802D00020C04370BD002901D149
:100C9000002070BD0D00160004E02878FFF726FF45
:100CA0006D1C641C3000461E0028F6D1200070BD6B
:100CB00080B5FFF7B4FF401E8041C00F02BD10B5E4
:100CC00000F066FF10BD10B501F006F810BD10B5BC
:100CD00001F024F810BD7CB5069D079C002805D0C6
:100CE000860705D1460703D4060701D442207CBD00
:100CF000002903D0012901D00229F7D100950194E0
:100D000001F0D6F87CBDF0B585B084460AA8F0C8DD
:100D100068468581C68103A80190029700946046C9
:100D200001F0C4F905B0F0BD10B5042801D9422086
:100D300010BD01F083FB10BDFFB583B003980C9D7F
:100D40001E4614460F46002804D0012802D0422037
:100D500007B0F0BD002F01D0012FF8D1E81F0A28FD
:100D6000F5D20D981028F2D8A842F0D30E9800289A
:100D700001D00128EBD114490F988842E7D8109888
:100D8000002801D00128E2D101F076FB012804D02F
:100D90002046304305D01120DAE7022CD7D8012EA7
:100DA000D5D868460399017047708472C672857001
:100DB0000D99C1700E9901720F98019068461099B3
:100DC000417201F05BFBC3E73F420F000EB4C0B5B8
:100DD000020003A801900020009001AB012104480B
:100DE00078440C3001F05EFB029906B0084700BF62
:100DF000772A010010B50A461F2801D9122010BD1C
:100E00000146104601F00EFE10BDFFB587B0109DE3
:100E1000159E169C01930295009407A807C81F46CB
:100E2000334601F02DFE00280ED11398149903AA21
:100E3000069443C21198129901900095029107A857
:100E400007C83B4601F04AFE0BB0F0BD70B50D4639
:100E5000044600F05CFC294601F05CFE0146204699
:100E600001F06AFE70BD0C0802170D0101020909AC
:100E70000101060209FFFFFFFFFF0909FFFFFFFF56
:100E800038B50E4D2C000C3C002811D0022807D09C
:100E90000ED200F0BDFD0C2148432818083805E0AB
:100EA00000F0B6FD0C2148432818001F006832BD31
:100EB00000F0AEFD0C214843205832BD50390510DA
:100EC0001CB504000121012000F034FD2000FFF7D3
:100ED000D7FF00906846062101710121817141719F
:100EE00000F09CFD2000FFF7CBFF002100F0FEFD8D
:100EF00013BD80B5FFF7C4FF012100F0F7FD01BD70
:100F000080B5FFF7BDFF002100F0F0FD01BD10B579
:100F100001F020FE10BD1FB569463A3008736846DF
:100F200001F066FE1FBD7047F8B506000C00150005
:100F3000C74F2C220021380000F0FEFB142C01DAF0
:100F40000D20F2BD7E803C84FD61032038700020BE
:100F5000F2BD0000F8B58AB001A800BF9CA10A88C4
:100F60000280D926B521CE2201251220B84C06AB2D
:100F70002778012F00D124E1032F00D1F2E0052FC3
:100F800000D1BEE0072F00D18CE0092F5BD00B2FE2
:100F900037D00D2F2AD00F2F17D0112F00D015E1E9
:100FA000A18A00290CD0A27DD20600D40EE12070C7
:100FB00001AB0222891C89B2608801F045FE00283D
:100FC00000D103E125700A20F7E0218900290BD028
:100FD000A07AC00608D501AB0222891C89B26088BC
:100FE00001F032FE0028EDD11020EEE0218A608869
:100FF00001F02EFE002802D025700920DDE00E2031
:10100000E3E02089A18A884207D202000800238AEF
:10101000591C984205D2E2880AE00A008142F5D2C2
:10102000F5E7BF4E934201D2921900E0821992B2C5
:1010300089B2608801F010FE002802D025700B20D4
:10104000BBE00C20C1E0FB2018707B2058707C2096
:101050009870DA706A201871B32058714420987122
:10106000BE20D87119724B205872D6209872242055
:10107000D872E9201873C6205873EA20987322208A
:10108000D873102206A902A800F050FB02A8009015
:101090000223E288A188608801F0E2FD00285ED189
:1010A0000A2092E01E705E70AA209870FD20D87011
:1010B000BD2018719B205871212098719820D871FB
:1010C000A820187249205872E12098724520D872E1
:1010D000F3201873D8205873D12098736920D873DF
:1010E000102206A902A800F021FB02A8009002230A
:1010F000E288A188608801F0B3FD00282FD1082084
:1011000063E0BD2119701D215970A22199709921A8
:10111000D970E621197125215971582199718C21B5
:10112000D9711E72422159729D726321D9720D21AB
:1011300019735873BF2098739F20D873102206A983
:1011400002A800F0F3FA02A800900223E288A18826
:10115000608801F085FD002801D1062035E025706A
:1011600007202AE0D0261E7000265E702D269E7075
:10117000D8701E2018714B2058710F209871A42030
:10118000D871992018724E2058729A72D9723120F3
:101190001873F4205873052098737920D87310229F
:1011A00006A902A800F0C2FA02AA0221608801F092
:1011B0006BFD002803D025700620E07506E00420B2
:1011C00003E0E07DFFF796F9022020700BB0F0BD40
:1011D000010030B51E4B5C78002C0ED101245D88D7
:1011E000A84201D1012903D01C700320D87530BD5D
:1011F000108898805088D8805C7030BD30B501244C
:10120000134A5588A84202D0147004201AE0102016
:101210001578062D05D11D78054211D011811D7854
:1012200095721578082D05D11D782D0708D5918167
:101230001D78957315780A2D09D11D78054203D1C3
:1012400014700520D07530BD91821878907530BD2E
:10125000080C0020012900D0704770B58F4C6188C0
:10126000814215D1002501E02D1DEDB295420FDA26
:10127000595D5819407800020843591989785E1958
:10128000F67836020E43A42189018E42ECD12082E9
:1012900070BD38B502000800804C618891423ED193
:1012A0000F2102252278042A10D0062A10D0082AFD
:1012B00010D00A2A10D00C2A13D00E2A13D0102ACC
:1012C00013D0122A14D0132A16D031BD05200DE0F8
:1012D00007200BE0092009E0A07B000603D50B20C6
:1012E00004E00D2002E0217031BD1120207031BDDD
:1012F0002570FFF7FFF831BD010005D125702A20C8
:10130000205C002806D131BD002300220021FFF718
:1013100059F9257000202622A0542A21605431BD9D
:10132000FFFF00005D494B88834207D108780E28F3
:1013300004D110785278120202434A8270470000AA
:10134000FEB5564E7488A04226D13089401C0C0050
:10135000844203D0B18A491C8C421DD169460A726D
:101360001F00844215D10020082A00D00E203979B0
:101370007A7912020A43B97909041143FA791206FB
:101380000A430192F9780091BB787A783978FFF7AF
:10139000D3F8B08A401C844200D07EE0002526208D
:1013A000305C002800D178E0708C318C6B461B7A61
:1013B000C218914209DA2421725CF1698B18821AF1
:1013C00092B209780D20FFF7FDF86846027A3900DD
:1013D000F069738CC01800F0A9F9708C6946097A1D
:1013E000401870840120009000242AE0318D785D3F
:1013F00000020843308538D1062027217054308BF5
:10140000002810D12720305C06280CD1F069242157
:10141000715C4318728C521A92B201780020FFF767
:10142000D1F8262174542720305C062808D12720C3
:10143000345405E00098252170540520272170546C
:101440006D1C6846007A854227DA2720305C052823
:10145000D5D801A109568F441C149204DA2C308D82
:10146000401E30850004EBD1C6E70320E6E7785D37
:1014700030850220E2E7308B00997A5D9140884305
:1014800030830098DAE72520305C401C2521705419
:101490002421715CC0B28842C8E7F7BD080C002067
:1014A0000FB4F8B5854D2878132801D10C20A2E09F
:1014B00000206884288305202421685404202721E3
:1014C00068540020E9690870042206A9E869401CF4
:1014D00000F02CF90524012706AE3079002807D04A
:1014E000288B0121014329830020E96948710624E2
:1014F0007079002811D0288B022101432983E969E2
:101500000F55641CF088002807D00222B11DE8693D
:10151000E3B2C01800F00AF9A41C307A002814D0F5
:10152000288B0421014329830220E969E2B288540F
:10153000641C7089002808D0022231000A31E86951
:10154000E3B2C01800F0F2F8A41C307B002814D0DD
:10155000288B0821014329830320E969E2B28854DA
:10156000641CF089002808D0022231000E31E8699D
:10157000E3B2C01800F0DAF8A41C307C002808D0D0
:10158000288B1021014329830420E969E2B28854A1
:10159000641C707C002808D0288B202101432983FB
:1015A0000520E969E2B28854641CB07C002808D0A8
:1015B000288B4021014329830620E969E2B288543F
:1015C000641CF07C002808D0288B802101432983EB
:1015D0000720E969E2B28854641CEB69E2B2A98988
:1015E000491C89B2688801F05FFB010003D1132117
:1015F000297026216F5401B00499F0BC05B008474A
:10160000F8B52E4C2278132A01D10C20F2BD02002D
:10161000002565842583571C242027540420272374
:10162000E0540126E3691E70E069401C00F07EF87A
:10163000208B012101432183E069F9B245547A1CD2
:10164000A189491C6088E369D5B2152D06DB00939A
:10165000D3B2002289B201F02BFB03E0D2B289B2EF
:1016600001F022FB010003D11321217026216654D1
:10167000F2BD31B5114C2078132801D10C2032BDB8
:101680000D000220E169087004226946E069401CEF
:1016900000F04CF8E0694571E3690622A189491C14
:1016A00089B2608801F000FB010006D1132121708E
:1016B00001212A23E1542622A15432BD080C002026
:1016C00070B4103A03D378C9103A78C0FBD25307EC
:1016D00001D318C918C001D508C908C0D20704D35E
:1016E0000B880380891C801C002A01D50B780370AD
:1016F00070BC70478B0701D18307E1D0124205D03F
:101700000B78491C0370401C521EF9D1704710B56C
:101710000920C00600690002000A01F0D3FA10BDDA
:10172000401AC010810040180012704710B5040024
:10173000FFF7E0FF200010BD10B504000800110005
:101740000200200001F0D0FA200010BD80B501F0A9
:10175000F5FA02BD10B501F000FB10BD6949002883
:10176000086803D0012202430A60704701229043B7
:1017700008607047F0B5040021680125624E634897
:101780007269D2082A4001D1090100E0C90001F0C4
:10179000F9FAC10931810904490A401A401C40087C
:1017A00081B23F2902DD3F388006800E3073602011
:1017B0009F21327C0A4023795B0103401343337439
:1017C000327811406279520110400843307008218C
:1017D000F720327C0240A379DB0008271F40174323
:1017E000377432781040A279D20011400143317031
:1017F000E179002907D1FD20317C01403174317835
:10180000084030701CE002200229317C0BD10143DA
:101810003174FB21327C0A403274327810433070CC
:10182000307801400BE0014331740421327C042301
:101830001343337432781043307030780143317081
:10184000706933490140207A2840400208437061A2
:10185000706930490140207A40082840000208435E
:10186000706170692C490140607A28408003084308
:101870007061706929490140607A40080540E803B9
:10188000084370611020EF21327C0A40A37A1B01CB
:1018900003401343337432781140A27A120110408E
:1018A00008433070F0BD1E4A0029118802D0084359
:1018B00010807047814311807047C005C00D1949E1
:1018C0000880704717480088C0B27047010016486A
:1018D000002901D5006800E0808A02E00100134879
:1018E00000880140080000D00120C0B270471049B4
:1018F0000A78C7231340C0003822FFE702401A438A
:101900000A707047300030401C0030400000127AEE
:10191000FFFDFFFFFFFEFFFFFFBFFFFFFF7FFFFF9A
:101920003800304000003040040030403C0030407F
:1019300034003040304A0129116802D10843106058
:1019400070478143116070472C4802782C48018809
:101950000020002A44D109220A40092A00D120206F
:1019600011220A40112A02D10200402010432122F4
:101970000A40212A02D102008020104341220A405D
:10198000412A03D1020080204000104381220A40F6
:10199000812A03D10200802080001043FF22921C84
:1019A00013000B40934203D102008020C00010437B
:1019B000144A13000B40934203D10200802000011F
:1019C000104305220A40052A02D1020010201043CC
:1019D0008907890F03290ED10100082008437047A9
:1019E000022A01D101207047042A01D10220704748
:1019F000082A00D104207047200090400800904041
:101A000008001048010400000120034908707047D5
:101A100001480078704700005C0C0020F0B50479A4
:101A200022000021354B002C04D11C680568AC4312
:101A30001C6006E0062C04D100221C6805682543C2
:101A40001D600568CD40ED0738D5082909DA8D00FD
:101A50009E6A0F27AF40BE431700AF4037439F62D7
:101A60002CE00D00083D082D0BD20D00083DAD0007
:101A7000DE6A0F27AF40BE431700AF403743DF6237
:101A80001CE00D00103D082D0BD20D00103DAD00E7
:101A90001E6B0F27AF40BE431700AF4037431F6395
:101AA0000CE018290ADB0D00183DAD009E8E0F27B3
:101AB000AF40BE431700AF4037439F86491C1A29E9
:101AC000BFDB01684279012A9A6802D1114399600B
:101AD00001E08A439A60016880790128586802D140
:101AE00001435960F0BD88435860F0BD044A0129A4
:101AF00001D1106070475060704700000400004042
:101B00003C000040F0B502781F23012481780029B1
:101B100021D0417852B2D50018262E40FF27B74079
:101B2000FD438907090EB140160004D5134A360754
:101B3000360F083E00E0124AB608B6009219166841
:101B4000354029431160007803409C400D4940090D
:101B500080000C50F0BD13409C400B485109890097
:101B60004450F0BD09490028086803D0042202430C
:101B70000A60704704229043086070471CED00E043
:101B800000E400E000E100E080E100E010ED00E0B2
:101B9000F0B54F4F0446386885B078300D4616468C
:101BA000002C10D0062C14D0082C0FD0182C0DD0DF
:101BB000282C0ED02A2C0CD02C2C0DD02E2C0ED054
:101BC000D02C47D048E0062D0FD045E0102D0CD08A
:101BD00042E0022D09D03FE0012D06D03CE0062D69
:101BE0003AD17179890903296FD100192A46314602
:101BF000FFF79CFD2C2C26D13078002823D001F053
:101C000018F9012822D01B201F304009401C410038
:101C10004118012001F010F901F00BF9012817D04B
:101C20001B201F304009410041182A484078401AC3
:101C3000C01EC1B2002001F0FFF83868F922403020
:101C4000017811400170002005B0F0BDFB20DBE7FA
:101C5000FB20E6E7012D04D001F0EBF8012804D0C9
:101C600005E0107801F0F4F8EEE7D12C02D02F2C2B
:101C70001ED02AE0082D28D1022231466846FFF7FF
:101C800055FD0222B11C01A8FFF750FD0222311DB3
:101C900002A8FFF74BFD0222B11D03A8FFF746FD86
:101CA0006846838902898188008801F0E2F8CBE7E1
:101CB000012D0AD13078002807D0082805D2492202
:101CC0003968520189188876BDE71220BCE7000008
:101CD000A4000020F40B002010B5012818D8072913
:101CE00016D80C4A126813462033187759778007A4
:101CF000C906000E090E01430020074BA03204E084
:101D00008401E418A172401CC0B2147B8442F7D84D
:101D1000002010BDA400002000010020F0B55FA04D
:101D200099B000685E4915905E4A086884180922D7
:101D300012028218D26E2546403514922A7AD207B2
:101D400002D0622019B0F0BDAA8B01235B029A4237
:101D500001D9AB8303E0172A01D21722AA83149A70
:101D6000A0301392067B0DE0761EF6B21398710137
:101D70000F18B8680F90384620220021FFF7DCFCCE
:101D80000F98B860002EEFD120460830E060646004
:101D9000A06024600830139060612061FF22002160
:101DA000083001F068F82046FF220021243001F0BD
:101DB00062F82046AA7F0021303001F05CF820460E
:101DC000FF2200213C3001F056F800222A72104612
:101DD0001721334B05E0149E4701BE19401C71804A
:101DE000C0B21E68A036367B8642F4D80020288315
:101DF0002F8C688C0026149008E02820E16C70433A
:101E00000918204601F03FF8761CB6B2BE42F4D362
:101E1000002608E03020216D70430918139801F066
:101E200032F8761CB6B214988642F3D3012001F042
:101E300031F80124684604701B494180234604227E
:101E400069460CA801F032F8002822D16846018EBC
:101E5000818216490183042606858475202108A8FD
:101E600081720024C472047307214173847305A92D
:101E70000DA801F0CBF800280BD1684604874687EF
:101E8000818E15AB0EAA008E01F05EFA002800D1FB
:101E900058E700202872472054E700000000FFFFA9
:101EA000A40000206407000001180000052A0000BB
:101EB000FFB50C4678A103C995B0019100900021AF
:101EC00008A801730321C90268464186012108A8B8
:101ED000734E017435681746AE3501F069FA002873
:101EE00008D170493068401801F0F6FAA878002847
:101EF00002D0462019B0F0BD0BA8159901F0F6FAF2
:101F00000028F7D1072010A90871012C05D0022C58
:101F10000AD0002C0ED04220ECE708A8017B10204C
:101F2000014308A8017305E011A90BA801F0ECFA20
:101F30000028DFD110A8027901230CA9284600F05F
:101F4000B5FF00287ED1022229461898FFF7EEFB44
:101F5000298868468181152149020182078401266A
:101F600086734E2108A881700024C4700671072171
:101F70004171867103A902A801F048F8002861D1D7
:101F8000022202A91E98FFF7D1FB082F02D2684651
:101F9000478502E008206946488569460C850B465E
:101FA00028880AAA098901F0CFF900286DD13E4995
:101FB000684601820227078408A8847103A902A841
:101FC00001F024F8002860D1022202A91F98FFF72F
:101FD000ADFB68460470694644704F850B462888FF
:101FE0000AAA098901F0B0F900284ED108A8007B9F
:101FF000C00723D02C496846C91C018208210184EE
:1020000008A88770047103A902A800F0FFFF002848
:102010003BD1FF216846C1718171C17081704170EF
:102020000170447104716946082048850B46288870
:102030000AAA098901F088F9002826D108A8007B9E
:10204000800600E021E022D5298868468181164972
:10205000A53101820684867308A88770C470047154
:1020600007214171847103A902A800F0CFFF002865
:102070000BD169460E700C854E850B4628880AAA3E
:10208000098901F061F9002801D0472032E708A84A
:10209000007BA87000202DE7626C75656E72672169
:1020A000A400002033070000012A0000FFB5002033
:1020B00099B0239A0B9012900546149006461590FD
:1020C0001C46DB480B460068DA49229F4118039101
:1020D0000021089109915188069111880A913D21AA
:1020E00049014018007BC00706D00FA9184601F02F
:1020F0000DFA00280AD102E047201DB0F0BD10AA59
:102100000F991B9801F01AFA002801D06020F4E71B
:102110001998002803D0600701D5012000E00020B5
:102120001390A007800F1C90109817902030C07853
:10213000012840D11798C04B01899942F9D11798CD
:10214000069904680A98228C4118914233D8204697
:10215000203016908078012816D0E08B04901798D4
:10216000806900788006800F7ED0039840301890F8
:10217000007A800778D51C980028F5D0AE4F0F99CB
:10218000FF372031206814E0BA4214D3B942DDD8B9
:102190000497E4E70389A84A934203D12322125CFF
:1021A000012A08D0BB4203D12322125C012A03D0AA
:1021B00000688842EED134E105900028FBD09C48AD
:1021C0000921026809025118C96E0027009162E0D6
:1021D000780100990390085A01055AD019990029ED
:1021E00001D0884255D105997A008B69511C595C00
:1021F0009A5C0902891889B20D91890749D0022297
:10220000059901F0AAF9002804D01998002840D0B7
:10221000652072E7002008A9C8551C98C00718D08F
:10222000179880690078C00613D50D98C00710D0A4
:102230000120C8550543009A039880184088159AD4
:10224000904206D91590009A0398105A0005000D87
:1022500014901C9880071CD5179880690078800618
:1022600017D50D98800700E083E012D50220CA5DE3
:1022700005430243CA5500990398401840881599B0
:10228000884206D9159000990398085A0005000D58
:1022900014907F1CFFB266480068A030037BBB42ED
:1022A00096D8002D65D01898007A00065FD4604853
:1022B0000168092000020818C16E00201BE04201DD
:1022C0008E5A360515D0AE070BD556183669B707A6
:1022D0000DD408AF3F5CBF0703D5360701D54620B4
:1022E0000BE7EE0705D05218127CD20701D043202D
:1022F00003E7401CC0B28342E1D81598C01E86B2E5
:102300000498864200D90646A8070FD5202200204F
:10231000149901F04BF9129000287DD0F01C82B284
:102320000021129801F064F9002811D1E80720D0AB
:1023300020220020149901F039F90B90002807D0D1
:10234000F01C82B200210B9801F052F9002810D045
:10235000802000F09FFD1298002802D0002101F09B
:102360004FF90B98002802D0002101F049F96420B0
:10237000C3E6A1690A98069A08182499FFF7D6F9C6
:1023800016988078012801D10498E083002D46D06A
:10239000274B0920196800020818C16E002008AAFE
:1023A0000CE04301CF5A3F0506D05F18BC463B699D
:1023B000175C3B4367463B61401CC0B21C4B1B682B
:1023C000A0331B7B8342ECD8A8070DD51298009050
:1023D000F01C82B221461C310220A36901F02EF9C3
:1023E0000220129901F049F9E80718D00B980090E3
:1023F000F61C2146B2B21C310120A36901F01EF97E
:102400001398002805D00B988021C07C08430B99B5
:10241000C87401200B9900E005E001F02EF90020BE
:102420006BE6422069E6802000F034FD9FE7000063
:10243000A4000020640700000328000030B50C4A07
:10244000002113680B4A1268A032147B0AE07C2238
:102450004A43DD6F0832AA5A002A01D0462030BD17
:10246000491CC9B28C42F2D81876002030BD000059
:10247000A8000020A40000200020704770B5054689
:1024800001F022F9002801D0462407E00448002486
:1024900000680C2229460C30FFF748F9204670BD31
:1024A000A8000020F8B596B0050017001E001C9883
:1024B000049103A92B22885400200A9002950E97BC
:1024C00000960EE0252912D00498029A90470490B5
:1024D000002800D1D2E00A98401C0A900E98401CB7
:1024E0000E900E9801780029ECD10A98C8E00020DF
:1024F00007900890099002260821019101240421E7
:102500000E9D00E020436D1C2A78202AFAD0232A51
:102510000AD02B2A04D02D2A04D0302A08D00AE071
:102520003043F0E70843EEE7020008201043EAE7F3
:1025300002001020FAE72A2A0ED1009A17683A689A
:102540003F1D009B1F600C92002A03D553420C9341
:10255000014308006D1C14E000210C91004A0BE0BF
:10256000CBCCCC0C0C9B934205DA9F00FB185B0094
:10257000591830390C916D1C29780B00303B0A2B0F
:10258000F0D329782E2903D00021C9430B9127E0ED
:102590006D1C29782A2908D1009909680A68091D43
:1025A000009B19600B926D1C1AE02D2902D12D237E
:1025B0006D1C00E0002300210B910CE0002B09D1E1
:1025C0000B9ABC4FBA4205DA9700BA18520051185C
:1025D00030390B916D1C29780A00303A0A2AEDD364
:1025E00003A908852F783900B3A001F093F80028DB
:1025F00001D038006D1C03AF2A217854785C68281C
:1026000005D12878682802D1622078546D1C10A862
:1026100006902A78681C0E90252A15D0582A52D088
:10262000632A00D1BCE0642A00D17FE0692A00D18E
:102630007CE06F2A47D0702A3AD0732A08D0752AD6
:1026400041D0782A3FD0B5E0079410A90A70BAE0CB
:10265000009800680468001D009908600594002C2B
:1026600013D12B20385C00280CD00024E44300BF99
:1026700093A001F059F8201A00D1A4E00020C04333
:1026800017B0F0BD95A005909DE00B9D002D03D5E2
:10269000200001F06DF809E02A000021200001F07F
:1026A0006FF8002801D0001B00E0280008908AE0A5
:1026B000009800680168001D009A1060039110A83E
:1026C0000590782168E0785C622803D0682809D0FA
:1026D0006C280FE0009801680868091D009B1960CC
:1026E000C0B20DE0009801680868091D009B1960E0
:1026F00080B205E0009801680868091D009B196018
:102700000390388D0199C0B2084240D00398002848
:102710003DD020201043782839D1079810A93023C4
:102720000B54401C431C07930A5430E0785C622829
:1027300003D0682809D06C280FE000980168086869
:10274000091D009B196040B20DE0009801680868FF
:10275000091D009B196000B205E000980168086837
:10276000091D009B19600390002802D507982D21B0
:1027700009E0388D304202D007982B2103E0C007D2
:1027800005D50798202110AB1954401C079010A8BC
:10279000079940180590110003A800F0A0F812E076
:1027A0000794009800680168001D009A106010A846
:1027B000017008E00794252010A90870100002D0CD
:1027C000079610A842700C980799401A0999401A68
:1027D0000899401A0F902820385C400713D4202015
:1027E000694608710F9800280DDD0F9C029D01239A
:1027F00001AA03A9280000F0FAF8002800D03DE75C
:10280000641EF4D10295079D10AC002D0ED0029EDF
:10281000227803A9300000F0D9F8002802D4641C03
:102820006D1EF5D10296002800D027E730206946BA
:102830000871099C002C0CDD029D012301AA03A94B
:10284000280000F0D4F8002800D017E7641EF4D167
:102850000295059C089D002D0ED0029E227803A9AA
:10286000300000F0B3F8002802D4641C6D1EF5D1CE
:102870000296002800D001E72820385C400700D4E9
:102880002FE62020694608710F98002800DC28E612
:102890000F9C029D0E9F009E012301AA03A9280000
:1028A00000F0A5F8002800D0E8E6641E00D105E697
:1028B000F2E70000CBCCCC0C686C747A4C000000C2
:1028C0007072696E74665F733A206261642025736A
:1028D00020617267756D656E740000000000F0B5D0
:1028E00083B00A00C4686F2901D1082506E02021C1
:1028F0001143782901D00A2500E010251827016826
:102900000E00642A01D0692A03D1002901D5714241
:102910000E00002E0CD1016A002909D1082D31D1F9
:102920002821415C09072DD517273021E17529E0C1
:102930000290684602707F1E01973000290000F067
:1029400021FA3031C8B23A2803DB684600785138A2
:102950000918E1553000290000F014FA060004D0EF
:1029600002988068E1198842E5D30298082D09D1C0
:102970002821415C090705D5E15D302902D07F1E81
:102980003021E1551821C91B4161E2198260026AB8
:10299000914206DA511A8161018D0B4A0A40028583
:1029A00010E0002A0ED52822825C14231340102B3D
:1029B00008D1426A0369D21A8369D21A511A0129CD
:1029C00000DB816103B0F0BDEFFF000010B5030034
:1029D0000C001100606898476060002804D0E0692E
:1029E000401CE061002010BD0020C04310BDF8B5C0
:1029F0000024002B11D007000E0014001D002178C8
:102A00007068B8477060002809D0F069401CF06118
:102A10000020641C6D1EF2D104002000F2BD0020D5
:102A2000C043F9E7F0B5144A144B1268D3181A6C76
:102A3000154608321F2901D93020F0BD00249E6BB5
:102A40001F6C365D3E55641CE4B2082CF7D300249D
:102A500005E00678641C1670401CE4B2521C8C42DF
:102A6000F7D3186C891D4170986B9D63186480338F
:102A7000186A45800020F0BDA4000020580800001E
:102A8000F0B5054600200F46079E059C174309D068
:102A9000202905D30127BF03BA4201D8914201D9A9
:102AA0004220F0BD194621430AD09C42F8D309497F
:102AB0008C4203D00849A41F8C42F1D2062BEFD3DD
:102AC000002D03D0022D01D0032DE9D1032EE7D82C
:102AD000F0BD0000FFFF00007B0C0000F0B58DB0E2
:102AE0000C4616A9E0C90021089109910A910B91A1
:102AF0001599049105A9E0C112A962C90093019139
:102B000013460146039602952246012000F044FE3A
:102B10000DB0F0BD074A914202DC5242914200DA08
:102B20001146FF22993251430A1251180A145118C2
:102B300008187047FFFF4F001FB56A463A30107300
:102B40006846029100F0E2FE002800D0012004B0A7
:102B500010BD704770B500F013FF040007D074205B
:102B6000005DC0070AD0207B800707D101E040202C
:102B700070BDA07A002803D0F12801D0462070BD96
:102B80001A4E3068807EC04380072BD020892022D7
:102B90000105090D002000F009FD050024D00220E8
:102BA000E880A8680B2101733068817DC37D4A08E5
:102BB0001143CA07417B007BD20FC007C00F00F052
:102BC00005FF0146306880300173A86841732146D3
:102BD000284600F007FF0028D1D1217B01221143B4
:102BE000217370BD382070BD642070BDA800002026
:102BF00070B5144E1D22316892018D182C681DE0AD
:102C0000017B227B914218D12146284600F006FF25
:102C100028462146083000F036F9207B3A2803D2B6
:102C200020352878401E287072B63068DF22403088
:102C3000C1791140C17162B670BD2468AC42DFD168
:102C400070BD0000A400002010B500F0F7FE10BD1C
:102C500010B500F0FAFE10BD10B500F0FBFE10BD7F
:102C600070B586B00D46144606466946881C0A9A19
:102C700000F020FF002805D16B4622462946304649
:102C800000F02CFF06B070BD10B586B00B460446B0
:102C90006946881C00F00EFF002803D169462046D3
:102CA00000F072FF06B010BD10B500F0BDFF10BD02
:102CB00038B56D46049C2A806B8023466A4600F036
:102CC000BAFF38BD10B507491D22096892018C185A
:102CD000A169401A0002000A00F0B5FF61690818F6
:102CE00010BD0000A40000201206130A1A43130CA2
:102CF0001A4300BF094205D0830707D00270401C69
:102D0000491EF9D1704700000022FFE71300103977
:102D100006D330B41400150010393CC0FCD230BCCE
:102D2000490700D30CC000D504C0890002D302803B
:102D3000801C002900D5027070477047A446521EBF
:102D400008D303780C78401C491CA342F7D0181B09
:102D50006446704700206446704700B50005000DCA
:102D600000F00EFE002806D0017B0A07920F022A0F
:102D700003D0462000BD402000BD0C22114301734A
:102D8000002000BD0022030A8B420BD203098B42B4
:102D900019D243088B422ED2411A00D20146524129
:102DA00010467047FF2209023FD012068B4205D31E
:102DB000121209028B4201D31212090203098B423B
:102DC00019D300E0090AC3098B4201D3CB01C01A11
:102DD000524183098B4201D38B01C01A52414309EE
:102DE0008B4201D34B01C01A524103098B4201D3DC
:102DF0000B01C01A5241C3088B4201D3CB00C01A49
:102E0000524183088B4201D38B00C01A52414308C0
:102E10008B4201D34B00C01A5241884200D3401A62
:102E20005241CFD201461046704708B500F014FF5A
:102E300008BD002070477047044A092312681B022E
:102E4000D218526E4000801841707047A4000020D4
:102E500070B505460024204600F000FF002801D090
:102E6000462404E0012D02D1012000F017FF204686
:102E700070BD4220704700230360436041720272BC
:102E8000C37283727047086042684A60426811608A
:102E90004160704704490A683D21490151180A7B85
:102EA00002430A7370470000A4000020FFB58FB0F2
:102EB00014460E78102205A8891CFEF71BFC4F480B
:102EC0004F490068451800F0EBFE00281ED1002C89
:102ED00057D0012E09D16846808A4A49884204D1D8
:102EE0002846A968083081424BD12846103029690C
:102EF0000390814209D00AA9284600F0EDFE6846F9
:102F0000018D601E0D90814202D2482013B0F0BDA9
:102F1000284608300CA9049000F0DEFE6846008EBA
:102F2000002814D0EF680AA93846183000F0D4FE03
:102F3000384620300CA900F0CFFE6846398D008D50
:102F400009186846008E401C081887B200E0012767
:102F500001200004C01BA04201D26120D6E72C69E9
:102F6000286801901298012802D0022803D008E0B6
:102F70000520C00200E024486085012E03D0022E07
:102F800005D04220C2E720460830022202E0204657
:102F90000830102205A9FEF7C9FB20463146203033
:102FA000064601730F98214607802785039800F095
:102FB00035FD21460498FFF766FF27461837E7617D
:102FC0006662A76126620D9884B20BE028460199DB
:102FD00000F024FD38460199FFF755FF2868641E6C
:102FE000A4B20190002CF1D10F9801880D98081817
:102FF00082B2002000F07AFE002087E7A4000020C3
:10300000640700000118000001280000F3B5A5B016
:1030100008881A9088780C4611901022091D13A870
:10302000FEF768FBA08A1090A17D68460172E07DE2
:103030000F90207E2090677EA07E1F900020064685
:103040000146129020A801810F20BB4C2390BB4960
:1030500020684018199000F023FE00280BD10121B0
:103060001098490288425FD821A91A9800F04EFAB8
:10307000002802D0602027B0F0BD2198179000F002
:1030800059FE1A9988420CD102A801901698009016
:1030900013AD0ECD119800F055FE002801D063202D
:1030A000E9E76846017A8806800F05D00120129072
:1030B0002068A030007B4600C80703D01298401C4F
:1030C000B61C1290080603D51298401CB61C12902C
:1030D00017980DA918301D9000F0FEFD6846129C4F
:1030E000808EA41CA04237D317980EA920300190DF
:1030F00000F0F2FD6846018F00290DD01798179A4D
:103100006B46406A9B8E128D5918808B5118081A95
:10311000A04201D26120AEE7179884691198256812
:10312000012803D0022803D04220A4E7052000E0B4
:103130001320E0832A4639460F9800F03BFE4228D0
:1031400099D0199FE28B4037788B398B411A1098B0
:1031500010188019814201DA48208CE70EA90198E5
:1031600000F0BAFD6846008F0028179802D0406A28
:10317000808B00E0008D2599401C08802598012156
:103180000088A083259802220088401CA8836C48F0
:103190002081204620301790C170002181708171FC
:1031A0001998398B406D40186946A061097A017001
:1031B000A06929461C31401CFEF7B8FA1198012875
:1031C000A0697DD0102213A9C01CFEF7AFFA2846D3
:1031D000102213A90830FEF7A9FA388B1330388370
:1031E0002E4620361198F0701098E8831F98B07022
:1031F00010982084109828841998398B406D4018B5
:10320000A8610021109AFEF797FA398B10980818D8
:10321000388317990120087117990020487130717F
:103220006846007A810701D5012131710107022723
:10323000002902DA317939433171410703D53179F7
:10324000042211433171400603D530790821084327
:1032500030710F9870712098B07121461D9800F060
:10326000DDFB21460198FFF70EFE29461D9800F070
:10327000D5FB29460198FFF706FE1298002841D099
:1032800068461A998181A18BC181078447840124F2
:1032900008A8047122A80A9008A88473239941738E
:1032A0000F993820014008A801730721C173002538
:1032B00005746846007AC00708D02248694600E0D5
:1032C0002BE0088203A924A800F080FD6846007A5C
:1032D0008006800F07D01B486946401E088203A95C
:1032E00024A800F073FD6846007A00060AD529215B
:1032F00009026846018208A84473057303A924A83B
:1033000000F064FD259801881298401C081882B2CC
:10331000002000F0EBFC0020ADE6022213A9C01C47
:10332000FEF704FA2846022213A90830FEF7FEF938
:10333000388B401D53E70000A40000206407000004
:103340000328000003290000F0B5074617480E4681
:1033500000683D2149014018007B85B01D46144698
:10336000C00706D003A9384600F0D0F800280AD1DB
:1033700002E0472005B0F0BD04AA3046039900F0F2
:10338000DDF8002801D06020F4E7049922886088E5
:103390000968002A00D0088C32466E4631C60323E5
:1033A00039460020FEF782FEE4E70000A40000207A
:1033B000F0B5454C13252668ED017019806900278A
:1033C000416B4248AE368DB0814242D006216846FC
:1033D00000F0ACFD69464879C02108436946487150
:1033E0002068062240198069243000F0AFFD0746AE
:1033F000102105A800F09AFD20681022401980696C
:1034000005A9001D00F0A2FD0743102109A800F046
:103410008DFD206810224019806909A9143000F040
:1034200095FD0146394313D1206829494019806927
:10343000264F401880088100264808183946049015
:1034400000F0BFFD04980068B84201D1002700E0F9
:10345000FB27226850198069A6322430019006208B
:1034600001460090002000F0C3FD002802D1206832
:10347000A6300190701D009A0199FEF757F9226855
:10348000102631460020803200F0B2FD002807D01F
:1034900020683246411989698030091DFEF746F9D6
:1034A000226831460020903200F0A2FD002807D0AB
:1034B000206832464119896990301431FEF736F997
:1034C00038460DB0F0BD0000A4000020AAAAAAAAA8
:1034D0003400FCEF0000041010B50349062209680F
:1034E000B331FEF723F910BDA40000200A07920FA4
:1034F00001D0422070478A07FBD002788907890FE4
:103500000A430270002070474220704710B5094AF4
:10351000094B1268D2189368083206E01C8D844269
:1035200002D100200B6010BD1B689342F6D14120F0
:1035300010BD0000A40000206407000010B50B6A55
:10354000203106E09C8B844202D10020136010BD24
:103550001B688B42F6D1412010BDF8B516460D46CA
:103560000746002400F00CFA002806D0324629460F
:10357000384600F04CFD044604E020356879002808
:1035800002D00E242046F8BD2879C10701D1012EB2
:1035900009D0810701D4022E03D04007F2D4042EB3
:1035A000F0D10324EEE70224ECE77047F8B50D46AE
:1035B0000E49092309681B02C9184E6E1F21521EAD
:1035C0000A431D3297B20024394600F071FD0028ED
:1035D0000AD13946B06800F093FD0446083400680B
:1035E000A0600020E074A5802046F8BDA400002063
:1035F00010B5121D806892B200F09AFD10BD7047A0
:10360000F8B50E460C4909220968120289180838D3
:1036100007464C6E00F0C2FD05463946A06800F032
:10362000C7FD72B67100605C401B60542079401980
:10363000207162B6F8BD0000A4000020F8B5069C19
:103640001F4615460646002C13D0A06802220D30F6
:10365000FEF76CF8E81E82B23B460721204600F0D8
:10366000C2FDE580A068012E05D01D210173002058
:10367000F8BD4720F8BD1B21F8E77CB50C46054690
:103680006A4601A900F0B8FD002801D041207CBDA8
:103690006846E1888088814200D9E08000980088EF
:1036A000A080204600F0D0FD0098012D07D00169D0
:1036B0000822114302229143016100207CBD01696F
:1036C00049084900F8E7704730B5104A00201368F0
:1036D0000F4A01461268A032147B13E07C22DD6F92
:1036E0004A43AA187425AD5CED07957A06D0B02D33
:1036F00006D3EAB2F02A03D8012030BDA02DF8D2BB
:10370000491CC9B28C42E9D830BD0000A800002095
:10371000A4000020C9B202788A4203D0401C002ACB
:10372000F9D100207047704780B5002801D100BF53
:1037300007A006490B68002B03D0222200219847DE
:1037400001E000F097FD222002BD0000580C00208F
:10375000636F6E73747261696E742068616E646CFD
:1037600065723A20626164206D65737361676500FC
:10377000431C0178401C0942FBD1C01A70477047B6
:10378000C9B2521E05D30378401C8B42F9D1401EAA
:103790007047002070477047FFB595B00E4605464C
:1037A00020210CA8FFF7B0FA00200490564800270B
:1037B0000468681EAE34042802D8A078C0070BD075
:1037C000062D02D0002D0AD002E0A078800703D594
:1037D000E0784006800E0AD0462019B0F0BDA078EF
:1037E0008007F9D0E0784006800EF5D00FE0002D7C
:1037F0000DD0012D20D0022D28D0062D33D0032D41
:1038000033D0042D37D0002E3BD04220E5E70020F6
:1038100000F036FD0028E0D1E078800708D50420CC
:10382000694608736846FFF7E3F9022000F03AFEA4
:103830000120E0700020D0E7012EE6D0042EE4D075
:103840001F980028E1D10627042008E0012EDCD0D3
:10385000042EDAD01F980028D7D105270220E07067
:103860000120049010E040200DE0022E01D0032E34
:10387000CBD1082007E0012E01D0042EC5D11020A5
:1038800001E004272020E07000230BAA19461E98AF
:1038900000F030FE030002D000F01CFF32E01022E6
:1038A000002107A8FDF748FF07A86C46279B269A2A
:1038B0001F990FC42B463046189A179900F014FF31
:1038C0000300E9D108A8017BC170259803AC049BD3
:1038D000289A29990FC422AB07CB0292009101903C
:1038E00039460CA8209B219A00F044FF0300D3D155
:1038F00007A800F0C1FF0300CED1012000F0C0FCFA
:103900000300C9D1184668E7A4000020F8B51B4D94
:1039100006461D21286889014418317B481E3E282F
:1039200001D34220F8BD2046A2680830824205D06B
:103930003A2905D22021095D072901D36420F8BD69
:10394000694601F03FF8102231460098FDF7EEFE7F
:1039500020460099FFF797FA0098007B3A2803D297
:1039600020342078401C207072B62868DF22403056
:10397000C1791140C17162B60020F8BDA4000020D9
:1039800070B500281BD003050F48002100680D4AC0
:103990001B0DA0301268047B0FE008467C267043A4
:1039A000D56F0830285A0005000D984203D17C22BB
:1039B0005143681870BD491CC9B28C42EDD8002033
:1039C00070BD0000A8000020A4000020C007C907A7
:1039D000C00F490F0843D107090F0843D907C90E83
:1039E0000843704770B50D4606460146062000F0B4
:1039F000F6FF040005D000213046FFF701FE204607
:103A000070BD288901F012F802460021024B0846D9
:103A100001F02EF8F3E700003075000000B50B460A
:103A200001F046F8002808D003CB083B086003CB20
:103A300041600020083B1860586000BD10B51C466E
:103A40001346224601F040F810BD10B501F06CF8A5
:103A500010BD7047F7B517460646462501F090F8A9
:103A6000040022D0202231460020FFF79FFD0600EF
:103A70001AD001983B46401C82B23146204601F0E4
:103A80008BF8050004D000213046FFF7B9FD0CE0AB
:103A9000A781012120694903084320610448A061EE
:103AA000304600F0D1FB00E064252846FEBD000052
:103AB0007F39051070B51C4613460D46012C03D006
:103AC000022C03D0422070BD022200E010221946D1
:103AD000FDF72CFE2C70002070BD7047FFB589B03B
:103AE000074646261D781022991C05A8FDF702FE00
:103AF000012D04D0022D02D042200DB0F0BD384679
:103B000001F03EF8040037D0202239460020FFF7AC
:103B10004DFD07002FD01948694608800120049008
:103B2000394620460B9B0A9A01F05EF8060004D045
:103B300000213846FFF764FD1EE00B98A081A068C5
:103B4000012D0FD0102205A9FDF7F0FD25710121EF
:103B500020694903084320610948A061384600F004
:103B600073FB09E010220749FDF7E0FDA06802227F
:103B700005A90C30E8E764263046BEE703280000BC
:103B800075390510EC380510F3B58BB00D78462665
:103B9000102206A8891CFDF7ADFD012D04D0022DD1
:103BA00004D042200DB0F0BD022700E010270B9892
:103BB00000F0E6FF040030D0202200200B99FFF730
:103BC000F5FC0490002827D0052106A8C902009121
:103BD0000190134B012202972046049901F03FF80F
:103BE000060004D000210498FFF70AFD15E0A06844
:103BF000012D0FD0102206A9FDF798FD2571012196
:103C000020694903084320610648A061049800F038
:103C10001BFB02E00222EEE764263046C2E700000A
:103C2000FFFF00008939051010B51C4613462246D7
:103C300000F04AFF10BD38B5148852880092224621
:103C400001F050F838BD08B500216A461180694678
:103C500001F0B0F808BD70477047704770B50D4A65
:103C6000054613680C4A002012680146A032147BF6
:103C70000DE07C22DE6F4A43B218D67AF60704D0F4
:103C80001289AA4201D0012070BD491CC9B28C42E0
:103C9000EFD870BDA8000020A400002070470000ED
:103CA00010B50B480B49006844184034207AC0070F
:103CB00009D0002001F096F8217A890701D5002863
:103CC00003D0002010BD472010BD642010BD0000AF
:103CD000A400002064070000026800230B808242D9
:103CE00003D09BB212685B1CF8E7704730B50F4BEE
:103CF0000F4D1B6804465B1940331B7A412085B089
:103D00009B0710D56B469981DA8100201882042028
:103D1000588203AA04A96D4607C502231A46012149
:103D20002046FEF7C3F905B030BD0000A400002016
:103D30006407000002480068AE3000887047000049
:103D4000A40000200FB410B5079C01282DD16846AF
:103D500080891749884210D103A80FC801F060F884
:103D600000281DD101F07AF8FA281ED001281CD9AC
:103D70002078F3210840207017E00D49491C884243
:103D800008D0C91E884205D0491C884202D0C91CEF
:103D900088420AD103AC0FCC01F042F8002800D0D1
:103DA000632010BC08BC04B018470020F9E70000ED
:103DB000022A00002423184204D0C81F092803D86F
:103DC0002032D1710020704742207047F3B597B080
:103DD0000D8848880590081D1DC80DAE1DC68C8A2B
:103DE000CE8A087E1390C86920310190087800902F
:103DF0004878049088780390C87802900F79FFF78C
:103E00004FFF002817D10120400284425FD8B442FE
:103E10005DD8002F01D1B44259D114A92846FFF72B
:103E200075FB002806D115AA14990598FFF786FBA3
:103E3000002802D0602019B0F0BD149D11A92846B9
:103E40001830FFF749FF10A88088002810D02846B6
:103E500012A92030FFF740FF10A8838800892A8D1F
:103E60001818696A10188A8B904203D16120E2E722
:103E70004820E0E715982C4B02899A4227D123224B
:103E8000125C012A23D1006800681690139801285B
:103E90001FD16846808E29221202801A030000F08A
:103EA000F9FF0604180404070A18022C0FD110E0C9
:103EB000072C0CD10DE0042C09D3E00707D1012F0A
:103EC00007D1A64203D3042E01D3F00701D042202C
:103ED000B1E702980B90039B049A0A930992009809
:103EE000019A0C9708900696059407920DA81DC894
:103EF000019002A81CC013980B4600902A46169900
:103F0000179800F0D5FF002895D168460649808EA5
:103F1000FF31884205D01798018800200A46FFF734
:103F2000E5FE002087E7000003280000F0B50E46FC
:103F30000746002407E03D1901F066F82870000AE2
:103F40006870A41CE4B2B442F5D3F0BDF7B51646D0
:103F500000241CE0009811490019401881080198BC
:103F60008900001942780578120215438278C078DA
:103F70001204000602430948154340420F1829461F
:103F8000384600F01EF83868854204D1241DB4423A
:103F9000E0D30020FEBDFB20FEBD00000000FCEFD2
:103FA00010490968104A91420AD110493F220A81FA
:103FB0004006000C886111200880088AC007FCD5E3
:103FC0007047084A1268084B9A420AD1074A3F23B1
:103FD000138180089061116433201080108AC0071B
:103FE000FCD5704714000020CCBCECFC0000104055
:103FF00030B504460120002306E0D55CA54201D07F
:10400000002030BD5B1CDBB28B42F6D330BD70B5F7
:1040100015460C46064601F014F820346179012D4E
:1040200009D00A0702D54207920F0FD0CA0625D53C
:10403000020709D522E0CA0702D04207920F05D035
:104040008A0705D5020703D4082070BD052070BD7E
:10405000490707D5C00709D0E179304601F008F8D3
:104060005F2805D02079C00704D005E00F2070BD7F
:104070000C2070BD022070BD002070BD890607D5E0
:10408000C007F3D0E179304600F0F2FF5F28EFD0AF
:104090002079810701D4022D07D0410701D4042DD6
:1040A00003D00007E8D4082DE6D1032070BD00003E
:1040B00070B5124A092312681B02D2180123526EEE
:1040C00083435B00491E41249B184909491CC9B21E
:1040D00072B615798D420ED31E785B78AD19EDB2AC
:1040E0005B18AB4207D84000135C00245B181354E4
:1040F0001079401A107162B6204670BDA4000020ED
:10410000491EC904090E72B602788A420CD9511AA6
:10411000C9B24A1ED3B20370426888001058990091
:1041200052580021116000E0002062B67047000084
:10413000F7B5074618480921006809024018446E7F
:1041400041201646002F11D0384600F0A1FF054649
:10415000B0420CD2301A81B20198FFF7A9FF0028B3
:1041600004D132463946A06800F09CFFFEBD3246BD
:104170003946A06800F096FF6D1E761E6909720927
:10418000891A72B6019A5200A35C5B1AA354227971
:104190005118217162B6FEBDA40000200021002844
:1041A00004D0491C0068C9B20028FAD108467047FB
:1041B000002917D072B60278002A03D04368920013
:1041C0009A58116010B400238B800278521CD2B22E
:1041D000027044689200A15009680029F4D162B6C7
:1041E00010BC7047704710B51C4613460A468068DD
:1041F000214600F09EFF10BDF0B5944600220A80D3
:104200006346104C1A60092322681B028646D218A6
:104210004120D26E00230FE05D01AD182F69764674
:10422000374207D06F880E88B74203D90F806046A7
:10423000056000205B1CDBB22568A0352D7B9D420C
:10424000EAD8F0BDA400002010B5044601460420C1
:1042500000F0C5FB002808D0044805490068401854
:1042600021463C3000F099FF432010BDA4000020FF
:104270006407000080B5012000F0A6FF01BD00002A
:10428000F0B5824D04468249286885B040180190F7
:1042900000F0A4FF002C7DD008280DD34220074653
:1042A00003907C480024029000F0BCFF009008209E
:1042B00004900098082802D30C2005B0F0BD00F04F
:1042C000CBFF01F00DF800987349800142181321CB
:1042D0002868C9014018818801988030036BC0317B
:1042E0005980016B09800021C94301820021456A80
:1042F000CB1DEF54856AEF54C56AEF54056AEF543D
:10430000066B039DF554039B3F0A1B0A0393466A01
:10431000029D0B1DF554866AF554C66AF554066A6B
:10432000F554066BF554029B491C1B0AC9B2029353
:104330000329DCD3009911234907090E456A0B4371
:10434000AB72856AAB72C56AAB72019B1D7E02239C
:10435000022D0BD1456AAE7A1E43AE72856AAE7AE3
:104360001E43AE72C56AAE7A1E43AE72466A01271C
:10437000F772866AF772C66AF7721943036B99720D
:10438000036A9972036B0321D972016ACF7200210B
:104390000B4600E04EE0535455186B71491CC9B2EE
:1043A0000529F6D38025957201992031CE7BD672EE
:1043B000868C1682068E5682384E9661384ED661AD
:1043C0003E462027BE54D375019A127E002A04D09F
:1043D000012A04D0062A12D110E018240FE003228B
:1043E000836828245202934209D1C368934206D1BC
:1043F00000220492FF225632028200E01024497B00
:10440000002904D0012904D0022906D103E0C021EB
:1044100002E02C4301E040210C430499C2680902E8
:10442000806853184218E108C900491C009800F040
:10443000BFFF42E772B608280CD209212A68090298
:1044400051188B6E60214143891C5C5C6407640FCA
:10445000012C01D062B616E0F024A45C002C04D03C
:104460001126FF24B6019219947500225A543F2157
:104470002A68490151180B7F0122824093430B7730
:1044800062B600F0EDFF002017E70000A400002056
:10449000580800008100B000CC000020D6BE898EF4
:1044A0005555550010B50446C1061148006803D59E
:1044B0001522BF210C4006E0392149014118897BB2
:1044C000C90710D012222107890E08180121C9023C
:1044D0004018C06C0023214601F000F8010004D010
:1044E000204601F059F8002010BD072010BD000043
:1044F000A4000020FFB5074673480D4604688FB03E
:10450000AE34A1781E46C80602D5E078C0067DD438
:10451000880607D5E0788006800F03D0022F01D0EF
:10452000002E73D08806800F06D0022F08D0032FEC
:1045300006D0002E6AD003E0012F01D0002FF8D161
:10454000880603D4002D01D0012D5FD1002E06D1A5
:1045500030200140384601F033F8002856D1119937
:1045600000200870A17889068A0F7DD00CA908A8C0
:1045700001F048F807900DA90AA801F063F8069029
:104580000798002802D00698002801D1012E58D1A2
:10459000022F04A807D001F075F8002E3CD0079830
:1045A000002803D012E001F0B1F8F6E7464F474883
:1045B0003B68062208A91818FDF7C8F800283868D3
:1045C00008D04030417E49084900417606980028CD
:1045D00005D014E04030417E01221143F5E73A4F07
:1045E0003A483B6806220AA91818FDF7AFF80028D8
:1045F00038680CD04030417EFD221140417607984A
:10460000002809D00698002806D01AE043E0403080
:10461000417E02221143F1E72B48062203682B4812
:1046200004A91818FDF782F8052069460873002EC2
:1046300002D10846FEF7DCFA25480290684601F0F0
:104640008CF8A078800611D511980321017020798B
:10465000C10603D5002D01D0022D1CD1800605D541
:10466000012D03D0032D00E018E014D1A078C0067E
:1046700027D51199012008702079C10601D5002D98
:1046800009D1810601D5012D05D1000619D5002DCE
:1046900017D0012D15D0422013B0F0BD012F01D14C
:1046A000002E03D0890F314309D00AE006480622C4
:1046B00003680648611D1818FDF738F801201199A4
:1046C00008700020E8E70000A40000203307000085
:1046D000A0BB0D00034881220068A030417C11403E
:1046E00041747047A4000020F8B5204B204D1B6892
:1046F00001265B19069CB6030093002814D00428F9
:1047000012D0022813D0032811D006252B460128E9
:1047100010D00F4617430DD0914203D8202901D362
:10472000B2420AD94220F8BD30256023EFE7A02528
:10473000F023ECE72580638001E021806280207116
:104740000798A071089820720998002805D00146A2
:10475000204606220930FCF7E9FF07206071009827
:104760002030807B60710020F8BD0000A400002094
:1047700058080000F8B505463E481E460068079FE9
:104780000024AE301346002905D002222A700122EF
:104790006A70A9700324002E10D080788006800FE4
:1047A0000CD13019401C1F2854D82E55641C2819D0
:1047B00032461946FCF7BAFFA019C4B2002F0DD03B
:1047C0003819401C1F2845D82F55641CE4B22819FD
:1047D0003A460699FCF7AAFFE019C4B26846008C75
:1047E00000281BD06846808C002817D0601D1F2829
:1047F00030D805202855641CE0B212212954401CF1
:10480000C4B228190646022208A9FCF78FFFB01C83
:10481000022209A9FCF78AFF241DE4B20C980028A3
:1048200012D0E01C1F2815D802202855641CE0B2C5
:104830000A212954401CC4B2684600F09FFF684614
:1048400000782855641CE4B20B9800280CD000199D
:104850001F2801D94220F8BD28190B9A0A99FCF7A4
:1048600065FF0B982018C4B22146284600F094FF3B
:10487000F8BD0000A4000020F8B5504F064650498E
:104880003868451800F0AAFC082812D100F0C0FFD3
:10489000082803D02320405D02280AD03868344617
:1048A0002030807D093400070028307903DB03289D
:1048B00003D00C20F8BD012804D0204600F0CCFF26
:1048C000002806D0327AF0790023214600F0D0FF8C
:1048D0000BE00023F0791A46194600F0C9FF1122B7
:1048E0003968FF209201891888752C468034216A26
:1048F000288F48803079012821D030880002A060BC
:1049000070880002E0600020C043208230790228D5
:104910001CD003281CD004281CD001281AD005283C
:1049200000D3FF20287628462030B1794173717971
:104930000346817327200022CE070FD011E0032009
:104940004002A060E060FF205630DEE70620E9E785
:104950000220E7E701200021B171E3E74908401C8C
:10496000C0B2521CD2B2022AE6D3052902D1801C61
:10497000C0B20321272801D9C01EC0B2666A228DA9
:104980003280A66AA28D3280E66AA28C3280666A84
:10499000AA8E7280A66AAA8E7280AA8EE56A6A8042
:1049A000D873032902D0012904D005E0A16AA08CA4
:1049B000088001E0606A00800020F8BDA4000020AB
:1049C0005808000002680A60126802600A681268EB
:1049D00050600A680020106009684860704710B590
:1049E0000C460146042805D0052903D0062901D02C
:1049F000502010BDA068A2790272E088020AA06867
:104A00004272A0688172A068090AC172E088001D24
:104A1000E08002202073204601F028F80028E8D02A
:104A2000E088001FE080412010BD000030B5024644
:104A30000D480068A030007B002A014612D00B4CC4
:104A4000130500201B0D22680AE07C244443D56F27
:104A500008342C5B2405240D9C4203D0401CC0B2BA
:104A60008142F2D830BD0000A4000020A800002040
:104A70007FB50024002902D0012902D002E00825D8
:104A800000E00025A9186A4611730293012809D095
:104A900000280AD11046FEF7ABF8684600F05DFE2C
:104AA000044602E01046FEF7A3F8204604B070BDAD
:104AB000026804E08A4201D10120704712688242F4
:104AC000F8D1002070470000FFB581B01F460646B0
:104AD000462500F055F8040020D020223146002061
:104AE000FEF764FD060018D0014600972046039BA0
:104AF000029A00F0EDFF050004D000213046FEF7D9
:104B00007FFD0BE00121206949030843206105482E
:104B1000A0613046FFF798FB00E06425284605B009
:104B2000F0BD00009D390510F8B50F460646462534
:104B300000F026F804001ED0202231460020FEF7A7
:104B400035FD060016D001463A46204600F0F3FF38
:104B5000050004D000213046FEF752FD0BE0012194
:104B600020694903084320610448A0613046FFF7EB
:104B70006BFB00E064252846F8BD00009339051062
:104B800000B500F0F5FF002805D0852201699201EB
:104B9000114200D0002000BD7FB50546684600895F
:104BA0000C4600281ED06946898988421AD8A06818
:104BB00004210173A068022202A90D30FCF7B6FDA2
:104BC000A068022203A90F30FCF7B0FD0520E080A9
:104BD000212128698901084328610520A873002044
:104BE00004B070BD4220FBE77FB5054668460089EA
:104BF0000C9E0C46002816D069468989884212D836
:104C0000A06808210173A068022202A90D30FCF7F8
:104C10008DFDA068022203A90F30FCF787FD012E4D
:104C200004D0022E0AD0422004B070BDA068022237
:104C300008A91130FCF77AFD072006E008AB102226
:104C400009212046FFF7CFFA1520E08021212869AD
:104C50008901084328610920A8730020E4E7FFB513
:104C600081B00646684680890C9F0C46002837D0E4
:104C70006946098A884233D87088C01FB8422FD34A
:104C8000FD1DAAB20021204600F090FF002802D0AE
:104C9000642005B0F0BDA06806210173A06802225F
:104CA00003A90D30FCF742FDA068022204A90F30D1
:104CB000FCF73CFDA06802220AA91130FCF736FD82
:104CC0003A460B2120460B9BFFF78DFAE580212108
:104CD00030698901084330610720B0730020D8E7AC
:104CE0004220D6E7FFB5314883B001681320C001E8
:104CF0000818008A46250C9F002853D10398FFF717
:104D00003FFF04004ED0202200200399FEF74EFC06
:104D1000060046D02548039902681320C0011018E8
:104D2000018240693A460699FCF700FD6088401F01
:104D300080B2B84200D338460699009101903146BE
:104D40002046059B049A00F038FF050004D000219E
:104D50003046FEF755FC25E0A068049900F066FF98
:104D6000A0680599801C00F061FFA0683946001D0D
:104D700000F05CFFA0680021801D00F057FF0B4889
:104D800001681320C0010818406960610121206991
:104D90004903084320610648A0613046FFF754FAF2
:104DA00000E06425284607B0F0BD0000A400002004
:104DB000A739051010B50A4A830B12688004526A9D
:104DC000800C140A60435A438009101800228A5E3E
:104DD000821A10464030C009C3019A1A0A8010BDD9
:104DE000A40000200D490922096812028918496EA1
:104DF00072B60122824350004218084B095C092018
:104E00001B6800021818406E527800798A4202D955
:104E1000511A401AC0B262B670470000A4000020C8
:104E20001FB582B00024FEF785FF6946FEF76EFBD2
:104E3000009A6846116A0089203209E023235B5CEE
:104E4000012B04D10B89834201D1641CE4B20968AF
:104E50009142F3D1204606B010BD000070B50C4859
:104E600013210068C90140181426C56A0024284689
:104E700000F0E0FEFC2805D0FE2807D0002803D073
:104E8000FA2070BD641CE4B2AD19F0E7204670BD95
:104E9000A400002030B47446641E2578641CAB4224
:104EA00000D21D46635D5B00E31830BC184700006C
:104EB000FFB55248524A006887B08218069210AA7D
:104EC000109B0126169F9288012B04D14D4B9A42CC
:104ED00001D1A030067B069D34464035688B2B8B74
:104EE0007C43C31A099820300390A34222DA482059
:104EF0000BB0F0BD2320405C012819D108896C4615
:104F0000208098420CD03F4C641EA04208D0641C04
:104F1000A04205D0641CA04202D0A41CA04207D12C
:104F2000384CFF3CA04201D0904201D16220DFE723
:104F3000096801E029231B0203988142DAD109980C
:104F40001B99846918982246FEF734FF4228CFD077
:104F50001C98012804D11598874201D24220C7E746
:104F60001598E083204620301C9905908170278495
:104F70000A98808B401CA0831098012814D02046EA
:104F8000102211A90830FCF7D1FB05991098C870C0
:104F90000698298B406D4018A061298B38467043D4
:104FA0000818288300250FE011A80FC808340FC483
:104FB000183CEAE72846A16978430818159A17991A
:104FC000FCF7B4FB6D1CEDB2B542F3D3059918980C
:104FD000487105991998087105991A988871099866
:104FE00021461830FEF71AFD21460398FDF74BFFC6
:104FF0000798A18B018000207AE70000A400002020
:10500000640700000229000000210B20000702684D
:1050100052070DD5026804239A43026002680823F0
:105020001A43026004E0491C052901DD0020704795
:1050300042689207F7D54168C907FCD0806880B202
:10504000704710B50024FEF79BFC00280ED00089A5
:10505000C10407D50124810401D5032402E04104E1
:1050600000D50524000401D408200443204610BDC7
:1050700010B50C46FEF784FC002807D0817A002981
:1050800004D0007FA04201D3002010BD5F2010BDDE
:105090000021002804D0491C0068C9B20028FAD1B8
:1050A0004801704730B400240B1E22D02034A4B233
:1050B00094421AD30A68002A35D072B60378002BBE
:1050C00003D044689B00E3581A600024948003785E
:1050D0005B1CDBB2037045689B00EA501268002A33
:1050E000F4D162B6002008601DE00B460968002973
:1050F000DCD1111B491EC9040A0E72B60178914217
:105100000CD9891AC9B24A1ED2B20270406889000D
:105110009200415882580020106000E0002162B6E1
:105120001960002902D030BC0020704730BC4720F5
:105130007047FFB504465009000681B01F46000EB7
:1051400006D0002C23D0401E24680006000EF8D1A3
:10515000D606F60E17E02020851BBD4200D33D4643
:10516000A0192A4608300299FCF7E0FA0298711952
:1051700040190290781B87B2A088884201D2A819F2
:10518000A08024680026002F04D0002CE3D1412009
:1051900005B0F0BD002005B0F0BD10B504460020FC
:1051A0000860206800280CD06068016008466160D3
:1051B00000F04AFDE17A4018E072A07A401CA0722B
:1051C00010BD2160F2E7000080B500BF00BF024AB9
:1051D00011001820ABBEFBE72600020070B5104896
:1051E00009240268FD20C0001018037D2402082055
:1051F00000211419A032157B0EE0DA0709D06022D5
:105200004A43A66E921CB25C5207520F012A00D18B
:1052100008465B08491CC9B28D42EED870BD00003B
:10522000A400002010B50B4800210368FD20C00039
:105230001818027D0820A0331B7B05E0D40700D19D
:1052400008465208491CC9B28B4201D90828F5D03A
:1052500010BD0000A4000020FEB51F481F490068D3
:105260004718694601A800F0F5FCBE6B7D6BFC6B2E
:105270003B6C72B6002001AA811C175C6F54175C4E
:105280007754175C6754175C401C5F540628F3DBA7
:10529000694609782A78BF20C9070240490E0A43A7
:1052A0002A70694609783278C9070240490E0A43D4
:1052B0003270694609782278C9070240490E0A43CC
:1052C00022701A78694602400878C007400E0243EF
:1052D0001A7062B60020FEBDA4000020580800002D
:1052E00030B53148314900684018416B037E0A7877
:1052F0001B07920992011B0F1A430A70C16B037EB0
:105300000A781B07920992011B0F1A430A70816BDE
:105310000A7892099201121D0A70016C0A789209AA
:105320009201121D0A700021024620320BE0836AAE
:10533000456B5C5C0B460833EC54846AC56B645C5B
:10534000491CEC5489B2137B8B4201D91F29EED33F
:10535000017E012907D0D9B2426B891D5170416B82
:105360000831816230BD0346C26B10330832816858
:105370008262446B0C22627000221546446B083531
:1053800061551970090A5B1C032A00D1C168521CBF
:10539000D2B2062AF1D3406B02785206520EC901EE
:1053A0000A43027030BD0000A4000020580800002D
:1053B000FFB5294E074689B0FD213068C900451860
:1053C000264905AB07AA06A86C4607910FC40CAB8B
:1053D0000BAA0121384600F055FC0090002838D176
:1053E0000C98686069466A6A898A78001152AA6ACC
:1053F00007991152EA6A0021115269462A6B098BFA
:10540000115209203268000212183C466023926E45
:105410005C430021631DD15432680A991218926EC0
:10542000A31CD154326800211218926EC94308336C
:10543000D152326800211018806E0F34015572B6B7
:10544000297D0120B8400843287562B6084600F05F
:1054500049FD00980DB0F0BDA400002070170000B9
:10546000F8B51B4E3188044609070820090F04438C
:10547000A1422CD1174D0021286881631121C90157
:1054800040180921C906806A0969471A642000F09A
:1054900091FD717AC90040182968896A4018381A44
:1054A00000020121000AC905884202D2002000F052
:1054B00091FD0949286832881207120FA24206D1CD
:1054C000826B8A4203D2826B521C8263F3E7F8BD7F
:1054D000C0000020A400002000710200FFB50446B7
:1054E00000262C4F83B09C460D46080616D572B692
:1054F00001AB6A466146204601F0AAF800280BD0AD
:1055000068468188009882789208920082700180B3
:105510006180012662B615E062B621E001AB6A4601
:105520006146204601F094F8002819D0680609D495
:105530006846818800988278920892008270018083
:10554000618001260098AA00817840238907890F8D
:105550001A40114381700599C170002E0ED115E0DB
:105560000020009072B6A8060FD401203968C0024E
:105570000818816B08221143816362B672B63868DD
:10558000F7224030C1791140C17162B6009807B06E
:10559000F0BD0000A40000200A46400608D5D078DF
:1055A0003A280AD2111D054B80001B581046184797
:1055B000907880088000801C887070475C0D051012
:1055C000FEB50F460646002400F022F90546FFF717
:1055D00005FE082D01D3082811D202A9684600F063
:1055E00039FB002F684606D04079400601D50221DC
:1055F00002E0032100E0017AB14200D041242046BC
:10560000FEBD000070B50D460446FFF7E7FD082813
:1056100001D31F2070BD09480949006840180022C5
:10562000416B931CC95CA154521C062AF8DB406BE9
:1056300000784006C00F2870002070BDA400002034
:1056400058080000F8B50C46054600F0E1F80828B7
:1056500001D31F20F8BD0A4E13273068FF01C0197F
:10566000806806222946801C01F028F83068C0199D
:10567000806800784006C00F20700020F8BD000050
:10568000A4000020F8B5204E04463568AE35FFF77B
:10569000BBFC2070000A6070FFF7B6FCA070000A27
:1056A000E070FFF7B1FCC2B28004830E22710021CA
:1056B00063710846275C401C7918C0B289B206287D
:1056C000F8D30029E3D02078FF280CD16078FF2898
:1056D00009D1A078FF2806D1E078FF2803D1FF2A5E
:1056E00001D1FF2BD3D00622691D2046FCF72EF8EE
:1056F0000028CCD03168062220467831FCF726F805
:105700000028C4D0F8BD0000A400002010B586B069
:10571000044601A800F0DCFFFFF776FC69468870BC
:10572000000A4870FFF770FC6946087088784021CD
:105730004006400E08436946887005AA01A800F09B
:10574000DBFF032205A92046FBF7F0FF0322694691
:10575000E01CFBF7EBFF06B010BD10B504460920B6
:10576000C00600690002000AFDF7ACFAA168FDF767
:10577000D1F9A0602046FEF7C9F810BD10B5044667
:105780000448807A8006400F00F0D2FF207000208D
:1057900010BD00000001002070B51B4A1B4B1268B1
:1057A000D418E36B0833A3621F2901D9302070BDE0
:1057B0000022656BE66BAD5CB554521CD2B2082A70
:1057C000F7D3002205E00578521C1D70401CD2B2B0
:1057D0005B1C8A42F7D32C200155E06B891D417078
:1057E000FFF7FCFC217E01290CD008280AD2616B4E
:1057F000E06BE16360638034616A4880A16A48803D
:10580000E16A4880002070BDA40000205808000014
:1058100070B5104809240268FD20C00011180B7DE6
:105820002402082000211519A032127B0EE060240A
:105830004C43AE6EA41C345D6407640F032C02D18C
:10584000DC0700D008465B08491CC9B28A42EED882
:1058500070BD0000A4000020024600200146535CF9
:10586000002B00D00120491CC9B20629F7D370478C
:10587000FFB507468DB000200890079077481E4678
:105880000168774815460C18232040010818477115
:10589000C271002B01D0002101710E9800287DD02B
:1058A000FFF7DAFF002879D0002E03D020342079CA
:1058B000012873D0FF24002E07D0022D02D0032D23
:1058C00002D002E0002500E0012564486549006837
:1058D00040180B90022F01D0032F6AD16846057043
:1058E0000622401C0E99FBF721FF6946002000F0BC
:1058F0002FFFFF2803D00B99C2005118CC79112338
:105900009B015649002E14D00968CA1894762323A7
:1059100000225B01C9180A71FF284AD0372044438E
:105920004E48FF2100682F312018095C002904D05F
:1059300015E00A68D1188C75EEE70146FF31FF309B
:1059400047311F3000F054FF4448062200682118F8
:10595000FF3105A84831FBF7E9FE012007903F49D8
:10596000FF2208684E322018125C002A1CD1014622
:10597000FF31FF304031303000F03AFF3748062227
:1059800000682118FF3103A84131FBF7CFFE012049
:105990000890002E08D00121304800E018E002688D
:1059A00023204001101801710798002801D0002E13
:1059B0000AD0324629460E9800F01CFF08980028AD
:1059C00006D0012103A815E03246012105A8F3E71E
:1059D000002F06D0012F1AD0022F02D0032F07D19B
:1059E00015E01E480622016868467831FBF79EFEE6
:1059F0000021684600F01AFF0124A402002F10D0F5
:105A0000012F16D0022F0CD0032F24D111E0134800
:105A100006220168144809186846FBF787FE012131
:105A2000E7E70E480068816F041909027B30E165E1
:105A30000CE00A4805680C48281800F009FF00022D
:105A40002C19401CE0650848C01C281800F000FF15
:105A50000002000A2066002011B0F0BDA400002062
:105A6000580800006C0400003307000010B504461D
:105A700000202082A074A168A1616161206020469D
:105A800000F0F2FE452801D0412010BDA08803217E
:105A900000F012FF044600F053FF002813D072B646
:105AA0000A4801220168492040010918487EA240A5
:105AB0001043487662B6002000F05CFF002802D058
:105AC000002000F087FA002010BD0000A400002094
:105AD000FFB581B00646684680890A9F0D460028BA
