:020000041004E6
:1000000000600020B126041071260410732604102D
:10001000AA5555AA45554C420000000000000000BA
:100020000000000000000000000000007526041021
:1000300000000000000000004F0F0410772604109D
:10004000A70F0410BF0F0410000000000000000004
:100050000F1004105F11041023150410CD26041096
:100060000000000000000000000000000000000090
:1000700000000000CF260410D1260410D32604105F
:100080000000000027150410071D04106B23041046
:1000900047260410A3260410D7260410D5260410E2
:1000A0000000000000000000000000000000000050
:1000B0000000000000000000000000000000000040
:1000C000FDB5B4B03C98049102A93B2288540020AD
:1000D0000D9028A8401C27900DE00498349A904772
:1000E0000490002801D100F042FE0D98401C0D90B4
:1000F0003598401C359035980178002910D0252975
:10010000EBD100200790089009900A900B900C907A
:10011000002102240120129008200190359D05E065
:100120000D9800F026FE0800129901436D1C2878F6
:100130002028F8D023280BD02B2804D02D2804D039
:10014000302808D00AE02143F0E708000421ECE75A
:1001500008000821E9E708001021E6E72A280FD166
:10016000369802681068121D369B1A600F9000289E
:1001700004D542420F920800042101436D1C12E095
:1001800000200F90624A09E00F9B934205DA9E001F
:10019000F3185B00181830380F906D1C2878030096
:1001A000303B0A2BF0D328782E2803D00020C04300
:1001B0000E9027E06D1C28782A2808D13698006810
:1001C0000268001D369B18600E926D1C1AE02D28E7
:1001D00002D12D226D1C00E0002200200E900CE0C8
:1001E000002A09D10E9B4A4EB34205DA9E00F3184D
:1001F0005B00181830380E906D1C28780300303BD7
:100200000A2BEDD302A801872E7831003E487844AE
:10021000FF30093800F092FE002801D06D1C00E08C
:10022000002602A83A214654405C682804D1287868
:1002300068280BD1622005E06C2807D128786C284B
:1002400004D1712002A93A2288546D1C16A8069088
:10025000287869460870681C359068460278100056
:1002600025382DD02038022800D800E2133801D1DB
:1002700000F0A1FC0B3801D100F03AFD401E01D185
:1002800000F0E7FC401E022800D8F0E1001F01D179
:1002900000F0DFFC401F00D148E1401E01D100F01A
:1002A0008AFC401E00D1EBE0C01E10D0801E01D1A0
:1002B00000F081FCC01E01D100F07DFC00F023FDA8
:1002C000252016A908701298079000F027FD36988F
:1002D00000680468001D369908600594002C00D061
:1002E000BAE002A83B21405C002800D1ADE0002428
:1002F000E44306487844143000F02AFE201A01D066
:1003000000F035FD00F00AFDF81F00002C20000071
:10031000CBCCCC0C641E01D000F01FFD3495079DA2
:1003200016AC002D0FD0349E227802A9300000F0C8
:10033000D9FD002802D4641C6D1EF5D13496002826
:1003400001D000F014FD3020694608700A9C002C92
:100350000DDD349D01236A4602A9280000F0D3FD7B
:10036000002801D000F003FD641EF3D13495059CF4
:10037000089D002D0FD0349E227802A9300000F095
:10038000B1FD002802D4641C6D1EF5D134960028FE
:1003900001D000F0ECFC302769460F700B9C002C5C
:1003A0000DDD349D01236A4602A9280000F0ABFD53
:1003B000002801D000F0DBFC641EF3D134950598D1
:1003C00008994418099D002D0FD0349E227802A967
:1003D000300000F087FD002802D4641C6D1EF5D1AA
:1003E0003496002801D000F0C2FC684607700C9CCF
:1003F000002C0DDD349D01236A4602A9280000F07F
:1004000082FD002801D000F0B2FC641EF3D13495C7
:1004100002A83821405C400700D46CE620206946E1
:1004200008700198002800DC65E6019C349D0123DA
:100430006A4602A9280000F066FD002801D000F0FD
:1004400096FC641EF3D1349555E63E487844FF305F
:100450000B38059000F062FC0E9D002D03D52000A6
:1004600000F09AFD09E02A000021200000F09CFD28
:10047000002801D0001B00E02800089000F04EFC8E
:10048000369800680268001D369908600020C04355
:100490000021104002AA03C216A80590069A3C2328
:1004A00002A803C8002904D1002802D10E9C002C08
:1004B00013D05B1E05072D0F3035EEB23A2E00DB50
:1004C0002735D55400090C072043090901D100281C
:1004D00003D0059CD518AC42EBD33C20C01A089041
:1004E000D11805910E99884208DA081A0A9002A8D4
:1004F000018FBD4A0A40028700F010FC002901D498
:1005000000F00CFC02A93822895C14220A40102A4F
:1005100001D000F003FC0F99079A891A0A9A891AE8
:10052000081A002801DC00F0F9FB42E302A83B2195
:10053000415C002908D00024E44349487844FF3056
:100540002130D9E6101E00003A21405C622868D0B4
:10055000682819D06A2844D06C2806D071284ED05B
:10056000742830D07A2820D06CE036980068016872
:10057000001D369A1060002976D10024E4433948E2
:100580007844FF301F38B7E6369800680168001DD0
:10059000369A1060002905D10024E443314878449C
:1005A000C230A9E60D980880B8E336980068016863
:1005B000001D369A1060002956D10024E4432948D2
:1005C0007844A03098E6369800680168001D369A95
:1005D0001060002948D10024E44322487844843044
:1005E0008AE6369800680268001D36990860002A7D
:1005F00013D10024E4431B48784468307CE63698E5
:1006000000680268001D36990860002A05D10024A0
:10061000E443144878444C306EE60D98C11703C289
:100620007CE3369800680168001D369A1060002946
:1006300005D10024E4430B48784428305CE60D984B
:1006400008706BE3369800680168001D369A1060E8
:10065000002909D10024E44302487844801D4BE678
:10066000A81C0000BC1C00000D98086056E33698DA
:100670000368DB1D072083433698036003CB369D58
:100680002B6002AB03C3C80F02D007982D210AE0EC
:1006900002A8008F204202D007982B2103E0C00758
:1006A00005D50798202116AB1954401C079016A8B1
:1006B00007994318059328AC02A803C814AD03C5D5
:1006C0000E98002801D5062007E007D1684600787B
:1006D00020210143672901D112980E9002A803C876
:1006E000080041004915491C10D100030ED0032019
:1006F0000890613A1A2A04D23C497944FF311139F1
:1007000015E03B497944FF31173910E002A803C8CE
:10071000080041004915491C0ED100030CD10320EB
:100720000890613A1A2A16D332497944C631032215
:10073000180000F05FFCF1E202A8C0C885A003C861
:100740003940002280235B03994208D2002079407F
:1007500032AB03C313E0284979449C31E7E7774B78
:100760003B40774F1F4332AAC0C2080D75A20CCA86
:10077000101876494843764900F04AFC020032A836
:1007800003C802AB03C302A803C872A6C0CE0640CA
:100790000F4003D1002E01D10025B8E014A830C8C5
:1007A0006D006D0825920720801A05DD02002000EB
:1007B000290000F070FB0AE042420020674900F087
:1007C0006AFB02000B002000290000F050FC2022F0
:1007D0006B461B781A436B465A706A465278662AF3
:1007E0000CD1259A0A320AE0EFFF00006C1B0000D2
:1007F0006C1B0000701B0000681B000006220E9B93
:100800009A18142A00DD142228AB30241C705C1CBA
:1008100002E014A803C8139A002A3CDD14AB03C3FA
:10082000139214A803C800F083FC269006460834EF
:10083000042530000A2100F0FFFB0F0030000A21E0
:1008400000F0FAFB06003037601E077030000A2106
:1008500000F0F2FB0F0030000A2100F0EDFB060073
:10086000A41E303727706D1EE3D108341398083862
:1008700013900028CDDD269800F072FC02000B00DA
:1008800014A803C800F0D9FC0022354B00F04CFD41
:1008900014AA03C2C5E72798201A28A94C1C259D35
:1008A00002E0401E6D1E641C21783029F9D0694693
:1008B0004978662901D1691C06E0694649786529AD
:1008C00001D1129900E000210E9A5618B04200DAC8
:1008D000461E002E1BD4864204DAA05D342801DDBA
:1008E000392000E030203100621E521801E0761EEF
:1008F000521E491E13788342F9D0392802D1605C18
:10090000401C6054002902D5641E761C6D1C68468C
:100910000078694648700E9F30B2002803DC129EB2
:10092000054C7C44123468464178202008436628F0
:1009300018D16D1C2EE000BF301A0000FFFF0F80A1
:100940000000E03F02FCFFFFFFFFFFFF9775000084
:10095000A0860100FFFFFFFFFFFFFF7F0000F03FC9
:1009600084D7974167285CD128B20321C9438842C4
:1009700041DBB8423FDA6D1C02A8008F0199C0B27A
:10098000084203D130B2B84200DA070028B23F1A59
:1009900000D5002728B2002800DDA8E00898411CF7
:1009A00008913021059A1154002F05DC02A8008F10
:1009B0000199C0B2084205D00898411C08912E2127
:1009C000059A115428B241428F4200DA7D422DB27D
:1009D00068420B907D1930B2854200DA2E0036B2A3
:1009E0000996320021000598089BC01800F002FB10
:1009F000A81B0C90C7E030B2B84206DA02A9098FF2
:100A0000019AC9B2114200D107007F1E00D500270C
:100A100068464078672801D1652000E04520694696
:100A200048700898411C08912178059A1154611C5E
:100A3000002F05DC02A8008F019AC0B2104218D026
:100A40000898421C08922E22059B1A54002F10DD94
:100A5000741E20B2874200DA3C0022B20598089B3F
:100A6000C01800F0C7FA24B2089800190890381B83
:100A70000B9005980899401869464978017029B289
:100A8000002903D42B214170861C03E02D224270E3
:100A9000861C4D42002412A928000D0005E00A2101
:100AA00000F0B6FA2970641C6D1C00B20028F6DC58
:100AB000012C08DC6846407820210143652902D1D9
:100AC00030203070761C002C09D130203070761C1C
:100AD00007E0641E12A8005D30303070761C002CD8
:100AE000F7DC059808994018301A09904BE030B2AD
:100AF00029B288421DDA32B221000598089BC0183D
:100B000000F078FA36B20898801908902DB2A91B27
:100B10000B91002F05DC02A9098F019AC9B211427D
:100B200005D02E21059A11540998401C09900C9764
:100B300029E02AB221000598089BC01800F05AFA53
:100B400028B2089909180891751B002F05DC02AA24
:100B5000128F019BD2B21A4204D04A1C08922E2254
:100B6000059B5A5429B28F4200DA3D002AB221185F
:100B70000598089BC01800F03DFA2DB2089840195E
:100B80000890781B0B9002A83821405C142101408A
:100B9000102900D0C2E00798089940180B99401816
:100BA000099940180C9940180F99884200DBB5E06C
:100BB000081A0A90B2E002AA3A20105C622808D013
:100BC00068280ED06A2814D06C281DD0712810D047
:100BD0001AE0369801680868091D369B1960C0B292
:100BE00018E0369801680868091D369B196080B2C4
:100BF00010E036980368DB1D0720834336980360B6
:100C000003CB369C236006E0369801680868091D0E
:100C1000369B1960002102AB03C3108F0199C0B24B
:100C200008425BD002A803C8002901D1002855D092
:100C3000684600782021014378294FD1079816A9EA
:100C400030220A54401C421C07926A4612780A5409
:100C500044E002AA3A20105C622808D068280ED02E
:100C60006A2814D06C281DD0712810D01AE036984C
:100C700001680868091D369B196040B218E0369873
:100C800001680868091D369B196000B210E03698AB
:100C90000368DB1D072083433698036003CB369D32
:100CA0002B6006E0369801680868091D369B1960BC
:100CB000C11702AB03C3002902DA07982D2109E00E
:100CC000108F204202D007982B2103E0C00705D5E2
:100CD0000798202116AA1154401C079016A80799BE
:100CE000401805906846017802A800F044F815E025
:100CF00012980790369800680168001D369A1060B7
:100D000016A801700AE0252016A90870129807900D
:100D100068460078002801D04A7007940F98079918
:100D2000401A0A99401A0899401A0B99401A0999D1
:100D3000401A0C99401A019002A83821405C4007E3
:100D400001D5FFF7ECFA20206946087001980028C9
:100D500001DCFFF7E4FA019C349D01236A4602A9F5
:100D6000280000F0D0F8002801D1FFF7D3FA0020C6
:100D7000C04337B0F0BDF2B586B0040025696F29D5
:100D800001D1082707E0084620210143782901D036
:100D90000A2700E010273C2603CC083C04AA03C223
:100DA0006A46127E642A03D06A46127E692A09D1F5
:100DB000002907DA04A803C800220023121A8B4175
:100DC00004A80CC004A803C800290DD100280BD129
:100DD000206B002808D1082F3BD13820205C000769
:100DE00037D53B26302033E00294009504A830C864
:100DF000761E0196200029003A00FB1700F056FBF2
:100E00003032D0B23A2803DB6846007E51381218DF
:100E100000988255200029003A00FB1700F046FB9D
:100E200004000D0001D1002C05D00298C068009983
:100E300089198842DCD3029C009D082F09D13820F3
:100E4000205C000705D5A85D302802D0761E302032
:100E5000A8553C20801BA061A919E160216B884244
:100E600006DA081A2062208F1C490140218710E011
:100E700000290ED53821615C14220A40102A08D1BD
:100E8000616B6269891A226A891A081A002800DDD2
:100E9000206207B0F0BDF8B50026114F04000D0028
:100EA000009214E0C00707D532003B002000290063
:100EB00000F03AFA04000D00009840100090300055
:100EC000390032003B0000F02FFA06000F000098B6
:100ED0000028E7D120002900F4BD0000EFFF00004A
:100EE0000000244010B503000C001100A0689847D2
:100EF000A060002804D0E06A401CE062002010BD21
:100F00000020C04310BDF8B50024002B11D007000D
:100F10000E0014001D002178B068B847B0600028AA
:100F200009D0F06A401CF0620020641C6D1EF2D1F2
:100F300004002000F2BD0020C043F9E7C9B20278E6
:100F40008A4203D0401C002AF9D100207047704724
:100F500080B5002801D100BF07A006490B68002B0F
:100F600003D022220021984701E000F0D4FA222089
:100F700002BD0000A8000020636F6E737472616987
:100F80006E742068616E646C65723A2062616420E0
:100F90006D65737361676500431C0178401C0942ED
:100FA000FBD1C01A70477047C9B2521E05D30378EF
:100FB000401C8B42F9D1401E70470020704770479B
:100FC00070B4103A03D378C9103A78C0FBD25307F3
:100FD00001D318C918C001D508C908C0D20704D365
:100FE0000B880380891C801C002A01D50B780370B4
:100FF00070BC70478B0701D18307E1D0124205D046
:101000000B78491C0370401C521EF9D17047704781
:10101000CA0F00D0494203105A400DD004B500D386
:10102000404200F009F8009AD20701D34942124227
:1010300000D5404204BD0000094214D088420FD3BD
:101040000122030C01D100041204002300185B41AB
:101050008B4200D35B1A5241F8D31900100070473D
:1010600001000020704708B500F05AFA08BDF0B43E
:101070000E005E400125ED072E40B446AE0ADF1893
:101080004C18F4423BD2F74241D2640D43D07F0D5D
:1010900038D0E41BC902DB0229432B43CF0ADB0A09
:1010A0000600B61A9F4104D2641EB6197F41B618D5
:1010B0005F416812800D24180018844222DAE80C7F
:1010C0000021B6197F41B61A9F4102D2B6185F417E
:1010D0003F1C40414941F4D3241C21DD2405B619AD
:1010E0007F41B61A9F4105D33743C60737430026D1
:1010F000012F7041614166463143F0BC7047FCD11D
:10110000F74205D20020C14349054908F3E704D05E
:101110000020C143F1E77F0DFAD000206146ECE7E3
:101120002442FAD1401C61410F03F6D30020E2E7CC
:101130004A1812D2400DC90208430121C9070843C9
:10114000520D40210901521A521C06D452421F323C
:1011500001D4D0407047C0177047002070477047D7
:10116000010042221201D21E004207D002D4521EB8
:101170000018FCD5C10A4005120589187047000007
:101180008B4200D1824205D98446100062468C46CB
:1011900019006346DF184C18640D7F0D3AD0661CA9
:1011A000760537D0E61B352E34DCDB022B43DB0A19
:1011B0000C0DC9022943C912202E0DDB1700203E59
:1011C00006D01F00F741F3405F400026012A774117
:1011D000C01871410DD217E01700F741F240574097
:1011E000F3415A40B340F3405A4000268018594119
:1011F0000AD3A21C52050FD0C207012F724117005B
:101200004008CB0718434908641C24054208AF4135
:1012100070416141F0BC7047641C21050020F9E772
:101220006B4010E06B40ABE7F742F3D1E943F1E7E5
:101230002442EFD100200021ECE7F0B40125ED07B6
:101240000F005F40EED40C00871A9C4105D2C01BF2
:10125000A141D219634169406B40AE0ADF184C18B6
:10126000F442E1D2640D7F0DE2D0E61B362ED1DCD4
:10127000DB022B43DB0AA4460C0DC9022943C90A31
:10128000012E28DC04D1D6075208DF073A435B0859
:10129000EF0A76429041994114D039423BD1B619B8
:1012A00040414941761C394204D1761C001849411D
:1012B0003942FAD0B9436746B74208D9A41B24057E
:1012C0002143A7E70042EAD13642E8D1A2E7E40A87
:1012D000E10700209EE7202E0BDD203E1F00F3409B
:1012E000F7415F40012A002257417E4298419141D7
:1012F0000BE01700F741F2405740F3415A40B3402A
:10130000F3405A407E42904199410A0303D2641E41
:10131000B619404149410027641E24054208AE41E8
:1013200078416141F0BC7047F0B50E005E40012588
:10133000ED072E40B446AE0ADF184C18F44208D22E
:10134000F7420ED2640D01D07F0D12D1002061460C
:10135000F0BD05D1F74201D87F0D05D10020C14372
:10136000F0BDFBD1640DF9D00020C1434905490807
:101370008FE0E419C902DB0229432B43DB0A460D47
:10138000C00231438E4630B487B295B27D432E0CF5
:10139000ADB2140C7C43A419260C240425439CB242
:1013A0007C43A419190C7943270CC919A4B20F0462
:1013B0003C43090C000C97B247432E0CBE19354331
:1013C000ADB2170C4743360CBF19A6B2BF193E0485
:1013D0003543240C3E0C36199FB24743BF19BCB2AB
:1013E0003E0C89191F0C47437F183E043443390CC7
:1013F000704680B297B247432E0CBE193543ADB24A
:10140000170C4743360CBF19A6B2BF193E0435432B
:10141000240C3E0C36199FB24743BF19BCB23E0C98
:1014200089191F0C47437F183E043443390C774613
:101430003F0C90B278432E0C80190604ADB22E43B7
:10144000050CA0B22D18120C7A435019020C80B270
:10145000240CA4189AB27A43121914042043120CD3
:1014600089181B0C7B43C91830BCEF0A394203D1E1
:10147000B61940414941641E6F12BF0DE41B0BDBDE
:10148000FF19BC4211DA240500274208AE41784119
:10149000614166463143F0BD641C05D1401C614189
:1014A000CF0201D34908F4E750E75DE7124224D0A8
:1014B000994228D970B500251B4202D00C000021AA
:1014C00009E00024012649186441944200D3A41A7B
:1014D0007641F8D33100012601E0764109D20018A7
:1014E00064416D41A41A9D41F7D2A4185D41B6191B
:1014F000F5D3300022002B0070BD1B42D8D108B5B7
:1015000000F010F808BD01D19042D3D202000B00C8
:1015100000210020704780B5012000F005F801BDD2
:10152000704770477047704780B500BF00BF024AE0
:1015300011001820ABBEFBE72600020010B5C20068
:1015400018231340FF249C40E2438907090E994069
:10155000030004D55A481B071B0F083B00E09948BD
:101560009B089B00C01803681A401143016010BD1E
:10157000FEB5002653480660032400F0CAF9694608
:10158000088068460088002801D1641EF5D16846AD
:101590000088202837DB68460088012401254005A3
:1015A00025D4684600F01AFA684641780901807827
:1015B0000843122800DA002583480068000705D494
:1015C000002D14D0012000F062F810E07F4FF86881
:1015D0007F4E3168081A283800020012002806DD04
:1015E000002D02D0012000F052F8306838607948B0
:1015F000047000F04AFABFF34F8F7748A44908609F
:10160000BFF34F8FFEE70120FEBD10B50022002181
:10161000A04804E00B00415C5918491CC9B2435C66
:10162000002BF7D1CB1C202B12DA022343542123A9
:10163000441863700823A3704318DA70964A802315
:101640005B02401880B21843106010681840FCD14B
:1016500010BD70B5002100238E4A04E01C00D35C4D
:10166000E3185B1CDBB2D45C002CF7D102253524D7
:10167000DE1C202E05DAD554D6187470B070D2183E
:10168000D170864A157054709070D17070BD70B56D
:1016900080214902814B9CB20C437F4A002804D030
:1016A0001460106808400AD0FBE798789D78FB2604
:1016B0002E409E70146014680C40FCD1987070BD70
:1016C0001CED00E014000020F8B58AB005000C0005
:1016D00003A800BF79A11C22FFF772FC684600F046
:1016E0007DF96D4E002D54D003A8402181734C210B
:1016F000C17220210172B22141745B2101756849D8
:101700008B6B684A1D0C954209D1C57D8F272F40F0
:10171000C775C57D1B0170271F402F43C7754B6BD5
:101720001D0C954209D14579CF272F404771457946
:101730001B0130271F402F43477109680B0C934250
:1017400008D1C27DFC231340C375C27D8907890F70
:101750001143C175C17AFB220A40C27269464A78B8
:1017600012018D781543112D06DDC17D04220A4337
:10177000C275C07DFFF76DFF8020400203A989B2CA
:101780000143316031680140FCD1112D01DDFFF7CB
:101790003CFF124881890029FBD00121818117215A
:1017A000018000214160002C07D070681021726810
:1017B0000A40102303409A42F9D03B483B49086055
:1017C0000BB0F0BD00E400E0C000002004000048C1
:1017D000180000200C0000200400FA050C0010483E
:1017E00080B508203249088003210120C043FFF75B
:1017F000A5FE03210020C043FFF7A0FE0321002027
:10180000FFF79CFE03210120FFF798FE032104202F
:10181000FFF794FE03210520FFF790FE002106202C
:10182000FFF78CFE03210720FFF788FE03210D2020
:10183000FFF784FE03210E20FFF780FE03210F2017
:10184000FFF77CFE03211120FFF778FE0321122011
:10185000FFF774FE03211320FFF770FE032114200D
:10186000FFF76CFE03211520FFF768FE0321162009
:10187000FFF764FE03211720FFF760FE012101201E
:10188000FFF722FF0B480C49086062B601BD00005B
:101890000CED00E0840000200C0000481C0000203B
:1018A000B007001055AA0000CCBCECFC14000020CE
:1018B0000400104066000E0020009040023F00022D
:1018C0003E30023C20023B4C023A400239B2023424
:1018D0005B02350B0000000070B504000D003A4EAD
:1018E0003A48204003D18721300000F051F9280008
:1018F000344D010005D0012807D08821300000F0C8
:1019000047F92868A043286070BD286804432C600C
:1019100070BD2F4802782F4801880020002A44D14A
:1019200009220A40092A00D1202011220A40112A46
:1019300002D102004020104321220A40212A02D174
:1019400002008020104341220A40412A03D10200B4
:1019500080204000104381220A40812A03D10200E6
:10196000802080001043FF22921C13000B40934202
:1019700003D102008020C0001043174A13000B401F
:10198000934203D1020080200001104305220A4047
:10199000052A02D10200102010438907890F03296C
:1019A0000ED10100082008437047022A01D101200E
:1019B0007047042A01D102207047082A00D1042070
:1019C0007047000020009040202404109F3F0F002B
:1019D0000800904008001048010400000F21114A3F
:1019E00013681B090B404370136819408170D2685B
:1019F000426001210C4B9A4208D10C4A12680C4BF0
:101A00009A4201D1042202E0022200E00122027087
:101A10004278002A00D1417006490988491C890092
:101A2000816070471C00904041A000021C00001023
:101A300044A000F214001040EFF31482EFF3098188
:101A4000002080F31488BFF36F8FF0B543464C46F7
:101A500055465E466746F8B4164CEFF3088323609C
:101A600006B4154C2068154C2060154C2068154CA8
:101A70002060154C2068154C2060154C276800200C
:101A80002060BFF34F8F30BF27600A4C246884F377
:101A9000088882B003BCF8BC9846A146AA46B34663
:101AA000BC46F0BC04BC80F3098881F31488BFF302
:101AB0006F8F10470800002004ED00E02400002094
:101AC00024ED00E02800002000E200E0A400002057
:101AD0000800204070B5FFF783FE00F095F8E12084
:101AE000400200F0A6F8002000F02EF9254800F092
:101AF00051F9482000F062F9012000F0A4F9012812
:101B0000FAD1482123A000F045F91F4926A000F092
:101B100041F9002600240022B0001B49D30085189B
:101B2000282D01DBFF2501E0B5184D5D9D402543C3
:101B30002C00521C042AF1DB14494518210028000E
:101B400000F063F9012000F07EF90128FAD12900A4
:101B50001BA000F01FF9280000F049F9844209D1C8
:101B600026A000F017F9761C282ED3DB002000F009
:101B700004F9FEE7280000F03AF9010017A000F090
:101B800009F9FEE76C2304105C00002000400610F9
:101B9000FEE700005061676520256420657261736F
:101BA00065642E0D0A0000005772697465206D652A
:101BB00073736167653A20222573220D0A000000C5
:101BC000577269746520617420616464726573730F
:101BD0003A203078253038582E200000566572693A
:101BE0006669636174696F6E206661696C65642003
:101BF0003078253038582E0D0A0000005375636385
:101C00006573732E0D0A00000120034908707047A8
:101C10000148007870470000AC00002010B50400B7
:101C2000202000F049FA0128FAD0200000F02FFA15
:101C300010BD78B585B0040001210920FFF74CFEE6
:101C4000FFF7E6FF1E4980000818001F006800909B
:101C5000FFF7DEFF6D461B4980000818001F006873
:101C600028710026AE716E71684600F08FFAFFF79A
:101C7000CFFF154980000818001F00680090FFF78B
:101C8000C7FF124980000818001F006828716846C5
:101C900000F07CFA0294032002A908714871CE80FA
:101CA0004E7208720120887202A800F007F9002025
:101CB00000F038FA012000F0EDF806B070BD000029
:101CC000BC260410C0260410C4260410C826041024
:101CD00070B50024012804D0022802D00020C0439F
:101CE00070BD002901D1002070BD0D00160004E078
:101CF0002878FFF793FF6D1C641C3000461E0028F7
:101D0000F6D1200070BD704738B50E4D2C000C3C4C
:101D1000002811D0022807D00ED2FFF779FF0C213E
:101D200048432818083805E0FFF772FF0C214843A4
:101D30002818001F006832BDFFF76AFF0C214843D6
:101D4000205832BDA42604101CB504000121012036
:101D5000FFF7C2FD2000FFF7D7FF0090684606217D
:101D6000017101218171417100F010FA2000FFF72B
:101D7000CBFF002100F092FA13BD80B5FFF7C4FF3E
:101D8000012100F08BFA01BD80B5FFF7BDFF00F027
:101D90009FFA01BD0EB4C0B5020003A80190002057
:101DA000009001AB0121044878440C30FEF788F91B
:101DB000029906B0084700BFD508000010B504001E
:101DC000502803DB59212D48FFF7E2FE2C4800681C
:101DD0002C4988420AD12C483F210181610289B2F5
:101DE000816111210180018AC907FCD510BD10B5A0
:101DF000040026482018A0218902884203D38D219F
:101E00001E48FFF7C5FE206810BD38B504000D0060
:101E10001E482018A0218902884203D3A621174812
:101E2000FFF7B6FE16480068164988420AD11648E0
:101E30003F210181A1088161056433210180018A6C
:101E4000C907FCD531BD10B5040001280ED0022809
:101E50000CD004280AD0082808D0102806D0202842
:101E600004D0FF214E310548FFF792FE0848008854
:101E70000440200000D0012010BD0000D023041039
:101E800014000020CCBCECFC000010400000FCEF73
:101E90001000104010B5854C01000AD0012803D075
:101EA0005F218348FFF774FE206801210143216010
:101EB00010BD206801218843206010BDF8B50400E2
:101EC00020687B4D002802D07A49884203D39321B1
:101ED0002800FFF75DFE2079002809D0012807D0EF
:101EE000022805D0032803D094212800FFF750FED4
:101EF0006079002809D0012807D0022805D00328DE
:101F000003D095212800FFF743FEA079002805D0D3
:101F1000012803D096212800FFF73AFEE079002837
:101F200007D0012805D0022803D097212800FFF709
:101F30002FFE207A042803DB98212800FFF728FED3
:101F4000607A042803DB99212800FFF721FEA07A9C
:101F5000002805D0012803D09A212800FFF718FE99
:101F600021680125674E68487269D2082A4001D16C
:101F7000090100E0C900FFF75FF8C10931810904D8
:101F8000490A401A401C400881B23F2902DD3F380F
:101F90008006800E307360209F21327C0A402379B6
:101FA0005B0103401343337432781140627952016C
:101FB000104008433070F7200821327C0240A3799A
:101FC000DB0008271F401743377432781040A2798E
:101FD000D200114001433170E179002907D1FD2081
:101FE000317C014031743178084030701CE00220AF
:101FF0000229317C0BD101433174FB21327C0A4030
:102000003274327810433070307801400BE0014375
:1020100031740421327C0423134333743278104327
:10202000307030780143317070693B490140207A4B
:102030002840400208437061706938490140207AA5
:10204000400828400002084370617069344901402B
:10205000607A284080030843706170693F490140FD
:10206000607A40080540E803084370611020EF21C2
:10207000327C0A40A37A1B01034013433374327845
:102080001140A27A1201104008433070F1BD10B522
:10209000040080218900884203DBEF390448FFF700
:1020A00077FDE005C00D2E49088010BD300030409E
:1020B000BC24041041420F0010B50400012C1AD0BA
:1020C000082C18D0102C16D0202C14D0402C12D054
:1020D000802C10D0234884420DD0234884420AD05B
:1020E0002248844207D02248844204D0FF2156313E
:1020F0002048FFF74DFD2348002C01D5006800E083
:10210000808A03E01C0030400000127A0440200066
:1021100000D00120C0B210BDFFFDFFFFFFFEFFFF9A
:10212000FFBFFFFF10B5040010D001280ED0022819
:102130000CD003280AD0042808D0052806D0062889
:1021400004D0FF21DA310B48FFF722FD0E48017859
:10215000C7220A40E10038230EE00000FF7FFFFFA6
:102160000000304008000080010000800200008074
:1021700004000080BC2404100B401343037010BD06
:10218000000000000400304034003040F8B5040086
:10219000584D2068800103D17A212800FFF7F8FC10
:1021A000207900280BD0062809D0012807D0042860
:1021B00005D0052803D07B212800FFF7E9FCA07992
:1021C000002805D0012803D07C212800FFF7E0FC7F
:1021D0006079002805D0012803D07D212800FFF771
:1021E000D7FC2068C00406D52079062803D18021B9
:1021F0002800FFF7CDFC2068800406D5207906284A
:1022000003D181212800FFF7C3FC23791900384A44
:102210000020002B04D113682568AB43136006E04F
:10222000062B04D10021136825681D43156025681D
:10223000C540ED071AD5082809DA8500966A0F27E8
:10224000AF40BE430F00AF40374397620EE005003A
:10225000083D082D0AD20500083DAD00D66A0F27BB
:10226000AF40BE430F00AF403743D762401C1A282F
:10227000DDDB206861790129916802D10843906013
:1022800001E0814391602068A1790129516802D160
:1022900008435060F1BD81435160F1BD70B5040049
:1022A0000D00144EA00104D1B72149003000FFF702
:1022B0006FFC2800104D010006D0012806D0FF2138
:1022C00070313000FFF764FC6C6070BD2C6070BD35
:1022D00010B50400A00104D1C22149000748FFF74E
:1022E00057FC8020C00501684C40046010BD000010
:1022F00004000040702404103C00004070240410CE
:10230000686A6C747A4C00007072696E74665F73F0
:102310003A20256E20646973616C6C6F7765640088
:102320007072696E74663A2062616420256E206165
:102330007267756D656E74007072696E74665F7336
:102340003A2062616420257320617267756D656E45
:1023500074000000000000006E616E004E414E00EF
:10236000696E6600494E4600300070472A2A2A2AC4
:102370002A2A2A2A2A2A2A2A2A2A2A2A2A2A2A2ABD
:102380002A2A2A2A2A2A2A2A2A2A0D0A2A20466C96
:10239000617368202D20446174612053746F7261F1
:1023A0006765206578616D706C650D0A2A2A2A2A96
:1023B0002A2A2A2A2A2A2A2A2A2A2A2A2A2A2A2A7D
:1023C0002A2A2A2A2A2A2A2A2A2A0D0A0000000052
:1023D000433A5C4749545F766F62735C626C756523
:1023E0006E7267312D73646B5C4C696272617279D5
:1023F0005C426C75654E5247315F5065726970681A
:102400005F4472697665725C7372635C426C756579
:102410004E5247315F666C6173682E6300000000A6
:10242000433A5C4749545F766F62735C626C7565D2
:102430006E7267312D73646B5C4C69627261727984
:102440005C426C75654E5247315F506572697068C9
:102450005F4472697665725C7372635C426C756529
:102460004E5247315F7379734374726C2E63000070
:10247000433A5C4749545F766F62735C626C756582
:102480006E7267312D73646B5C4C69627261727934
:102490005C426C75654E5247315F50657269706879
:1024A0005F4472697665725C7372635C426C7565D9
:1024B0004E5247315F6770696F2E6300433A5C4745
:1024C00049545F766F62735C626C75656E726731DA
:1024D0002D73646B5C4C6962726172795C426C75DD
:1024E000654E5247315F5065726970685F4472692A
:1024F0007665725C7372635C426C75654E524731EF
:102500005F756172742E630070B40123002413E0C0
:102510000168001D194202D04D466D1E49190C601C
:10252000091D121F042AFAD20D00960701D50C804E
:10253000AD1C1A4000D02C700268001D002AE7D1A3
:1025400070BC704730B501684118446862088A1849
:102550008368E40704D54C461B1901E0641C06D1CE
:1025600091420BD00C7864B2491C0D78491C1D7047
:102570005B1C002CF2D4641EF7D5F1E70C3030BDA3
:1025800010B5074979441831064C7C44163404E0F0
:10259000081D0A68891888470100A142F8D110BDBA
:1025A000080000007C00000061FFFFFF0400000045
:1025B00008000020040000000C00002004000000BF
:1025C0001400002004000000180000200800000093
:1025D0001C00002004000000300000200800000063
:1025E000240000202C0000008400002000000000D7
:1025F00055FFFFFF0D01000014000000C000002087
:1026000045FFFFFF070100000A0000001000002046
:1026100035FFFFFFC4000000520000005C000020F6
:10262000FEF7A6FF002801D0FFF7AAFF00BF00BFFA
:10263000002000BF00BFFFF74DFA00F000F880B5A2
:1026400000F002F801BD704707463846FEF76CFF00
:10265000FBE780B56946087001220120FFF738FBCF
:10266000012802D16846007802BD0020C04302BDA7
:102670007047FEE7704780B50020FFF785FB01201B
:10268000FFF782FB0220FFF77FFB01BD38B5050095
:102690000C002000FFF7DDFFA04200D0002528003D
:1026A00032BD704740000000800000000040000084
:1026B00000BF00BF00BF00BFFFF7B2FF0001000076
:1026C0000100000000080000010000007047704792
:1026D000704770477047704727426C75654E524788
:1026E0002D3120466C617368204578616D706C6592
:1026F000202D20444154412053544F52414745001E
:10270000008100810081008100F0000300000410BE
:04000005100426B10C
:00000001FF
