:020000041004E6
:1000000000600020652504105D0A04105F0A0410DA
:10001000DDCCBBAA45554C420000000000000000AA
:10002000000000000000000000000000030B0410AE
:1000300000000000000000009F0C0410492504107F
:100040008B1E041043240410000000000000000078
:100050005125041013250410A1060410A125041035
:100060000000000000000000000000000000000090
:1000700000000000A3250410A5250410A7250410E6
:10008000000000001F250410992504109B25041072
:100090009D2504109F250410AB250410A9250410EC
:1000A0000000000000000000000000000000000050
:1000B0000000000000000000000000000000000040
:1000C00078B58C4A9A4B9B4C2568002D02D19A4DED
:1000D0002B601360002506E0009E865D2E706D1C6F
:1000E0001560009D6D1C0095009D8D4204DA156819
:1000F000EE1A882EF0DB71BD20684018206071BDBB
:1001000080B500F039FC00F0ABFC012000F0D2FC1F
:10011000012000F0E8FC00F0FAFC884800F087FDC0
:1001200000F0EAF800F04DFE01F086F800F026FA43
:1001300000F018F9F8E7026951030FD48049002351
:10014000002A06D5C0680078A02806D101200870D2
:1001500004E08820C005104000D00B7001207047DB
:1001600030B505697749764A00236C0314D401241D
:10017000002D09D5C0680078B02803D10220107086
:100180000B7009E0147007E08820C005284003D0F8
:1001900014700878401C087008780B2801DB137075
:1001A0000B70012030BDF0B50169674A644B022431
:1001B000664D00264F0311D4002906D5C06800788B
:1001C000C02814D10120287011E08820C005084003
:1001D0000DD01C701078401C107008E028780028A2
:1001E00004D02E7016700320187000E01C70107878
:1001F0000B2801DB1E7016700120F0BDF8B50469F4
:1002000053494F4D0326534A0023670321D4002C42
:1002100016D5C0680478D02C0FD14478022C08D1B0
:100220000124147082781202C07802434A48028086
:1002300018E0012000F05EFCFEE7E02C12D0FEE7A3
:100240008820C00520400DD02E700878401C087012
:1002500008E01078002804D00B7013700420287078
:1002600000E02E7008780B2800DB0B700120F2BD37
:10027000F8B502690324324E384F0025510332D4B9
:100280000421002A27D53D70C0680278E02A0FD1EA
:1002900033480078002809D0012000F02BFC002111
:1002A000202001F0C5F8062030701CE034701AE000
:1002B000D02A0ED14278022A07D182781202C07861
:1002C0000243A348028031700DE0012000F012FCCF
:1002D000FEE7357007E08820C005104003D031707C
:1002E0003878401C387038780B2801DB3D7034704A
:1002F0000120F2BD30090020E0B5964803C86A46E7
:1003000003C20121002001F04DFA684600F048FFC9
:10031000914801F0A4FA0F2001F05AF98F48A0216A
:100320000170002141708E48017000200EBD000058
:10033000D4060020280900202C090020C100041048
:100340003B0900203E090020400900203F09002011
:1003500042090020410900203409002043090020FF
:1003600038090020FEB57F480078012800D1A0E0C0
:1003700002207C4908707C48026807207B49774C42
:10038000774B1B78002B26D1794D2B70704D2B802D
:10039000784B15091D80120702D01A88521C1A804A
:1003A000A0222270002262706D4A1378CB60107018
:1003B000962001F00AF9012000F095FB0121202090
:1003C00001F036F86C480190FA2040000090A34BF1
:1003D00022000146A4E0624B1B78012B15D1B0230B
:1003E000237004236370130EA370130CE370130ABD
:1003F000237162715A4A1378CB601070962001F015
:10040000E4F8FA214900964886E0964E96256D005C
:10041000534A1278022A0CD1C02222700022627044
:100420004F4A1378CB601070280001F0CEF88E4848
:1004300013E08E4B00274A4A1278032A16D11A7805
:10044000012A34D0D02222706770454A1378CB60DD
:100450001070280001F0B9F885480190009623003B
:100460007E4A2900182001F057FA68E03C4A1278C9
:10047000042A59D1364A128815017E4C26682A0072
:100480001032964205D30A68521C0A6012220026D6
:100490002BE026686A1C96420DD24868401C4860D2
:1004A00003202F4908701878042800D1FEE72D4852
:1004B00007700020FEBD266896420CD38A68521C45
:1004C0008A602268521B921C1B78042BDFD1012307
:1004D000274C2370DBE7FEE7674CAF05BF0DBF1964
:1004E000E45D1B1D9C55761CF6B2644B9642F3D31B
:1004F0001C46E02323706270154A13881B0AA37000
:100500001288E270164A1378CB601070962001F0C2
:100510005CF8FA2149005A48019000914F4B2200A3
:10052000182001F0A0F90AE00D480178062906D14B
:1005300007700F490F7006490F800A48077051482D
:100540000178002901D0002101704F480078FEBDDC
:100550003409002080250410DA88D1885008002052
:100560003B0900203909002010090020F008002074
:10057000380900203609002037010410F8B5434C33
:10058000A5440027009742480078022862D0012540
:100590003F490D703F4E354C207800280FD133680D
:1005A000581C30603C4A002102A800F013FC0228CD
:1005B00001D009202BE02570354807704AE02078EB
:1005C000012826D100F0F8FB3368581C30606A46D9
:1005D0000021294800F0FEFB022802D009212170E9
:1005E00039E02B480770234D2B4E306800992A685C
:1005F0008918884206D20420207000F0DDFB3068A4
:10060000286027E0286800994018286002202070A0
:1006100020E02078022801D125701BE020780428F2
:1006200010D1052020703368581C306001AA0021C9
:1006300002A800F0CFFB042801D000F0B5FB00F0C9
:10064000BBFB07E02078052804D02078092801D1D9
:1006500000F0AAFB002011498D44F0BD28080020BD
:100660006101041088130000A70104103A0900205A
:10067000FD0104102C000020CC020020C80800203E
:10068000710204103C0900203D090020F0FBFFFF2F
:10069000390900201409002010090020140400006A
:1006A00080B500F0D1FE01BD10B5C2001823134083
:1006B000FF249C40E2438907090E9940030004D5BA
:1006C0005D481B071B0F083B00E05C489B089B0034
:1006D000C01803681A401143016010BDFEB5012423
:1006E0005748017801220A430270002655480660E7
:1006F000032501F08DF969460880684600880028C6
:1007000001D16D1EF5D168460088202836DB684689
:1007100000880125400525D4684601F0D9F96846CE
:100720004178090180780843122800DA00254648FC
:100730000068000705D4002D14D0012000F062F8F5
:1007400010E0874FF868874E3168081A2838000291
:100750000012002806DD002D02D0012000F052F822
:10076000306838608048047001F009FABFF34F8F99
:100770007E487F490860BFF34F8FFEE70120FEBD32
:1007800010B500220021A84804E00B00415C591874
:10079000491CC9B2435C002BF7D1CB1C202B12DAC9
:1007A000022343542123441863700823A370431881
:1007B000DA709E4A80235B02401880B218431060B2
:1007C00010681840FCD110BD70B500210023964A76
:1007D00004E01C00D35CE3185B1CDBB2D45C002C8F
:1007E000F7D102253524DE1C202E05DAD554D61883
:1007F0007470B070D218D1708D4A157054709070AA
:10080000D17070BD70B580214902894B9CB20C43F8
:10081000864A002804D01460106808400AD0FBE71C
:1008200098789D78FB262E409E70146014680C40CA
:10083000FCD1987070BD00001CED00E000E400E009
:100840000800204014000020C0000020F3B58BB049
:1008500003A878491C2201F0B7F9684601F038F97D
:10086000724C01250BA80078002858D003A8442119
:10087000817371490A78012313430B704C21C172B3
:1008800020210172B22141745B2101756B498B6B90
:100890006B4A1E0C964209D1C67D8F273740C7751B
:1008A000C67D1B0170271F403743C7754B6B1E0C5D
:1008B000964209D14679CF273740477146791B01C7
:1008C00030271F403743477109680B0C934208D10A
:1008D000C27DFC231340C375C27D8907890F114374
:1008E000C175C17AFB220A40C27269464A78120178
:1008F0008E781643112E06DDC17D04220A43C2758F
:10090000C07DFFF761FF280403A989B2014321607C
:1009100021680140FCD1112E01DDFFF731FF15499F
:1009200088890028FBD00CA800788D8117220A80C6
:1009300000224A60002807D06068102162680A40DF
:10094000102303409A42F9D00BA80078002802D067
:1009500015203C4908703C483C4908600DB0F0BD8A
:1009600004000048180000200C0000200400FA05D4
:100970000CED00E00C00104880B5082034490880D8
:1009800003210120C043FFF78FFE03210020C04355
:10099000FFF78AFE03210020FFF786FE03210120D6
:1009A000FFF782FE03210420FFF77EFE03210520CE
:1009B000FFF77AFE00210620FFF776FE03210720CD
:1009C000FFF772FE03210D20FFF76EFE03210E20BC
:1009D000FFF76AFE03210F20FFF766FE03211120B7
:1009E000FFF762FE03211220FFF75EFE03211320B2
:1009F000FFF75AFE03211420FFF756FE03211520AE
:100A0000FFF752FE03211620FFF74EFE03211720A9
:100A1000FFF74AFE01210120FFF718FF0D480E499C
:100A2000086062B601BD0000780800200C00004894
:100A30001C0000202C25041008002040B0070010E6
:100A400055AA00000000C040CCBCECFC1400002003
:100A50000400104066000E00200090407047704770
:100A60000120034908707047014800787047000072
:100A70004409002038B50E4D2C000C3C002811D044
:100A8000022807D00ED2FFF7EFFF0C2148432818A9
:100A9000083805E0FFF7E8FF0C2148432818001F3D
:100AA000006832BDFFF7E0FF0C214843205832BDFB
:100AB000582504101CB504000121012000F09EFF00
:100AC0002000FFF7D7FF0090684606210171012141
:100AD0008171417100F062FC2000FFF7CBFF002123
:100AE00000F0A6FC13BD80B5FFF7C4FF012100F0A4
:100AF0009FFC01BD80B5FFF7BDFF002100F098FC11
:100B000001BD70470B480168491C016070470A48E5
:100B10000A4941600A490A681202120AC0231B06E8
:100B200013430B6000218160072101607047014879
:100B3000006870472800002010E000E0FE7C000004
:100B400020ED00E010B50400202001F00FF901288D
:100B5000FAD0200001F001F910BD78B585B004008D
:100B60000121092000F04AFFFFF77EFF394980008C
:100B70000818001F00680090FFF776FF6D463649A1
:100B800080000818001F006828710026AE716E7181
:100B9000684600F003FCFFF767FF30498000081843
:100BA000001F00680090FFF75FFF2D4980000818C4
:100BB000001F00682871684600F0F0FB02940320D3
:100BC00002A908714871CE804E72087201208872A5
:100BD00002A801F01FF8002001F0D9F8012001F06F
:100BE0000DF806B070BD1CB5040068460421017004
:100BF00003214170847001F0EDF82100102001F014
:100C0000A2F813BD80B5102001F0B8F8002808D173
:100C100001BD01F0A7F8694608700121684600F09F
:100C200011F8102001F0A2F80028F2D001BD80B523
:100C30000C490860E1204002FFF78FFF0120FFF719
:100C4000D2FF01BD074A1268002A00D1704780B563
:100C5000904701BD882504108C25041090250410B0
:100C6000942504101809002070B50024012804D030
:100C7000022802D00020C04370BD002901D100200D
:100C800070BD0D00160004E02878FFF75BFF6D1CB7
:100C9000641C3000461E0028F6D1200070BD70474D
:100CA0003EB50400002900D10121684601F0CAF8D0
:100CB000464D2868002807D1684601F0CBF8002887
:100CC000F7D00020C0433EBD72B6414801680A78A3
:100CD0002270491C01602868401E286062B600200E
:100CE0003EBD80B501F0C2F8002002BDFCB5020097
:100CF0000025002000241678302E32D15678782E28
:100D000001D0582E2DD19578002D1ED00192009142
:100D10000221019A525C002A11D016003500413D93
:100D2000062D07D33700613F062F03D33700303F2E
:100D30000A2F07D2303E0A2E08D2303A0BE0009834
:100D4000046001200A2900D90020F6BD062D01D239
:100D5000373A00E0573A2401A418491C0A29D8D987
:100D6000F0E7565D002E17D06B2E01D04B2E01D12F
:100D7000002D14D16D2E01D04D2E01D1002D11D199
:100D80003700303F0A2FE0D20A277C43303EA419B7
:100D90006D1C0A2DE5D9F6BD0C600120F6BDA00240
:100DA0000860FAE72005FBE780B51820FFF799FFF8
:100DB0001820FFF796FF01BD80B50620FFF791FFD1
:100DC00001BD00200149086070470000280900208B
:100DD0002C090020FCB583B006000027019702E033
:100DE0004320FFF77EFFFA2040000290014668464C
:100DF000FFF756FF002849D168460078012820D027
:100E000002281BD0042853D0182808D0412801D02C
:100E100061283BD11820FFF764FF18200AE00299EF
:100E20006846FFF73DFF002830D168460078182853
:100E30002CD10620FFF755FF012037E08024E40085
:100E400000E0802468460078307001250299A8B23D
:100E50003018FFF725FF002818D16D1CA8B2611DBE
:100E60008842F3DB7078B278FF23534098420DD16B
:100E700001970499C9B28842B5D103990498002812
:100E800031D1F078002825D0F21C17E00498002812
:100E900002D00198401C019001980528A0DD18207F
:100EA000FFF71FFF1820FFF71CFF032005B0F0BD60
:100EB0000620FFF716FF0420F8E7521C10780028E0
:100EC000FBD1501C521C1378202BFBD11770FFF75D
:100ED0000DFF0BE00620FFF704FF0520E6E7F01CFE
:100EE000C05DF0557F1CA742F9DB0C600220DDE7F6
:100EF00080B501F0E1F801208A49087101BDF8B51B
:100F000007000E003C000020307000E02469002C37
:100F10001AD0207B0028F9D0EFF3108572B601F0CB
:100F200033F9020003CC083C801A012803DB0121BD
:100F300001F05EF901E00120307085F3108830780F
:100F4000002801D03800F2BD2000F2BDFEB500251A
:100F50006C462570017B002901D00120FEBD0CC02C
:100F60000838012101736F4CE6680196070001E023
:100F700035003669002E08D00CCE083E03CF083F5E
:100F80008B42F5D301D88242F2D338000661002D9E
:100F900001D1019000E028610199814213D1694695
:100FA000FFF7ADFFE0606846007800280BD0EFF354
:100FB000108072B6217C4A1C637C9A4200D0491C86
:100FC000217480F3108868460078FEBDF2B586B0C3
:100FD000050000260E70A87A002861D06E480CC863
:100FE0005048006800218018594104AA03C2EFF359
:100FF000108772B601F0C8F802AA03C203CD083DFB
:101000000090019104A803C8C8229202002312187C
:101010004B4100980199994210D301D890420DD3C9
:1010200004A803C8B9225200002312184B4102A899
:1010300003C88B422ED801D382422BD2297AE87A78
:1010400001F07AF9020003CD083D6B4603C3012489
:1010500002A803C8002312184B4100200932434163
:10106000684603C88B4210D801D382420DD22A7A37
:10107000EB7A684603C8190001F0E4F80699087095
:1010800087F31088AE726C720AE087F310880698B6
:10109000047005E087F310888020400562490860ED
:1010A00007B0F0BD10B5010060481E4C06D0617954
:1010B000002907D1FFF71CFF012002E000F034F8FF
:1010C0000020607110BD802040055A4908603348F7
:1010D000017C4A1C437C9A4200D0491C0174704731
:1010E00038B50300002468460470514DE9722A7235
:1010F000294803C81A1A002312184B410CC5083D91
:101100006C720120A87269462800FFF75FFF6846ED
:101110000078002800D0AC720120FFF7C3FF6846BA
:10112000007832BDDC0800207CB503001B4CE2686F
:10113000150000210026100001E02E002D69002D71
:1011400009D09D42F9D101932B69954201D1180034
:1011500002E0336100E001936D462970019B197331
:10116000824216D0002814D06946FFF7C8FEE0601E
:101170006846007800280DD0EFF3108072B6217C0D
:101180004A1C637C9A4200D0491C217480F3108869
:1011900073BDE06073BD0000B0080020DC080020D3
:1011A0007CB506004020764908606846B1788170B9
:1011B000B188C1703188018000F01DFF724801F0D4
:1011C00002F800246F4DEC600120687118484472E9
:1011D00084723088A8602C82B08800030A2101F054
:1011E000C5F828602C71694E002804D1300001F048
:1011F0008DF828600AE0300001F088F829688842FC
:1012000003D2300001F082F801002960074E6048E7
:10121000B060746100F0B8FF2A68002312184B41D7
:101220003000FFF793FE73BD0400004898080020CB
:101230000009002048000048F0B585B0002069464C
:1012400008705448407A00282FD000F09DFF514A82
:101250000CCA8B4229D801D3824226D200204D49A4
:10126000487222E0401C19E0046901990173816809
:10127000002900D088472000F6D16946F868FFF7BA
:101280003EFEF8606846007801280AD1EFF310812D
:1012900072B6387C421C7B7C9A42E3D1387481F36D
:1012A0001088787C049940187874364F787C010057
:1012B0003A7C824201D3501A03E080204000801A19
:1012C0004018002824D00490FC68002001900026DB
:1012D00003940294019D02E0260024696D1C002CF9
:1012E0000AD0207B0028F7D000F04EFF020003CC8C
:1012F000083C801A0028EFDD002D019802D03061F3
:10130000039400E002900398F86002980028B3E785
:10131000214E1D4C3879002817D000F0D7FE002848
:101320002CD1387100F0E6FE200000F04CFF694639
:101330001848FFF74BFE00F027FF3A680023121809
:101340004B413000FFF702FE18E0207C002815D04A
:1013500000F01AFF02000B0003CCC824E4020025B1
:1013600024184D419D4209D801D3944206D2300041
:10137000FFF7DAFE00F0A0FE0120387105B0F0BDE5
:1013800000E100E0DC080020B0080020FFEFFF00D3
:10139000F10E04100009002098080020F0B504792F
:1013A00022000021264B002C04D11C680568AC43A8
:1013B0001C6006E0062C04D100221C680568254349
:1013C0001D600568CD40ED071AD5082909DA8D00A2
:1013D0009E6A0F27AF40BE431700AF4037439F625E
:1013E0000EE00D00083D082D0AD20D00083DAD00AD
:1013F000DE6A0F27AF40BE431700AF403743DF62BE
:10140000491C1A29DDDB01684279012A9A6802D158
:101410001143996001E08A439A600168807901284C
:10142000586802D101435960F0BD88435860F0BD4F
:10143000044A012901D110607047506070470000D4
:10144000040000403C000040F8B584B09025ED0554
:1014500028680090C00100D48FE000F052FF624C79
:101460002000083080B2802149020143E960606DAC
:1014700000990161016B88470128606D01D1866A7E
:1014800000E0C66A9C4880214905002E03D16960AE
:10149000002101803FE00388984A1A4033781A43BC
:1014A0004823134303803278920182183823F35C77
:1014B000937532001C326B469A8002001C323378DE
:1014C0009B016F46BF88D7523278920180186A46D6
:1014D0009288C283707840071DD56960717888064C
:1014E00012D500F051FE02AA03C2706800F016FF88
:1014F0000300717801220A40022001400F0002A877
:1015000003C8C018390004E001220A40022001404B
:101510007068FFF7E5FD0098800F800728D06420F1
:10152000E968C90301D5401EFAD1A068010CFF2269
:1015300012020A40207B1043C9B2002811D00C29A6
:101540000FDA062251437F3901E0891D40101E2821
:10155000FBDCFF22A2325043914A80188012081807
:1015600000E07F20616D886100F0DCFE616D486104
:10157000606D66653100426B90470098000401D5AC
:10158000FFF7A1FD0098800301D500BF00BF0098C0
:10159000286005B0F0BD30B50022574B84011B19FF
:1015A0009B182D248D5C1D55521C052AF5DB30BD82
:1015B000514B80011818C1752C21425470474E4B75
:1015C00080011818416282627047074908607047BD
:1015D00010B5C0000021484A4A248B01D318185581
:1015E000491C0829F9DB10BD5C00002030B5C1683A
:1015F000C18301001C3181838268030021330321F0
:101600008024E402A24208D220254255140A1C700C
:10161000120C1140222281542EE0A400A2420BD2CF
:10162000940820254455940A1C70920C11402222E3
:101630008154815C04221CE0A400A2420BD2140954
:1016400020254455140B1C70120D11402222815488
:10165000815C08220DE0A400A2420DD2940920254D
:101660004455940B1C70920D114022228154815CD0
:101670000C220A432221425441788022114205D192
:101680002223C35C13432224035505E02223C35CB9
:1016900040241C432223C4542223C35C30241C4313
:1016A0002223C4545F4B1C68232544551C68240A1C
:1016B000242544551B681B031B0F252403550023B9
:1016C0002624035513240C4026254455445D4455D7
:1016D000445DFB252540262405552C4605786D01E3
:1016E000254326240555FF24272544553824035532
:1016F000890700D5025530BDC0000020F0FF000072
:101700007FB50400684600F081F8002845D100212B
:101710004448017180225205434B1A60434A82605B
:10172000C160434A03001033538123785B075B0F8A
:101730001588404E2E401D00354348262E43168006
:101740009B01D21811835183118421001C31918394
:10175000D18344653820205C907572B6607881062C
:1017600012D500F011FD02AA03C2606800F0D6FD98
:101770000300607801220240022101400C0002A80F
:1017800003C8C018210004E00122024002210140E8
:101790006068FFF7A5FC62B600E0C42004B070BD2D
:1017A000A046000038B54024234A1460204D092289
:1017B0006A71EA710522AA712A7200290CD180216E
:1017C0006A790A436A71EA790A43EA71AA790A4393
:1017D000AA712A7A114329721249086500202880CB
:1017E0009022D205A30553609364136813604722C7
:1017F0000A6008710B20FFF7EBFE2320285CF5211F
:101800000140232029540D48046031BD010000200F
:10181000074A1288120700D4704780B5080000F00C
:101820005DFD02BD5C00002004000048862E000023
:10183000C0000020F0FF000080E100E000E100E0D7
:1018400001207047012070470069624901408020F3
:101850000006814201D101207047002070475E4997
:10186000086000207047FBB586B0160000250024F4
:1018700000F08AFC0700079800F050FD381800902F
:101880006846007E282800DBC02401A8FFF7BEFFC1
:10189000002801D0C4243CE020003AD10F9F0296DA
:1018A00003A851490CC90CC003A90020FFF773FE1F
:1018B00000226846017E0020FFF77AFE474A46482C
:1018C00001680020FFF77BFE454C25700320607007
:1018D00000986060A5600298E060444EA662E662EF
:1018E00040482063424961633580079921640E991D
:1018F00061640899A1646566A566E06627672000B3
:10190000FFF774FE3000FFF771FE2000FFF7F8FECE
:101910000400200009B0F0BDFBB586B0160000251C
:10192000002400F031FC0700079800F0F7FC38189D
:1019300000906846007E282800DBC02401A8FFF73D
:1019400065FF002801D0C42440E020003ED10F9C58
:101950000E9F029603A827490CC90CC003A90020BA
:10196000FFF719FE00226846017E0020FFF720FEE7
:101970001A4A194801680020FFF721FE184E3570F9
:101980000120707000987060B7600298F0603700B6
:101990003C37B762F5621848306374633D700220CB
:1019A0003D2170540798306475640898B06475667A
:1019B000B5660C48F06634673000FFF717FE380054
:1019C000FFF714FE3000FFF79BFE0400200009B073
:1019D000F0BD000000000480240000205555550093
:1019E0005C0700204118041070250410980700209F
:1019F000451804107825041049180410304A0129AC
:101A0000116802D10843106070478143116070472C
:101A10002C4802782C4801880020002A44D1092251
:101A20000A40092A00D1202011220A40112A02D19D
:101A300002004020104321220A40212A02D1020044
:101A40008020104341220A40412A03D10200802015
:101A50004000104381220A40812A03D102008020E5
:101A600080001043FF22921C13000B40934203D1CD
:101A700002008020C0001043144A13000B40934220
:101A800003D1020080200001104305220A40052AEC
:101A900002D10200102010438907890F03290ED1BB
:101AA0000100082008437047022A01D10120704735
:101AB000042A01D102207047082A00D1042070476F
:101AC00020009040080090400800104801040000E9
:101AD0000F21114A13681B090B404370136819400A
:101AE0008170D268426001210C4B9A4208D10C4AA5
:101AF00012680C4B9A4201D1042202E0022200E05B
:101B0000012202704278002A00D1417006490988FA
:101B1000491C8900816070471C00904041A0000270
:101B20001C00001044A000F214001040EFF31482D7
:101B3000EFF30981002080F31488BFF36F8FF0B5B5
:101B400043464C4655465E466746F8B4164CEFF39E
:101B50000883236006B4154C2068154C2060154C92
:101B60002068154C2060154C2068154C2060154CE1
:101B7000276800202060BFF34F8F30BF27600A4CDA
:101B8000246884F3088882B003BCF8BC9846A14658
:101B9000AA46B346BC46F0BC04BC80F3098881F376
:101BA0001488BFF36F8F10470800002004ED00E099
:101BB0001C09002024ED00E02009002000E200E0E4
:101BC000240900200800204070B4103A03D378C9DB
:101BD000103A78C0FBD2530701D318C918C001D5F9
:101BE00008C908C0D20704D30B880380891C801C55
:101BF000002A01D50B78037070BC70476949002832
:101C0000086803D0012202430A6070470122904312
:101C100008607047F0B5040021680125624E6348F2
:101C20007269D2082A4001D1090100E0C90000F020
:101C3000B1FBC10931810904490A401A401C40081E
:101C400081B23F2902DD3F388006800E307360206C
:101C50009F21327C0A4023795B0103401343337494
:101C600032781140627952011040084330700821E7
:101C7000F720327C0240A379DB0008271F4017437E
:101C8000377432781040A279D2001140014331708C
:101C9000E179002907D1FD20317C01403174317890
:101CA000084030701CE002200229317C0BD1014336
:101CB0003174FB21327C0A40327432781043307028
:101CC000307801400BE0014331740421327C04235D
:101CD00013433374327810433070307801433170DD
:101CE000706933490140207A2840400208437061FE
:101CF000706930490140207A4008284000020843BA
:101D0000706170692C490140607A28408003084363
:101D10007061706929490140607A40080540E80314
:101D2000084370611020EF21327C0A40A37A1B0126
:101D300003401343337432781140A27A12011040E9
:101D400008433070F0BD1E4A0029118802D00843B4
:101D500010807047814311807047C005C00D19493C
:101D60000880704717480088C0B2704701001648C5
:101D7000002901D5006800E0808A02E001001348D4
:101D800000880140080000D00120C0B2704710490F
:101D90000A78C7231340C0003822FFE702401A43E5
:101DA0000A707047300030401C0030400000127A4A
:101DB000FFFDFFFFFFFEFFFFFFBFFFFFFF7FFFFFF6
:101DC0003800304000003040040030403C003040DB
:101DD00034003040F0B502781F23012481780029B7
:101DE00021D0417852B2D50018262E40FF27B740A7
:101DF000FD438907090EB140160004D50D4A360788
:101E0000360F083E00E00C4AB608B6009219166874
:101E1000354029431160007803409C400749400940
:101E200080000C50F0BD13409C40054851098900CA
:101E30004450F0BD1CED00E000E400E000E100E0F3
:101E400080E100E010B504006160FFE7FEF76FFE7F
:101E5000206010BD10B50400FEF769FE61682268BD
:101E6000801A401C81428041C00F10BD80B5694678
:101E7000087001220120FEF7F7FE012802D1684612
:101E8000007802BD0020C04302BD70479248012186
:101E9000018100210160704730B58F4A5168126896
:101EA0008E4B140A5C43D5B25D432B0AE318103302
:101EB0005B0983628B098A4C634380331B0A43624C
:101EC000C261016287494A43110CC18230BD10B51D
:101ED0000400FFF7DBFFAB4800880028FBD02000A0
:101EE000FFF7DAFF10BD804948800888000716D444
:101EF0007E487F49C268921C0A40022AFAD3491CD4
:101F000011430160C1689142FCD3C2681032A149FB
:101F10001140C2688A42FCD38021490501607047A4
:101F2000C20B4A434004400CC9094843000A101838
:101F300020308009704768214143090ADB22504361
:101F4000000C08187047830B4B438004800C090A6F
:101F50004843800918180021515E411A080040309A
:101F6000C009C301591A1180704738B530C8083804
:101F70009D4A13680B6002004832816A006B181A90
:101F80000002000AFFF7DFFF00210019694134BD9C
:101F900038B504009448056822004832E16A606B55
:101FA000281A0002000AFFF7CEFF210008310CC9F1
:101FB00000218018594103C4083C25636563220051
:101FC000083203C2A06AE06231BD80B5FFF7A8FF06
:101FD0000821864A904201D9100002E0082800D268
:101FE0000820934AC00810753F4803880B4201D16E
:101FF000117D417201BD70B505008D4C28882061AE
:10200000E878002802D1A878002810D08948818972
:102010000029FBD00188FE2212020A401721114339
:1020200001802000FFF753FFA06AE0620CE0C820A7
:102030004003E062A062804860628048E0618048BE
:102040002062F4204000E082E87838216054616A20
:10205000206980B2FFF7B9FFE08AFFF744FFE08A0A
:1020600020830020002103C4083C5F4A12682263D9
:1020700062632200083203C27F251B4EF07928409C
:10208000FFF759FF38304421605470792840FFF73A
:1020900052FF1B3045216054307A2840FFF74BFF38
:1020A000383046216054307A05402800FFF743FF5E
:1020B0001B304721605470BD9E480078002804D032
:1020C0000548012101810021016070472D480188E8
:1020D000481E8041C00F704710001048F6BC080031
:1020E0005307000055050000C00000200400004810
:1020F000FFFFFF0070B594B0984C3820205C00289A
:1021000036D0684621005022FFF75EFD6846FFF793
:10211000C3FE0999049880B2FFF757FF6D46E88A1D
:10212000298B814203D0FFF7DEFEE88A2883EFF394
:10213000108672B6287D2075E88AE082288B20837D
:102140000798E06108982062099860620A98A06286
:102150000B98E0620F98E063109820644820285A9A
:10216000482160522000FFF713FF86F3108807E034
:10217000EFF3108572B62000FFF70AFF85F3108891
:1021800014B070BD1800104880B569467348FFF759
:10219000ECFE04BDF0FFFF00F8B505006F4C69468A
:1021A0002000FFF7E2FE06000F0022004832A16A7D
:1021B0000098401B00020012FFF7C5FE0023390003
:1021C000301A9941F4BD0200644B3820185C107439
:1021D000186AD0601800083003C803C2083AD869EA
:1021E0009060586B5061704710000048FF0300007A
:1021F00038B50C000E4D696AFFF792FE01001129F7
:1022000001D3083100E01821334A1068002C02D0B5
:1022100080235B0500E0002341180902090A0B43F3
:102220008021490419439163916BE96332BD000039
:10223000D80700200C001048C2F528008D5B000074
:10224000ECEB6501F8B50600444C20004430012950
:1022500006D1002A02D04420255C06E0457804E03F
:10226000002A01D0857800E0C57869462000FFF794
:102270007CFE301A401B002621691431814206D2AF
:1022800080256D040127217D364A517202E08025A8
:10229000AD040027616AFFF743FE3249497AC9005D
:1022A000401A002F02D08021490500E000212C4A6D
:1022B000009B1B181B021B0A2B43194311600028AB
:1022C00006D580204004854202D116600120F2BD6F
:1022D000106820640020F2BD1000004801000020BA
:1022E0001F4A12680A605101490F032901D10220D7
:1022F0007047022901D101207047012900D1032034
:1023000070471648C08A17494880704780B51349FE
:102310000A004832896AFFF716FE02BD80B5FFF752
:102320000AFE02BD80B510480068FFF735FF04BD06
:102330000000000010080020084A13004433012860
:1023400004D1002906D04420105C7047002901D038
:10235000987870475878704700000000D807002030
:1023600004000048C000002008000048CA0F00D048
:10237000494203105A400DD004B500D3404200F04A
:1023800009F8009AD20701D34942124200D54042CF
:1023900004BD0000094214D088420FD30122030C6F
:1023A00001D100041204002300185B418B4200D3CA
:1023B0005B1A5241F8D31900100070470100002049
:1023C000704708B5C046C04608BD70B4012300245C
:1023D00013E00168001D194202D04D466D1E4919D7
:1023E0000C60091D121F042AFAD20D00960701D5B0
:1023F0000C80AD1C1A4000D02C700268001D002A11
:10240000E7D170BC704730B5016841184468620874
:102410008A188368E40704D54C461B1901E0641C44
:1024200006D191420BD00C7864B2491C0D78491C3E
:102430001D705B1C002CF2D4641EF7D5F1E70C3044
:1024400030BD704710B5074979441831064C7C44BB
:10245000163404E0081D0A68891888470100A14263
:10246000F8D110BD08000000840000005FFFFFFFEE
:102470000400000008000020040000000C00002000
:1024800004000000140000200400000018000020D8
:10249000080000001C0000200400000030000020A4
:1024A0000800000028000020580000005C00002008
:1024B0007C060000CC020020000000004BFFFFFF64
:1024C000EC00000014000000C00000203BFFFFFFF4
:1024D000E60000000A000000100000202BFFFFFFB4
:1024E000DB0000000A00000024000020FEF7F6F8E0
:1024F000002801D0FFF7A6FF00BF00BF002000BFEB
:1025000000BFFDF7FDFD00F000F880B500F002F817
:1025100001BD70470746384600F002F8FBE77047F8
:102520002021090326311820ABBEF9E7023F000243
:102530003E30023C20023B4C023A400239B20234A7
:102540005B02350B0000000080B5FEF7DBFA01BD31
:1025500080B5FEF757FB01BD400000008000000081
:102560000040000000BF00BF00BF00BFFFF7BEFF7C
:10257000FFFFFFFFFF000000FFFFFFFFFF00000065
:102580000100000000000000000100000100000048
:102590000008000001000000704770477047704756
:1025A00070477047704770477047704781008100DF
:1025B00081008100F000030000041003DF88DF8841
:040000051004256559
:00000001FF
